:030000000218B92A
:0C18B900787FE4F6D8FD7581210219004B
:101B6800B6C1C8A1B3C9B9A62CCEC2B6C8CEAA25DB
:101B78006275A1E62CCAAAB6C8CEAA256275252523
:101B88002E0D0A00B6C1C8A1CAA7B0DC2CC9E8B19D
:101B9800B8C0EBCFDF2E0D0A00B6C1C8A1CAA7B0E6
:0E1BA800DC2CCDA8D0C5B3ACCAB12E0D0A00FE
:101A6500120BB27B017A0179237D17121D1B7FE8CA
:101A75007E031200037B017A017923120935EF14E5
:101A8500601F146027240270E57BFF7A1B7968903C
:101A95000125E0900003F0900126E0900004F0801D
:101AA500067BFF7A1B798C1219AB80C27BFF7A1BF0
:071AB50079A11219AB80B703
:071E81004401100000000005
:10000300EF4E601A900108E0FCA3E0FDED1D7001C6
:0E0013001C144C70F7EF1F70011E144E70E6A7
:0100210022BC
:081E5400900077E0FEA3E0FF1F
:0A1E5C00EF1FAC0670011E4C70F67B
:011E66002259
:101E1300900108E0FCA3E0FD1208C2E47B83FAF919
:101E2300F812075790010C12088590010CE0C313B8
:061E3300FEA3E013FF22F4
:101DC00090010BE06599600AE599F0E490010AF052
:101DD000800690010AE004F090010AE0C394E974DF
:0C1DE00080948040060075C7600000225F
:0B19AB00900000EBF0A3EAF0A3E9F0CD
:1019B60090006B7401F0A37400F0A37403F0900020
:1019C60000E0F9A3E0FAA3E0900079C9F0A3EAF0F9
:1019D600A3E9F090006BE0F9A3E0FAA3E090007CA5
:1019E600C9F0A3EAF0A3E9F07B017A00792B121C77
:1019F6000490006BE4F0A3F0A3F07B017A00792B4E
:051A06007F01021D59E3
:10157C00EF14601614602C14604D14606C1470031E
:10158C000216102405600302163390FE02E0547E0E
:10159C004480F0E030E0F390FE00E054FCF090FE6C
:1015AC0003807A90FE04E0547E4480F0E030E0F357
:1015BC0090FE00E054FC4403F090FE02E4F090FE38
:1015CC0008F090FE03F02290FE08E0547E4480F078
:1015DC00E030E0F390FE00E054FC4402F090FE0496
:1015EC00E4F090FE02F0A3F02290FE03E0543E449F
:1015FC0080F0E030E0F390FE00E054FC4401F09009
:10160C00FE02801990FE03E0543E44C0F0E030E04E
:10161C00F390FE00E054FC4401F090FE02E4F090E4
:08162C00FE08F090FE04F0221C
:0C1E7500EF90FE01700304F022EFF02259
:100BB20043BA80AF9FE4FCFDFEC004A905AA06ABC0
:100BC2000778FBE6FFD000C3EF9BFFEE9AFEED999C
:100BD200FDEC98FCE47BF07AD2F9F8120757C3E4F3
:100BE2009FFF74369EFE746E9DFD74019CFC900006
:100BF20000120885900000E0FCA3E0FDA3E0FEA344
:100C0200E0FFC00790FE01E0FBE4FAF9F8D007121A
:100C120007E29000001208857FC07EF67D577C00B7
:100C2200900000E0F8A3E0F9A3E0FAA3E0FBC3120E
:100C32000874500D90011012089100546000020DCA
:100C4200E17FC07E267D827C00900000E0F8A3E078
:100C5200F9A3E0FAA3E0FBC3120874500D9001104F
:100C6200120891005B8D80020DE17F807EED7DAFE9
:100C72007C00900000E0F8A3E0F9A3E0FAA3E0FB17
:100C8200C3120874500D90011012089100A8C00000
:100C9200020DE17F807E2D7DE87C00900000E0F86F
:100CA200A3E0F9A3E0FAA3E0FBC3120874500D908D
:100CB200011012089100B71B00020DE17F807E3601
:100CC2007D257C01900000E0F8A3E0F9A3E0FAA3FF
:100CD200E0FBC3120874500D900110120891011923
:100CE2004000020DE17F807E567D417C0190000034
:100CF200E0F8A3E0F9A3E0FAA3E0FBC31208745002
:100D02000D90011012089101312D00020DE17F00BA
:100D12007EDB7D5F7C01900000E0F8A3E0F9A3E0B8
:100D2200FAA3E0FBC3120874500D9001101208914F
:100D320001518000020DE17F607E197D857C01906A
:100D42000000E0F8A3E0F9A3E0FAA3E0FBC3120875
:100D520074500D900110120891016E3600020DE1DF
:100D62007F207EE07DB27C01900000E0F8A3E0F9F4
:100D7200A3E0FAA3E0FBC3120874500C9001101216
:100D82000891019BFCC080577FE07EA67DE07C013C
:100D9200900000E0F8A3E0F9A3E0FAA3E0FBC3129D
:100DA2000874500C90011012089101C9C380802F61
:100DB2007F607E2B7DFF7C01900000E0F8A3E0F9CC
:100DC200A3E0FAA3E0FBC3120874900110500912C9
:100DD200089101FA4000800712089102160EC0E441
:100DE2007B107A27F9F8900110E0FCA3E0FDA3E064
:100DF200FEA3E0FF1207E2900108EEF0A3EFF0E499
:0D0E020090010BF090010AF0121D90D2AF8C
:010E0F0022C0
:0B14B700900007EBF0A3EAF0A3E9F0BF
:1014C2007F647E00121E13900077EEF0A3EFF0907F
:1014D20000747401F0A37400F0A3740AF090000782
:1014E200E0F9A3E0FAA3E0900079C9F0A3EAF0A33F
:1014F200E9F0900074E0F9A3E0FAA3E090007CC95F
:10150200F0A3EAF0A3E9F07B017A007934121C041B
:10151200900032EEF0A3EFF0900074E4F0A3F0A399
:10152200F07FF47E01120003E4FBFAD3900033E073
:101532009B900032E09A40E9D2B1C2B1121E5474BB
:10154200342BF58274003AF583E0F9E4FDEDC3949F
:1015520008748094805014E930E004D2B18002C251
:10156200B1E9C313F9121E540D80E2D2B1121E5416
:0A157200121E540BBB00010A80B1E9
:0B16DE00900114EBF0A3EAF0A3E9F088
:1016E900E4FFFE90011AF0A3F0A3F0A3F090011417
:1016F900E0FBA3E0FAA3E0F912069F607790011DD1
:10170900E004F0700690011CE004F0900117E0FB82
:10171900A3E0FAA3E0F98F828E831206B8FD900147
:1017290014E0FBA3E0FAA3E0F912069FB505070F41
:10173900BF00010E8012E4FEFF90011CE0FDA3E052
:1017490090011ACDF0A3EDF0900115E475F00112A6
:10175900072B900117E0FBA3E0FAA3E0F98F828E33
:10176900831206B8FD3395E04D708290011AE0FEB0
:08177900A3E0FF227EFF7FFFC9
:011781002245
:10130000E4900127F0900129F0900128F090012845
:10131000E0C3940A7480948040030213E2E07E00EC
:101320002DF582EE3CF5831206B8FF3395E0FEC33F
:10133000EF9430EE648094804052D3EF9437EE64A3
:101340008094805047900129E004F0E06401701916
:10135000900128E07E002DF582EE3CF5831206B860
:1013600024D0C454F0900127F0900129E064027069
:101370001B900128E07E002DF582EE3CF5831206DD
:10138000B824D0FF900127E04FFFF022900128E021
:101390007E002DF582EE3CF5831206B8FF3395E012
:1013A000FEC3EF9438EE648094804011D3EF9439FB
:1013B000EE648094805006900129E004F0900128AA
:1013C000E07E002DF582EE3CF5831206B8FF642C1A
:1013D0006010EF3395E04F6009900128E004F002BF
:0713E000130D900127E0FF4F
:0113E70022E3
:0813E80090011EECF0A3EDF0F2
:1013F000E4A3F0A3F0A3F0900122E0FFC3941474DF
:1014000080948040030214AE90011FE02FFF9001F2
:101410001EE034008F82F5831206B8FF3395E0FE9C
:10142000C3EF9430EE648094804051D3EF9439EE52
:10143000648094805046900120E0FEA3E0FF7C0091
:101440007D0A120719900120EEF0A3EFF0A3E0FF50
:1014500090011FE02FFF90011EE034008F82F58382
:101460001206B8FF3395E0FEEF24D0FFEE34FFFE06
:10147000900121E02FF0900120E03EF0900122E069
:10148000FF90011FE02FFF90011EE034008F82F5D6
:10149000831206B8FF642C6015EF642E6010EF33E2
:1014A00095E04F6009900122E004F00213F79001EB
:0614B00020E0FEA3E0FFB6
:0114B6002213
:100FB2009000F6EBF0A3EAF0A3E9F0A3ECF0A3EDC6
:010FC200F03E
:100FC300E4900102F0A3F0A3F0A3F0A3F0A3F09048
:100FD3000100F0A3F09000F9E0FEA3E0FF90010010
:100FE300E0FCA3E0FDC39FEC9E400302108290004F
:100FF300FBE0FBA3E0FAA3E0F9900102E0FEA3E02B
:10100300F5828E831206B8FF9000F6E0FBA3E0FAA8
:10101300A3E0F98D828C831206B8B50733900103E0
:10102300E004F07006900102E004F09000FEE0FEA0
:10103300A3E0FF900102E0B50631A3E0B5072C90D1
:101043000100E0FFA3E0900106CFF0A3EFF0802FB3
:10105300E4900102F0A3F0900101E02401FE90016D
:1010630000E03400900104F0A3CEF0900101E0040D
:10107300F06003020FD8900100E004F0020FD89053
:101083000106E0FEA3E0FF900104E0FCA3E0FDD332
:101093009FEC9E5044900100ECF0A3EDF09001060C
:1010A300E0FEA3E0FF900100E0FCA3E0FDC39FECA2
:1010B3009E50239000F6E0FBA3E0FAA3E0F98D82B3
:1010C3008C83E41206F7900101E004F070CF9001E5
:0B10D30000E004F080C77F01227F00D6
:0110DE0022EF
:100E10006770696F5F757070756C6C283C44253025
:100E200032583E2C2564293BB2BBB4E6D4DAB8C3B1
:100E3000494F0D0A006770696F5F757070756C6C53
:100E4000283C44253032583E2C31293BB2BBB4E615
:100E5000D4DAB8C3494F0D0A006770696F5F7570C7
:100E600070756C6C283C44253032583E2C30293B40
:100E7000B2BBB4E6D4DAB8C3494F0D0A0067706953
:100E80006F5F6D6F6465283C44253032583E2C25D9
:100E900064293BB2BBB4E6D4DAB8C3494F0D0A00AB
:100EA0006770696F5F6D6F64652844253032582C18
:100EB0003C25643E293BB2BBB4E6D4DAB8C3C4A334
:100EC000CABD0D0A006770696F5F77726974652823
:100ED0003C25643E2C2564293BB2BBB4E6D4DAB889
:100EE000C350BFDA0D0A006770696F5F7265616495
:100EF000283C5025643E293BB2BBB4E6D4DAB8C3E3
:100F000050BFDA0D0A006770696F5F6F7574283C17
:100F100044253032583E2C2564293BB2BBB4E6D47C
:100F2000DAB8C3494F0D0A006770696F5F6F757457
:100F3000283C44253032583E2C31293BB2BBB4E624
:100F4000D4DAB8C3494F0D0A006770696F5F6F75D7
:100F500074283C44253032583E2C30293BB2BBB477
:100F6000E6D4DAB8C3494F0D0A006770696F5F694C
:100F70006E283C44253032583E293BB2BBB4E6D4FF
:100F8000DAB8C3494F0D0A006770696F5F746F6705
:100F9000676C65283C44253032583E293BB2BBB4CF
:100FA000E6D4DAB8C3494F0D0A0001020408102044
:020FB00040807F
:0A10DF0090012BEDF090012AEFF0D4
:1010E900648870030211F0E0FF54F0F50DEF540F1E
:1010F900FF900FAA93F50ED3EF9407748094804064
:10110900237BFF7A0E791090012AE0FF90000AE410
:10111900F0A3EFF090012BE0FF90000CE4F0A3EFB7
:10112900F01214B790012BE06055E50D24F0602111
:1011390024F0602224F0602324F0602424F0602548
:1011490024F0602624F060272470702B90FE108014
:101159002190FE11801C90FE12801790FE138012C0
:1011690090FE14800D90FE15800890FE1680039065
:10117900FE17E0450EF0227BFF7A0E79358058E59F
:101189000D24F0602124F0602224F0602324F06013
:101199002424F0602524F0602624F0602724707050
:1011A9003090FE10802190FE11801C90FE12801755
:1011B90090FE13801290FE14800D90FE1580089009
:1011C900FE16800390FE17E0FFE50EF4FEEF5EF0D9
:1011D900227BFF7A0E795990012AE0FF90000AE4F8
:0711E900F0A3EFF01214B7B0
:0111F00022DC
:0A038B00900006EDF0900005EFF081
:100395006488700302069EE0FF54F0F50DEF540FDC
:1003A500FF900FAA93F50ED3EF94077480948040C5
:1003B500237BFF7A0E797D900005E0FF90000AE42B
:1003C500F0A3EFF0900006E0FF90000CE4F0A3EF3F
:1003D500F01214B7E50D24F0602124F0602224F01A
:1003E500602324F0602424F0602524F0602624F0A6
:1003F500602724707028E4F50D8046750D01804155
:10040500750D02803C750D038037750D04803275BE
:100415000D05802D750D068028750D0780237BFF42
:100425007A0E797D900005E0FF90000AE4F0A3EFD5
:10043500F0900006E0FF90000CE4F0A3EFF012143A
:10044500B7900006E0FFD3940374809480401C7B32
:10045500FF7A0E79A0900005E0FD90000AE4F0A374
:10046500EDF0A3E4F0A3EFF01214B7E50D704090A2
:100475000006E0FF7E007007E50EF452935294EFFC
:1004850064014E7009E50E4293E50EF45294900016
:1004950006E064027008E50E4293E50E4294900072
:1004A50006E064037009E50EF45293E50E4294E507
:1004B5000D64017040900006E0FF7E007007E50EB8
:1004C500F452915292EF64014E7009E50E4291E5A6
:1004D5000EF45292900006E064027008E50E429117
:1004E500E50E4292900006E064037009E50EF452B1
:1004F50091E50E4292E50D64027040900006E0FF22
:100505007E007007E50EF452955296EF64014E7029
:1005150009E50E4295E50EF45296900006E0640258
:100525007008E50E4295E50E4296900006E06403DC
:100535007009E50EF45295E50E4296E50D640370DB
:1005450040900006E0FF7E007007E50EF452B152C0
:10055500B2EF64014E7009E50E42B1E50EF452B2F8
:10056500900006E064027008E50E42B1E50E42B265
:10057500900006E064037009E50EF452B1E50E4201
:10058500B2E50D64047040900006E0FF7E00700740
:10059500E50EF452B352B4EF64014E7009E50E4214
:1005A500B3E50EF452B4900006E064027008E50E5F
:1005B50042B3E50E42B4900006E064037009E50E0F
:1005C500F452B3E50E42B4E50D64057040900006A3
:1005D500E0FF7E007007E50EF452C952CAEF6401D0
:1005E5004E7009E50E42C9E50EF452CA900006E0C8
:1005F50064027008E50E42C9E50E42CA900006E0A5
:1006050064037009E50EF452C9E50E42CAE50D64AE
:10061500067040900006E0FF7E007007E50EF4527C
:10062500CB52CCEF64014E7009E50E42CBE50EF4DA
:1006350052CC900006E064027008E50E42CBE50E50
:1006450042CC900006E064037009E50EF452CBE558
:100655000E42CCE50D64077040900006E0FF7E0079
:100665007007E50EF452E152E2EF64014E7009E5C0
:100675000E42E1E50EF452E2900006E064027008D5
:10068500E50E42E1E50E42E2900006E064037009E2
:09069500E50EF452E1E50E42E22B
:01069E002239
:101A0B00EFB40900503A901A18F8282873021A33C9
:101A1B00021A36021A39021A3C021A3F021A420201
:101A2B001A45021A48021A648D80228D90228DA0CD
:101A3B00228DB0228DC0228DC8228DE8228DF822F6
:101A4B007BFF7A0E79C590000AE4F0A3EFF0AF05A7
:0A1A5B00A3E4F0A3EFF01214B72289
:101ABC00EFB40900503D901AC9F8282873021AE4B3
:101ACC00021AE7021AEA021AED021AF0021AF302DB
:101ADC001AF6021AF9021AFCAF8022AF9022AFA0BC
:101AEC0022AFB022AFC022AFC822AFE822AFF8229B
:101AFC007FFF227BFF7A0E79E790000AE4F0A3EFD8
:071B0C00F01214B77FFF2265
:0A11F100900002EDF0900001EFF015
:1011FB00648870030212FFE0FF54F0F50DEF540FFB
:10120B00FF900FAA93F50ED3EF9407748094804050
:10121B00237BFF7A0F7906900001E0FF90000AE430
:10122B00F0A3EFF0900002E0FF90000CE4F0A3EFCE
:10123B00F01214B7900002E06052E50D24F060212B
:10124B0024F0602224F0602324F0602424F0602535
:10125B0024F0602624F0602724707028E50E42806D
:10126B0022E50E429022E50E42A022E50E42B0226C
:10127B00E50E42C022E50E42C822E50E42E822E509
:10128B000E42F8227BFF7A0F79288058E50D24F067
:10129B00602224F0602424F0602624F0602824F0DF
:1012AB00602A24F0602C24F0602E24707030E50E40
:1012BB00F4528022E50EF4529022E50EF452A02255
:1012CB00E50EF452B022E50EF452C022E50EF452B4
:1012DB00C822E50EF452E822E50EF452F8227BFF09
:1012EB007A0F7949900001E0FF90000AE4F0A3EF38
:0412FB00F01214B722
:0112FF0022CC
:0516340090012CEFF015
:1016390064887002FF2290012CE0FF54F0F50DEF51
:10164900540FFF900FAA93F50ED3EF94077480946B
:101659008040167BFF7A0F796A90012CE0FF900099
:101669000AE4F0A3EFF01214B7E50D24F060212489
:10167900F0602224F0602324F0602424F060252403
:10168900F0602624F060272470702885800F803947
:1016990085900F803485A00F802F85B00F802A8513
:1016A900C00F802585C80F802085E80F801B85F82D
:1016B9000F80167BFF7A0F796A90012CE0FF90006A
:1016C9000AE4F0A3EFF01214B7E50F550E60037F9B
:0416D90001227F006B
:0116DD0022EA
:0517820090012DEFF0C5
:101787006488700302181EE0FF54F0F50DEF540F44
:10179700FF900FAA93F50ED3EF94077480948040BF
:1017A700167BFF7A0F798890012DE0FF90000AE4FD
:1017B700F0A3EFF01214B7E50D24F0602124F060D8
:1017C7002224F0602324F0602424F0602524F060B4
:1017D7002624F0602724707028E50E628022E50E2B
:1017E700629022E50E62A022E50E62B022E50E624B
:1017F700C022E50E62C822E50E62E822E50E62F815
:10180700227BFF7A0F798890012DE0FF90000AE490
:07181700F0A3EFF01214B77B
:01181E0022A7
:101C9500EFB40800503E901CA2F8282873021CBA25
:101CA500021CBE021CC2021CC6021CCA021CCE02B9
:101CB5001CD2021CD6ED628022ED629022ED62A05C
:101CC50022ED62B022ED62C022ED62C822ED62E82B
:051CD50022ED62F8227F
:10181F00A907EB6048E9B4080040030218B8901814
:10182F0034F828287302184C021850021854021862
:10183F005802185C021860021864021868ED4280A2
:10184F0022ED429022ED42A022ED42B022ED42C0A5
:10185F0022ED42C822ED42E822ED42F822E9B40817
:10186F00005046901879F82828730218910218969C
:10187F0002189B0218A00218A50218AA0218AF029C
:10188F0018B4EDF4528022EDF4529022EDF452A0F0
:10189F0022EDF452B022EDF452C022EDF452C822E0
:0A18AF00EDF452E822EDF452F822A5
:101B1300EFB409005045901B20F8282873021B3BA3
:101B2300021B3F021B43021B47021B4B021B4F02BC
:101B33001B53021B57021B5BAE80801FAE90801BA2
:101B4300AEA08017AEB08013AEC0800FAEC8800BBE
:101B5300AEE88007AEF880037F0122EE5D60037F6D
:041B630001227F00DC
:011B6700225B
:081E89003031363716174344CF
:101D900075985053873F538EDEE4FD7F01121BB6CA
:101DA0009000051208910001C2007F01121CDA4365
:101DB0008E4053890FC2ABC28FD28EC209D2AC22E1
:101BB600900004EDF0EF147044900004E0FF54C070
:101BC600FEE5A2543F4EF5A2EFC41313540325E0DD
:101BD6002489F582E4341EF583E493FFE4FD1203C1
:101BE6008B900004E0C41313540325E0248AF58285
:0E1BF600E4341EF583E493FF7D0312038B227B
:051CDA00900004EFF092
:101CDF00E47B04FAF9F8900110E0FCA3E0FDA3E027
:101CEF00FEA3E0FF1207E2900005E0F8A3E0F9A3DE
:101CFF00E0FAA3E0FB1207E2C3E49FFFE49EFE902D
:0B1D0F000004E01470058F8BEEF58DD2
:011D1A0022A6
:0E1E6700EF147009AF058F99D2092009FD22F2
:101E3900EF147016EB6006D29BD29B8004C29BC242
:0B1E49009BAF058F99D2092009FD22F4
:101D590090006EEBF0A3EAF0A3E9F0AE0790006EF5
:101D6900E0FBA3E0FAA3E0F912069F6019AF069021
:101D7900006EA3E475F001120741A9F0FA12069F5B
:071D8900FD121E6780D72246
:0E1945009000A7EFF0A3EBF0A3EAF0A3E9F007
:101953009000F37401F0A37400F0A374ABF0900053
:10196300A8E0F9A3E0FAA3E0900079C9F0A3EAF0B4
:10197300A3E9F09000F3E0F9A3E0FAA3E090007C80
:10198300C9F0A3EAF0A3E9F07B017A0079D3121C32
:10199300049000F3E4F0A3F0A3F09000A7E0FF7B32
:0819A300017A0079D3021D59FD
:03002300021C4E6E
:101C4E00C0E0C0F0C083C082C0D075D000C000C05C
:101C5E0001C002C003C004C005C006C0073098050D
:101C6E00C298121DC0309904C299C209D007D0067D
:101C7E00D005D004D003D002D001D000D0D0D08275
:071C8E00D083D0F0D0E0325A
:101D1B00900000EDF0FFE0C4540F1206E5EF540FF6
:101D2B00FEF87401088002C333D8FC900001120640
:101D3B00F7900002E41206F7900003E41206F7E4B2
:0E1D4B00FD12038B900000E0FF7D010211F1FC
:0B093500900000EBF0A3EAF0A3E9F053
:100940007F057E00121E1390000CEEF0A3EFF07FE7
:100950000A7E00121E1390000EEEF0A3EFF07F1E31
:100960007E00121E13900010EEF0A3EFF090000036
:10097000E0FBA3E0FAA3E0F912069FFF900001124A
:1009800006B8FDE4FB12181F7F137E0012000390CF
:100990000000E0FBA3E0FAA3E0F912069FFF90003D
:1009A000011206B8FD7B0112181F900010E0FEA393
:1009B000E0FF121E5C900000E0FBA3E0FAA3E0F968
:1009C00012069FFF9000011206B8FD121B13EF6084
:1009D00003020BAF9000037402F0900000E0FBA351
:1009E000E0FAA3E0F912069FFF9000011206B8FD9D
:1009F000121B13EF7017900003E0FF04F0EF600D7F
:100A000090000EE0FEA3E0FF121E5C80CD9000037C
:100A1000E0640170037F02229000037402F09000F2
:100A200000E0FBA3E0FAA3E0F912069FFF900001AB
:100A30001206B8FD121B13EF64017017900003E05B
:100A4000FF04F0EF600D90000EE0FEA3E0FF121E29
:100A50005C80CB900003E0640170037F0222E4908D
:100A60000006F0900006E0C3940574809480400373
:100A7000020B71E4900005F0900004F0900004E097
:100A8000C39408748094804003020B569000037452
:100A900002F0900000E0FBA3E0FAA3E0F912069F49
:100AA000FF9000011206B8FD121B13EF70179000A3
:100AB00003E0FF04F0EF600D90000CE0FEA3E0FF08
:100AC000121E5C80CD900003E0640170037F02225F
:100AD000900010E0FEA3E0FF121E5C900005E025F0
:100AE000E0F0900000E0FBA3E0FAA3E0F912069F1B
:100AF000FF9000011206B8FD121B13EF640170078E
:100B0000900005E04401F09000037402F0900000B2
:100B1000E0FBA3E0FAA3E0F912069FFF90000112A8
:100B200006B8FD121B13EF64017017900003E0FF7D
:100B300004F0EF600D90000CE0FEA3E0FF121E5CDD
:100B400080CB900003E0640170037F0222900004D8
:100B5000E004F0020A7C900005E0FFA3E02407F522
:100B600082E43400F583EFF0900006E004F0020A1E
:100B700063900008E0FF900007E0FE2FFF9000095F
:100B8000E0FD2FFFA3E02FFF900005F090000BE0A9
:100B9000B5071C900000E0FBA3E0FAA3E0F9900089
:100BA00002ED1206F7900003EE1206F77F00227F97
:010BB0000143
:010BB1002221
:1018C500021A65E493A3F8E493A34003F68001F2BA
:1018D50008DFF48029E493A3F85407240CC8C33324
:1018E500C4540F4420C8834004F456800146F6DFF3
:1018F500E4800B0102040810204080901E81E47EE4
:10190500019360BCA3FF543F30E509541FFEE493E7
:10191500A360010ECF54C025E060A840B8E493A3AE
:10192500FAE493A3F8E493A3C8C582C8CAC583CAD9
:10193500F0A3C8C582C8CAC583CADFE9DEE780BE91
:011E88000059
:10069F00BB010689828A83E0225002E722BBFE0259
:0906AF00E32289828A83E493228C
:1006B800BB010CE58229F582E5833AF583E02250F7
:1006C80006E92582F8E622BBFE06E92582F8E22241
:0D06D800E58229F582E5833AF583E493225B
:1006E500BB010689828A83F0225002F722BBFE01F4
:0206F500F322EE
:1006F700F8BB010DE58229F582E5833AF583E8F039
:10070700225006E92582C8F622BBFE05E92582C8E4
:02071700F222CC
:10071900EF8DF0A4A8F0CF8CF0A428CE8DF0A42EF4
:02072900FE22AE
:10072B00C5F0F8A3E028F0C5F0F8E5821582700259
:06073B001583E038F022F6
:10074100A3F8E0C5F025F0F0E5821582700215836B
:06075100E0C838F0E822C8
:10075700E88FF0A4CC8BF0A42CFCE98EF0A42CFC41
:100767008AF0EDA42CFCEA8EF0A4CDA8F08BF0A4BF
:100777002DCC3825F0FDE98FF0A42CCD35F0FCEB1E
:100787008EF0A4FEA9F0EB8FF0A4CFC5F02ECD39E3
:0F079700FEE43CFCEAA42DCE35F0FDE43CFC2250
:1007A60075F008758200EF2FFFEE33FECD33CDCC0A
:1007B60033CCC58233C5829BED9AEC99E58298408D
:1007C6000CF582EE9BFEED9AFDEC99FC0FD5F0D66A
:1007D600E4CEFBE4CDFAE4CCF9A88222B800C1B994
:1007E6000059BA002DEC8BF084CFCECDFCE5F0CBD2
:1007F600F97818EF2FFFEE33FEED33FDEC33FCEB0B
:1008060033FB10D703994004EB99FB0FD8E5E4F9C5
:10081600FA227818EF2FFFEE33FEED33FDEC33FCB2
:10082600C933C910D7059BE99A4007EC9BFCE99AA6
:10083600F90FD8E0E4C9FAE4CCFB2275F010EF2FEB
:10084600FFEE33FEED33FDCC33CCC833C810D707EB
:100856009BEC9AE899400AED9BFDEC9AFCE899F826
:0E0866000FD5F0DAE4CDFBE4CCFAE4C8F922B9
:10087400EB9FF5F0EA9E42F0E99D42F0E89C45F0DA
:010884002251
:0C088500ECF0A3EDF0A3EEF0A3EFF022E6
:10089100A8828583F0D083D0821208A81208A812FA
:1008A10008A81208A8E473E493A3C583C5F0C5831F
:1008B100C8C582C8F0A3C583C5F0C583C8C582C8B1
:0108C1002214
:1008C200EC8EF0A4CCC5F0CCCDF8EFA4CEC5F02DC3
:1008D200FDE43CFCE8A42EC8C5F03DFDE43CFCEF81
:0D08E200A4FFE5F028FEE43DFDE43CFC220F
:101C0400900079E0FFA3E0FEA3E0CF900082F0A370
:101C1400EEF0A3EFF090007CE0CBF0A3E0CAF0A3D9
:101C2400E0C9F07F22900085AD82AC8312069F8DBF
:101C3400828C83F0A309E970010ADFEC90007CE058
:0A1C4400FBA3E0FAA3E0F902008B15
:10002600E5082482F582E43400F583E00508229091
:10003600007F300703900082E475F0011208EF029A
:10004600069F2000E97F2ED2008018EF540F2490DF
:10005600D43440D4FF30040BEF24BFB41A0050034D
:100066002461FFE50960021509050CE50C7002051F
:100076000B30070E90007FE475F0011208EFEF02D7
:1000860006E5021DEC7403D2078003E4C207F508F7
:1000960090007F120906E4F509F50BF50CE50960F9
:1000A600077F2012006980F5750AFFC201C200C2EF
:1000B60002C203C205C206C208120035FF700D3027
:1000C60007057F0012007AAF0CAE0B22B4255FC283
:1000D600D5C204120035FF24D0B40A00501A75F0B8
:1000E6000A780930D50508B6FF0106C6A426F6200B
:1000F600D5047002D20380D924CFB41A00EF50047D
:10010600C2E5D20402027BD20180C6D20080C0D2F0
:100116000280BCD2D580BAD20580B47F2012006995
:100126002002077401B5090040F1120026FF1200F3
:10013600690200A3D208D2068095120026FB12009F
:1001460026FA120026F94A4B7006794C7A037BFF91
:1001560020022EE509602A7E008E82758300120633
:10016600B860060EEE650A70F0C2D5EBC0E0EAC0D4
:10017600E0E9C0E0EE1202C2D0E0F9D0E0FAD0E049
:10018600FB12069FFF60AAEBC0E0EAC0E0E9C0E010
:10019600120069D0E02401F9D0E03400FAD0E0FB87
:1001A600E50A0460DCD50AD980877BFF7A0279BE2E
:1001B600D202809C791080027908C206C2088008A3
:1001C600D2D5790A8004790AC2D5E50A047002F507
:1001D6000AE4FAFDFEFF120026FC7B08200113123A
:1001E6000026FD7B1030000A120026FE120026FFB4
:1001F6007B20EC3382D592D55013C3E43000069FA2
:10020600FFE49EFEE42001039DFDE49CFCE4CBF8A4
:10021600C201EC700CCFCECDCCE824F8F870F38098
:1002260017C3EF33FFEE33FEED33FDEC33FCEB3358
:10023600FB994002FB0FD8E9EB300105F8D0E0C48A
:1002460048B201C0E00AEC4D4E4F78207B0070C2E8
:10025600EAB50A0040BCC0E01202C4D0F0D0E020EB
:100266000104C4C0E0C4B201C0F0120052D0F0D5FF
:10027600F0EB0200A312090F01405301BA58011115
:100286004C010D4201BE4F01C64401C64901264339
:0802960001CC5501B04601B096
:10029E004501B047036C5001152D01192E013C2B61
:1002AE00011D23013A2003552A00D54800000134D0
:1002BE003F3F3F00790AA2D5200314300509B9103B
:1002CE00020404B9080104A2D5200602500104203C
:1002DE0002689202B509005034C0E07F2030031945
:1002EE007F30A20272067205500F12031BC202C2A9
:1002FE0006C205C2087F30800F300503E9C0E01248
:10030E000069300503D0E0F9D0E0B509CC3005170F
:10031E007F30B9100C1200697F583004077F788047
:10032E0003B908031200693002057F2D0200697FB0
:10033E00202008F87F2B2006F322920280CF286E11
:10034E00756C6C2900D2011200263001F8C20178BA
:10035E000930D50108F60200D52D50434958120038
:10036E00262403B405004001E49003679312005A5B
:0D037E00743A12005AD2037509040201BA44
:1008EF00F8E0FBA3A3E0F925F0F0E5821582700292
:0708FF001583E0FA38F02236
:09090600EBF0A3EAF0A3E9F022F2
:10090F00D083D082F8E4937012740193700DA3A377
:10091F0093F8740193F5828883E47374029368608B
:06092F00EFA3A3A380DF8B
:101DEC00EFB40A07740D121DF7740A309811A899F4
:101DFC00B8130CC2983098FDA899C298B811F63057
:071E0C0099FDC299F599222E
:00000001FF
