:030000000239B210
:0C39B200787FE4F6D8FD7581300239F909
:1022C0000D0A00A1AAA1AAA1AAA1AAA1AAA1AAA194
:1022D000AAA1AAA1AAA1AAA1AAA1AAA1AAA1AAA1A6
:1022E000AAA1AAA1AAA1AAA1AAA1AAA1AAA1AAA196
:1022F000AAA1AAA1AAA1AAA1AAA1AAA1AAA1AAA186
:10230000AAA1AAA1AAA1AAA1AAA1AAA1AAA1AAA175
:10231000AAA1AAA1AAA1AAA1AAA1AAA1AAA1AAA165
:10232000AAA1AAA1AAA1AA0D0A00A1AAA1AAA1AA2A
:10233000A1AAA1AAA1AAA1AAA1AAA1AAA1AAA1AA45
:10234000A1AAA1AAA1AAA1AAA1AAA1AAA1AAA1AA35
:10235000A1AAA1AAA1AAA1AAB7FED2A9CCE1D0D1D3
:10236000A1AAA1AAA1AAA1AAA1AAA1AAA1AAA1AA15
:10237000A1AAA1AAA1AAA1AAA1AAA1AAA1AAA1AA05
:10238000A1AAA1AAA1AAA1AA0D0A00CAB5CFD6B531
:10239000C4C3FCC1EE3A0D0A0020202020202020DA
:1023A00020202020312E20C9E8D6C3B1A8BEAFCA54
:1023B000B1BCE4205345544154494D452330373A8C
:1023C00030300D0A007374617274696E672E2E0DC1
:1023D0000A0041542B434950534E54504346473D05
:1023E000312C38004F4B0073656E6420636F6D6D48
:1023F000616E642041542B434950534E5450434620
:10240000473D312C3820204F4B0D0A0073656E6418
:1024100020636F6D6D616E642041542B43495053AE
:102420004E54504346473D312C38206661696C65F7
:10243000640D0A0041542B434950534E54505449A3
:102440004D453F0D0A002562643A202562643A201A
:102450002562642020204154494D45A3BA25626479
:10246000202020256264200D0A00756172743120DD
:1024700072656365697665643A0053455441544911
:102480004D45005345544154494D45204154202564
:102490006264A3BA25626420202E2E2E2E4F4B217B
:1024A0000D0A005345544154494D45204641494C7D
:1024B0004544210D0A002B434950534E5450544972
:1024C0004D453A0074696D653A002D2D202020207D
:1024D00025640D0A007365742074696D65206F6B47
:0524E0000D0A000000E0
:102B8C004100000341021B0341000E0341000C03F2
:102B9C006080011700000000000000000000000031
:102BAC000000000000000000000000000000000019
:102BBC000000000000000000000000000000000009
:102BCC0000000000000000000000000000000000F9
:102BDC0000000000000000000000000000000000E9
:102BEC0000000000000000000000000000000000D9
:102BFC0000000000000000000000000000000000C9
:102C0C0000000000000000000000000000000000B8
:102C1C000000000060800197000000000000000030
:102C2C000000000000000000000000000000000098
:102C3C000000000000000000000000000000000088
:102C4C000000000000000000000000000000000078
:102C5C000000000000000000000000000000000068
:102C6C000000000000000000000000000000000058
:102C7C000000000000000000000000000000000048
:102C8C000000000000000000000000000000000038
:102C9C0000000000000000004100010041000D0098
:102CAC004202170000420002000042000A000041EC
:072CBC0002190041021A0099
:08494500A3F07B017A017997D0
:10494D00C002C001900436E0F9A3E0FAA3E09004A0
:10495D003CC9F0A3EAF0A3E9F0D001D0021235165C
:0B496D00E94A4B60037F01227F00221B
:0B2E1500900526EBF0A3EAF0A3E9F023
:102E2000E490054FF0FE7F20FD7B017A05792F129B
:102E30000B32E490054FF0900526E0FBA3E0FAA3E7
:102E4000E0F912000E90054FE0C39FE49E4003029C
:102E50002F14900529E0FBA3E0FAA3E0F912000E7D
:102E600090042FEEF0A3EFF0900526E0FBA3E0FA2C
:102E7000A3E0F990054FE0FF7E00E92FF9EE3AFA62
:102E8000C002C001900529E0F9A3E0FAA3E0900494
:102E90002CC9F0A3EAF0A3E9F0D001D002123AC89D
:102EA000EF703790052CE0F9A3E0FAA3E090059CC1
:102EB000C9F0A3EAF0A3E9F07B017A05792F123E6D
:102EC00034900529E0FBA3E0FAA3E0F912000EEF2D
:102ED00014FF90054FE02FF08031900526E0FBA312
:102EE000E0FAA3E0F990054FE0FF7E00E92FF9EE4C
:102EF0003AFA900592EBF0A3EAF0A3E9F0A3E4F02C
:102F0000A304F0FB7A05792F12338E90054FE0046D
:102F1000F0022E37900526E0FBA3E0FAA3E0F8AC20
:102F200002AD037B017A05792F120B15900526E07F
:072F3000FBA3E0FAA3E0F9A6
:012F37002277
:0B368D00900550EBF0A3EAF0A3E9F079
:10369800E4900578F0FE7F20FD7B017A05795812C9
:1036A8000B32900556A3E0900578F0900550E0FBAA
:1036B800A3E0FAA3E0F912000E900578E0FD339537
:1036C800E0FCC3ED9FEC9E5043900550E0FBA3E067
:1036D800FAA3E0F9900578E0FF3395E08D82F58351
:1036E8001206E4FEEF3395E0FC900556E0FAA3E0FD
:1036F800FBC3ED9BFDEC9AFC74582DF58274053CD8
:10370800F583EEF0900578E004F0809F900553E093
:10371800FBA3E0FAA3E0F8AC02AD037B017A0579DC
:0F37280058120B15900553E0FBA3E0FAA3E0F94C
:01373700226F
:0B3B4F00900429EBF0A3EAF0A3E9F0DA
:103B5A00E4900432F090042FE0FF900432E0C39F17
:103B6A005066900429E0FBA3E0FAA3E0F97F021271
:103B7A003F717BFF7A2279C07F02123F7190043035
:103B8A00E0FEA3E0FF124C2B9004367401F0A374FC
:103B9A0001F0A37497F0900007E0FBA3E0FAA3E01A
:103BAA00F912431390042CE0F9A3E0FAA3E090047D
:103BBA0036C9F0A3EAF0E9124945EF60037F012212
:0A3BCA00900432E004F0808D7F00CB
:013BD40022CE
:03000B000242BFEF
:1042BF00C0E0C0F0C083C082C0D075D000C000C0C5
:1042CF0004C005C006C007900003E004F07006901C
:1042DF000002E004F0900002E0FEA3E0FF7C007D0E
:1042EF0064120757ED4C700790000AF0A304F0D04A
:1042FF0007D006D005D004D000D0D0D082D083D044
:04430F00F0D0E032D8
:100B7400E490041DF0A3F0A3F0A3F0C200C2017836
:100B8400217C047D017BFF7A2479E3FE7F02120637
:100B9400A5E4900423F0A3F0A3F0A3F0A3F0A3F042
:100BA400C2B775B280F5B1900423F07594FF7593C4
:100BB400FF7592FF7591FF7596FF7595FF75B2FFEE
:100BC40075B1FF75B4FF75B3FF75CAFF75C9FF53DF
:100BD40092F05391F053B17F43B28053B1FB53B2BF
:100BE400FB53950F53960F53B1FC53B2FC121B8762
:100BF400124DF61211CFE4FF124E827D107C27E4D1
:100C0400FF1229F2124BEBE4FFFE124A619000003E
:100C1400EFF07F017E00124A6190021BEFF07F0229
:100C24007E00124A6190000EEFF07F037E00124AAC
:100C34006190000CEFF0900000E0FF64036004EFAB
:100C4400F470069000007407F090021BE0FF640348
:100C54006004EFF47005E490021BF090000EE06471
:100C64000370037408F090000CE064037001F090CA
:100C740000047401F0A37400F0A3740FF0A37401D2
:100C8400F0A37400F0A37493F0900004E0FBA3E0DD
:100C9400FAA3E0F9124828900007E0FBA3E0FAA3C6
:100CA400E0F91248287BFF7A2279C37F01123F7151
:100CB4007BFF7A23792A7F01123F717BFF7A2379A4
:100CC4008B7F01123F717BFF7A2379997F01123F59
:100CD400717BFF7A2279C37F01123F717BFF7A23F4
:100CE40079C57F01123F7190042E1209A50001C23B
:100CF400007F021244A97FB87E0B124C2B9004365D
:100D04007401F0A37401F0A37497F0900007E0FB62
:100D1400A3E0FAA3E0F9124313EF70E1FE7F80FD34
:100D24007B017A017997120B3290042C74FFF0A3A3
:100D34007423F0A374E4F0A37403F0A37401F0A388
:100D4400742CF07BFF7A2379D2123B4FEF7BFF6048
:100D5400067A2379E780047A24790C7F01123F71A3
:100D64007FB87E0B124C2B7BFF7A2479347F0212DE
:100D74003F7190000AE07002A3E07003020E5BE48E
:100D840090000AF0A3F0FB7A00790F12461B7BFF58
:100D94007A247946900437E511F0A3E510F0A3E531
:100DA4000FF0900000E090043AF090021BE09004F1
:100DB4003BF07F01123F71900428E004F07006902C
:100DC4000427E004F0900427E0FAA3E0FB7C007D14
:100DD40005FFAE02120757ED4C7004C2928002D296
:100DE400927C0E7D10AF03AE02120757ED4C700BD0
:100DF4007BFF7A2479347F02123F7190000CE0B5B6
:100E0400110CE51064017006E50F7002C200900039
:100E140000E06511703590021BE0FFE510C39F40B0
:100E24002A2000229004237401F0C2A4FF7E001241
:100E34004C2B30B20D7F147E00124C2B30B20300C9
:100E4400D200D2A48005E4900423F0900423E0604F
:100E540004B2B78002C2B7900001E0D3940074805A
:100E640094805003020FF4E014F07BFF7A24796A33
:100E74007F01123F719004367401F0A37401F0A352
:100E84007417F0900004E0FBA3E0FAA3E0F9124326
:100E9400137B017A01791712000ED3EF9400EE94BC
:100EA400005003020FE5900117E0B44110A3E0B431
:100EB400540B7B017A0179177F02020FE290042C14
:100EC40074FFF0A37424F0A3747AF0A3E4F0A37481
:100ED40008F07B017A017917123AC8EF3395E04F95
:100EE4006003020FE57B017A0179177D23124C4AD6
:100EF400900217EEF0A3EFF0F47002EEF470030228
:100F04000FE5900217E0FEA3E0FF2418F5827401B8
:100F14003EF583E0900421F074192FF58274013EAC
:100F2400F583E0900422F07B017A047921123122C6
:100F3400900000EFF0900217E0FEA3E0FF241BF501
:100F44008274013EF583E0900421F0741C2FF58235
:100F540074013EF583E0900422F07B017A04792148
:100F640012312290021BEFF0900000E0900421F077
:100F7400A3EFF07B017A04792190042EE4F0A374AA
:100F840002F0E4FFFE1220717F327E00124C2BE44B
:100F9400900421F0A3F07B017A04792190042EF0CF
:100FA400A37402F0E4FFFE123FD7900000E0FF902C
:100FB4000421E0FEB5071F90021BE0FF900422E02D
:100FC400FDB507127BFF7A247983900437EEF0A3F2
:100FD400EDF07F0180087BFF7A2479A37F01123F23
:100FE400717E007F807D007B017A017917120B32BC
:100FF40090000DE0D39400748094805003020D7629
:10100400E014F09004367401F0A37401F0A3749713
:10101400F0900007E0FBA3E0FAA3E0F91243137B8E
:10102400017A0179977F011248D890043674FFF051
:10103400A37424F074B6124945EF70030211BD7B0A
:10104400FF7A2479C47F01123F717B017A01799779
:101054007F01123F717B017A01799712000E90048F
:101064001FEEF0A3EFF090041FE0FEA3E0FF248E38
:10107400F58274013EF583E0900421F0748F2FF51E
:101084008274013EF583E0900422F07B017A0479B6
:10109400211231228F0890041FE0FEA3E0FF248B6D
:1010A400F58274013EF583E0900421F0748C2FF5F1
:1010B4008274013EF583E0900422F07B017A047986
:1010C400211231228F0990041FE0FEA3E0FF24883F
:1010D400F58274013EF583E0900421F074892FF5C4
:1010E4008274013EF583E0900422F07B017A047956
:1010F400211231228F0A90041FE0FEA3E0FF249303
:10110400F58274013EF583E0900421F074942FF588
:101114008274013EF583E0900422F07B017A047925
:10112400211231228F0E90041FE0FEA3E0FF2491D0
:10113400F58274013EF583E0900421F074922FF55A
:101144008274013EF583E0900422F07B017A0479F5
:1011540021123122900426EFF0750B01750C0175F4
:101164000D01E075F064A47C00250EFFEC35F0FE63
:10117400900424F0A3EFF07BFF7A2479CA9004371B
:10118400EEF0A3EFF07F01123F71C3900425E094C9
:10119400E5900424E094074020E508601CE509601C
:1011A40018E50A60147B007A0079081243677BFF14
:1011B4007A2479D57F01123F717E007F807D007B88
:0B11C400017A017997120B32020D76C0
:104A7D00900219E599F0900004E0FBA3E0FAA3E0A1
:104A8D00F9900219E0FD12403D900219E0B40A06BA
:074A9D00900001E004F0228B
:104AA40090021AE59BF0900007E0FBA3E0FAA3E074
:104AB400F990021AE0FD12403D90021AE0B40A0691
:074AC40090000DE004F02258
:092CC300070800010A04010514D0
:034E9A00000022F3
:104B3E00E4FFFEEEC39408748094805017C2A7124F
:104B4E004E9AEFC313FF30A6034480FFD2A7124E36
:044B5E009A0E80DF4C
:014B62002230
:0F490F00C2A5124E9AC2A7124E9AD2A5124E9A64
:10491E00E4FEEEFD3395E0FCC3ED9408EC64809468
:10492E00805013C2A7124E9AEFC313FF92A6D2A7BE
:06493E00124E9A0E80DC0F
:014944002250
:0A4E580012490F124B3ED2A7C2A56B
:014E6200222D
:0F4DE700AB0512490FAF0312491ED2A7C2A52276
:0B436700900429EBF0A3EAF0A3E9F0BA
:10437200A37480F0A37407F0E4FD7F8E124DE790E2
:10438200042DE0FF14F0EF6027900429E0FBA3E482
:1043920075F0011207E2A9F0FA1206CBFF124D7373
:1043A200AD0790042CE0FF124DE7E02402F080CF2D
:0743B2007D807F8E024DE7C4
:024D0F00A907F2
:104D1100E4FEE9C4540FFF7C007D0A120745E95403
:064D21000F2FFFEC3EFE27
:014D27002269
:104D7300E4EF75F00A84C454F0FEEF75F00A84EE94
:054D830045F0FF7E0079
:014D88002208
:0B461B00900429EBF0A3EAF0A3E9F003
:10462600A37481F0A37407F090042DE0FF14F0EF5B
:10463600602890042CE0FF124E58124D0F9004296A
:10464600E0FBA3E475F0011207E2A9F0FAEF120706
:0A4656001190042CE02402F080CE45
:014660002237
:104BEB00C2A5C2A7E4FD7F8E124DE7E4FD7F8012C4
:104BFB004DE77DA67F90124DE77D807F8E024DE7BE
:10482800900429EBF0A3EAF0A3E9F07E007F807DF5
:1048380000900429E0FBA3E0FAA3E0F9120B329000
:104848000429E0FBA3E0FAA3E0F9900082E4F5F084
:0C485800120830900080E4F5F0020830F7
:10403D00900522EDF090051FEBF0A3EAF0A3E9F057
:10404D001247EBEF6401604A900522E0FF90051FD7
:10405D00E0FBA3E0FAA3E0F99000821207F8F582E5
:10406D0085F083EF1207239000821207F82401FFD9
:10407D00E435F0FE7C007D801207AC90051FE0FB5F
:10408D00A3E0FAA3E0F9900082EC8DF01208307FE6
:05409D0001227F00225A
:1047EB00900523EBF0A3EAF0A3E9F0900523E0FB9F
:1047FB00A3E0FAA3E0F99000821207F82401FFE48A
:10480B0035F0FE7C007D801207AC9000801207F81B
:0D481B00B50507ECB5F0037F01227F0022F8
:104C87009000821207F8FFAEF09000801207F8B587
:0D4C97000708E5F0B506037F01227F00222B
:1037380090043E7401F0A37404F0A37439F090046B
:0937480033E0FBA3E0FAA3E0F971
:1037510090043BEBF0A3EAF0A3E9F090043BE0FB1B
:10376100A3E0FAA3E0F9124C87EF6401606E9004C4
:103771003BE0FBA3E0FAA3E0F99000801207F8F523
:103781008285F0831206E4FF90043EE0FBA3E0FA99
:10379100A3E0F9EF12071190043BE0FBA3E0FAA3C9
:1037A100E0F99000801207F8F58285F083E41207B2
:1037B100239000801207F82401FFE435F0FE7C001D
:1037C1007D801207AC90043BE0FBA3E0FAA3E0F993
:0F37D100900080EC8DF01208307F01227F0022E3
:0B431300900433EBF0A3EAF0A3E9F004
:10431E00E490043AF0124C87EF60037F00221237CC
:10432E0038EF640170308010900439E0640A602325
:10433E00123738EF6401701B900439E0FF90043699
:10434E00E0FBA3E475F0011207E2A9F0FAEF120701
:08435E001180D57F01227F00D0
:014366002234
:102CE5004543424D205625752E25752E2575206F99
:102CF5006E2025730053544338410025754B00253C
:102D0500303275005334413132000D0A4368656332
:102D15006B696E67204D4355204944002E0045726E
:102D2500726F720D0A506C65617365206368656327
:102D35006B207468652073657474696E67206F66AF
:102D450020746865204D4355206D6F64656C0D0AD0
:102D5500004F4B0D0A4944202020203A00253032EF
:102D650058000D0A004441544120203A31323809B7
:102D7500427974650D0A004944415441203A313283
:102D85003809427974650D0A005844415441203A86
:102D9500257509427974650D0A00464C4153482052
:102DA5003A256C7509427974650D0A0045455052FE
:102DB5004F4D3A257509427974650D0A00535953EB
:102DC500434C4B3A256C7509487A0D0A004C53491A
:102DD5002020203A257509487A0D0A0042475620D9
:102DE50020203A2575096D560D0A00454E44494186
:102DF5004E3A0062696709656E6469616E0D0A0085
:102E05006C6974746C6509656E6469616E0D0A00A0
:072CCC004405810000000037
:104C2B00EF4E601A900579E0FCA3E0FDED1D7001DD
:0E4C3B001C144C70F7EF1F70011E144E70E633
:014C49002248
:0A4E6300EF1FAC0670011E4C70F644
:014E6D002222
:104AF200900579E0FCA3E0FD120A1CE47B83FAF93D
:104B0200F812085D90057D12099990057DE0C313A6
:064B1200FEA3E013FF22E8
:1049A50090057CE06599600AE599F0E490057BF057
:1049B500800690057BE004F090057BE0C394E974E4
:0C49C50080948040060075C7600000224E
:1026A30090042F7412F0A37434F0900434E4F0A374
:1026B3007403F0A3E4F0A304F0A3E4F0A37402F022
:1026C300A374FFF0A3742CF0A374FAF07BFF7A2CAD
:1026D30079E5123DD47BFF7A2D7900900434E4F040
:1026E300A37408F0123DD47BFF7A2D79049004344F
:1026F300E4F0A37440F0123DD47BFF7A2D790912E4
:102703003DD4E490042EF07BFF7A2D790F123DD453
:10271300E490042DF090042DE0C39407748094801A
:1027230050297BFF7A2D7921123DD490042DE0FFAF
:1027330090FDF993FE74F12FF8E6B5060690042E8A
:10274300E004F090042DE004F080CA90042EE064CD
:102753000760097BFF7A2D79230228517BFF7A2DAD
:102763007956123DD4E490042DF090042DE0FFC37C
:10277300940774809480501F7BFF7A2D7962EF90C9
:10278300FDF993FF900434E4F0A3EFF0123DD490ED
:10279300042DE004F080D37BFF7A2D7967123DD4BA
:1027A3007BFF7A2D796A123DD47BFF7A2D797C12D7
:1027B3003DD47BFF7A2D798E9004347420F0A3E40A
:1027C300F0123DD47BFF7A2D799F9004341209A532
:1027D30000010000123DD47BFF7A2D79B1900434BF
:1027E3007402F0A3E4F0123DD47BFF7A2D79C290FA
:1027F3000581E0FCA3E0FDA3E0FEA3E0FF90043429
:10280300120999123DD47A2D79D278F8123DC67AFD
:102813002D79E178EF123DC67BFF7A2D79F0123DD9
:10282300D490042FE0FF3395E0FEEF64124E70095D
:102833007BFF7A2D79F8123DD490042FE0FF339576
:10284300E0FEEF64344E70097BFF7A2E7905123D6A
:01285300D4B0
:012854002261
:0E3DC6007BFFE6FF08E6900434CFF0A3EFF099
:0B3DD400900431EBF0A3EAF0A3E9F04B
:103DDF0090049C7401F0A37404F0A37434F0900465
:103DEF0031E0F9A3E0FAA3E09004E2C9F0A3EAF00E
:103DFF00A3E9F090049CE0F9A3E0FAA3E09004E5B6
:103E0F00C9F0A3EAF0A3E9F07B017A04795C1245CB
:103E1F008890049CE4F0A3F0A3F07B017A04795C12
:053E2F007F010248D8EC
:1035D500EF14601614602C14604D14606C147003A5
:1035E5000236692405600302368C90FE02E0547EA3
:1035F5004480F0E030E0F390FE00E054FCF090FEF3
:1036050003807A90FE04E0547E4480F0E030E0F3DD
:1036150090FE00E054FC4403F090FE02E4F090FEBE
:1036250008F090FE03F02290FE08E0547E4480F0FE
:10363500E030E0F390FE00E054FC4402F090FE041C
:10364500E4F090FE02F0A3F02290FE03E0543E4425
:1036550080F0E030E0F390FE00E054FC4401F0908F
:10366500FE02801990FE03E0543E44C0F0E030E0D5
:10367500F390FE00E054FC4401F090FE02E4F0906B
:08368500FE08F090FE04F022A3
:0C4E4000EF90FE01700304F022EFF0225E
:101B870043BA80AF9FE4FCFDFEC004A905AA06ABDB
:101B97000778FBE6FFD000C3EF9BFFEE9AFEED99B7
:101BA700FDEC98FCE47BF07AD2F9F812085DC3E407
:101BB7009FFF74369EFE746E9DFD74019CFC90041D
:101BC70029120999900429E0FCA3E0FDA3E0FEA3F4
:101BD700E0FFC00790FE01E0FBE4FAF9F8D0071236
:101BE70008E89004291209997FC07EF67D577C008A
:101BF700900429E0F8A3E0F9A3E0FAA3E0FBC312FD
:101C07000988500D9005811209A500546000021D36
:101C1700D57FC07E267D827C00900429E0F8A3E072
:101C2700F9A3E0FAA3E0FBC3120988500D900581E0
:101C37001209A5005B8D80021DD57F807EED7DAFEB
:101C47007C00900429E0F8A3E0F9A3E0FAA3E0FB05
:101C5700C3120988500D9005811209A500A8C0007C
:101C6700021DD57F807E2D7DE87C00900429E0F859
:101C7700A3E0F9A3E0FAA3E0FBC3120988500D9093
:101C870005811209A500B71B00021DD57F807E368E
:101C97007D257C01900429E0F8A3E0F9A3E0FAA3ED
:101CA700E0FBC3120988500D9005811209A501199F
:101CB7004000021DD57F807E567D417C019004291E
:101CC700E0F8A3E0F9A3E0FAA3E0FBC31209885008
:101CD7000D9005811209A501312D00021DD57F0048
:101CE7007EDB7D5F7C01900429E0F8A3E0F9A3E0A7
:101CF700FAA3E0FBC3120988500D9005811209A5CC
:101D070001518000021DD57F607E197D857C019081
:101D17000429E0F8A3E0F9A3E0FAA3E0FBC3120962
:101D270088500D9005811209A5016E3600021DD558
:101D37007F207EE07DB27C01900429E0F8A3E0F9E2
:101D4700A3E0FAA3E0FBC3120988500C90058112A7
:101D570009A5019BFCC080767FE07EA67DE07C0123
:101D6700900429E0F8A3E0F9A3E0FAA3E0FBC3128B
:101D77000988500C9005811209A501C9C380804EBE
:101D87007F607E2B7DFF7C01900429E0F8A3E0F9BA
:101D9700A3E0FAA3E0FBC3120988500C9005811257
:101DA70009A501FA400080267F607E2B7DFF7C011C
:101DB700900429E0F8A3E0F9A3E0FAA3E0FBC3123B
:101DC7000988500A9005811209A502160EC0E47B06
:101DD700107A27F9F8900581E0FCA3E0FDA3E0FE67
:101DE700A3E0FF1208E8900579EEF0A3EFF0E49086
:101DF700057CF090057BF0124169D2AF7FF47E013C
:061E0700124C2B0226A381
:080003000102040810204080F6
:1032C800EF6488700302338DEF54F0F51BEF540F51
:1032D800FE90000393F51CEED3940774809480400D
:1032E8000302338DED604DE51B24F0602124F0606E
:1032F8002224F0602324F0602424F0602524F06068
:103308002624F060272470707C90FE10802190FEA7
:1033180011801C90FE12801790FE13801290FE14EC
:10332800800D90FE15800890FE16800390FE17E031
:10333800451CF022E51B24F0602124F0602224F0D3
:10334800602324F0602424F0602524F0602624F013
:1033580060272470702F90FE10802190FE11801C31
:1033680090FE12801790FE13801290FE14800D902C
:10337800FE15800890FE16800390FE17E0FFE51CFE
:05338800F4FEEF5EF011
:01338D00221D
:101E0D00EF64887003022070EF54F0F51BEF540F50
:101E1D00FE90000393F51CEED394077480948040DC
:101E2D0003022070E51B24F0602424F0602524F0CB
:101E3D00602624F0602724F0602824F0602924F027
:101E4D00602A24706003022070E4F51B8021751B4D
:101E5D0001801C751B028017751B038012751B04F6
:101E6D00800D751B058008751B068003751B07ED1E
:101E7D00FFD39403748094804003022070E51B709F
:101E8D0037EF7007E51CF452935294ED640170091D
:101E9D00E51C4293E51CF45294EDFF7E0064027044
:101EAD0008E51C4293E51C4294EF64034E7009E56E
:101EBD001CF45293E51C4294E51B64017037EDFF51
:101ECD007E007007E51CF452915292EF64014E7042
:101EDD0009E51C4291E51CF45292ED64027008E58F
:101EED001C4291E51C4292ED64037009E51CF4520D
:101EFD0091E51C4292E51B64027037EDFF7E007088
:101F0D0007E51CF452955296EF64014E7009E51CDD
:101F1D004295E51CF45296ED64027008E51C42955D
:101F2D00E51C4296ED64037009E51CF45295E51C21
:101F3D004296E51B64037037EDFF7E007007E51CCC
:101F4D00F452B152B2EF64014E7009E51C42B1E595
:101F5D001CF452B2ED64027008E51C42B1E51C425E
:101F6D00B2ED64037009E51CF452B1E51C42B2E513
:101F7D001B64047037EDFF7E007007E51CF452B34F
:101F8D0052B4EF64014E7009E51C42B3E51CF452E6
:101F9D00B4ED64027008E51C42B3E51C42B4ED6477
:101FAD00037009E51CF452B3E51C42B4E51B64054E
:101FBD007037EDFF7E007007E51CF452C952CAEF71
:101FCD0064014E7009E51C42C9E51CF452CAED646A
:101FDD00027008E51C42C9E51C42CAED6403700994
:101FED00E51CF452C9E51C42CAE51B64067037EDC9
:101FFD00FF7E007007E51CF452CB52CCEF64014E0E
:10200D007009E51C42CBE51CF452CCED640270085E
:10201D00E51C42CBE51C42CCED64037009E51CF4D4
:10202D0052CBE51C42CCE51B64077037EDFF7E00FB
:10203D007007E51CF452E152E2EF64014E7009E5C0
:10204D001C42E1E51CF452E2ED64027008E51C420D
:10205D00E1E51C42E2ED64037009E51CF452E1E593
:03206D001C42E230
:01207000224D
:10476E00EFB40800503890477BF82828730247931F
:10477E0002479602479902479C02479F0247A202B0
:10478E0047A50247A88D80228D90228DA0228DB044
:0F479E00228DC0228DC8228DE822AF058FF82210
:10472E00EFB40800503790473BF8282873024753E0
:10473E0002475602475902475C02475F0247620230
:10474E004765024768AF8022AF9022AFA022AFB07C
:10475E0022AFC022AFC822AFE822AFF8227FFF22DD
:10345300EF64887003023515EF54F0F51BEF540F3A
:10346300FE90000393F51CEED39407748094804080
:1034730003023515ED604AE51B24F0602124F0605A
:103483002224F0602324F0602424F0602524F060DB
:103493002624F0602724707079E51C428022E51C05
:1034A300429022E51C42A022E51C42B022E51C42C8
:1034B300C022E51C42C822E51C42E822E51C42F872
:1034C30022E51B24F0602224F0602424F0602624EB
:1034D300F0602824F0602A24F0602C24F0602E246D
:1034E30070702FE51CF4528022E51CF4529022E503
:1034F3001CF452A022E51CF452B022E51CF452C085
:1035030022E51CF452C822E51CF452E822E51CF41F
:0235130052F86C
:013515002293
:103CDA00EF64887002FF22EF54F0F51BEF540FFED9
:103CEA0090000393F51CEED39407748094804003EC
:103CFA007F0122E51B24F0602124F0602224F06079
:103D0A002324F0602424F0602524F0602624F06047
:103D1A00272470702685801D802185901D801C8532
:103D2A00A01D801785B01D801285C01D800D85C815
:103D3A001D800885E81D800385F81DE51D551C605A
:063D4A00037F01227F004F
:013D50002250
:103F0900EF64886062EF54F0F51BEF540FFE9000E8
:103F19000393F51CEED39407748094805049E51BF4
:103F290024F0602124F0602224F0602324F060242E
:103F390024F0602524F0602624F06027247070277F
:103F4900E51C628022E51C629022E51C62A022E544
:103F59001C62B022E51C62C022E51C62C822E51C75
:073F690062E822E51C62F88A
:013F7000222E
:1046A700EFB40800503E9046B4F82828730246CC71
:1046B7000246D00246D40246D80246DC0246E00251
:1046C70046E40246E8ED628022ED629022ED62A0A8
:1046D70022ED62B022ED62C022ED62C822ED62E8EF
:0546E70022ED62F82243
:10388300A907EB6048E9B40800400302391C9038EB
:1038930098F82828730238B00238B40238B80238CE
:1038A300BC0238C00238C40238C80238CCED4280AA
:1038B30022ED429022ED42A022ED42B022ED42C021
:1038C30022ED42C822ED42E822ED42F822E9B40893
:1038D3000050469038DDF82828730238F50238FA8C
:1038E3000238FF02390402390902390E0239130280
:1038F3003918EDF4528022EDF4529022EDF452A0E7
:1039030022EDF452B022EDF452C022EDF452C8225B
:0A391300EDF452E822EDF452F82220
:1041C000EFB4090050459041CDF82828730241E82A
:1041D0000241EC0241F00241F40241F80241FC02CA
:1041E0004200024204024208AE80801FAE90801B53
:1041F000AEA08017AEB08013AEC0800FAEC8800BEB
:10420000AEE88007AEF880037F0122EE5D60037F99
:0442100001227F0008
:014214002287
:0C4E4C0030313637161743441011404235
:1041690075985053873F538EDEE4FD7F01123BD58E
:1041790090042E1209A50001C2007F011244A9432F
:104189008E4053890FC2ABC28FD28EC20BD2AC758F
:104199009A10E4FD7F02123BD590042E1209A50066
:1041A90001C2007F021244A9438E0453AFFB438E20
:0741B90010C20C43AF01220C
:103BD50090042DEDF0EF24FE603F04707690042DE7
:103BE500E0FF54C0FEE5A2543F4EF5A2EFC4131307
:103BF500540325E0244CF582E4344EF583E493FF29
:103C0500E4FD121E0D90042DE0C41313540325E0AA
:103C1500244DF582E4344E803090042DE0FF5401AC
:103C2500FEE5BA54FE4EF5BAEF25E02454F582E4DC
:103C3500344EF583E493FFE4FD121E0D90042DE050
:103C450025E02455F582E4344EF583E493FF7D03A6
:043C5500121E0D220C
:0544A90090042DEFF06E
:1044AE00E47B04FAF9F8900581E0FCA3E0FDA3E0BB
:1044BE00FEA3E0FF1208E890042EE0F8A3E0F9A3B3
:1044CE00E0FAA3E0FB1208E8C3E49FFFE49EFE902F
:1044DE00042DE024FE600904700B8F8BEEF58D2207
:0544EE008FD7EEF5D6AA
:0144F30022A6
:104CC000EF24FE600C0470128D99D20B300B0B8018
:0B4CD000FBAF058F9BD20C200CFD22D7
:10489F00EF24FE6019047030EB6006D29BD29B8030
:1048AF0004C29BC29B8D99D20B300B1C80FBEB601B
:1048BF0008439A08439A088006539AF7539AF7AF1A
:0948CF00058F9BD20C200CFD2288
:1048D8009004E2EBF0A3EAF0A3E9F0AE079004E25B
:1048E800E0FBA3E0FAA3E0F91206CB6019AF06904B
:1048F80004E2A3E475F0011207E2A9F0FA1206CB6C
:07490800FD124CC080D72214
:0E3F7100900433EFF0A3EBF0A3EAF0A3E9F025
:103F7F009004DF7401F0A37404F0A37437F090047D
:103F8F0034E0F9A3E0FAA3E09004E2C9F0A3EAF069
:103F9F00A3E9F09004DFE0F9A3E0FAA3E09004E5D1
:103FAF00C9F0A3EAF0A3E9F07B017A04795F124527
:103FBF00889004DFE4F0A3F0A3F0900433E0FF7BDC
:083FCF00017A04795F0248D871
:030023000244F4A0
:1044F400C0E0C0F0C083C082C0D075D000C000C08E
:1045040001C002C003C004C005C006C0073098083B
:10451400C298124A7D1249A5309904C299C20BD09F
:1045240007D006D005D004D003D002D001D000D0EB
:0A453400D0D082D083D0F0D0E03266
:0300430002445C18
:10445C00C0E0C0F0C083C082C0D075D000C000C026
:10446C0001C002C003C004C005C006C007E59A30F5
:10447C00E006539AFE124AA4E59A30E105539AFDE0
:10448C00C20CD007D006D005D004D003D002D00186
:0D449C00D000D0D0D082D083D0F0D0E0325C
:01003A0022A3
:01004200229B
:014EA30022EC
:014EA40022EB
:084E8200EF7004C28DD28C22F6
:064E8A00EF7002C28C2251
:104B63009005DBEFF0ED600AE07017438F017D03E2
:104B7300800B9005DBE0700A538FFEE4FD7F351256
:034B83001E0D22E2
:0F4DF600538E7F5389F0E4F58A758C48D2A92239
:0B29F200900429EFF0A3ECF0A3EDF03F
:1029FD00900581E0FCA3E0FDA3E0FEA3E0FFE4125F
:102A0D00026C7B007A24797478491201CFA804A94D
:102A1D0005AA06AB077F007EFF7D7F7C471201CFA5
:102A2D001202AA90042EEEF0A3EFF07F007E1B7D24
:102A3D00B77C00900581E0F8A3E0F9A3E0FAA3E0EC
:102A4D00FBD3120988500A74FF900430F0A3F08074
:102A5D003B900581E0FCA3E0FDA3E0FEA3E0FFE4D5
:102A6D0012026C7B007A1B7937784B1201CFA804C8
:102A7D00A905AA06AB077F007EFF7D7F7C4712016B
:102A8D00CF1202AA900430EEF0A3EFF090042EE0E6
:102A9D00FEA3E0FF90042AE0FCA3E0FDD39FEC9E93
:102AAD005010ED9400EC94004008A3E4F0A304F062
:102ABD00802C900430E0FEA3E0FFD3ED9FEC9E4010
:102ACD0003022B8B90042BE0940090042AE09400D9
:102ADD005003022B8B90042CE4F0A3740CF09004A3
:102AED0029E06003022B8B90042CE07004A3E064BA
:102AFD00017017438E80900581E0FCA3E0FDA3E0FB
:102B0D00FEA3E0FFE412026C802B90042CE0700415
:102B1D00A3E0640C7059538E7F900581E0FCA3E017
:102B2D00FDA3E0FEA3E0FFE412026CE4FBFA7940A2
:102B3D0078411201CF7B007A24797478491201CF44
:102B4D00C004C005C006C00790042AE0FCA3E0FD48
:102B5D00E4120271D003D002D001D0001200C612CF
:102B6D0002AAC3E49FFFE49E90042CF0A3EFF09023
:0E2B7D00042CE0FEA3E0F58AEEF58C5389FBF4
:012B8B002227
:094E7900EF70058D8AECF58C2226
:104DD600E4FDFCEF7006AF8CEFAD8AFCAE04AF05C8
:014DE60022AA
:1011CF00E47B07FAF9F8900581E0FCA3E0FDA3E0CA
:1011DF00FEA3E0FF1208E8900429120999E47B8826
:1011EF007A13F9F8900581E0FCA3E0FDA3E0FEA3DC
:1011FF00E0FF1208E890042D1209997F0A7E8B7D7B
:10120F00027C00900429E0F8A3E0F9A3E0FAA3E040
:10121F00FBC3120988504D7F1D7E637D017C0090BA
:10122F000429E0F8A3A3A3E01209884037E47F6FF5
:10123F00FEFDFC90042DE0F8A3E0F9A3E0FAA3E093
:10124F00FBD3120988401DE47FFAFEFDFC90042DAC
:10125F00E0F8A3A3A3E0120988500990021C7407B9
:10126F00F00216EFE47B0EFAF9F8900581E0FCA38B
:10127F00E0FDA3E0FEA3E0FF1208E89004291209A5
:10128F0099E47B107A27F9F8900581E0FCA3E0FD43
:10129F00A3E0FEA3E0FF1208E890042D1209997F46
:1012AF000A7E8B7D027C00900429E0F8A3E0F9A36D
:1012BF00E0FAA3E0FBC3120988504D7F1D7E637DCA
:1012CF00017C00900429E0F8A3A3A3E01209884051
:1012DF0037E47F6FFEFDFC90042DE0F8A3E0F9A347
:1012EF00E0FAA3E0FBD3120988401DE47FFAFEFD6C
:1012FF00FC90042DE0F8A3A3A3E0120988500990F5
:10130F00021C7406F00216EFE47B15FAF9F890054B
:10131F0081E0FCA3E0FDA3E0FEA3E0FF1208E8904C
:10132F000429120999E47B987A3AF9F8900581E03B
:10133F00FCA3E0FDA3E0FEA3E0FF1208E890042D5C
:10134F001209997F0A7E8B7D027C00900429E0F8B8
:10135F00A3E0F9A3E0FAA3E0FBC3120988504D7F85
:10136F001D7E637D017C00900429E0F8A3A3A3E018
:10137F001209884037E47F6FFEFDFC90042DE0F8E2
:10138F00A3E0F9A3E0FAA3E0FBD3120988401DE420
:10139F007FFAFEFDFC90042DE0F8A3A3A3E0120951
:1013AF0088500990021C7405F00216EFE47B2AFAAC
:1013BF00F9F8900581E0FCA3E0FDA3E0FEA3E0FFB8
:1013CF001208E8900429120999E47B307A75F9F82C
:1013DF00900581E0FCA3E0FDA3E0FEA3E0FF12086F
:1013EF00E890042D1209997F0A7E8B7D027C009074
:1013FF000429E0F8A3E0F9A3E0FAA3E0FBC3120984
:10140F0088504D7F1D7E637D017C00900429E0F89C
:10141F00A3A3A3E01209884037E47F6FFEFDFC9081
:10142F00042DE0F8A3E0F9A3E0FAA3E0FBD312093F
:10143F0088401DE47FFAFEFDFC90042DE0F8A3A385
:10144F00A3E0120988500990021C7404F00216EFF1
:10145F00E47B54FAF9F8900581E0FCA3E0FDA3E0EA
:10146F00FEA3E0FF1208E8900429120999E47B60BB
:10147F007AEAF9F8900581E0FCA3E0FDA3E0FEA372
:10148F00E0FF1208E890042D1209997F0A7E8B7DE8
:10149F00027C00900429E0F8A3E0F9A3E0FAA3E0AE
:1014AF00FBC3120988504D7F1D7E637D017C009028
:1014BF000429E0F8A3A3A3E01209884037E47F6F63
:1014CF00FEFDFC90042DE0F8A3E0F9A3E0FAA3E001
:1014DF00FBD3120988401DE47FFAFEFDFC90042D1A
:1014EF00E0F8A3A3A3E0120988500990021C74032B
:1014FF00F00216EFE47B8CFAF9F8900581E0FCA37B
:10150F00E0FDA3E0FEA3E0FF1208E8900429120912
:10151F00997BA07A8679017800900581E0FCA3E0A1
:10152F00FDA3E0FEA3E0FF1208E890042D12099935
:10153F007F0A7E8B7D027C00900429E0F8A3E0F9FE
:10154F00A3E0FAA3E0FBC3120988504D7F1D7E6311
:10155F007D017C00900429E0F8A3A3A3E012098881
:10156F004037E47F6FFEFDFC90042DE0F8A3E0F917
:10157F00A3E0FAA3E0FBD3120988401DE47FFAFE33
:10158F00FDFC90042DE0F8A3A3A3E01209885009F5
:10159F0090021C7402F00216EFE47BA8FAF9F8909F
:1015AF000581E0FCA3E0FDA3E0FEA3E0FF1208E845
:1015BF009004291209997BC07AD47901780090059B
:1015CF0081E0FCA3E0FDA3E0FEA3E0FF1208E8909A
:1015DF00042D1209997F0A7E8B7D027C00900429CD
:1015EF00E0F8A3E0F9A3E0FAA3E0FBC312098850E7
:1015FF004D7F1D7E637D017C00900429E0F8A3A33D
:10160F00A3E01209884037E47F6FFEFDFC90042DA4
:10161F00E0F8A3E0F9A3E0FAA3E0FBD312098840B6
:10162F001DE47FFAFEFDFC90042DE0F8A3A3A3E0D8
:10163F00120988500990021C7401F00216EFE47B26
:10164F002D7A01F9F8900581E0FCA3E0FDA3E0FEFF
:10165F00A3E0FF1208E89004291209997BD87A4772
:10166F0079037800900581E0FCA3E0FDA3E0FEA3E1
:10167F00E0FF1208E890042D1209997F0A7E8B7DF6
:10168F00027C00900429E0F8A3E0F9A3E0FAA3E0BC
:10169F00FBC312098850497F1D7E637D017C00903A
:1016AF000429E0F8A3A3A3E01209884033E47F6F75
:1016BF00FEFDFC90042DE0F8A3E0F9A3E0FAA3E00F
:1016CF00FBD31209884019E47FFAFEFDFC90042D2C
:1016DF00E0F8A3A3A3E01209885005E490021CF0E0
:1016EF009004291209A50000000090042D1209A5ED
:0416FF0000000000E7
:0117030022C3
:0E4E3200E4F5C7F5C5F5C675C3FF75C4FF22CC
:084B8600900434E0FEA3E0FFFF
:104B8E0090021CE04480F5C775C5038FC4EEF5C3D3
:0A4B9E0075C65A75C6A500024E3216
:1047AD0090043CE0FCA3E0FD900435E02DFF900467
:1047BD0034E03CFE741D2DF58274023CF583E0FD62
:1047CD0090021CE04480F5C775C5028FC4EEF5C399
:0E47DD00AF058FC275C65A75C6A500024E32D2
:0C4A5500900435E02FFF900434E03EFE9A
:104A610090021CE04480F5C775C5018FC4EEF5C303
:0C4A710075C65A75C6A500AFC2024E32D1
:103FD700900429EEF0A3EFF0A3EBF0A3EAF0A3E936
:013FE700F0E9
:103FE800E4900430F0A3F090042EE0FEA3E0FFA3D9
:103FF800E0FCA3E0FDC39FEC9E503990042AE02D1D
:10400800FF900429E03CFE124A6190042BE0FBA3D8
:10401800E0FAA3E0F9900430E0FCA3E0F5828C8399
:10402800EF120723900431E004F070BB900430E0F5
:0440380004F080B35D
:01403C002261
:0B20710090042BEBF0A3EAF0A3E9F0D1
:10207C00E4900438F0A3F0A3EEF0A3EFF090042E5C
:10208C00E0FFA3E0A3CFF0A3EFF090043AE0FCA3B1
:10209C00E0FDECC313FB7A007F0025E0FE900434D6
:1020AC00F0A3EFF02400FFEE3402FEC3EF9DFFEE31
:1020BC009CFE900432F0A3EFF0D3900431E09F909B
:1020CC000430E09E40030221B3E490043CF0A3F002
:1020DC0090043CE0FEA3E0FFC3EE94025025124AAC
:1020EC005590043CE0FCA3E0241DF58274023CF501
:1020FC0083EFF090043DE004F070D590043CE004D4
:10210C00F080CD124B86900434E0FEA3E0FFC39028
:10211C00043BE09FFF90043AE09E900436F0A3EF5E
:10212C00F0E490043CF0A3F0900430E0FEA3E0FF58
:10213C0090043CE0FCA3E0FDC39FEC9E5047900450
:10214C0039E02DFF900438E03CFE90042BE0FBA31B
:10215C00E0FAA3E0F98F828E831206E4FF90043735
:10216C00E02DFD900436E03CFC741D2DF5827402CC
:10217C003CF583EFF090043DE004F070AB90043C30
:10218C00E004F080A3E490043CF0A3F01247AD907F
:10219C00043DE004F0700690043CE004F0C39004AD
:1021AC003CE0940240E622E490043CF0A3F090045E
:1021BC003CE0FEA3E0FFC3EE94025025124A55907A
:1021CC00043CE0FCA3E0241DF58274023CF583EF93
:1021DC00F090043DE004F070D590043CE004F080F5
:1021EC00CD124B86900434E0FEA3E0FFC390043B79
:1021FC00E09FFF90043AE09E900436F0A3EFF0E4E9
:10220C0090043CF0A3F0900432E0FEA3E0FF9004B5
:10221C003CE0FCA3E0FDC39FEC9E5047900439E0EA
:10222C002DFF900438E03CFE90042BE0FBA3E0FA79
:10223C00A3E0F98F828E831206E4FF900437E02D21
:10224C00FD900436E03CFC741D2DF58274023CF5C7
:10225C0083EFF090043DE004F070AB90043CE0049C
:10226C00F080A3E490043CF0A3F01247AD90043D41
:10227C00E004F0700690043CE004F0C390043CE0F1
:10228C00940240E6900432E0FEA3E0FF90043BE0B1
:10229C002FF090043AE03EF0C3900431E09FF090B0
:1022AC000430E09EF0900439E02FF0900438E03ECA
:0422BC00F002209676
:103D51009005DCEFF024FC602024FC603024FC6042
:103D610040240C70517D037F13121E0DE4FD7F145E
:103D7100121E0D7D037F15803A7D037F23121E0DD8
:103D8100E4FD7F24121E0D7D037F2580267D037FA8
:103D910075121E0DE4FD7F76121E0D7D037F778067
:103DA100127D037F34121E0DE4FD7F33121E0D7D43
:103DB100037F32121E0D9005DCE0540CFFE5A25486
:053DC100F34FF5A22202
:0F4E0500E4FF123D5175CE5075CDC043CE402213
:104CA4007DF47C018FCFE5CD30E704ED4C6007ED5A
:0B4CB4001D70F31C80F043CDC0AFCF9B
:014CBF0022D2
:0B2CD300012A004105D6004105D50094
:10391D009000051206E4FF9005D6E06F70030239A2
:10392D00B11206CBFEC4540F7826F6EE540FFEF8F6
:10393D007401088002C333D8FC7827F69000011279
:10394D0006E4FEC4540F7823F6EE540FFEF874010E
:10395D00088002C333D8FC7825F69000021206E4E5
:10396D00FEC4540F7822F6EE540FFEF87401088051
:10397D0002C333D8FC7824F69000031206E4FEC48B
:10398D00540F7828F6EE540FFEF87401088002C328
:10399D0033D8FC7829F69000041206E4782AF690C4
:0539AD0005D6EFF02239
:103042009005A2EBF0A3EAF0A3E9F0A3EDF090055E
:10305200A2E0FBA3E0FAA3E0F9ED1207119005A6A6
:10306200E0FF9005A2E0FBA3E0FAA3E0F9900001E3
:10307200EF1207239005A7E09000021207239005A4
:10308200A8E09000031207239005A9E09000041223
:1030920007239005A5E0FF7D03121E0D9005A9E010
:1030A2009005A530E106E0FF7D018004E0FFE4FD2C
:1030B2001234539005A9E030E7149005A6E0FF7D95
:1030C20003121E0D9005A6E0FF7D011234539005F8
:1030D200A9E030E6149005A7E0FFE4FD121E0D9072
:1030E20005A7E0FF7D011234539005A9E030E514F5
:1030F2009005A8E0FF7D03121E0D9005A8E0FF7D5C
:10310200011234539005D5E004FFF09005A2E0FBD4
:10311200A3E0FAA3E0F9900005EF12072302391D9C
:100046009005D6E06F6073EDC4540F7826F6ED5434
:100056000FFEF87401088002C333D8FC7827F6EB4C
:10006600C4540F7823F6EB540FFEF874010880028F
:10007600C333D8FC7825F69005ADE0FEC4540F785E
:1000860022F6EE540FFEF87401088002C333D8FC42
:100096007824F69005AEE0FEC4540F7828F6EE54A8
:1000A6000FFEF87401088002C333D8FC7829F69055
:0B00B60005AFE008F69005D6EFF02241
:0D37E0009005B7EDF0A3EBF09005B6EFF00B
:1037ED007D03121E0D9005BAE09005B630E106E09E
:1037FD00FF7D018004E0FFE4FD1234539005BAE033
:10380D0030E7149005B7E0FF7D03121E0D9005B74C
:10381D00E0FF7D011234539005BAE030E6149005B7
:10382D00B8E0FFE4FD121E0D9005B8E0FF7D01121A
:10383D0034539005BAE030E5149005B9E0FF7D03EF
:10384D00121E0D9005B9E0FF7D011234539005D580
:10385D00E004F0FCFF9005B6E0FDA3E0FBA3E090D3
:10386D0005ADF09005B9E09005AEF09005BAE09089
:06387D0005AFF002004659
:0524E5009005CAEFF0B4
:1024EA00E49005CDF0782AE6782630E109E6FF087F
:1024FA00E6FD7B018007E6FF08E6FDE4FB12388370
:10250A00782AE654306430700C7828E6FF08E6FD35
:10251A00E4FB123883782AE620E2030225D89005E4
:10252A00CB7480F0E4A3F09005CCE0C394087480E7
:10253A00948040030226889005CBE0FF9005CAE00C
:10254A005F7823600AE6FF7825E6FD7B018008E6CE
:10255A00FF7825E6FDE4FB1238837826E6FF08E6D5
:10256A00FD1246A7782AE630E6225401701E782228
:10257A00E6FF7824E6FD1241C0EF60109005CDE039
:10258A00FF9005CBE0FEEF4E9005CDF07826E6FFF2
:10259A0008E6FD1246A7782AE630E62454016401CB
:1025AA00701E7822E6FF7824E6FD1241C0EF601023
:1025BA009005CDE0FF9005CBE0FEEF4E9005CDF003
:1025CA009005CBE0C313F0A3E004F0022531900597
:1025DA00CB7401F0E4A3F09005CCE0C394087480B6
:1025EA00948040030226889005CBE0FF9005CAE05C
:1025FA005F7823600AE6FF7825E6FD7B018008E61E
:10260A00FF7825E6FDE4FB1238837826E6FF08E624
:10261A00FD1246A7782AE630E6225401701E782277
:10262A00E6FF7824E6FD1241C0EF60109005CDE088
:10263A00FF9005CBE0FEEF4E9005CDF07826E6FF41
:10264A0008E6FD1246A7782AE630E624540164011A
:10265A00701E7822E6FF7824E6FD1241C0EF601072
:10266A009005CDE0FF9005CBE0FEEF4E9005CDF052
:10267A009005CBE025E0F0A3E004F00225E1782AFA
:10268A00E654306430700C7828E6FF08E6FD7B01DA
:08269A001238839005CDE0FF2A
:0126A2002215
:10410600F0EF543FFFE054C04FF090FE82E4F0FF22
:10411600EF24F0601724F0602224F0602D24307024
:104126003643913043923090FE11800943953043D7
:10413600963090FE12E04430F0801C43E1C043E22A
:10414600C090FE17E044C0F0800D43B10C43B20CA2
:1041560090FE13E0440CF0EF5430FFE5BA54CF4F15
:03416600F5BA2285
:104C0B009005DDE06F6018EFF090FE80E0547FF0D0
:104C1B00EF5430FFE5BA54CF4FF5BAE04480F022A1
:10466100EF24F0601724F0602124F0602B243070D7
:10467100345391CF5392CF90FE1180095395CF536C
:1046810096CF90FE12E054CFF02253E13F53E23F28
:1046910090FE17E0543FF02253B1F353B2F390FE72
:0646A10013E054F3F022C7
:10421500E47B02FAF9F8900581E0FCA3E0FDA3E058
:10422500FEA3E0FF1208E87BA07A867901780012E8
:1042350008E8EF24FCFFEE34FFFEED34FFFDEC341F
:10424500FFFCE47B02FAF9F81208E8EF543FFF900F
:10425500FE80E04440124106E49005DDF090FE80CA
:04426500E04480F0C1
:014269002232
:10426A00E47B02FAF9F8900581E0FCA3E0FDA3E003
:10427A00FEA3E0FF1208E87BA07A86790178001293
:10428A0008E8EF24FCFFEE34FFFEED34FFFDEC34CA
:10429A00FFFCE47B02FAF9F81208E8EF543FFF90BA
:1042AA00FE80E054BF124106E49005DDF090FE80E6
:0442BA00E04480F06C
:0142BE0022DD
:0300C300024CDB11
:104CDB00C0E0C083C08290FE82E030E606E054BFA5
:0A4CEB00F0C20DD082D083D0E03279
:100026007F0AD20D90FE817481F0300D06AE071F57
:03003600EE70F772
:0100390022A4
:104D89007F0AD20D90FE817486F0300D06AE071FA2
:034D9900EE70F7C2
:014D9C0022F4
:104D28007E0A90FE86EFF0D20D90FE817482F030FC
:084D38000D06AF061EEF70F737
:014D40002250
:104D41007F0AD20D90FE82E4F090FE817485F030EE
:084D51000D06AE071FEE70F71E
:014D59002237
:104CF5007F0AD20D90FE827401F090FE817485F0DA
:094D0500300D06AE071FEE70F739
:014D0E002282
:104D5A007F0AD20D90FE817484F0300D06AE071FD3
:084D6A00EE70F790FE87E0FFF8
:014D7200221E
:104C69007F0AD20D90FE817483F0300D06AE071FC6
:0D4C7900EE70F790FE82E05402C31324FF9A
:014C8600220B
:062CDE00013000012F008F
:10453E009000021206E4FF782F66603D1206CBFE55
:10454E00C4540F782DF6EE540FFEF8740108800255
:10455E00C333D8FC782EF69000011206E4FEC45444
:10456E000F782BF6EE540FFEF87401088002C33359
:0A457E00D8FC782CF6782FA607224F
:103A3E009005BBEBF0A3EAF0A3E9F0A3EDF090053F
:103A4E00BBE0FBA3E0FAA3E0F9ED1207119005BF6E
:103A5E00E0FF9005BBE0FBA3E0FAA3E0F9900001C4
:103A6E00EF1207239005BEE0FF7D02121E0D90059A
:103A7E00BFE0FF7D02121E0D9005BEE0FF7D01121C
:103A8E0032C89005BFE0FF7D011232C89005BEE03E
:103A9E00FF7D011234539005BFE0FF7D01123453B8
:103AAE00783006E6FF9005BBE0FBA3E0FAA3E0F951
:0A3ABE00900002EF12072302453EBC
:10486400782FE66F6034EDC4540F782DF6ED540FB5
:10487400FEF87401088002C333D8FC782EF6EBC42A
:10488400540F782BF6EB540FFEF87401088002C322
:0B48940033D8FC782CF6782FA6072202
:0A43B9009005D8EDF09005D7EFF065
:1043C3007D02121E0D9005D8E0FF7D02121E0D9096
:1043D30005D7E0FF7D011232C89005D8E0FF7D01CB
:1043E3001232C89005D7E0FF7D011234539005D8EF
:1043F300E0FF7D01123453783006E6FCFF9005D7C9
:08440300E0FDA3E0FB024864A8
:10440B00782BE6FF08E6FD7B01123883782DE6FF5B
:10441B0008E6FD7B01123883782BE6FF08E6FD12D8
:10442B0041C0EF70037FFF22782BE6FF08E6FD12F9
:10443B0046A7782BE6FF08E6FD1241C0EF6401703A
:10444B00037FFF22782DE6FF08E6FD1246A77F00CB
:01445B00223E
:1049D100782BE6FF08E6FDE4FB123883782DE6FF2D
:1049E10008E6FDE4FB123883782DE6FF08E6FD12A8
:0C49F10046A7782BE6FF08E6FD0246A76B
:1049FD00782DE6FF08E6FDE4FB123883782BE6FF01
:104A0D0008E6FDE4FB123883782DE6FF08E6FD127B
:0C4A1D0046A7782DE6FF08E6FD0246A73C
:104A2900782DE6FF08E6FDE4FB123883782BE6FFD4
:104A390008E6FD7B01123883782DE6FF08E6FD12B2
:0C4A490046A7782DE6FF08E6FD0246A710
:1045D200782DE6FF08E6FDE4FB123883782BE6FF30
:1045E20008E6FD7B01123883782DE6FF08E6FD120E
:1045F20046A7782BE6FF08E6FD1241C0EF6401787A
:104602002D700BE6FF08E6FD1246A77FFF22E6FFAC
:0946120008E6FD1246A77F002214
:053C59009005D2EFF020
:103C5E009005D4F0782B30E709E6FF08E6FD7B01EE
:103C6E008007E6FF08E6FDE4FB123883782DE6FFB9
:103C7E0008E6FDE4FB123883E49005D3F09005D3FB
:103C8E00E0C394087480948050419005D2E0FF9078
:103C9E0005D4E06F30E70A782BE6FF08E6FD124602
:103CAE00A7782DE6FF08E6FD1246A79005D2E09014
:103CBE0005D4F025E09005D2F0782DE6FF08E6FD5C
:0B3CCE001246A79005D3E004F080B27E
:013CD90022C8
:1040A200E49005DAF0782BE6FF08E6FD7B01123892
:1040B20083E49005D9F09005D9E0C3940874809404
:1040C20080503BA3E025E0F0782DE6FF08E6FD7B7B
:1040D20001123883782BE6FF08E6FD1241C0EF6437
:1040E2000170079005DAE04401F0782DE6FF08E65A
:1040F200FDE4FB1238839005D9E004F080B8900506
:03410200DAE0FF01
:014105002297
:0B3E9F009005C0EBF0A3EAF0A3E9F0EF
:103EAA00E49005C4F09005C3F09005C3E0C3948084
:103EBA0074809480504312440B9005C3E025E0FFC0
:103ECA00123C591245D2EF70259005C3E025E0FF58
:103EDA009005C0E0FBA3E0FAA3E0F99005C4E0F581
:103EEA0082758300EF1207239005C4E004F012499B
:0E3EFA00D19005C3E004F080B09005C4E0FF55
:013F08002296
:104BA80075DE2F78EFE6FC08E6FDE4120271E4FBFF
:104BB800FA797A78441201CF9005CE12099943BC4C
:024BC800802249
:104BCA00EF540FFFE5BC54F04FF5BC43BC40000066
:104BDA00E5BC30E5FB53BCDFAFBDEFFEADBEEDFF7C
:014BEA0022A8
:104B1800124BCAAD07AC06E41202719005C6E0F864
:104B2800A3E0F9A3E0FAA3E0FB1200C6E4FBFA79DC
:064B38008078450201CF68
:034E9D00D2AD2271
:034EA000C2AD227E
:1046EC007F0F124BCAEF4E7005FFFEFDFC22AD078B
:1046FC00AC06E4120271C004C005C006C007E4FF9A
:10470C00FE7D807C459005CEE0F8A3E0F9A3E0FAAD
:10471C00A3E0FB1200C6D003D002D001D0001201DE
:01472C00CFBD
:01472D002269
:0F4E140075E7C175E63490FEAEE4F043E6802208
:0B4E6E00E5E630E0037F01227F002218
:04003E0043E68022F3
:044E960053E67F223E
:104DC400E4F5D8F5E9F5F975D9087F10122F38D232
:024DD400DE22DD
:102F38009005DEEFF0E0FF5430FEE5A254CF4EF5E9
:102F4800A2EF24F0603124F0604F24F0606D24304B
:102F58006003022FE6E4FD7F12121E0DE4FD7F17C9
:102F6800121E0DE4FD7F16121E0DE4FD7F15121EC4
:102F78000DE4FD7F148064E4FD7F22121E0DE4FD44
:102F88007F23121E0DE4FD7F24121E0DE4FD7F2514
:102F9800121E0DE4FD7F268042E4FD7F74121E0D93
:102FA800E4FD7F70121E0DE4FD7F71121E0DE4FD1D
:102FB8007F72121E0DE4FD7F738020E4FD7F3512C1
:102FC8001E0DE4FD7F33121E0DE4FD7F32121E0D2F
:102FD800E4FD7F31121E0DE4FD7F30121E0D9005B9
:102FE800DEE024F0601C24F060332420704BE4FD04
:102FF8007F12121E0DE4FD7F11121E0DE4FD7F10DD
:103008008012E4FD7F34121E0DE4FD7F35121E0D83
:10301800E4FD7F36121E0DE4FD7F378019E4FD7F45
:1030280024121E0DE4FD7F25121E0DE4FD7F2612DD
:0A3038001E0DE4FD7F27121E0D227D
:10497800ED14B40700502590498D75F003A4C58344
:1049880025F0C583730249A30249A30249A302493A
:0C499800A30249A30249A30249A4222261
:0149A40022F0
:014EA50022EA
:0D2855009005B1ECF0A3EDF09005B0EFF0B0
:10286200E49005B4F09005B5E0FFD394047480942D
:102872008040030229F1EF94007480948050030297
:1028820029F1E024FE606514700302293F147003ED
:10289200022991240360030229F1C39005B2E09456
:1028A200E89005B1E094034004E4FB802E9005B16A
:1028B200E0FEA3E0FBC374E89BFF74039EFEE49476
:1028C20000FDE49400FCE47B40FAF9F812085DE4B0
:1028D2007BE87A03F9F81208E8AB07EB543F90055E
:1028E200B3F0EB20E6030229F102298CC39005B272
:1028F200E094E89005B1E094034004E4FB802E905C
:1029020005B1E0FEA3E0FBC374E89BFF74039EFEE7
:10291200E49400FDE49400FCE47B80FAF9F81208E8
:102922005DE47BE87A03F9F81208E8AB07EB547F21
:102932009005B3F0EB20E7030229F1804DC3900527
:10294200B2E094E89005B1E094034005E4FAFB801C
:10295200309005B1E0FEA3E0FBC374E89BFF740373
:102962009EFEE49400FDE49400FCE4FB7A01F9F895
:1029720012085DE47BE87A03F9F81208E8AA06ABCC
:10298200079005B3EBF0EA30E065A37402F022C3CE
:102992009005B2E094E89005B1E094034005E4FAB2
:1029A200FB80309005B1E0FEA3E0FBC374E89BFF1F
:1029B20074039EFEE49400FDE49400FCE4FB7A04BC
:1029C200F9F812085DE47BE87A03F9F81208E8AA3C
:1029D20006AB079005B3EBF0EAC4F854F0C8EBC4B9
:0F29E200540F485430A3F0EA30E204E04402F00E
:0129F10022C3
:03003B00024E90E2
:064E900030DF02C2DF3238
:104DB10090FFF27409F090FFF0E4F0A37464F04303
:034DC100FE80224F
:0531FD00900585EFF0D4
:1032020090058A7401F090058AE0FFC394107480DF
:103212009480503DAB07E4FAF9F8900581E0FCA3F5
:10322200E0FDA3E0FEA3E0FF1208E8E47BFF7A7F63
:10323200F9F81208E8900586E0F8A3E0F9A3E0FAAD
:10324200A3E0FBD3120988500890058AE004F080BD
:10325200B590058AE0FBE4FAF9F8900581E0FCA359
:10326200E0FDA3E0FEA3E0FF1208E8900586E0F887
:10327200A3E0F9A3E0FAA3E0FB1208E890058B12A1
:103282000999E47FFF7E7FFDFC90058BE0F8A3E0C7
:10329200F9A3E0FAA3E0FBD3120988502890058530
:1032A200E0702253FE7F90058AE0C3940190FFF202
:1032B200F090058BA3A3E0FFA3E090FFF0CFF0A373
:0532C200EFF043FE8067
:0132C70022E4
:0200C100EF222C
:1000C600EC4D6011E8497017ED33EC3304600DE434
:1000D600FCFFFEFD22E933E8330470F80203161232
:1000E60002E158046009E4CC248150062850090234
:1000F600032028400302031DC0E0EB4A7044B98088
:1001060006D0E0FB02030CEF4E701CBD8008EBFF2F
:10011600EAFEE9FD80EBE98DF0A4FEE5F00201AF11
:10012600E9CDF9EAFEEBFFEF89F0A4FCE5F0CE8914
:10013600F0A42EFFE435F0CD89F0A42DFEE435F0D1
:100146008067EF4E7005BD80D780C3EF8BF0A4ACFF
:10015600F0EE8BF0A42CFCE435F0F8EF8AF0A42C3A
:10016600E5F038FCE433CB8DF0A42CFCE5F03BF84D
:10017600EE8AF0A42CFCE5F038F8E433CF89F0A43D
:100186002CFCE5F038CF3400CE89F0A42FFFE5F043
:100196003EFEE433C98DF0A42EFEE5F039CD8AF09B
:1001A600A42FFFE5F03EFEE43DFD33D0E0FB500713
:1001B6000BBB000F020320EC2CFCEF33FFEE33FEEB
:0601C600ED33FD0202F81A
:1001CC00020320EC5D046005E85904700302031679
:1001DC001202E1580460F6EC4860F2EC7004FDFE8B
:1001EC00FF22C860DB2481C85009C3986002500606
:1001FC0002031D9850CAF582E9294B4A7005AB825F
:10020C0002030C75F0007C1A7880C3EF9BEE9AED1C
:10021C0099400DC3EF9BFFEE9AFEED99FDE842F07D
:10022C00DC23ACF0D0E0FFD0E0FED0E0FDAB8220D0
:10023C00E7101BEB60BAEC2CFCEF33FFEE33FEED5A
:10024C0033FD0202F8E803F830E705C0F075F00062
:10025C00EF2FFFEE33FEED33FD40B830E7C280AA3E
:10026C0075F020800E75F010800575F0087D007E0D
:10027C00007F003392D530D50312097AEC3340104D
:10028C00EF33FFEE33FEED33FDEC33FCD5F0ED2216
:0E029C00E5F0247EA2D513CC92E7CDCEFF2252
:1002AA00EDD2E7CD33EC3392D524814006E4FFFE4C
:1002BA00FDFC22FCE4CFCECDCC24E0501174FF80AB
:1002CA00EDC3CC13CCCD13CDCE13CECF13CF047048
:0702DA00F030D5DE02097AC5
:104588009004E2E0FFA3E0FEA3E0CF9004EBF0A3E9
:10459800EEF0A3EFF09004E5E0CBF0A3E0CAF0A3BF
:1045A800E0C9F07F229004EEAD82AC831206CB8D79
:1045B800828C83F0A309E970010ADFEC9004E5E03E
:0A45C800FBA3E0FAA3E0F902176973
:1002E100E9D2E7C933E833F892D5EDD2E7CD33EC63
:0702F10033FC5002B2D522DC
:1002F800EC30E7100FBF000C0EBE00080DBD000467
:100308000BEB6014A2D5EB13FCED92E7FD2274FF12
:10031800FCFDFEFF22E480F8A2D574FF13FC7D806B
:03032800E480EF7F
:10170400E51624EBF582E43404F583E00516229013
:1017140004E83009039004EBE475F0011209D602E1
:1017240006CB2002E97F2ED2028018EF540F2490BA
:10173400D43440D4FF30060BEF24BFB41A00500356
:101744002461FFE51760021517051AE51A700205F2
:101754001930090E9004E8E475F0011209D6EF027D
:101764000711024ACB7403D2098003E4C209F516B7
:101774009004E81209EDE4F517F519F51AE5176078
:10178400077F2012174780F57518FFC203C202C2F3
:1017940004C205C207C208C20A121713FF700D3033
:1017A40009057F00121758AF1AAE1922B4255FC27B
:1017B400D5C206121713FF24D0B40A00501A75F0CC
:1017C4000A781730D50508B6FF0106C6A426F62008
:1017D400D5047002D20580D924CFB41A00EF500486
:1017E400C2E5D206021A4AD20380C6D20280C0D20F
:1017F4000480BCD2D580BAD20780B47F20121747A8
:101804002004077401B5170040F1121704FF1217E2
:1018140047021781D20AD2088095121704FB1217C7
:1018240004FA121704F94A4B700679487A1B7BFFB5
:1018340020042EE517602A7E008E8275830012062E
:10184400E460060EEE651870F0C2D5EBC0E0EAC0A5
:10185400E0E9C0E0EE121AABD0E0F9D0E0FAD0E053
:10186400FB1206CBFF60AAEBC0E0EAC0E0E9C0E0EF
:10187400121747D0E02401F9D0E03400FAD0E0FB9D
:10188400E5180460DCD518D98087D20480A2121A26
:101894008D60F7E51870010412032BA918600DE59B
:1018A40018600914F518121B35EF60F3EA30E702EB
:1018B400F404C3995079EAF425180430E701E404E8
:1018C400F518800D121A8D60C1EA05182518120347
:1018D4002BEA900517F030E701E4251804D5180425
:1018E40020070114121AABE4C0E0121B359005174F
:1018F400E0601320E70714F012172F802204F0D0C1
:10190400E014C0E07F0012172FE5186007121726B5
:101914001518800B300703121726D0E0021781D068
:10192400E00480C4121A8D609EE5180412032B9003
:101934000517EAF0E5182007026001042404121ACE
:01194400ABF7
:1019450074FF04C0E0121B3512172FE5182007029B
:101955006003121726D0E0B518E87F4512173990B5
:101965000517E07F2B30E7047F2DF404C0E0121744
:1019750047D0E075F00A84C0F0121730D0E0121796
:1019850030021781791080027908C208C20A8008DE
:10199500D2D5790A8004790AC2D5E518047002F512
:1019A50018E4FAFDFEFF121704FC7B08200313124E
:1019B5001704FD7B1030020A121704FE121704FFEC
:1019C5007B20EC3382D592D55013C3E43002069FB9
:1019D500FFE49EFEE42003039DFDE49CFCE4CBF8BC
:1019E500C203EC700CCFCECDCCE824F8F870F380B0
:1019F50017C3EF33FFEE33FEED33FDEC33FCEB3372
:101A0500FB994002FB0FD8E9EB300305F8D0E0C4A1
:101A150048B203C0E00AEC4D4E4F78207B0070C2FF
:101A2500EAB5180040BCC0E0121AADD0F0D0E020F5
:101A35000304C4C0E0C4B203C0F0121730D0F0D51F
:101A4500F0EB0217811209F6181E5319895817EF82
:101A55004C17EB42198D4F199544199549180443B4
:101A6500199B5518C8461928451892471B685017E1
:101A7500F32D17F72E181A2B17FB231818201B51B7
:101A85002A17B34800001812E518B4FF03751806A5
:101A9500121704FC121704FD121704FE121704FF97
:101AA500900510020368790AA2D5200514300709AC
:101AB500B910020404B9080104A2D5200802500196
:101AC500042004689204B517005034C0E07F20302C
:101AD50005197F30A20472087207500F121B04C249
:101AE50004C208C207C20A7F30800F300703E9C06D
:101AF500E0121747300703D0E0F9D0E0B517CC3036
:101B050007177F30B9100C1217477F583006077F2B
:101B1500788003B908031217473004057F2D021793
:101B2500477F20200AF87F2B2008F322920480CFDC
:101B35007F00B40700500B2410F582E43405F583CB
:101B4500E0FF22286E756C6C2900D2031217043051
:101B550003F8C203781730D50108F60217B32D50E4
:101B65004349581217042403B405004001E4901BAF
:101B75006393121738743A121738D2057517040291
:021B85001989BC
:10032B00F920E73624F950037907E4F42402FBE5BE
:10033B0082158270021583DBF6E024FB501BE9600B
:10034B0014E4F0E582158270021583E004F0B40A20
:0D035B0008E4F0D9EE7401F00A22C2D522A8
:10036800ED33EC3392D5FA602AB4FF33EDC2E77B64
:10037800FF60067A03798DE4227A03799620D50402
:100388007A037991224E614E002B494E46002D4941
:100398004E4600E47A08F0A3DAFC7B00740722C01A
:1003A80083C082ECC0E0EDC0E0EEC0E0EFC0E0EA60
:1003B80075F010A4CAABF075F04DA42BFBE435F032
:1003C800FCEA2410FAEB34C5FBEC34D9FCEDC2E7A7
:1003D800FF75F056A4F42411C5F0F434C58FF0A4C9
:1003E8002AE5F03BE43CF020E714120595D0E0FF45
:1003F800D0E0FED0E0FDD0E0FC1201CF8014F40480
:10040800120595D0E0FFD0E0FED0E0FDD0E0FC1270
:1004180000C6D082D083E0FAEDD2E7CD33EC3324A6
:1004280082FBE4C3CF33CFCE33CECD33CD33DBF332
:100438007B0775F00A846004F0A31B0AE5F0F0A3BB
:100448008FF0740AA4FFACF08EF0740AA42CFEACF2
:10045800F050010C8DF0740AA42CFDE435F0F0A3E3
:05046800DBDE74072239
:10046D00020316E86480F8E933E83360110460F0A4
:10047D00ED33EC337009E8FCE9FDEAFEEBFF2204F5
:10048D0060DED3EB9FEA9EE99DE8C2E78CF0C2F7F0
:10049D0095F0400CE8CCF8E9CDF9EACEFAEBCFFBBC
:1004AD001202E185D0F05804700320D5B3E8047032
:1004BD00075002B2D502032092D5EC0460F7E4CCCC
:1004CD00C0E0C398F8603B94186008400DD0E0FB85
:1004DD000202F8E4FBFAC9FC8028E830E406E4C91E
:1004ED00FBE4CAFCE830E305E4C9CACBFCE85407D9
:1004FD006010F8C3E913F9EA13FAEB13FBEC13FCE4
:10050D00D8F130F52FC3E49CFCEF9BFFEE9AFEED86
:10051D0099FDD0E0FBEF4E4D4C701222DB03020330
:10052D001DEC2CFCEF33FFEE33FEED33FDED30E72C
:10053D00EB0202F8EF2BFFEE3AFEED39FDD0E0FBBA
:10054D0050130BBB0003020320ED13FDEE13FEEF62
:08055D0013FFEC13FC0202F88D
:100565003F8000004120000042C80000447A00009E
:10057500461C400047C35000497424004B18968020
:100585004CBEBC205A0E1BCA6753C21C749DC5AE17
:10059500FB60065407601C23231205C3EB54386027
:1005A500091205AF1205BE1200C6ECF8EDF9EEFA18
:1005B500EFCB22EB1205BE80F1543803241C9005C5
:1005C50065FE93FC0EEE93FD0EEE930ECE93FF2289
:1039BE00020B74E493A3F8E493A34003F68001F2A0
:1039CE0008DFF48029E493A3F85407240CC8C3330A
:1039DE00C4540F4420C8834004F456800146F6DFD9
:1039EE00E4800B0102040810204080902B8CE47EB2
:1039FE00019360BCA3FF543F30E509541FFEE493CE
:103A0E00A360010ECF54C025E060A840B8E493A394
:103A1E00FAE493A3F8E493A3C8C582C8CAC583CABF
:103A2E00F0A3C8C582C8CAC583CADFE9DEE780BE77
:012CE40000EF
:1005D500E709F608DFFA8046E709F208DFFA803E08
:1005E50088828C83E709F0A3DFFA8032E309F608F5
:1005F500DFFA8078E309F208DFFA807088828C835D
:10060500E309F0A3DFFA806489828A83E0A3F60810
:10061500DFFA805889828A83E0A3F208DFFA804CEA
:1006250080D280FA80C680D4806980F280338010C1
:1006350080A680EA809A80A880DA80E280CA80332A
:1006450089828A83ECFAE493A3C8C582C8CCC583A2
:10065500CCF0A3C8C582C8CCC583CCDFE9DEE78072
:100665000D89828A83E493A3F608DFF9ECFAA9F0F1
:10067500EDFB2289828A83ECFAE0A3C8C582C8CC47
:10068500C583CCF0A3C8C582C8CCC583CCDFEADE60
:10069500E880DB89828A83E493A3F208DFF980CCC2
:1006A50088F0EF60010E4E60C388F0ED2402B404BB
:1006B5000050B9F582EB2402B4040050AF23234562
:0606C5008223900625735C
:1006CB00BB010689828A83E0225002E722BBFE022D
:0906DB00E32289828A83E4932260
:1006E400BB010CE58229F582E5833AF583E02250CB
:1006F40006E92582F8E622BBFE06E92582F8E22215
:0D070400E58229F582E5833AF583E493222E
:10071100BB010689828A83F0225002F722BBFE01C7
:02072100F322C1
:10072300F8BB010DE58229F582E5833AF583E8F00C
:10073300225006E92582C8F622BBFE05E92582C8B8
:02074300F222A0
:10074500EF8DF0A4A8F0CF8CF0A428CE8DF0A42EC8
:02075500FE2282
:10075700BC000BBE0029EF8DF084FFADF022E4CC86
:10076700F875F008EF2FFFEE33FEEC33FCEE9DEC4F
:10077700984005FCEE9DFE0FD5F0E9E4CEFD22ED95
:10078700F8F5F0EE8420D21CFEADF075F008EF2FDF
:10079700FFED33FD4007985006D5F0F222C398FDD0
:0507A7000FD5F0EA226D
:1007AC00C2D5EC30E709B2D5E4C39DFDE49CFCEE68
:1007BC0030E715B2D5E4C39FFFE49EFE120757C382
:1007CC00E49DFDE49CFC800312075730D507C3E47D
:0607DC009FFFE49EFE22D7
:1007E200A3F8E0C5F025F0F0E582158270021583CA
:0607F200E0C838F0E82227
:1007F800BB0110E58229F582E5833AF583E0F5F03F
:10080800A3E0225009E92582F886F008E622BBFE1B
:100818000AE92582F8E2F5F008E222E5832AF58361
:08082800E993F5F0A3E9932226
:10083000F8BB0111E58229F582E5833AF583E8F0FA
:10084000E5F0A3F0225009E92582C8F608A6F022B7
:0D085000BBFE09E92582C8F2E5F008F2229E
:10085D00E88FF0A4CC8BF0A42CFCE98EF0A42CFC3A
:10086D008AF0EDA42CFCEA8EF0A4CDA8F08BF0A4B8
:10087D002DCC3825F0FDE98FF0A42CCD35F0FCEB17
:10088D008EF0A4FEA9F0EB8FF0A4CFC5F02ECD39DC
:0F089D00FEE43CFCEAA42DCE35F0FDE43CFC2249
:1008AC0075F008758200EF2FFFEE33FECD33CDCC03
:1008BC0033CCC58233C5829BED9AEC99E582984086
:1008CC000CF582EE9BFEED9AFDEC99FC0FD5F0D663
:1008DC00E4CEFBE4CDFAE4CCF9A88222B800C1B98D
:1008EC000059BA002DEC8BF084CFCECDFCE5F0CBCB
:1008FC00F97818EF2FFFEE33FEED33FDEC33FCEB04
:10090C0033FB10D703994004EB99FB0FD8E5E4F9BE
:10091C00FA227818EF2FFFEE33FEED33FDEC33FCAB
:10092C00C933C910D7059BE99A4007EC9BFCE99A9F
:10093C00F90FD8E0E4C9FAE4CCFB2275F010EF2FE4
:10094C00FFEE33FEED33FDCC33CCC833C810D707E4
:10095C009BEC9AE899400AED9BFDEC9AFCE899F81F
:0E096C000FD5F0DAE4CDFBE4CCFAE4C8F922B2
:0E097A00C3E49FFFE49EFEE49DFDE49CFC228E
:10098800EB9FF5F0EA9E42F0E99D42F0E89C45F0C5
:01099800223C
:0C099900ECF0A3EDF0A3EEF0A3EFF022D1
:1009A500A8828583F0D083D0821209BC1209BC12BB
:1009B50009BC1209BCE473E493A3C583C5F0C583E0
:1009C500C8C582C8F0A3C583C5F0C583C8C582C89C
:0109D50022FF
:1009D600F8E0FBA3A3E0F925F0F0E58215827002AA
:0709E6001583E0FA38F0224E
:0909ED00EBF0A3EAF0A3E9F0220B
:1009F600D083D082F8E4937012740193700DA3A390
:100A060093F8740193F5828883E4737402936860A3
:060A1600EFA3A3A380DFA3
:100A1C00EC8EF0A4CCC5F0CCCDF8EFA4CEC5F02D67
:100A2C00FDE43CFCE8A42EC8C5F03DFDE43CFCEF25
:0D0A3C00A4FFE5F028FEE43DFDE43CFC22B3
:104ACB00EFB40A07740D124AD6740A309811A899DC
:104ADB00B8130CC2983098FDA899C298B811F6304B
:074AEB0099FDC299F5992223
:103E3400900599EBF0A3EAF0A3E9F090059FEBF06D
:103E4400A3EAF0A3E9F0900599E0FBA3E475F0017F
:103E54001207E2A9F0FA1206CB70EB90059A74FFF0
:103E6400F5F0120B5E90059CE0FBA3E475F00112E3
:103E740007E2A9F0FA1206CBFF900599E0FBA3E450
:103E840075F0011207E2A9F0FAEF12071170D6904B
:0B3E9400059FE0FBA3E0FAA3E0F92289
:10338E0090058FEBF0A3EAF0A3E9F0E4900597F037
:10339E00A3F0D3900596E09400900595E064809498
:1033AE0080500302344790058FE0FBA3E0FAA3E0C0
:1033BE00F9900597E0FEA3E0F5828E831206E46095
:1033CE0010900598E004F070DD900597E004F08011
:1033DE00D5900592E0FBA3E0FAA3E0F91206CB60CC
:1033EE003E900592A3E475F0011207E2A9F0FA12DD
:1033FE0006CBFF90058FE0FBA3E0FAA3E0F9900562
:10340E0097E475F0011207E285F082F583EF12075B
:10341E002390059574FFF5F0120B5E45F070B29097
:10342E00058FE0FBA3E0FAA3E0F9900597E0FEA379
:10343E00E0F5828E83E412072390058FE0FBA3E074
:05344E00FAA3E0F922E1
:103AC800900429EBF0A3EAF0A3E9F090042CE0FBC2
:103AD800A3E0FAA3E0F91206CBFE900429E0FBA3C9
:103AE800E0FAA3E0F91206CBFF6E702AEF600E90A1
:103AF800042F74FFF5F0120B5E45F070037F00226F
:103B080090042AE475F001120B5E90042DE475F020
:103B180001120B5E80B5900429E0FBA3E0FAA3E054
:103B2800F91206CBFDD3EE6480F8ED64809840036B
:103B38007F012290042CE0FBA3E0FAA3E0F912062F
:073B4800CBFFC3ED9FFF223C
:100A4900E709F60870FA8046E709F20870FA803E6D
:100A590088828C83E709F0A370FA807EE309F6089F
:100A690070FA8076E309F20870FA806E88828C83C6
:100A7900E309F0A370FA806289828A83E0A3F60809
:100A890070FA805689828A83E0A3F20870FA804A54
:100A990080D280FA80C680D4806580F2803180104F
:100AA90080A680EA809A80A880DA80E280CA8031B4
:100AB90089828A83ECFAE493A3C8C582C8CCC5832A
:100AC900CCF0A3C8C582C8CCC583CC70E9800D8998
:100AD900828A83E493A3F60870F9ECFAA9F0EDFB96
:100AE9002289828A83ECFAE0A3C8C582C8CCC5836F
:100AF900CCF0A3C8C582C8CCC583CC70EA80DD8997
:100B0900828A83E493A3F20870F980CE88F0ED24F9
:100B190002B4040050C4F582EB2402B4040050BAB4
:090B29002323458223900A9973ED
:10000E00E4FFFE1206CB600C0FEF70010E09E970D3
:05001E00F20A80EF2250
:104C4A008DF0E4FFFE1206CBB5F00122600C0FEFE7
:0F4C5A0070010E09E970010A80EB7EFF7FFF22D7
:10351600900439EBF0A3EAF0A3E9F0A3E0FBA3E003
:10352600FAA3E0F91206CB70030235C2900439E023
:10353600FBA3E0FAA3E0F91206CB70030235CE90A6
:10354600043CE0F9A3E0FAA3E0A3C9F0A3EAF0A3E0
:10355600E9F0900439A3E0FAA3E0F9900442EBF015
:10356600A3EAF0A3E9F090043FE0FBA3E0FAA3E0AE
:10357600F91206CBFF6026900442E0FBA3E0FAA313
:10358600E0F91206CB6F701590044075F001120B2E
:103596005E900443E475F001120B5E80C990043F0F
:1035A600E0FBA3E0FAA3E0F91206CB7002800D90CF
:1035B600043AE475F001120B5E023532900439E0EC
:0F35C600FBA3E0FAA3E0F9227B007A0079002250
:10312200900429EBF0A3EAF0A3E9F0900429E0FB74
:10313200A3E0FAA3E0F91206CBFF124D9D500C90CA
:10314200042AE475F001120B5E80E0D20290042999
:10315200E0FBA3E0FAA3E0F91206CBFF642B6004C4
:10316200EFB42D1D900429E0FBA3E475F0011207D2
:10317200E2A9F0FA1206CB642D6003D38001C39258
:1031820002E490042CF0A3F0900429E0FBA3E0FAFF
:10319200A3E0F91206CBFF124E235042900429E01D
:1031A200FBA3E0FAA3E0F91206CBFF3395E0FEEFB2
:1031B20024D0FBEE34FFFA90042CE0FEA3E0FF7C67
:1031C200007D0A120745EF2BFFEE3A90042CF0A384
:1031D200EFF090042AE475F001120B5E80AA30022F
:1031E2000A90042CE0FEA3E0FF800F90042CE0FE86
:0B31F200A3E0FFC3E49FFFE49EFE2269
:100B3200EF4E6012EF60010EEDBB010B89828A83DA
:100B4200F0A3DFFCDEFA2289F05007F709DFFCA9E7
:0C0B5200F022BBFEFCF309DFFCA9F0223E
:100B5E00C5F0F8A3E028F0C5F0F8E5821582700222
:060B6E001583E038F022BF
:0F4E2300EFC394304007EF943A50028001C3224E
:104D9D00EFC394094005EF940E4004EFB42003D304
:044DAD008001C3229C
:00000001FF
