:030000000238794A
:0C387900787FE4F6D8FD7581300238C07D
:102CDC000D0A007374617274696E672E2E0D0A00F2
:102CEC0041542B434950534E54504346473D312C8D
:102CFC0038004F4B0073656E6420636F6D6D616EB1
:102D0C00642041542B434950534E54504346473D45
:102D1C00312C3820204F4B0D0A0073656E642063F4
:102D2C006F6D6D616E642041542B434950534E546A
:102D3C00504346473D312C38206661696C65640D03
:102D4C000A0041542B434950534E545054494D455D
:102D5C003F0D0A002562643A202562643A20256200
:102D6C00642020204154494D45A3BA25626420209B
:102D7C0020256264200D0A00756172743120726521
:102D8C006365697665643A005345544154494D4531
:102D9C00005345544154494D45204154202562640B
:102DAC00A3BA25626420202E2E2E2E4F4B210D0A05
:102DBC00005345544154494D45204641494C4544E6
:102DCC00210D0A002B434950534E545054494D4544
:102DDC003A0074696D653A002D2D20202020256461
:102DEC000D0A007365742074696D65206F6B0D0A94
:032DFC00000000D4
:102930004100000341021B0341000E0341000C0350
:10294000608001170000000000000000000000008F
:102950000000000000000000000000000000000077
:102960000000000000000000000000000000000067
:102970000000000000000000000000000000000057
:102980000000000000000000000000000000000047
:102990000000000000000000000000000000000037
:1029A0000000000000000000000000000000000027
:1029B0000000000000000000000000000000000017
:1029C000000000006080019700000000000000008F
:1029D00000000000000000000000000000000000F7
:1029E00000000000000000000000000000000000E7
:1029F00000000000000000000000000000000000D7
:102A000000000000000000000000000000000000C6
:102A100000000000000000000000000000000000B6
:102A200000000000000000000000000000000000A6
:102A30000000000000000000000000000000000096
:102A400000000000000000004100010041000D00F6
:102A50004202170000420002000042000A0000414A
:072A600002190041021A00F7
:08480C00A3F07B017A0179970A
:10481400C002C001900436E0F9A3E0FAA3E09004DA
:104824003CC9F0A3EAF0A3E9F0D001D0021233DDD1
:0B483400E94A4B60037F01227F002255
:0B2BB900900526EBF0A3EAF0A3E9F082
:102BC400E490054FF0FE7F20FD7B017A05792F12FA
:102BD4000B32E490054FF0900526E0FBA3E0FAA346
:102BE400E0F912000E90054FE0C39FE49E400302FB
:102BF4002CB8900529E0FBA3E0FAA3E0F912000E3B
:102C040090042FEEF0A3EFF0900526E0FBA3E0FA8A
:102C1400A3E0F990054FE0FF7E00E92FF9EE3AFAC0
:102C2400C002C001900529E0F9A3E0FAA3E09004F2
:102C34002CC9F0A3EAF0A3E9F0D001D00212398F35
:102C4400EF703790052CE0F9A3E0FAA3E090059C1F
:102C5400C9F0A3EAF0A3E9F07B017A05792F123CCD
:102C6400FB900529E0FBA3E0FAA3E0F912000EEFC4
:102C740014FF90054FE02FF08031900526E0FBA370
:102C8400E0FAA3E0F990054FE0FF7E00E92FF9EEAA
:102C94003AFA900592EBF0A3EAF0A3E9F0A3E4F08A
:102CA400A304F0FB7A05792F12325590054FE00406
:102CB400F0022BDB900526E0FBA3E0FAA3E0F8ACDE
:102CC40002AD037B017A05792F120B15900526E0DE
:072CD400FBA3E0FAA3E0F905
:012CDB0022D6
:0B355400900550EBF0A3EAF0A3E9F0B3
:10355F00E4900578F0FE7F20FD7B017A0579581203
:10356F000B32900556A3E0900578F0900550E0FBE4
:10357F00A3E0FAA3E0F912000E900578E0FD339571
:10358F00E0FCC3ED9FEC9E5043900550E0FBA3E0A1
:10359F00FAA3E0F9900578E0FF3395E08D82F5838B
:1035AF001206E4FEEF3395E0FC900556E0FAA3E037
:1035BF00FBC3ED9BFDEC9AFC74582DF58274053C12
:1035CF00F583EEF0900578E004F0809F900553E0CE
:1035DF00FBA3E0FAA3E0F8AC02AD037B017A057917
:0F35EF0058120B15900553E0FBA3E0FAA3E0F987
:0135FE0022AA
:0B3A1600900429EBF0A3EAF0A3E9F014
:103A2100E4900432F090042FE0FF900432E0C39F51
:103A31005066900429E0FBA3E0FAA3E0F97F0212AB
:103A41003E387BFF7A2C79DC7F02123E38900430BD
:103A5100E0FEA3E0FF124AF29004367401F0A37471
:103A610001F0A37497F0900007E0FBA3E0FAA3E054
:103A7100F91241DA90042CE0F9A3E0FAA3E09004F2
:103A810036C9F0A3EAF0E912480CEF60037F012286
:0A3A9100900432E004F0808D7F0005
:013A9B002208
:03000B0002418629
:10418600C0E0C0F0C083C082C0D075D000C000C0FF
:1041960004C005C006C007900003E004F070069056
:1041A6000002E004F0900002E0FEA3E0FF7C007D48
:1041B60064120757ED4C700790000AF0A304F0D084
:1041C60007D006D005D004D000D0D0D082D083D07E
:0441D600F0D0E03213
:100B7400E490041DF0A3F0A3F0A3F0C200C2017836
:100B8400217C047D017BFF7A2D79FDFE7F02120614
:100B9400A5E4900423F0A3F0A3F0A3F0A3F0A3F042
:100BA400C2B775B280F5B1900423F07594FF7593C4
:100BB400FF7592FF7591FF7596FF7595FF75B2FFEE
:100BC40075B1FF75B4FF75B3FF75CAFF75C9FF53DF
:100BD40092F05391F053B17F43B28053B1FB53B2BF
:100BE400FB53950F53960F53B1FC53B2FC121B5099
:100BF400124CBD121198E4FF124D497D107C27E47C
:100C0400FF122796124AB2E4FFFE12492890000010
:100C1400EFF07F017E0012492890021BEFF07F0263
:100C24007E0012492890000EEFF07F037E001249E7
:100C34002890000CEFF0900000E0FF64036004EFE4
:100C4400F470069000007407F090021BE0FF640348
:100C54006004EFF47005E490021BF090000EE06471
:100C64000370037408F090000CE064037001F090CA
:100C740000047401F0A37400F0A3740FF0A37401D2
:100C8400F0A37400F0A37493F0900004E0FBA3E0DD
:100C9400FAA3E0F91246EF900007E0FBA3E0FAA301
:100CA400E0F91246EF7BFF7A2C79DF7F01123E38A0
:100CB40090042E1209A50001C2007F021243707F26
:100CC400B87E0B124AF29004367401F0A37401F05A
:100CD400A37497F0900007E0FBA3E0FAA3E0F912F5
:100CE40041DAEF70E1FE7F80FD7B017A0179971292
:100CF4000B3290042C74FFF0A3742CF0A374FEF058
:100D0400A37403F0A37401F0A3742CF07BFF7A2C7A
:100D140079EC123A16EF7BFF60067A2D7901800494
:100D24007A2D79267F01123E387FB87E0B124AF263
:100D34007BFF7A2D794E7F02123E3890000AE070D4
:100D440002A3E07003020E24E490000AF0A3F0FB77
:100D54007A00790F1244E27BFF7A2D796090043790
:100D6400E511F0A3E510F0A3E50FF0900000E0908A
:100D7400043AF090021BE090043BF07F01123E38ED
:100D8400900428E004F07006900427E004F0900436
:100D940027E0FAA3E0FB7C007D05FFAE02120757B3
:100DA400ED4C7004C2928002D2927C0E7D10AF038F
:100DB400AE02120757ED4C700B7BFF7A2D794E7FF4
:100DC40002123E3890000CE0B5110CE5106401707D
:100DD40006E50F7002C200900000E06511703590C6
:100DE400021BE0FFE510C39F402A20002290042349
:100DF4007401F0C2A4FF7E00124AF230B20D7F14D7
:100E04007E00124AF230B20300D200D2A48005E47C
:100E1400900423F0900423E06004B2B78002C2B7C8
:100E2400900001E0D39400748094805003020FBDBD
:100E3400E014F07BFF7A2D79847F01123E38900410
:100E4400367401F0A37401F0A37417F0900004E069
:100E5400FBA3E0FAA3E0F91241DA7B017A017917E6
:100E640012000ED3EF9400EE94005003020FAE90E4
:100E74000117E0B44110A3E0B4540B7B017A01796B
:100E8400177F02020FAB90042C74FFF0A3742DF0B3
:100E9400A37494F0A3E4F0A37408F07B017A0179BD
:100EA4001712398FEF3395E04F6003020FAE7B01C9
:100EB4007A0179177D23124B11900217EEF0A3EFFC
:100EC400F0F47002EEF47003020FAE900217E0FE2D
:100ED400A3E0FF2418F58274013EF583E090042119
:100EE400F074192FF58274013EF583E0900422F02A
:100EF4007B017A047921122FE9900000EFF090022F
:100F040017E0FEA3E0FF241BF58274013EF583E0A5
:100F1400900421F0741C2FF58274013EF583E09057
:100F24000422F07B017A047921122FE990021BEF4D
:100F3400F0900000E0900421F0A3EFF07B017A042C
:100F4400792190042EE4F0A37402F0E4FFFE122051
:100F54003A7F327E00124AF2E4900421F0A3F07B3F
:100F6400017A04792190042EF0A37402F0E4FFFEC8
:100F7400123E9E900000E0FF900421E0FEB5071FA2
:100F840090021BE0FF900422E0FDB507127BFF7A7C
:100F94002D799D900437EEF0A3EDF07F0180087B5E
:100FA400FF7A2D79BD7F01123E387E007F807D005F
:100FB4007B017A017917120B3290000DE0D3940073
:100FC400748094805003020D3FE014F09004367452
:100FD40001F0A37401F0A37497F0900007E0FBA361
:100FE400E0FAA3E0F91241DA7B017A0179977F01F3
:100FF40012479F90043674FFF0A3742DF074D0123E
:10100400480CEF70030211867BFF7A2D79DE7F0195
:10101400123E387B017A0179977F01123E387B01B9
:101024007A01799712000E90041FEEF0A3EFF0906E
:10103400041FE0FEA3E0FF248EF58274013EF583D5
:10104400E0900421F0748F2FF58274013EF583E063
:10105400900422F07B017A047921122FE98F089001
:10106400041FE0FEA3E0FF248BF58274013EF583A8
:10107400E0900421F0748C2FF58274013EF583E036
:10108400900422F07B017A047921122FE98F0990D0
:10109400041FE0FEA3E0FF2488F58274013EF5837B
:1010A400E0900421F074892FF58274013EF583E009
:1010B400900422F07B017A047921122FE98F0A909F
:1010C400041FE0FEA3E0FF2493F58274013EF58340
:1010D400E0900421F074942FF58274013EF583E0CE
:1010E400900422F07B017A047921122FE98F0E906B
:1010F400041FE0FEA3E0FF2491F58274013EF58312
:10110400E0900421F074922FF58274013EF583E09F
:10111400900422F07B017A047921122FE9900426AD
:10112400EFF0750B01750C01750D01E075F064A409
:101134007C00250EFFEC35F0FE900424F0A3EFF0C4
:101144007BFF7A2D79E4900437EEF0A3EFF07F0172
:10115400123E38C3900425E094E5900424E09407FB
:101164004020E508601CE5096018E50A60147B006E
:101174007A00790812422E7BFF7A2D79EF7F0112D3
:101184003E387E007F807D007B017A017997120BC7
:0411940032020D3FD7
:10494400900219E599F0900004E0FBA3E0FAA3E0DB
:10495400F9900219E0FD123F04900219E0B40A062E
:07496400900001E004F022C5
:10496B0090021AE59BF0900007E0FBA3E0FAA3E0AE
:10497B00F990021AE0FD123F0490021AE0B40A0605
:07498B0090000DE004F02292
:092A6700070800010A040105142E
:034D61000000222D
:104A0500E4FFFEEEC39408748094805017C2A71289
:104A15004D61EFC313FF30A6034480FFD2A7124DAB
:044A2500610E80DFBF
:014A2900226A
:0F47D600C2A5124D61C2A7124D61D2A5124D614D
:1047E500E4FEEEFD3395E0FCC3ED9408EC648094A3
:1047F500805013C2A7124D61EFC313FF92A6D2A733
:06480500124D610E80DC83
:01480B00228A
:0A4D1F001247D6124A05D2A7C2A51A
:014D29002267
:0F4CAE00AB051247D6AF031247E5D2A7C2A52226
:0B422E00900429EBF0A3EAF0A3E9F0F4
:10423900A37480F0A37407F0E4FD7F8E124CAE9056
:10424900042DE0FF14F0EF6027900429E0FBA3E4BC
:1042590075F0011207E2A9F0FA1206CBFF124C3AE7
:10426900AD0790042CE0FF124CAEE02402F080CFA1
:074279007D807F8E024CAE38
:024BD600A9072D
:104BD800E4FEE9C4540FFF7C007D0A120745E9543E
:064BE8000F2FFFEC3EFE62
:014BEE0022A4
:104C3A00E4EF75F00A84C454F0FEEF75F00A84EECE
:054C4A0045F0FF7E00B3
:014C4F002242
:0B44E200900429EBF0A3EAF0A3E9F03E
:1044ED00A37481F0A37407F090042DE0FF14F0EF96
:1044FD00602890042CE0FF124D1F124BD69004291A
:10450D00E0FBA3E475F0011207E2A9F0FAEF120740
:0A451D001190042CE02402F080CE7F
:014527002271
:104AB200C2A5C2A7E4FD7F8E124CAEE4FD7F801238
:104AC2004CAE7DA67F90124CAE7D807F8E024CAEA6
:1046EF00900429EBF0A3EAF0A3E9F07E007F807D30
:1046FF0000900429E0FBA3E0FAA3E0F9120B32903B
:10470F000429E0FBA3E0FAA3E0F9900082E4F5F0BE
:0C471F00120830900080E4F5F002083031
:103F0400900522EDF090051FEBF0A3EAF0A3E9F091
:103F14001246B2EF6401604A900522E0FF90051F4B
:103F2400E0FBA3E0FAA3E0F99000821207F8F5821F
:103F340085F083EF1207239000821207F82401FF13
:103F4400E435F0FE7C007D801207AC90051FE0FB99
:103F5400A3E0FAA3E0F9900082EC8DF01208307F20
:053F640001227F002294
:1046B200900523EBF0A3EAF0A3E9F0900523E0FBD9
:1046C200A3E0FAA3E0F99000821207F82401FFE4C4
:1046D20035F0FE7C007D801207AC9000801207F856
:0D46E200B50507ECB5F0037F01227F002233
:104B4E009000821207F8FFAEF09000801207F8B5C1
:0D4B5E000708E5F0B506037F01227F002265
:1035FF0090043E7401F0A37404F0A37439F09004A6
:09360F0033E0FBA3E0FAA3E0F9AB
:1036180090043BEBF0A3EAF0A3E9F090043BE0FB55
:10362800A3E0FAA3E0F9124B4EEF6401606E900438
:103638003BE0FBA3E0FAA3E0F99000801207F8F55D
:103648008285F0831206E4FF90043EE0FBA3E0FAD3
:10365800A3E0F9EF12071190043BE0FBA3E0FAA303
:10366800E0F99000801207F8F58285F083E41207EC
:10367800239000801207F82401FFE435F0FE7C0057
:103688007D801207AC90043BE0FBA3E0FAA3E0F9CD
:0F369800900080EC8DF01208307F01227F00221D
:0B41DA00900433EBF0A3EAF0A3E9F03F
:1041E500E490043AF0124B4EEF60037F0022123543
:1041F500FFEF640170308010900439E0640A602399
:104205001235FFEF6401701B900439E0FF9004360E
:10421500E0FBA3E475F0011207E2A9F0FAEF12073B
:084225001180D57F01227F000A
:01422D00226E
:102A89004543424D205625752E25752E2575206FF7
:102A99006E2025730053544338410025754B00259A
:102AA900303275005334413132000D0A4368656391
:102AB9006B696E67204D4355204944002E004572CD
:102AC900726F720D0A506C65617365206368656386
:102AD9006B207468652073657474696E67206F660E
:102AE90020746865204D4355206D6F64656C0D0A2F
:102AF900004F4B0D0A4944202020203A002530324E
:102B090058000D0A004441544120203A3132380915
:102B1900427974650D0A004944415441203A3132E1
:102B29003809427974650D0A005844415441203AE4
:102B3900257509427974650D0A00464C41534820B0
:102B49003A256C7509427974650D0A00454550525C
:102B59004F4D3A257509427974650D0A0053595349
:102B6900434C4B3A256C7509487A0D0A004C534978
:102B79002020203A257509487A0D0A004247562037
:102B890020203A2575096D560D0A00454E444941E4
:102B99004E3A0062696709656E6469616E0D0A00E3
:102BA9006C6974746C6509656E6469616E0D0A00FF
:072A70004405810000000095
:104AF200EF4E601A900579E0FCA3E0FDED1D700118
:0E4B02001C144C70F7EF1F70011E144E70E66D
:014B10002282
:0A4D2A00EF1FAC0670011E4C70F67E
:014D3400225C
:1049B900900579E0FCA3E0FD120A1CE47B83FAF977
:1049C900F812085D90057D12099990057DE0C313E1
:0649D900FEA3E013FF2223
:10486C0090057CE06599600AE599F0E490057BF091
:10487C00800690057BE004F090057BE0C394E9741E
:0C488C0080948040060075C76000002288
:1024470090042F7412F0A37434F0900434E4F0A3D2
:102457007403F0A3E4F0A304F0A3E4F0A37402F080
:10246700A374FFF0A3742AF0A3749EF07BFF7A2A6B
:102477007989123C9B7BFF7A2A79A4900434E4F093
:10248700A37408F0123C9B7BFF7A2A79A890043446
:10249700E4F0A37440F0123C9B7BFF7A2A79AD12DB
:1024A7003C9BE490042EF07BFF7A2A79B3123C9B85
:1024B700E490042DF090042DE0C394077480948079
:1024C70050297BFF7A2A79C5123C9B90042DE0FFA7
:1024D70090FDF993FE74F12FF8E6B5060690042EE9
:1024E700E004F090042DE004F080CA90042EE0642C
:1024F7000760097BFF7A2A79C70225F57BFF7A2ACD
:1025070079FA123C9BE490042DF090042DE0FFC370
:10251700940774809480501F7BFF7A2B7906EF9085
:10252700FDF993FF900434E4F0A3EFF0123C9B9085
:10253700042DE004F080D37BFF7A2B790B123C9BB0
:102547007BFF7A2B790E123C9B7BFF7A2B7920122B
:102557003C9B7BFF7A2B79329004347420F0A3E400
:10256700F0123C9B7BFF7A2B79439004341209A528
:1025770000010000123C9B7BFF7A2B7955900434B5
:102587007402F0A3E4F0123C9B7BFF7A2B796690F0
:102597000581E0FCA3E0FDA3E0FEA3E0FF90043487
:1025A700120999123C9B7A2B797678F8123C8D7A2E
:1025B7002B798578EF123C8D7BFF7A2B7994123C2F
:1025C7009B90042FE0FF3395E0FEEF64124E7009F5
:1025D7007BFF7A2B799C123C9B90042FE0FF33956D
:1025E700E0FEEF64344E70097BFF7A2B79A9123C29
:0125F7009B48
:0125F80022C0
:0E3C8D007BFFE6FF08E6900434CFF0A3EFF0D3
:0B3C9B00900431EBF0A3EAF0A3E9F085
:103CA60090049C7401F0A37404F0A37434F090049F
:103CB60031E0F9A3E0FAA3E09004E2C9F0A3EAF048
:103CC600A3E9F090049CE0F9A3E0FAA3E09004E5F0
:103CD600C9F0A3EAF0A3E9F07B017A04795C124407
:103CE6004F90049CE4F0A3F0A3F07B017A04795C86
:053CF6007F0102479F61
:10349C00EF14601614602C14604D14606C147003DF
:1034AC000235302405600302355390FE02E0547E51
:1034BC004480F0E030E0F390FE00E054FCF090FE2D
:1034CC0003807A90FE04E0547E4480F0E030E0F318
:1034DC0090FE00E054FC4403F090FE02E4F090FEF9
:1034EC0008F090FE03F02290FE08E0547E4480F039
:1034FC00E030E0F390FE00E054FC4402F090FE0457
:10350C00E4F090FE02F0A3F02290FE03E0543E445F
:10351C0080F0E030E0F390FE00E054FC4401F090C9
:10352C00FE02801990FE03E0543E44C0F0E030E00F
:10353C00F390FE00E054FC4401F090FE02E4F090A5
:08354C00FE08F090FE04F022DD
:0C4D0700EF90FE01700304F022EFF02298
:101B500043BA80AF9FE4FCFDFEC004A905AA06AB12
:101B60000778FBE6FFD000C3EF9BFFEE9AFEED99EE
:101B7000FDEC98FCE47BF07AD2F9F812085DC3E43E
:101B80009FFF74369EFE746E9DFD74019CFC900454
:101B900029120999900429E0FCA3E0FDA3E0FEA32B
:101BA000E0FFC00790FE01E0FBE4FAF9F8D007126D
:101BB00008E89004291209997FC07EF67D577C00C1
:101BC000900429E0F8A3E0F9A3E0FAA3E0FBC31234
:101BD0000988500D9005811209A500546000021D6E
:101BE0009E7FC07E267D827C00900429E0F8A3E0E1
:101BF000F9A3E0FAA3E0FBC3120988500D90058118
:101C00001209A5005B8D80021D9E7F807EED7DAF59
:101C10007C00900429E0F8A3E0F9A3E0FAA3E0FB3C
:101C2000C3120988500D9005811209A500A8C000B3
:101C3000021D9E7F807E2D7DE87C00900429E0F8C7
:101C4000A3E0F9A3E0FAA3E0FBC3120988500D90CA
:101C500005811209A500B71B00021D9E7F807E36FC
:101C60007D257C01900429E0F8A3E0F9A3E0FAA324
:101C7000E0FBC3120988500D9005811209A50119D6
:101C80004000021D9E7F807E567D417C019004298C
:101C9000E0F8A3E0F9A3E0FAA3E0FBC3120988503F
:101CA0000D9005811209A501312D00021D9E7F00B6
:101CB0007EDB7D5F7C01900429E0F8A3E0F9A3E0DE
:101CC000FAA3E0FBC3120988500D9005811209A503
:101CD00001518000021D9E7F607E197D857C0190F0
:101CE0000429E0F8A3E0F9A3E0FAA3E0FBC312099A
:101CF00088500D9005811209A5016E3600021D9EC7
:101D00007F207EE07DB27C01900429E0F8A3E0F919
:101D1000A3E0FAA3E0FBC3120988500C90058112DE
:101D200009A5019BFCC080767FE07EA67DE07C015A
:101D3000900429E0F8A3E0F9A3E0FAA3E0FBC312C2
:101D40000988500C9005811209A501C9C380804EF5
:101D50007F607E2B7DFF7C01900429E0F8A3E0F9F1
:101D6000A3E0FAA3E0FBC3120988500C900581128E
:101D700009A501FA400080267F607E2B7DFF7C0153
:101D8000900429E0F8A3E0F9A3E0FAA3E0FBC31272
:101D90000988500A9005811209A502160EC0E47B3D
:101DA000107A27F9F8900581E0FCA3E0FDA3E0FE9E
:101DB000A3E0FF1208E8900579EEF0A3EFF0E490BD
:101DC000057CF090057BF0124030D2AF7FF47E01AD
:061DD000124AF202244752
:080003000102040810204080F6
:10318F00EF64887003023254EF54F0F51BEF540FC5
:10319F00FE90000393F51CEED39407748094804047
:1031AF0003023254ED604DE51B24F0602124F060E2
:1031BF002224F0602324F0602424F0602524F060A2
:1031CF002624F060272470707C90FE10802190FEE2
:1031DF0011801C90FE12801790FE13801290FE1427
:1031EF00800D90FE15800890FE16800390FE17E06C
:1031FF00451CF022E51B24F0602124F0602224F00E
:10320F00602324F0602424F0602524F0602624F04D
:10321F0060272470702F90FE10802190FE11801C6B
:10322F0090FE12801790FE13801290FE14800D9066
:10323F00FE15800890FE16800390FE17E0FFE51C38
:05324F00F4FEEF5EF04B
:013254002257
:101DD600EF64887003022039EF54F0F51BEF540FBF
:101DE600FE90000393F51CEED39407748094804014
:101DF60003022039E51B24F0602424F0602524F03A
:101E0600602624F0602724F0602824F0602924F05E
:101E1600602A24706003022039E4F51B8021751BBB
:101E260001801C751B028017751B038012751B042D
:101E3600800D751B058008751B068003751B07ED55
:101E4600FFD39403748094804003022039E51B700D
:101E560037EF7007E51CF452935294ED6401700954
:101E6600E51C4293E51CF45294EDFF7E006402707B
:101E760008E51C4293E51C4294EF64034E7009E5A5
:101E86001CF45293E51C4294E51B64017037EDFF88
:101E96007E007007E51CF452915292EF64014E7079
:101EA60009E51C4291E51CF45292ED64027008E5C6
:101EB6001C4291E51C4292ED64037009E51CF45244
:101EC60091E51C4292E51B64027037EDFF7E0070BF
:101ED60007E51CF452955296EF64014E7009E51C15
:101EE6004295E51CF45296ED64027008E51C429595
:101EF600E51C4296ED64037009E51CF45295E51C59
:101F06004296E51B64037037EDFF7E007007E51C03
:101F1600F452B152B2EF64014E7009E51C42B1E5CC
:101F26001CF452B2ED64027008E51C42B1E51C4295
:101F3600B2ED64037009E51CF452B1E51C42B2E54A
:101F46001B64047037EDFF7E007007E51CF452B386
:101F560052B4EF64014E7009E51C42B3E51CF4521D
:101F6600B4ED64027008E51C42B3E51C42B4ED64AE
:101F7600037009E51CF452B3E51C42B4E51B640585
:101F86007037EDFF7E007007E51CF452C952CAEFA8
:101F960064014E7009E51C42C9E51CF452CAED64A1
:101FA600027008E51C42C9E51C42CAED64037009CB
:101FB600E51CF452C9E51C42CAE51B64067037ED00
:101FC600FF7E007007E51CF452CB52CCEF64014E45
:101FD6007009E51C42CBE51CF452CCED6402700896
:101FE600E51C42CBE51C42CCED64037009E51CF40C
:101FF60052CBE51C42CCE51B64077037EDFF7E0033
:102006007007E51CF452E152E2EF64014E7009E5F7
:102016001C42E1E51CF452E2ED64027008E51C4244
:10202600E1E51C42E2ED64037009E51CF452E1E5CA
:032036001C42E267
:012039002284
:10463500EFB408005038904642F828287302465ACD
:1046450002465D024660024663024666024669020C
:10465500466C02466F8D80228D90228DA0228DB0F2
:0F466500228DC0228DC8228DE822AF058FF8224A
:1045F500EFB408005037904602F828287302461A8F
:1046050002461D024620024623024626024629028C
:10461500462C02462FAF8022AF9022AFA022AFB02A
:1046250022AFC022AFC822AFE822AFF8227FFF2217
:10331A00EF648870030233DCEF54F0F51BEF540FAF
:10332A00FE90000393F51CEED394077480948040BA
:10333A00030233DCED604AE51B24F0602124F060CF
:10334A002224F0602324F0602424F0602524F06015
:10335A002624F0602724707079E51C428022E51C3F
:10336A00429022E51C42A022E51C42B022E51C4202
:10337A00C022E51C42C822E51C42E822E51C42F8AC
:10338A0022E51B24F0602224F0602424F060262425
:10339A00F0602824F0602A24F0602C24F0602E24A7
:1033AA0070702FE51CF4528022E51CF4529022E53D
:1033BA001CF452A022E51CF452B022E51CF452C0BF
:1033CA0022E51CF452C822E51CF452E822E51CF45A
:0233DA0052F8A7
:0133DC0022CE
:103BA100EF64887002FF22EF54F0F51BEF540FFE13
:103BB10090000393F51CEED3940774809480400326
:103BC1007F0122E51B24F0602124F0602224F060B3
:103BD1002324F0602424F0602524F0602624F06082
:103BE100272470702685801D802185901D801C856D
:103BF100A01D801785B01D801285C01D800D85C850
:103C01001D800885E81D800385F81DE51D551C6094
:063C1100037F01227F0089
:013C1700228A
:103DD000EF64886062EF54F0F51BEF540FFE900023
:103DE0000393F51CEED39407748094805049E51B2F
:103DF00024F0602124F0602224F0602324F0602469
:103E000024F0602524F0602624F0602724707027B9
:103E1000E51C628022E51C629022E51C62A022E57E
:103E20001C62B022E51C62C022E51C62C822E51CAF
:073E300062E822E51C62F8C4
:013E37002268
:10456E00EFB40800503E90457BF82828730245931F
:10457E0002459702459B02459F0245A30245A702AD
:10458E0045AB0245AFED628022ED629022ED62A056
:10459E0022ED62B022ED62C022ED62C822ED62E829
:0545AE0022ED62F8227D
:10374A00A907EB6048E9B4080040030237E3903761
:10375A005FF828287302377702377B02377F0237F0
:10376A008302378702378B02378F023793ED428005
:10377A0022ED429022ED42A022ED42B022ED42C05B
:10378A0022ED42C822ED42E822ED42F822E9B408CD
:10379A000050469037A4F82828730237BC0237C174
:1037AA000237C60237CB0237D00237D50237DA02E0
:1037BA0037DFEDF4528022EDF4529022EDF452A05C
:1037CA0022EDF452B022EDF452C022EDF452C82296
:0A37DA00EDF452E822EDF452F8225B
:10408700EFB409005045904094F82828730240AFD8
:104097000240B30240B70240BB0240BF0240C30226
:1040A70040C70240CB0240CFAE80801FAE90801B3E
:1040B700AEA08017AEB08013AEC0800FAEC8800B25
:1040C700AEE88007AEF880037F0122EE5D60037FD4
:0440D70001227F0043
:0140DB0022C2
:0C4D13003031363716174344101140426F
:1040300075985053873F538EDEE4FD7F01123A9C02
:1040400090042E1209A50001C2007F0112437043A3
:104050008E4053890FC2ABC28FD28EC20BD2AC75C9
:104060009A10E4FD7F02123A9C90042E1209A500DA
:1040700001C2007F02124370438E0453AFFB438E94
:0740800010C20C43AF012246
:103A9C0090042DEDF0EF24FE603F04707690042D21
:103AAC00E0FF54C0FEE5A2543F4EF5A2EFC4131341
:103ABC00540325E02413F582E4344DF583E493FF9D
:103ACC00E4FD121DD690042DE0C41313540325E01D
:103ADC002414F582E4344D803090042DE0FF540121
:103AEC00FEE5BA54FE4EF5BAEF25E0241BF582E450
:103AFC00344DF583E493FFE4FD121DD690042DE0C4
:103B0C0025E0241CF582E4344DF583E493FF7D031A
:043B1C00121DD6227E
:0543700090042DEFF0A8
:10437500E47B04FAF9F8900581E0FCA3E0FDA3E0F5
:10438500FEA3E0FF1208E890042EE0F8A3E0F9A3ED
:10439500E0FAA3E0FB1208E8C3E49FFFE49EFE9069
:1043A500042DE024FE600904700B8F8BEEF58D2241
:0543B5008FD7EEF5D6E4
:0143BA0022E0
:104B8700EF24FE600C0470128D99D20B300B0B8052
:0B4B9700FBAF058F9BD20C200CFD2211
:10476600EF24FE6019047030EB6006D29BD29B806A
:1047760004C29BC29B8D99D20B300B1C80FBEB6055
:1047860008439A08439A088006539AF7539AF7AF54
:09479600058F9BD20C200CFD22C2
:10479F009004E2EBF0A3EAF0A3E9F0AE079004E295
:1047AF00E0FBA3E0FAA3E0F91206CB6019AF069085
:1047BF0004E2A3E475F0011207E2A9F0FA1206CBA6
:0747CF00FD124B8780D72289
:0E3E3800900433EFF0A3EBF0A3EAF0A3E9F05F
:103E46009004DF7401F0A37404F0A37437F09004B7
:103E560034E0F9A3E0FAA3E09004E2C9F0A3EAF0A3
:103E6600A3E9F09004DFE0F9A3E0FAA3E09004E50B
:103E7600C9F0A3EAF0A3E9F07B017A04795F124462
:103E86004F9004DFE4F0A3F0A3F0900433E0FF7B4F
:083E9600017A04795F02479FE5
:030023000243BBDA
:1043BB00C0E0C0F0C083C082C0D075D000C000C0C8
:1043CB0001C002C003C004C005C006C00730980876
:1043DB00C29812494412486C309904C299C20BD04E
:1043EB0007D006D005D004D003D002D001D000D026
:0A43FB00D0D082D083D0F0D0E032A1
:0300430002432352
:10432300C0E0C0F0C083C082C0D075D000C000C060
:1043330001C002C003C004C005C006C007E59A302F
:10434300E006539AFE12496BE59A30E105539AFD54
:10435300C20CD007D006D005D004D003D002D001C0
:0D436300D000D0D0D082D083D0F0D0E03296
:01003A0022A3
:01004200229B
:014D6A002226
:014D6B002225
:084D4900EF7004C28DD28C2230
:064D5100EF7002C28C228B
:104A2A009005DBEFF0ED600AE07017438F017D031C
:104A3A00800B9005DBE0700A538FFEE4FD7F351290
:034A4A001DD62254
:0F4CBD00538E7F5389F0E4F58A758C48D2A92273
:0B279600900429EFF0A3ECF0A3EDF09D
:1027A100900581E0FCA3E0FDA3E0FEA3E0FFE412BD
:1027B100026C7B007A24797478491201CFA804A9AC
:1027C10005AA06AB077F007EFF7D7F7C471201CF04
:1027D1001202AA90042EEEF0A3EFF07F007E1B7D83
:1027E100B77C00900581E0F8A3E0F9A3E0FAA3E04B
:1027F100FBD3120988500A74FF900430F0A3F080D3
:102801003B900581E0FCA3E0FDA3E0FEA3E0FFE433
:1028110012026C7B007A1B7937784B1201CFA80426
:10282100A905AA06AB077F007EFF7D7F7C471201C9
:10283100CF1202AA900430EEF0A3EFF090042EE044
:10284100FEA3E0FF90042AE0FCA3E0FDD39FEC9EF1
:102851005010ED9400EC94004008A3E4F0A304F0C0
:10286100802C900430E0FEA3E0FFD3ED9FEC9E406E
:102871000302292F90042BE0940090042AE0940095
:10288100500302292F90042CE4F0A3740CF090045F
:1028910029E0600302292F90042CE07004A3E06476
:1028A100017017438E80900581E0FCA3E0FDA3E059
:1028B100FEA3E0FFE412026C802B90042CE0700474
:1028C100A3E0640C7059538E7F900581E0FCA3E076
:1028D100FDA3E0FEA3E0FFE412026CE4FBFA794001
:1028E10078411201CF7B007A24797478491201CFA3
:1028F100C004C005C006C00790042AE0FCA3E0FDA7
:10290100E4120271D003D002D001D0001200C6122D
:1029110002AAC3E49FFFE49E90042CF0A3EFF09081
:0E292100042CE0FEA3E0F58AEEF58C5389FB52
:01292F002285
:094D4000EF70058D8AECF58C2260
:104C9D00E4FDFCEF7006AF8CEFAD8AFCAE04AF0502
:014CAD0022E4
:10119800E47B07FAF9F8900581E0FCA3E0FDA3E001
:1011A800FEA3E0FF1208E8900429120999E47B885D
:1011B8007A13F9F8900581E0FCA3E0FDA3E0FEA313
:1011C800E0FF1208E890042D1209997F0A7E8B7DB2
:1011D800027C00900429E0F8A3E0F9A3E0FAA3E078
:1011E800FBC3120988504D7F1D7E637D017C0090F2
:1011F8000429E0F8A3A3A3E01209884037E47F6F2D
:10120800FEFDFC90042DE0F8A3E0F9A3E0FAA3E0CA
:10121800FBD3120988401DE47FFAFEFDFC90042DE3
:10122800E0F8A3A3A3E0120988500990021C7407F0
:10123800F00216B8E47B0EFAF9F8900581E0FCA3F9
:10124800E0FDA3E0FEA3E0FF1208E89004291209DC
:1012580099E47B107A27F9F8900581E0FCA3E0FD7A
:10126800A3E0FEA3E0FF1208E890042D1209997F7D
:101278000A7E8B7D027C00900429E0F8A3E0F9A3A4
:10128800E0FAA3E0FBC3120988504D7F1D7E637D01
:10129800017C00900429E0F8A3A3A3E01209884088
:1012A80037E47F6FFEFDFC90042DE0F8A3E0F9A37E
:1012B800E0FAA3E0FBD3120988401DE47FFAFEFDA3
:1012C800FC90042DE0F8A3A3A3E01209885009902C
:1012D800021C7406F00216B8E47B15FAF9F89005BA
:1012E80081E0FCA3E0FDA3E0FEA3E0FF1208E89084
:1012F8000429120999E47B987A3AF9F8900581E073
:10130800FCA3E0FDA3E0FEA3E0FF1208E890042D93
:101318001209997F0A7E8B7D027C00900429E0F8EF
:10132800A3E0F9A3E0FAA3E0FBC3120988504D7FBC
:101338001D7E637D017C00900429E0F8A3A3A3E04F
:101348001209884037E47F6FFEFDFC90042DE0F819
:10135800A3E0F9A3E0FAA3E0FBD3120988401DE457
:101368007FFAFEFDFC90042DE0F8A3A3A3E0120988
:1013780088500990021C7405F00216B8E47B2AFA1A
:10138800F9F8900581E0FCA3E0FDA3E0FEA3E0FFEF
:101398001208E8900429120999E47B307A75F9F863
:1013A800900581E0FCA3E0FDA3E0FEA3E0FF1208A6
:1013B800E890042D1209997F0A7E8B7D027C0090AB
:1013C8000429E0F8A3E0F9A3E0FAA3E0FBC31209BB
:1013D80088504D7F1D7E637D017C00900429E0F8D4
:1013E800A3A3A3E01209884037E47F6FFEFDFC90B9
:1013F800042DE0F8A3E0F9A3E0FAA3E0FBD3120977
:1014080088401DE47FFAFEFDFC90042DE0F8A3A3BC
:10141800A3E0120988500990021C7404F00216B85F
:10142800E47B54FAF9F8900581E0FCA3E0FDA3E021
:10143800FEA3E0FF1208E8900429120999E47B60F2
:101448007AEAF9F8900581E0FCA3E0FDA3E0FEA3A9
:10145800E0FF1208E890042D1209997F0A7E8B7D1F
:10146800027C00900429E0F8A3E0F9A3E0FAA3E0E5
:10147800FBC3120988504D7F1D7E637D017C00905F
:101488000429E0F8A3A3A3E01209884037E47F6F9A
:10149800FEFDFC90042DE0F8A3E0F9A3E0FAA3E038
:1014A800FBD3120988401DE47FFAFEFDFC90042D51
:1014B800E0F8A3A3A3E0120988500990021C740362
:1014C800F00216B8E47B8CFAF9F8900581E0FCA3E9
:1014D800E0FDA3E0FEA3E0FF1208E890042912094A
:1014E800997BA07A8679017800900581E0FCA3E0D9
:1014F800FDA3E0FEA3E0FF1208E890042D1209996D
:101508007F0A7E8B7D027C00900429E0F8A3E0F935
:10151800A3E0FAA3E0FBC3120988504D7F1D7E6348
:101528007D017C00900429E0F8A3A3A3E0120988B8
:101538004037E47F6FFEFDFC90042DE0F8A3E0F94E
:10154800A3E0FAA3E0FBD3120988401DE47FFAFE6A
:10155800FDFC90042DE0F8A3A3A3E012098850092C
:1015680090021C7402F00216B8E47BA8FAF9F8900D
:101578000581E0FCA3E0FDA3E0FEA3E0FF1208E87C
:101588009004291209997BC07AD4790178009005D2
:1015980081E0FCA3E0FDA3E0FEA3E0FF1208E890D1
:1015A800042D1209997F0A7E8B7D027C0090042904
:1015B800E0F8A3E0F9A3E0FAA3E0FBC3120988501E
:1015C8004D7F1D7E637D017C00900429E0F8A3A374
:1015D800A3E01209884037E47F6FFEFDFC90042DDC
:1015E800E0F8A3E0F9A3E0FAA3E0FBD312098840EE
:1015F8001DE47FFAFEFDFC90042DE0F8A3A3A3E010
:10160800120988500990021C7401F00216B8E47B94
:101618002D7A01F9F8900581E0FCA3E0FDA3E0FE36
:10162800A3E0FF1208E89004291209997BD87A47A9
:1016380079037800900581E0FCA3E0FDA3E0FEA318
:10164800E0FF1208E890042D1209997F0A7E8B7D2D
:10165800027C00900429E0F8A3E0F9A3E0FAA3E0F3
:10166800FBC312098850497F1D7E637D017C009071
:101678000429E0F8A3A3A3E01209884033E47F6FAC
:10168800FEFDFC90042DE0F8A3E0F9A3E0FAA3E046
:10169800FBD31209884019E47FFAFEFDFC90042D63
:1016A800E0F8A3A3A3E01209885005E490021CF017
:1016B8009004291209A50000000090042D1209A524
:0416C800000000001E
:0116CC0022FB
:0E4CF900E4F5C7F5C5F5C675C3FF75C4FF2207
:084A4D00900434E0FEA3E0FF39
:104A550090021CE04480F5C775C5038FC4EEF5C30D
:0A4A650075C65A75C6A500024CF98B
:1046740090043CE0FCA3E0FD900435E02DFF9004A1
:1046840034E03CFE741D2DF58274023CF583E0FD9C
:1046940090021CE04480F5C775C5028FC4EEF5C3D3
:0E46A400AF058FC275C65A75C6A500024CF947
:0C491C00900435E02FFF900434E03EFED4
:1049280090021CE04480F5C775C5018FC4EEF5C33D
:0C49380075C65A75C6A500AFC2024CF946
:103E9E00900429EEF0A3EFF0A3EBF0A3EAF0A3E970
:013EAE00F023
:103EAF00E4900430F0A3F090042EE0FEA3E0FFA313
:103EBF00E0FCA3E0FDC39FEC9E503990042AE02D57
:103ECF00FF900429E03CFE12492890042BE0FBA34D
:103EDF00E0FAA3E0F9900430E0FCA3E0F5828C83D4
:103EEF00EF120723900431E004F070BB900430E030
:043EFF0004F080B398
:013F0300229B
:0B203A0090042BEBF0A3EAF0A3E9F008
:10204500E4900438F0A3F0A3EEF0A3EFF090042E93
:10205500E0FFA3E0A3CFF0A3EFF090043AE0FCA3E8
:10206500E0FDECC313FB7A007F0025E0FE9004340D
:10207500F0A3EFF02400FFEE3402FEC3EF9DFFEE68
:102085009CFE900432F0A3EFF0D3900431E09F90D2
:102095000430E09E400302217CE490043CF0A3F070
:1020A50090043CE0FEA3E0FFC3EE940250251249E4
:1020B5001C90043CE0FCA3E0241DF58274023CF571
:1020C50083EFF090043DE004F070D590043CE0040B
:1020D500F080CD124A4D900434E0FEA3E0FFC3909A
:1020E500043BE09FFF90043AE09E900436F0A3EF96
:1020F500F0E490043CF0A3F0900430E0FEA3E0FF90
:1021050090043CE0FCA3E0FDC39FEC9E5047900487
:1021150039E02DFF900438E03CFE90042BE0FBA352
:10212500E0FAA3E0F98F828E831206E4FF9004376C
:10213500E02DFD900436E03CFC741D2DF582740203
:102145003CF583EFF090043DE004F070AB90043C67
:10215500E004F080A3E490043CF0A3F012467490F0
:10216500043DE004F0700690043CE004F0C39004E4
:102175003CE0940240E622E490043CF0A3F0900495
:102185003CE0FEA3E0FFC3EE9402502512491C90EB
:10219500043CE0FCA3E0241DF58274023CF583EFCA
:1021A500F090043DE004F070D590043CE004F0802C
:1021B500CD124A4D900434E0FEA3E0FFC390043BEA
:1021C500E09FFF90043AE09E900436F0A3EFF0E420
:1021D50090043CF0A3F0900432E0FEA3E0FF9004ED
:1021E5003CE0FCA3E0FDC39FEC9E5047900439E022
:1021F5002DFF900438E03CFE90042BE0FBA3E0FAB1
:10220500A3E0F98F828E831206E4FF900437E02D58
:10221500FD900436E03CFC741D2DF58274023CF5FE
:1022250083EFF090043DE004F070AB90043CE004D3
:10223500F080A3E490043CF0A3F012467490043DB2
:10224500E004F0700690043CE004F0C390043CE028
:10225500940240E6900432E0FEA3E0FF90043BE0E8
:102265002FF090043AE03EF0C3900431E09FF090E7
:102275000430E09EF0900439E02FF0900438E03E01
:04228500F002205FE4
:103C18009005DCEFF024FC602024FC603024FC607C
:103C280040240C70517D037F13121DD6E4FD7F14D0
:103C3800121DD67D037F15803A7D037F23121DD682
:103C4800E4FD7F24121DD67D037F2580267D037F1A
:103C580075121DD6E4FD7F76121DD67D037F778011
:103C6800127D037F34121DD6E4FD7F33121DD67DED
:103C7800037F32121DD69005DCE0540CFFE5A254F8
:053C8800F34FF5A2223C
:0F4CCC00E4FF123C1875CE5075CDC043CE402288
:104B6B007DF47C018FCFE5CD30E704ED4C6007ED94
:0B4B7B001D70F31C80F043CDC0AFCFD5
:014B8600220C
:0B2A7700012A004105D6004105D500F2
:1037E4009000051206E4FF9005D6E06F70030238DE
:1037F400781206CBFEC4540F7826F6EE540FFEF86A
:103804007401088002C333D8FC7827F690000112B3
:1038140006E4FEC4540F7823F6EE540FFEF8740148
:10382400088002C333D8FC7825F69000021206E41F
:10383400FEC4540F7822F6EE540FFEF8740108808B
:1038440002C333D8FC7824F69000031206E4FEC4C5
:10385400540F7828F6EE540FFEF87401088002C362
:1038640033D8FC7829F69000041206E4782AF690FE
:0538740005D6EFF02273
:102F09009005A2EBF0A3EAF0A3E9F0A3EDF0900598
:102F1900A2E0FBA3E0FAA3E0F9ED1207119005A6E0
:102F2900E0FF9005A2E0FBA3E0FAA3E0F99000011D
:102F3900EF1207239005A7E09000021207239005DE
:102F4900A8E09000031207239005A9E0900004125D
:102F590007239005A5E0FF7D03121DD69005A9E082
:102F69009005A530E106E0FF7D018004E0FFE4FD66
:102F790012331A9005A9E030E7149005A6E0FF7D09
:102F890003121DD69005A6E0FF7D0112331A9005A4
:102F9900A9E030E6149005A7E0FFE4FD121DD690E4
:102FA90005A7E0FF7D0112331A9005A9E030E51469
:102FB9009005A8E0FF7D03121DD69005A8E0FF7DCE
:102FC9000112331A9005D5E004FFF09005A2E0FB49
:102FD900A3E0FAA3E0F9900005EF1207230237E412
:100046009005D6E06F6073EDC4540F7826F6ED5434
:100056000FFEF87401088002C333D8FC7827F6EB4C
:10006600C4540F7823F6EB540FFEF874010880028F
:10007600C333D8FC7825F69005ADE0FEC4540F785E
:1000860022F6EE540FFEF87401088002C333D8FC42
:100096007824F69005AEE0FEC4540F7828F6EE54A8
:1000A6000FFEF87401088002C333D8FC7829F69055
:0B00B60005AFE008F69005D6EFF02241
:0D36A7009005B7EDF0A3EBF09005B6EFF045
:1036B4007D03121DD69005BAE09005B630E106E010
:1036C400FF7D018004E0FFE4FD12331A9005BAE0A7
:1036D40030E7149005B7E0FF7D03121DD69005B7BF
:1036E400E0FF7D0112331A9005BAE030E61490052C
:1036F400B8E0FFE4FD121DD69005B8E0FF7D01128D
:10370400331A9005BAE030E5149005B9E0FF7D0363
:10371400121DD69005B9E0FF7D0112331A9005D52C
:10372400E004F0FCFF9005B6E0FDA3E0FBA3E0900D
:1037340005ADF09005B9E09005AEF09005BAE090C3
:0637440005AFF002004693
:052289009005CAEFF012
:10228E00E49005CDF0782AE6782630E109E6FF08DD
:10229E00E6FD7B018007E6FF08E6FDE4FB12374A08
:1022AE00782AE654306430700C7828E6FF08E6FD94
:1022BE00E4FB12374A782AE620E20302237C9005DB
:1022CE00CB7480F0E4A3F09005CCE0C39408748046
:1022DE009480400302242C9005CBE0FF9005CAE0C9
:1022EE005F7823600AE6FF7825E6FD7B018008E62D
:1022FE00FF7825E6FDE4FB12374A7826E6FF08E66E
:10230E00FD12456E782AE630E6225401701E7822C0
:10231E00E6FF7824E6FD124087EF60109005CDE0D1
:10232E00FF9005CBE0FEEF4E9005CDF07826E6FF50
:10233E0008E6FD12456E782AE630E6245401640163
:10234E00701E7822E6FF7824E6FD124087EF6010BB
:10235E009005CDE0FF9005CBE0FEEF4E9005CDF061
:10236E009005CBE0C313F0A3E004F00222D5900554
:10237E00CB7401F0E4A3F09005CCE0C39408748014
:10238E009480400302242C9005CBE0FF9005CAE018
:10239E005F7823600AE6FF7825E6FD7B018008E67C
:1023AE00FF7825E6FDE4FB12374A7826E6FF08E6BD
:1023BE00FD12456E782AE630E6225401701E782210
:1023CE00E6FF7824E6FD124087EF60109005CDE021
:1023DE00FF9005CBE0FEEF4E9005CDF07826E6FFA0
:1023EE0008E6FD12456E782AE630E62454016401B3
:1023FE00701E7822E6FF7824E6FD124087EF60100B
:10240E009005CDE0FF9005CBE0FEEF4E9005CDF0B0
:10241E009005CBE025E0F0A3E004F0022385782AB6
:10242E00E654306430700C7828E6FF08E6FD7B0138
:08243E0012374A9005CDE0FFC2
:012446002273
:103FCD00F0EF543FFFE054C04FF090FE82E4F0FF5D
:103FDD00EF24F0601724F0602224F0602D2430705F
:103FED003643913043923090FE1180094395304312
:103FFD00963090FE12E04430F0801C43E1C043E265
:10400D00C090FE17E044C0F0800D43B10C43B20CDC
:10401D0090FE13E0440CF0EF5430FFE5BA54CF4F4F
:03402D00F5BA22BF
:104AD2009005DDE06F6018EFF090FE80E0547FF00B
:104AE200EF5430FFE5BA54CF4FF5BAE04480F022DC
:10452800EF24F0601724F0602124F0602B24307011
:10453800345391CF5392CF90FE1180095395CF53A6
:1045480096CF90FE12E054CFF02253E13F53E23F62
:1045580090FE17E0543FF02253B1F353B2F390FEAC
:0645680013E054F3F02201
:1040DC00E47B02FAF9F8900581E0FCA3E0FDA3E093
:1040EC00FEA3E0FF1208E87BA07A86790178001223
:1040FC0008E8EF24FCFFEE34FFFEED34FFFDEC345A
:10410C00FFFCE47B02FAF9F81208E8EF543FFF9049
:10411C00FE80E04440123FCDE49005DDF090FE803F
:04412C00E04480F0FB
:01413000226C
:10413100E47B02FAF9F8900581E0FCA3E0FDA3E03D
:10414100FEA3E0FF1208E87BA07A867901780012CD
:1041510008E8EF24FCFFEE34FFFEED34FFFDEC3404
:10416100FFFCE47B02FAF9F81208E8EF543FFF90F4
:10417100FE80E054BF123FCDE49005DDF090FE805B
:04418100E04480F0A6
:014185002217
:0300C300024BA24B
:104BA200C0E0C083C08290FE82E030E606E054BFDF
:0A4BB200F0C20DD082D083D0E032B3
:100026007F0AD20D90FE817481F0300D06AE071F57
:03003600EE70F772
:0100390022A4
:104C50007F0AD20D90FE817486F0300D06AE071FDC
:034C6000EE70F7FC
:014C6300222E
:104BEF007E0A90FE86EFF0D20D90FE817482F03037
:084BFF000D06AF061EEF70F772
:014C0700228A
:104C08007F0AD20D90FE82E4F090FE817485F03028
:084C18000D06AE071FEE70F758
:014C20002271
:104BBC007F0AD20D90FE827401F090FE817485F014
:094BCC00300D06AE071FEE70F774
:014BD50022BD
:104C21007F0AD20D90FE817484F0300D06AE071F0D
:084C3100EE70F790FE87E0FF32
:014C39002258
:104B30007F0AD20D90FE817483F0300D06AE071F00
:0D4B4000EE70F790FE82E05402C31324FFD4
:014B4D002245
:062A8200013000012F00ED
:104405009000021206E4FF782F66603D1206CBFE8F
:10441500C4540F782DF6EE540FFEF874010880028F
:10442500C333D8FC782EF69000011206E4FEC4547E
:104435000F782BF6EE540FFEF87401088002C33393
:0A444500D8FC782CF6782FA6072289
:103905009005BBEBF0A3EAF0A3E9F0A3EDF0900579
:10391500BBE0FBA3E0FAA3E0F9ED1207119005BFA8
:10392500E0FF9005BBE0FBA3E0FAA3E0F9900001FE
:10393500EF1207239005BEE0FF7D02121DD690050C
:10394500BFE0FF7D02121DD69005BEE0FF7D01128E
:10395500318F9005BFE0FF7D0112318F9005BEE0EC
:10396500FF7D0112331A9005BFE0FF7D0112331A66
:10397500783006E6FF9005BBE0FBA3E0FAA3E0F98B
:0A398500900002EF12072302440530
:10472B00782FE66F6034EDC4540F782DF6ED540FEF
:10473B00FEF87401088002C333D8FC782EF6EBC464
:10474B00540F782BF6EB540FFEF87401088002C35C
:0B475B0033D8FC782CF6782FA607223C
:0A4280009005D8EDF09005D7EFF09F
:10428A007D02121DD69005D8E0FF7D02121DD69040
:10429A0005D7E0FF7D0112318F9005D8E0FF7D013F
:1042AA0012318F9005D7E0FF7D0112331A9005D89D
:1042BA00E0FF7D0112331A783006E6FCFF9005D73D
:0842CA00E0FDA3E0FB02472B1D
:1042D200782BE6FF08E6FD7B0112374A782DE6FFD0
:1042E20008E6FD7B0112374A782BE6FF08E6FD124D
:1042F2004087EF70037FFF22782BE6FF08E6FD126E
:10430200456E782BE6FF08E6FD124087EF640170E8
:10431200037FFF22782DE6FF08E6FD12456E7F003F
:014322002278
:10489800782BE6FF08E6FDE4FB12374A782DE6FFA1
:1048A80008E6FDE4FB12374A782DE6FF08E6FD121C
:0C48B800456E782BE6FF08E6FD02456E19
:1048C400782DE6FF08E6FDE4FB12374A782BE6FF75
:1048D40008E6FDE4FB12374A782DE6FF08E6FD12F0
:0C48E400456E782DE6FF08E6FD02456EEB
:1048F000782DE6FF08E6FDE4FB12374A782BE6FF49
:1049000008E6FD7B0112374A782DE6FF08E6FD1226
:0C491000456E782DE6FF08E6FD02456EBE
:10449900782DE6FF08E6FDE4FB12374A782BE6FFA4
:1044A90008E6FD7B0112374A782DE6FF08E6FD1282
:1044B900456E782BE6FF08E6FD124087EF64017828
:1044C9002D700BE6FF08E6FD12456E7FFF22E6FF21
:0944D90008E6FD12456E7F002289
:053B20009005D2EFF05A
:103B25009005D4F0782B30E709E6FF08E6FD7B0128
:103B35008007E6FF08E6FDE4FB12374A782DE6FF2D
:103B450008E6FDE4FB12374AE49005D3F09005D36F
:103B5500E0C394087480948050419005D2E0FF90B2
:103B650005D4E06F30E70A782BE6FF08E6FD12453D
:103B75006E782DE6FF08E6FD12456E9005D2E090C1
:103B850005D4F025E09005D2F0782DE6FF08E6FD96
:0B3B950012456E9005D3E004F080B2F2
:013BA0002202
:103F6900E49005DAF0782BE6FF08E6FD7B011237CD
:103F79004AE49005D9F09005D9E0C3940874809477
:103F890080503BA3E025E0F0782DE6FF08E6FD7BB5
:103F99000112374A782BE6FF08E6FD124087EF64E5
:103FA9000170079005DAE04401F0782DE6FF08E694
:103FB900FDE4FB12374A9005D9E004F080B890057A
:033FC900DAE0FF3C
:013FCC0022D2
:0B3D66009005C0EBF0A3EAF0A3E9F029
:103D7100E49005C4F09005C3F09005C3E0C39480BE
:103D81007480948050431242D29005C3E025E0FF35
:103D9100123B20124499EF70259005C3E025E0FF06
:103DA1009005C0E0FBA3E0FAA3E0F99005C4E0F5BB
:103DB10082758300EF1207239005C4E004F01248D6
:0E3DC100989005C3E004F080B09005C4E0FFC8
:013DCF0022D1
:104A6F0075DE2F78EFE6FC08E6FDE4120271E4FB39
:104A7F00FA797A78441201CF9005CE12099943BC86
:024A8F00802283
:104A9100EF540FFFE5BC54F04FF5BC43BC400000A0
:104AA100E5BC30E5FB53BCDFAFBDEFFEADBEEDFFB6
:014AB10022E2
:1049DF00124A91AD07AC06E41202719005C6E0F8D9
:1049EF00A3E0F9A3E0FAA3E0FB1200C6E4FBFA7917
:0649FF008078450201CFA3
:034D6400D2AD22AB
:034D6700C2AD22B8
:1045B3007F0F124A91EF4E7005FFFEFDFC22AD07FF
:1045C300AC06E4120271C004C005C006C007E4FFD4
:1045D300FE7D807C459005CEE0F8A3E0F9A3E0FAE8
:1045E300A3E0FB1200C6D003D002D001D000120119
:0145F300CFF8
:0145F40022A4
:0F4CDB0075E7C175E63490FEAEE4F043E6802243
:0B4D3500E5E630E0037F01227F002252
:04003E0043E68022F3
:044D5D0053E67F2278
:104C8B00E4F5D8F5E9F5F975D9087F10122DFFD2A7
:024C9B00DE2217
:102DFF009005DEEFF0E0FF5430FEE5A254CF4EF524
:102E0F00A2EF24F0603124F0604F24F0606D243085
:102E1F006003022EADE4FD7F12121DD6E4FD7F1775
:102E2F00121DD6E4FD7F16121DD6E4FD7F15121D6F
:102E3F00D6E4FD7F148064E4FD7F22121DD6E4FDED
:102E4F007F23121DD6E4FD7F24121DD6E4FD7F25BE
:102E5F00121DD6E4FD7F268042E4FD7F74121DD63D
:102E6F00E4FD7F70121DD6E4FD7F71121DD6E4FDC7
:102E7F007F72121DD6E4FD7F738020E4FD7F351233
:102E8F001DD6E4FD7F33121DD6E4FD7F32121DD611
:102E9F00E4FD7F31121DD6E4FD7F30121DD6900563
:102EAF00DEE024F0601C24F060332420704BE4FD3E
:102EBF007F12121DD6E4FD7F11121DD6E4FD7F1087
:102ECF008012E4FD7F34121DD6E4FD7F35121DD62E
:102EDF00E4FD7F36121DD6E4FD7F378019E4FD7FB8
:102EEF0024121DD6E4FD7F25121DD6E4FD7F261288
:0A2EFF001DD6E4FD7F27121DD62228
:10483F00ED14B40700502590485475F003A4C583B8
:10484F0025F0C5837302486A02486A02486A024823
:0C485F006A02486A02486A02486B222282
:01486B00222A
:014D6C002224
:0D25F9009005B1ECF0A3EDF09005B0EFF00F
:10260600E49005B4F09005B5E0FFD394047480948B
:10261600804003022795EF94007480948050030253
:102626002795E024FE60651470030226E314700308
:1026360002273524036003022795C39005B2E09470
:10264600E89005B1E094034004E4FB802E9005B1C8
:10265600E0FEA3E0FBC374E89BFF74039EFEE494D4
:1026660000FDE49400FCE47B40FAF9F812085DE40E
:102676007BE87A03F9F81208E8AB07EB543F9005BC
:10268600B3F0EB20E603022795022730C39005B28C
:10269600E094E89005B1E094034004E4FB802E90BA
:1026A60005B1E0FEA3E0FBC374E89BFF74039EFE46
:1026B600E49400FDE49400FCE47B80FAF9F8120847
:1026C6005DE47BE87A03F9F81208E8AB07EB547F80
:1026D6009005B3F0EB20E703022795804DC39005E4
:1026E600B2E094E89005B1E094034005E4FAFB807B
:1026F600309005B1E0FEA3E0FBC374E89BFF7403D2
:102706009EFEE49400FDE49400FCE4FB7A01F9F8F3
:1027160012085DE47BE87A03F9F81208E8AA06AB2A
:10272600079005B3EBF0EA30E065A37402F022C32C
:102736009005B2E094E89005B1E094034005E4FA10
:10274600FB80309005B1E0FEA3E0FBC374E89BFF7D
:1027560074039EFEE49400FDE49400FCE4FB7A041A
:10276600F9F812085DE47BE87A03F9F81208E8AA9A
:1027760006AB079005B3EBF0EAC4F854F0C8EBC417
:0F278600540F485430A3F0EA30E204E04402F06C
:012795002221
:03003B00024D571C
:064D570030DF02C2DF3272
:104C780090FFF27409F090FFF0E4F0A37464F0433D
:034C8800FE802289
:0530C400900585EFF00E
:1030C90090058A7401F090058AE0FFC3941074801A
:1030D9009480503DAB07E4FAF9F8900581E0FCA330
:1030E900E0FDA3E0FEA3E0FF1208E8E47BFF7A7F9E
:1030F900F9F81208E8900586E0F8A3E0F9A3E0FAE8
:10310900A3E0FBD3120988500890058AE004F080F7
:10311900B590058AE0FBE4FAF9F8900581E0FCA393
:10312900E0FDA3E0FEA3E0FF1208E8900586E0F8C1
:10313900A3E0F9A3E0FAA3E0FB1208E890058B12DB
:103149000999E47FFF7E7FFDFC90058BE0F8A3E001
:10315900F9A3E0FAA3E0FBD312098850289005856A
:10316900E0702253FE7F90058AE0C3940190FFF23C
:10317900F090058BA3A3E0FFA3E090FFF0CFF0A3AD
:05318900EFF043FE80A1
:01318E00221E
:0200C100EF222C
:1000C600EC4D6011E8497017ED33EC3304600DE434
:1000D600FCFFFEFD22E933E8330470F80203161232
:1000E60002E158046009E4CC248150062850090234
:1000F600032028400302031DC0E0EB4A7044B98088
:1001060006D0E0FB02030CEF4E701CBD8008EBFF2F
:10011600EAFEE9FD80EBE98DF0A4FEE5F00201AF11
:10012600E9CDF9EAFEEBFFEF89F0A4FCE5F0CE8914
:10013600F0A42EFFE435F0CD89F0A42DFEE435F0D1
:100146008067EF4E7005BD80D780C3EF8BF0A4ACFF
:10015600F0EE8BF0A42CFCE435F0F8EF8AF0A42C3A
:10016600E5F038FCE433CB8DF0A42CFCE5F03BF84D
:10017600EE8AF0A42CFCE5F038F8E433CF89F0A43D
:100186002CFCE5F038CF3400CE89F0A42FFFE5F043
:100196003EFEE433C98DF0A42EFEE5F039CD8AF09B
:1001A600A42FFFE5F03EFEE43DFD33D0E0FB500713
:1001B6000BBB000F020320EC2CFCEF33FFEE33FEEB
:0601C600ED33FD0202F81A
:1001CC00020320EC5D046005E85904700302031679
:1001DC001202E1580460F6EC4860F2EC7004FDFE8B
:1001EC00FF22C860DB2481C85009C3986002500606
:1001FC0002031D9850CAF582E9294B4A7005AB825F
:10020C0002030C75F0007C1A7880C3EF9BEE9AED1C
:10021C0099400DC3EF9BFFEE9AFEED99FDE842F07D
:10022C00DC23ACF0D0E0FFD0E0FED0E0FDAB8220D0
:10023C00E7101BEB60BAEC2CFCEF33FFEE33FEED5A
:10024C0033FD0202F8E803F830E705C0F075F00062
:10025C00EF2FFFEE33FEED33FD40B830E7C280AA3E
:10026C0075F020800E75F010800575F0087D007E0D
:10027C00007F003392D530D50312097AEC3340104D
:10028C00EF33FFEE33FEED33FDEC33FCD5F0ED2216
:0E029C00E5F0247EA2D513CC92E7CDCEFF2252
:1002AA00EDD2E7CD33EC3392D524814006E4FFFE4C
:1002BA00FDFC22FCE4CFCECDCC24E0501174FF80AB
:1002CA00EDC3CC13CCCD13CDCE13CECF13CF047048
:0702DA00F030D5DE02097AC5
:10444F009004E2E0FFA3E0FEA3E0CF9004EBF0A323
:10445F00EEF0A3EFF09004E5E0CBF0A3E0CAF0A3F9
:10446F00E0C9F07F229004EEAD82AC831206CB8DB3
:10447F00828C83F0A309E970010ADFEC9004E5E078
:0A448F00FBA3E0FAA3E0F9021732E4
:1002E100E9D2E7C933E833F892D5EDD2E7CD33EC63
:0702F10033FC5002B2D522DC
:1002F800EC30E7100FBF000C0EBE00080DBD000467
:100308000BEB6014A2D5EB13FCED92E7FD2274FF12
:10031800FCFDFEFF22E480F8A2D574FF13FC7D806B
:03032800E480EF7F
:1016CD00E51624EBF582E43404F583E0051622904B
:1016DD0004E83009039004EBE475F0011209D60219
:1016ED0006CB2002E97F2ED2028018EF540F2490F2
:1016FD00D43440D4FF30060BEF24BFB41A0050038E
:10170D002461FFE51760021517051AE51A70020529
:10171D001930090E9004E8E475F0011209D6EF02B4
:10172D0007110249927403D2098003E4C209F51628
:10173D009004E81209EDE4F517F519F51AE51760AF
:10174D00077F2012171080F57518FFC203C202C261
:10175D0004C205C207C208C20A1216DCFF700D30A2
:10176D0009057F00121721AF1AAE1922B4255FC2E9
:10177D00D5C2061216DCFF24D0B40A00501A75F03B
:10178D000A781730D50508B6FF0106C6A426F6203F
:10179D00D5047002D20580D924CFB41A00EF5004BD
:1017AD00C2E5D206021A13D20380C6D20280C0D27D
:1017BD000480BCD2D580BAD20780B47F2012171016
:1017CD002004077401B5170040F11216CDFF121752
:1017DD001002174AD20AD20880951216CDFB1216A6
:1017ED00CDFA1216CDF94A4B700679117A1B7BFF93
:1017FD0020042EE517602A7E008E82758300120666
:10180D00E460060EEE651870F0C2D5EBC0E0EAC0DC
:10181D00E0E9C0E0EE121A74D0E0F9D0E0FAD0E0C1
:10182D00FB1206CBFF60AAEBC0E0EAC0E0E9C0E026
:10183D00121710D0E02401F9D0E03400FAD0E0FB0B
:10184D00E5180460DCD518D98087D20480A2121A5D
:10185D005660F7E51870010412032BA918600DE509
:10186D0018600914F518121AFEEF60F3EA30E7025A
:10187D00F404C3995079EAF425180430E701E4041F
:10188D00F518800D121A5660C1EA051825181203B5
:10189D002BEA900517F030E701E4251804D518045C
:1018AD0020070114121A74E4C0E0121AFE900517F5
:1018BD00E0601320E70714F01216F8802204F0D030
:1018CD00E014C0E07F001216F8E51860071216EF5D
:1018DD001518800B3007031216EFD0E002174AD00F
:1018ED00E00480C4121A56609EE5180412032B9072
:1018FD000517EAF0E5182007026001042404121A06
:01190D007465
:10190E0074FF04C0E0121AFE1216F8E51820070242
:10191E0060031216EFD0E0B518E87F45121702905B
:10192E000517E07F2B30E7047F2DF404C0E012177B
:10193E0010D0E075F00A84C0F01216F9D0E012163D
:10194E00F902174A791080027908C208C20A800883
:10195E00D2D5790A8004790AC2D5E518047002F549
:10196E0018E4FAFDFEFF1216CDFC7B0820031312BD
:10197E0016CDFD7B1030020A1216CDFE1216CDFFCB
:10198E007B20EC3382D592D55013C3E43002069FF0
:10199E00FFE49EFEE42003039DFDE49CFCE4CBF8F3
:1019AE00C203EC700CCFCECDCCE824F8F870F380E7
:1019BE0017C3EF33FFEE33FEED33FDEC33FCEB33A9
:1019CE00FB994002FB0FD8E9EB300305F8D0E0C4D9
:1019DE0048B203C0E00AEC4D4E4F78207B0070C237
:1019EE00EAB5180040BCC0E0121A76D0F0D0E02064
:1019FE000304C4C0E0C4B203C0F01216F9D0F0D58F
:101A0E00F0EB02174A1209F617E75319525817B896
:101A1E004C17B44219564F195E44195E4917CD43FF
:101A2E0019645518914618F145185B471B3150172C
:101A3E00BC2D17C02E17E32B17C42317E1201B1A3A
:101A4E002A177C48000017DBE518B4FF037518064B
:101A5E001216CDFC1216CDFD1216CDFE1216CDFFAE
:101A6E00900510020368790AA2D5200514300709E3
:101A7E00B910020404B9080104A2D52008025001CD
:101A8E00042004689204B517005034C0E07F203063
:101A9E0005197F30A20472087207500F121ACDC2B8
:101AAE0004C208C207C20A7F30800F300703E9C0A4
:101ABE00E0121710300703D0E0F9D0E0B517CC30A4
:101ACE0007177F30B9100C1217107F583006077F9A
:101ADE00788003B908031217103004057F2D021702
:101AEE00107F20200AF87F2B2008F322920480CF4B
:101AFE007F00B40700500B2410F582E43405F58303
:101B0E00E0FF22286E756C6C2900D2031216CD30C0
:101B1E0003F8C203781730D50108F602177C2D5052
:101B2E004349581216CD2403B405004001E4901B1E
:101B3E002C93121701743A121701D205751704026D
:021B4E0019522A
:10032B00F920E73624F950037907E4F42402FBE5BE
:10033B0082158270021583DBF6E024FB501BE9600B
:10034B0014E4F0E582158270021583E004F0B40A20
:0D035B0008E4F0D9EE7401F00A22C2D522A8
:10036800ED33EC3392D5FA602AB4FF33EDC2E77B64
:10037800FF60067A03798DE4227A03799620D50402
:100388007A037991224E614E002B494E46002D4941
:100398004E4600E47A08F0A3DAFC7B00740722C01A
:1003A80083C082ECC0E0EDC0E0EEC0E0EFC0E0EA60
:1003B80075F010A4CAABF075F04DA42BFBE435F032
:1003C800FCEA2410FAEB34C5FBEC34D9FCEDC2E7A7
:1003D800FF75F056A4F42411C5F0F434C58FF0A4C9
:1003E8002AE5F03BE43CF020E714120595D0E0FF45
:1003F800D0E0FED0E0FDD0E0FC1201CF8014F40480
:10040800120595D0E0FFD0E0FED0E0FDD0E0FC1270
:1004180000C6D082D083E0FAEDD2E7CD33EC3324A6
:1004280082FBE4C3CF33CFCE33CECD33CD33DBF332
:100438007B0775F00A846004F0A31B0AE5F0F0A3BB
:100448008FF0740AA4FFACF08EF0740AA42CFEACF2
:10045800F050010C8DF0740AA42CFDE435F0F0A3E3
:05046800DBDE74072239
:10046D00020316E86480F8E933E83360110460F0A4
:10047D00ED33EC337009E8FCE9FDEAFEEBFF2204F5
:10048D0060DED3EB9FEA9EE99DE8C2E78CF0C2F7F0
:10049D0095F0400CE8CCF8E9CDF9EACEFAEBCFFBBC
:1004AD001202E185D0F05804700320D5B3E8047032
:1004BD00075002B2D502032092D5EC0460F7E4CCCC
:1004CD00C0E0C398F8603B94186008400DD0E0FB85
:1004DD000202F8E4FBFAC9FC8028E830E406E4C91E
:1004ED00FBE4CAFCE830E305E4C9CACBFCE85407D9
:1004FD006010F8C3E913F9EA13FAEB13FBEC13FCE4
:10050D00D8F130F52FC3E49CFCEF9BFFEE9AFEED86
:10051D0099FDD0E0FBEF4E4D4C701222DB03020330
:10052D001DEC2CFCEF33FFEE33FEED33FDED30E72C
:10053D00EB0202F8EF2BFFEE3AFEED39FDD0E0FBBA
:10054D0050130BBB0003020320ED13FDEE13FEEF62
:08055D0013FFEC13FC0202F88D
:100565003F8000004120000042C80000447A00009E
:10057500461C400047C35000497424004B18968020
:100585004CBEBC205A0E1BCA6753C21C749DC5AE17
:10059500FB60065407601C23231205C3EB54386027
:1005A500091205AF1205BE1200C6ECF8EDF9EEFA18
:1005B500EFCB22EB1205BE80F1543803241C9005C5
:1005C50065FE93FC0EEE93FD0EEE930ECE93FF2289
:10388500020B74E493A3F8E493A34003F68001F2DA
:1038950008DFF48029E493A3F85407240CC8C33344
:1038A500C4540F4420C8834004F456800146F6DF13
:1038B500E4800B0102040810204080902930E47E4A
:1038C500019360BCA3FF543F30E509541FFEE49308
:1038D500A360010ECF54C025E060A840B8E493A3CF
:1038E500FAE493A3F8E493A3C8C582C8CAC583CAFA
:1038F500F0A3C8C582C8CAC583CADFE9DEE780BEB2
:012A8800004D
:1005D500E709F608DFFA8046E709F208DFFA803E08
:1005E50088828C83E709F0A3DFFA8032E309F608F5
:1005F500DFFA8078E309F208DFFA807088828C835D
:10060500E309F0A3DFFA806489828A83E0A3F60810
:10061500DFFA805889828A83E0A3F208DFFA804CEA
:1006250080D280FA80C680D4806980F280338010C1
:1006350080A680EA809A80A880DA80E280CA80332A
:1006450089828A83ECFAE493A3C8C582C8CCC583A2
:10065500CCF0A3C8C582C8CCC583CCDFE9DEE78072
:100665000D89828A83E493A3F608DFF9ECFAA9F0F1
:10067500EDFB2289828A83ECFAE0A3C8C582C8CC47
:10068500C583CCF0A3C8C582C8CCC583CCDFEADE60
:10069500E880DB89828A83E493A3F208DFF980CCC2
:1006A50088F0EF60010E4E60C388F0ED2402B404BB
:1006B5000050B9F582EB2402B4040050AF23234562
:0606C5008223900625735C
:1006CB00BB010689828A83E0225002E722BBFE022D
:0906DB00E32289828A83E4932260
:1006E400BB010CE58229F582E5833AF583E02250CB
:1006F40006E92582F8E622BBFE06E92582F8E22215
:0D070400E58229F582E5833AF583E493222E
:10071100BB010689828A83F0225002F722BBFE01C7
:02072100F322C1
:10072300F8BB010DE58229F582E5833AF583E8F00C
:10073300225006E92582C8F622BBFE05E92582C8B8
:02074300F222A0
:10074500EF8DF0A4A8F0CF8CF0A428CE8DF0A42EC8
:02075500FE2282
:10075700BC000BBE0029EF8DF084FFADF022E4CC86
:10076700F875F008EF2FFFEE33FEEC33FCEE9DEC4F
:10077700984005FCEE9DFE0FD5F0E9E4CEFD22ED95
:10078700F8F5F0EE8420D21CFEADF075F008EF2FDF
:10079700FFED33FD4007985006D5F0F222C398FDD0
:0507A7000FD5F0EA226D
:1007AC00C2D5EC30E709B2D5E4C39DFDE49CFCEE68
:1007BC0030E715B2D5E4C39FFFE49EFE120757C382
:1007CC00E49DFDE49CFC800312075730D507C3E47D
:0607DC009FFFE49EFE22D7
:1007E200A3F8E0C5F025F0F0E582158270021583CA
:0607F200E0C838F0E82227
:1007F800BB0110E58229F582E5833AF583E0F5F03F
:10080800A3E0225009E92582F886F008E622BBFE1B
:100818000AE92582F8E2F5F008E222E5832AF58361
:08082800E993F5F0A3E9932226
:10083000F8BB0111E58229F582E5833AF583E8F0FA
:10084000E5F0A3F0225009E92582C8F608A6F022B7
:0D085000BBFE09E92582C8F2E5F008F2229E
:10085D00E88FF0A4CC8BF0A42CFCE98EF0A42CFC3A
:10086D008AF0EDA42CFCEA8EF0A4CDA8F08BF0A4B8
:10087D002DCC3825F0FDE98FF0A42CCD35F0FCEB17
:10088D008EF0A4FEA9F0EB8FF0A4CFC5F02ECD39DC
:0F089D00FEE43CFCEAA42DCE35F0FDE43CFC2249
:1008AC0075F008758200EF2FFFEE33FECD33CDCC03
:1008BC0033CCC58233C5829BED9AEC99E582984086
:1008CC000CF582EE9BFEED9AFDEC99FC0FD5F0D663
:1008DC00E4CEFBE4CDFAE4CCF9A88222B800C1B98D
:1008EC000059BA002DEC8BF084CFCECDFCE5F0CBCB
:1008FC00F97818EF2FFFEE33FEED33FDEC33FCEB04
:10090C0033FB10D703994004EB99FB0FD8E5E4F9BE
:10091C00FA227818EF2FFFEE33FEED33FDEC33FCAB
:10092C00C933C910D7059BE99A4007EC9BFCE99A9F
:10093C00F90FD8E0E4C9FAE4CCFB2275F010EF2FE4
:10094C00FFEE33FEED33FDCC33CCC833C810D707E4
:10095C009BEC9AE899400AED9BFDEC9AFCE899F81F
:0E096C000FD5F0DAE4CDFBE4CCFAE4C8F922B2
:0E097A00C3E49FFFE49EFEE49DFDE49CFC228E
:10098800EB9FF5F0EA9E42F0E99D42F0E89C45F0C5
:01099800223C
:0C099900ECF0A3EDF0A3EEF0A3EFF022D1
:1009A500A8828583F0D083D0821209BC1209BC12BB
:1009B50009BC1209BCE473E493A3C583C5F0C583E0
:1009C500C8C582C8F0A3C583C5F0C583C8C582C89C
:0109D50022FF
:1009D600F8E0FBA3A3E0F925F0F0E58215827002AA
:0709E6001583E0FA38F0224E
:0909ED00EBF0A3EAF0A3E9F0220B
:1009F600D083D082F8E4937012740193700DA3A390
:100A060093F8740193F5828883E4737402936860A3
:060A1600EFA3A3A380DFA3
:100A1C00EC8EF0A4CCC5F0CCCDF8EFA4CEC5F02D67
:100A2C00FDE43CFCE8A42EC8C5F03DFDE43CFCEF25
:0D0A3C00A4FFE5F028FEE43DFDE43CFC22B3
:10499200EFB40A07740D12499D740A309811A89950
:1049A200B8130CC2983098FDA899C298B811F63085
:0749B20099FDC299F599225D
:103CFB00900599EBF0A3EAF0A3E9F090059FEBF0A8
:103D0B00A3EAF0A3E9F0900599E0FBA3E475F001B9
:103D1B001207E2A9F0FA1206CB70EB90059A74FF2A
:103D2B00F5F0120B5E90059CE0FBA3E475F001121D
:103D3B0007E2A9F0FA1206CBFF900599E0FBA3E48A
:103D4B0075F0011207E2A9F0FAEF12071170D69085
:0B3D5B00059FE0FBA3E0FAA3E0F922C3
:1032550090058FEBF0A3EAF0A3E9F0E4900597F071
:10326500A3F0D3900596E09400900595E0648094D2
:1032750080500302330E90058FE0FBA3E0FAA3E034
:10328500F9900597E0FEA3E0F5828E831206E460CF
:1032950010900598E004F070DD900597E004F0804B
:1032A500D5900592E0FBA3E0FAA3E0F91206CB6006
:1032B5003E900592A3E475F0011207E2A9F0FA1217
:1032C50006CBFF90058FE0FBA3E0FAA3E0F990059C
:1032D50097E475F0011207E285F082F583EF120796
:1032E5002390059574FFF5F0120B5E45F070B290D2
:1032F500058FE0FBA3E0FAA3E0F9900597E0FEA3B4
:10330500E0F5828E83E412072390058FE0FBA3E0AE
:05331500FAA3E0F9221B
:10398F00900429EBF0A3EAF0A3E9F090042CE0FBFC
:10399F00A3E0FAA3E0F91206CBFE900429E0FBA303
:1039AF00E0FAA3E0F91206CBFF6E702AEF600E90DB
:1039BF00042F74FFF5F0120B5E45F070037F0022A9
:1039CF0090042AE475F001120B5E90042DE475F05B
:1039DF0001120B5E80B5900429E0FBA3E0FAA3E08F
:1039EF00F91206CBFDD3EE6480F8ED6480984003A6
:1039FF007F012290042CE0FBA3E0FAA3E0F912066A
:073A0F00CBFFC3ED9FFF2276
:100A4900E709F60870FA8046E709F20870FA803E6D
:100A590088828C83E709F0A370FA807EE309F6089F
:100A690070FA8076E309F20870FA806E88828C83C6
:100A7900E309F0A370FA806289828A83E0A3F60809
:100A890070FA805689828A83E0A3F20870FA804A54
:100A990080D280FA80C680D4806580F2803180104F
:100AA90080A680EA809A80A880DA80E280CA8031B4
:100AB90089828A83ECFAE493A3C8C582C8CCC5832A
:100AC900CCF0A3C8C582C8CCC583CC70E9800D8998
:100AD900828A83E493A3F60870F9ECFAA9F0EDFB96
:100AE9002289828A83ECFAE0A3C8C582C8CCC5836F
:100AF900CCF0A3C8C582C8CCC583CC70EA80DD8997
:100B0900828A83E493A3F20870F980CE88F0ED24F9
:100B190002B4040050C4F582EB2402B4040050BAB4
:090B29002323458223900A9973ED
:10000E00E4FFFE1206CB600C0FEF70010E09E970D3
:05001E00F20A80EF2250
:104B11008DF0E4FFFE1206CBB5F00122600C0FEF21
:0F4B210070010E09E970010A80EB7EFF7FFF2211
:1033DD00900439EBF0A3EAF0A3E9F0A3E0FBA3E03E
:1033ED00FAA3E0F91206CB7003023489900439E098
:1033FD00FBA3E0FAA3E0F91206CB7003023495901B
:10340D00043CE0F9A3E0FAA3E0A3C9F0A3EAF0A31A
:10341D00E9F0900439A3E0FAA3E0F9900442EBF04F
:10342D00A3EAF0A3E9F090043FE0FBA3E0FAA3E0E8
:10343D00F91206CBFF6026900442E0FBA3E0FAA34D
:10344D00E0F91206CB6F701590044075F001120B68
:10345D005E900443E475F001120B5E80C990043F49
:10346D00E0FBA3E0FAA3E0F91206CB7002800D9009
:10347D00043AE475F001120B5E0233F9900439E061
:0F348D00FBA3E0FAA3E0F9227B007A007900228A
:102FE900900429EBF0A3EAF0A3E9F0900429E0FBAF
:102FF900A3E0FAA3E0F91206CBFF124C64500C903F
:10300900042AE475F001120B5E80E0D202900429D3
:10301900E0FBA3E0FAA3E0F91206CBFF642B6004FE
:10302900EFB42D1D900429E0FBA3E475F00112070C
:10303900E2A9F0FA1206CB642D6003D38001C39292
:1030490002E490042CF0A3F0900429E0FBA3E0FA39
:10305900A3E0F91206CBFF124CEA5042900429E092
:10306900FBA3E0FAA3E0F91206CBFF3395E0FEEFEC
:1030790024D0FBEE34FFFA90042CE0FEA3E0FF7CA1
:10308900007D0A120745EF2BFFEE3A90042CF0A3BE
:10309900EFF090042AE475F001120B5E80AA300269
:1030A9000A90042CE0FEA3E0FF800F90042CE0FEC0
:0B30B900A3E0FFC3E49FFFE49EFE22A3
:100B3200EF4E6012EF60010EEDBB010B89828A83DA
:100B4200F0A3DFFCDEFA2289F05007F709DFFCA9E7
:0C0B5200F022BBFEFCF309DFFCA9F0223E
:100B5E00C5F0F8A3E028F0C5F0F8E5821582700222
:060B6E001583E038F022BF
:0F4CEA00EFC394304007EF943A50028001C32289
:104C6400EFC394094005EF940E4004EFB42003D33E
:044C74008001C322D6
:00000001FF
