:030000000236596C
:0C365900787FE4F6D8FD7581300236A0C1
:102DCC000D0A007374617274696E672E2E0D0A0001
:102DDC0041542B434950534E54504346473D312C9C
:102DEC0038004F4B0073656E6420636F6D6D616EC0
:102DFC00642041542B434950534E54504346473D55
:102E0C00312C3820204F4B0D0A0073656E64206303
:102E1C006F6D6D616E642041542B434950534E5479
:102E2C00504346473D312C38206661696C65640D12
:102E3C000A0041542B434950534E545054494D456C
:102E4C003F0D0A002562643A202562643A2025620F
:102E5C00640D0A0075617274312020256264207241
:102E6C00656365697665643A002B434950534E544B
:102E7C005054494D453A0074696D653A002D2D202A
:102E8C0020202025640D0A007365742074696D651B
:082E9C00206F6B0D0A0000001D
:10276B006080011400000000000000000000000069
:10277B00000000000000000000000000000000004E
:10278B00000000000000000000000000000000003E
:10279B00000000000000000000000000000000002E
:1027AB00000000000000000000000000000000001E
:1027BB00000000000000000000000000000000000E
:1027CB0000000000000000000000000000000000FE
:1027DB0000000000000000000000000000000000EE
:1027EB000000000060800194000000000000000069
:1027FB0000000000000000000000000000000000CE
:10280B0000000000000000000000000000000000BD
:10281B0000000000000000000000000000000000AD
:10282B00000000000000000000000000000000009D
:10283B00000000000000000000000000000000008D
:10284B00000000000000000000000000000000007D
:10285B00000000000000000000000000000000006D
:10286B0000000000000000004100000041000B00D0
:10287B004202140000420001000042000900004126
:07288B0002160041021700D4
:0845EC00A3F07B017A01799430
:1045F400C002C001900432E0F9A3E0FAA3E0900401
:1046040038C9F0A3EAF0A3E9F0D001D0021231BD19
:0B461400E94A4B60037F01227F002277
:0B29E400900522EBF0A3EAF0A3E9F05D
:1029EF00E490054BF0FE7F20FD7B017A05792B12D9
:1029FF000B32E490054BF0900522E0FBA3E0FAA325
:102A0F00E0F912000E90054BE0C39FE49E400302D5
:102A1F002AE3900525E0FBA3E0FAA3E0F912000EEC
:102A2F009005D2EEF0A3EFF0900522E0FBA3E0FAC1
:102A3F00A3E0F990054BE0FF7E00E92FF9EE3AFA9B
:102A4F00C002C001900525E0F9A3E0FAA3E09005CC
:102A5F00CFC9F0A3EAF0A3E9F0D001D00212376F8B
:102A6F00EF7037900528E0F9A3E0FAA3E09005B6E0
:102A7F00C9F0A3EAF0A3E9F07B017A05792B123AAA
:102A8F00DB900525E0FBA3E0FAA3E0F912000EEFBF
:102A9F0014FF90054BE02FF08031900522E0FBA34F
:102AAF00E0FAA3E0F990054BE0FF7E00E92FF9EE85
:102ABF003AFA9005A3EBF0A3EAF0A3E9F0A3E4F050
:102ACF00A304F0FB7A05792B12303590054BE00407
:102ADF00F0022A06900522E0FBA3E0FAA3E0F8AC8F
:102AEF0002AD037B017A05792B120B15900522E0BD
:072AFF00FBA3E0FAA3E0F9DC
:012B060022AC
:0B33340090054CEBF0A3EAF0A3E9F0D9
:10333F00E4900574F0FE7F20FD7B017A057954122D
:10334F000B32900552A3E0900574F090054CE0FB12
:10335F00A3E0FAA3E0F912000E900574E0FD339597
:10336F00E0FCC3ED9FEC9E504390054CE0FBA3E0C7
:10337F00FAA3E0F9900574E0FF3395E08D82F583B1
:10338F001206E4FEEF3395E0FC900552E0FAA3E05D
:10339F00FBC3ED9BFDEC9AFC74542DF58274053C38
:1033AF00F583EEF0900574E004F0809F90054FE0F8
:1033BF00FBA3E0FAA3E0F8AC02AD037B017A057939
:0F33CF0054120B1590054FE0FBA3E0FAA3E0F9B1
:0133DE0022CC
:0B37F600900425EBF0A3EAF0A3E9F03B
:10380100E490042EF090042BE0FF90042EE0C39F7F
:103811005066900425E0FBA3E0FAA3E0F97F0212D1
:103821003C187BFF7A2D79CC7F02123C1890042C36
:10383100E0FEA3E0FF1248D29004327401F0A374B9
:1038410001F0A37494F0900006E0FBA3E0FAA3E07A
:10385100F9123FBA900428E0F9A3E0FAA3E090043A
:1038610032C9F0A3EAF0E91245ECEF60037F0122CF
:0A38710090042EE004F0808D7F002B
:01387B00222A
:03000B00023F664B
:103F6600C0E0C0F0C083C082C0D075D000C000C021
:103F760004C005C006C007900002E004F070069079
:103F86000001E004F0900001E0FEA3E0FF7C007D6C
:103F960064120757ED4C7007900009F0A304F0D0A7
:103FA60007D006D005D004D000D0D0D082D083D0A0
:043FB600F0D0E03235
:10152C00E4900419F0A3F0A3F0A3F0C200C2017878
:10153C001D7C047D017BFF7A2E79A2FE7F021206B0
:10154C00A5E490041FF0A3F0A3F0A3F0A3F0A3F084
:10155C00C2B775B280F5B190041FF07594FF759306
:10156C00FF7592FF7591FF7596FF7595FF75B2FF2C
:10157C0075B1FF75B4FF75B3FF75CAFF75C9FF531D
:10158C0092F05391F053B17F43B28053B1FB53B2FD
:10159C00FB53950F53960F53B1FC53B2FC12198B9E
:1015AC00124A7EE4FF124B0A7D107C27E4FF1225C1
:1015BC00D11248929000037401F0A37400F0A3744C
:1015CC000CF0A37401F0A37400F0A37490F09000DD
:1015DC0003E0FBA3E0FAA3E0F91244CF900006E08D
:1015EC00FBA3E0FAA3E0F91244CF7BFF7A2D79CF6D
:1015FC007F01123C1890042A1209A50001C2007F39
:10160C00021241507FB87E0B1248D2900432740102
:10161C00F0A37401F0A37494F0900006E0FBA3E037
:10162C00FAA3E0F9123FBAEF70E1FE7F80FD7B0177
:10163C007A017994120B3290042874FFF0A3742D64
:10164C00F0A374EEF0A37403F0A37401F0A3742C54
:10165C00F07BFF7A2D79DC1237F6EF7BFF60067A90
:10166C002D79F180047A2E79167F01123C187FB8FF
:10167C007E0B1248D27BFF7A2E793E7F02123C18E9
:10168C00900009E07002A3E0700302175AE4900086
:10169C0009F0A3F0FB7A00790F1242C27BFF7A2E7D
:1016AC007950900433E511F0A3E510F0A3E50FF0A9
:1016BC007F01123C18900424E004F070069004237F
:1016CC00E004F0900423E0FEA3E0FF7C007D051213
:1016DC000757ED4C7004C2928002D292E511640857
:1016EC00701CE51064017016E50F64017010200188
:1016FC000D7BFF7A2E793E7F02123C18D201AF117E
:10170C007E00EF700EE51064017008E50F7004C2E6
:10171C0000C201EF64074E702920002190041F04C1
:10172C00F0C2A4FF7E001248D230B20D7F147E00AE
:10173C001248D230B20300D200D2A48005E4900447
:10174C001FF090041FE06004B2B78002C2B7900093
:10175C0000E0D39400748094804049E014F07BFF47
:10176C007A2E7960E0900433F07F01123C189004DB
:10177C00327401F0A37401F0A37414F0900003E030
:10178C00FBA3E0FAA3E0F9123FBA7B017A017914CA
:10179C007F02123C187E007F807D007B017A0179EC
:1017AC0014120B3290000BE0D39400748094805090
:1017BC000302168CE014F09004327401F0A374014F
:1017CC00F0A37494F0900006E0FBA3E0FAA3E0F918
:1017DC00123FBA7B017A0179947F0112457F900404
:1017EC003274FFF0A3742EF074751245ECEF700395
:1017FC000219797BFF7A2E79837F01123C187B01C9
:10180C007A0179947F01123C187B017A0179941248
:10181C00000E90041BEEF0A3EFF090041BE0FEA36F
:10182C00E0FF248BF58274013EF583E090041DF0FB
:10183C00748C2FF58274013EF583E090041EF07BCE
:10184C00017A04791D122CF18F0890041BE0FEA381
:10185C00E0FF2488F58274013EF583E090041DF0CE
:10186C0074892FF58274013EF583E090041EF07BA1
:10187C00017A04791D122CF18F0990041BE0FEA350
:10188C00E0FF2485F58274013EF583E090041DF0A1
:10189C0074862FF58274013EF583E090041EF07B74
:1018AC00017A04791D122CF18F0A90041BE0FEA31F
:1018BC00E0FF2490F58274013EF583E090041DF066
:1018CC0074912FF58274013EF583E090041EF07B39
:1018DC00017A04791D122CF18F0E90041BE0FEA3EB
:1018EC00E0FF248EF58274013EF583E090041DF038
:1018FC00748F2FF58274013EF583E090041EF07B0B
:10190C00017A04791D122CF1900422EFF0750B0171
:10191C00750C01750D01E075F064A47C00250EFFBB
:10192C00EC35F0FE900420F0A3EFF07BFF7A2E79DB
:10193C0089900433EEF0A3EFF07F01123C18C390B2
:10194C000421E094E5900420E094074020E5086031
:10195C001CE5096018E50A60147B007A007908120E
:10196C00400E7BFF7A2E79947F01123C187E007F0B
:0F197C00807D007B017A017994120B3202168C68
:10472400900216E599F0900003E0FBA3E0FAA3E001
:10473400F9900216E0FD123CE4900216E0B40A0679
:07474400900000E004F022E8
:10474B00900217E59BF0900006E0FBA3E0FAA3E0D4
:10475B00F9900217E0FD123CE4900217E0B40A0650
:07476B0090000BE004F022B6
:09289200070800010A0401051405
:034B22000000226E
:1047E500E4FFFEEEC39408748094805017C2A712AC
:1047F5004B22EFC313FF30A6034480FFD2A7124B11
:04480500220E80DF20
:01480900228C
:0F45B600C2A5124B22C2A7124B22D2A5124B2232
:1045C500E4FEEEFD3395E0FCC3ED9408EC648094C5
:1045D500805013C2A7124B22EFC313FF92A6D2A796
:0645E500124B220E80DCE7
:0145EB0022AD
:0A4AE0001245B61247E5D2A7C2A5A1
:014AEA0022A9
:0F4A6F00AB051245B6AF031245C5D2A7C2A522AB
:0B400E00900425EBF0A3EAF0A3E9F01A
:10401900A37480F0A37407F0E4FD7F8E124A6F90B9
:104029000429E0FF14F0EF6027900425E0FBA3E4E6
:1040390075F0011207E2A9F0FA1206CBFF1249FB4B
:10404900AD07900428E0FF124A6FE02402F080CF08
:074059007D807F8E024A6F9B
:02499700A9076E
:10499900E4FEE9C4540FFF7C007D0A120745E9547F
:0649A9000F2FFFEC3EFEA3
:0149AF0022E5
:1049FB00E4EF75F00A84C454F0FEEF75F00A84EE10
:054A0B0045F0FF7E00F4
:014A10002283
:0B42C200900425EBF0A3EAF0A3E9F064
:1042CD00A37481F0A37407F0900429E0FF14F0EFBC
:1042DD006028900428E0FF124AE0124997900425C7
:1042ED00E0FBA3E475F0011207E2A9F0FAEF120763
:0A42FD0011900428E02402F080CEA6
:014307002293
:10489200C2A5C2A7E4FD7F8E124A6FE4FD7F80129B
:1048A2004A6F7DA67F90124A6F7D807F8E024A6F8B
:1044CF00900425EBF0A3EAF0A3E9F07E007F807D56
:1044DF0000900425E0FBA3E0FAA3E0F9120B329061
:1044EF000425E0FBA3E0FAA3E0F9900082E4F5F0E5
:0C44FF00120830900080E4F5F002083054
:103CE40090051EEDF090051BEBF0A3EAF0A3E9F0BC
:103CF400124492EF6401604A90051EE0FF90051B98
:103D0400E0FBA3E0FAA3E0F99000821207F8F58241
:103D140085F083EF1207239000821207F82401FF35
:103D2400E435F0FE7C007D801207AC90051BE0FBBF
:103D3400A3E0FAA3E0F9900082EC8DF01208307F42
:053D440001227F0022B6
:1044920090051FEBF0A3EAF0A3E9F090051FE0FB03
:1044A200A3E0FAA3E0F99000821207F82401FFE4E6
:1044B20035F0FE7C007D801207AC9000801207F878
:0D44C200B50507ECB5F0037F01227F002255
:10490F009000821207F8FFAEF09000801207F8B502
:0D491F000708E5F0B506037F01227F0022A6
:1033DF0090043A7401F0A37404F0A37435F09004D0
:0933EF002FE0FBA3E0FAA3E0F9D2
:1033F800900437EBF0A3EAF0A3E9F0900437E0FB80
:10340800A3E0FAA3E0F912490FEF6401606E90049B
:1034180037E0FBA3E0FAA3E0F99000801207F8F583
:103428008285F0831206E4FF90043AE0FBA3E0FAF9
:10343800A3E0F9EF120711900437E0FBA3E0FAA329
:10344800E0F99000801207F8F58285F083E412070E
:10345800239000801207F82401FFE435F0FE7C0079
:103468007D801207AC900437E0FBA3E0FAA3E0F9F3
:0F347800900080EC8DF01208307F01227F00223F
:0B3FBA0090042FEBF0A3EAF0A3E9F065
:103FC500E4900436F012490FEF60037F00221233AC
:103FD500DFEF640170308010900435E0640A6023DF
:103FE5001233DFEF6401701B900435E0FF9004325B
:103FF500E0FBA3E475F0011207E2A9F0FAEF12075E
:084005001180D57F01227F002C
:01400D002290
:1028B4004543424D205625752E25752E2575206FCE
:1028C4006E2025730053544338410025754B002571
:1028D400303275005334413132000D0A4368656368
:1028E4006B696E67204D4355204944002E004572A4
:1028F400726F720D0A506C6561736520636865635D
:102904006B207468652073657474696E67206F66E4
:1029140020746865204D4355206D6F64656C0D0A05
:10292400004F4B0D0A4944202020203A0025303224
:1029340058000D0A004441544120203A31323809EC
:10294400427974650D0A004944415441203A3132B8
:102954003809427974650D0A005844415441203ABB
:10296400257509427974650D0A00464C4153482087
:102974003A256C7509427974650D0A004545505233
:102984004F4D3A257509427974650D0A0053595320
:10299400434C4B3A256C7509487A0D0A004C53494F
:1029A4002020203A257509487A0D0A00424756200E
:1029B40020203A2575096D560D0A00454E444941BB
:1029C4004E3A0062696709656E6469616E0D0A00BA
:1029D4006C6974746C6509656E6469616E0D0A00D6
:07289B00440592000000005B
:1048D200EF4E601A90058AE0FCA3E0FDED1D700129
:0E48E2001C144C70F7EF1F70011E144E70E690
:0148F00022A5
:0A4AEB00EF1FAC0670011E4C70F6C0
:014AF500229E
:1047990090058AE0FCA3E0FD120A1CE47B83FAF988
:1047A900F812085D90058E12099990058EE0C313E1
:0647B900FEA3E013FF2245
:10464C0090058DE06599600AE599F0E490058CF091
:10465C00800690058CE004F090058CE0C394E9741E
:0C466C0080948040060075C760000022AA
:1022820090042B7412F0A37434F0900430E4F0A3A1
:102292007403F0A3E4F0A304F0A3E4F0A37402F047
:1022A200A374FFF0A37428F0A374C9F07BFF7A280B
:1022B20079B4123A7B7BFF7A2879CF900430E4F02C
:1022C200A37408F0123A7B7BFF7A2879D39004300A
:1022D200E4F0A37440F0123A7B7BFF7A2879D8129B
:1022E2003A7BE490042AF07BFF7A2879DE123A7B6B
:1022F200E4900429F0900429E0C394077480948048
:1023020050297BFF7A2879F0123A7B900429E0FF6A
:1023120090FDF993FE74F12FF8E6B5060690042AB3
:10232200E004F0900429E004F080CA90042AE064FA
:102332000760097BFF7A2879F20224307BFF7A2931
:102342007925123A7BE4900429F0900429E0FFC336
:10235200940774809480501F7BFF7A297931EF9023
:10236200FDF993FF900430E4F0A3EFF0123A7B9072
:102372000429E004F080D37BFF7A297936123A7B74
:102382007BFF7A297939123A7B7BFF7A29794B12C2
:102392003A7B7BFF7A29795D9004307420F0A3E4C4
:1023A200F0123A7B7BFF7A29796E9004301209A5EC
:1023B20000010000123A7B7BFF7A29798090043079
:1023C2007402F0A3E4F0123A7B7BFF7A29799190B0
:1023D2000592E0FCA3E0FDA3E0FEA3E0FF90043041
:1023E200120999123A7B7A2979A178F8123A6D7A10
:1023F2002979B078EF123A6D7BFF7A2979BF123AC8
:102402007B90042BE0FF3395E0FEEF64124E7009DF
:102412007BFF7A2979C7123A7B90042BE0FF339530
:10242200E0FEEF64344E70097BFF7A2979D4123AC8
:012432007B2E
:012433002286
:0E3A6D007BFFE6FF08E6900430CFF0A3EFF0F9
:0B3A7B0090042DEBF0A3EAF0A3E9F0AB
:103A86009004987401F0A37404F0A37430F09004C9
:103A96002DE0F9A3E0FAA3E09004DEC9F0A3EAF072
:103AA600A3E9F0900498E0F9A3E0FAA3E09004E11A
:103AB600C9F0A3EAF0A3E9F07B017A04795812422F
:103AC6002F900498E4F0A3F0A3F07B017A047958D0
:053AD6007F0102457FA5
:10327C00EF14601614602C14604D14606C14700301
:10328C000233102405600302333390FE02E0547EB7
:10329C004480F0E030E0F390FE00E054FCF090FE4F
:1032AC0003807A90FE04E0547E4480F0E030E0F33A
:1032BC0090FE00E054FC4403F090FE02E4F090FE1B
:1032CC0008F090FE03F02290FE08E0547E4480F05B
:1032DC00E030E0F390FE00E054FC4402F090FE0479
:1032EC00E4F090FE02F0A3F02290FE03E0543E4482
:1032FC0080F0E030E0F390FE00E054FC4401F090EC
:10330C00FE02801990FE03E0543E44C0F0E030E031
:10331C00F390FE00E054FC4401F090FE02E4F090C7
:08332C00FE08F090FE04F022FF
:0C4AC800EF90FE01700304F022EFF022DA
:10198B0043BA80AF9FE4FCFDFEC004A905AA06ABD9
:10199B000778FBE6FFD000C3EF9BFFEE9AFEED99B5
:1019AB00FDEC98FCE47BF07AD2F9F812085DC3E405
:1019BB009FFF74369EFE746E9DFD74019CFC90041B
:1019CB0025120999900425E0FCA3E0FDA3E0FEA3FA
:1019DB00E0FFC00790FE01E0FBE4FAF9F8D0071234
:1019EB0008E89004251209997FC07EF67D577C008C
:1019FB00900425E0F8A3E0F9A3E0FAA3E0FBC312FF
:101A0B000988500D9005921209A500546000021B25
:101A1B00D97FC07E267D827C00900425E0F8A3E070
:101A2B00F9A3E0FAA3E0FBC3120988500D900592CD
:101A3B001209A5005B8D80021BD97F807EED7DAFE7
:101A4B007C00900425E0F8A3E0F9A3E0FAA3E0FB07
:101A5B00C3120988500D9005921209A500A8C00069
:101A6B00021BD97F807E2D7DE87C00900425E0F859
:101A7B00A3E0F9A3E0FAA3E0FBC3120988500D9091
:101A8B0005921209A500B71B00021BD97F807E3679
:101A9B007D257C01900425E0F8A3E0F9A3E0FAA3EF
:101AAB00E0FBC3120988500D9005921209A501198C
:101ABB004000021BD97F807E567D417C019004251E
:101ACB00E0F8A3E0F9A3E0FAA3E0FBC31209885006
:101ADB000D9005921209A501312D00021BD97F0033
:101AEB007EDB7D5F7C01900425E0F8A3E0F9A3E0A9
:101AFB00FAA3E0FBC3120988500D9005921209A5B9
:101B0B0001518000021BD97F607E197D857C01907D
:101B1B000425E0F8A3E0F9A3E0FAA3E0FBC3120964
:101B2B0088500D9005921209A5016E3600021BD943
:101B3B007F207EE07DB27C01900425E0F8A3E0F9E4
:101B4B00A3E0FAA3E0FBC3120988500C9005921294
:101B5B0009A5019BFCC080767FE07EA67DE07C0121
:101B6B00900425E0F8A3E0F9A3E0FAA3E0FBC3128D
:101B7B000988500C9005921209A501C9C380804EAB
:101B8B007F607E2B7DFF7C01900425E0F8A3E0F9BC
:101B9B00A3E0FAA3E0FBC3120988500C9005921244
:101BAB0009A501FA400080267F607E2B7DFF7C011A
:101BBB00900425E0F8A3E0F9A3E0FAA3E0FBC3123D
:101BCB000988500A9005921209A502160EC0E47BF3
:101BDB00107A27F9F8900592E0FCA3E0FDA3E0FE54
:101BEB00A3E0FF1208E890058AEEF0A3EFF0E49073
:101BFB00058DF090058CF0123E10D2AF7FF47E0174
:061C0B001248D202228201
:080003000102040810204080F6
:102F6F00EF64887003023034EF54F0F51BEF540F09
:102F7F00FE90000393F51CEED39407748094804069
:102F8F0003023034ED604DE51B24F0602124F06026
:102F9F002224F0602324F0602424F0602524F060C4
:102FAF002624F060272470707C90FE10802190FE04
:102FBF0011801C90FE12801790FE13801290FE1449
:102FCF00800D90FE15800890FE16800390FE17E08E
:102FDF00451CF022E51B24F0602124F0602224F030
:102FEF00602324F0602424F0602524F0602624F070
:102FFF0060272470702F90FE10802190FE11801C8E
:10300F0090FE12801790FE13801290FE14800D9088
:10301F00FE15800890FE16800390FE17E0FFE51C5A
:05302F00F4FEEF5EF06D
:013034002279
:101C1100EF64887003021E74EF54F0F51BEF540F4C
:101C2100FE90000393F51CEED394077480948040DA
:101C310003021E74E51B24F0602424F0602524F0C7
:101C4100602624F0602724F0602824F0602924F025
:101C5100602A24706003021E74E4F51B8021751B49
:101C610001801C751B028017751B038012751B04F4
:101C7100800D751B058008751B068003751B07ED1C
:101C8100FFD39403748094804003021E74E51B709B
:101C910037EF7007E51CF452935294ED640170091B
:101CA100E51C4293E51CF45294EDFF7E0064027042
:101CB10008E51C4293E51C4294EF64034E7009E56C
:101CC1001CF45293E51C4294E51B64017037EDFF4F
:101CD1007E007007E51CF452915292EF64014E7040
:101CE10009E51C4291E51CF45292ED64027008E58D
:101CF1001C4291E51C4292ED64037009E51CF4520B
:101D010091E51C4292E51B64027037EDFF7E007085
:101D110007E51CF452955296EF64014E7009E51CDB
:101D21004295E51CF45296ED64027008E51C42955B
:101D3100E51C4296ED64037009E51CF45295E51C1F
:101D41004296E51B64037037EDFF7E007007E51CCA
:101D5100F452B152B2EF64014E7009E51C42B1E593
:101D61001CF452B2ED64027008E51C42B1E51C425C
:101D7100B2ED64037009E51CF452B1E51C42B2E511
:101D81001B64047037EDFF7E007007E51CF452B34D
:101D910052B4EF64014E7009E51C42B3E51CF452E4
:101DA100B4ED64027008E51C42B3E51C42B4ED6475
:101DB100037009E51CF452B3E51C42B4E51B64054C
:101DC1007037EDFF7E007007E51CF452C952CAEF6F
:101DD10064014E7009E51C42C9E51CF452CAED6468
:101DE100027008E51C42C9E51C42CAED6403700992
:101DF100E51CF452C9E51C42CAE51B64067037EDC7
:101E0100FF7E007007E51CF452CB52CCEF64014E0B
:101E11007009E51C42CBE51CF452CCED640270085C
:101E2100E51C42CBE51C42CCED64037009E51CF4D2
:101E310052CBE51C42CCE51B64077037EDFF7E00F9
:101E41007007E51CF452E152E2EF64014E7009E5BE
:101E51001C42E1E51CF452E2ED64027008E51C420B
:101E6100E1E51C42E2ED64037009E51CF452E1E591
:031E71001C42E22E
:011E7400224B
:10441500EFB408005038904422F828287302443A33
:1044250002443D02444002444302444602444902D8
:10443500444C02444F8D80228D90228DA0228DB058
:0F444500228DC0228DC8228DE822AF058FF8226C
:1043D500EFB4080050379043E2F82828730243FAF7
:1043E5000243FD024400024403024406024409025A
:1043F500440C02440FAF8022AF9022AFA022AFB091
:1044050022AFC022AFC822AFE822AFF8227FFF2239
:1030FA00EF648870030231BCEF54F0F51BEF540FF4
:10310A00FE90000393F51CEED394077480948040DC
:10311A00030231BCED604AE51B24F0602124F06013
:10312A002224F0602324F0602424F0602524F06037
:10313A002624F0602724707079E51C428022E51C61
:10314A00429022E51C42A022E51C42B022E51C4224
:10315A00C022E51C42C822E51C42E822E51C42F8CE
:10316A0022E51B24F0602224F0602424F060262447
:10317A00F0602824F0602A24F0602C24F0602E24C9
:10318A0070702FE51CF4528022E51CF4529022E55F
:10319A001CF452A022E51CF452B022E51CF452C0E1
:1031AA0022E51CF452C822E51CF452E822E51CF47C
:0231BA0052F8C9
:0131BC0022F0
:10398100EF64887002FF22EF54F0F51BEF540FFE35
:1039910090000393F51CEED3940774809480400348
:1039A1007F0122E51B24F0602124F0602224F060D5
:1039B1002324F0602424F0602524F0602624F060A4
:1039C100272470702685801D802185901D801C858F
:1039D100A01D801785B01D801285C01D800D85C872
:1039E1001D800885E81D800385F81DE51D551C60B7
:0639F100037F01227F00AC
:0139F70022AD
:103BB000EF64886062EF54F0F51BEF540FFE900045
:103BC0000393F51CEED39407748094805049E51B51
:103BD00024F0602124F0602224F0602324F060248B
:103BE00024F0602524F0602624F0602724707027DC
:103BF000E51C628022E51C629022E51C62A022E5A1
:103C00001C62B022E51C62C022E51C62C822E51CD1
:073C100062E822E51C62F8E6
:013C1700228A
:10434E00EFB40800503E90435BF828287302437385
:10435E0002437702437B02437F0243830243870279
:10436E00438B02438FED628022ED629022ED62A0BC
:10437E0022ED62B022ED62C022ED62C822ED62E84B
:05438E0022ED62F8229F
:10352A00A907EB6048E9B4080040030235C39035A7
:10353A003FF828287302355702355B02355F02359A
:10354A006302356702356B02356F023573ED4280CF
:10355A0022ED429022ED42A022ED42B022ED42C07D
:10356A0022ED42C822ED42E822ED42F822E9B408EF
:10357A00005046903584F828287302359C0235A1FC
:10358A000235A60235AB0235B00235B50235BA02AC
:10359A0035BFEDF4528022EDF4529022EDF452A0A0
:1035AA0022EDF452B022EDF452C022EDF452C822B8
:0A35BA00EDF452E822EDF452F8227D
:103E6700EFB409005045903E74F8282873023E8F3E
:103E7700023E93023E97023E9B023E9F023EA302F2
:103E87003EA7023EAB023EAFAE80801FAE90801BC6
:103E9700AEA08017AEB08013AEC0800FAEC8800B47
:103EA700AEE88007AEF880037F0122EE5D60037FF6
:043EB70001227F0065
:013EBB0022E4
:0C4AD400303136371617434410114042B1
:103E100075985053873F538EDEE4FD7F0112387C46
:103E200090042A1209A50001C2007F0112415043EB
:103E30008E4053890FC2ABC28FD28EC20BD2AC75EB
:103E40009A10E4FD7F0212387C90042A1209A50022
:103E500001C2007F02124150438E0453AFFB438ED8
:073E600010C20C43AF012268
:10387C00900429EDF0EF24FE603F0470769004294B
:10388C00E0FF54C0FEE5A2543F4EF5A2EFC4131363
:10389C00540325E024D4F582E4344AF583E493FF01
:1038AC00E4FD121C11900429E0C41313540325E009
:1038BC0024D5F582E4344A8030900429E0FF540189
:1038CC00FEE5BA54FE4EF5BAEF25E024DCF582E4B1
:1038DC00344AF583E493FFE4FD121C11900429E0B3
:1038EC0025E024DDF582E4344AF583E493FF7D037F
:0438FC00121C112267
:05415000900429EFF0CE
:10415500E47B04FAF9F8900592E0FCA3E0FDA3E006
:10416500FEA3E0FF1208E890042AE0F8A3E0F9A313
:10417500E0FAA3E0FB1208E8C3E49FFFE49EFE908B
:104185000429E024FE600904700B8F8BEEF58D2267
:054195008FD7EEF5D606
:01419A002202
:10494800EF24FE600C0470128D99D20B300B0B8093
:0B495800FBAF058F9BD20C200CFD2252
:10454600EF24FE6019047030EB6006D29BD29B808C
:1045560004C29BC29B8D99D20B300B1C80FBEB6077
:1045660008439A08439A088006539AF7539AF7AF76
:09457600058F9BD20C200CFD22E4
:10457F009004DEEBF0A3EAF0A3E9F0AE079004DEBF
:10458F00E0FBA3E0FAA3E0F91206CB6019AF0690A7
:10459F0004DEA3E475F0011207E2A9F0FA1206CBCC
:0745AF00FD12494880D722EC
:0E3C180090042FEFF0A3EBF0A3EAF0A3E9F085
:103C26009004DB7401F0A37404F0A37433F09004E1
:103C360030E0F9A3E0FAA3E09004DEC9F0A3EAF0CD
:103C4600A3E9F09004DBE0F9A3E0FAA3E09004E135
:103C5600C9F0A3EAF0A3E9F07B017A04795B12428A
:103C66002F9004DBE4F0A3F0A3F090042FE0FF7B99
:083C7600017A04795B02457F2D
:0300230002419BFC
:10419B00C0E0C0F0C083C082C0D075D000C000C0EA
:1041AB0001C002C003C004C005C006C00730980898
:1041BB00C29812472412464C309904C299C20BD0B4
:1041CB0007D006D005D004D003D002D001D000D048
:0A41DB00D0D082D083D0F0D0E032C3
:0300430002410374
:10410300C0E0C0F0C083C082C0D075D000C000C082
:1041130001C002C003C004C005C006C007E59A3051
:10412300E006539AFE12474BE59A30E105539AFD98
:10413300C20CD007D006D005D004D003D002D001E2
:0D414300D000D0D0D082D083D0F0D0E032B8
:01003A0022A3
:01004200229B
:014B2B002267
:014B2C002266
:084B0A00EF7004C28DD28C2271
:064B1200EF7002C28C22CC
:10480A00900605EFF0ED600AE07017438F017D0313
:10481A00800B900605E0700A538FFEE4FD7F351287
:03482A001C11223C
:0F4A7E00538E7F5389F0E4F58A758C48D2A922B4
:0B25D100900425EFF0A3ECF0A3EDF068
:1025DC00900592E0FCA3E0FDA3E0FEA3E0FFE41273
:1025EC00026C7B007A24797478491201CFA804A973
:1025FC0005AA06AB077F007EFF7D7F7C471201CFCB
:10260C001202AA90042AEEF0A3EFF07F007E1B7D4D
:10261C00B77C00900592E0F8A3E0F9A3E0FAA3E000
:10262C00FBD3120988500A74FF90042CF0A3F0809D
:10263C003B900592E0FCA3E0FDA3E0FEA3E0FFE4E9
:10264C0012026C7B007A1B7937784B1201CFA804ED
:10265C00A905AA06AB077F007EFF7D7F7C47120190
:10266C00CF1202AA90042CEEF0A3EFF090042AE013
:10267C00FEA3E0FF900426E0FCA3E0FDD39FEC9EBC
:10268C005010ED9400EC94004008A3E4F0A304F087
:10269C00802C90042CE0FEA3E0FFD3ED9FEC9E4039
:1026AC000302276A900427E09400900426E094002B
:1026BC00500302276A900428E4F0A3740CF09004F1
:1026CC0025E0600302276A900428E07004A3E0640C
:1026DC00017017438E80900592E0FCA3E0FDA3E00F
:1026EC00FEA3E0FFE412026C802B900428E070043F
:1026FC00A3E0640C7059538E7F900592E0FCA3E02C
:10270C00FDA3E0FEA3E0FFE412026CE4FBFA7940C7
:10271C0078411201CF7B007A24797478491201CF69
:10272C00C004C005C006C007900426E0FCA3E0FD71
:10273C00E4120271D003D002D001D0001200C612F4
:10274C0002AAC3E49FFFE49E900428F0A3EFF0904C
:0E275C000428E0FEA3E0F58AEEF58C5389FB1D
:01276A00224C
:094B0100EF70058D8AECF58C22A1
:104A5E00E4FDFCEF7006AF8CEFAD8AFCAE04AF0543
:014A6E002225
:100B7400E47B07FAF9F8900592E0FCA3E0FDA3E01A
:100B8400FEA3E0FF1208E89005BC120999E47B88F3
:100B94007A13F9F8900592E0FCA3E0FDA3E0FEA32C
:100BA400E0FF1208E89005C01209997F0A7E8B7D48
:100BB400027C009005BCE0F8A3E0F9A3E0FAA3E00E
:100BC400FBC3120988504D7F1D7E637D017C00901C
:100BD40005BCE0F8A3A3A3E01209884037E47F6FC3
:100BE400FEFDFC9005C0E0F8A3E0F9A3E0FAA3E061
:100BF400FBD3120988401DE47FFAFEFDFC9005C07A
:100C0400E0F8A3A3A3E0120988500990021874071E
:100C1400F0021094E47B0EFAF9F8900592E0FCA33C
:100C2400E0FDA3E0FEA3E0FF1208E89005BC120972
:100C340099E47B107A27F9F8900592E0FCA3E0FD93
:100C4400A3E0FEA3E0FF1208E89005C01209997F13
:100C54000A7E8B7D027C009005BCE0F8A3E0F9A33A
:100C6400E0FAA3E0FBC3120988504D7F1D7E637D2B
:100C7400017C009005BCE0F8A3A3A3E0120988401E
:100C840037E47F6FFEFDFC9005C0E0F8A3E0F9A314
:100C9400E0FAA3E0FBD3120988401DE47FFAFEFDCD
:100CA400FC9005C0E0F8A3A3A3E0120988500990C2
:100CB40002187406F0021094E47B15FAF9F8900512
:100CC40092E0FCA3E0FDA3E0FEA3E0FF1208E8909D
:100CD40005BC120999E47B987A3AF9F8900592E0F8
:100CE400FCA3E0FDA3E0FEA3E0FF1208E89005C02A
:100CF4001209997F0A7E8B7D027C009005BCE0F886
:100D0400A3E0F9A3E0FAA3E0FBC3120988504D7FE6
:100D14001D7E637D017C009005BCE0F8A3A3A3E0E5
:100D24001209884037E47F6FFEFDFC9005C0E0F8AF
:100D3400A3E0F9A3E0FAA3E0FBD3120988401DE481
:100D44007FFAFEFDFC9005C0E0F8A3A3A3E012091E
:100D54008850099002187405F0021094E47B2AFA72
:100D6400F9F8900592E0FCA3E0FDA3E0FEA3E0FF08
:100D74001208E89005BC120999E47B307A75F9F8F9
:100D8400900592E0FCA3E0FDA3E0FEA3E0FF1208BF
:100D9400E89005C01209997F0A7E8B7D027C009041
:100DA40005BCE0F8A3E0F9A3E0FAA3E0FBC3120951
:100DB40088504D7F1D7E637D017C009005BCE0F86A
:100DC400A3A3A3E01209884037E47F6FFEFDFC90E3
:100DD40005C0E0F8A3E0F9A3E0FAA3E0FBD312090D
:100DE40088401DE47FFAFEFDFC9005C0E0F8A3A353
:100DF400A3E012098850099002187404F0021094B8
:100E0400E47B54FAF9F8900592E0FCA3E0FDA3E03A
:100E1400FEA3E0FF1208E89005BC120999E47B6088
:100E24007AEAF9F8900592E0FCA3E0FDA3E0FEA3C2
:100E3400E0FF1208E89005C01209997F0A7E8B7DB5
:100E4400027C009005BCE0F8A3E0F9A3E0FAA3E07B
:100E5400FBC3120988504D7F1D7E637D017C009089
:100E640005BCE0F8A3A3A3E01209884037E47F6F30
:100E7400FEFDFC9005C0E0F8A3E0F9A3E0FAA3E0CE
:100E8400FBD3120988401DE47FFAFEFDFC9005C0E7
:100E9400E0F8A3A3A3E01209885009900218740390
:100EA400F0021094E47B8CFAF9F8900592E0FCA32C
:100EB400E0FDA3E0FEA3E0FF1208E89005BC1209E0
:100EC400997BA07A8679017800900592E0FCA3E0F2
:100ED400FDA3E0FEA3E0FF1208E89005C012099903
:100EE4007F0A7E8B7D027C009005BCE0F8A3E0F9CC
:100EF400A3E0FAA3E0FBC3120988504D7F1D7E6373
:100F04007D017C009005BCE0F8A3A3A3E01209884E
:100F14004037E47F6FFEFDFC9005C0E0F8A3E0F9E4
:100F2400A3E0FAA3E0FBD3120988401DE47FFAFE94
:100F3400FDFC9005C0E0F8A3A3A3E01209885009C2
:100F44009002187402F0021094E47BA8FAF9F89065
:100F54000592E0FCA3E0FDA3E0FEA3E0FF1208E895
:100F64009005BC1209997BC07AD479017800900568
:100F740092E0FCA3E0FDA3E0FEA3E0FF1208E890EA
:100F840005C01209997F0A7E8B7D027C009005BC06
:100F9400E0F8A3E0F9A3E0FAA3E0FBC31209885048
:100FA4004D7F1D7E637D017C009005BCE0F8A3A30A
:100FB400A3E01209884037E47F6FFEFDFC9005C072
:100FC400E0F8A3E0F9A3E0FAA3E0FBD31209884018
:100FD4001DE47FFAFEFDFC9005C0E0F8A3A3A3E0A6
:100FE40012098850099002187401F0021094E47BED
:100FF4002D7A01F9F8900592E0FCA3E0FDA3E0FE50
:10100400A3E0FF1208E89005BC1209997BD87A473F
:1010140079037800900592E0FCA3E0FDA3E0FEA331
:10102400E0FF1208E89005C01209997F0A7E8B7DC3
:10103400027C009005BCE0F8A3E0F9A3E0FAA3E089
:10104400FBC312098850497F1D7E637D017C00909B
:1010540005BCE0F8A3A3A3E01209884033E47F6F42
:10106400FEFDFC9005C0E0F8A3E0F9A3E0FAA3E0DC
:10107400FBD31209884019E47FFAFEFDFC9005C0F9
:10108400E0F8A3A3A3E01209885005E4900218F045
:101094009005BC1209A5000000009005C01209A526
:0410A4000000000048
:0110A8002225
:0E4ABA00E4F5C7F5C5F5C675C3FF75C4FF2248
:08482D00900580E0FEA3E0FF0E
:10483500900218E04480F5C775C5038FC4EEF5C333
:0A48450075C65A75C6A500024ABAEE
:10445400900588E0FCA3E0FD900581E02DFF900528
:1044640080E03CFE74192DF58274023CF583E0FD76
:10447400900218E04480F5C775C5028FC4EEF5C3F9
:0E448400AF058FC275C65A75C6A500024ABAAA
:0C46FC00900581E02FFF900580E03EFE5D
:10470800900218E04480F5C775C5018FC4EEF5C363
:0C47180075C65A75C6A500AFC2024ABAA9
:103C7E009005AAEEF0A3EFF0A3EBF0A3EAF0A3E910
:013C8E00F045
:103C8F00E49005B1F0A3F09005AFE0FEA3E0FFA331
:103C9F00E0FCA3E0FDC39FEC9E50399005ABE02DF7
:103CAF00FF9005AAE03CFE1247089005ACE0FBA38D
:103CBF00E0FAA3E0F99005B1E0FCA3E0F5828C8374
:103CCF00EF1207239005B2E004F070BB9005B1E04E
:043CDF0004F080B3BA
:013CE30022BE
:0B1E7500900577EBF0A3EAF0A3E9F082
:101E8000E4900584F0A3F0A3EEF0A3EFF090057AC0
:101E9000E0FFA3E0A3CFF0A3EFF0900586E0FCA362
:101EA000E0FDECC313FB7A007F0025E0FE90058087
:101EB000F0A3EFF02400FFEE3402FEC3EF9DFFEE2F
:101EC0009CFE90057EF0A3EFF0D390057DE09F90FF
:101ED000057CE09E4003021FB7E4900588F0A3F064
:101EE000900588E0FEA3E0FFC3EE94025025124661
:101EF000FC900588E0FCA3E02419F58274023CF50F
:101F000083EFF0900589E004F070D5900588E00437
:101F1000F080CD12482D900580E0FEA3E0FFC39035
:101F20000587E09FFF900586E09E900582F0A3EF75
:101F3000F0E4900588F0A3F090057CE0FEA3E0FFBC
:101F4000900588E0FCA3E0FDC39FEC9E5047900500
:101F500085E02DFF900584E03CFE900577E0FBA333
:101F6000E0FAA3E0F98F828E831206E4FF900583E6
:101F7000E02DFD900582E03CFC74192DF582740281
:101F80003CF583EFF0900589E004F070AB90058894
:101F9000E004F080A3E4900588F0A3F0124454908C
:101FA0000589E004F07006900588E004F0C3900510
:101FB00088E0940240E622E4900588F0A3F09005C2
:101FC00088E0FEA3E0FFC3EE940250251246FC9089
:101FD0000588E0FCA3E02419F58274023CF583EF48
:101FE000F0900589E004F070D5900588E004F08059
:101FF000CD12482D900580E0FEA3E0FFC390058739
:10200000E09FFF900586E09E900582F0A3EFF0E44C
:10201000900588F0A3F090057EE0FEA3E0FF900518
:1020200088E0FCA3E0FDC39FEC9E5047900585E04F
:102030002DFF900584E03CFE900577E0FBA3E0FADD
:10204000A3E0F98F828E831206E4FF900583E02DD2
:10205000FD900582E03CFC74192DF58274023CF57C
:1020600083EFF0900589E004F070AB900588E00400
:10207000F080A3E4900588F0A3F012445490058901
:10208000E004F07006900588E004F0C3900588E055
:10209000940240E690057EE0FEA3E0FF900587E015
:1020A0002FF0900586E03EF0C390057DE09FF09014
:1020B000057CE09EF0900585E02FF0900584E03EE1
:0420C000F0021E9A72
:1039F800900606EFF024FC602024FC603024FC6074
:103A080040240C70517D037F13121C11E4FD7F14B8
:103A1800121C117D037F15803A7D037F23121C1130
:103A2800E4FD7F24121C117D037F2580267D037F02
:103A380075121C11E4FD7F76121C117D037F7780BF
:103A4800127D037F34121C11E4FD7F33121C117D9B
:103A5800037F32121C11900606E0540CFFE5A254B5
:053A6800F34FF5A2225E
:0F4A8D00E4FF1239F875CE5075CDC043CE4022EC
:10492C007DF47C018FCFE5CD30E704ED4C6007EDD5
:0B493C001D70F31C80F043CDC0AFCF16
:01494700224D
:0B28A200012A00410600004105FF0074
:1035C4009000051206E4FF900600E06F70030236D7
:1035D400581206CBFEC4540F7826F6EE540FFEF8AC
:1035E4007401088002C333D8FC7827F690000112D6
:1035F40006E4FEC4540F7823F6EE540FFEF874016B
:10360400088002C333D8FC7825F69000021206E441
:10361400FEC4540F7822F6EE540FFEF874010880AD
:1036240002C333D8FC7824F69000031206E4FEC4E7
:10363400540F7828F6EE540FFEF87401088002C384
:1036440033D8FC7829F69000041206E4782AF69020
:053654000600EFF0226A
:102C11009005C4EBF0A3EAF0A3E9F0A3EDF0900571
:102C2100C4E0FBA3E0FAA3E0F9ED1207119005C897
:102C3100E0FF9005C4E0FBA3E0FAA3E0F9900001F6
:102C4100EF1207239005C9E09000021207239005B7
:102C5100CAE09000031207239005CBE09000041214
:102C610007239005C7E0FF7D03121C119005CBE0FF
:102C71009005C730E106E0FF7D018004E0FFE4FD3F
:102C81001230FA9005CBE030E7149005C8E0FF7DE3
:102C910003121C119005C8E0FF7D011230FA900566
:102CA100CBE030E6149005C9E0FFE4FD121C119061
:102CB10005C9E0FF7D011230FA9005CBE030E51443
:102CC1009005CAE0FF7D03121C119005CAE0FF7D4B
:102CD100011230FA9005FFE004FFF09005C4E0FB1B
:102CE100A3E0FAA3E0F9900005EF1207230235C42F
:10004600900600E06F6073EDC4540F7826F6ED5409
:100056000FFEF87401088002C333D8FC7827F6EB4C
:10006600C4540F7823F6EB540FFEF874010880028F
:10007600C333D8FC7825F69005D7E0FEC4540F7834
:1000860022F6EE540FFEF87401088002C333D8FC42
:100096007824F69005D8E0FEC4540F7828F6EE547E
:1000A6000FFEF87401088002C333D8FC7829F69055
:0B00B60005D9E008F6900600EFF022EC
:0D3487009005E1EDF0A3EBF09005E0EFF013
:103494007D03121C119005E4E09005E030E106E0A4
:1034A400FF7D018004E0FFE4FD1230FA9005E4E0C2
:1034B40030E7149005E1E0FF7D03121C119005E153
:1034C400E0FF7D011230FA9005E4E030E614900547
:1034D400E2E0FFE4FD121C119005E2E0FF7D011221
:1034E40030FA9005E4E030E5149005E3E0FF7D0355
:1034F400121C119005E3E0FF7D011230FA9005FFE4
:10350400E004F0FCFF9005E0E0FDA3E0FBA3E09005
:1035140005D7F09005E3E09005D8F09005E4E0903D
:0635240005D9F00200468B
:0520C4009005F4EFF0AF
:1020C900E49005F7F0782AE6782630E109E6FF087A
:1020D900E6FD7B018007E6FF08E6FDE4FB12352AF1
:1020E900782AE654306430700C7828E6FF08E6FD5B
:1020F900E4FB12352A782AE620E2030221B790058B
:10210900F57480F0E4A3F09005F6E0C394087480B8
:10211900948040030222679005F5E0FF9005F4E002
:102129005F7823600AE6FF7825E6FD7B018008E6F3
:10213900FF7825E6FDE4FB12352A7826E6FF08E656
:10214900FD12434E782AE630E6225401701E7822A9
:10215900E6FF7824E6FD123E67EF60109005F7E090
:10216900FF9005F5E0FEEF4E9005F7F07826E6FFC3
:1021790008E6FD12434E782AE630E624540164014C
:10218900701E7822E6FF7824E6FD123E67EF6010A4
:102199009005F7E0FF9005F5E0FEEF4E9005F7F0AA
:1021A9009005F5E0C313F0A3E004F00221109005B7
:1021B900F57401F0E4A3F09005F6E0C39408748087
:1021C900948040030222679005F5E0FF9005F4E052
:1021D9005F7823600AE6FF7825E6FD7B018008E643
:1021E900FF7825E6FDE4FB12352A7826E6FF08E6A6
:1021F900FD12434E782AE630E6225401701E7822F9
:10220900E6FF7824E6FD123E67EF60109005F7E0DF
:10221900FF9005F5E0FEEF4E9005F7F07826E6FF12
:1022290008E6FD12434E782AE630E624540164019B
:10223900701E7822E6FF7824E6FD123E67EF6010F3
:102249009005F7E0FF9005F5E0FEEF4E9005F7F0F9
:102259009005F5E025E0F0A3E004F00221C0782A1A
:10226900E654306430700C7828E6FF08E6FD7B01FF
:0822790012352A9005F7E0FF81
:01228100223A
:103DAD00F0EF543FFFE054C04FF090FE82E4F0FF7F
:103DBD00EF24F0601724F0602224F0602D24307081
:103DCD003643913043923090FE1180094395304334
:103DDD00963090FE12E04430F0801C43E1C043E287
:103DED00C090FE17E044C0F0800D43B10C43B20CFF
:103DFD0090FE13E0440CF0EF5430FFE5BA54CF4F72
:033E0D00F5BA22E1
:1048B200900607E06F6018EFF090FE80E0547FF002
:1048C200EF5430FFE5BA54CF4FF5BAE04480F022FE
:10430800EF24F0601724F0602124F0602B24307033
:10431800345391CF5392CF90FE1180095395CF53C8
:1043280096CF90FE12E054CFF02253E13F53E23F84
:1043380090FE17E0543FF02253B1F353B2F390FECE
:0643480013E054F3F02223
:103EBC00E47B02FAF9F8900592E0FCA3E0FDA3E0A4
:103ECC00FEA3E0FF1208E87BA07A86790178001245
:103EDC0008E8EF24FCFFEE34FFFEED34FFFDEC347C
:103EEC00FFFCE47B02FAF9F81208E8EF543FFF906C
:103EFC00FE80E04440123DADE4900607F090FE8059
:043F0C00E04480F01D
:013F1000228E
:103F1100E47B02FAF9F8900592E0FCA3E0FDA3E04E
:103F2100FEA3E0FF1208E87BA07A867901780012EF
:103F310008E8EF24FCFFEE34FFFEED34FFFDEC3426
:103F4100FFFCE47B02FAF9F81208E8EF543FFF9016
:103F5100FE80E054BF123DADE4900607F090FE8074
:043F6100E04480F0C8
:013F65002239
:0300C3000249638C
:10496300C0E0C083C08290FE82E030E606E054BF20
:0A497300F0C20DD082D083D0E032F4
:100026007F0AD20D90FE817481F0300D06AE071F57
:03003600EE70F772
:0100390022A4
:104A11007F0AD20D90FE817486F0300D06AE071F1D
:034A2100EE70F73D
:014A2400226F
:1049B0007E0A90FE86EFF0D20D90FE817482F03078
:0849C0000D06AF061EEF70F7B3
:0149C80022CC
:1049C9007F0AD20D90FE82E4F090FE817485F0306A
:0849D9000D06AE071FEE70F79A
:0149E10022B3
:10497D007F0AD20D90FE827401F090FE817485F055
:09498D00300D06AE071FEE70F7B5
:0149960022FE
:1049E2007F0AD20D90FE817484F0300D06AE071F4F
:0849F200EE70F790FE87E0FF74
:0149FA00229A
:1048F1007F0AD20D90FE817483F0300D06AE071F42
:0D490100EE70F790FE82E05402C31324FF15
:01490E002286
:0628AD00013000012F00C4
:1041E5009000021206E4FF782F66603D1206CBFEB2
:1041F500C4540F782DF6EE540FFEF87401088002B2
:10420500C333D8FC782EF69000011206E4FEC454A0
:104215000F782BF6EE540FFEF87401088002C333B5
:0A422500D8FC782CF6782FA60722AB
:1036E5009005E5EBF0A3EAF0A3E9F0A3EDF0900572
:1036F500E5E0FBA3E0FAA3E0F9ED1207119005E977
:10370500E0FF9005E5E0FBA3E0FAA3E0F9900001F6
:10371500EF1207239005E8E0FF7D02121C119005CA
:10372500E9E0FF7D02121C119005E8E0FF7D011222
:103735002F6F9005E9E0FF7D01122F6F9005E8E0FE
:10374500FF7D011230FA9005E9E0FF7D011230FAA4
:10375500783006E6FF9005E5E0FBA3E0FAA3E0F983
:0A376500900002EF1207230241E575
:10450B00782FE66F6034EDC4540F782DF6ED540F11
:10451B00FEF87401088002C333D8FC782EF6EBC486
:10452B00540F782BF6EB540FFEF87401088002C37E
:0B453B0033D8FC782CF6782FA607225E
:0A406000900602EDF0900601EFF06B
:10406A007D02121C11900602E0FF7D02121C1190C3
:10407A000601E0FF7D01122F6F900602E0FF7D012D
:10408A00122F6F900601E0FF7D011230FA900602AE
:10409A00E0FF7D011230FA783006E6FCFF90060157
:0840AA00E0FDA3E0FB02450B61
:1040B200782BE6FF08E6FD7B0112352A782DE6FF14
:1040C20008E6FD7B0112352A782BE6FF08E6FD1291
:1040D2003E67EF70037FFF22782BE6FF08E6FD12B2
:1040E200434E782BE6FF08E6FD123E67EF6401704F
:1040F200037FFF22782DE6FF08E6FD12434E7F0084
:01410200229A
:10467800782BE6FF08E6FDE4FB12352A782DE6FFE5
:1046880008E6FDE4FB12352A782DE6FF08E6FD1260
:0C469800434E782BE6FF08E6FD02434E7F
:1046A400782DE6FF08E6FDE4FB12352A782BE6FFB9
:1046B40008E6FDE4FB12352A782DE6FF08E6FD1234
:0C46C400434E782DE6FF08E6FD02434E51
:1046D000782DE6FF08E6FDE4FB12352A782BE6FF8D
:1046E00008E6FD7B0112352A782DE6FF08E6FD126B
:0C46F000434E782DE6FF08E6FD02434E25
:10427900782DE6FF08E6FDE4FB12352A782BE6FFE8
:1042890008E6FD7B0112352A782DE6FF08E6FD12C6
:10429900434E782BE6FF08E6FD123E67EF6401788E
:1042A9002D700BE6FF08E6FD12434E7FFF22E6FF65
:0942B90008E6FD12434E7F0022CD
:053900009005FCEFF052
:103905009005FEF0782B30E709E6FF08E6FD7B0120
:103915008007E6FF08E6FDE4FB12352A782DE6FF71
:1039250008E6FDE4FB12352AE49005FDF09005FD5F
:10393500E0C394087480948050419005FCE0FF90AA
:1039450005FEE06F30E70A782BE6FF08E6FD124337
:103955004E782DE6FF08E6FD12434E9005FCE090FB
:1039650005FEF025E09005FCF0782DE6FF08E6FD64
:0B39750012434E9005FDE004F080B20C
:013980002224
:103D4900E4900604F0782BE6FF08E6FD7B011235C6
:103D59002AE4900603F0900603E0C3940874809463
:103D690080503BA3E025E0F0782DE6FF08E6FD7BD7
:103D79000112352A782BE6FF08E6FD123E67EF644B
:103D8900017007900604E04401F0782DE6FF08E68B
:103D9900FDE4FB12352A900603E004F080B8900692
:033DA90004E0FF34
:013DAC0022F4
:0B3B46009005EAEBF0A3EAF0A3E9F021
:103B5100E49005EEF09005EDF09005EDE0C3948062
:103B61007480948050431240B29005EDE025E0FF4F
:103B7100123900124279EF70259005EDE025E0FF42
:103B81009005EAE0FBA3E0FAA3E0F99005EEE0F589
:103B910082758300EF1207239005EEE004F01246D0
:0E3BA100789005EDE004F080B09005EEE0FFB6
:013BAF0022F3
:10484F0075DE2F78EFE6FC08E6FDE4120271E4FB5B
:10485F00FA797A78441201CF9005F812099943BC7E
:02486F008022A5
:10487100EF540FFFE5BC54F04FF5BC43BC400000C2
:10488100E5BC30E5FB53BCDFAFBDEFFEADBEEDFFD8
:014891002204
:1047BF00124871AD07AC06E41202719005F0E0F8F3
:1047CF00A3E0F9A3E0FAA3E0FB1200C6E4FBFA7939
:0647DF008078450201CFC5
:034B2500D2AD22EC
:034B2800C2AD22F9
:104393007F0F124871EF4E7005FFFEFDFC22AD0743
:1043A300AC06E4120271C004C005C006C007E4FFF6
:1043B300FE7D807C459005F8E0F8A3E0F9A3E0FAE0
:1043C300A3E0FB1200C6D003D002D001D00012013B
:0143D300CF1A
:0143D40022C6
:0F4A9C0075E7C175E63490FEAEE4F043E6802284
:0B4AF600E5E630E0037F01227F002294
:04003E0043E68022F3
:044B1E0053E67F22B9
:104A4C00E4F5D8F5E9F5F975D9087F10122B07D2E2
:024A5C00DE2258
:102B0700900608EFF0E0FF5430FEE5A254CF4EF5F3
:102B1700A2EF24F0603124F0604F24F0606D243080
:102B27006003022BB5E4FD7F12121C11E4FD7F1731
:102B3700121C11E4FD7F16121C11E4FD7F15121CF7
:102B470011E4FD7F148064E4FD7F22121C11E4FD73
:102B57007F23121C11E4FD7F24121C11E4FD7F2545
:102B6700121C11E4FD7F268042E4FD7F74121C11C4
:102B7700E4FD7F70121C11E4FD7F71121C11E4FD4E
:102B87007F72121C11E4FD7F738020E4FD7F3512F4
:102B97001C11E4FD7F33121C11E4FD7F32121C115E
:102BA700E4FD7F31121C11E4FD7F30121C119006E9
:102BB70008E024F0601C24F060332420704BE4FD0F
:102BC7007F12121C11E4FD7F11121C11E4FD7F100E
:102BD7008012E4FD7F34121C11E4FD7F35121C11B5
:102BE700E4FD7F36121C11E4FD7F378019E4FD7F79
:102BF70024121C11E4FD7F25121C11E4FD7F26120F
:0A2C07001C11E4FD7F27121C1122AE
:10461F00ED14B40700502590463475F003A4C583FC
:10462F0025F0C5837302464A02464A02464A0246AD
:0C463F004A02464A02464A02464B22222A
:01464B00224C
:014B2D002265
:0D2434009005DBECF0A3EDF09005DAEFF081
:10244100E49005DEF09005DFE0FFD39404748094FE
:102451008040030225D0EF940074809480500302E1
:1024610025D0E024FE606514700302251E1470035C
:10247100022570240360030225D0C39005DCE0949B
:10248100E89005DBE094034004E4FB802E9005DB3B
:10249100E0FEA3E0FBC374E89BFF74039EFEE4949B
:1024A10000FDE49400FCE47B40FAF9F812085DE4D5
:1024B1007BE87A03F9F81208E8AB07EB543F900583
:1024C100DDF0EB20E6030225D002256BC39005DC8D
:1024D100E094E89005DBE094034004E4FB802E9057
:1024E10005DBE0FEA3E0FBC374E89BFF74039EFEE3
:1024F100E49400FDE49400FCE47B80FAF9F812080E
:102501005DE47BE87A03F9F81208E8AB07EB547F46
:102511009005DDF0EB20E7030225D0804DC3900547
:10252100DCE094E89005DBE094034005E4FAFB80ED
:10253100309005DBE0FEA3E0FBC374E89BFF74036E
:102541009EFEE49400FDE49400FCE4FB7A01F9F8BA
:1025510012085DE47BE87A03F9F81208E8AA06ABF1
:10256100079005DDEBF0EA30E065A37402F022C3C9
:102571009005DCE094E89005DBE094034005E4FA83
:10258100FB80309005DBE0FEA3E0FBC374E89BFF1A
:1025910074039EFEE49400FDE49400FCE4FB7A04E1
:1025A100F9F812085DE47BE87A03F9F81208E8AA61
:1025B10006AB079005DDEBF0EAC4F854F0C8EBC4B4
:0F25C100540F485430A3F0EA30E204E04402F033
:0125D00022E8
:03003B00024B185D
:064B180030DF02C2DF32B3
:104A390090FFF27409F090FFF0E4F0A37464F0437E
:034A4900FE8022CA
:052EA400900596EFF01F
:102EA90090059B7401F090059BE0FFC3941074801A
:102EB9009480503DAB07E4FAF9F8900592E0FCA341
:102EC900E0FDA3E0FEA3E0FF1208E8E47BFF7A7FC0
:102ED900F9F81208E8900597E0F8A3E0F9A3E0FAF9
:102EE900A3E0FBD3120988500890059BE004F08009
:102EF900B590059BE0FBE4FAF9F8900592E0FCA394
:102F0900E0FDA3E0FEA3E0FF1208E8900597E0F8D2
:102F1900A3E0F9A3E0FAA3E0FB1208E890059C12EC
:102F29000999E47FFF7E7FFDFC90059CE0F8A3E012
:102F3900F9A3E0FAA3E0FBD312098850289005967B
:102F4900E0702253FE7F90059BE0C3940190FFF24D
:102F5900F090059CA3A3E0FFA3E090FFF0CFF0A3BE
:052F6900EFF043FE80C3
:012F6E002240
:0200C100EF222C
:1000C600EC4D6011E8497017ED33EC3304600DE434
:1000D600FCFFFEFD22E933E8330470F80203161232
:1000E60002E158046009E4CC248150062850090234
:1000F600032028400302031DC0E0EB4A7044B98088
:1001060006D0E0FB02030CEF4E701CBD8008EBFF2F
:10011600EAFEE9FD80EBE98DF0A4FEE5F00201AF11
:10012600E9CDF9EAFEEBFFEF89F0A4FCE5F0CE8914
:10013600F0A42EFFE435F0CD89F0A42DFEE435F0D1
:100146008067EF4E7005BD80D780C3EF8BF0A4ACFF
:10015600F0EE8BF0A42CFCE435F0F8EF8AF0A42C3A
:10016600E5F038FCE433CB8DF0A42CFCE5F03BF84D
:10017600EE8AF0A42CFCE5F038F8E433CF89F0A43D
:100186002CFCE5F038CF3400CE89F0A42FFFE5F043
:100196003EFEE433C98DF0A42EFEE5F039CD8AF09B
:1001A600A42FFFE5F03EFEE43DFD33D0E0FB500713
:1001B6000BBB000F020320EC2CFCEF33FFEE33FEEB
:0601C600ED33FD0202F81A
:1001CC00020320EC5D046005E85904700302031679
:1001DC001202E1580460F6EC4860F2EC7004FDFE8B
:1001EC00FF22C860DB2481C85009C3986002500606
:1001FC0002031D9850CAF582E9294B4A7005AB825F
:10020C0002030C75F0007C1A7880C3EF9BEE9AED1C
:10021C0099400DC3EF9BFFEE9AFEED99FDE842F07D
:10022C00DC23ACF0D0E0FFD0E0FED0E0FDAB8220D0
:10023C00E7101BEB60BAEC2CFCEF33FFEE33FEED5A
:10024C0033FD0202F8E803F830E705C0F075F00062
:10025C00EF2FFFEE33FEED33FD40B830E7C280AA3E
:10026C0075F020800E75F010800575F0087D007E0D
:10027C00007F003392D530D50312097AEC3340104D
:10028C00EF33FFEE33FEED33FDEC33FCD5F0ED2216
:0E029C00E5F0247EA2D513CC92E7CDCEFF2252
:1002AA00EDD2E7CD33EC3392D524814006E4FFFE4C
:1002BA00FDFC22FCE4CFCECDCC24E0501174FF80AB
:1002CA00EDC3CC13CCCD13CDCE13CECF13CF047048
:0702DA00F030D5DE02097AC5
:10422F009004DEE0FFA3E0FEA3E0CF9004E7F0A34D
:10423F00EEF0A3EFF09004E1E0CBF0A3E0CAF0A31F
:10424F00E0C9F07F229004EAAD82AC831206CB8DD9
:10425F00828C83F0A309E970010ADFEC9004E1E09E
:0A426F00FBA3E0FAA3E0F902110E30
:1002E100E9D2E7C933E833F892D5EDD2E7CD33EC63
:0702F10033FC5002B2D522DC
:1002F800EC30E7100FBF000C0EBE00080DBD000467
:100308000BEB6014A2D5EB13FCED92E7FD2274FF12
:10031800FCFDFEFF22E480F8A2D574FF13FC7D806B
:03032800E480EF7F
:1010A900E51624E7F582E43404F583E00516229079
:1010B90004E43009039004E7E475F0011209D6024B
:1010C90006CB2002E97F2ED2028018EF540F24901C
:1010D900D43440D4FF30060BEF24BFB41A005003B8
:1010E9002461FFE51760021517051AE51A70020554
:1010F9001930090E9004E4E475F0011209D6EF02E3
:1011090007110247727403D2098003E4C209F51674
:101119009004E41209EDE4F517F519F51AE51760DD
:10112900077F201210EC80F57518FFC203C202C2B6
:1011390004C205C207C208C20A1210B8FF700D30F6
:1011490009057F001210FDAF1AAE1922B4255FC23E
:10115900D5C2061210B8FF24D0B40A00501A75F08F
:101169000A781730D50508B6FF0106C6A426F62069
:10117900D5047002D20580D924CFB41A00EF5004E7
:10118900C2E5D2060213EFD20380C6D20280C0D2D2
:101199000480BCD2D580BAD20780B47F201210EC6B
:1011A9002004077401B5170040F11210A9FF1210AD
:1011B900EC021126D20AD20880951210A9FB12104E
:1011C900A9FA1210A9F94A4B700679ED7A147BFF36
:1011D90020042EE517602A7E008E82758300120690
:1011E900E460060EEE651870F0C2D5EBC0E0EAC007
:1011F900E0E9C0E0EE121450D0E0F9D0E0FAD0E016
:10120900FB1206CBFF60AAEBC0E0EAC0E0E9C0E050
:101219001210ECD0E02401F9D0E03400FAD0E0FB60
:10122900E5180460DCD518D98087D20480A212148D
:101239003260F7E51870010412032BA918600DE557
:1012490018600914F5181214DAEF60F3EA30E702AE
:10125900F404C3995079EAF425180430E701E40449
:10126900F518800D12143260C1EA05182518120309
:101279002BEA900513F030E701E4251804D518048A
:1012890020070114121450E4C0E01214DA90051377
:10129900E0601320E70714F01210D4802204F0D084
:1012A900E014C0E07F001210D4E51860071210CBDB
:1012B9001518800B3007031210CBD0E0021126D08D
:1012C900E00480C4121432609EE5180412032B90C6
:1012D9000513EAF0E518200702600104240412143A
:0112E90050B4
:1012EA0074FF04C0E01214DA1210D4E518200702C1
:1012FA0060031210CBD0E0B518E87F451210DE90DB
:10130A000513E07F2B30E7047F2DF404C0E01210B0
:10131A00ECD0E075F00A84C0F01210D5D0E01210BB
:10132A00D5021126791080027908C208C20A8008FB
:10133A00D2D5790A8004790AC2D5E518047002F573
:10134A0018E4FAFDFEFF1210A9FC7B082003131211
:10135A0010A9FD7B1030020A1210A9FE1210A9FF73
:10136A007B20EC3382D592D55013C3E43002069F1A
:10137A00FFE49EFEE42003039DFDE49CFCE4CBF81D
:10138A00C203EC700CCFCECDCCE824F8F870F38011
:10139A0017C3EF33FFEE33FEED33FDEC33FCEB33D3
:1013AA00FB994002FB0FD8E9EB300305F8D0E0C403
:1013BA0048B203C0E00AEC4D4E4F78207B0070C261
:1013CA00EAB5180040BCC0E0121452D0F0D0E020B8
:1013DA000304C4C0E0C4B203C0F01210D5D0F0D5E3
:1013EA00F0EB0211261209F611C353132E58119469
:1013FA004C11904213324F133A44133A4911A943FC
:10140A00134055126D4612CD45123747150D50112E
:10141A00982D119C2E11BF2B11A02311BD2014F65B
:10142A002A115848000011B7E518B4FF03751806C9
:10143A001210A9FC1210A9FD1210A9FE1210A9FF80
:10144A0090050C020368790AA2D520051430070911
:10145A00B910020404B9080104A2D52008025001F7
:10146A00042004689204B517005034C0E07F20308D
:10147A0005197F30A20472087207500F1214A9C20C
:10148A0004C208C207C20A7F30800F300703E9C0CE
:10149A00E01210EC300703D0E0F9D0E0B517CC30F9
:1014AA0007177F30B9100C1210EC7F583006077FEF
:1014BA00788003B908031210EC3004057F2D02105E
:1014CA00EC7F20200AF87F2B2008F322920480CF99
:1014DA007F00B40700500B240CF582E43405F58331
:1014EA00E0FF22286E756C6C2900D2031210A93015
:1014FA0003F8C203781730D50108F60211582D50A7
:10150A004349581210A92403B405004001E4901578
:10151A0008931210DD743A1210DDD2057517040211
:02152A00132E7E
:10032B00F920E73624F950037907E4F42402FBE5BE
:10033B0082158270021583DBF6E024FB501BE9600B
:10034B0014E4F0E582158270021583E004F0B40A20
:0D035B0008E4F0D9EE7401F00A22C2D522A8
:10036800ED33EC3392D5FA602AB4FF33EDC2E77B64
:10037800FF60067A03798DE4227A03799620D50402
:100388007A037991224E614E002B494E46002D4941
:100398004E4600E47A08F0A3DAFC7B00740722C01A
:1003A80083C082ECC0E0EDC0E0EEC0E0EFC0E0EA60
:1003B80075F010A4CAABF075F04DA42BFBE435F032
:1003C800FCEA2410FAEB34C5FBEC34D9FCEDC2E7A7
:1003D800FF75F056A4F42411C5F0F434C58FF0A4C9
:1003E8002AE5F03BE43CF020E714120595D0E0FF45
:1003F800D0E0FED0E0FDD0E0FC1201CF8014F40480
:10040800120595D0E0FFD0E0FED0E0FDD0E0FC1270
:1004180000C6D082D083E0FAEDD2E7CD33EC3324A6
:1004280082FBE4C3CF33CFCE33CECD33CD33DBF332
:100438007B0775F00A846004F0A31B0AE5F0F0A3BB
:100448008FF0740AA4FFACF08EF0740AA42CFEACF2
:10045800F050010C8DF0740AA42CFDE435F0F0A3E3
:05046800DBDE74072239
:10046D00020316E86480F8E933E83360110460F0A4
:10047D00ED33EC337009E8FCE9FDEAFEEBFF2204F5
:10048D0060DED3EB9FEA9EE99DE8C2E78CF0C2F7F0
:10049D0095F0400CE8CCF8E9CDF9EACEFAEBCFFBBC
:1004AD001202E185D0F05804700320D5B3E8047032
:1004BD00075002B2D502032092D5EC0460F7E4CCCC
:1004CD00C0E0C398F8603B94186008400DD0E0FB85
:1004DD000202F8E4FBFAC9FC8028E830E406E4C91E
:1004ED00FBE4CAFCE830E305E4C9CACBFCE85407D9
:1004FD006010F8C3E913F9EA13FAEB13FBEC13FCE4
:10050D00D8F130F52FC3E49CFCEF9BFFEE9AFEED86
:10051D0099FDD0E0FBEF4E4D4C701222DB03020330
:10052D001DEC2CFCEF33FFEE33FEED33FDED30E72C
:10053D00EB0202F8EF2BFFEE3AFEED39FDD0E0FBBA
:10054D0050130BBB0003020320ED13FDEE13FEEF62
:08055D0013FFEC13FC0202F88D
:100565003F8000004120000042C80000447A00009E
:10057500461C400047C35000497424004B18968020
:100585004CBEBC205A0E1BCA6753C21C749DC5AE17
:10059500FB60065407601C23231205C3EB54386027
:1005A500091205AF1205BE1200C6ECF8EDF9EEFA18
:1005B500EFCB22EB1205BE80F1543803241C9005C5
:1005C50065FE93FC0EEE93FD0EEE930ECE93FF2289
:1036650002152CE493A3F8E493A34003F68001F23A
:1036750008DFF48029E493A3F85407240CC8C33366
:10368500C4540F4420C8834004F456800146F6DF35
:10369500E4800B010204081020408090276BE47E33
:1036A500019360BCA3FF543F30E509541FFEE4932A
:1036B500A360010ECF54C025E060A840B8E493A3F1
:1036C500FAE493A3F8E493A3C8C582C8CAC583CA1C
:1036D500F0A3C8C582C8CAC583CADFE9DEE780BED4
:0128B3000024
:1005D500E709F608DFFA8046E709F208DFFA803E08
:1005E50088828C83E709F0A3DFFA8032E309F608F5
:1005F500DFFA8078E309F208DFFA807088828C835D
:10060500E309F0A3DFFA806489828A83E0A3F60810
:10061500DFFA805889828A83E0A3F208DFFA804CEA
:1006250080D280FA80C680D4806980F280338010C1
:1006350080A680EA809A80A880DA80E280CA80332A
:1006450089828A83ECFAE493A3C8C582C8CCC583A2
:10065500CCF0A3C8C582C8CCC583CCDFE9DEE78072
:100665000D89828A83E493A3F608DFF9ECFAA9F0F1
:10067500EDFB2289828A83ECFAE0A3C8C582C8CC47
:10068500C583CCF0A3C8C582C8CCC583CCDFEADE60
:10069500E880DB89828A83E493A3F208DFF980CCC2
:1006A50088F0EF60010E4E60C388F0ED2402B404BB
:1006B5000050B9F582EB2402B4040050AF23234562
:0606C5008223900625735C
:1006CB00BB010689828A83E0225002E722BBFE022D
:0906DB00E32289828A83E4932260
:1006E400BB010CE58229F582E5833AF583E02250CB
:1006F40006E92582F8E622BBFE06E92582F8E22215
:0D070400E58229F582E5833AF583E493222E
:10071100BB010689828A83F0225002F722BBFE01C7
:02072100F322C1
:10072300F8BB010DE58229F582E5833AF583E8F00C
:10073300225006E92582C8F622BBFE05E92582C8B8
:02074300F222A0
:10074500EF8DF0A4A8F0CF8CF0A428CE8DF0A42EC8
:02075500FE2282
:10075700BC000BBE0029EF8DF084FFADF022E4CC86
:10076700F875F008EF2FFFEE33FEEC33FCEE9DEC4F
:10077700984005FCEE9DFE0FD5F0E9E4CEFD22ED95
:10078700F8F5F0EE8420D21CFEADF075F008EF2FDF
:10079700FFED33FD4007985006D5F0F222C398FDD0
:0507A7000FD5F0EA226D
:1007AC00C2D5EC30E709B2D5E4C39DFDE49CFCEE68
:1007BC0030E715B2D5E4C39FFFE49EFE120757C382
:1007CC00E49DFDE49CFC800312075730D507C3E47D
:0607DC009FFFE49EFE22D7
:1007E200A3F8E0C5F025F0F0E582158270021583CA
:0607F200E0C838F0E82227
:1007F800BB0110E58229F582E5833AF583E0F5F03F
:10080800A3E0225009E92582F886F008E622BBFE1B
:100818000AE92582F8E2F5F008E222E5832AF58361
:08082800E993F5F0A3E9932226
:10083000F8BB0111E58229F582E5833AF583E8F0FA
:10084000E5F0A3F0225009E92582C8F608A6F022B7
:0D085000BBFE09E92582C8F2E5F008F2229E
:10085D00E88FF0A4CC8BF0A42CFCE98EF0A42CFC3A
:10086D008AF0EDA42CFCEA8EF0A4CDA8F08BF0A4B8
:10087D002DCC3825F0FDE98FF0A42CCD35F0FCEB17
:10088D008EF0A4FEA9F0EB8FF0A4CFC5F02ECD39DC
:0F089D00FEE43CFCEAA42DCE35F0FDE43CFC2249
:1008AC0075F008758200EF2FFFEE33FECD33CDCC03
:1008BC0033CCC58233C5829BED9AEC99E582984086
:1008CC000CF582EE9BFEED9AFDEC99FC0FD5F0D663
:1008DC00E4CEFBE4CDFAE4CCF9A88222B800C1B98D
:1008EC000059BA002DEC8BF084CFCECDFCE5F0CBCB
:1008FC00F97818EF2FFFEE33FEED33FDEC33FCEB04
:10090C0033FB10D703994004EB99FB0FD8E5E4F9BE
:10091C00FA227818EF2FFFEE33FEED33FDEC33FCAB
:10092C00C933C910D7059BE99A4007EC9BFCE99A9F
:10093C00F90FD8E0E4C9FAE4CCFB2275F010EF2FE4
:10094C00FFEE33FEED33FDCC33CCC833C810D707E4
:10095C009BEC9AE899400AED9BFDEC9AFCE899F81F
:0E096C000FD5F0DAE4CDFBE4CCFAE4C8F922B2
:0E097A00C3E49FFFE49EFEE49DFDE49CFC228E
:10098800EB9FF5F0EA9E42F0E99D42F0E89C45F0C5
:01099800223C
:0C099900ECF0A3EDF0A3EEF0A3EFF022D1
:1009A500A8828583F0D083D0821209BC1209BC12BB
:1009B50009BC1209BCE473E493A3C583C5F0C583E0
:1009C500C8C582C8F0A3C583C5F0C583C8C582C89C
:0109D50022FF
:1009D600F8E0FBA3A3E0F925F0F0E58215827002AA
:0709E6001583E0FA38F0224E
:0909ED00EBF0A3EAF0A3E9F0220B
:1009F600D083D082F8E4937012740193700DA3A390
:100A060093F8740193F5828883E4737402936860A3
:060A1600EFA3A3A380DFA3
:100A1C00EC8EF0A4CCC5F0CCCDF8EFA4CEC5F02D67
:100A2C00FDE43CFCE8A42EC8C5F03DFDE43CFCEF25
:0D0A3C00A4FFE5F028FEE43DFDE43CFC22B3
:10477200EFB40A07740D12477D740A309811A89994
:10478200B8130CC2983098FDA899C298B811F630A7
:0747920099FDC299F599227F
:103ADB009005B3EBF0A3EAF0A3E9F09005B9EBF096
:103AEB00A3EAF0A3E9F09005B3E0FBA3E475F001C2
:103AFB001207E2A9F0FA1206CB70EB9005B474FF33
:103B0B00F5F0120B5E9005B6E0FBA3E475F0011225
:103B1B0007E2A9F0FA1206CBFF9005B3E0FBA3E492
:103B2B0075F0011207E2A9F0FAEF12071170D690A7
:0B3B3B0005B9E0FBA3E0FAA3E0F922CB
:103035009005A0EBF0A3EAF0A3E9F0E49005A8F071
:10304500A3F0D39005A7E094009005A6E0648094D2
:103055008050030230EE9005A0E0FBA3E0FAA3E068
:10306500F99005A8E0FEA3E0F5828E831206E460E0
:10307500109005A9E004F070DD9005A8E004F0804B
:10308500D59005A3E0FBA3E0FAA3E0F91206CB6017
:103095003E9005A3A3E475F0011207E2A9F0FA1228
:1030A50006CBFF9005A0E0FBA3E0FAA3E0F99005AD
:1030B500A8E475F0011207E285F082F583EF1207A7
:1030C500239005A674FFF5F0120B5E45F070B290E3
:1030D50005A0E0FBA3E0FAA3E0F99005A8E0FEA3B4
:1030E500E0F5828E83E41207239005A0E0FBA3E0C0
:0530F500FAA3E0F9223E
:10376F009005CCEBF0A3EAF0A3E9F09005CFE0FBD6
:10377F00A3E0FAA3E0F91206CBFE9005CCE0FBA381
:10378F00E0FAA3E0F91206CBFF6E702AEF600E90FD
:10379F0005D274FFF5F0120B5E45F070037F002227
:1037AF009005CDE475F001120B5E9005D0E475F035
:1037BF0001120B5E80B59005CCE0FBA3E0FAA3E00D
:1037CF00F91206CBFDD3EE6480F8ED6480984003C8
:1037DF007F01229005CFE0FBA3E0FAA3E0F91206E8
:0737EF00CBFFC3ED9FFF2299
:100A4900E709F60870FA8046E709F20870FA803E6D
:100A590088828C83E709F0A370FA807EE309F6089F
:100A690070FA8076E309F20870FA806E88828C83C6
:100A7900E309F0A370FA806289828A83E0A3F60809
:100A890070FA805689828A83E0A3F20870FA804A54
:100A990080D280FA80C680D4806580F2803180104F
:100AA90080A680EA809A80A880DA80E280CA8031B4
:100AB90089828A83ECFAE493A3C8C582C8CCC5832A
:100AC900CCF0A3C8C582C8CCC583CC70E9800D8998
:100AD900828A83E493A3F60870F9ECFAA9F0EDFB96
:100AE9002289828A83ECFAE0A3C8C582C8CCC5836F
:100AF900CCF0A3C8C582C8CCC583CC70EA80DD8997
:100B0900828A83E493A3F20870F980CE88F0ED24F9
:100B190002B4040050C4F582EB2402B4040050BAB4
:090B29002323458223900A9973ED
:10000E00E4FFFE1206CB600C0FEF70010E09E970D3
:05001E00F20A80EF2250
:1031BD00900435EBF0A3EAF0A3E9F0A3E0FBA3E064
:1031CD00FAA3E0F91206CB7003023269900435E0E0
:1031DD00FBA3E0FAA3E0F91206CB7003023275905F
:1031ED000438E0F9A3E0FAA3E0A3C9F0A3EAF0A341
:1031FD00E9F0900435A3E0FAA3E0F990043EEBF07A
:10320D00A3EAF0A3E9F090043BE0FBA3E0FAA3E00E
:10321D00F91206CBFF602690043EE0FBA3E0FAA373
:10322D00E0F91206CB6F701590043C75F001120B8E
:10323D005E90043FE475F001120B5E80C990043B73
:10324D00E0FBA3E0FAA3E0F91206CB7002800D902B
:10325D000436E475F001120B5E0231D9900435E0AD
:0F326D00FBA3E0FAA3E0F9227B007A00790022AC
:102CF100900425EBF0A3EAF0A3E9F0900425E0FBB2
:102D0100A3E0FAA3E0F91206CBFF124A25500C907A
:102D11000426E475F001120B5E80E0D202900425D6
:102D2100E0FBA3E0FAA3E0F91206CBFF642B6004F9
:102D3100EFB42D1D900425E0FBA3E475F00112070B
:102D4100E2A9F0FA1206CB642D6003D38001C3928D
:102D510002E4900428F0A3F0900425E0FBA3E0FA3C
:102D6100A3E0F91206CBFF124AAB5042900425E0D2
:102D7100FBA3E0FAA3E0F91206CBFF3395E0FEEFE7
:102D810024D0FBEE34FFFA900428E0FEA3E0FF7CA0
:102D9100007D0A120745EF2BFFEE3A900428F0A3BD
:102DA100EFF0900426E475F001120B5E80AA300268
:102DB1000A900428E0FEA3E0FF800F900428E0FEC3
:0B2DC100A3E0FFC3E49FFFE49EFE229E
:100B3200EF4E6012EF60010EEDBB010B89828A83DA
:100B4200F0A3DFFCDEFA2289F05007F709DFFCA9E7
:0C0B5200F022BBFEFCF309DFFCA9F0223E
:100B5E00C5F0F8A3E028F0C5F0F8E5821582700222
:060B6E001583E038F022BF
:0F4AAB00EFC394304007EF943A50028001C322CA
:104A2500EFC394094005EF940E4004EFB42003D37F
:044A35008001C32217
:00000001FF
