:0300000002325277
:0C325200787FE4F6D8FD758130023299D7
:1029D0000D0A007374617274696E672E2E0D0A0001
:1029E00041542B434950534E54504346473D312C9C
:1029F00038004F4B0073656E6420636F6D6D616EC0
:102A0000642041542B434950534E54504346473D54
:102A1000312C3820204F4B0D0A0073656E64206303
:102A20006F6D6D616E642041542B434950534E5479
:102A3000504346473D312C38206661696C65640D12
:102A40000A0041542B434950534E545054494D456C
:102A50003F0D0A002562643A202562643A2025620F
:102A6000640D0A0075617274312020256264207241
:102A7000656365697665643A002B434950534E544B
:102A80005054494D453A0074696D653A0073657458
:0D2A90002074696D65206F6B0D0A00000059
:10249F006080011400000000000000000000000038
:1024AF00000000000000000000000000000000001D
:1024BF00000000000000000000000000000000000D
:1024CF0000000000000000000000000000000000FD
:1024DF0000000000000000000000000000000000ED
:1024EF0000000000000000000000000000000000DD
:1024FF0000000000000000000000000000000000CD
:10250F0000000000000000000000000000000000BC
:10251F000000000060800194000000000000000037
:10252F00000000000000000000000000000000009C
:10253F00000000000000000000000000000000008C
:10254F00000000000000000000000000000000007C
:10255F00000000000000000000000000000000006C
:10256F00000000000000000000000000000000005C
:10257F00000000000000000000000000000000004C
:10258F00000000000000000000000000000000003C
:10259F0000000000000000004100000041000B009F
:1025AF0042021400004200010000420009000041F5
:0725BF0002160041021700A3
:0841D700A3F07B017A01799449
:1041DF00C002C00190042DE0F9A3E0FAA3E090041F
:1041EF0033C9F0A3EAF0A3E9F0D001D002122DB643
:0B41FF00E94A4B60037F01227F002291
:0B25E80090058BEBF0A3EAF0A3E9F0F4
:1025F300E49005B4F0FE7F20FD7B017A0579941207
:102603000B32E49005B4F090058BE0FBA3E0FAA352
:10261300E0F912000E9005B4E0C39FE49E4003026C
:1026230026E790058EE0FBA3E0FAA3E0F912000E83
:1026330090063BEEF0A3EFF090058BE0FBA3E0FAEE
:10264300A3E0F99005B4E0FF7E00E92FF9EE3AFA32
:10265300C002C00190058EE0F9A3E0FAA3E0900662
:1026630038C9F0A3EAF0A3E9F0D001D0021233682D
:10267300EF7037900591E0F9A3E0FAA3E090061F0D
:10268300C9F0A3EAF0A3E9F07B017A057994123645
:102693006690058EE0FBA3E0FAA3E0F912000EEFCB
:1026A30014FF9005B4E02FF0803190058BE0FBA37D
:1026B300E0FAA3E0F99005B4E0FF7E00E92FF9EE1C
:1026C3003AFA90060CEBF0A3EAF0A3E9F0A3E4F0E6
:1026D300A304F0FB7A057994122C2E9005B4E00440
:1026E300F002260A90058BE0FBA3E0FAA3E0F8AC26
:1026F30002AD037B017A057994120B1590058BE0EB
:07270300FBA3E0FAA3E0F9DB
:01270A0022AC
:0B2F2D009005B5EBF0A3EAF0A3E9F07B
:102F3800E49005DDF0FE7F20FD7B017A0579BD1266
:102F48000B329005BBA3E09005DDF09005B5E0FBE2
:102F5800A3E0FAA3E0F912000E9005DDE0FD339539
:102F6800E0FCC3ED9FEC9E50439005B5E0FBA3E069
:102F7800FAA3E0F99005DDE0FF3395E08D82F58353
:102F88001206E4FEEF3395E0FC9005BBE0FAA3E0FF
:102F9800FBC3ED9BFDEC9AFC74BD2DF58274053CDA
:102FA800F583EEF09005DDE004F0809F9005B8E031
:102FB800FBA3E0FAA3E0F8AC02AD037B017A057944
:0F2FC800BD120B159005B8E0FBA3E0FAA3E0F9EA
:012FD70022D7
:0B33EF00900420EBF0A3EAF0A3E9F04B
:1033FA00E4900429F0900426E0FF900429E0C39F9A
:10340A005066900420E0FBA3E0FAA3E0F97F0212E1
:10341A0037A37BFF7A2979D07F021237A39004273A
:10342A00E0FEA3E0FF1244BD90042D7401F0A374E2
:10343A0001F0A37494F0900006E0FBA3E0FAA3E085
:10344A00F9123BA5900423E0F9A3E0FAA3E0900463
:10345A002DC9F0A3EAF0E91241D7EF60037F0122F8
:0A346A00900429E004F0808D7F003B
:013474002235
:03000B00023B5164
:103B5100C0E0C0F0C083C082C0D075D000C000C03A
:103B610004C005C006C007900002E004F070069092
:103B71000001E004F0900001E0FEA3E0FF7C007D85
:103B810064120757ED4C7007900009F0A304F0D0C0
:103B910007D006D005D004D000D0D0D082D083D0B9
:043BA100F0D0E0324E
:10152C00E4900419F0A3F0A3F0A3F0C200C2017878
:10153C001D7C047D017BFF7A2A799BFE7F021206BB
:10154C00A5E490041FF012187A124669E4FF1246C3
:10155C00F57D107C27E4FF12230512447D900003D7
:10156C007401F0A37400F0A3740CF0A37401F0A345
:10157C007400F0A37490F0900003E0FBA3E0FAA3D6
:10158C00E0F91240BA900006E0FBA3E0FAA3E0F900
:10159C001240BA7BFF7A2979D37F011237A39004CA
:1015AC00251209A50001C2007F02123D3B7FB87EC7
:1015BC000B1244BD90042D7401F0A37401F0A374BC
:1015CC0094F0900006E0FBA3E0FAA3E0F9123BA52F
:1015DC00EF70E1FE7F80FD7B017A017994120B3272
:1015EC0090042374FFF0A37429F0A374F2F0A37495
:1015FC0003F0A37401F0A3742CF07BFF7A2979E03B
:10160C001233EFEF7BFF60067A2979F580047A2A92
:10161C00791A7F011237A37FE87E031244BD7BFF4A
:10162C007A2A79427F021237A3900009E07002A354
:10163C00E070030216DCE4900009F0A3F0FB7A00E2
:10164C00790F123EAD7BFF7A2A795490042EE51166
:10165C00F0A3E510F0A3E50FF07F011237A3E5111D
:10166C006408701CE51064017016E50F64017010BD
:10167C0020010D7BFF7A2A79427F021237A3D20117
:10168C00AF117E00EF700EE51064017008E50F706D
:10169C0004C200C201EF64074E702920002190049F
:1016AC001F04F0C2A4FF7E001244BD30B20D7F14A3
:1016BC007E001244BD30B20300D200D2A48005E4F7
:1016CC0090041FF090041FE06004B2B78002C2B710
:1016DC00900000E0D39400748094804049E014F0B2
:1016EC007BFF7A2A7964E090042EF07F011237A3F5
:1016FC0090042D7401F0A37401F0A37414F0900005
:10170C0003E0FBA3E0FAA3E0F9123BA57B017A010D
:10171C0079147F021237A37E007F807D007B017AD3
:10172C00017914120B3290000BE0D3940074809466
:10173C00805003021635E014F090042D7401F0A3D0
:10174C007401F0A37494F0900006E0FBA3E0FAA3FC
:10175C00E0F9123BA57B017A0179947F0112416A71
:10176C0090042D74FFF0A3742AF074791241D7EF12
:10177C0070030218687BFF7A2A79877F011237A3DE
:10178C007B017A0179947F011237A37B017A01796D
:10179C009412000E90041BEEF0A3EFF090041BE0EB
:1017AC00FEA3E0FF248BF58274013EF583E09004E8
:1017BC001DF0748C2FF58274013EF583E090041EAD
:1017CC00F07B017A04791D1228F58F0890041BE038
:1017DC00FEA3E0FF2488F58274013EF583E09004BB
:1017EC001DF074892FF58274013EF583E090041E80
:1017FC00F07B017A04791D1228F58F0990041BE007
:10180C00FEA3E0FF2485F58274013EF583E090048D
:10181C001DF074862FF58274013EF583E090041E52
:10182C00F07B017A04791D1228F58F0A750B01756E
:10183C000C01750D01750E15EF6412701FE5086033
:10184C001BE5096017EF60147B007A007908123BE6
:10185C00F97BFF7A2A798D7F011237A37E007F8076
:0E186C007D007B017A017994120B3202163551
:10430F00900216E599F0900003E0FBA3E0FAA3E01A
:10431F00F9900216E0FD12386F900216E0B40A060B
:07432F00900000E004F02201
:10433600900217E59BF0900006E0FBA3E0FAA3E0ED
:10434600F9900217E0FD12386F900217E0B40A06E2
:0743560090000BE004F022CF
:0925C600070800010A04010514D4
:03470D0000002287
:1043D000E4FFFEEEC39408748094805017C2A712C5
:1043E000470DEFC313FF30A6034480FFD2A7124747
:0443F0000D0E80DF4F
:0143F40022A6
:0F41A100C2A512470DC2A712470DD2A512470D96
:1041B000E4FEEEFD3395E0FCC3ED9408EC648094DE
:1041C000805013C2A712470DEFC313FF92A6D2A7C8
:0641D00012470D0E80DC19
:0141D60022C6
:0A46CB001241A11243D0D2A7C2A5EC
:0146D50022C2
:0F465A00AB051241A1AF031241B0D2A7C2A522F6
:0B3BF900900420EBF0A3EAF0A3E9F039
:103C0400A37480F0A37407F0E4FD7F8E12465A90EB
:103C14000424E0FF14F0EF6027900420E0FBA3E409
:103C240075F0011207E2A9F0FA1206CBFF1245E67D
:103C3400AD07900423E0FF12465AE02402F080CF3F
:073C44007D807F8E02465ACD
:02458200A90787
:10458400E4FEE9C4540FFF7C007D0A120745E95498
:064594000F2FFFEC3EFEBC
:01459A0022FE
:1045E600E4EF75F00A84C454F0FEEF75F00A84EE29
:0545F60045F0FF7E000E
:0145FB00229D
:0B3EAD00900420EBF0A3EAF0A3E9F082
:103EB800A37481F0A37407F0900424E0FF14F0EFDA
:103EC8006028900423E0FF1246CB1245829004201C
:103ED800E0FBA3E475F0011207E2A9F0FAEF12077C
:0A3EE80011900423E02402F080CEC4
:013EF20022AD
:10447D00C2A5C2A7E4FD7F8E12465AE4FD7F8012CD
:10448D00465A7DA67F9012465A7D807F8E02465AEF
:1040BA00900420EBF0A3EAF0A3E9F07E007F807D74
:1040CA0000900420E0FBA3E0FAA3E0F9120B32907F
:1040DA000420E0FBA3E0FAA3E0F9900082E4F5F003
:0C40EA00120830900080E4F5F00208306D
:10386F00900519EDF0900516EBF0A3EAF0A3E9F03F
:10387F0012407DEF6401604A900519E0FF90051634
:10388F00E0FBA3E0FAA3E0F99000821207F8F582BB
:10389F0085F083EF1207239000821207F82401FFAF
:1038AF00E435F0FE7C007D801207AC900516E0FB3E
:1038BF00A3E0FAA3E0F9900082EC8DF01208307FBC
:0538CF0001227F002230
:10407D0090051AEBF0A3EAF0A3E9F090051AE0FB26
:10408D00A3E0FAA3E0F99000821207F82401FFE4FF
:10409D0035F0FE7C007D801207AC9000801207F891
:0D40AD00B50507ECB5F0037F01227F00226E
:1044FA009000821207F8FFAEF09000801207F8B51C
:0D450A000708E5F0B506037F01227F0022BF
:102FD8009004357401F0A37404F0A37430F09004E5
:092FE8002AE0FBA3E0FAA3E0F9E2
:102FF100900432EBF0A3EAF0A3E9F0900432E0FB95
:10300100A3E0FAA3E0F91244FAEF6401606E9004C0
:1030110032E0FBA3E0FAA3E0F99000801207F8F593
:103021008285F0831206E4FF900435E0FBA3E0FA09
:10303100A3E0F9EF120711900432E0FBA3E0FAA339
:10304100E0F99000801207F8F58285F083E4120719
:10305100239000801207F82401FFE435F0FE7C0084
:103061007D801207AC900432E0FBA3E0FAA3E0F903
:0F307100900080EC8DF01208307F01227F00224A
:0B3BA50090042AEBF0A3EAF0A3E9F083
:103BB000E4900431F01244FAEF60037F0022122FE8
:103BC000D8EF640170308010900430E0640A602304
:103BD000122FD8EF6401701B900430E0FF90042D89
:103BE000E0FBA3E475F0011207E2A9F0FAEF120777
:083BF0001180D57F01227F0046
:013BF80022AA
:0725CF004405FB00000000C1
:1044BD00EF4E601A9005F3E0FCA3E0FDED1D7001D9
:0E44CD001C144C70F7EF1F70011E144E70E6A9
:0144DB0022BE
:0A46D600EF1FAC0670011E4C70F6D9
:0146E00022B7
:104384009005F3E0FCA3E0FD120A1CE47B83FAF938
:10439400F812085D9005F71209999005F7E0C31328
:0643A400FEA3E013FF225E
:104237009005F6E06599600AE599F0E49005F5F0D8
:1042470080069005F5E004F09005F5E0C394E97465
:0C42570080948040060075C760000022C3
:0B399B0090051DEBF0A3EAF0A3E9F09B
:1039A6009005887401F0A37405F0A37420F09005C7
:1039B6001DE0F9A3E0FAA3E09004D9C9F0A3EAF068
:1039C600A3E9F0900588E0F9A3E0FAA3E09004DC0F
:1039D600C9F0A3EAF0A3E9F07B017A057948123E23
:1039E6001A900588E4F0A3F0A3F07B017A057948E4
:0539F6007F0102416A9F
:102E7500EF14601614602C14604D14606C1470030C
:102E8500022F0924056003022F2C90FE02E0547ED8
:102E95004480F0E030E0F390FE00E054FCF090FE5A
:102EA50003807A90FE04E0547E4480F0E030E0F345
:102EB50090FE00E054FC4403F090FE02E4F090FE26
:102EC50008F090FE03F02290FE08E0547E4480F066
:102ED500E030E0F390FE00E054FC4402F090FE0484
:102EE500E4F090FE02F0A3F02290FE03E0543E448D
:102EF50080F0E030E0F390FE00E054FC4401F090F7
:102F0500FE02801990FE03E0543E44C0F0E030E03C
:102F1500F390FE00E054FC4401F090FE02E4F090D2
:082F2500FE08F090FE04F0220A
:0C46B300EF90FE01700304F022EFF022F3
:10187A0043BA80AF9FE4FCFDFEC004A905AA06ABEB
:10188A000778FBE6FFD000C3EF9BFFEE9AFEED99C7
:10189A00FDEC98FCE47BF07AD2F9F812085DC3E417
:1018AA009FFF74369EFE746E9DFD74019CFC90042D
:1018BA0020120999900420E0FCA3E0FDA3E0FEA316
:1018CA00E0FFC00790FE01E0FBE4FAF9F8D0071246
:1018DA0008E89004201209997FC07EF67D577C00A3
:1018EA00900420E0F8A3E0F9A3E0FAA3E0FBC31216
:1018FA000988500D9005FB1209A500546000021AD0
:10190A00C87FC07E267D827C00900420E0F8A3E098
:10191A00F9A3E0FAA3E0FBC3120988500D9005FB76
:10192A001209A5005B8D80021AC87F807EED7DAF0B
:10193A007C00900420E0F8A3E0F9A3E0FAA3E0FB1E
:10194A00C3120988500D9005FB1209A500A8C00012
:10195A00021AC87F807E2D7DE87C00900420E0F882
:10196A00A3E0F9A3E0FAA3E0FBC3120988500D90A3
:10197A0005FB1209A500B71B00021AC87F807E3634
:10198A007D257C01900420E0F8A3E0F9A3E0FAA306
:10199A00E0FBC3120988500D9005FB1209A5011935
:1019AA004000021AC87F807E567D417C0190042047
:1019BA00E0F8A3E0F9A3E0FAA3E0FBC31209885018
:1019CA000D9005FB1209A501312D00021AC87F00EE
:1019DA007EDB7D5F7C01900420E0F8A3E0F9A3E0C0
:1019EA00FAA3E0FBC3120988500D9005FB1209A562
:1019FA0001518000021AC87F607E197D857C0190A2
:101A0A000420E0F8A3E0F9A3E0FAA3E0FBC312097B
:101A1A0088500D9005FB1209A5016E3600021AC8FE
:101A2A007F207EE07DB27C01900420E0F8A3E0F9FB
:101A3A00A3E0FAA3E0FBC3120988500C9005FB123D
:101A4A0009A5019BFCC080767FE07EA67DE07C0133
:101A5A00900420E0F8A3E0F9A3E0FAA3E0FBC312A4
:101A6A000988500C9005FB1209A501C9C380804E54
:101A7A007F607E2B7DFF7C01900420E0F8A3E0F9D3
:101A8A00A3E0FAA3E0FBC3120988500C9005FB12ED
:101A9A0009A501FA400080267F607E2B7DFF7C012C
:101AAA00900420E0F8A3E0F9A3E0FAA3E0FBC31254
:101ABA000988500A9005FB1209A502160EC0E47B9C
:101ACA00107A27F9F89005FBE0FCA3E0FDA3E0FEFD
:101ADA00A3E0FF1208E89005F3EEF0A3EFF0E4901C
:0C1AEA0005F6F09005F5F01239FBD2AFC4
:011AF60022CD
:080003000102040810204080F6
:102B6800EF64887003022C2DEF54F0F51BEF540F1F
:102B7800FE90000393F51CEED39407748094804074
:102B880003022C2DED604DE51B24F0602124F0603C
:102B98002224F0602324F0602424F0602524F060CF
:102BA8002624F060272470707C90FE10802190FE0F
:102BB80011801C90FE12801790FE13801290FE1454
:102BC800800D90FE15800890FE16800390FE17E099
:102BD800451CF022E51B24F0602124F0602224F03B
:102BE800602324F0602424F0602524F0602624F07B
:102BF80060272470702F90FE10802190FE11801C99
:102C080090FE12801790FE13801290FE14800D9093
:102C1800FE15800890FE16800390FE17E0FFE51C65
:052C2800F4FEEF5EF078
:012C2D002284
:101AF700EF64887003021D5AEF54F0F51BEF540F83
:101B0700FE90000393F51CEED394077480948040F5
:101B170003021D5AE51B24F0602424F0602524F0FD
:101B2700602624F0602724F0602824F0602924F040
:101B3700602A24706003021D5AE4F51B8021751B7F
:101B470001801C751B028017751B038012751B040F
:101B5700800D751B058008751B068003751B07ED37
:101B6700FFD39403748094804003021D5AE51B70D1
:101B770037EF7007E51CF452935294ED6401700936
:101B8700E51C4293E51CF45294EDFF7E006402705D
:101B970008E51C4293E51C4294EF64034E7009E587
:101BA7001CF45293E51C4294E51B64017037EDFF6A
:101BB7007E007007E51CF452915292EF64014E705B
:101BC70009E51C4291E51CF45292ED64027008E5A8
:101BD7001C4291E51C4292ED64037009E51CF45226
:101BE70091E51C4292E51B64027037EDFF7E0070A1
:101BF70007E51CF452955296EF64014E7009E51CF7
:101C07004295E51CF45296ED64027008E51C429576
:101C1700E51C4296ED64037009E51CF45295E51C3A
:101C27004296E51B64037037EDFF7E007007E51CE5
:101C3700F452B152B2EF64014E7009E51C42B1E5AE
:101C47001CF452B2ED64027008E51C42B1E51C4277
:101C5700B2ED64037009E51CF452B1E51C42B2E52C
:101C67001B64047037EDFF7E007007E51CF452B368
:101C770052B4EF64014E7009E51C42B3E51CF452FF
:101C8700B4ED64027008E51C42B3E51C42B4ED6490
:101C9700037009E51CF452B3E51C42B4E51B640567
:101CA7007037EDFF7E007007E51CF452C952CAEF8A
:101CB70064014E7009E51C42C9E51CF452CAED6483
:101CC700027008E51C42C9E51C42CAED64037009AD
:101CD700E51CF452C9E51C42CAE51B64067037EDE2
:101CE700FF7E007007E51CF452CB52CCEF64014E27
:101CF7007009E51C42CBE51CF452CCED6402700878
:101D0700E51C42CBE51C42CCED64037009E51CF4ED
:101D170052CBE51C42CCE51B64077037EDFF7E0014
:101D27007007E51CF452E152E2EF64014E7009E5D9
:101D37001C42E1E51CF452E2ED64027008E51C4226
:101D4700E1E51C42E2ED64037009E51CF452E1E5AC
:031D57001C42E249
:011D5A002266
:10400000EFB40800503890400DF82828730240257E
:1040100002402802402B02402E024031024034026E
:10402000403702403A8D80228D90228DA0228DB0A3
:0F403000228DC0228DC8228DE822AF058FF82285
:103FC000EFB408005037903FCDF8282873023FE542
:103FD000023FE8023FEB023FEE023FF1023FF402F4
:103FE0003FF7023FFAAF8022AF9022AFA022AFB0DE
:103FF00022AFC022AFC822AFE822AFF8227FFF2253
:102CF300EF64887003022DB5EF54F0F51BEF540F0A
:102D0300FE90000393F51CEED394077480948040E7
:102D130003022DB5ED604AE51B24F0602124F06029
:102D23002224F0602324F0602424F0602524F06042
:102D33002624F0602724707079E51C428022E51C6C
:102D4300429022E51C42A022E51C42B022E51C422F
:102D5300C022E51C42C822E51C42E822E51C42F8D9
:102D630022E51B24F0602224F0602424F060262452
:102D7300F0602824F0602A24F0602C24F0602E24D4
:102D830070702FE51CF4528022E51CF4529022E56A
:102D93001CF452A022E51CF452B022E51CF452C0EC
:102DA30022E51CF452C822E51CF452E822E51CF487
:022DB30052F8D4
:012DB50022FB
:10357A00EF64887002FF22EF54F0F51BEF540FFE40
:10358A0090000393F51CEED3940774809480400353
:10359A007F0122E51B24F0602124F0602224F060E0
:1035AA002324F0602424F0602524F0602624F060AF
:1035BA00272470702685801D802185901D801C859A
:1035CA00A01D801785B01D801285C01D800D85C87D
:1035DA001D800885E81D800385F81DE51D551C60C2
:0635EA00037F01227F00B7
:0135F00022B8
:10373B00EF64886062EF54F0F51BEF540FFE9000BE
:10374B000393F51CEED39407748094805049E51BCA
:10375B0024F0602124F0602224F0602324F0602404
:10376B0024F0602524F0602624F060272470702755
:10377B00E51C628022E51C629022E51C62A022E51A
:10378B001C62B022E51C62C022E51C62C822E51C4B
:07379B0062E822E51C62F860
:0137A2002204
:103F3900EFB40800503E903F46F8282873023F5ED0
:103F4900023F62023F66023F6A023F6E023F72020F
:103F59003F76023F7AED628022ED629022ED62A007
:103F690022ED62B022ED62C022ED62C822ED62E864
:053F790022ED62F822B8
:10312300A907EB6048E9B4080040030231BC9031C1
:1031330038F82828730231500231540231580231D1
:103143005C02316002316402316802316CED42800D
:1031530022ED429022ED42A022ED42B022ED42C088
:1031630022ED42C822ED42E822ED42F822E9B408FA
:1031730000504690317DF828287302319502319A28
:1031830002319F0231A40231A90231AE0231B302EE
:1031930031B8EDF4528022EDF4529022EDF452A0B6
:1031A30022EDF452B022EDF452C022EDF452C822C3
:0A31B300EDF452E822EDF452F82288
:103A5200EFB409005045903A5FF8282873023A7A89
:103A6200023A7E023A82023A86023A8A023A8E0288
:103A72003A92023A96023A9AAE80801FAE90801B2A
:103A8200AEA08017AEB08013AEC0800FAEC8800B60
:103A9200AEE88007AEF880037F0122EE5D60037F0F
:043AA20001227F007E
:013AA60022FD
:0C46BF00303136371617434410114042CA
:1039FB0075985053873F538EDEE4FD7F011234756B
:103A0B009004251209A50001C2007F01123D3B4322
:103A1B008E4053890FC2ABC28FD28EC20BD2AC7504
:103A2B009A10E4FD7F021234759004251209A5004B
:103A3B0001C2007F02123D3B438E0453AFFB438E0A
:073A4B0010C20C43AF012281
:10347500900424EDF0EF24FE603F04707690042460
:10348500E0FF54C0FEE5A2543F4EF5A2EFC413136E
:10349500540325E024BFF582E43446F583E493FF25
:1034A500E4FD121AF7900424E0C41313540325E035
:1034B50024C0F582E434468030900424E0FF5401B2
:1034C500FEE5BA54FE4EF5BAEF25E024C7F582E4D1
:1034D5003446F583E493FFE4FD121AF7900424E0E3
:1034E50025E024C8F582E43446F583E493FF7D03A3
:0434F500121AF7228E
:053D3B00900424EFF0EC
:103D4000E47B04FAF9F89005FBE0FCA3E0FDA3E0B6
:103D5000FEA3E0FF1208E8900425E0F8A3E0F9A331
:103D6000E0FAA3E0FB1208E8C3E49FFFE49EFE90A4
:103D70000424E024FE600904700B8F8BEEF58D2285
:053D80008FD7EEF5D61F
:013D8500221B
:10453300EF24FE600C0470128D99D20B300B0B80AC
:0B454300FBAF058F9BD20C200CFD226B
:10413100EF24FE6019047030EB6006D29BD29B80A5
:1041410004C29BC29B8D99D20B300B1C80FBEB6090
:1041510008439A08439A088006539AF7539AF7AF8F
:09416100058F9BD20C200CFD22FD
:10416A009004D9EBF0A3EAF0A3E9F0AE079004D9E2
:10417A00E0FBA3E0FAA3E0F91206CB6019AF0690C0
:10418A0004D9A3E475F0011207E2A9F0FA1206CBEA
:07419A00FD12453380D7221E
:0E37A30090042AEFF0A3EBF0A3EAF0A3E9F004
:1037B1009004D67401F0A37404F0A3742EF0900465
:1037C1002BE0F9A3E0FAA3E09004D9C9F0A3EAF051
:1037D100A3E9F09004D6E0F9A3E0FAA3E09004DCB9
:1037E100C9F0A3EAF0A3E9F07B017A047956123E0D
:1037F1001A9004D6E4F0A3F0A3F090042AE0FF7B32
:08380100017A04795602416AC4
:03002300023D8615
:103D8600C0E0C0F0C083C082C0D075D000C000C003
:103D960001C002C003C004C005C006C007309808B1
:103DA600C29812430F124237309904C299C20BD0FF
:103DB60007D006D005D004D003D002D001D000D061
:0A3DC600D0D082D083D0F0D0E032DC
:03004300023CEE8E
:103CEE00C0E0C0F0C083C082C0D075D000C000C09C
:103CFE0001C002C003C004C005C006C007E59A306B
:103D0E00E006539AFE124336E59A30E105539AFDCA
:103D1E00C20CD007D006D005D004D003D002D001FB
:0D3D2E00D000D0D0D082D083D0F0D0E032D1
:01003A0022A3
:01004200229B
:014716002280
:01471700227F
:0846F500EF7004C28DD28C228B
:0646FD00EF7002C28C22E6
:1043F50090066EEFF0ED600AE07017438F017D03C4
:10440500800B90066EE0700A538FFEE4FD7F351237
:034415001AF72271
:0F466900538E7F5389F0E4F58A758C48D2A922CD
:0B230500900420EFF0A3ECF0A3EDF03B
:102310009005FBE0FCA3E0FDA3E0FEA3E0FFE412D8
:10232000026C7B007A24797478491201CFA804A941
:1023300005AA06AB077F007EFF7D7F7C471201CF99
:102340001202AA900425EEF0A3EFF07F007E1B7D21
:10235000B77C009005FBE0F8A3E0F9A3E0FAA3E066
:10236000FBD3120988500A74FF900427F0A3F08071
:102370003B9005FBE0FCA3E0FDA3E0FEA3E0FFE44F
:1023800012026C7B007A1B7937784B1201CFA804BC
:10239000A905AA06AB077F007EFF7D7F7C4712015F
:1023A000CF1202AA900427EEF0A3EFF0900425E0EC
:1023B000FEA3E0FF900421E0FCA3E0FDD39FEC9E90
:1023C0005010ED9400EC94004008A3E4F0A304F056
:1023D000802C900427E0FEA3E0FFD3ED9FEC9E400D
:1023E0000302249E900422E09400900421E09400D3
:1023F000500302249E900423E4F0A3740CF0900494
:1024000020E0600302249E900423E07004A3E064B3
:10241000017017438E809005FBE0FCA3E0FDA3E074
:10242000FEA3E0FFE412026C802B900423E0700412
:10243000A3E0640C7059538E7F9005FBE0FCA3E091
:10244000FDA3E0FEA3E0FFE412026CE4FBFA794096
:1024500078411201CF7B007A24797478491201CF38
:10246000C004C005C006C007900421E0FCA3E0FD45
:10247000E4120271D003D002D001D0001200C612C3
:1024800002AAC3E49FFFE49E900423F0A3EFF09020
:0E2490000423E0FEA3E0F58AEEF58C5389FBF1
:01249E00221B
:0946EC00EF70058D8AECF58C22BB
:10464900E4FDFCEF7006AF8CEFAD8AFCAE04AF055C
:01465900223E
:100B7400E47B07FAF9F89005FBE0FCA3E0FDA3E0B1
:100B8400FEA3E0FF1208E8900625120999E47B8889
:100B94007A13F9F89005FBE0FCA3E0FDA3E0FEA3C3
:100BA400E0FF1208E89006291209997F0A7E8B7DDE
:100BB400027C00900625E0F8A3E0F9A3E0FAA3E0A4
:100BC400FBC3120988504D7F1D7E637D017C00901C
:100BD4000625E0F8A3A3A3E01209884037E47F6F59
:100BE400FEFDFC900629E0F8A3E0F9A3E0FAA3E0F7
:100BF400FBD3120988401DE47FFAFEFDFC90062910
:100C0400E0F8A3A3A3E0120988500990021874071E
:100C1400F0021094E47B0EFAF9F89005FBE0FCA3D3
:100C2400E0FDA3E0FEA3E0FF1208E8900625120908
:100C340099E47B107A27F9F89005FBE0FCA3E0FD2A
:100C4400A3E0FEA3E0FF1208E89006291209997FA9
:100C54000A7E8B7D027C00900625E0F8A3E0F9A3D0
:100C6400E0FAA3E0FBC3120988504D7F1D7E637D2B
:100C7400017C00900625E0F8A3A3A3E012098840B4
:100C840037E47F6FFEFDFC900629E0F8A3E0F9A3AA
:100C9400E0FAA3E0FBD3120988401DE47FFAFEFDCD
:100CA400FC900629E0F8A3A3A3E012098850099058
:100CB40002187406F0021094E47B15FAF9F8900512
:100CC400FBE0FCA3E0FDA3E0FEA3E0FF1208E89034
:100CD4000625120999E47B987A3AF9F89005FBE025
:100CE400FCA3E0FDA3E0FEA3E0FF1208E8900629C0
:100CF4001209997F0A7E8B7D027C00900625E0F81C
:100D0400A3E0F9A3E0FAA3E0FBC3120988504D7FE6
:100D14001D7E637D017C00900625E0F8A3A3A3E07B
:100D24001209884037E47F6FFEFDFC900629E0F845
:100D3400A3E0F9A3E0FAA3E0FBD3120988401DE481
:100D44007FFAFEFDFC900629E0F8A3A3A3E01209B4
:100D54008850099002187405F0021094E47B2AFA72
:100D6400F9F89005FBE0FCA3E0FDA3E0FEA3E0FF9F
:100D74001208E8900625120999E47B307A75F9F88F
:100D84009005FBE0FCA3E0FDA3E0FEA3E0FF120856
:100D9400E89006291209997F0A7E8B7D027C0090D7
:100DA4000625E0F8A3E0F9A3E0FAA3E0FBC31209E7
:100DB40088504D7F1D7E637D017C00900625E0F800
:100DC400A3A3A3E01209884037E47F6FFEFDFC90E3
:100DD4000629E0F8A3E0F9A3E0FAA3E0FBD31209A3
:100DE40088401DE47FFAFEFDFC900629E0F8A3A3E9
:100DF400A3E012098850099002187404F0021094B8
:100E0400E47B54FAF9F89005FBE0FCA3E0FDA3E0D1
:100E1400FEA3E0FF1208E8900625120999E47B601E
:100E24007AEAF9F89005FBE0FCA3E0FDA3E0FEA359
:100E3400E0FF1208E89006291209997F0A7E8B7D4B
:100E4400027C00900625E0F8A3E0F9A3E0FAA3E011
:100E5400FBC3120988504D7F1D7E637D017C009089
:100E64000625E0F8A3A3A3E01209884037E47F6FC6
:100E7400FEFDFC900629E0F8A3E0F9A3E0FAA3E064
:100E8400FBD3120988401DE47FFAFEFDFC9006297D
:100E9400E0F8A3A3A3E01209885009900218740390
:100EA400F0021094E47B8CFAF9F89005FBE0FCA3C3
:100EB400E0FDA3E0FEA3E0FF1208E8900625120976
:100EC400997BA07A86790178009005FBE0FCA3E089
:100ED400FDA3E0FEA3E0FF1208E890062912099999
:100EE4007F0A7E8B7D027C00900625E0F8A3E0F962
:100EF400A3E0FAA3E0FBC3120988504D7F1D7E6373
:100F04007D017C00900625E0F8A3A3A3E0120988E4
:100F14004037E47F6FFEFDFC900629E0F8A3E0F97A
:100F2400A3E0FAA3E0FBD3120988401DE47FFAFE94
:100F3400FDFC900629E0F8A3A3A3E0120988500958
:100F44009002187402F0021094E47BA8FAF9F89065
:100F540005FBE0FCA3E0FDA3E0FEA3E0FF1208E82C
:100F64009006251209997BC07AD4790178009005FE
:100F7400FBE0FCA3E0FDA3E0FEA3E0FF1208E89081
:100F840006291209997F0A7E8B7D027C0090062532
:100F9400E0F8A3E0F9A3E0FAA3E0FBC31209885048
:100FA4004D7F1D7E637D017C00900625E0F8A3A3A0
:100FB400A3E01209884037E47F6FFEFDFC90062908
:100FC400E0F8A3E0F9A3E0FAA3E0FBD31209884018
:100FD4001DE47FFAFEFDFC900629E0F8A3A3A3E03C
:100FE40012098850099002187401F0021094E47BED
:100FF4002D7A01F9F89005FBE0FCA3E0FDA3E0FEE7
:10100400A3E0FF1208E89006251209997BD87A47D5
:10101400790378009005FBE0FCA3E0FDA3E0FEA3C8
:10102400E0FF1208E89006291209997F0A7E8B7D59
:10103400027C00900625E0F8A3E0F9A3E0FAA3E01F
:10104400FBC312098850497F1D7E637D017C00909B
:101054000625E0F8A3A3A3E01209884033E47F6FD8
:10106400FEFDFC900629E0F8A3E0F9A3E0FAA3E072
:10107400FBD31209884019E47FFAFEFDFC9006298F
:10108400E0F8A3A3A3E01209885005E4900218F045
:101094009006251209A5000000009006291209A552
:0410A4000000000048
:0110A8002225
:0E46A500E4F5C7F5C5F5C675C3FF75C4FF2261
:084418009005E9E0FEA3E0FFBE
:10442000900218E04480F5C775C5038FC4EEF5C34C
:0A44300075C65A75C6A5000246A520
:10403F009005F1E0FCA3E0FD9005EAE02DFF90056F
:10404F00E9E03CFE74192DF58274023CF583E0FD26
:10405F00900218E04480F5C775C5028FC4EEF5C312
:0E406F00AF058FC275C65A75C6A5000246A5DC
:0C42E7009005EAE02FFF9005E9E03EFEA4
:1042F300900218E04480F5C775C5018FC4EEF5C37D
:0C43030075C65A75C6A500AFC20246A5DB
:10380900900613EEF0A3EFF0A3EBF0A3EAF0A3E91F
:01381900F0BE
:10381A00E490061AF0A3F0900618E0FEA3E0FFA3D6
:10382A00E0FCA3E0FDC39FEC9E5039900614E02D06
:10383A00FF900613E03CFE1242F3900615E0FBA34C
:10384A00E0FAA3E0F990061AE0FCA3E0F5828C8383
:10385A00EF12072390061BE004F070BB90061AE0F3
:04386A0004F080B333
:01386E002237
:0B1D5B009005E0EBF0A3EAF0A3E9F034
:101D6600E49005EDF0A3F0A3EEF0A3EFF09005E309
:101D7600E0FFA3E0A3CFF0A3EFF09005EFE0FCA314
:101D8600E0FDECC313FB7A007F0025E0FE9005E939
:101D9600F0A3EFF02400FFEE3402FEC3EF9DFFEE4A
:101DA6009CFE9005E7F0A3EFF0D39005E6E09F9048
:101DB60005E5E09E4003021E9DE49005F1F0A3F0C8
:101DC6009005F1E0FEA3E0FFC3EE94025025124217
:101DD600E79005F1E0FCA3E02419F58274023CF5D6
:101DE60083EFF09005F2E004F070D59005F1E00481
:101DF600F080CD1244189005E9E0FEA3E0FFC39001
:101E060005F0E09FFF9005EFE09E9005EBF0A3EF55
:101E1600F0E49005F1F0A3F09005E5E0FEA3E0FF05
:101E26009005F1E0FCA3E0FDC39FEC9E50479005B2
:101E3600EEE02DFF9005EDE03CFE9005E0E0FBA313
:101E4600E0FAA3E0F98F828E831206E4FF9005EC98
:101E5600E02DFD9005EBE03CFC74192DF582740233
:101E66003CF583EFF09005F2E004F070AB9005F1DD
:101E7600E004F080A3E49005F1F0A3F012403F9057
:101E860005F2E004F070069005F1E004F0C3900559
:101E9600F1E0940240E622E49005F1F0A3F090050B
:101EA600F1E0FEA3E0FFC3EE940250251242E79054
:101EB60005F1E0FCA3E02419F58274023CF583EFFA
:101EC600F09005F2E004F070D59005F1E004F080A2
:101ED600CD1244189005E9E0FEA3E0FFC39005F09B
:101EE600E09FFF9005EFE09E9005EBF0A3EFF0E496
:101EF6009005F1F0A3F09005E7E0FEA3E0FF900562
:101F0600F1E0FCA3E0FDC39FEC9E50479005EEE098
:101F16002DFF9005EDE03CFE9005E0E0FBA3E0FA26
:101F2600A3E0F98F828E831206E4FF9005ECE02D84
:101F3600FD9005EBE03CFC74192DF58274023CF52E
:101F460083EFF09005F2E004F070AB9005F1E00449
:101F5600F080A3E49005F1F0A3F012403F9005F263
:101F6600E004F070069005F1E004F0C39005F1E09E
:101F7600940240E69005E7E0FEA3E0FF9005F0E05E
:101F86002FF09005EFE03EF0C39005E6E09FF0905D
:101F960005E5E09EF09005EEE02FF09005EDE03EC1
:041FA600F0021D80A8
:1035F10090066FEFF024FC602024FC603024FC6016
:1036010040240C70517D037F13121AF7E4FD7F14DF
:10361100121AF77D037F15803A7D037F23121AF773
:10362100E4FD7F24121AF77D037F2580267D037F29
:1036310075121AF7E4FD7F76121AF77D037F778002
:10364100127D037F34121AF7E4FD7F33121AF77DDE
:10365100037F32121AF790066FE0540CFFE5A25473
:05366100F34FF5A22269
:0F467800E4FF1235F175CE5075CDC043CE402210
:104517007DF47C018FCFE5CD30E704ED4C6007EDEE
:0B4527001D70F31C80F043CDC0AFCF2F
:014532002266
:0B25D600012A00410669004106680070
:1031BD009000051206E4FF900669E06F700302327D
:1031CD00511206CBFEC4540F7826F6EE540FFEF8BE
:1031DD007401088002C333D8FC7827F690000112E1
:1031ED0006E4FEC4540F7823F6EE540FFEF8740176
:1031FD00088002C333D8FC7825F69000021206E44D
:10320D00FEC4540F7822F6EE540FFEF874010880B8
:10321D0002C333D8FC7824F69000031206E4FEC4F2
:10322D00540F7828F6EE540FFEF87401088002C38F
:10323D0033D8FC7829F69000041206E4782AF6902B
:05324D000669EFF0220C
:1028150090062DEBF0A3EAF0A3E9F0A3EDF0900606
:102825002DE0FBA3E0FAA3E0F9ED120711900631C4
:10283500E0FF90062DE0FBA3E0FAA3E0F99000018C
:10284500EF120723900632E090000212072390064C
:1028550033E0900003120723900634E09000041241
:102865000723900630E0FF7D03121AF7900634E047
:1028750090063030E106E0FF7D018004E0FFE4FDD5
:10288500122CF3900634E030E714900631E0FF7D1A
:1028950003121AF7900631E0FF7D01122CF3900622
:1028A50034E030E614900632E0FFE4FD121AF790AA
:1028B5000632E0FF7D01122CF3900634E030E5147A
:1028C500900633E0FF7D03121AF7900633E0FF7D93
:1028D50001122CF3900668E004FFF090062DE0FB52
:1028E500A3E0FAA3E0F9900005EF1207230231BD3A
:10004600900669E06F6073EDC4540F7826F6ED54A0
:100056000FFEF87401088002C333D8FC7827F6EB4C
:10006600C4540F7823F6EB540FFEF874010880028F
:10007600C333D8FC7825F6900640E0FEC4540F78CA
:1000860022F6EE540FFEF87401088002C333D8FC42
:100096007824F6900641E0FEC4540F7828F6EE5414
:1000A6000FFEF87401088002C333D8FC7829F69055
:0B00B6000642E008F6900669EFF02219
:0D30800090064AEDF0A3EBF0900649EFF04A
:10308D007D03121AF790064DE090064930E106E0F7
:10309D00FF7D018004E0FFE4FD122CF390064DE06E
:1030AD0030E71490064AE0FF7D03121AF790064AA6
:1030BD00E0FF7D01122CF390064DE030E6149006F2
:1030CD004BE0FFE4FD121AF790064BE0FF7D011275
:1030DD002CF390064DE030E51490064CE0FF7D0397
:1030ED00121AF790064CE0FF7D01122CF390066842
:1030FD00E004F0FCFF900649E0FDA3E0FBA3E090A7
:10310D000640F090064CE0900641F090064DE090A0
:06311D000642F00200462C
:051FAA0090065DEFF060
:101FAF00E4900660F0782AE6782630E109E6FF082B
:101FBF00E6FD7B018007E6FF08E6FDE4FB12312317
:101FCF00782AE654306430700C7828E6FF08E6FD76
:101FDF00E4FB123123782AE620E20302209D9006CB
:101FEF005E7480F0E4A3F090065FE0C39408748001
:101FFF009480400302214D90065EE0FF90065DE065
:10200F005F7823600AE6FF7825E6FD7B018008E60E
:10201F00FF7825E6FDE4FB1231237826E6FF08E67C
:10202F00FD123F39782AE630E6225401701E7822DD
:10203F00E6FF7824E6FD123A52EF6010900660E05A
:10204F00FF90065EE0FEEF4E900660F07826E6FF0A
:10205F0008E6FD123F39782AE630E6245401640180
:10206F00701E7822E6FF7824E6FD123A52EF6010D8
:10207F00900660E0FF90065EE0FEEF4E900660F087
:10208F0090065EE0C313F0A3E004F0021FF6900683
:10209F005E7401F0E4A3F090065FE0C394087480CF
:1020AF009480400302214D90065EE0FF90065DE0B4
:1020BF005F7823600AE6FF7825E6FD7B018008E65E
:1020CF00FF7825E6FDE4FB1231237826E6FF08E6CC
:1020DF00FD123F39782AE630E6225401701E78222D
:1020EF00E6FF7824E6FD123A52EF6010900660E0AA
:1020FF00FF90065EE0FEEF4E900660F07826E6FF5A
:10210F0008E6FD123F39782AE630E62454016401CF
:10211F00701E7822E6FF7824E6FD123A52EF601027
:10212F00900660E0FF90065EE0FEEF4E900660F0D6
:10213F0090065EE025E0F0A3E004F00220A6782AE6
:10214F00E654306430700C7828E6FF08E6FD7B011A
:08215F00123123900660E0FF3D
:012167002255
:10393800F0EF543FFFE054C04FF090FE82E4F0FFF8
:10394800EF24F0601724F0602224F0602D243070FA
:103958003643913043923090FE11800943953043AD
:10396800963090FE12E04430F0801C43E1C043E200
:10397800C090FE17E044C0F0800D43B10C43B20C78
:1039880090FE13E0440CF0EF5430FFE5BA54CF4FEB
:03399800F5BA225B
:10449D00900670E06F6018EFF090FE80E0547FF0B2
:1044AD00EF5430FFE5BA54CF4FF5BAE04480F02217
:103EF300EF24F0601724F0602124F0602B2430704D
:103F0300345391CF5392CF90FE1180095395CF53E1
:103F130096CF90FE12E054CFF02253E13F53E23F9D
:103F230090FE17E0543FF02253B1F353B2F390FEE7
:063F330013E054F3F0223C
:103AA700E47B02FAF9F89005FBE0FCA3E0FDA3E054
:103AB700FEA3E0FF1208E87BA07A8679017800125E
:103AC70008E8EF24FCFFEE34FFFEED34FFFDEC3495
:103AD700FFFCE47B02FAF9F81208E8EF543FFF9085
:103AE700FE80E04440123938E4900670F090FE8082
:043AF700E04480F037
:013AFB0022A8
:103AFC00E47B02FAF9F89005FBE0FCA3E0FDA3E0FF
:103B0C00FEA3E0FF1208E87BA07A86790178001208
:103B1C0008E8EF24FCFFEE34FFFEED34FFFDEC343F
:103B2C00FFFCE47B02FAF9F81208E8EF543FFF902F
:103B3C00FE80E054BF123938E4900670F090FE809D
:043B4C00E04480F0E1
:013B50002252
:0300C30002454EA5
:10454E00C0E0C083C08290FE82E030E606E054BF39
:0A455E00F0C20DD082D083D0E0320D
:100026007F0AD20D90FE817481F0300D06AE071F57
:03003600EE70F772
:0100390022A4
:1045FC007F0AD20D90FE817486F0300D06AE071F37
:03460C00EE70F756
:01460F002288
:10459B007E0A90FE86EFF0D20D90FE817482F03091
:0845AB000D06AF061EEF70F7CC
:0145B30022E5
:1045B4007F0AD20D90FE82E4F090FE817485F03083
:0845C4000D06AE071FEE70F7B3
:0145CC0022CC
:104568007F0AD20D90FE827401F090FE817485F06E
:09457800300D06AE071FEE70F7CE
:014581002217
:1045CD007F0AD20D90FE817484F0300D06AE071F68
:0845DD00EE70F790FE87E0FF8D
:0145E50022B3
:1044DC007F0AD20D90FE817483F0300D06AE071F5B
:0D44EC00EE70F790FE82E05402C31324FF2F
:0144F90022A0
:0625E100013000012F0093
:103DD0009000021206E4FF782F66603D1206CBFECB
:103DE000C4540F782DF6EE540FFEF87401088002CB
:103DF000C333D8FC782EF69000011206E4FEC454BA
:103E00000F782BF6EE540FFEF87401088002C333CE
:0A3E1000D8FC782CF6782FA60722C4
:1032DE0090064EEBF0A3EAF0A3E9F0A3EDF0900612
:1032EE004EE0FBA3E0FAA3E0F9ED120711900652AF
:1032FE00E0FF90064EE0FBA3E0FAA3E0F990000198
:10330E00EF120723900651E0FF7D02121AF7900686
:10331E0052E0FF7D02121AF7900651E0FF7D011276
:10332E002B68900652E0FF7D01122B68900651E04B
:10333E00FF7D01122CF3900652E0FF7D01122CF35B
:10334E00783006E6FF90064EE0FBA3E0FAA3E0F924
:0A335E00900002EF120723023DD099
:1040F600782FE66F6034EDC4540F782DF6ED540F2B
:10410600FEF87401088002C333D8FC782EF6EBC49F
:10411600540F782BF6EB540FFEF87401088002C397
:0B41260033D8FC782CF6782FA6072277
:0A3C4B0090066BEDF090066AEFF0B2
:103C55007D02121AF790066BE0FF7D02121AF790AB
:103C6500066AE0FF7D01122B6890066BE0FF7D017F
:103C7500122B6890066AE0FF7D01122CF390066B0B
:103C8500E0FF7D01122CF3783006E6FCFF90066A12
:083C9500E0FDA3E0FB0240F694
:103C9D00782BE6FF08E6FD7B01123123782DE6FF38
:103CAD0008E6FD7B01123123782BE6FF08E6FD12B5
:103CBD003A52EF70037FFF22782BE6FF08E6FD12E4
:103CCD003F39782BE6FF08E6FD123A52EF6401709A
:103CDD00037FFF22782DE6FF08E6FD123F397F00B6
:013CED0022B4
:10426300782BE6FF08E6FDE4FB123123782DE6FF09
:1042730008E6FDE4FB123123782DE6FF08E6FD1284
:0C4283003F39782BE6FF08E6FD023F39CA
:10428F00782DE6FF08E6FDE4FB123123782BE6FFDD
:10429F0008E6FDE4FB123123782DE6FF08E6FD1258
:0C42AF003F39782DE6FF08E6FD023F399C
:1042BB00782DE6FF08E6FDE4FB123123782BE6FFB1
:1042CB0008E6FD7B01123123782DE6FF08E6FD128F
:0C42DB003F39782DE6FF08E6FD023F3970
:103E6400782DE6FF08E6FDE4FB123123782BE6FF0C
:103E740008E6FD7B01123123782DE6FF08E6FD12EA
:103E84003F39782BE6FF08E6FD123A52EF640178D9
:103E94002D700BE6FF08E6FD123F397FFF22E6FF97
:093EA40008E6FD123F397F0022FF
:0534F900900665EFF0F4
:1034FE00900667F0782B30E709E6FF08E6FD7B01C2
:10350E008007E6FF08E6FDE4FB123123782DE6FF87
:10351E0008E6FDE4FB123123E4900666F0900666A1
:10352E00E0C39408748094805041900665E0FF904B
:10353E000667E06F30E70A782BE6FF08E6FD123FDC
:10354E0039782DE6FF08E6FD123F39900665E090CA
:10355E000667F025E0900665F0782DE6FF08E6FD9B
:0B356E00123F39900666E004F080B2C6
:01357900222F
:1038D400E490066DF0782BE6FF08E6FD7B011231DB
:1038E40023E490066CF090066CE0C3940874809412
:1038F40080503BA3E025E0F0782DE6FF08E6FD7B51
:1039040001123123782BE6FF08E6FD123A52EF64E8
:1039140001700790066DE04401F0782DE6FF08E69B
:10392400FDE4FB12312390066CE004F080B89006AD
:033934006DE0FF44
:01393700226D
:0B36D100900653EBF0A3EAF0A3E9F031
:1036DC00E4900657F0900656F0900656E0C394809E
:1036EC00748094805043123C9D900656E025E0FF78
:1036FC001234F9123E64EF7025900656E025E0FF77
:10370C00900653E0FBA3E0FAA3E0F9900657E0F52E
:10371C0082758300EF120723900657E004F01242E3
:0E372C0063900656E004F080B0900657E0FF70
:01373A00226C
:10443A0075DE2F78EFE6FC08E6FDE4120271E4FB74
:10444A00FA797A78441201CF90066112099943BC2D
:02445A008022BE
:10445C00EF540FFFE5BC54F04FF5BC43BC400000DB
:10446C00E5BC30E5FB53BCDFAFBDEFFEADBEEDFFF1
:01447C00221D
:1043AA0012445CAD07AC06E4120271900659E0F8BB
:1043BA00A3E0F9A3E0FAA3E0FB1200C6E4FBFA7952
:0643CA008078450201CFDE
:03471000D2AD2205
:03471300C2AD2212
:103F7E007F0F12445CEF4E7005FFFEFDFC22AD0775
:103F8E00AC06E4120271C004C005C006C007E4FF0F
:103F9E00FE7D807C45900661E0F8A3E0F9A3E0FA8F
:103FAE00A3E0FB1200C6D003D002D001D000120154
:013FBE00CF33
:013FBF0022DF
:0F46870075E7C175E63490FEAEE4F043E680229D
:0B46E100E5E630E0037F01227F0022AD
:04003E0043E68022F3
:0447090053E67F22D2
:10463700E4F5D8F5E9F5F975D9087F1012270BD2FB
:02464700DE2271
:10270B00900671EFF0E0FF5430FEE5A254CF4EF58A
:10271B00A2EF24F0603124F0604F24F0606D243080
:10272B0060030227B9E4FD7F12121AF7E4FD7F174D
:10273B00121AF7E4FD7F16121AF7E4FD7F15121A31
:10274B00F7E4FD7F148064E4FD7F22121AF7E4FDA9
:10275B007F23121AF7E4FD7F24121AF7E4FD7F257D
:10276B00121AF7E4FD7F268042E4FD7F74121AF7FC
:10277B00E4FD7F70121AF7E4FD7F71121AF7E4FD86
:10278B007F72121AF7E4FD7F738020E4FD7F351210
:10279B001AF7E4FD7F33121AF7E4FD7F32121AF7B2
:1027AB00E4FD7F31121AF7E4FD7F30121AF7900621
:1027BB0071E024F0601C24F060332420704BE4FDA6
:1027CB007F12121AF7E4FD7F11121AF7E4FD7F1046
:1027DB008012E4FD7F34121AF7E4FD7F35121AF7ED
:1027EB00E4FD7F36121AF7E4FD7F378019E4FD7F95
:1027FB0024121AF7E4FD7F25121AF7E4FD7F261247
:0A280B001AF7E4FD7F27121AF722E6
:10420A00ED14B40700502590421F75F003A4C5832E
:10421A0025F0C58373024235024235024235024215
:0C422A00350242350242350242362222A3
:014236002265
:01471800227E
:0D216800900644ECF0A3EDF0900643EFF07C
:10217500E4900647F0900648E0FFD39404748094F9
:10218500804003022304EF9400748094805003027E
:102195002304E024FE6065147003022252147003C8
:1021A5000222A424036003022304C3900645E0949D
:1021B500E8900644E094034004E4FB802E90064436
:1021C500E0FEA3E0FBC374E89BFF74039EFEE4946A
:1021D50000FDE49400FCE47B40FAF9F812085DE4A4
:1021E5007BE87A03F9F81208E8AB07EB543F900651
:1021F50046F0EB20E60302230402229FC390064526
:10220500E094E8900644E094034004E4FB802E90BB
:102215000644E0FEA3E0FBC374E89BFF74039EFE47
:10222500E49400FDE49400FCE47B80FAF9F81208DC
:102235005DE47BE87A03F9F81208E8AB07EB547F15
:10224500900646F0EB20E703022304804DC3900679
:1022550045E094E8900644E094034005E4FAFB80E9
:1022650030900644E0FEA3E0FBC374E89BFF7403D3
:102275009EFEE49400FDE49400FCE4FB7A01F9F889
:1022850012085DE47BE87A03F9F81208E8AA06ABC0
:1022950007900646EBF0EA30E065A37402F022C32E
:1022A500900645E094E8900644E094034005E4FA7E
:1022B500FB8030900644E0FEA3E0FBC374E89BFF7F
:1022C50074039EFEE49400FDE49400FCE4FB7A04B0
:1022D500F9F812085DE47BE87A03F9F81208E8AA30
:1022E50006AB07900646EBF0EAC4F854F0C8EBC419
:0F22F500540F485430A3F0EA30E204E04402F002
:0123040022B6
:03003B0002470376
:0647030030DF02C2DF32CC
:1046240090FFF27409F090FFF0E4F0A37464F04397
:03463400FE8022E3
:052A9D009005FFEFF0C1
:102AA2009006047401F0900604E0FFC39410748051
:102AB2009480503DAB07E4FAF9F89005FBE0FCA3E3
:102AC200E0FDA3E0FEA3E0FF1208E8E47BFF7A7FCB
:102AD200F9F81208E8900600E0F8A3E0F9A3E0FA9A
:102AE200A3E0FBD31209885008900604E004F080AA
:102AF200B5900604E0FBE4FAF9F89005FBE0FCA3CC
:102B0200E0FDA3E0FEA3E0FF1208E8900600E0F873
:102B1200A3E0F9A3E0FAA3E0FB1208E8900605128D
:102B22000999E47FFF7E7FFDFC900605E0F8A3E0B3
:102B3200F9A3E0FAA3E0FBD312098850289005FF1D
:102B4200E0702253FE7F900604E0C3940190FFF2EE
:102B5200F0900605A3A3E0FFA3E090FFF0CFF0A35F
:052B6200EFF043FE80CE
:012B6700224B
:0200C100EF222C
:1000C600EC4D6011E8497017ED33EC3304600DE434
:1000D600FCFFFEFD22E933E8330470F80203161232
:1000E60002E158046009E4CC248150062850090234
:1000F600032028400302031DC0E0EB4A7044B98088
:1001060006D0E0FB02030CEF4E701CBD8008EBFF2F
:10011600EAFEE9FD80EBE98DF0A4FEE5F00201AF11
:10012600E9CDF9EAFEEBFFEF89F0A4FCE5F0CE8914
:10013600F0A42EFFE435F0CD89F0A42DFEE435F0D1
:100146008067EF4E7005BD80D780C3EF8BF0A4ACFF
:10015600F0EE8BF0A42CFCE435F0F8EF8AF0A42C3A
:10016600E5F038FCE433CB8DF0A42CFCE5F03BF84D
:10017600EE8AF0A42CFCE5F038F8E433CF89F0A43D
:100186002CFCE5F038CF3400CE89F0A42FFFE5F043
:100196003EFEE433C98DF0A42EFEE5F039CD8AF09B
:1001A600A42FFFE5F03EFEE43DFD33D0E0FB500713
:1001B6000BBB000F020320EC2CFCEF33FFEE33FEEB
:0601C600ED33FD0202F81A
:1001CC00020320EC5D046005E85904700302031679
:1001DC001202E1580460F6EC4860F2EC7004FDFE8B
:1001EC00FF22C860DB2481C85009C3986002500606
:1001FC0002031D9850CAF582E9294B4A7005AB825F
:10020C0002030C75F0007C1A7880C3EF9BEE9AED1C
:10021C0099400DC3EF9BFFEE9AFEED99FDE842F07D
:10022C00DC23ACF0D0E0FFD0E0FED0E0FDAB8220D0
:10023C00E7101BEB60BAEC2CFCEF33FFEE33FEED5A
:10024C0033FD0202F8E803F830E705C0F075F00062
:10025C00EF2FFFEE33FEED33FD40B830E7C280AA3E
:10026C0075F020800E75F010800575F0087D007E0D
:10027C00007F003392D530D50312097AEC3340104D
:10028C00EF33FFEE33FEED33FDEC33FCD5F0ED2216
:0E029C00E5F0247EA2D513CC92E7CDCEFF2252
:1002AA00EDD2E7CD33EC3392D524814006E4FFFE4C
:1002BA00FDFC22FCE4CFCECDCC24E0501174FF80AB
:1002CA00EDC3CC13CCCD13CDCE13CECF13CF047048
:0702DA00F030D5DE02097AC5
:103E1A009004D9E0FFA3E0FEA3E0CF9004E2F0A370
:103E2A00EEF0A3EFF09004DCE0CBF0A3E0CAF0A33D
:103E3A00E0C9F07F229004E5AD82AC831206CB8DF7
:103E4A00828C83F0A309E970010ADFEC9004DCE0BC
:0A3E5A00FBA3E0FAA3E0F902110E49
:1002E100E9D2E7C933E833F892D5EDD2E7CD33EC63
:0702F10033FC5002B2D522DC
:1002F800EC30E7100FBF000C0EBE00080DBD000467
:100308000BEB6014A2D5EB13FCED92E7FD2274FF12
:10031800FCFDFEFF22E480F8A2D574FF13FC7D806B
:03032800E480EF7F
:1010A900E51624E2F582E43404F583E0051622907E
:1010B90004DF3009039004E2E475F0011209D60255
:1010C90006CB2002E97F2ED2028018EF540F24901C
:1010D900D43440D4FF30060BEF24BFB41A005003B8
:1010E9002461FFE51760021517051AE51A70020554
:1010F9001930090E9004DFE475F0011209D6EF02E8
:10110900071102435D7403D2098003E4C209F5168D
:101119009004DF1209EDE4F517F519F51AE51760E2
:10112900077F201210EC80F57518FFC203C202C2B6
:1011390004C205C207C208C20A1210B8FF700D30F6
:1011490009057F001210FDAF1AAE1922B4255FC23E
:10115900D5C2061210B8FF24D0B40A00501A75F08F
:101169000A781730D50508B6FF0106C6A426F62069
:10117900D5047002D20580D924CFB41A00EF5004E7
:10118900C2E5D2060213EFD20380C6D20280C0D2D2
:101199000480BCD2D580BAD20780B47F201210EC6B
:1011A9002004077401B5170040F11210A9FF1210AD
:1011B900EC021126D20AD20880951210A9FB12104E
:1011C900A9FA1210A9F94A4B700679ED7A147BFF36
:1011D90020042EE517602A7E008E82758300120690
:1011E900E460060EEE651870F0C2D5EBC0E0EAC007
:1011F900E0E9C0E0EE121450D0E0F9D0E0FAD0E016
:10120900FB1206CBFF60AAEBC0E0EAC0E0E9C0E050
:101219001210ECD0E02401F9D0E03400FAD0E0FB60
:10122900E5180460DCD518D98087D20480A212148D
:101239003260F7E51870010412032BA918600DE557
:1012490018600914F5181214DAEF60F3EA30E702AE
:10125900F404C3995079EAF425180430E701E40449
:10126900F518800D12143260C1EA05182518120309
:101279002BEA90050EF030E701E4251804D518048F
:1012890020070114121450E4C0E01214DA90050E7C
:10129900E0601320E70714F01210D4802204F0D084
:1012A900E014C0E07F001210D4E51860071210CBDB
:1012B9001518800B3007031210CBD0E0021126D08D
:1012C900E00480C4121432609EE5180412032B90C6
:1012D900050EEAF0E518200702600104240412143F
:0112E90050B4
:1012EA0074FF04C0E01214DA1210D4E518200702C1
:1012FA0060031210CBD0E0B518E87F451210DE90DB
:10130A00050EE07F2B30E7047F2DF404C0E01210B5
:10131A00ECD0E075F00A84C0F01210D5D0E01210BB
:10132A00D5021126791080027908C208C20A8008FB
:10133A00D2D5790A8004790AC2D5E518047002F573
:10134A0018E4FAFDFEFF1210A9FC7B082003131211
:10135A0010A9FD7B1030020A1210A9FE1210A9FF73
:10136A007B20EC3382D592D55013C3E43002069F1A
:10137A00FFE49EFEE42003039DFDE49CFCE4CBF81D
:10138A00C203EC700CCFCECDCCE824F8F870F38011
:10139A0017C3EF33FFEE33FEED33FDEC33FCEB33D3
:1013AA00FB994002FB0FD8E9EB300305F8D0E0C403
:1013BA0048B203C0E00AEC4D4E4F78207B0070C261
:1013CA00EAB5180040BCC0E0121452D0F0D0E020B8
:1013DA000304C4C0E0C4B203C0F01210D5D0F0D5E3
:1013EA00F0EB0211261209F611C353132E58119469
:1013FA004C11904213324F133A44133A4911A943FC
:10140A00134055126D4612CD45123747150D50112E
:10141A00982D119C2E11BF2B11A02311BD2014F65B
:10142A002A115848000011B7E518B4FF03751806C9
:10143A001210A9FC1210A9FD1210A9FE1210A9FF80
:10144A00900507020368790AA2D520051430070916
:10145A00B910020404B9080104A2D52008025001F7
:10146A00042004689204B517005034C0E07F20308D
:10147A0005197F30A20472087207500F1214A9C20C
:10148A0004C208C207C20A7F30800F300703E9C0CE
:10149A00E01210EC300703D0E0F9D0E0B517CC30F9
:1014AA0007177F30B9100C1210EC7F583006077FEF
:1014BA00788003B908031210EC3004057F2D02105E
:1014CA00EC7F20200AF87F2B2008F322920480CF99
:1014DA007F00B40700500B2407F582E43405F58336
:1014EA00E0FF22286E756C6C2900D2031210A93015
:1014FA0003F8C203781730D50108F60211582D50A7
:10150A004349581210A92403B405004001E4901578
:10151A0008931210DD743A1210DDD2057517040211
:02152A00132E7E
:10032B00F920E73624F950037907E4F42402FBE5BE
:10033B0082158270021583DBF6E024FB501BE9600B
:10034B0014E4F0E582158270021583E004F0B40A20
:0D035B0008E4F0D9EE7401F00A22C2D522A8
:10036800ED33EC3392D5FA602AB4FF33EDC2E77B64
:10037800FF60067A03798DE4227A03799620D50402
:100388007A037991224E614E002B494E46002D4941
:100398004E4600E47A08F0A3DAFC7B00740722C01A
:1003A80083C082ECC0E0EDC0E0EEC0E0EFC0E0EA60
:1003B80075F010A4CAABF075F04DA42BFBE435F032
:1003C800FCEA2410FAEB34C5FBEC34D9FCEDC2E7A7
:1003D800FF75F056A4F42411C5F0F434C58FF0A4C9
:1003E8002AE5F03BE43CF020E714120595D0E0FF45
:1003F800D0E0FED0E0FDD0E0FC1201CF8014F40480
:10040800120595D0E0FFD0E0FED0E0FDD0E0FC1270
:1004180000C6D082D083E0FAEDD2E7CD33EC3324A6
:1004280082FBE4C3CF33CFCE33CECD33CD33DBF332
:100438007B0775F00A846004F0A31B0AE5F0F0A3BB
:100448008FF0740AA4FFACF08EF0740AA42CFEACF2
:10045800F050010C8DF0740AA42CFDE435F0F0A3E3
:05046800DBDE74072239
:10046D00020316E86480F8E933E83360110460F0A4
:10047D00ED33EC337009E8FCE9FDEAFEEBFF2204F5
:10048D0060DED3EB9FEA9EE99DE8C2E78CF0C2F7F0
:10049D0095F0400CE8CCF8E9CDF9EACEFAEBCFFBBC
:1004AD001202E185D0F05804700320D5B3E8047032
:1004BD00075002B2D502032092D5EC0460F7E4CCCC
:1004CD00C0E0C398F8603B94186008400DD0E0FB85
:1004DD000202F8E4FBFAC9FC8028E830E406E4C91E
:1004ED00FBE4CAFCE830E305E4C9CACBFCE85407D9
:1004FD006010F8C3E913F9EA13FAEB13FBEC13FCE4
:10050D00D8F130F52FC3E49CFCEF9BFFEE9AFEED86
:10051D0099FDD0E0FBEF4E4D4C701222DB03020330
:10052D001DEC2CFCEF33FFEE33FEED33FDED30E72C
:10053D00EB0202F8EF2BFFEE3AFEED39FDD0E0FBBA
:10054D0050130BBB0003020320ED13FDEE13FEEF62
:08055D0013FFEC13FC0202F88D
:100565003F8000004120000042C80000447A00009E
:10057500461C400047C35000497424004B18968020
:100585004CBEBC205A0E1BCA6753C21C749DC5AE17
:10059500FB60065407601C23231205C3EB54386027
:1005A500091205AF1205BE1200C6ECF8EDF9EEFA18
:1005B500EFCB22EB1205BE80F1543803241C9005C5
:1005C50065FE93FC0EEE93FD0EEE930ECE93FF2289
:10325E0002152CE493A3F8E493A34003F68001F245
:10326E0008DFF48029E493A3F85407240CC8C33371
:10327E00C4540F4420C8834004F456800146F6DF40
:10328E00E4800B010204081020408090249FE47E0D
:10329E00019360BCA3FF543F30E509541FFEE49335
:1032AE00A360010ECF54C025E060A840B8E493A3FC
:1032BE00FAE493A3F8E493A3C8C582C8CAC583CA27
:1032CE00F0A3C8C582C8CAC583CADFE9DEE780BEDF
:0125E70000F3
:1005D500E709F608DFFA8046E709F208DFFA803E08
:1005E50088828C83E709F0A3DFFA8032E309F608F5
:1005F500DFFA8078E309F208DFFA807088828C835D
:10060500E309F0A3DFFA806489828A83E0A3F60810
:10061500DFFA805889828A83E0A3F208DFFA804CEA
:1006250080D280FA80C680D4806980F280338010C1
:1006350080A680EA809A80A880DA80E280CA80332A
:1006450089828A83ECFAE493A3C8C582C8CCC583A2
:10065500CCF0A3C8C582C8CCC583CCDFE9DEE78072
:100665000D89828A83E493A3F608DFF9ECFAA9F0F1
:10067500EDFB2289828A83ECFAE0A3C8C582C8CC47
:10068500C583CCF0A3C8C582C8CCC583CCDFEADE60
:10069500E880DB89828A83E493A3F208DFF980CCC2
:1006A50088F0EF60010E4E60C388F0ED2402B404BB
:1006B5000050B9F582EB2402B4040050AF23234562
:0606C5008223900625735C
:1006CB00BB010689828A83E0225002E722BBFE022D
:0906DB00E32289828A83E4932260
:1006E400BB010CE58229F582E5833AF583E02250CB
:1006F40006E92582F8E622BBFE06E92582F8E22215
:0D070400E58229F582E5833AF583E493222E
:10071100BB010689828A83F0225002F722BBFE01C7
:02072100F322C1
:10072300F8BB010DE58229F582E5833AF583E8F00C
:10073300225006E92582C8F622BBFE05E92582C8B8
:02074300F222A0
:10074500EF8DF0A4A8F0CF8CF0A428CE8DF0A42EC8
:02075500FE2282
:10075700BC000BBE0029EF8DF084FFADF022E4CC86
:10076700F875F008EF2FFFEE33FEEC33FCEE9DEC4F
:10077700984005FCEE9DFE0FD5F0E9E4CEFD22ED95
:10078700F8F5F0EE8420D21CFEADF075F008EF2FDF
:10079700FFED33FD4007985006D5F0F222C398FDD0
:0507A7000FD5F0EA226D
:1007AC00C2D5EC30E709B2D5E4C39DFDE49CFCEE68
:1007BC0030E715B2D5E4C39FFFE49EFE120757C382
:1007CC00E49DFDE49CFC800312075730D507C3E47D
:0607DC009FFFE49EFE22D7
:1007E200A3F8E0C5F025F0F0E582158270021583CA
:0607F200E0C838F0E82227
:1007F800BB0110E58229F582E5833AF583E0F5F03F
:10080800A3E0225009E92582F886F008E622BBFE1B
:100818000AE92582F8E2F5F008E222E5832AF58361
:08082800E993F5F0A3E9932226
:10083000F8BB0111E58229F582E5833AF583E8F0FA
:10084000E5F0A3F0225009E92582C8F608A6F022B7
:0D085000BBFE09E92582C8F2E5F008F2229E
:10085D00E88FF0A4CC8BF0A42CFCE98EF0A42CFC3A
:10086D008AF0EDA42CFCEA8EF0A4CDA8F08BF0A4B8
:10087D002DCC3825F0FDE98FF0A42CCD35F0FCEB17
:10088D008EF0A4FEA9F0EB8FF0A4CFC5F02ECD39DC
:0F089D00FEE43CFCEAA42DCE35F0FDE43CFC2249
:1008AC0075F008758200EF2FFFEE33FECD33CDCC03
:1008BC0033CCC58233C5829BED9AEC99E582984086
:1008CC000CF582EE9BFEED9AFDEC99FC0FD5F0D663
:1008DC00E4CEFBE4CDFAE4CCF9A88222B800C1B98D
:1008EC000059BA002DEC8BF084CFCECDFCE5F0CBCB
:1008FC00F97818EF2FFFEE33FEED33FDEC33FCEB04
:10090C0033FB10D703994004EB99FB0FD8E5E4F9BE
:10091C00FA227818EF2FFFEE33FEED33FDEC33FCAB
:10092C00C933C910D7059BE99A4007EC9BFCE99A9F
:10093C00F90FD8E0E4C9FAE4CCFB2275F010EF2FE4
:10094C00FFEE33FEED33FDCC33CCC833C810D707E4
:10095C009BEC9AE899400AED9BFDEC9AFCE899F81F
:0E096C000FD5F0DAE4CDFBE4CCFAE4C8F922B2
:0E097A00C3E49FFFE49EFEE49DFDE49CFC228E
:10098800EB9FF5F0EA9E42F0E99D42F0E89C45F0C5
:01099800223C
:0C099900ECF0A3EDF0A3EEF0A3EFF022D1
:1009A500A8828583F0D083D0821209BC1209BC12BB
:1009B50009BC1209BCE473E493A3C583C5F0C583E0
:1009C500C8C582C8F0A3C583C5F0C583C8C582C89C
:0109D50022FF
:1009D600F8E0FBA3A3E0F925F0F0E58215827002AA
:0709E6001583E0FA38F0224E
:0909ED00EBF0A3EAF0A3E9F0220B
:1009F600D083D082F8E4937012740193700DA3A390
:100A060093F8740193F5828883E4737402936860A3
:060A1600EFA3A3A380DFA3
:100A1C00EC8EF0A4CCC5F0CCCDF8EFA4CEC5F02D67
:100A2C00FDE43CFCE8A42EC8C5F03DFDE43CFCEF25
:0D0A3C00A4FFE5F028FEE43DFDE43CFC22B3
:10435D00EFB40A07740D124368740A309811A899C6
:10436D00B8130CC2983098FDA899C298B811F630C0
:07437D0099FDC299F5992298
:1036660090061CEBF0A3EAF0A3E9F0900622EBF03B
:10367600A3EAF0A3E9F090061CE0FBA3E475F001D1
:103686001207E2A9F0FA1206CB70EB90061D74FF42
:10369600F5F0120B5E90061FE0FBA3E475F0011235
:1036A60007E2A9F0FA1206CBFF90061CE0FBA3E4A2
:1036B60075F0011207E2A9F0FAEF12071170D69021
:0B36C6000622E0FBA3E0FAA3E0F922DB
:102C2E00900609EBF0A3EAF0A3E9F0E4900611F0A8
:102C3E00A3F0D3900610E0940090060FE064809409
:102C4E00805003022CE7900609E0FBA3E0FAA3E014
:102C5E00F9900611E0FEA3E0F5828E831206E46081
:102C6E0010900612E004F070DD900611E004F08082
:102C7E00D590060CE0FBA3E0FAA3E0F91206CB60B8
:102C8E003E90060CA3E475F0011207E2A9F0FA12C9
:102C9E0006CBFF900609E0FBA3E0FAA3E0F990064D
:102CAE0011E475F0011207E285F082F583EF120749
:102CBE002390060F74FFF5F0120B5E45F070B29084
:102CCE000609E0FBA3E0FAA3E0F9900611E0FEA3EB
:102CDE00E0F5828E83E4120723900609E0FBA3E061
:052CEE00FAA3E0F92249
:10336800900635EBF0A3EAF0A3E9F0900638E0FB0D
:10337800A3E0FAA3E0F91206CBFE900635E0FBA322
:10338800E0FAA3E0F91206CBFF6E702AEF600E9008
:10339800063B74FFF5F0120B5E45F070037F0022C8
:1033A800900636E475F001120B5E900639E475F06C
:1033B80001120B5E80B5900635E0FBA3E0FAA3E0AE
:1033C800F91206CBFDD3EE6480F8ED6480984003D3
:1033D8007F0122900638E0FBA3E0FAA3E0F9120689
:0733E800CBFFC3ED9FFF22A4
:100A4900E709F60870FA8046E709F20870FA803E6D
:100A590088828C83E709F0A370FA807EE309F6089F
:100A690070FA8076E309F20870FA806E88828C83C6
:100A7900E309F0A370FA806289828A83E0A3F60809
:100A890070FA805689828A83E0A3F20870FA804A54
:100A990080D280FA80C680D4806580F2803180104F
:100AA90080A680EA809A80A880DA80E280CA8031B4
:100AB90089828A83ECFAE493A3C8C582C8CCC5832A
:100AC900CCF0A3C8C582C8CCC583CC70E9800D8998
:100AD900828A83E493A3F60870F9ECFAA9F0EDFB96
:100AE9002289828A83ECFAE0A3C8C582C8CCC5836F
:100AF900CCF0A3C8C582C8CCC583CC70EA80DD8997
:100B0900828A83E493A3F20870F980CE88F0ED24F9
:100B190002B4040050C4F582EB2402B4040050BAB4
:090B29002323458223900A9973ED
:10000E00E4FFFE1206CB600C0FEF70010E09E970D3
:05001E00F20A80EF2250
:102DB600900430EBF0A3EAF0A3E9F0A3E0FBA3E074
:102DC600FAA3E0F91206CB7003022E62900430E0FB
:102DD600FBA3E0FAA3E0F91206CB7003022E6E9075
:102DE6000433E0F9A3E0FAA3E0A3C9F0A3EAF0A351
:102DF600E9F0900430A3E0FAA3E0F9900439EBF08F
:102E0600A3EAF0A3E9F0900436E0FBA3E0FAA3E01E
:102E1600F91206CBFF6026900439E0FBA3E0FAA383
:102E2600E0F91206CB6F701590043775F001120B9E
:102E36005E90043AE475F001120B5E80C990043688
:102E4600E0FBA3E0FAA3E0F91206CB7002800D9036
:102E56000431E475F001120B5E022DD2900430E0CD
:0F2E6600FBA3E0FAA3E0F9227B007A00790022B7
:1028F500900420EBF0A3EAF0A3E9F0900420E0FBBC
:10290500A3E0FAA3E0F91206CBFF124610500C9093
:102915000421E475F001120B5E80E0D202900420E0
:10292500E0FBA3E0FAA3E0F91206CBFF642B6004F9
:10293500EFB42D1D900420E0FBA3E475F001120710
:10294500E2A9F0FA1206CB642D6003D38001C3928D
:1029550002E4900423F0A3F0900420E0FBA3E0FA46
:10296500A3E0F91206CBFF1246965042900420E0F0
:10297500FBA3E0FAA3E0F91206CBFF3395E0FEEFE7
:1029850024D0FBEE34FFFA900423E0FEA3E0FF7CA5
:10299500007D0A120745EF2BFFEE3A900423F0A3C2
:1029A500EFF0900421E475F001120B5E80AA30026D
:1029B5000A900423E0FEA3E0FF800F900423E0FECD
:0B29C500A3E0FFC3E49FFFE49EFE229E
:100B3200EF4E6012EF60010EEDBB010B89828A83DA
:100B4200F0A3DFFCDEFA2289F05007F709DFFCA9E7
:0C0B5200F022BBFEFCF309DFFCA9F0223E
:100B5E00C5F0F8A3E028F0C5F0F8E5821582700222
:060B6E001583E038F022BF
:0F469600EFC394304007EF943A50028001C322E3
:10461000EFC394094005EF940E4004EFB42003D398
:044620008001C32230
:00000001FF
