:03000000022F23A9
:0C2F2300787FE4F6D8FD758130022F6A3B
:1023CE000D0A0073656E6420636D6420312D2D2D12
:1023DE002D2D2D2D2D2D2D2D2D0D0A0073656E6499
:1023EE0020636D6420322D2D2D2D2D2D2D2D2D2D77
:1023FE002D2D0D0A0073656E6420636D6420332DE0
:10240E002D2D2D2D2D2D2D2D2D2D2D0D0A00362E54
:10241E002E2E2E2E0D0A00372E2E2E2E2E0D0A00AB
:10242E00382E2E2E2E2E0D0A007374617274696E64
:10243E00672E2E0D0A0041542B434950534E5450D3
:10244E004346473D312C38004F4B0073656E642078
:10245E00636F6D6D616E642041542B434950534E32
:10246E0054504346473D312C3820204F4B0D0A0027
:10247E0073656E6420636F6D6D616E642041542BC5
:10248E00434950534E54504346473D312C382066F5
:10249E0061696C65640D0A007561727431202025C6
:1024AE0062642072656365697665643A002B434900
:1024BE0050534E545054494D453A0074696D653A27
:0124CE00000D
:10206200608001100000000000000000000000007D
:10207200000000000000000000000000000000005E
:10208200000000000000000000000000000000004E
:10209200000000000000000000000000000000003E
:1020A200000000000000000000000000000000002E
:1020B200000000000000000000000000000000001E
:1020C200000000000000000000000000000000000E
:1020D20000000000000000000000000000000000FE
:1020E200000000006080019000000000000000007D
:1020F20000000000000000000000000000000000DE
:1021020000000000000000000000000000000000CD
:1021120000000000000000000000000000000000BD
:1021220000000000000000000000000000000000AD
:10213200000000000000000000000000000000009D
:10214200000000000000000000000000000000008D
:10215200000000000000000000000000000000007D
:1021620000000000000000004100000041000700E4
:0D2172004202100000410212004102130061
:083DCE00A3F07B017A0179905A
:103DD600C002C001900424E0F9A3E0FAA3E0900435
:103DE6002AC9F0A3EAF0A3E9F0D001D002122A878B
:0B3DF600E94A4B60037F01227F00229E
:0B21A100900582EBF0A3EAF0A3E9F048
:1021AC00E49005ABF0FE7F20FD7B017A05798B1264
:1021BC0009E7E49005ABF0900582E0FBA3E0FAA3FD
:1021CC00E0F91200269005ABE0C39FE49E400302A9
:1021DC0022A0900585E0FBA3E0FAA3E0F91200260B
:1021EC0090063BEEF0A3EFF0900582E0FBA3E0FA43
:1021FC00A3E0F99005ABE0FF7E00E92FF9EE3AFA87
:10220C00C002C001900585E0F9A3E0FAA3E09006B6
:10221C0038C9F0A3EAF0A3E9F0D001D002123039AA
:10222C00EF7037900588E0F9A3E0FAA3E090061F61
:10223C00C9F0A3EAF0A3E9F07B017A05798B12329D
:10224C00B1900585E0FBA3E0FAA3E0F9120026EFBC
:10225C0014FF9005ABE02FF08031900582E0FBA3DA
:10226C00E0FAA3E0F99005ABE0FF7E00E92FF9EE70
:10227C003AFA900603EBF0A3EAF0A3E9F0A3E4F03A
:10228C00A304F0FB7A05798B1228FF9005ABE004D0
:10229C00F00221C3900582E0FBA3E0FAA3E0F8ACC6
:1022AC0002AD037B017A05798B1209CA900582E095
:0722BC00FBA3E0FAA3E0F927
:0122C30022F8
:0B2BFE009005ACEBF0A3EAF0A3E9F0B7
:102C0900E49005D4F0FE7F20FD7B017A0579B412AA
:102C190009E79005B2A3E09005D4F09005ACE0FB7C
:102C2900A3E0FAA3E0F91200269005D4E0FD33955C
:102C3900E0FCC3ED9FEC9E50439005ACE0FBA3E0A4
:102C4900FAA3E0F99005D4E0FF3395E08D82F5838E
:102C59001205EEFEEF3395E0FC9005B2E0FAA3E031
:102C6900FBC3ED9BFDEC9AFC74B42DF58274053C15
:102C7900F583EEF09005D4E004F0809F9005AFE075
:102C8900FBA3E0FAA3E0F8AC02AD037B017A057976
:0F2C9900B41209CA9005AFE0FBA3E0FAA3E0F97B
:012CA8002209
:0B26A200900417EBF0A3EAF0A3E9F0AE
:1026AD00E4900420F090041DE0FF900420E0C39F0F
:1026BD004003022760900417E0FBA3E0FAA3E0F9C2
:1026CD007F021233EE7BFF7A2379CE7F021233EE37
:1026DD007BFF7A2379D17F011233EE90041EE0FE49
:1026ED00A3E0FF1240717BFF7A2379EA7F01123359
:1026FD00EE9004247401F0A37401F0A37490F09093
:10270D000004E0FBA3E0FAA3E0F912379C7BFF7A0B
:10271D002479037F011233EE90041AE0F9A3E0FA55
:10272D00A3E0900424C9F0A3EAF0E9123DCEEF60D6
:10273D000E7BFF7A24791C7F011233EE7F01227B01
:10274D00FF7A2479257F011233EE900420E004F006
:10275D000226B27BFF7A24792E7F011233EE7F00A1
:01276D002249
:101D2400E4900415F0A3F01214369000017401F04D
:101D3400A37400F0A37408F0A37401F0A37400F07A
:101D4400A3748CF0900001E0FBA3E0FAA3E0F91285
:101D54003CB1900004E0FBA3E0FAA3E0F9123CB12B
:101D64007BFF7A2479377F011233EE90041C12082A
:101D74005A0001C2007F021239327FB87E0B124032
:101D8400719004247401F0A37401F0A37490F09092
:101D94000004E0FBA3E0FAA3E0F912379CEF70E142
:101DA400FE7F80FD7B017A0179901209E790041A85
:101DB40074FFF0A37424F0A37456F0A37403F0A387
:101DC4007401F0A3742CF07BFF7A2479441226A2C8
:101DD400EF7BFF60067A24795980047A24797E7F28
:101DE400011233EE900000E0D3940074809480409C
:101DF4005FE014F07BFF7A2479A6E0900425F07F5D
:101E0400011233EE9004247401F0A37401F0A3745E
:101E140010F0900001E0FBA3E0FAA3E0F912379C74
:101E24007B017A0179107F011233EE7B017A01790B
:101E3400107F021233EE7BFF7A2379CE7F021233B6
:101E4400EE7E007F807D007B017A0179101209E724
:101E5400900007E0D39400748094804087E014F0ED
:101E64009004247401F0A37401F0A37490F0900022
:101E740004E0FBA3E0FAA3E0F912379C7B017A01AA
:101E840079907F01123D6190042474FFF0A37424BF
:101E9400F074BB123DCEEF60167BFF7A2479C97FC4
:101EA400011233EE7B017A0179907F011233EE7EC9
:101EB400007F807D007B017A0179901209E7021D81
:011EC400E835
:103F0600900212E599F0900001E0FBA3E0FAA3E02D
:103F1600F9900212E0FD1234BA900212E0B40A06D9
:073F2600900000E004F0220E
:103F2D00900213E59BF0900004E0FBA3E0FAA3E000
:103F3D00F9900213E0FD1234BA900213E0B40A06B0
:073F4D00900007E004F022E0
:09217F00070800010A040105141F
:03428B000000220E
:103FC700E4FFFEEEC39408748094805017C2A712D2
:103FD700428BEFC313FF30A6034480FFD2A71242E0
:043FE7008B0E80DFDE
:013FEB0022B3
:0F3D9800C2A512428BC2A712428BD2A512428B38
:103DA700E4FEEEFD3395E0FCC3ED9408EC648094EB
:103DB700805013C2A712428BEFC313FF92A6D2A75C
:063DC70012428B0E80DCAD
:013DCD0022D3
:0A425000123D98123FC7D2A7C2A585
:01425A002241
:0F41FD00AB05123D98AF03123DA7D2A7C2A52272
:0B37F000900649EBF0A3EAF0A3E9F01B
:1037FB00A37480F0A37407F0E4FD7F8E1241FD905B
:10380B00064DE0FF14F0EF6027900649E0FBA3E4C0
:10381B0075F001120697A9F0FA1205D5FF12419A1D
:10382B00AD0790064CE0FF1241FDE02402F080CF83
:07383B007D807F8E0241FD3C
:02413600A907D7
:10413800E4FEE9C4540FFF7C007D0A12064FE954DF
:064148000F2FFFEC3EFE0C
:01414E00224E
:10419A00E4EF75F00A84C454F0FEEF75F00A84EE79
:0541AA0045F0FF7E005E
:0141AF0022ED
:0B3AA40090064EEBF0A3EAF0A3E9F05F
:103AAF00A37481F0A37407F0900652E0FF14F0EFB7
:103ABF006028900651E0FF12425012413690064E98
:103ACF00E0FBA3E475F001120697A9F0FAEF1206D6
:0A3ADF001B900651E02402F080CE97
:013AE90022BA
:10000300C2A5C2A7E4FD7F8E1241FDE4FD7F8012ED
:1000130041FD7DA67F901241FD7D807F8E0241FDD3
:103CB100900417EBF0A3EAF0A3E9F07E007F807D8A
:103CC10000900417E0FBA3E0FAA3E0F91209E790E2
:103CD1000417E0FBA3E0FAA3E0F9900082E4F5F019
:0C3CE1001206E5900080E4F5F00206E514
:1034BA00900510EDF090050DEBF0A3EAF0A3E9F00A
:1034CA00123C74EF6401604A900510E0FF90050D0C
:1034DA00E0FBA3E0FAA3E0F99000821206ADF582C0
:1034EA0085F083EF12062D9000821206AD2401FFAB
:1034FA00E435F0FE7C007D8012066190050DE0FB4C
:10350A00A3E0FAA3E0F9900082EC8DF01206E57FC1
:05351A0001227F0022E8
:103C7400900511EBF0A3EAF0A3E9F0900511E0FB45
:103C8400A3E0FAA3E0F99000821206AD2401FFE458
:103C940035F0FE7C007D801206619000801206AD36
:0D3CA400B50507ECB5F0037F01227F00227B
:1040AE009000821206ADFFAEF09000801206ADB504
:0D40BE000708E5F0B506037F01227F002210
:102CA90090042C7401F0A37404F0A37427F0900429
:092CB90021E0FBA3E0FAA3E0F91D
:102CC200900429EBF0A3EAF0A3E9F0900429E0FBD9
:102CD200A3E0FAA3E0F91240AEEF6401606E900443
:102CE20029E0FBA3E0FAA3E0F99000801206ADF51B
:102CF2008285F0831205EEFF90042CE0FBA3E0FA3C
:102D0200A3E0F9EF12061B900429E0FBA3E0FAA36B
:102D1200E0F99000801206ADF58285F083E4120698
:102D22002D9000801206AD2401FFE435F0FE7C00F8
:102D32007D80120661900429E0FBA3E0FAA3E0F98A
:0F2D4200900080EC8DF01206E57F01227F0022C9
:0B379C00900421EBF0A3EAF0A3E9F099
:1037A700E4900428F01240AEEF60037F0022122C51
:1037B700A9EF640170308010900427E0640A602349
:1037C700122CA9EF6401701B900427E0FF900424DA
:1037D700E0FBA3E475F001120697A9F0FAEF1206D1
:0837E7001B80D57F01227F0049
:0137EF0022B7
:072188004405F20000000015
:10407100EF4E601A9005EAE0FCA3E0FDED1D700132
:0E4081001C144C70F7EF1F70011E144E70E6F9
:01408F00220E
:0A425B00EF1FAC0670011E4C70F658
:014265002236
:103F7B009005EAE0FCA3E0FD1208D1E47B83FAF99B
:103F8B00F81207129005EE12084E9005EEE0C313DF
:063F9B00FEA3E013FF226B
:103E2E009005EDE06599600AE599F0E49005ECF0F7
:103E3E0080069005ECE004F09005ECE0C394E97484
:0C3E4E0080948040060075C760000022D0
:0B35E600900514EBF0A3EAF0A3E9F05D
:1035F10090057F7401F0A37405F0A37417F0900592
:1036010014E0F9A3E0FAA3E09004D0C9F0A3EAF032
:10361100A3E9F090057FE0F9A3E0FAA3E09004D3D9
:10362100C9F0A3EAF0A3E9F07B017A05793F123AE8
:103631001190057FE4F0A3F0A3F07B017A05793FB7
:053641007F01023D6164
:102B4600EF14601614602C14604D14606C1470033E
:102B5600022BDA24056003022BFD90FE02E0547E70
:102B66004480F0E030E0F390FE00E054FCF090FE8C
:102B760003807A90FE04E0547E4480F0E030E0F377
:102B860090FE00E054FC4403F090FE02E4F090FE58
:102B960008F090FE03F02290FE08E0547E4480F098
:102BA600E030E0F390FE00E054FC4402F090FE04B6
:102BB600E4F090FE02F0A3F02290FE03E0543E44BF
:102BC60080F0E030E0F390FE00E054FC4401F09029
:102BD600FE02801990FE03E0543E44C0F0E030E06F
:102BE600F390FE00E054FC4401F090FE02E4F09005
:082BF600FE08F090FE04F0223D
:0C423800EF90FE01700304F022EFF02272
:1014360043BA80AF9FE4FCFDFEC004A905AA06AB33
:101446000778FBE6FFD000C3EF9BFFEE9AFEED990F
:10145600FDEC98FCE47BF07AD2F9F8120712C3E4AB
:101466009FFF74369EFE746E9DFD74019CFC900475
:101476001712084E900417E0FCA3E0FDA3E0FEA3BC
:10148600E0FFC00790FE01E0FBE4FAF9F8D007128E
:10149600079D90041712084E7FC07EF67D577C008C
:1014A600900417E0F8A3E0F9A3E0FAA3E0FBC31267
:1014B600083D500D9005F212085A005460000216BD
:1014C600847FC07E267D827C00900417E0F8A3E02E
:1014D600F9A3E0FAA3E0FBC312083D500D9005F214
:1014E60012085A005B8D800216847F807EED7DAFE8
:1014F6007C00900417E0F8A3E0F9A3E0FAA3E0FB70
:10150600C312083D500D9005F212085A00A8C000FB
:101516000216847F807E2D7DE87C00900417E0F81B
:10152600A3E0F9A3E0FAA3E0FBC312083D500D9037
:1015360005F212085A00B71B000216847F807E3619
:101546007D257C01900417E0F8A3E0F9A3E0FAA357
:10155600E0FBC312083D500D9005F212085A01191E
:1015660040000216847F807E567D417C01900417E0
:10157600E0F8A3E0F9A3E0FAA3E0FBC312083D50AC
:101586000D9005F212085A01312D000216847F00D3
:101596007EDB7D5F7C01900417E0F8A3E0F9A3E011
:1015A600FAA3E0FBC312083D500D9005F212085A4B
:1015B600015180000216847F607E197D857C019032
:1015C6000417E0F8A3E0F9A3E0FAA3E0FBC31208CE
:1015D6003D500D9005F212085A016E36000216842F
:1015E6007F207EE07DB27C01900417E0F8A3E0F94D
:1015F600A3E0FAA3E0FBC312083D500C9005F212DB
:10160600085A019BFCC080767FE07EA67DE07C01C7
:10161600900417E0F8A3E0F9A3E0FAA3E0FBC312F5
:10162600083D500C9005F212085A01C9C380804E3D
:101636007F607E2B7DFF7C01900417E0F8A3E0F924
:10164600A3E0FAA3E0FBC312083D500C9005F2128A
:10165600085A01FA400080267F607E2B7DFF7C01C0
:10166600900417E0F8A3E0F9A3E0FAA3E0FBC312A5
:10167600083D500A9005F212085A02160EC0E47B85
:10168600107A27F9F89005F2E0FCA3E0FDA3E0FE4E
:10169600A3E0FF12079D9005EAEEF0A3EFF0E490B9
:0C16A60005EDF09005ECF0123646D2AFD6
:0116B2002215
:08427100010204081020408046
:10283900EF648870030228FEEF54F0F51BEF540F84
:10284900FE90427193F51CEED394077480948040F6
:10285900030228FEED604DE51B24F0602124F060A1
:102869002224F0602324F0602424F0602524F06001
:102879002624F060272470707C90FE10802190FE41
:1028890011801C90FE12801790FE13801290FE1486
:10289900800D90FE15800890FE16800390FE17E0CB
:1028A900451CF022E51B24F0602124F0602224F06D
:1028B900602324F0602424F0602524F0602624F0AD
:1028C90060272470702F90FE10802190FE11801CCB
:1028D90090FE12801790FE13801290FE14800D90C6
:1028E900FE15800890FE16800390FE17E0FFE51C98
:0528F900F4FEEF5EF0AB
:0128FE0022B7
:1016B300EF64887003021916EF54F0F51BEF540F13
:1016C300FE90427193F51CEED3940774809480408E
:1016D30003021916E51B24F0602424F0602524F08E
:1016E300602624F0602724F0602824F0602924F089
:1016F300602A24706003021916E4F51B8021751B10
:1017030001801C751B028017751B038012751B0457
:10171300800D751B058008751B068003751B07ED7F
:10172300FFD39403748094804003021916E51B7061
:1017330037EF7007E51CF452935294ED640170097E
:10174300E51C4293E51CF45294EDFF7E00640270A5
:1017530008E51C4293E51C4294EF64034E7009E5CF
:101763001CF45293E51C4294E51B64017037EDFFB2
:101773007E007007E51CF452915292EF64014E70A3
:1017830009E51C4291E51CF45292ED64027008E5F0
:101793001C4291E51C4292ED64037009E51CF4526E
:1017A30091E51C4292E51B64027037EDFF7E0070E9
:1017B30007E51CF452955296EF64014E7009E51C3F
:1017C3004295E51CF45296ED64027008E51C4295BF
:1017D300E51C4296ED64037009E51CF45295E51C83
:1017E3004296E51B64037037EDFF7E007007E51C2E
:1017F300F452B152B2EF64014E7009E51C42B1E5F7
:101803001CF452B2ED64027008E51C42B1E51C42BF
:10181300B2ED64037009E51CF452B1E51C42B2E574
:101823001B64047037EDFF7E007007E51CF452B3B0
:1018330052B4EF64014E7009E51C42B3E51CF45247
:10184300B4ED64027008E51C42B3E51C42B4ED64D8
:10185300037009E51CF452B3E51C42B4E51B6405AF
:101863007037EDFF7E007007E51CF452C952CAEFD2
:1018730064014E7009E51C42C9E51CF452CAED64CB
:10188300027008E51C42C9E51C42CAED64037009F5
:10189300E51CF452C9E51C42CAE51B64067037ED2A
:1018A300FF7E007007E51CF452CB52CCEF64014E6F
:1018B3007009E51C42CBE51CF452CCED64027008C0
:1018C300E51C42CBE51C42CCED64037009E51CF436
:1018D30052CBE51C42CCE51B64077037EDFF7E005D
:1018E3007007E51CF452E152E2EF64014E7009E522
:1018F3001C42E1E51CF452E2ED64027008E51C426F
:10190300E1E51C42E2ED64037009E51CF452E1E5F4
:031913001C42E291
:0119160022AE
:103BF700EFB408005038903C04F8282873023C1CA6
:103C0700023C1F023C22023C25023C28023C2B02BC
:103C17003C2E023C318D80228D90228DA0228DB0CA
:0F3C2700228DC0228DC8228DE822AF058FF82292
:103BB700EFB408005037903BC4F8282873023BDC69
:103BC700023BDF023BE2023BE5023BE8023BEB0242
:103BD7003BEE023BF1AF8022AF9022AFA022AFB005
:103BE70022AFC022AFC822AFE822AFF8227FFF2260
:1029C400EF64887003022A86EF54F0F51BEF540F6E
:1029D400FE90427193F51CEED3940774809480406A
:1029E40003022A86ED604AE51B24F0602124F0608E
:1029F4002224F0602324F0602424F0602524F06075
:102A04002624F0602724707079E51C428022E51C9E
:102A1400429022E51C42A022E51C42B022E51C4261
:102A2400C022E51C42C822E51C42E822E51C42F80B
:102A340022E51B24F0602224F0602424F060262484
:102A4400F0602824F0602A24F0602C24F0602E2406
:102A540070702FE51CF4528022E51CF4529022E59C
:102A64001CF452A022E51CF452B022E51CF452C01E
:102A740022E51CF452C822E51CF452E822E51CF4B9
:022A840052F806
:012A8600222D
:1031C500EF64887002FF22EF54F0F51BEF540FFEF9
:1031D50090427193F51CEED394077480948040035C
:1031E5007F0122E51B24F0602124F0602224F06099
:1031F5002324F0602424F0602524F0602624F06068
:10320500272470702685801D802185901D801C8552
:10321500A01D801785B01D801285C01D800D85C835
:103225001D800885E81D800385F81DE51D551C607A
:06323500037F01227F006F
:01323B002270
:10338600EF64886062EF54F0F51BEF540FFE904235
:103396007193F51CEED39407748094805049E51B15
:1033A60024F0602124F0602224F0602324F06024BD
:1033B60024F0602524F0602624F06027247070270E
:1033C600E51C628022E51C629022E51C62A022E5D3
:1033D6001C62B022E51C62C022E51C62C822E51C04
:0733E60062E822E51C62F819
:0133ED0022BD
:103B3000EFB40800503E903B3DF8282873023B55F7
:103B4000023B59023B5D023B61023B65023B69025D
:103B50003B6D023B71ED628022ED629022ED62A02E
:103B600022ED62B022ED62C022ED62C822ED62E871
:053B700022ED62F822C5
:102DF400A907EB6048E9B408004003022E8D902E29
:102E040009F8282873022E21022E25022E29022ECB
:102E14002D022E31022E35022E39022E3DED428036
:102E240022ED429022ED42A022ED42B022ED42C0BA
:102E340022ED42C822ED42E822ED42F822E9B4082C
:102E4400005046902E4EF8282873022E66022E6BF0
:102E5400022E70022E75022E7A022E7F022E84021A
:102E64002E89EDF4528022EDF4529022EDF452A01A
:102E740022EDF452B022EDF452C022EDF452C822F5
:0A2E8400EDF452E822EDF452F822BA
:10369D00EFB4090050459036AAF82828730236C5B4
:1036AD000236C90236CD0236D10236D50236D902DE
:1036BD0036DD0236E10236E5AE80801FAE90801B0E
:1036CD00AEA08017AEB08013AEC0800FAEC8800B19
:1036DD00AEE88007AEF880037F0122EE5D60037FC8
:0436ED0001227F0037
:0136F10022B6
:0C42440030313637161743441011404249
:1036460075985053873F538EDEE4FD7F011230C0DC
:1036560090041C12085A0001C2007F01123932433D
:103666008E4053890FC2ABC28FD28EC209D2AC75BF
:103676009A10E4FD7F021230C090041C12085A0012
:1036860001C2007F02123932438E0453AFFB438ED0
:0736960010C20A43AF01223C
:1030C00090041BEDF0EF24FE603F04707690041B2B
:1030D000E0FF54C0FEE5A2543F4EF5A2EFC4131327
:1030E000540325E02444F582E43442F583E493FF5D
:1030F000E4FD1216B390041BE0C41313540325E03F
:103100002445F582E43442803090041BE0FF5401F2
:10311000FEE5BA54FE4EF5BAEF25E0244CF582E404
:103120003442F583E493FFE4FD1216B390041BE0F0
:1031300025E0244DF582E43442F583E493FF7D03DA
:043140001216B3228E
:0539320090041BEFF002
:10393700E47B04FAF9F89005F2E0FCA3E0FDA3E0CC
:10394700FEA3E0FF12079D90041CE0F8A3E0F9A393
:10395700E0FAA3E0FB12079DC3E49FFFE49EFE90FD
:10396700041BE024FE600904700B8F8BEEF58D229B
:053977008FD7EEF5D62C
:01397C002228
:1040E700EF24FE600C0470128D99D20930090B8001
:0B40F700FBAF058F9BD20A200AFD22C0
:103D2800EF24FE6019047030EB6006D29BD29B80B2
:103D380004C29BC29B8D99D20930091C80FBEB60A1
:103D480008439A08439A088006539AF7539AF7AF9C
:093D5800058F9BD20A200AFD220E
:103D61009004D0EBF0A3EAF0A3E9F0AE079004D001
:103D7100E0FBA3E0FAA3E0F91205D56019AF0690C4
:103D810004D0A3E475F001120697A9F0FA1205D543
:073D9100FD1240E780D7227C
:0E33EE00900421EFF0A3EBF0A3EAF0A3E9F0C6
:1033FC009004CD7401F0A37404F0A37425F0900430
:10340C0022E0F9A3E0FAA3E09004D0C9F0A3EAF01B
:10341C00A3E9F09004CDE0F9A3E0FAA3E09004D383
:10342C00C9F0A3EAF0A3E9F07B017A04794D123AD2
:10343C00119004CDE4F0A3F0A3F0900421E0FF7B05
:08344C00017A04794D023D6193
:0300230002397D22
:10397D00C0E0C0F0C083C082C0D075D000C000C010
:10398D0001C002C003C004C005C006C007309808BE
:10399D00C298123F06123E2E309904C299C209D028
:1039AD0007D006D005D004D003D002D001D000D06E
:0A39BD00D0D082D083D0F0D0E032E9
:030043000238E59B
:1038E500C0E0C0F0C083C082C0D075D000C000C0A9
:1038F50001C002C003C004C005C006C007E59A3078
:10390500E006539AFE123F2DE59A30E105539AFDE4
:10391500C20AD007D006D005D004D003D002D0010A
:0D392500D000D0D0D082D083D0F0D0E032DE
:01004200229B
:014296002205
:014297002204
:014298002203
:014299002202
:01429A002201
:0200C100ED222E
:01429B002200
:0B24CF0090060AEFF0A3ECF0A3EDF084
:1024DA009005F2E0FCA3E0FDA3E0FEA3E0FFE41216
:1024EA00026C7B007A24797478491201CFA804A976
:1024FA0005AA06AB077F007EFF7D7F7C471201CFCE
:10250A001202AA90060FEEF0A3EFF07F007E1B7D69
:10251A00B77C009005F2E0F8A3E0F9A3E0FAA3E0A3
:10252A00FBD312083D500A74FF900611F0A3F08005
:10253A003B9005F2E0FCA3E0FDA3E0FEA3E0FFE48C
:10254A0012026C7B007A1B7937784B1201CFA804F0
:10255A00A905AA06AB077F007EFF7D7F7C47120193
:10256A00CF1202AA900611EEF0A3EFF090060FE048
:10257A00FEA3E0FF90060BE0FCA3E0FDD39FEC9ED8
:10258A00500FED9400EC94004007A3E4F0A304F08C
:10259A0022900611E0FEA3E0FFD3ED9FEC9E5017B8
:1025AA0090060CE0940090060BE094004009900617
:0725BA000DE4F0A3740CF026
:0125C10022F7
:01429C0022FF
:07427900E4FDFCAE04AF05FB
:01428000221B
:100A7E00E47B07FAF9F89005F2E0FCA3E0FDA3E0B1
:100A8E00FEA3E0FF12079D90062512084EE47B8818
:100A9E007A13F9F89005F2E0FCA3E0FDA3E0FEA3C3
:100AAE00E0FF12079D90062912084E7F0A7E8B7D6D
:100ABE00027C00900625E0F8A3E0F9A3E0FAA3E09B
:100ACE00FBC312083D504D7F1D7E637D017C00905F
:100ADE000625E0F8A3A3A3E012083D4037E47F6F9C
:100AEE00FEFDFC900629E0F8A3E0F9A3E0FAA3E0EE
:100AFE00FBD312083D401DE47FFAFEFDFC90062953
:100B0E00E0F8A3A3A3E012083D5009900214740765
:100B1E00F0020F9EE47B0EFAF9F89005F2E0FCA3CA
:100B2E00E0FDA3E0FEA3E0FF12079D90062512084C
:100B3E004EE47B107A27F9F89005F2E0FCA3E0FD75
:100B4E00A3E0FEA3E0FF12079D90062912084E7F38
:100B5E000A7E8B7D027C00900625E0F8A3E0F9A3C7
:100B6E00E0FAA3E0FBC312083D504D7F1D7E637D6E
:100B7E00017C00900625E0F8A3A3A3E012083D40F7
:100B8E0037E47F6FFEFDFC900629E0F8A3E0F9A3A1
:100B9E00E0FAA3E0FBD312083D401DE47FFAFEFD10
:100BAE00FC900629E0F8A3A3A3E012083D5009909B
:100BBE0002147406F0020F9EE47B15FAF9F8900504
:100BCE00F2E0FCA3E0FDA3E0FEA3E0FF12079D9080
:100BDE00062512084EE47B987A3AF9F89005F2E071
:100BEE00FCA3E0FDA3E0FEA3E0FF12079D90062903
:100BFE0012084E7F0A7E8B7D027C00900625E0F85F
:100C0E00A3E0F9A3E0FAA3E0FBC312083D504D7F29
:100C1E001D7E637D017C00900625E0F8A3A3A3E072
:100C2E0012083D4037E47F6FFEFDFC900629E0F888
:100C3E00A3E0F9A3E0FAA3E0FBD312083D401DE4C4
:100C4E007FFAFEFDFC900629E0F8A3A3A3E01208AC
:100C5E003D50099002147405F0020F9EE47B2AFAAF
:100C6E00F9F89005F2E0FCA3E0FDA3E0FEA3E0FF9F
:100C7E0012079D90062512084EE47B307A75F9F81E
:100C8E009005F2E0FCA3E0FDA3E0FEA3E0FF120757
:100C9E009D90062912084E7F0A7E8B7D027C009065
:100CAE000625E0F8A3E0F9A3E0FAA3E0FBC31208DF
:100CBE003D504D7F1D7E637D017C00900625E0F842
:100CCE00A3A3A3E012083D4037E47F6FFEFDFC9026
:100CDE000629E0F8A3E0F9A3E0FAA3E0FBD312089B
:100CEE003D401DE47FFAFEFDFC900629E0F8A3A32B
:100CFE00A3E012083D50099002147404F0020F9EF6
:100D0E00E47B54FAF9F89005F2E0FCA3E0FDA3E0D1
:100D1E00FEA3E0FF12079D90062512084EE47B60AD
:100D2E007AEAF9F89005F2E0FCA3E0FDA3E0FEA359
:100D3E00E0FF12079D90062912084E7F0A7E8B7DDA
:100D4E00027C00900625E0F8A3E0F9A3E0FAA3E008
:100D5E00FBC312083D504D7F1D7E637D017C0090CC
:100D6E000625E0F8A3A3A3E012083D4037E47F6F09
:100D7E00FEFDFC900629E0F8A3E0F9A3E0FAA3E05B
:100D8E00FBD312083D401DE47FFAFEFDFC900629C0
:100D9E00E0F8A3A3A3E012083D50099002147403D7
:100DAE00F0020F9EE47B8CFAF9F89005F2E0FCA3BA
:100DBE00E0FDA3E0FEA3E0FF12079D9006251208BA
:100DCE004E7BA07A86790178009005F2E0FCA3E0D4
:100DDE00FDA3E0FEA3E0FF12079D90062912084E28
:100DEE007F0A7E8B7D027C00900625E0F8A3E0F959
:100DFE00A3E0FAA3E0FBC312083D504D7F1D7E63B6
:100E0E007D017C00900625E0F8A3A3A3E012083D27
:100E1E004037E47F6FFEFDFC900629E0F8A3E0F971
:100E2E00A3E0FAA3E0FBD312083D401DE47FFAFED7
:100E3E00FDFC900629E0F8A3A3A3E012083D50099B
:100E4E009002147402F0020F9EE47BA8FAF9F89057
:100E5E0005F2E0FCA3E0FDA3E0FEA3E0FF12079D78
:100E6E0090062512084E7BC07AD479017800900541
:100E7E00F2E0FCA3E0FDA3E0FEA3E0FF12079D90CD
:100E8E00062912084E7F0A7E8B7D027C0090062575
:100E9E00E0F8A3E0F9A3E0FAA3E0FBC312083D508B
:100EAE004D7F1D7E637D017C00900625E0F8A3A397
:100EBE00A3E012083D4037E47F6FFEFDFC9006294B
:100ECE00E0F8A3E0F9A3E0FAA3E0FBD312083D405B
:100EDE001DE47FFAFEFDFC900629E0F8A3A3A3E033
:100EEE0012083D50099002147401F0020F9EE47B2B
:100EFE002D7A01F9F89005F2E0FCA3E0FDA3E0FEE7
:100F0E00A3E0FF12079D90062512084E7BD87A4764
:100F1E00790378009005F2E0FCA3E0FDA3E0FEA3C8
:100F2E00E0FF12079D90062912084E7F0A7E8B7DE8
:100F3E00027C00900625E0F8A3E0F9A3E0FAA3E016
:100F4E00FBC312083D50497F1D7E637D017C0090DE
:100F5E000625E0F8A3A3A3E012083D4033E47F6F1B
:100F6E00FEFDFC900629E0F8A3E0F9A3E0FAA3E069
:100F7E00FBD312083D4019E47FFAFEFDFC900629D2
:100F8E00E0F8A3A3A3E012083D5005E4900214F08C
:100F9E0090062512085A0000000090062912085AE1
:040FAE00000000003F
:010FB200221C
:0E422A00E4F5C7F5C5F5C675C3FF75C4FF22E0
:083FEC009005E0E0FEA3E0FFF8
:103FF400900214E04480F5C775C5038FC4EEF5C381
:0A40040075C65A75C6A50002422ACF
:103C36009005E8E0FCA3E0FD9005E1E02DFF90058E
:103C4600E0E03CFE74152DF58274023CF583E0FD40
:103C5600900214E04480F5C775C5028FC4EEF5C323
:0E3C6600AF058FC275C65A75C6A50002422A68
:0C3EDE009005E1E02FFF9005E0E03EFEC3
:103EEA00900214E04480F5C775C5018FC4EEF5C38E
:0C3EFA0075C65A75C6A500AFC202422A68
:10345400900613EEF0A3EFF0A3EBF0A3EAF0A3E9D8
:01346400F077
:10346500E490061AF0A3F0900618E0FEA3E0FFA38F
:10347500E0FCA3E0FDC39FEC9E5039900614E02DBF
:10348500FF900613E03CFE123EEA900615E0FBA312
:10349500E0FAA3E0F990061AE0FCA3E0F5828C833C
:1034A500EF12062D90061BE004F070BB90061AE0A3
:0434B50004F080B3EC
:0134B90022F0
:0B1917009005D7EBF0A3EAF0A3E9F085
:10192200E49005E4F0A3F0A3EEF0A3EFF09005DA63
:10193200E0FFA3E0A3CFF0A3EFF09005E6E0FCA365
:10194200E0FDECC313FB7A007F0025E0FE9005E08A
:10195200F0A3EFF02400FFEE3402FEC3EF9DFFEE92
:101962009CFE9005DEF0A3EFF0D39005DDE09F90A2
:1019720005DCE09E4003021A59E49005E8F0A3F06A
:101982009005E8E0FEA3E0FFC3EE94025025123E6C
:10199200DE9005E8E0FCA3E02415F58274023CF534
:1019A20083EFF09005E9E004F070D59005E8E004DB
:1019B200F080CD123FEC9005E0E0FEA3E0FFC39083
:1019C20005E7E09FFF9005E6E09E9005E2F0A3EFB9
:1019D200F0E49005E8F0A3F09005DCE0FEA3E0FF60
:1019E2009005E8E0FCA3E0FDC39FEC9E5047900504
:1019F200E5E02DFF9005E4E03CFE9005D7E0FBA377
:101A0200E0FAA3E0F98F828E831205EEFF9005E3E0
:101A1200E02DFD9005E2E03CFC74152DF582740288
:101A22003CF583EFF09005E9E004F070AB9005E837
:101A3200E004F080A3E49005E8F0A3F0123C3690B5
:101A420005E9E004F070069005E8E004F0C39005B3
:101A5200E8E0940240E622E49005E8F0A3F0900565
:101A6200E8E0FEA3E0FFC3EE94025025123EDE90B2
:101A720005E8E0FCA3E02415F58274023CF583EF4F
:101A8200F09005E9E004F070D59005E8E004F080FC
:101A9200CD123FEC9005E0E0FEA3E0FFC39005E726
:101AA200E09FFF9005E6E09E9005E2F0A3EFF0E4F0
:101AB2009005E8F0A3F09005DEE0FEA3E0FF9005BC
:101AC200E8E0FCA3E0FDC39FEC9E50479005E5E0F3
:101AD2002DFF9005E4E03CFE9005D7E0FBA3E0FA81
:101AE200A3E0F98F828E831205EEFF9005E3E02DCD
:101AF200FD9005E2E03CFC74152DF58274023CF584
:101B020083EFF09005E9E004F070AB9005E8E004A3
:101B1200F080A3E49005E8F0A3F0123C369005E9CA
:101B2200E004F070069005E8E004F0C39005E8E0F8
:101B3200940240E69005DEE0FEA3E0FF9005E7E0B8
:101B42002FF09005E6E03EF0C39005DDE09FF090B7
:101B520005DCE09EF09005E5E02FF09005E4E03E24
:041B6200F002193C38
:10323C00900678EFF024FC602024FC603024FC60C5
:10324C0040240C70517D037F131216B3E4FD7F14E0
:10325C001216B37D037F15803A7D037F231216B3BC
:10326C00E4FD7F241216B37D037F2580267D037F2A
:10327C00751216B3E4FD7F761216B37D037F77804B
:10328C00127D037F341216B3E4FD7F331216B37D27
:10329C00037F321216B3900678E0540CFFE5A2546B
:0532AC00F34FF5A22222
:0F420C00E4FF12323C75CE5075CDC043CE402238
:1040CB007DF47C018FCFE5CD30E704ED4C6007ED3F
:0B40DB001D70F31C80F043CDC0AFCF80
:0140E60022B7
:0B218F00012A004106730041067200A7
:102E8E009000051205EEFF900673E06F7003022F9F
:102E9E00221205D5FEC4540F7826F6EE540FFEF816
:102EAE007401088002C333D8FC7827F69000011213
:102EBE0005EEFEC4540F7823F6EE540FFEF874019F
:102ECE00088002C333D8FC7825F69000021205EE76
:102EDE00FEC4540F7822F6EE540FFEF874010880EB
:102EEE0002C333D8FC7824F69000031205EEFEC41C
:102EFE00540F7828F6EE540FFEF87401088002C3C2
:102F0E0033D8FC7829F69000041205EE782AF69054
:052F1E000673EFF02234
:1025C20090062DEBF0A3EAF0A3E9F0A3EDF090065C
:1025D2002DE0FBA3E0FAA3E0F9ED12061B90063111
:1025E200E0FF90062DE0FBA3E0FAA3E0F9900001E2
:1025F200EF12062D900632E090000212062D900690
:1026020033E090000312062D900634E0900004128D
:10261200062D900630E0FF7D031216B3900634E0DB
:1026220090063030E106E0FF7D018004E0FFE4FD2A
:102632001229C4900634E030E714900631E0FF7DA1
:10264200031216B3900631E0FF7D011229C49006F1
:1026520034E030E614900632E0FFE4FD1216B39047
:102662000632E0FF7D011229C4900634E030E51401
:10267200900633E0FF7D031216B3900633E0FF7D30
:10268200011229C4900672E004FFF090062DE0FBCF
:10269200A3E0FAA3E0F9900005EF12062D022E8EB8
:10004600900673E06F6073EDC4540F7826F6ED5496
:100056000FFEF87401088002C333D8FC7827F6EB4C
:10006600C4540F7823F6EB540FFEF874010880028F
:10007600C333D8FC7825F6900640E0FEC4540F78CA
:1000860022F6EE540FFEF87401088002C333D8FC42
:100096007824F6900641E0FEC4540F7828F6EE5414
:1000A6000FFEF87401088002C333D8FC7829F69055
:0B00B6000642E008F6900673EFF0220F
:0D2D5100900654EDF0A3EBF0900653EFF068
:102D5E007D031216B3900657E090065330E106E05D
:102D6E00FF7D018004E0FFE4FD1229C4900657E0C8
:102D7E0030E714900654E0FF7D031216B39006540C
:102D8E00E0FF7D011229C4900657E030E61490064C
:102D9E0055E0FFE4FD1216B3900655E0FF7D0112DB
:102DAE0029C4900657E030E514900656E0FF7D03E7
:102DBE001216B3900656E0FF7D011229C4900672DA
:102DCE00E004F0FCFF900653E0FDA3E0FBA3E090CF
:102DDE000640F0900656E0900641F0900657E090BF
:062DEE000642F00200465F
:051B6600900667EFF09E
:101B6B00E490066AF0782AE6782630E109E6FF0869
:101B7B00E6FD7B018007E6FF08E6FDE4FB122DF492
:101B8B00782AE654306430700C7828E6FF08E6FDBE
:101B9B00E4FB122DF4782AE620E203021C5990068E
:101BAB00687480F0E4A3F0900669E0C39408748035
:101BBB0094804003021D09900668E0FF900667E0E1
:101BCB005F7823600AE6FF7825E6FD7B018008E657
:101BDB00FF7825E6FDE4FB122DF47826E6FF08E6F8
:101BEB00FD123B30782AE630E6225401701E782233
:101BFB00E6FF7824E6FD12369DEF601090066AE052
:101C0B00FF900668E0FEEF4E90066AF07826E6FF3E
:101C1B0008E6FD123B30782AE630E62454016401D5
:101C2B00701E7822E6FF7824E6FD12369DEF6010D9
:101C3B0090066AE0FF900668E0FEEF4E90066AF0B1
:101C4B00900668E0C313F0A3E004F0021BB2900609
:101C5B00687401F0E4A3F0900669E0C39408748003
:101C6B0094804003021D09900668E0FF900667E030
:101C7B005F7823600AE6FF7825E6FD7B018008E6A6
:101C8B00FF7825E6FDE4FB122DF47826E6FF08E647
:101C9B00FD123B30782AE630E6225401701E782282
:101CAB00E6FF7824E6FD12369DEF601090066AE0A1
:101CBB00FF900668E0FEEF4E90066AF07826E6FF8E
:101CCB0008E6FD123B30782AE630E6245401640125
:101CDB00701E7822E6FF7824E6FD12369DEF601029
:101CEB0090066AE0FF900668E0FEEF4E90066AF001
:101CFB00900668E025E0F0A3E004F0021C62782A6D
:101D0B00E654306430700C7828E6FF08E6FD7B0162
:081D1B00122DF490066AE0FFAE
:011D2300229D
:10358300F0EF543FFFE054C04FF090FE82E4F0FFB1
:10359300EF24F0601724F0602224F0602D243070B3
:1035A3003643913043923090FE1180094395304366
:1035B300963090FE12E04430F0801C43E1C043E2B9
:1035C300C090FE17E044C0F0800D43B10C43B20C31
:1035D30090FE13E0440CF0EF5430FFE5BA54CF4FA4
:0335E300F5BA2214
:10405100900679E06F6018EFF090FE80E0547FF0F9
:10406100EF5430FFE5BA54CF4FF5BAE04480F02267
:103AEA00EF24F0601724F0602124F0602B2430705A
:103AFA00345391CF5392CF90FE1180095395CF53EF
:103B0A0096CF90FE12E054CFF02253E13F53E23FAA
:103B1A0090FE17E0543FF02253B1F353B2F390FEF4
:063B2A0013E054F3F02249
:1036F200E47B02FAF9F89005F2E0FCA3E0FDA3E016
:10370200FEA3E0FF12079D7BA07A86790178001262
:10371200079DEF24FCFFEE34FFFEED34FFFDEC3499
:10372200FFFCE47B02FAF9F812079DEF543FFF9089
:10373200FE80E04440123583E4900679F090FE80EA
:04374200E04480F0EF
:013746002260
:10374700E47B02FAF9F89005F2E0FCA3E0FDA3E0C0
:10375700FEA3E0FF12079D7BA07A8679017800120D
:10376700079DEF24FCFFEE34FFFEED34FFFDEC3444
:10377700FFFCE47B02FAF9F812079DEF543FFF9034
:10378700FE80E054BF123583E4900679F090FE8006
:04379700E04480F09A
:01379B00220B
:0300C300024102F5
:10410200C0E0C083C08290FE82E030E606E054BF89
:0A411200F0C20BD082D083D0E0325F
:1041B0007F0AD20B90FE817481F0300B06AE071F90
:0341C000EE70F7A7
:0141C30022D9
:1041C4007F0AD20B90FE817486F0300B06AE071F77
:0341D400EE70F793
:0141D70022C5
:10414F007E0A90FE86EFF0D20B90FE817482F030E3
:08415F000B06AF061EEF70F71E
:014167002235
:104168007F0AD20B90FE82E4F090FE817485F030D5
:084178000B06AE071FEE70F705
:01418000221C
:10411C007F0AD20B90FE827401F090FE817485F0C0
:09412C00300B06AE071FEE70F720
:014135002267
:104181007F0AD20B90FE817484F0300B06AE071FBC
:08419100EE70F790FE87E0FFDD
:014199002203
:104090007F0AD20B90FE817483F0300B06AE071FAF
:0D40A000EE70F790FE82E05402C31324FF7F
:0140AD0022F0
:06219A00013000012F00DE
:1039C7009000021205EEFF782F66603D1205D5FEC6
:1039D700C4540F782DF6EE540FFEF87401088002D8
:1039E700C333D8FC782EF69000011205EEFEC454BE
:1039F7000F782BF6EE540FFEF87401088002C333DC
:0A3A0700D8FC782CF6782FA60722D1
:102FAF00900658EBF0A3EAF0A3E9F0A3EDF090063A
:102FBF0058E0FBA3E0FAA3E0F9ED12061B90065CC4
:102FCF00E0FF900658E0FBA3E0FAA3E0F9900001C0
:102FDF00EF12062D90065BE0FF7D021216B39006EE
:102FEF005CE0FF7D021216B390065BE0FF7D0112DD
:102FFF00283990065CE0FF7D0112283990065BE0CE
:10300F00FF7D011229C490065CE0FF7D011229C4E7
:10301F00783006E6FF900658E0FBA3E0FAA3E0F94C
:0A302F00900002EF12062D0239C7CF
:103CED00782FE66F6034EDC4540F782DF6ED540F38
:103CFD00FEF87401088002C333D8FC782EF6EBC4AD
:103D0D00540F782BF6EB540FFEF87401088002C3A4
:0B3D1D0033D8FC782CF6782FA6072284
:0A384200900675EDF0900674EFF0AB
:10384C007D021216B3900675E0FF7D021216B3903E
:10385C000674E0FF7D01122839900675E0FF7D01AA
:10386C00122839900674E0FF7D011229C490067568
:10387C00E0FF7D011229C4783006E6FCFF90067447
:08388C00E0FDA3E0FB023CEDAE
:10389400782BE6FF08E6FD7B01122DF4782DE6FF78
:1038A40008E6FD7B01122DF4782BE6FF08E6FD12F5
:1038B400369DEF70037FFF22782BE6FF08E6FD12AA
:1038C4003B30782BE6FF08E6FD12369DEF6401706D
:1038D400037FFF22782DE6FF08E6FD123B307F00D0
:0138E40022C1
:103E5A00782BE6FF08E6FDE4FB122DF4782DE6FF49
:103E6A0008E6FDE4FB122DF4782DE6FF08E6FD12C4
:0C3E7A003B30782BE6FF08E6FD023B30F1
:103E8600782DE6FF08E6FDE4FB122DF4782BE6FF1D
:103E960008E6FDE4FB122DF4782DE6FF08E6FD1298
:0C3EA6003B30782DE6FF08E6FD023B30C3
:103EB200782DE6FF08E6FDE4FB122DF4782BE6FFF1
:103EC20008E6FD7B01122DF4782DE6FF08E6FD12CF
:0C3ED2003B30782DE6FF08E6FD023B3097
:103A5B00782DE6FF08E6FDE4FB122DF4782BE6FF4C
:103A6B0008E6FD7B01122DF4782DE6FF08E6FD122A
:103A7B003B30782BE6FF08E6FD12369DEF640178AC
:103A8B002D700BE6FF08E6FD123B307FFF22E6FFB1
:093A9B0008E6FD123B307F002219
:0531440090066FEFF0A2
:10314900900671F0782B30E709E6FF08E6FD7B0170
:103159008007E6FF08E6FDE4FB122DF4782DE6FF73
:1031690008E6FDE4FB122DF4E4900670F090067079
:10317900E0C3940874809480504190066FE0FF90FA
:103189000671E06F30E70A782BE6FF08E6FD123B8F
:1031990030782DE6FF08E6FD123B3090066FE0908F
:1031A9000671F025E090066FF0782DE6FF08E6FD40
:0B31B900123B30900670E004F080B282
:0131C40022E8
:10351F00E4900677F0782BE6FF08E6FD7B01122D8D
:10352F00F4E4900676F0900676E0C39408748094E5
:10353F0080503BA3E025E0F0782DE6FF08E6FD7B09
:10354F0001122DF4782BE6FF08E6FD12369DEF648D
:10355F00017007900677E04401F0782DE6FF08E64A
:10356F00FDE4FB122DF4900676E004F080B890068F
:03357F0077E0FFF3
:013582002226
:0B331C0090065DEBF0A3EAF0A3E9F0DF
:10332700E4900661F0900660F0900660E0C3948038
:10333700748094805043123894900660E025E0FF33
:10334700123144123A5BEF7025900660E025E0FFEA
:1033570090065DE0FBA3E0FAA3E0F9900661E0F5D3
:1033670082758300EF12062D900661E004F0123E8D
:0E3377005A900660E004F080B0900661E0FF1E
:013385002225
:10400E0075DE2F78EFE6FC08E6FDE4120271E4FBA4
:10401E00FA797A78441201CF90066B12084E43BC9F
:02402E008022EE
:10403000EF540FFFE5BC54F04FF5BC43BC4000000B
:10404000E5BC30E5FB53BCDFAFBDEFFEADBEEDFF21
:01405000224D
:103FA100124030AD07AC06E4120271900663E0F8EE
:103FB100A3E0F9A3E0FAA3E0FB1200C6E4FBFA795F
:063FC1008078450201CFEB
:03428E00D2AD228C
:03429100C2AD2299
:103B75007F0F124030EF4E7005FFFEFDFC22AD07B2
:103B8500AC06E4120271C004C005C006C007E4FF1C
:103B9500FE7D807C4590066BE0F8A3E0F9A3E0FA92
:103BA500A3E0FB1200C6D003D002D001D000120161
:013BB500CF40
:013BB60022EC
:0F421B0075E7C175E63490FEAEE4F043E680220D
:0B426600E5E630E0037F01227F00222C
:04003E0043E68022F3
:0442870053E67F2259
:1041EB00E4F5D8F5E9F5F975D9087F101222C4D298
:0241FB00DE22C2
:1022C40090067AEFF0E0FF5430FEE5A254CF4EF5CD
:1022D400A2EF24F0603124F0604F24F0606D2430CC
:1022E4006003022372E4FD7F121216B3E4FD7F172C
:1022F4001216B3E4FD7F161216B3E4FD7F15121611
:10230400B3E4FD7F148064E4FD7F221216B3E4FD80
:102314007F231216B3E4FD7F241216B3E4FD7F2558
:102324001216B3E4FD7F268042E4FD7F741216B3D7
:10233400E4FD7F701216B3E4FD7F711216B3E4FD61
:102344007F721216B3E4FD7F738020E4FD7F3512A3
:1023540016B3E4FD7F331216B3E4FD7F321216B3D5
:10236400E4FD7F311216B3E4FD7F301216B39006FC
:102374007AE024F0601C24F060332420704BE4FDE8
:102384007F121216B3E4FD7F111216B3E4FD7F1021
:102394008012E4FD7F341216B3E4FD7F351216B3C8
:1023A400E4FD7F361216B3E4FD7F378019E4FD7F28
:1023B400241216B3E4FD7F251216B3E4FD7F261222
:0A23C40016B3E4FD7F271216B322C2
:103E0100ED14B407005025903E1675F003A4C58348
:103E110025F0C58373023E2C023E2C023E2C023E4D
:0C3E21002C023E2C023E2C023E2D2222E0
:013E2D002272
:01429D0022FE
:0D1EC500900644ECF0A3EDF0900643EFF022
:101ED200E4900647F0900648E0FFD394047480949F
:101EE200804003022061EF940074809480500302CA
:101EF2002061E024FE6065147003021FAF147003BA
:101F020002200124036003022061C3900645E0948D
:101F1200E8900644E094034004E4FB802E900644DB
:101F2200E0FEA3E0FBC374E89BFF74039EFEE4940F
:101F320000FDE49400FCE47B40FAF9F8120712E495
:101F42007BE87A03F9F812079DAB07EB543F900642
:101F520046F0EB20E603022061021FFCC390064517
:101F6200E094E8900644E094034004E4FB802E9061
:101F72000644E0FEA3E0FBC374E89BFF74039EFEED
:101F8200E49400FDE49400FCE47B80FAF9F8120783
:101F920012E47BE87A03F9F812079DAB07EB547F52
:101FA200900646F0EB20E703022061804DC39006C5
:101FB20045E094E8900644E094034005E4FAFB808F
:101FC20030900644E0FEA3E0FBC374E89BFF740379
:101FD2009EFEE49400FDE49400FCE4FB7A01F9F82F
:101FE200120712E47BE87A03F9F812079DAA06ABFE
:101FF20007900646EBF0EA30E065A37402F022C3D4
:10200200900645E094E8900644E094034005E4FA23
:10201200FB8030900644E0FEA3E0FBC374E89BFF24
:1020220074039EFEE49400FDE49400FCE4FB7A0455
:10203200F9F8120712E47BE87A03F9F812079DAA6D
:1020420006AB07900646EBF0EAC4F854F0C8EBC4BE
:0F205200540F485430A3F0EA30E204E04402F0A7
:01206100225C
:03003B00024281FD
:0642810030DF02C2DF3253
:1041D80090FFF27409F090FFF0E4F0A37464F043E8
:0341E800FE802234
:05276E009005F6EFF0FC
:102773009005FB7401F09005FBE0FFC39410748097
:102783009480503DAB07E4FAF9F89005F2E0FCA31E
:10279300E0FDA3E0FEA3E0FF12079DE47BFF7A7F49
:1027A300F9F812079D9005F7E0F8A3E0F9A3E0FA22
:1027B300A3E0FBD312083D50089005FBE004F08032
:1027C300B59005FBE0FBE4FAF9F89005F2E0FCA311
:1027D300E0FDA3E0FEA3E0FF12079D9005F7E0F8FC
:1027E300A3E0F9A3E0FAA3E0FB12079D9005FC1216
:1027F300084EE47FFF7E7FFDFC9005FCE0F8A3E03C
:10280300F9A3E0FAA3E0FBD312083D50289005F6A4
:10281300E0702253FE7F9005FBE0C3940190FFF22A
:10282300F09005FCA3A3E0FFA3E090FFF0CFF0A39B
:05283300EFF043FE8000
:01283800227D
:02429400EF2217
:1000C600EC4D6011E8497017ED33EC3304600DE434
:1000D600FCFFFEFD22E933E8330470F80203161232
:1000E60002E158046009E4CC248150062850090234
:1000F600032028400302031DC0E0EB4A7044B98088
:1001060006D0E0FB02030CEF4E701CBD8008EBFF2F
:10011600EAFEE9FD80EBE98DF0A4FEE5F00201AF11
:10012600E9CDF9EAFEEBFFEF89F0A4FCE5F0CE8914
:10013600F0A42EFFE435F0CD89F0A42DFEE435F0D1
:100146008067EF4E7005BD80D780C3EF8BF0A4ACFF
:10015600F0EE8BF0A42CFCE435F0F8EF8AF0A42C3A
:10016600E5F038FCE433CB8DF0A42CFCE5F03BF84D
:10017600EE8AF0A42CFCE5F038F8E433CF89F0A43D
:100186002CFCE5F038CF3400CE89F0A42FFFE5F043
:100196003EFEE433C98DF0A42EFEE5F039CD8AF09B
:1001A600A42FFFE5F03EFEE43DFD33D0E0FB500713
:1001B6000BBB000F020320EC2CFCEF33FFEE33FEEB
:0601C600ED33FD0202F81A
:1001CC00020320EC5D046005E85904700302031679
:1001DC001202E1580460F6EC4860F2EC7004FDFE8B
:1001EC00FF22C860DB2481C85009C3986002500606
:1001FC0002031D9850CAF582E9294B4A7005AB825F
:10020C0002030C75F0007C1A7880C3EF9BEE9AED1C
:10021C0099400DC3EF9BFFEE9AFEED99FDE842F07D
:10022C00DC23ACF0D0E0FFD0E0FED0E0FDAB8220D0
:10023C00E7101BEB60BAEC2CFCEF33FFEE33FEED5A
:10024C0033FD0202F8E803F830E705C0F075F00062
:10025C00EF2FFFEE33FEED33FD40B830E7C280AA3E
:10026C0075F020800E75F010800575F0087D007E0D
:10027C00007F003392D530D50312082FEC33401099
:10028C00EF33FFEE33FEED33FDEC33FCD5F0ED2216
:0E029C00E5F0247EA2D513CC92E7CDCEFF2252
:1002AA00EDD2E7CD33EC3392D524814006E4FFFE4C
:1002BA00FDFC22FCE4CFCECDCC24E0501174FF80AB
:1002CA00EDC3CC13CCCD13CDCE13CECF13CF047048
:0702DA00F030D5DE02082F11
:103A11009004D0E0FFA3E0FEA3E0CF9004D9F0A38F
:103A2100EEF0A3EFF09004D3E0CBF0A3E0CAF0A353
:103A3100E0C9F07F229004DCAD82AC831205D58D04
:103A4100828C83F0A309E970010ADFEC9004D3E0D2
:0A3A5100FBA3E0FAA3E0F90210184D
:1002E100E9D2E7C933E833F892D5EDD2E7CD33EC63
:0702F10033FC5002B2D522DC
:1002F800EC30E7100FBF000C0EBE00080DBD000467
:100308000BEB6014A2D5EB13FCED92E7FD2274FF12
:10031800FCFDFEFF22E480F8A2D574FF13FC7D806B
:03032800E480EF7F
:100FB300E51624D9F582E43404F583E0051622907E
:100FC30004D63007039004D9E475F00112088B02AC
:100FD30005D52000E97F2ED2008018EF540F24900E
:100FE300D43440D4FF30040BEF24BFB41A005003B1
:100FF3002461FFE51760021517051AE51A7002054B
:101003001930070E9004D6E475F00112088BEF0235
:10101300061B023F547403D2078003E4C207F5168C
:101023009004D61208A2E4F517F519F51AE517602E
:10103300077F20120FF680F57518FFC201C200C2A8
:1010430002C203C205C206C208120FC2FF700D30EE
:1010530007057F00121007AF1AAE1922B4255FC22D
:10106300D5C204120FC2FF24D0B40A00501A75F07F
:101073000A781730D50508B6FF0106C6A426F62060
:10108300D5047002D20380D924CFB41A00EF5004E0
:10109300C2E5D2040212F9D20180C6D20080C0D2C6
:1010A3000280BCD2D580BAD20580B47F20120FF65D
:1010B3002002077401B5170040F1120FB3FF120F9E
:1010C300F6021030D208D2068095120FB3FB120F2E
:1010D300B3FA120FB3F94A4B700679F77A137BFF11
:1010E30020022EE517602A7E008E8275830012058A
:1010F300EE60060EEE651870F0C2D5EBC0E0EAC0F4
:10110300E0E9C0E0EE12135AD0E0F9D0E0FAD0E003
:10111300FB1205D5FF60AAEBC0E0EAC0E0E9C0E03E
:10112300120FF6D0E02401F9D0E03400FAD0E0FB4E
:10113300E5180460DCD518D98087D20280A2121387
:101143003C60F7E51870010412032BA918600DE544
:1011530018600914F5181213E4EF60F3EA30E7029C
:10116300F404C3995079EAF425180430E701E40440
:10117300F518800D12133C60C1EA051825181203F7
:101183002BEA900505F030E701E4251804D518048F
:101193002005011412135AE4C0E01213E49005056C
:1011A300E0601320E70714F0120FDE802204F0D072
:1011B300E014C0E07F00120FDEE5186007120FD5C0
:1011C3001518800B300503120FD5D0E0021030D074
:1011D300E00480C412133C609EE5180412032B90B4
:1011E3000505EAF0E5182005026001042404121342
:0111F3005AA1
:1011F40074FF04C0E01213E4120FDEE518200502A8
:101204006003120FD5D0E0B518E87F45120FE890BF
:101214000505E07F2B30E7047F2DF404C0E0120FB6
:10122400F6D0E075F00A84C0F0120FDFD0E0120FA0
:10123400DF021030791080027908C206C2088008E3
:10124400D2D5790A8004790AC2D5E518047002F56A
:1012540018E4FAFDFEFF120FB3FC7B082001131201
:101264000FB3FD7B1030000A120FB3FE120FB3FF51
:101274007B20EC3382D592D55013C3E43000069F13
:10128400FFE49EFEE42001039DFDE49CFCE4CBF816
:10129400C201EC700CCFCECDCCE824F8F870F3800A
:1012A40017C3EF33FFEE33FEED33FDEC33FCEB33CA
:1012B400FB994002FB0FD8E9EB300105F8D0E0C4FC
:1012C40048B201C0E00AEC4D4E4F78207B0070C25A
:1012D400EAB5180040BCC0E012135CD0F0D0E020A6
:1012E4000104C4C0E0C4B201C0F0120FDFD0F0D5D5
:1012F400F0EB0210301208AB10CD53123858109E88
:101304004C109A42123C4F12444412444910B343C5
:10131400124A5511774611D74511414714175010F9
:10132400A22D10A62E10C92B10AA2310C72014001A
:101334002A106248000010C1E518B4FF03751806AE
:10134400120FB3FC120FB3FD120FB3FE120FB3FF53
:101354009004FE020368790AA2D52003143005091B
:10136400B910020404B9080104A2D52006025001F0
:10137400042002689202B517005034C0E07F203088
:1013840003197F30A20272067205500F1213B3C202
:1013940002C206C205C2087F30800F300503E9C0CF
:1013A400E0120FF6300503D0E0F9D0E0B517CC30E9
:1013B40005177F30B9100C120FF67F583004077FE1
:1013C400788003B90803120FF63002057F2D020F4F
:1013D400F67F202008F87F2B2006F322920280CF8C
:1013E4007F00B40700500B24FEF582E43404F58337
:1013F400E0FF22286E756C6C2900D201120FB33005
:1014040001F8C201781730D50108F60210622D5098
:10141400434958120FB32403B405004001E4901467
:101424001293120FE7743A120FE7D20375170402EE
:0214340012386C
:10032B00F920E73624F950037907E4F42402FBE5BE
:10033B0082158270021583DBF6E024FB501BE9600B
:10034B0014E4F0E582158270021583E004F0B40A20
:0D035B0008E4F0D9EE7401F00A22C2D522A8
:10036800ED33EC3392D5FA602AB4FF33EDC2E77B64
:10037800FF60067A03798DE4227A03799620D50402
:100388007A037991224E614E002B494E46002D4941
:100398004E4600E47A08F0A3DAFC7B00740722C01A
:1003A80083C082ECC0E0EDC0E0EEC0E0EFC0E0EA60
:1003B80075F010A4CAABF075F04DA42BFBE435F032
:1003C800FCEA2410FAEB34C5FBEC34D9FCEDC2E7A7
:1003D800FF75F056A4F42411C5F0F434C58FF0A4C9
:1003E8002AE5F03BE43CF020E714120595D0E0FF45
:1003F800D0E0FED0E0FDD0E0FC1201CF8014F40480
:10040800120595D0E0FFD0E0FED0E0FDD0E0FC1270
:1004180000C6D082D083E0FAEDD2E7CD33EC3324A6
:1004280082FBE4C3CF33CFCE33CECD33CD33DBF332
:100438007B0775F00A846004F0A31B0AE5F0F0A3BB
:100448008FF0740AA4FFACF08EF0740AA42CFEACF2
:10045800F050010C8DF0740AA42CFDE435F0F0A3E3
:05046800DBDE74072239
:10046D00020316E86480F8E933E83360110460F0A4
:10047D00ED33EC337009E8FCE9FDEAFEEBFF2204F5
:10048D0060DED3EB9FEA9EE99DE8C2E78CF0C2F7F0
:10049D0095F0400CE8CCF8E9CDF9EACEFAEBCFFBBC
:1004AD001202E185D0F05804700320D5B3E8047032
:1004BD00075002B2D502032092D5EC0460F7E4CCCC
:1004CD00C0E0C398F8603B94186008400DD0E0FB85
:1004DD000202F8E4FBFAC9FC8028E830E406E4C91E
:1004ED00FBE4CAFCE830E305E4C9CACBFCE85407D9
:1004FD006010F8C3E913F9EA13FAEB13FBEC13FCE4
:10050D00D8F130F52FC3E49CFCEF9BFFEE9AFEED86
:10051D0099FDD0E0FBEF4E4D4C701222DB03020330
:10052D001DEC2CFCEF33FFEE33FEED33FDED30E72C
:10053D00EB0202F8EF2BFFEE3AFEED39FDD0E0FBBA
:10054D0050130BBB0003020320ED13FDEE13FEEF62
:08055D0013FFEC13FC0202F88D
:100565003F8000004120000042C80000447A00009E
:10057500461C400047C35000497424004B18968020
:100585004CBEBC205A0E1BCA6753C21C749DC5AE17
:10059500FB60065407601C23231205C3EB54386027
:1005A500091205AF1205BE1200C6ECF8EDF9EEFA18
:1005B500EFCB22EB1205BE80F1543803241C9005C5
:1005C50065FE93FC0EEE93FD0EEE930ECE93FF2289
:102F2F00021D24E493A3F8E493A34003F68001F277
:102F3F0008DFF48029E493A3F85407240CC8C333A3
:102F4F00C4540F4420C8834004F456800146F6DF72
:102F5F00E4800B0102040810204080902062E47E80
:102F6F00019360BCA3FF543F30E509541FFEE49367
:102F7F00A360010ECF54C025E060A840B8E493A32E
:102F8F00FAE493A3F8E493A3C8C582C8CAC583CA59
:102F9F00F0A3C8C582C8CAC583CADFE9DEE780BE11
:0121A000003E
:1005D500BB010689828A83E0225002E722BBFE0224
:0905E500E32289828A83E4932257
:1005EE00BB010CE58229F582E5833AF583E02250C2
:1005FE0006E92582F8E622BBFE06E92582F8E2220C
:0D060E00E58229F582E5833AF583E4932225
:10061B00BB010689828A83F0225002F722BBFE01BE
:02062B00F322B8
:10062D00F8BB010DE58229F582E5833AF583E8F003
:10063D00225006E92582C8F622BBFE05E92582C8AF
:02064D00F22297
:10064F00EF8DF0A4A8F0CF8CF0A428CE8DF0A42EBF
:02065F00FE2279
:10066100C2D5EC30E709B2D5E4C39DFDE49CFCEEB4
:1006710030E715B2D5E4C39FFFE49EFE120A13C30F
:10068100E49DFDE49CFC8003120A1330D507C3E40A
:060691009FFFE49EFE2223
:10069700A3F8E0C5F025F0F0E58215827002158316
:0606A700E0C838F0E82273
:1006AD00BB0110E58229F582E5833AF583E0F5F08B
:1006BD00A3E0225009E92582F886F008E622BBFE68
:1006CD000AE92582F8E2F5F008E222E5832AF583AE
:0806DD00E993F5F0A3E9932273
:1006E500F8BB0111E58229F582E5833AF583E8F047
:1006F500E5F0A3F0225009E92582C8F608A6F02204
:0D070500BBFE09E92582C8F2E5F008F222EA
:10071200E88FF0A4CC8BF0A42CFCE98EF0A42CFC86
:100722008AF0EDA42CFCEA8EF0A4CDA8F08BF0A404
:100732002DCC3825F0FDE98FF0A42CCD35F0FCEB63
:100742008EF0A4FEA9F0EB8FF0A4CFC5F02ECD3928
:0F075200FEE43CFCEAA42DCE35F0FDE43CFC2295
:1007610075F008758200EF2FFFEE33FECD33CDCC4F
:1007710033CCC58233C5829BED9AEC99E5829840D2
:100781000CF582EE9BFEED9AFDEC99FC0FD5F0D6AF
:10079100E4CEFBE4CDFAE4CCF9A88222B800C1B9D9
:1007A1000059BA002DEC8BF084CFCECDFCE5F0CB17
:1007B100F97818EF2FFFEE33FEED33FDEC33FCEB50
:1007C10033FB10D703994004EB99FB0FD8E5E4F90B
:1007D100FA227818EF2FFFEE33FEED33FDEC33FCF8
:1007E100C933C910D7059BE99A4007EC9BFCE99AEC
:1007F100F90FD8E0E4C9FAE4CCFB2275F010EF2F31
:10080100FFEE33FEED33FDCC33CCC833C810D70730
:100811009BEC9AE899400AED9BFDEC9AFCE899F86B
:0E0821000FD5F0DAE4CDFBE4CCFAE4C8F922FE
:0E082F00C3E49FFFE49EFEE49DFDE49CFC22DA
:10083D00EB9FF5F0EA9E42F0E99D42F0E89C45F011
:01084D002288
:0C084E00ECF0A3EDF0A3EEF0A3EFF0221D
:10085A00A8828583F0D083D082120871120871129F
:10086A000871120871E473E493A3C583C5F0C583C4
:10087A00C8C582C8F0A3C583C5F0C583C8C582C8E8
:01088A00224B
:10088B00F8E0FBA3A3E0F925F0F0E58215827002F6
:07089B001583E0FA38F0229A
:0908A200EBF0A3EAF0A3E9F02257
:1008AB00D083D082F8E4937012740193700DA3A3DC
:1008BB0093F8740193F5828883E4737402936860F0
:0608CB00EFA3A3A380DFF0
:1008D100EC8EF0A4CCC5F0CCCDF8EFA4CEC5F02DB4
:1008E100FDE43CFCE8A42EC8C5F03DFDE43CFCEF72
:0D08F100A4FFE5F028FEE43DFDE43CFC2200
:103F5400EFB40A07740D123F5F740A309811A899E0
:103F6400B8130CC2983098FDA899C298B811F630CD
:073F740099FDC299F59922A5
:1032B10090061CEBF0A3EAF0A3E9F0900622EBF0F4
:1032C100A3EAF0A3E9F090061CE0FBA3E475F0018A
:1032D100120697A9F0FA1205D570EB90061D74FF3E
:1032E100F5F0120A6890061FE0FBA3E475F00112E5
:1032F1000697A9F0FA1205D5FF90061CE0FBA3E49E
:1033010075F001120697A9F0FAEF12061B70D6901C
:0B3311000622E0FBA3E0FAA3E0F92293
:1028FF00900600EBF0A3EAF0A3E9F0E4900608F0ED
:10290F00A3F0D3900607E09400900606E06480944D
:10291F008050030229B8900600E0FBA3E0FAA3E081
:10292F00F9900608E0FEA3E0F5828E831205EE60B3
:10293F0010900609E004F070DD900608E004F080C6
:10294F00D5900603E0FBA3E0FAA3E0F91205D560EA
:10295F003E900603A3E475F001120697A9F0FA1250
:10296F0005D5FF900600E0FBA3E0FAA3E0F990067F
:10297F0008E475F00112069785F082F583EF1206D1
:10298F002D90060674FFF5F0120A6845F070B290AC
:10299F000600E0FBA3E0FAA3E0F9900608E0FEA32F
:1029AF00E0F5828E83E412062D900600E0FBA3E093
:0529BF00FAA3E0F9227B
:10303900900635EBF0A3EAF0A3E9F0900638E0FB3F
:10304900A3E0FAA3E0F91205D5FE900635E0FBA34B
:10305900E0FAA3E0F91205D5FF6E702AEF600E9031
:10306900063B74FFF5F0120A6845F070037F0022F1
:10307900900636E475F001120A68900639E475F095
:1030890001120A6880B5900635E0FBA3E0FAA3E0D7
:10309900F91205D5FDD3EE6480F8ED6480984003FC
:1030A9007F0122900638E0FBA3E0FAA3E0F91205BC
:0730B900D5FFC3ED9FFF22CC
:1008FE00E709F60870FA8046E709F20870FA803EBA
:10090E0088828C83E709F0A370FA807EE309F608EB
:10091E0070FA8076E309F20870FA806E88828C8312
:10092E00E309F0A370FA806289828A83E0A3F60855
:10093E0070FA805689828A83E0A3F20870FA804AA0
:10094E0080D280FA80C680D4806580F2803180109B
:10095E0080A680EA809A80A880DA80E280CA803100
:10096E0089828A83ECFAE493A3C8C582C8CCC58376
:10097E00CCF0A3C8C582C8CCC583CC70E9800D89E4
:10098E00828A83E493A3F60870F9ECFAA9F0EDFBE2
:10099E002289828A83ECFAE0A3C8C582C8CCC583BB
:1009AE00CCF0A3C8C582C8CCC583CC70EA80DD89E3
:1009BE00828A83E493A3F20870F980CE88F0ED2446
:1009CE0002B4040050C4F582EB2402B4040050BA01
:0909DE00232345822390094E7386
:10002600E4FFFE1205D5600C0FEF70010E09E970B2
:05003600F20A80EF2238
:102A8700900427EBF0A3EAF0A3E9F0A3E0FBA3E0AF
:102A9700FAA3E0F91205D57003022B33900427E05F
:102AA700FBA3E0FAA3E0F91205D57003022B3F90D0
:102AB700042AE0F9A3E0FAA3E0A3C9F0A3EAF0A38C
:102AC700E9F0900427A3E0FAA3E0F9900430EBF0D3
:102AD700A3EAF0A3E9F090042DE0FBA3E0FAA3E05A
:102AE700F91205D5FF6026900430E0FBA3E0FAA3B6
:102AF700E0F91205D56F701590042E75F001120AD2
:102B070068900431E475F001120A6880C990042DB9
:102B1700E0FBA3E0FAA3E0F91205D57002800D905F
:102B27000428E475F001120A68022AA3900427E03A
:0F2B3700FBA3E0FAA3E0F9227B007A00790022E9
:1009E700EF4E6012EF60010EEDBB010B89828A8327
:1009F700F0A3DFFCDEFA2289F05007F709DFFCA934
:0C0A0700F022BBFEFCF309DFFCA9F0228A
:100A1300BC000BBE0029EF8DF084FFADF022E4CCC7
:100A2300F875F008EF2FFFEE33FEEC33FCEE9DEC90
:100A3300984005FCEE9DFE0FD5F0E9E4CEFD22EDD6
:100A4300F8F5F0EE8420D21CFEADF075F008EF2F20
:100A5300FFED33FD4007985006D5F0F222C398FD11
:050A63000FD5F0EA22AE
:100A6800C5F0F8A3E028F0C5F0F8E5821582700219
:060A78001583E038F022B6
:00000001FF
