:0300000002325A6F
:0C325A00787FE4F6D8FD7581210232A1D6
:1022BC000D0A00A1AAA1AAA1AAA1AAA1AAA1AAA198
:1022CC00AAA1AAA1AAA1AAA1AAA1AAA1AAA1AAA1AA
:1022DC00AAA1AAA1AAA1AAA1AAA1AAA1AAA1AAA19A
:1022EC00AAA1AAA1AAA1AAA1AAA1AAA1AAA1AAA18A
:1022FC00AAA1AAA1AAA1AAA1AAA1AAA1AAA1AAA17A
:10230C00AAA1AAA1AAA1AAA1AAA1AAA1AAA1AAA169
:10231C00AAA1AAA1AAA1AA0D0A00A1AAA1AAA1AA2E
:10232C00A1AAA1AAA1AAA1AAA1AAA1AAA1AAA1AA49
:10233C00A1AAA1AAA1AAA1AAA1AAA1AAA1AAA1AA39
:10234C00A1AAA1AAA1AAA1AAB7FED2A9CCE1D0D1D7
:10235C00A1AAA1AAA1AAA1AAA1AAA1AAA1AAA1AA19
:10236C00A1AAA1AAA1AAA1AAA1AAA1AAA1AAA1AA09
:10237C00A1AAA1AAA1AAA1AA0D0A00CAB5CFD6B535
:10238C00C4C3FCC1EE3A0D0A0020202020202020DE
:10239C0020202020312E20C9E8D6C3B1A8BEAFCA58
:1023AC00B1BCE43A205345544154494D4523303790
:1023BC003A30300D0A007374617274696E672E2E98
:1023CC000D0A0041542B434950534E545043464739
:1023DC003D312C38004F4B0073656E6420636F6D7C
:1023EC006D616E642041542B434950534E545043FD
:1023FC0046473D312C3820204F4B0D0A0073656E3B
:10240C006420636F6D6D616E642041542B434950A1
:10241C00534E54504346473D312C38206661696C0D
:10242C0065640D0A0041542B434950534E5450548B
:10243C00494D453F0D0A002562643A202562643AF5
:10244C00202562642020204154494D45A3BA2562C1
:10245C0064202020256264200D0A0075617274319D
:10246C002072656365697665643A0053455441543E
:10247C00494D45005345544154494D452041542044
:10248C00256264A3BA25626420202E2E2E2E4F4B7B
:10249C00210D0A005345544154494D4520464149AC
:1024AC004C4544210D0A002B434950534E54505473
:1024BC00494D453A0074696D653A002D2D20202058
:1024CC002025640D0A007365742074696D65206F96
:0624DC006B0D0A00000078
:10282E004100000341021C0341000E0341000C0352
:10283E0041021B0060800117000000000000000034
:10284E00000000000000000000000000000000007A
:10285E00000000000000000000000000000000006A
:10286E00000000000000000000000000000000005A
:10287E00000000000000000000000000000000004A
:10288E00000000000000000000000000000000003A
:10289E00000000000000000000000000000000002A
:1028AE00000000000000000000000000000000001A
:1028BE000000000000000000608001970000000092
:1028CE0000000000000000000000000000000000FA
:1028DE0000000000000000000000000000000000EA
:1028EE0000000000000000000000000000000000DA
:1028FE0000000000000000000000000000000000CA
:10290E0000000000000000000000000000000000B9
:10291E0000000000000000000000000000000000A9
:10292E000000000000000000000000000000000099
:10293E000000000000000000000000004100010047
:10294E0041000D004202170000420002000042004A
:0B295E000A00004102190041021A00AB
:083C9900A3F07B017A01799789
:103CA100C002C001900438E0F9A3E0FAA3E0900457
:103CB1003EC9F0A3EAF0A3E9F0D001D002122EF63A
:0B3CC100E94A4B60037F01227F0022D4
:0B2AAA00900528EBF0A3EAF0A3E9F090
:102AB500E4900551F0FE7F20FD7B017A0579311206
:102AC5000AB2E4900551F0900528E0FBA3E0FAA3D3
:102AD500E0F912000E900551E0C39FE49E40030209
:102AE5002BA990052BE0FBA3E0FAA3E0F912000E59
:102AF500900431EEF0A3EFF0900528E0FBA3E0FA97
:102B0500A3E0F9900551E0FF7E00E92FF9EE3AFACE
:102B1500C002C00190052BE0F9A3E0FAA3E0900400
:102B25002EC9F0A3EAF0A3E9F0D001D0021232E6F3
:102B3500EF703790052EE0F9A3E0FAA3E090059435
:102B4500C9F0A3EAF0A3E9F07B017A0579311235E2
:102B55005C90052BE0FBA3E0FAA3E0F912000EEF71
:102B650014FF900551E02FF08031900528E0FBA37C
:102B7500E0FAA3E0F9900551E0FF7E00E92FF9EEB8
:102B85003AFA90058AEBF0A3EAF0A3E9F0A3E4F0A2
:102B9500A304F0FB7A057931122D6E900551E004FE
:102BA500F0022ACC900528E0FBA3E0FAA3E0F8ACFC
:102BB50002AD037B017A057931120A95900528E06B
:072BC500FBA3E0FAA3E0F915
:012BCC0022E6
:0B306D00900552EBF0A3EAF0A3E9F09D
:10307800E490057AF0FE7F20FD7B017A05795A12EB
:103088000AB2900558A3E090057AF0900552E0FB4B
:10309800A3E0FAA3E0F912000E90057AE0FD33955B
:1030A800E0FCC3ED9FEC9E5043900552E0FBA3E08B
:1030B800FAA3E0F990057AE0FF3395E08D82F58375
:1030C800120664FEEF3395E0FC900558E0FAA3E0A1
:1030D800FBC3ED9BFDEC9AFC745A2DF58274053CFC
:1030E800F583EEF090057AE004F0809F900555E0B6
:1030F800FBA3E0FAA3E0F8AC02AD037B017A057903
:0F3108005A120A95900555E0FBA3E0FAA3E0F9EF
:013117002295
:0B336D0090042BEBF0A3EAF0A3E9F0C2
:10337800E4900434F0900431E0FF900434E0C39FFB
:10338800506690042BE0FBA3E0FAA3E0F97F021259
:10339800362F7BFF7A2279BC7F0212362F900432B7
:1033A800E0FEA3E0FF123E459004387401F0A374D8
:1033B80001F0A37497F0900007E0FBA3E0FAA3E004
:1033C800F912386090042EE0F9A3E0FAA3E0900423
:1033D80038C9F0A3EAF0E9123C99EF60037F0122B3
:0A33E800900434E004F0808D7F00B3
:0133F20022B8
:03000B0002380CAC
:10380C00C0E0C0F0C083C082C0D075D000C000C082
:10381C0004C005C006C007900003E004F0700690D9
:10382C000002E004F0900002E0FEA3E0FF7C007DCB
:10383C00641206D7ED4C700790000AF0A304F0D088
:10384C0007D006D005D004D000D0D0D082D083D001
:04385C00F0D0E03296
:100AF400E490041EF0A3F0A3F0A3F0A3F0C20078E6
:100B0400237C047D017BFF7A2479E0FE7F021206B8
:100B140025E4900425F0A3F0A3F0A3F0A3F0A3F040
:100B2400C2B775B280F5B1900425F07594FF759342
:100B3400FF7592FF7591FF7596FF7595FF75B2FF6E
:100B440075B1FF75B4FF75B3FF75CAFF75C9FF535F
:100B540092F05391F053B17F43B28053B1FB53B23F
:100B6400FB53950F53960F53B1FC53B2FC121B83E6
:100B7400123F011211CBE4FF123F647D107C27E485
:100B8400FF122694123E25E4FFFE123D049000005D
:100B9400EFF07F017E00123D0490021CEFF07F0213
:100BA4007E00123D0490000EEFF07F037E00123DA4
:100BB4000490000CEFF0900000E0FF64036004EF89
:100BC400F470069000007407F090021CE0FF6403C8
:100BD4006004EFF47005E490021CF090000EE064F1
:100BE4000370037408F090000CE064037001F0904B
:100BF40000047401F0A37400F0A3740FF0A3740153
:100C0400F0A37400F0A37493F0900004E0FBA3E05D
:100C1400FAA3E0F9123BB7900007E0FBA3E0FAA3C4
:100C2400E0F9123BB77BFF7A2279BF7F0112362F9E
:100C34007BFF7A2379267F0112362F7BFF7A237973
:100C4400877F0112362F7BFF7A2379957F01123635
:100C54002F7BFF7A2279BF7F0112362F7BFF7A2305
:100C640079C27F0112362F9004301209250001C287
:100C7400007F021239537FB87E0B123E4590043830
:100C84007401F0A37401F0A37497F0900007E0FBE3
:100C9400A3E0FAA3E0F9123860EF70E1FE7F80FD73
:100CA4007B017A017997120AB290042E74FFF0A3A3
:100CB4007423F0A374E1F0A37403F0A37401F0A30C
:100CC400742CF07BFF7A2379CF12336DEF7BFF60B6
:100CD400067A2379E480047A2479097F0112362F75
:100CE4007FB87E0B123E457BFF7A2479317F021256
:100CF400362F7B017A047922900430E4F0A304F0C7
:100D04007F147E0012369590000AE07002A3E07012
:100D140003020E57E490000AF0A3F0FB7A00790F67
:100D2400123A327BFF7A247943900439E511F0A317
:100D3400E510F0A3E50FF0900000E090043CF09083
:100D4400021CE090043DF07F0112362F90042AE04B
:100D540004F07006900429E004F0900429E0FAA35A
:100D6400E0FB7C007D05FFAE021206D7ED4C70045B
:100D7400C2928002D2927C0E7D10AF03AE021206A4
:100D8400D7ED4C700B7BFF7A2479317F0212362F1A
:100D9400900000E06511603CE4900422F07B017A4D
:100DA400047922900430F0A304F07F147E001236FC
:100DB40095900422E0601DE4F07B017A047922908E
:100DC4000430F0A304F07F147E0012206D7F327E85
:100DD40000123E45900000E06511706B90021CE02B
:100DE400FFE510C39F40607B017A047922900430B0
:100DF400E4F0A304F07F147E00123695900422E000
:100E0400704090042504F0C2A4FF7E00123E4530D9
:100E1400B22C7F147E00123E4530B2220090042290
:100E24007401F0FB7A047922900430E4F0A304F016
:100E34007F147E0012206D7F327E00123E45D2A4C4
:100E44008005E4900425F0900425E06004B2B780A6
:100E540002C2B7900001E0D39400748094805003E0
:100E6400020FF0E014F07BFF7A2479677F011236D9
:100E74002F9004387401F0A37401F0A37417F09058
:100E84000004E0FBA3E0FAA3E0F91238607B017AE6
:100E940001791712000ED3EF9400EE940050030270
:100EA4000FE1900117E0B44110A3E0B4540B7B01AF
:100EB4007A0179177F02020FDE90042E74FFF0A3EB
:100EC4007424F0A37477F0A3E4F0A37408F07B0116
:100ED4007A0179171232E6EF3395E04F6003020F7F
:100EE400E17B017A0179177D23123E64900217EEAB
:100EF400F0A3EFF0F47002EEF47003020FE190023D
:100F040017E0FEA3E0FF2418F58274013EF583E0A8
:100F1400900423F074192FF58274013EF583E09058
:100F24000424F07B017A047923122BCD900000EF86
:100F3400F0900217E0FEA3E0FF241BF58274013E4B
:100F4400F583E0900423F0741C2FF58274013EF5C0
:100F540083E0900424F07B017A047923122BCD9052
:100F6400021CEFF0900000E0900423F0A3EFF07B6C
:100F7400017A047923900430E4F0A37402F0E4FFCE
:100F8400FE12206D7F327E00123E45E4900423F071
:100F9400A3F07B017A047923900430F0A37402F067
:100FA400E4FFFE123695900000E0FF900423E0FE7B
:100FB400B5071F90021CE0FF900424E0FDB5071262
:100FC4007BFF7A247980900439EEF0A3EDF07F0161
:100FD40080087BFF7A2479A07F0112362F7E007F60
:100FE400807D007B017A017917120AB290000DE02E
:100FF400D39400748094805003020D0BE014F0909D
:1010040004387401F0A37401F0A37497F0900007FE
:10101400E0FBA3E0FAA3E0F91238607B017A0179DE
:10102400977F01123C2C90043874FFF0A37424F0D1
:1010340074B3123C99EF70030211B97BFF7A2479DF
:10104400C17F0112362F7B017A0179977F01123615
:101054002F7B017A01799712000E900420EEF0A301
:10106400EFF0900420E0FEA3E0FF248EF5827401EB
:101074003EF583E0900423F0748F2FF58274013ED3
:10108400F583E0900424F07B017A047923122BCDBC
:101094008F08900420E0FEA3E0FF248BF582740106
:1010A4003EF583E0900423F0748C2FF58274013EA6
:1010B400F583E0900424F07B017A047923122BCD8C
:1010C4008F09900420E0FEA3E0FF2488F5827401D8
:1010D4003EF583E0900423F074892FF58274013E79
:1010E400F583E0900424F07B017A047923122BCD5C
:1010F4008F0A900420E0FEA3E0FF2493F58274019C
:101104003EF583E0900423F074942FF58274013E3D
:10111400F583E0900424F07B017A047923122BCD2B
:101124008F0E900420E0FEA3E0FF2491F582740169
:101134003EF583E0900423F074922FF58274013E0F
:10114400F583E0900424F07B017A047923122BCDFB
:10115400900428EFF0750B01750C01750D01E07515
:10116400F064A47C00250EFFEC35F0FE900426F01C
:10117400A3EFF07BFF7A2479C7900439EEF0A3EF54
:10118400F07F0112362FC3900427E094E5900426E3
:10119400E094074020E508601CE5096018E50A6052
:1011A400147B007A0079081238B47BFF7A2479D250
:1011B4007F0112362F7E007F807D007B017A0179CA
:0711C40097120AB2020D0BA5
:103D2000900219E599F0900004E0FBA3E0FAA3E00B
:103D3000F9900219E0FD1236FB900219E0B40A0670
:073D4000900001E004F022F5
:103D470090021AE59BF0900007E0FBA3E0FAA3E0DE
:103D5700F990021AE0FD1236FB90021AE0B40A0647
:073D670090000DE004F022C2
:09296900070800010A040105142D
:033F72000000222A
:103DBB00E4FFFEEEC39408748094805017C2A712E0
:103DCB003F72EFC313FF30A6034480FFD2A7123F0D
:043DDB00720E80DF05
:013DDF0022C1
:0F3C6300C2A5123F72C2A7123F72D2A5123F72C2
:103C7200E4FEEEFD3395E0FCC3ED9408EC64809421
:103C8200805013C2A7123F72EFC313FF92A6D2A7AE
:063C9200123F720E80DCFF
:013C98002209
:0A3F4500123C63123DBBD2A7C2A5D7
:013F4F00224F
:0F3EF200AB05123C63AF03123C72D2A7C2A522EC
:0B38B40090042BEBF0A3EAF0A3E9F076
:1038BF00A37480F0A37407F0E4FD7F8E123EF290A4
:1038CF00042FE0FF14F0EF602790042BE0FBA3E43C
:1038DF0075F001120762A9F0FA12064BFF123EB7FC
:1038EF00AD0790042EE0FF123EF2E02402F080CFED
:0738FF007D807F8E023EF286
:023E9E00A90772
:103EA000E4FEE9C4540FFF7C007D0A1206C5E95404
:063EB0000F2FFFEC3EFEA7
:013EB60022E9
:103EB700E4EF75F00A84C454F0FEEF75F00A84EE5F
:053EC70045F0FF7E0044
:013ECC0022D3
:0B3A320090042BEBF0A3EAF0A3E9F0F6
:103A3D00A37481F0A37407F090042FE0FF14F0EF4E
:103A4D00602890042EE0FF123F45123E9E90042BFD
:103A5D00E0FBA3E475F001120762A9F0FAEF12067C
:0A3A6D009190042EE02402F080CEB8
:013A7700222C
:103E2500C2A5C2A7E4FD7F8E123EF2E4FD7F80129B
:103E35003EF27DA67F90123EF27D807F8E023EF29D
:103BB70090042BEBF0A3EAF0A3E9F07E007F807D71
:103BC7000090042BE0FBA3E0FAA3E0F9120AB290FD
:103BD700042BE0FBA3E0FAA3E0F9900082E4F5F000
:0C3BE7001207B0900080E4F5F00207B077
:1036FB00900524EDF0900521EBF0A3EAF0A3E9F09F
:10370B00123B7AEF6401604A900524E0FF9005219B
:10371B00E0FBA3E0FAA3E0F9900082120778F582B0
:10372B0085F083EF1206A39000821207782401FF25
:10373B00E435F0FE7C007D8012072C900521E0FB28
:10374B00A3E0FAA3E0F9900082EC8DF01207B07FB2
:05375B0001227F0022A5
:103B7A00900525EBF0A3EAF0A3E9F0900525E0FB18
:103B8A00A3E0FAA3E0F99000821207782401FFE487
:103B9A0035F0FE7C007D8012072C90008012077899
:0D3BAA00B50507ECB5F0037F01227F002276
:10002600900082120778FFAEF0900080120778B534
:0D0036000708E5F0B506037F01227F0022D8
:103118009004407401F0A37404F0A3743BF090048D
:0931280035E0FBA3E0FAA3E0F995
:1031310090043DEBF0A3EAF0A3E9F090043DE0FB3D
:10314100A3E0FAA3E0F9120026EF6401606E900497
:103151003DE0FBA3E0FAA3E0F9900080120778F5C7
:103161008285F083120664FF900440E0FBA3E0FA3D
:10317100A3E0F9EF12069190043DE0FBA3E0FAA36E
:10318100E0F9900080120778F58285F083E4120659
:10319100A39000801207782401FFE435F0FE7C0043
:1031A1007D8012072C90043DE0FBA3E0FAA3E0F937
:0F31B100900080EC8DF01207B07F01227F00228A
:0B386000900435EBF0A3EAF0A3E9F0C0
:10386B00E490043CF0120026EF60037F002212313B
:10387B0018EF64017030801090043BE0640A602301
:10388B00123118EF6401701B90043BE0FF90043879
:10389B00E0FBA3E475F001120762A9F0FAEF120640
:0838AB009180D57F01227F000E
:0138B30022F2
:10297A004543424D205625752E25752E2575206F07
:10298A006E2025730053544338410025754B0025AA
:10299A00303275005334413132000D0A43686563A1
:1029AA006B696E67204D4355204944002E004572DD
:1029BA00726F720D0A506C65617365206368656396
:1029CA006B207468652073657474696E67206F661E
:1029DA0020746865204D4355206D6F64656C0D0A3F
:1029EA00004F4B0D0A4944202020203A002530325E
:1029FA0058000D0A004441544120203A3132380926
:102A0A00427974650D0A004944415441203A3132F1
:102A1A003809427974650D0A005844415441203AF4
:102A2A00257509427974650D0A00464C41534820C0
:102A3A003A256C7509427974650D0A00454550526C
:102A4A004F4D3A257509427974650D0A0053595359
:102A5A00434C4B3A256C7509487A0D0A004C534988
:102A6A002020203A257509487A0D0A004247562047
:102A7A0020203A2575096D560D0A00454E444941F4
:102A8A004E3A0062696709656E6469616E0D0A00F3
:102A9A006C6974746C6509656E6469616E0D0A000F
:072972004405830000000092
:103E4500EF4E601A90057BE0FCA3E0FDED1D7001CF
:0E3E55001C144C70F7EF1F70011E144E70E627
:013E6300223C
:0A3F5000EF1FAC0670011E4C70F666
:013F5A002244
:103D950090057BE0FCA3E0FD12099CE47B83FAF926
:103DA500F81207DD90057F12091990057FE0C3130E
:063DB500FEA3E013FF2253
:103CCC0090057EE06599600AE599F0E490057DF039
:103CDC00800690057DE004F090057DE0C394E974C6
:0C3CEC0080948040060075C76000002234
:1024E2009004317412F0A37434F0900436E4F0A333
:1024F2007403F0A3E4F0A304F0A3E4F0A37402F0E5
:10250200A374FFF0A37429F0A3748FF07BFF7A29E0
:10251200797A1234FC7BFF7A297995900436E4F0BB
:10252200A37408F01234FC7BFF7A2979999004365F
:10253200E4F0A37440F01234FC7BFF7A29799E12F6
:1025420034FCE4900430F07BFF7A2979A41234FC45
:10255200E490042FF090042FE0C3940774809480D9
:1025620050297BFF7A2979B61234FC90042FE0FFC0
:1025720090FDF993FE74F12FF8E6B506069004304B
:10258200E004F090042FE004F080CA900430E0648C
:102592000760097BFF7A2979B80226907BFF7A29A6
:1025A20079EB1234FCE490042FF090042FE0FFC387
:1025B200940774809480501F7BFF7A2979F7EF90FB
:1025C200FDF993FF900436E4F0A3EFF01234FC908F
:1025D200042FE004F080D37BFF7A2979FC1234FCCB
:1025E2007BFF7A2979FF1234FC7BFF7A2A79111258
:1025F20034FC7BFF7A2A79239004367420F0A3E41A
:10260200F01234FC7BFF7A2A7934900436120925C1
:10261200000100001234FC7BFF7A2A7946900436CE
:102622007402F0A3E4F01234FC7BFF7A2A7957900B
:102632000583E0FCA3E0FDA3E0FEA3E0FF900436E7
:102642001209191234FC7A2A796778F81234EE7A70
:102652002A797678EF1234EE7BFF7A2A7985123462
:10266200FC900431E0FF3395E0FEEF64124E7009F6
:102672007BFF7A2A798D1234FC900431E0FF339586
:10268200E0FEEF64344E70097BFF7A2A799A1234A5
:01269200FC4B
:012693002224
:0E34EE007BFFE6FF08E6900436CFF0A3EFF078
:0B34FC00900433EBF0A3EAF0A3E9F02A
:1035070090049E7401F0A37404F0A37436F0900441
:1035170033E0F9A3E0FAA3E09004E4C9F0A3EAF0EA
:10352700A3E9F090049EE0F9A3E0FAA3E09004E792
:10353700C9F0A3EAF0A3E9F07B017A04795E1239B6
:10354700E890049EE4F0A3F0A3F07B017A04795E8F
:053557007F01023C2C85
:102FB500EF14601614602C14604D14606C147003CB
:102FC5000230492405600302306C90FE02E0547E15
:102FD5004480F0E030E0F390FE00E054FCF090FE19
:102FE50003807A90FE04E0547E4480F0E030E0F304
:102FF50090FE00E054FC4403F090FE02E4F090FEE5
:1030050008F090FE03F02290FE08E0547E4480F024
:10301500E030E0F390FE00E054FC4402F090FE0442
:10302500E4F090FE02F0A3F02290FE03E0543E444B
:1030350080F0E030E0F390FE00E054FC4401F090B5
:10304500FE02801990FE03E0543E44C0F0E030E0FB
:10305500F390FE00E054FC4401F090FE02E4F09091
:08306500FE08F090FE04F022C9
:0C3F2D00EF90FE01700304F022EFF02280
:101B830043BA80AF9FE4FCFDFEC004A905AA06ABDF
:101B93000778FBE6FFD000C3EF9BFFEE9AFEED99BB
:101BA300FDEC98FCE47BF07AD2F9F81207DDC3E48C
:101BB3009FFF74369EFE746E9DFD74019CFC900421
:101BC3002B12091990042BE0FCA3E0FDA3E0FEA374
:101BD300E0FFC00790FE01E0FBE4FAF9F8D007123A
:101BE300086890042B1209197FC07EF67D577C008C
:101BF30090042BE0F8A3E0F9A3E0FAA3E0FBC312FF
:101C03000908500D90058312092500546000021D38
:101C1300D17FC07E267D827C0090042BE0F8A3E078
:101C2300F9A3E0FAA3E0FBC3120908500D90058362
:101C3300120925005B8D80021DD17F807EED7DAF73
:101C43007C0090042BE0F8A3E0F9A3E0FAA3E0FB07
:101C5300C3120908500D90058312092500A8C0007E
:101C6300021DD17F807E2D7DE87C0090042BE0F85F
:101C7300A3E0F9A3E0FAA3E0FBC3120908500D9017
:101C8300058312092500B71B00021DD17F807E3614
:101C93007D257C0190042BE0F8A3E0F9A3E0FAA3EF
:101CA300E0FBC3120908500D9005831209250119A1
:101CB3004000021DD17F807E567D417C0190042B24
:101CC300E0F8A3E0F9A3E0FAA3E0FBC3120908508C
:101CD3000D90058312092501312D00021DD17F00CE
:101CE3007EDB7D5F7C0190042BE0F8A3E0F9A3E0A9
:101CF300FAA3E0FBC3120908500D900583120925CE
:101D030001518000021DD17F607E197D857C019089
:101D1300042BE0F8A3E0F9A3E0FAA3E0FBC3120964
:101D230008500D900583120925016E3600021DD15E
:101D33007F207EE07DB27C0190042BE0F8A3E0F9E4
:101D4300A3E0FAA3E0FBC3120908500C9005831229
:101D53000925019BFCC080767FE07EA67DE07C01A7
:101D630090042BE0F8A3E0F9A3E0FAA3E0FBC3128D
:101D73000908500C90058312092501C9C380804EC0
:101D83007F607E2B7DFF7C0190042BE0F8A3E0F9BC
:101D9300A3E0FAA3E0FBC3120908500C90058312D9
:101DA300092501FA400080267F607E2B7DFF7C01A0
:101DB30090042BE0F8A3E0F9A3E0FAA3E0FBC3123D
:101DC3000908500A90058312092502160EC0E47B08
:101DD300107A27F9F8900583E0FCA3E0FDA3E0FE69
:101DE300A3E0FF12086890057BEEF0A3EFF0E49008
:101DF300057EF090057DF0123760D2AF7FF47E014F
:061E0300123E450224E23C
:080003000102040810204080F6
:102CA800EF64887003022D6DEF54F0F51BEF540F9D
:102CB800FE90000393F51CEED39407748094804033
:102CC80003022D6DED604DE51B24F0602124F060BA
:102CD8002224F0602324F0602424F0602524F0608E
:102CE8002624F060272470707C90FE10802190FECE
:102CF80011801C90FE12801790FE13801290FE1413
:102D0800800D90FE15800890FE16800390FE17E057
:102D1800451CF022E51B24F0602124F0602224F0F9
:102D2800602324F0602424F0602524F0602624F039
:102D380060272470702F90FE10802190FE11801C57
:102D480090FE12801790FE13801290FE14800D9052
:102D5800FE15800890FE16800390FE17E0FFE51C24
:052D6800F4FEEF5EF037
:012D6D002243
:101E0900EF6488700302206CEF54F0F51BEF540F58
:101E1900FE90000393F51CEED394077480948040E0
:101E29000302206CE51B24F0602424F0602524F0D3
:101E3900602624F0602724F0602824F0602924F02B
:101E4900602A2470600302206CE4F51B8021751B55
:101E590001801C751B028017751B038012751B04FA
:101E6900800D751B058008751B068003751B07ED22
:101E7900FFD3940374809480400302206CE51B70A7
:101E890037EF7007E51CF452935294ED6401700921
:101E9900E51C4293E51CF45294EDFF7E0064027048
:101EA90008E51C4293E51C4294EF64034E7009E572
:101EB9001CF45293E51C4294E51B64017037EDFF55
:101EC9007E007007E51CF452915292EF64014E7046
:101ED90009E51C4291E51CF45292ED64027008E593
:101EE9001C4291E51C4292ED64037009E51CF45211
:101EF90091E51C4292E51B64027037EDFF7E00708C
:101F090007E51CF452955296EF64014E7009E51CE1
:101F19004295E51CF45296ED64027008E51C429561
:101F2900E51C4296ED64037009E51CF45295E51C25
:101F39004296E51B64037037EDFF7E007007E51CD0
:101F4900F452B152B2EF64014E7009E51C42B1E599
:101F59001CF452B2ED64027008E51C42B1E51C4262
:101F6900B2ED64037009E51CF452B1E51C42B2E517
:101F79001B64047037EDFF7E007007E51CF452B353
:101F890052B4EF64014E7009E51C42B3E51CF452EA
:101F9900B4ED64027008E51C42B3E51C42B4ED647B
:101FA900037009E51CF452B3E51C42B4E51B640552
:101FB9007037EDFF7E007007E51CF452C952CAEF75
:101FC90064014E7009E51C42C9E51CF452CAED646E
:101FD900027008E51C42C9E51C42CAED6403700998
:101FE900E51CF452C9E51C42CAE51B64067037EDCD
:101FF900FF7E007007E51CF452CB52CCEF64014E12
:102009007009E51C42CBE51CF452CCED6402700862
:10201900E51C42CBE51C42CCED64037009E51CF4D8
:1020290052CBE51C42CCE51B64077037EDFF7E00FF
:102039007007E51CF452E152E2EF64014E7009E5C4
:102049001C42E1E51CF452E2ED64027008E51C4211
:10205900E1E51C42E2ED64037009E51CF452E1E597
:032069001C42E234
:01206C002251
:103AFD00EFB408005038903B0AF8282873023B2297
:103B0D00023B25023B28023B2B023B2E023B31029E
:103B1D003B34023B378D80228D90228DA0228DB0BB
:0F3B2D00228DC0228DC8228DE822AF058FF8228D
:103ABD00EFB408005037903ACAF8282873023AE25A
:103ACD00023AE5023AE8023AEB023AEE023AF10224
:103ADD003AF4023AF7AF8022AF9022AFA022AFB0F6
:103AED0022AFC022AFC822AFE822AFF8227FFF225B
:102E3300EF64887003022EF5EF54F0F51BEF540F87
:102E4300FE90000393F51CEED394077480948040A6
:102E530003022EF5ED604AE51B24F0602124F060A7
:102E63002224F0602324F0602424F0602524F06001
:102E73002624F0602724707079E51C428022E51C2B
:102E8300429022E51C42A022E51C42B022E51C42EE
:102E9300C022E51C42C822E51C42E822E51C42F898
:102EA30022E51B24F0602224F0602424F060262411
:102EB300F0602824F0602A24F0602C24F0602E2493
:102EC30070702FE51CF4528022E51CF4529022E529
:102ED3001CF452A022E51CF452B022E51CF452C0AB
:102EE30022E51CF452C822E51CF452E822E51CF446
:022EF30052F893
:012EF50022BA
:10347700EF64887002FF22EF54F0F51BEF540FFE44
:1034870090000393F51CEED3940774809480400357
:103497007F0122E51B24F0602124F0602224F060E4
:1034A7002324F0602424F0602524F0602624F060B3
:1034B700272470702685801D802185901D801C859E
:1034C700A01D801785B01D801285C01D800D85C881
:1034D7001D800885E81D800385F81DE51D551C60C6
:0634E700037F01227F00BB
:0134ED0022BC
:1035C700EF64886062EF54F0F51BEF540FFE900034
:1035D7000393F51CEED39407748094805049E51B40
:1035E70024F0602124F0602224F0602324F060247A
:1035F70024F0602524F0602624F0602724707027CB
:10360700E51C628022E51C629022E51C62A022E58F
:103617001C62B022E51C62C022E51C62C822E51CC0
:0736270062E822E51C62F8D5
:01362E002279
:103A7800EFB40800503E903A85F8282873023A9D22
:103A8800023AA1023AA5023AA9023AAD023AB102B3
:103A98003AB5023AB9ED628022ED629022ED62A059
:103AA80022ED62B022ED62C022ED62C822ED62E82A
:053AB80022ED62F8227E
:1031C000A907EB6048E9B408004003023259903186
:1031D000D5F82828730231ED0231F10231F50231C0
:1031E000F90231FD023201023205023209ED42805C
:1031F00022ED429022ED42A022ED42B022ED42C0EB
:1032000022ED42C822ED42E822ED42F822E9B4085C
:1032100000504690321AF8282873023232023237B0
:1032200002323C02324102324602324B023250023A
:103230003255EDF4528022EDF4529022EDF452A07A
:1032400022EDF452B022EDF452C022EDF452C82225
:0A325000EDF452E822EDF452F822EA
:1037B700EFB4090050459037C4F82828730237DF63
:1037C7000237E30237E70237EB0237EF0237F3023C
:1037D70037F70237FB0237FFAE80801FAE90801BA2
:1037E700AEA08017AEB08013AEC0800FAEC8800BFE
:1037F700AEE88007AEF880037F0122EE5D60037FAD
:0438070001227F001B
:01380B00229A
:0C3F390030313637161743441011404257
:1037600075985053873F538EDEE4FD7F011233F38B
:103770009004301209250001C2007F011239534321
:103780008E4053890FC2ABC28FD28EC20AD2AC75A3
:103790009A10E4FD7F021233F390043012092500E1
:1037A00001C2007F02123953438E0453AFFB438E94
:0737B00010C20B43AF012220
:1033F30090042FEDF0EF24FE603F04707690042FCD
:10340300E0FF54C0FEE5A2543F4EF5A2EFC41313F0
:10341300540325E02439F582E4343FF583E493FF34
:10342300E4FD121E0990042FE0C41313540325E096
:10343300243AF582E4343F803090042FE0FF5401B6
:10344300FEE5BA54FE4EF5BAEF25E02441F582E4D9
:10345300343FF583E493FFE4FD121E0990042FE04B
:1034630025E02442F582E4343FF583E493FF7D03B2
:04347300121E0922FA
:0539530090042FEFF0CD
:10395800E47B04FAF9F8900583E0FCA3E0FDA3E01A
:10396800FEA3E0FF120868900430E0F8A3E0F9A392
:10397800E0FAA3E0FB120868C3E49FFFE49EFE9010
:10398800042FE024FE600904700B8F8BEEF58D2266
:053998008FD7EEF5D60B
:01399D002207
:103E8300EF24FE600C0470128D99D20A300A0B8065
:0B3E9300FBAF058F9BD20B200BFD2224
:103BF300EF24FE6019047030EB6006D29BD29B80E9
:103C030004C29BC29B8D99D20A300A1C80FBEB60D5
:103C130008439A08439A088006539AF7539AF7AFD2
:093C2300058F9BD20B200BFD2242
:103C2C009004E4EBF0A3EAF0A3E9F0AE079004E40F
:103C3C00E0FBA3E0FAA3E0F912064B6019AF069083
:103C4C0004E4A3E475F001120762A9F0FA12064B22
:073C5C00FD123E8380D72218
:0E362F00900435EFF0A3EBF0A3EAF0A3E9F06E
:10363D009004E17401F0A37404F0A37439F09004C4
:10364D0036E0F9A3E0FAA3E09004E4C9F0A3EAF0B0
:10365D00A3E9F09004E1E0F9A3E0FAA3E09004E718
:10366D00C9F0A3EAF0A3E9F07B017A04796112397C
:10367D00E89004E1E4F0A3F0A3F0900435E0FF7BC3
:08368D00017A047961023C2C72
:0300230002399E01
:10399E00C0E0C0F0C083C082C0D075D000C000C0EF
:1039AE0001C002C003C004C005C006C0073098089D
:1039BE00C298123D20123CCC309904C299C20AD052
:1039CE0007D006D005D004D003D002D001D000D04D
:0A39DE00D0D082D083D0F0D0E032C8
:0300430002390679
:10390600C0E0C0F0C083C082C0D075D000C000C087
:1039160001C002C003C004C005C006C007E59A3056
:10392600E006539AFE123D47E59A30E105539AFDAB
:10393600C20BD007D006D005D004D003D002D001E8
:0D394600D000D0D0D082D083D0F0D0E032BD
:013F75002229
:013F76002228
:013F77002227
:013F78002226
:083F6400EF7004C28DD28C2223
:063F6C00EF7002C28C227E
:103DE00090059AEFF0ED600AE07017438F017D03B4
:103DF000800B90059AE0700A538FFEE4FD7F351228
:033E00001E092276
:0F3F0100538E7F5389F0E4F58A758C48D2A9223C
:0B26940090042BEFF0A3ECF0A3EDF09E
:10269F00900583E0FCA3E0FDA3E0FEA3E0FFE412BE
:1026AF0001EC7B007A247974784912014FA804A9B0
:1026BF0005AA06AB077F007EFF7D7F7C4712014F87
:1026CF0012022A900430EEF0A3EFF07F007E1B7D04
:1026DF00B77C00900583E0F8A3E0F9A3E0FAA3E04C
:1026EF00FBD3120908500A74FF900432F0A3F08054
:1026FF003B900583E0FCA3E0FDA3E0FEA3E0FFE435
:10270F001201EC7B007A1B7937784B12014FA8042A
:10271F00A905AA06AB077F007EFF7D7F7C471201CC
:10272F004F12022A900432EEF0A3EFF0900430E043
:10273F00FEA3E0FF90042CE0FCA3E0FDD39FEC9EF2
:10274F005010ED9400EC94004008A3E4F0A304F0C3
:10275F00802C900432E0FEA3E0FFD3ED9FEC9E406F
:10276F000302282D90042DE0940090042CE0940097
:10277F00500302282D90042EE4F0A3740CF0900463
:10278F002BE0600302282D90042EE07004A3E06478
:10279F00017017438E80900583E0FCA3E0FDA3E05A
:1027AF00FEA3E0FFE41201EC802B90042EE07004F6
:1027BF00A3E0640C7059538E7F900583E0FCA3E077
:1027CF00FDA3E0FEA3E0FFE41201ECE4FBFA794085
:1027DF00784112014F7B007A247974784912014FA6
:1027EF00C004C005C006C00790042CE0FCA3E0FDA8
:1027FF00E41201F1D003D002D001D0001200461232
:10280F00022AC3E49FFFE49E90042EF0A3EFF09002
:0E281F00042EE0FEA3E0F58AEEF58C5389FB53
:01282D002288
:093F5B00EF70058D8AECF58C2253
:103EE100E4FDFCEF7006AF8CEFAD8AFCAE04AF05CC
:013EF10022AE
:1011CB00E47B07FAF9F8900583E0FCA3E0FDA3E0CC
:1011DB00FEA3E0FF12086890042B120919E47B8828
:1011EB007A13F9F8900583E0FCA3E0FDA3E0FEA3DE
:1011FB00E0FF12086890042F1209197F0A7E8B7D7D
:10120B00027C0090042BE0F8A3E0F9A3E0FAA3E042
:10121B00FBC3120908504D7F1D7E637D017C00903E
:10122B00042BE0F8A3A3A3E01209084037E47F6F77
:10123B00FEFDFC90042FE0F8A3E0F9A3E0FAA3E095
:10124B00FBD3120908401DE47FFAFEFDFC90042F2E
:10125B00E0F8A3A3A3E0120908500990021D74073C
:10126B00F00216EBE47B0EFAF9F8900583E0FCA391
:10127B00E0FDA3E0FEA3E0FF12086890042B120927
:10128B0019E47B107A27F9F8900583E0FCA3E0FDC5
:10129B00A3E0FEA3E0FF12086890042F1209197F48
:1012AB000A7E8B7D027C0090042BE0F8A3E0F9A36F
:1012BB00E0FAA3E0FBC3120908504D7F1D7E637D4E
:1012CB00017C0090042BE0F8A3A3A3E012090840D3
:1012DB0037E47F6FFEFDFC90042FE0F8A3E0F9A349
:1012EB00E0FAA3E0FBD3120908401DE47FFAFEFDF0
:1012FB00FC90042FE0F8A3A3A3E012090850099077
:10130B00021D7406F00216EBE47B15FAF9F8900552
:10131B0083E0FCA3E0FDA3E0FEA3E0FF12086890CE
:10132B00042B120919E47B987A3AF9F8900583E0BB
:10133B00FCA3E0FDA3E0FEA3E0FF12086890042FDE
:10134B001209197F0A7E8B7D027C0090042BE0F83A
:10135B00A3E0F9A3E0FAA3E0FBC3120908504D7F09
:10136B001D7E637D017C0090042BE0F8A3A3A3E01A
:10137B001209084037E47F6FFEFDFC90042FE0F864
:10138B00A3E0F9A3E0FAA3E0FBD3120908401DE4A4
:10139B007FFAFEFDFC90042FE0F8A3A3A3E0120953
:1013AB0008500990021D7405F00216EBE47B2AFA33
:1013BB00F9F8900583E0FCA3E0FDA3E0FEA3E0FFBA
:1013CB0012086890042B120919E47B307A75F9F82E
:1013DB00900583E0FCA3E0FDA3E0FEA3E0FF120871
:1013EB006890042F1209197F0A7E8B7D027C009076
:1013FB00042BE0F8A3E0F9A3E0FAA3E0FBC3120986
:10140B0008504D7F1D7E637D017C0090042BE0F81E
:10141B00A3A3A3E01209084037E47F6FFEFDFC9005
:10142B00042FE0F8A3E0F9A3E0FAA3E0FBD3120941
:10143B0008401DE47FFAFEFDFC90042FE0F8A3A307
:10144B00A3E0120908500990021D7404F00216EB78
:10145B00E47B54FAF9F8900583E0FCA3E0FDA3E0EC
:10146B00FEA3E0FF12086890042B120919E47B60BD
:10147B007AEAF9F8900583E0FCA3E0FDA3E0FEA374
:10148B00E0FF12086890042F1209197F0A7E8B7DEA
:10149B00027C0090042BE0F8A3E0F9A3E0FAA3E0B0
:1014AB00FBC3120908504D7F1D7E637D017C0090AC
:1014BB00042BE0F8A3A3A3E01209084037E47F6FE5
:1014CB00FEFDFC90042FE0F8A3E0F9A3E0FAA3E003
:1014DB00FBD3120908401DE47FFAFEFDFC90042F9C
:1014EB00E0F8A3A3A3E0120908500990021D7403AE
:1014FB00F00216EBE47B8CFAF9F8900583E0FCA381
:10150B00E0FDA3E0FEA3E0FF12086890042B120994
:10151B00197BA07A8679017800900583E0FCA3E023
:10152B00FDA3E0FEA3E0FF12086890042F12091937
:10153B007F0A7E8B7D027C0090042BE0F8A3E0F900
:10154B00A3E0FAA3E0FBC3120908504D7F1D7E6395
:10155B007D017C0090042BE0F8A3A3A3E012090803
:10156B004037E47F6FFEFDFC90042FE0F8A3E0F919
:10157B00A3E0FAA3E0FBD3120908401DE47FFAFEB7
:10158B00FDFC90042FE0F8A3A3A3E0120908500977
:10159B0090021D7402F00216EBE47BA8FAF9F890A6
:1015AB000583E0FCA3E0FDA3E0FEA3E0FF120868C7
:1015BB0090042B1209197BC07AD47901780090051D
:1015CB0083E0FCA3E0FDA3E0FEA3E0FF120868901C
:1015DB00042F1209197F0A7E8B7D027C0090042B4D
:1015EB00E0F8A3E0F9A3E0FAA3E0FBC3120908506B
:1015FB004D7F1D7E637D017C0090042BE0F8A3A33F
:10160B00A3E01209084037E47F6FFEFDFC90042F26
:10161B00E0F8A3E0F9A3E0FAA3E0FBD3120908403A
:10162B001DE47FFAFEFDFC90042FE0F8A3A3A3E0DA
:10163B00120908500990021D7401F00216EBE47BAD
:10164B002D7A01F9F8900583E0FCA3E0FDA3E0FE01
:10165B00A3E0FF12086890042B1209197BD87A4774
:10166B0079037800900583E0FCA3E0FDA3E0FEA3E3
:10167B00E0FF12086890042F1209197F0A7E8B7DF8
:10168B00027C0090042BE0F8A3E0F9A3E0FAA3E0BE
:10169B00FBC312090850497F1D7E637D017C0090BE
:1016AB00042BE0F8A3A3A3E01209084033E47F6FF7
:1016BB00FEFDFC90042FE0F8A3E0F9A3E0FAA3E011
:1016CB00FBD31209084019E47FFAFEFDFC90042FAE
:1016DB00E0F8A3A3A3E01209085005E490021DF063
:1016EB0090042B1209250000000090042F120925ED
:0416FB0000000000EB
:0116FF0022C8
:0E3F1F00E4F5C7F5C5F5C675C3FF75C4FF22EE
:083E0300900436E0FEA3E0FF8D
:103E0B0090021DE04480F5C775C5038FC4EEF5C362
:0A3E1B0075C65A75C6A500023F1FC8
:103B3C0090043EE0FCA3E0FD900437E02DFF9004E0
:103B4C0036E03CFE741E2DF58274023CF583E0FDDC
:103B5C0090021DE04480F5C775C5028FC4EEF5C315
:0E3B6C00AF058FC275C65A75C6A500023F1F71
:0C3CF800900437E02FFF900436E03EFE01
:103D040090021DE04480F5C775C5018FC4EEF5C36C
:0C3D140075C65A75C6A500AFC2023F1F5D
:1036950090042BEEF0A3EFF0A3EBF0A3EAF0A3E97F
:0136A500F034
:1036A600E4900432F0A3F0900430E0FEA3E0FFA320
:1036B600E0FCA3E0FDC39FEC9E503990042CE02D66
:1036C600FF90042BE03CFE123D0490042DE0FBA38A
:1036D600E0FAA3E0F9900432E0FCA3E0F5828C83E3
:1036E600EF1206A3900433E004F070BB900432E0BE
:0436F60004F080B3A9
:0136FA0022AD
:0B206D0090042DEBF0A3EAF0A3E9F0D3
:10207800E490043AF0A3F0A3EEF0A3EFF09004305C
:10208800E0FFA3E0A3CFF0A3EFF090043CE0FCA3B3
:10209800E0FDECC313FB7A007F0025E0FE900436D8
:1020A800F0A3EFF02400FFEE3402FEC3EF9DFFEE35
:1020B8009CFE900434F0A3EFF0D3900433E09F909B
:1020C8000432E09E40030221AFE490043EF0A3F006
:1020D80090043EE0FEA3E0FFC3EE94025025123CBC
:1020E800F890043EE0FCA3E0241EF58274023CF55F
:1020F80083EFF090043FE004F070D590043EE004D4
:10210800F080CD123E03900436E0FEA3E0FFC390BA
:10211800043DE09FFF90043CE09E900438F0A3EF5C
:10212800F0E490043EF0A3F0900432E0FEA3E0FF58
:1021380090043EE0FCA3E0FDC39FEC9E5047900452
:102148003BE02DFF90043AE03CFE90042DE0FBA319
:10215800E0FAA3E0F98F828E83120664FF900439B7
:10216800E02DFD900438E03CFC741E2DF5827402CD
:102178003CF583EFF090043FE004F070AB90043E30
:10218800E004F080A3E490043EF0A3F0123B3C90FE
:10219800043FE004F0700690043EE004F0C39004AD
:1021A8003EE0940240E622E490043EF0A3F090045E
:1021B8003EE0FEA3E0FFC3EE94025025123CF890E7
:1021C800043EE0FCA3E0241EF58274023CF583EF94
:1021D800F090043FE004F070D590043EE004F080F5
:1021E800CD123E03900436E0FEA3E0FFC390043D09
:1021F800E09FFF90043CE09E900438F0A3EFF0E4E9
:1022080090043EF0A3F0900434E0FEA3E0FF9004B5
:102218003EE0FCA3E0FDC39FEC9E504790043BE0EA
:102228002DFF90043AE03CFE90042DE0FBA3E0FA79
:10223800A3E0F98F828E83120664FF900439E02DA3
:10224800FD900438E03CFC741E2DF58274023CF5C8
:1022580083EFF090043FE004F070AB90043EE0049C
:10226800F080A3E490043EF0A3F0123B3C90043FBE
:10227800E004F0700690043EE004F0C390043EE0F1
:10228800940240E6900434E0FEA3E0FF90043DE0B1
:102298002FF090043CE03EF0C3900433E09FF090B0
:1022A8000432E09EF090043BE02FF090043AE03EC8
:0422B800F00220927E
:10004600EC4D6011E8497017ED33EC3304600DE4B4
:10005600FCFFFEFD22E933E8330470F80202961233
:10006600026158046009E4CC248150062850090234
:1000760002A028400302029DC0E0EB4A7044B9800A
:1000860006D0E0FB02028CEF4E701CBD8008EBFF31
:10009600EAFEE9FD80EBE98DF0A4FEE5F002012F12
:1000A600E9CDF9EAFEEBFFEF89F0A4FCE5F0CE8995
:1000B600F0A42EFFE435F0CD89F0A42DFEE435F052
:1000C6008067EF4E7005BD80D780C3EF8BF0A4AC80
:1000D600F0EE8BF0A42CFCE435F0F8EF8AF0A42CBB
:1000E600E5F038FCE433CB8DF0A42CFCE5F03BF8CE
:1000F600EE8AF0A42CFCE5F038F8E433CF89F0A4BE
:100106002CFCE5F038CF3400CE89F0A42FFFE5F0C3
:100116003EFEE433C98DF0A42EFEE5F039CD8AF01B
:10012600A42FFFE5F03EFEE43DFD33D0E0FB500793
:100136000BBB000F0202A0EC2CFCEF33FFEE33FEEC
:06014600ED33FD0202781A
:10014C000202A0EC5D046005E859047003020296FB
:10015C00120261580460F6EC4860F2EC7004FDFE8B
:10016C00FF22C860DB2481C85009C3986002500686
:10017C0002029D9850CAF582E9294B4A7005AB8260
:10018C0002028C75F0007C1A7880C3EF9BEE9AED1E
:10019C0099400DC3EF9BFFEE9AFEED99FDE842F0FE
:1001AC00DC23ACF0D0E0FFD0E0FED0E0FDAB822051
:1001BC00E7101BEB60BAEC2CFCEF33FFEE33FEEDDB
:1001CC0033FD020278E803F830E705C0F075F00063
:1001DC00EF2FFFEE33FEED33FD40B830E7C280AABF
:1001EC0075F020800E75F010800575F0087D007E8E
:1001FC00007F003392D530D5031208FAEC3340104F
:10020C00EF33FFEE33FEED33FDEC33FCD5F0ED2296
:0E021C00E5F0247EA2D513CC92E7CDCEFF22D2
:10022A00EDD2E7CD33EC3392D524814006E4FFFECC
:10023A00FDFC22FCE4CFCECDCC24E0501174FF802B
:10024A00EDC3CC13CCCD13CDCE13CECF13CF0470C8
:07025A00F030D5DE0208FAC6
:1039E8009004E4E0FFA3E0FEA3E0CF9004EDF0A391
:1039F800EEF0A3EFF09004E7E0CBF0A3E0CAF0A369
:103A0800E0C9F07F229004F0AD82AC8312064B8DA2
:103A1800828C83F0A309E970010ADFEC9004E7E0E7
:0A3A2800FBA3E0FAA3E0F902176522
:10026100E9D2E7C933E833F892D5EDD2E7CD33ECE3
:0702710033FC5002B2D5225C
:10027800EC30E7100FBF000C0EBE00080DBD0004E7
:100288000BEB6014A2D5EB13FCED92E7FD2274FF93
:10029800FCFDFEFF22E480F8A2D574FF13FC7D80EC
:0302A800E480EF00
:10170000E51624EDF582E43404F583E00516229015
:1017100004EA3008039004EDE475F0011209560262
:10172000064B2001E97F2ED2018018EF540F249040
:10173000D43440D4FF30050BEF24BFB41A0050035B
:101740002461FFE51760021517051AE51A700205F6
:101750001930080E9004EAE475F001120956EF0200
:101760000691023D6E7403D2088003E4C208F516A8
:101770009004EA12096DE4F517F519F51AE51760FA
:10178000077F2012174380F57518FFC202C201C2FD
:1017900003C204C206C207C20912170FFF700D3040
:1017A00008057F00121754AF1AAE1922B4255FC284
:1017B000D5C20512170FFF24D0B40A00501A75F0D5
:1017C0000A781730D50508B6FF0106C6A426F6200C
:1017D000D5047002D20480D924CFB41A00EF50048B
:1017E000C2E5D205021A46D20280C6D20180C0D21A
:1017F0000380BCD2D580BAD20680B47F20121743B2
:101800002003077401B5170040F1121700FF1217EB
:101810004302177DD209D2078095121700FB1217D9
:1018200000FA121700F94A4B700679447A1B7BFFC5
:1018300020032EE517602A7E008E82758300120633
:101840006460060EEE651870F0C2D5EBC0E0EAC029
:10185000E0E9C0E0EE121AA7D0E0F9D0E0FAD0E05B
:10186000FB12064BFF60AAEBC0E0EAC0E0E9C0E073
:10187000121743D0E02401F9D0E03400FAD0E0FBA5
:10188000E5180460DCD518D98087D20380A2121A2B
:101890008960F7E5187001041202ABA918600DE524
:1018A00018600914F518121B31EF60F3EA30E702F3
:1018B000F404C3995079EAF425180430E701E404EC
:1018C000F518800D121A8960C1EA05182518120250
:1018D000ABEA900519F030E701E4251804D51804A7
:1018E00020060114121AA7E4C0E0121B319005195A
:1018F000E0601320E70714F012172B802204F0D0C9
:10190000E014C0E07F0012172BE5186007121722C1
:101910001518800B300603121722D0E002177DD075
:10192000E00480C4121A89609EE518041202AB908C
:101930000519EAF0E5182006026001042404121AD1
:01194000A7FF
:1019410074FF04C0E0121B3112172BE518200602A8
:101951006003121722D0E0B518E87F4512173590C1
:101961000519E07F2B30E7047F2DF404C0E0121746
:1019710043D0E075F00A84C0F012172CD0E01217A2
:101981002C02177D791080027908C207C2098008EC
:10199100D2D5790A8004790AC2D5E518047002F516
:1019A10018E4FAFDFEFF121700FC7B082002131257
:1019B1001700FD7B1030010A121700FE121700FFFD
:1019C1007B20EC3382D592D55013C3E43001069FBE
:1019D100FFE49EFEE42002039DFDE49CFCE4CBF8C1
:1019E100C202EC700CCFCECDCCE824F8F870F380B5
:1019F10017C3EF33FFEE33FEED33FDEC33FCEB3376
:101A0100FB994002FB0FD8E9EB300205F8D0E0C4A6
:101A110048B202C0E00AEC4D4E4F78207B0070C204
:101A2100EAB5180040BCC0E0121AA9D0F0D0E020FD
:101A31000204C4C0E0C4B202C0F012172CD0F0D529
:101A4100F0EB02177D120976181A5319855817EB16
:101A51004C17E74219894F199144199149180043CC
:101A610019975518C446192445188E471B645017F9
:101A7100EF2D17F32E18162B17F7231814201B4DD3
:101A81002A17AF480000180EE518B4FF03751806B1
:101A9100121700FC121700FD121700FE121700FFAB
:101AA1009005120202E8790AA2D520041430060931
:101AB100B910020404B9080104A2D520070250019B
:101AC100042003689203B517005034C0E07F203032
:101AD10004197F30A20372077206500F121B00C255
:101AE10003C207C206C2097F30800F300603E9C076
:101AF100E0121743300603D0E0F9D0E0B517CC303F
:101B010006177F30B9100C1217437F583005077F35
:101B1100788003B908031217433003057F2D02179C
:101B2100437F202009F87F2B2007F322920380CFE7
:101B31007F00B40700500B2412F582E43405F583CD
:101B4100E0FF22286E756C6C2900D202121700305A
:101B510002F8C202781730D50108F60217AF2D50EE
:101B61004349581217002403B405004001E4901BB7
:101B71005F93121734743A121734D20475170402A2
:021B81001985C4
:1002AB00F920E73624F950037907E4F42402FBE53F
:1002BB0082158270021583DBF6E024FB501BE9608C
:1002CB0014E4F0E582158270021583E004F0B40AA1
:0D02DB0008E4F0D9EE7401F00A22C2D52229
:1002E800ED33EC3392D5FA602AB4FF33EDC2E77BE5
:1002F800FF60067A03790DE4227A03791620D50483
:100308007A037911224E614E002B494E46002D4941
:100318004E4600E47A08F0A3DAFC7B00740722C09A
:1003280083C082ECC0E0EDC0E0EEC0E0EFC0E0EAE0
:1003380075F010A4CAABF075F04DA42BFBE435F0B2
:10034800FCEA2410FAEB34C5FBEC34D9FCEDC2E727
:10035800FF75F056A4F42411C5F0F434C58FF0A449
:100368002AE5F03BE43CF020E714120515D0E0FF45
:10037800D0E0FED0E0FDD0E0FC12014F8014F40480
:10038800120515D0E0FFD0E0FED0E0FDD0E0FC1271
:100398000046D082D083E0FAEDD2E7CD33EC3324A7
:1003A80082FBE4C3CF33CFCE33CECD33CD33DBF3B3
:1003B8007B0775F00A846004F0A31B0AE5F0F0A33C
:1003C8008FF0740AA4FFACF08EF0740AA42CFEAC73
:1003D800F050010C8DF0740AA42CFDE435F0F0A364
:0503E800DBDE740722BA
:1003ED00020296E86480F8E933E83360110460F0A6
:1003FD00ED33EC337009E8FCE9FDEAFEEBFF220476
:10040D0060DED3EB9FEA9EE99DE8C2E78CF0C2F770
:10041D0095F0400CE8CCF8E9CDF9EACEFAEBCFFB3C
:10042D0012026185D0F05804700320D5B3E8047032
:10043D00075002B2D50202A092D5EC0460F7E4CCCD
:10044D00C0E0C398F8603B94186008400DD0E0FB05
:10045D00020278E4FBFAC9FC8028E830E406E4C91E
:10046D00FBE4CAFCE830E305E4C9CACBFCE8540759
:10047D006010F8C3E913F9EA13FAEB13FBEC13FC64
:10048D00D8F130F52FC3E49CFCEF9BFFEE9AFEED07
:10049D0099FDD0E0FBEF4E4D4C701222DB030202B2
:1004AD009DEC2CFCEF33FFEE33FEED33FDED30E72D
:1004BD00EB020278EF2BFFEE3AFEED39FDD0E0FBBB
:1004CD0050130BBB00030202A0ED13FDEE13FEEF64
:0804DD0013FFEC13FC0202788E
:1004E5003F8000004120000042C80000447A00001F
:1004F500461C400047C35000497424004B189680A1
:100505004CBEBC205A0E1BCA6753C21C749DC5AE97
:10051500FB60065407601C2323120543EB54386027
:100525000912052F12053E120046ECF8EDF9EEFA18
:10053500EFCB22EB12053E80F1543803241C9004C6
:10054500E5FE93FC0EEE93FD0EEE930ECE93FF2289
:10326600020AF4E493A3F8E493A34003F68001F280
:1032760008DFF48029E493A3F85407240CC8C33369
:10328600C4540F4420C8834004F456800146F6DF38
:10329600E4800B010204081020408090282EE47E72
:1032A600019360BCA3FF543F30E509541FFEE4932D
:1032B600A360010ECF54C025E060A840B8E493A3F4
:1032C600FAE493A3F8E493A3C8C582C8CAC583CA1F
:1032D600F0A3C8C582C8CAC583CADFE9DEE780BED7
:01297900005D
:10055500E709F608DFFA8046E709F208DFFA803E88
:1005650088828C83E709F0A3DFFA8032E309F60875
:10057500DFFA8078E309F208DFFA807088828C83DD
:10058500E309F0A3DFFA806489828A83E0A3F60891
:10059500DFFA805889828A83E0A3F208DFFA804C6B
:1005A50080D280FA80C680D4806980F28033801042
:1005B50080A680EA809A80A880DA80E280CA8033AB
:1005C50089828A83ECFAE493A3C8C582C8CCC58323
:1005D500CCF0A3C8C582C8CCC583CCDFE9DEE780F3
:1005E5000D89828A83E493A3F608DFF9ECFAA9F072
:1005F500EDFB2289828A83ECFAE0A3C8C582C8CCC8
:10060500C583CCF0A3C8C582C8CCC583CCDFEADEE0
:10061500E880DB89828A83E493A3F208DFF980CC42
:1006250088F0EF60010E4E60C388F0ED2402B4043B
:100635000050B9F582EB2402B4040050AF232345E2
:0606450082239005A5735D
:10064B00BB010689828A83E0225002E722BBFE02AD
:09065B00E32289828A83E49322E0
:10066400BB010CE58229F582E5833AF583E022504B
:1006740006E92582F8E622BBFE06E92582F8E22295
:0D068400E58229F582E5833AF583E49322AF
:10069100BB010689828A83F0225002F722BBFE0148
:0206A100F32242
:1006A300F8BB010DE58229F582E5833AF583E8F08D
:1006B300225006E92582C8F622BBFE05E92582C839
:0206C300F22221
:1006C500EF8DF0A4A8F0CF8CF0A428CE8DF0A42E49
:0206D500FE2203
:1006D700BC000BBE0029EF8DF084FFADF022E4CC07
:1006E700F875F008EF2FFFEE33FEEC33FCEE9DECD0
:1006F700984005FCEE9DFE0FD5F0E9E4CEFD22ED16
:10070700F8F5F0EE8420D21CFEADF075F008EF2F5F
:10071700FFED33FD4007985006D5F0F222C398FD50
:050727000FD5F0EA22ED
:10072C00C2D5EC30E709B2D5E4C39DFDE49CFCEEE8
:10073C0030E715B2D5E4C39FFFE49EFE1206D7C383
:10074C00E49DFDE49CFC80031206D730D507C3E47E
:06075C009FFFE49EFE2257
:10076200A3F8E0C5F025F0F0E5821582700215834A
:06077200E0C838F0E822A7
:10077800BB0110E58229F582E5833AF583E0F5F0BF
:10078800A3E0225009E92582F886F008E622BBFE9C
:100798000AE92582F8E2F5F008E222E5832AF583E2
:0807A800E993F5F0A3E99322A7
:1007B000F8BB0111E58229F582E5833AF583E8F07B
:1007C000E5F0A3F0225009E92582C8F608A6F02238
:0D07D000BBFE09E92582C8F2E5F008F2221F
:1007DD00E88FF0A4CC8BF0A42CFCE98EF0A42CFCBB
:1007ED008AF0EDA42CFCEA8EF0A4CDA8F08BF0A439
:1007FD002DCC3825F0FDE98FF0A42CCD35F0FCEB98
:10080D008EF0A4FEA9F0EB8FF0A4CFC5F02ECD395C
:0F081D00FEE43CFCEAA42DCE35F0FDE43CFC22C9
:10082C0075F008758200EF2FFFEE33FECD33CDCC83
:10083C0033CCC58233C5829BED9AEC99E582984006
:10084C000CF582EE9BFEED9AFDEC99FC0FD5F0D6E3
:10085C00E4CEFBE4CDFAE4CCF9A88222B800C1B90D
:10086C000059BA002DEC8BF084CFCECDFCE5F0CB4B
:10087C00F97818EF2FFFEE33FEED33FDEC33FCEB84
:10088C0033FB10D703994004EB99FB0FD8E5E4F93F
:10089C00FA227818EF2FFFEE33FEED33FDEC33FC2C
:1008AC00C933C910D7059BE99A4007EC9BFCE99A20
:1008BC00F90FD8E0E4C9FAE4CCFB2275F010EF2F65
:1008CC00FFEE33FEED33FDCC33CCC833C810D70765
:1008DC009BEC9AE899400AED9BFDEC9AFCE899F8A0
:0E08EC000FD5F0DAE4CDFBE4CCFAE4C8F92233
:0E08FA00C3E49FFFE49EFEE49DFDE49CFC220F
:10090800EB9FF5F0EA9E42F0E99D42F0E89C45F045
:0109180022BC
:0C091900ECF0A3EDF0A3EEF0A3EFF02251
:10092500A8828583F0D083D08212093C12093C123B
:10093500093C12093CE473E493A3C583C5F0C58360
:10094500C8C582C8F0A3C583C5F0C583C8C582C81C
:01095500227F
:10095600F8E0FBA3A3E0F925F0F0E582158270022A
:070966001583E0FA38F022CE
:09096D00EBF0A3EAF0A3E9F0228B
:10097600D083D082F8E4937012740193700DA3A310
:1009860093F8740193F5828883E473740293686024
:06099600EFA3A3A380DF24
:10099C00EC8EF0A4CCC5F0CCCDF8EFA4CEC5F02DE8
:1009AC00FDE43CFCE8A42EC8C5F03DFDE43CFCEFA6
:0D09BC00A4FFE5F028FEE43DFDE43CFC2234
:103D6E00EFB40A07740D123D79740A309811A899B0
:103D7E00B8130CC2983098FDA899C298B811F630B5
:073D8E0099FDC299F599228D
:10355C00900591EBF0A3EAF0A3E9F0900597EBF05E
:10356C00A3EAF0A3E9F0900591E0FBA3E475F00168
:10357C00120762A9F0FA12064B70EB90059274FFD9
:10358C00F5F0120ADE900594E0FBA3E475F001124D
:10359C000762A9F0FA12064BFF900591E0FBA3E439
:1035AC0075F001120762A9F0FAEF12069170D6902D
:0B35BC000597E0FBA3E0FAA3E0F92272
:102D6E00900587EBF0A3EAF0A3E9F0E490058FF06D
:102D7E00A3F0D390058EE0940090058DE0648094CE
:102D8E00805003022E27900587E0FBA3E0FAA3E014
:102D9E00F990058FE0FEA3E0F5828E831206646043
:102DAE0010900590E004F070DD90058FE004F08047
:102DBE00D590058AE0FBA3E0FAA3E0F912064B607A
:102DCE003E90058AA3E475F001120762A9F0FA128B
:102DDE00064BFF900587E0FBA3E0FAA3E0F9900510
:102DEE008FE475F00112076285F082F583EF12060B
:102DFE00A390058D74FFF5F0120ADE45F070B290C7
:102E0E000587E0FBA3E0FAA3E0F990058FE0FEA3AF
:102E1E00E0F5828E83E41206A3900587E0FBA3E023
:052E2E00FAA3E0F92207
:1032E60090042BEBF0A3EAF0A3E9F090042EE0FBA8
:1032F600A3E0FAA3E0F912064BFE90042BE0FBA331
:10330600E0FAA3E0F912064BFF6E702AEF600E900A
:10331600043174FFF5F0120ADE45F070037F0022D7
:1033260090042CE475F001120ADE90042FE475F087
:1033360001120ADE80B590042BE0FBA3E0FAA3E0BD
:10334600F912064BFDD3EE6480F8ED6480984003D5
:103356007F012290042EE0FBA3E0FAA3E0F9120617
:073366004BFFC3ED9FFF22A6
:1009C900E709F60870FA8046E709F20870FA803EEE
:1009D90088828C83E709F0A370FA807EE309F60820
:1009E90070FA8076E309F20870FA806E88828C8347
:1009F900E309F0A370FA806289828A83E0A3F6088A
:100A090070FA805689828A83E0A3F20870FA804AD4
:100A190080D280FA80C680D4806580F280318010CF
:100A290080A680EA809A80A880DA80E280CA803134
:100A390089828A83ECFAE493A3C8C582C8CCC583AA
:100A4900CCF0A3C8C582C8CCC583CC70E9800D8918
:100A5900828A83E493A3F60870F9ECFAA9F0EDFB16
:100A69002289828A83ECFAE0A3C8C582C8CCC583EF
:100A7900CCF0A3C8C582C8CCC583CC70EA80DD8917
:100A8900828A83E493A3F20870F980CE88F0ED247A
:100A990002B4040050C4F582EB2402B4040050BA35
:090AA9002323458223900A1973EE
:10000E00E4FFFE12064B600C0FEF70010E09E97053
:05001E00F20A80EF2250
:103E64008DF0E4FFFE12064BB5F00122600C0FEF5B
:0F3E740070010E09E970010A80EB7EFF7FFF22CB
:102EF60090043BEBF0A3EAF0A3E9F0A3E0FBA3E028
:102F0600FAA3E0F912064B7003022FA290043BE0ED
:102F1600FBA3E0FAA3E0F912064B7003022FAE9072
:102F2600043EE0F9A3E0FAA3E0A3C9F0A3EAF0A304
:102F3600E9F090043BA3E0FAA3E0F9900444EBF037
:102F4600A3EAF0A3E9F0900441E0FBA3E0FAA3E0D2
:102F5600F912064BFF6026900444E0FBA3E0FAA3B7
:102F6600E0F912064B6F701590044275F001120AD3
:102F7600DE900445E475F001120ADE80C990044132
:102F8600E0FBA3E0FAA3E0F912064B7002800D9075
:102F9600043CE475F001120ADE022F1290043BE0B5
:0F2FA600FBA3E0FAA3E0F9227B007A0079002276
:102BCD0090042BEBF0A3EAF0A3E9F090042BE0FBCB
:102BDD00A3E0FAA3E0F912064BFF123ECD500C9084
:102BED00042CE475F001120ADE80E0D20190042B72
:102BFD00E0FBA3E0FAA3E0F912064BFF642B60049F
:102C0D00EFB42D1D90042BE0FBA3E475F00112072A
:102C1D0062A9F0FA12064B642D6003D38001C392B2
:102C2D0001E490042EF0A3F090042BE0FBA3E0FA56
:102C3D00A3E0F912064BFF123F10504290042BE017
:102C4D00FBA3E0FAA3E0F912064BFF3395E0FEEF8C
:102C5D0024D0FBEE34FFFA90042EE0FEA3E0FF7CBF
:102C6D00007D0A1206C5EF2BFFEE3A90042EF0A35D
:102C7D00EFF090042CE475F001120ADE80AA300109
:102C8D000A90042EE0FEA3E0FF800F90042EE0FEDC
:0B2C9D00A3E0FFC3E49FFFE49EFE22C3
:100AB200EF4E6012EF60010EEDBB010B89828A835B
:100AC200F0A3DFFCDEFA2289F05007F709DFFCA968
:0C0AD200F022BBFEFCF309DFFCA9F022BF
:100ADE00C5F0F8A3E028F0C5F0F8E58215827002A3
:060AEE001583E038F02240
:0F3F1000EFC394304007EF943A50028001C32270
:103ECD00EFC394094005EF940E4004EFB42003D3E3
:043EDD008001C3227B
:00000001FF
