:030000000218E9FA
:0C18E900787FE4F6D8FD758121021930EB
:1018550048656C6C6F2C5541525431206973207268
:10186500756E696E672061742025642074696D65E5
:10187500732E0D0A0048656C6C6F2C55415254321D
:101885002069732072756E696E6720617420256406
:101895002074696D65732E0D0A0048656C6C6F2C9C
:1018A50055415254332069732072756E696E6720F5
:1018B50061742025642074696D65732E0D0A0048D6
:1018C500656C6C6F2C5541525434206973207275C8
:1018D5006E696E672061742025642074696D657377
:0418E5002E0D0A00BA
:10197500E4900000F01209A5900000E004F07BFF60
:101985007A187955E0FF900005E4F0A3EFF07F01A8
:10199500121A5D7BFF7A18797A900000E0FF9000BB
:1019A50005E4F0A3EFF07F02121A5D7BFF7A187948
:1019B5009F900000E0FF900005E4F0A3EFF07F03A7
:1019C500121A5D7BFF7A1879C4900000E0FF900041
:1019D50005E4F0A3EFF07F04121A5D7FE87E0312A1
:0419E50000038094E7
:071E4D004401300000000019
:10000300EF4E601A900128E0FCA3E0FDED1D7001A6
:0E0013001C144C70F7EF1F70011E144E70E6A7
:0100210022BC
:081E2E00900078E0FEA3E0FF44
:0A1E3600EF1FAC0670011E4C70F6A1
:011E4000227F
:101DC600900128E0FCA3E0FD120920E47B83FAF9E8
:101DD600F81207B590012C1208E390012CE0C3130A
:061DE600FEA3E013FF2242
:101D730090012BE06599600AE599F0E490012AF05F
:101D8300800690012AE004F090012AE0C394E974EC
:0C1D930080948040060075C760000022AC
:0B1AC3009000A8EBF0A3EAF0A3E9F00C
:101ACE009001137401F0A37400F0A374ABF09000B6
:101ADE00A8E0F9A3E0FAA3E090007AC9F0A3EAF037
:101AEE00A3E9F0900113E0F9A3E0FAA3E090007DE2
:101AFE00C9F0A3EAF0A3E9F07B017A0079D3121CB6
:101B0E0077900113E4F0A3F0A3F07B017A0079D370
:051B1E007F01021D081B
:10147100EF14601614602C14604D14606C1470032A
:101481000215052405600302152890FE02E0547E32
:101491004480F0E030E0F390FE00E054FCF090FE78
:1014A10003807A90FE04E0547E4480F0E030E0F363
:1014B10090FE00E054FC4403F090FE02E4F090FE44
:1014C10008F090FE03F02290FE08E0547E4480F084
:1014D100E030E0F390FE00E054FC4402F090FE04A2
:1014E100E4F090FE02F0A3F02290FE03E0543E44AB
:1014F10080F0E030E0F390FE00E054FC4401F09015
:10150100FE02801990FE03E0543E44C0F0E030E05A
:10151100F390FE00E054FC4401F090FE02E4F090F0
:08152100FE08F090FE04F02228
:0C1E4100EF90FE01700304F022EFF0228D
:1009A50043BA80AF9FE4FCFDFEC004A905AA06ABCF
:1009B5000778FBE6FFD000C3EF9BFFEE9AFEED99AB
:1009C500FDEC98FCE47BF07AD2F9F81207B5C3E4A4
:1009D5009FFF74369EFE746E9DFD74019CFC900015
:1009E500011208E3900001E0FCA3E0FDA3E0FEA3F3
:1009F500E0FFC00790FE01E0FBE4FAF9F8D007122A
:100A050008409000011208E37FC07EF67D577C0008
:100A1500900001E0F8A3E0F9A3E0FAA3E0FBC3121C
:100A250008D2500D9001301208EF00546000020BFF
:100A3500D47FC07E267D827C00900001E0F8A3E093
:100A4500F9A3E0FAA3E0FBC31208D2500D900130E0
:100A55001208EF005B8D80020BD47F807EED7DAFA9
:100A65007C00900001E0F8A3E0F9A3E0FAA3E0FB25
:100A7500C31208D2500D9001301208EF00A8C00033
:100A8500020BD47F807E2D7DE87C00900001E0F88C
:100A9500A3E0F9A3E0FAA3E0FBC31208D2500D903E
:100AA50001301208EF00B71B00020BD47F807E36A1
:100AB5007D257C01900001E0F8A3E0F9A3E0FAA30D
:100AC500E0FBC31208D2500D9001301208EF011956
:100AD5004000020BD47F807E567D417C0190000151
:100AE500E0F8A3E0F9A3E0FAA3E0FBC31208D250B3
:100AF5000D9001301208EF01312D00020BD47F005B
:100B05007EDB7D5F7C01900001E0F8A3E0F9A3E0C6
:100B1500FAA3E0FBC31208D2500D9001301208EF82
:100B250001518000020BD47F607E197D857C019088
:100B35000001E0F8A3E0F9A3E0FAA3E0FBC3120883
:100B4500D2500D9001301208EF016E3600020BD421
:100B55007F207EE07DB27C01900001E0F8A3E0F902
:100B6500A3E0FAA3E0FBC31208D2500C90013012A7
:100B750008EF019BFCC080577FE07EA67DE07C01ED
:100B8500900001E0F8A3E0F9A3E0FAA3E0FBC312AB
:100B950008D2500C9001301208EF01C9C380802F94
:100BA5007F607E2B7DFF7C01900001E0F8A3E0F9DA
:100BB500A3E0FAA3E0FBC31208D29001305009125A
:100BC50008EF01FA400080071208EF02160EC0E494
:100BD5007B107A27F9F8900130E0FCA3E0FDA3E053
:100BE500FEA3E0FF120840900128EEF0A3EFF0E429
:0D0BF50090012BF090012AF01215D3D2AF21
:010C020022CF
:0B13AC00900008EBF0A3EAF0A3E9F0CA
:1013B7007F647E00121DC6900078EEF0A3EFF090D8
:1013C70000757401F0A37400F0A3740BF09000088B
:1013D700E0F9A3E0FAA3E090007AC9F0A3EAF0A34A
:1013E700E9F0900075E0F9A3E0FAA3E090007DC969
:1013F700F0A3EAF0A3E9F07B017A007935121C77B4
:10140700900033EEF0A3EFF0900075E4F0A3F0A3A3
:10141700F07FF47E01120003E4FBFAD3900034E07E
:101427009B900033E09A40E9D2B1C2B1121E2E74EC
:10143700352BF58274003AF583E0F9E4FDEDC394AA
:1014470008748094805014E930E004D2B18002C25D
:10145700B1E9C313F9121E2E0D80E2D2B1121E2E6E
:0A146700121E2E0BBB00010A80B11B
:0B167A00900134EBF0A3EAF0A3E9F0CC
:10168500E4FFFE90013AF0A3F0A3F0A3F09001343B
:10169500E0FBA3E0FAA3E0F912070F607790013DA4
:1016A500E004F0700690013CE004F0900137E0FBA7
:1016B500A3E0FAA3E0F98F828E83120728FD90013B
:1016C50034E0FBA3E0FAA3E0F912070FB505070F15
:1016D500BF00010E8012E4FEFF90013CE0FDA3E097
:1016E50090013ACDF0A3EDF0900135E475F00112CB
:1016F5000789900137E0FBA3E0FAA3E0F98F828E1A
:1017050083120728FD3395E04D708290013AE0FE83
:08171500A3E0FF227EFF7FFF2D
:01171D0022A9
:1011F500E4900143F0900145F0900144F0900144E2
:10120500E0C3940A7480948040030212D7E07E0004
:101215002DF582EE3CF583120728FF3395E0FEC3DA
:10122500EF9430EE648094804052D3EF9437EE64AF
:101235008094805047900145E004F0E06401701906
:10124500900144E07E002DF582EE3CF583120728DF
:1012550024D0C454F0900143F0900145E06402703D
:101265001B900144E07E002DF582EE3CF5831207CC
:101275002824D0FF900143E04FFFF022900144E085
:101285007E002DF582EE3CF583120728FF3395E0AD
:10129500FEC3EF9438EE648094804011D3EF943907
:1012A500EE648094805006900145E004F09001447E
:1012B500E07E002DF582EE3CF583120728FF642CB5
:1012C5006010EF3395E04F6009900144E004F002AF
:0712D5001202900143E0FF4B
:0112DC0022EF
:0812DD0090013EECF0A3EDF0DE
:1012E500E4A3F0A3F0A3F0900142E0FFC3941474CB
:1012F50080948040030213A390013FE02FFF9001EB
:101305003EE034008F82F583120728FF3395E0FE17
:10131500C3EF9430EE648094804051D3EF9439EE5E
:10132500648094805046900140E0FEA3E0FF7C007D
:101335007D0A120777900140EEF0A3EFF0A3E0FFDE
:1013450090013FE02FFF90013EE034008F82F5834E
:10135500120728FF3395E0FEEF24D0FFEE34FFFEA1
:10136500900141E02FF0900140E03EF0900142E015
:10137500FF90013FE02FFF90013EE034008F82F5A2
:1013850083120728FF642C6015EF642E6010EF337D
:1013950095E04F6009900142E004F00212EC9001E3
:0613A50040E0FEA3E0FFA2
:0113AB00221F
:100DA500900116EBF0A3EAF0A3E9F0A3ECF0A3EDB4
:010DB500F04D
:100DB600E4900122F0A3F0A3F0A3F0A3F0A3F09037
:100DC6000120F0A3F0900119E0FEA3E0FF900120BE
:100DD600E0FCA3E0FDC39FEC9E4003020E7590016C
:100DE6001BE0FBA3E0FAA3E0F9900122E0FEA3E0FA
:100DF600F5828E83120728FF900116E0FBA3E0FA26
:100E0600A3E0F98D828C83120728B507339001235E
:100E1600E004F07006900122E004F090011EE0FE6E
:100E2600A3E0FF900122E0B50631A3E0B5072C90C0
:100E36000120E0FFA3E0900126CFF0A3EFF0802F82
:100E4600E4900122F0A3F0900121E02401FE90013C
:100E560020E03400900124F0A3CEF0900121E004BC
:100E6600F06003020DCB900120E004F0020DCB9060
:100E76000126E0FEA3E0FF900124E0FCA3E0FDD301
:100E86009FEC9E5044900120ECF0A3EDF0900126DB
:100E9600E0FEA3E0FF900120E0FCA3E0FDC39FEC91
:100EA6009E5023900116E0FBA3E0FAA3E0F98D82A1
:100EB6008C83E4120755900121E004F070CF900175
:0B0EC60020E004F080C77F01227F00C5
:010ED10022FE
:100C03006770696F5F757070756C6C283C44253034
:100C130032583E2C2564293BB2BBB4E6D4DAB8C3C0
:100C2300494F0D0A006770696F5F757070756C6C62
:100C3300283C44253032583E2C31293BB2BBB4E624
:100C4300D4DAB8C3494F0D0A006770696F5F7570D6
:100C530070756C6C283C44253032583E2C30293B4F
:100C6300B2BBB4E6D4DAB8C3494F0D0A0067706962
:100C73006F5F6D6F6465283C44253032583E2C25E8
:100C830064293BB2BBB4E6D4DAB8C3494F0D0A00BA
:100C93006770696F5F6D6F64652844253032582C27
:100CA3003C25643E293BB2BBB4E6D4DAB8C3C4A343
:100CB300CABD0D0A006770696F5F77726974652832
:100CC3003C25643E2C2564293BB2BBB4E6D4DAB898
:100CD300C350BFDA0D0A006770696F5F72656164A4
:100CE300283C5025643E293BB2BBB4E6D4DAB8C3F2
:100CF30050BFDA0D0A006770696F5F6F7574283C27
:100D030044253032583E2C2564293BB2BBB4E6D48B
:100D1300DAB8C3494F0D0A006770696F5F6F757466
:100D2300283C44253032583E2C31293BB2BBB4E633
:100D3300D4DAB8C3494F0D0A006770696F5F6F75E6
:100D430074283C44253032583E2C30293BB2BBB486
:100D5300E6D4DAB8C3494F0D0A006770696F5F695B
:100D63006E283C44253032583E293BB2BBB4E6D40E
:100D7300DAB8C3494F0D0A006770696F5F746F6714
:100D8300676C65283C44253032583E293BB2BBB4DE
:100D9300E6D4DAB8C3494F0D0A0001020408102053
:020DA30040808E
:0A0ED200900147EDF0900146EFF0AB
:100EDC0064887003020FE3E0FF54F0F50DEF540F3C
:100EEC00FF900D9D93F50ED3EF9407748094804082
:100EFC00237BFF7A0C7903900146E0FF90000BE412
:100F0C00F0A3EFF0900147E0FF90000DE4F0A3EFA9
:100F1C00F01213AC900147E06055E50D24F0602110
:100F2C0024F0602224F0602324F0602424F0602557
:100F3C0024F0602624F060272470702B90FE108023
:100F4C002190FE11801C90FE12801790FE138012CF
:100F5C0090FE14800D90FE15800890FE1680039074
:100F6C00FE17E0450EF0227BFF7A0C79288058E5BD
:100F7C000D24F0602124F0602224F0602324F06022
:100F8C002424F0602524F0602624F060272470705F
:100F9C003090FE10802190FE11801C90FE12801764
:100FAC0090FE13801290FE14800D90FE1580089018
:100FBC00FE16800390FE17E0FFE50EF4FEEF5EF0E8
:100FCC00227BFF7A0C794C900146E0FF90000BE4F9
:070FDC00F0A3EFF01213ACCB
:010FE30022EB
:0A03FB00900007EDF0900006EFF00F
:100405006488700302070EE0FF54F0F50DEF540FFA
:10041500FF900D9D93F50ED3EF9407748094804063
:10042500237BFF7A0C7970900006E0FF90000BE4C7
:10043500F0A3EFF0900007E0FF90000DE4F0A3EFCC
:10044500F01213ACE50D24F0602124F0602224F0B5
:10045500602324F0602424F0602524F0602624F035
:10046500602724707028E4F50D8046750D018041E4
:10047500750D02803C750D038037750D048032754E
:100485000D05802D750D068028750D0780237BFFD2
:100495007A0C7970900006E0FF90000BE4F0A3EF72
:1004A500F0900007E0FF90000DE4F0A3EFF01213C9
:1004B500AC900007E0FFD3940374809480401C7BCC
:1004C500FF7A0C7993900006E0FD90000BE4F0A311
:1004D500EDF0A3E4F0A3EFF01213ACE50D7040903E
:1004E5000007E0FF7E007007E50EF452935294EF8B
:1004F50064014E7009E50E4293E50EF452949000A6
:1005050007E064027008E50E4293E50E4294900000
:1005150007E064037009E50EF45293E50E4294E595
:100525000D64017040900007E0FF7E007007E50E46
:10053500F452915292EF64014E7009E50E4291E535
:100545000EF45292900007E064027008E50E4291A5
:10055500E50E4292900007E064037009E50EF4523F
:1005650091E50E4292E50D64027040900007E0FFB0
:100575007E007007E50EF452955296EF64014E70B9
:1005850009E50E4295E50EF45296900007E06402E7
:100595007008E50E4295E50E4296900007E064036B
:1005A5007009E50EF45295E50E4296E50D6403706B
:1005B50040900007E0FF7E007007E50EF452B1524F
:1005C500B2EF64014E7009E50E42B1E50EF452B288
:1005D500900007E064027008E50E42B1E50E42B2F4
:1005E500900007E064037009E50EF452B1E50E4290
:1005F500B2E50D64047040900007E0FF7E007007CF
:10060500E50EF452B352B4EF64014E7009E50E42A3
:10061500B3E50EF452B4900007E064027008E50EED
:1006250042B3E50E42B4900007E064037009E50E9D
:10063500F452B3E50E42B4E50D6405704090000731
:10064500E0FF7E007007E50EF452C952CAEF64015F
:100655004E7009E50E42C9E50EF452CA900007E056
:1006650064027008E50E42C9E50E42CA900007E033
:1006750064037009E50EF452C9E50E42CAE50D643E
:10068500067040900007E0FF7E007007E50EF4520B
:10069500CB52CCEF64014E7009E50E42CBE50EF46A
:1006A50052CC900007E064027008E50E42CBE50EDF
:1006B50042CC900007E064037009E50EF452CBE5E7
:1006C5000E42CCE50D64077040900007E0FF7E0008
:1006D5007007E50EF452E152E2EF64014E7009E550
:1006E5000E42E1E50EF452E2900007E06402700864
:1006F500E50E42E1E50E42E2900007E06403700971
:09070500E50EF452E1E50E42E2BA
:01070E0022C8
:101B2300EFB40900503A901B30F8282873021B4B7E
:101B3300021B4E021B51021B54021B57021B5A026B
:101B43001B5D021B60021B7C8D80228D90228DA069
:101B5300228DB0228DC0228DC8228DE8228DF822DD
:101B63007BFF7A0C79B890000BE4F0A3EFF0AF059C
:0A1B7300A3E4F0A3EFF01213AC227C
:101B7D00EFB40900503D901B8AF8282873021BA56D
:101B8D00021BA8021BAB021BAE021BB1021BB4024F
:101B9D001BB7021BBA021BBDAF8022AF9022AFA0B4
:101BAD0022AFB022AFC022AFC822AFE822AFF822D9
:101BBD007FFF227BFF7A0C79DA90000BE4F0A3EF24
:071BCD00F01213AC7FFF22B0
:0A0FE400900149EDF0900148EFF094
:100FEE00648870030210F2E0FF54F0F50DEF540F19
:100FFE00FF900D9D93F50ED3EF940774809480406F
:10100E00237BFF7A0C79F9900148E0FF90000BE406
:10101E00F0A3EFF0900149E0FF90000DE4F0A3EF94
:10102E00F01213AC900149E06052E50D24F06021FE
:10103E0024F0602224F0602324F0602424F0602544
:10104E0024F0602624F0602724707028E50E42807C
:10105E0022E50E429022E50E42A022E50E42B0227B
:10106E00E50E42C022E50E42C822E50E42E822E518
:10107E000E42F8227BFF7A0D791B8058E50D24F085
:10108E00602224F0602424F0602624F0602824F0EE
:10109E00602A24F0602C24F0602E24707030E50E4F
:1010AE00F4528022E50EF4529022E50EF452A02264
:1010BE00E50EF452B022E50EF452C022E50EF452C3
:1010CE00C822E50EF452E822E50EF452F8227BFF18
:1010DE007A0D793C900148E0FF90000BE4F0A3EF0D
:0410EE00F01213AC3D
:0110F20022DB
:0515290090014AEFF003
:10152E0064887002FF2290014AE0FF54F0F50DEF3F
:10153E00540FFF900D9D93F50ED3EF940774809486
:10154E008040167BFF7A0D795D90014AE0FF900096
:10155E000BE4F0A3EFF01213ACE50D24F0602124A0
:10156E00F0602224F0602324F0602424F06025240F
:10157E00F0602624F060272470702885800F803953
:10158E0085900F803485A00F802F85B00F802A851F
:10159E00C00F802585C80F802085E80F801B85F839
:1015AE000F80167BFF7A0D795D90014AE0FF900067
:1015BE000BE4F0A3EFF01213ACE50F550E60037FB2
:0415CE0001227F0077
:0115D20022F6
:05171E0090014BEFF00B
:10172300648870030217BAE0FF54F0F50DEF540F0D
:10173300FF900D9D93F50ED3EF9407748094804032
:10174300167BFF7A0D797B90014BE0FF90000BE451
:10175300F0A3EFF01213ACE50D24F0602124F06048
:101763002224F0602324F0602424F0602524F06018
:101773002624F0602724707028E50E628022E50E8F
:10178300629022E50E62A022E50E62B022E50E62AF
:10179300C022E50E62C822E50E62E822E50E62F879
:1017A300227BFF7A0D797B90014BE0FF90000BE4E5
:0717B300F0A3EFF01213ACEC
:0117BA00220C
:10004600EFB40800503E900053F828287302006B66
:1000560002006F02007302007702007B02007F023B
:100066000083020087ED628022ED629022ED62A09D
:1000760022ED62B022ED62C022ED62C822ED62E896
:0500860022ED62F822EA
:1017BB00A907EB6048E9B4080040030218549017DE
:1017CB00D0F82828730217E80217EC0217F002175B
:1017DB00F40217F80217FC021800021804ED4280FD
:1017EB0022ED429022ED42A022ED42B022ED42C00A
:1017FB0022ED42C822ED42E822ED42F822E9B4087C
:10180B00005046901815F828287302182D0218322C
:10181B0002183702183C02184102184602184B02F4
:10182B001850EDF4528022EDF4529022EDF452A0B8
:10183B0022EDF452B022EDF452C022EDF452C82244
:0A184B00EDF452E822EDF452F82209
:101BD400EFB409005045901BE1F8282873021BFC60
:101BE400021C00021C04021C08021C0C021C100231
:101BF4001C14021C18021C1CAE80801FAE90801B9B
:101C0400AEA08017AEB08013AEC0800FAEC8800BFC
:101C1400AEE88007AEF880037F0122EE5D60037FAB
:041C240001227F001A
:011C28002299
:101E1A0030313637161743441011404200015051F1
:041E2A00020352530A
:1015D30075985053873FE58E54DE4401F58EE4FD44
:1015E3007F011210F39000061208EF0001C2007F82
:1015F30001121C29438E0453AFFB438E10C209D240
:10160300AC759A10E4FD7F021210F39000061208E5
:10161300EF0001C2007F02121C29438E0453AFFB6B
:10162300438E10C20A43AF0175AC10E4FD7F031271
:1016330010F39000061208EF0001C2007F03121C92
:1016430029438E0453AFFB438E10C20B43AF08757F
:101653008410E4FD7F041210F39000061208EF00DB
:1016630001C2007F04121C29438E0453AFFB438E37
:0716730010C20C43AF10226E
:1010F300900005EDF0EF24FE604D14607C14700346
:101103000211B2240360030211F4900005E0FF54BE
:10111300C0FEE5A2543F4EF5A2EFC41313540325BA
:10112300E0241AF582E4341EF583E493FFE4FD1210
:1011330003FB900005E0C41313540325E0241BF5BF
:1011430082E4341E0211EA900005E0FF5401FEE53B
:10115300BA54FE4EF5BAEF25E02422F582E4341E9C
:10116300F583E493FFE4FD1203FB900005E025E023
:101173002423F582E4341E806E900005E0FF5402C0
:10118300FEE5BA54FD4EF5BAEFC31325E02426F568
:1011930082E4341EF583E493FFE4FD1203FB900025
:1011A30005E0C31325E02427F582E4341E8038903C
:1011B3000005E0FF5404FEE5BA54FB4EF5BAEF1305
:1011C30013543F25E0242AF582E4341EF583E49387
:1011D300FFE4FD1203FB900005E01313543F25E0E9
:1011E300242BF582E4341EF583E493FF7D0312037D
:0211F300FB22DD
:051C2900900005EFF042
:101C2E00E47B04FAF9F8900130E0FCA3E0FDA3E0B8
:101C3E00FEA3E0FF120840900006E0F8A3E0F9A32F
:101C4E00E0FAA3E0FB120840C3E49FFFE49EFE907F
:101C5E000005E024FE600C14600914600624037075
:081C6E000780008FD7EEF5D6C8
:011C7600224B
:101D3F00EF24FE601314601914601F240370248DA8
:101D4F0099D20930091D80FB8D9BD20A300A14806D
:101D5F00FB8DADD20B300B0B80FBAF058F85D20CFB
:041D6F00200CFD2225
:1019E900EF24FE602014603714604E24037064EB0A
:1019F9006006D29BD29B8004C29BC29B8D99D2095F
:101A090030095080FBEB6008439A08439A08800626
:101A1900539AF7539AF78D9BD20A300A3680FBEB1B
:101A2900600843AC0843AC08800653ACF753ACF7E5
:101A39008DADD20B300B1C80FBEB6008438408434F
:101A4900840880065384F75384F7AF058F85D20C39
:041A5900200CFD223E
:101D0800900070EBF0A3EAF0A3E9F0AE0790007042
:101D1800E0FBA3E0FAA3E0F912070F6019AF069001
:101D28000070A3E475F00112079FA9F0FA12070FDB
:071D3800FD121D3F80D722C0
:0E1A5D00900001EFF0A3EBF0A3EAF0A3E9F094
:101A6B0090006D7401F0A37400F0A37405F0900066
:101A7B0002E0F9A3E0FAA3E090007AC9F0A3EAF040
:101A8B00A3E9F090006DE0F9A3E0FAA3E090007DEC
:101A9B00C9F0A3EAF0A3E9F07B017A00792D121CBF
:101AAB007790006DE4F0A3F0A3F0900001E0FF7BD2
:081ABB00017A00792D021D08DB
:03002300021CC1FB
:101CC100C0E0C0F0C083C082C0D075D000C000C0E9
:101CD10001C002C003C004C005C006C0073098059A
:101CE100C298121D73309904C299C209D007D00657
:101CF100D005D004D003D002D001D000D0D0D08202
:071D0100D083D0F0D0E032E6
:0300430002002692
:10002600C0E0E59A30E003539AFEE59A30E10553C5
:070036009AFDC20AD0E0327E
:03008B00021DEC67
:101DEC00C0E0E5AC30E00353ACFEE5AC30E10553AC
:071DFC00ACFDC20BD0E03288
:03009300021E0347
:101E0300C0E0E58430E0035384FEE58430E105530C
:071E130084FDC20CD0E03297
:1018F500021975E493A3F8E493A34003F68001F27B
:1019050008DFF48029E493A3F85407240CC8C333F3
:10191500C4540F4420C8834004F456800146F6DFC2
:10192500E4800B0102040810204080901E4DE47EE7
:10193500019360BCA3FF543F30E509541FFEE493B7
:10194500A360010ECF54C025E060A840B8E493A37E
:10195500FAE493A3F8E493A3C8C582C8CAC583CAA9
:10196500F0A3C8C582C8CAC583CADFE9DEE780BE61
:011E5400008D
:10070F00BB010689828A83E0225002E722BBFE02E8
:09071F00E32289828A83E493221B
:10072800BB010CE58229F582E5833AF583E0225086
:1007380006E92582F8E622BBFE06E92582F8E222D0
:0D074800E58229F582E5833AF583E49322EA
:10075500F8BB010DE58229F582E5833AF583E8F0DA
:10076500225006E92582C8F622BBFE05E92582C886
:02077500F2226E
:10077700EF8DF0A4A8F0CF8CF0A428CE8DF0A42E96
:02078700FE2250
:10078900C5F0F8A3E028F0C5F0F8E58215827002FB
:060799001583E038F02298
:10079F00A3F8E0C5F025F0F0E5821582700215830D
:0607AF00E0C838F0E8226A
:1007B500E88FF0A4CC8BF0A42CFCE98EF0A42CFCE3
:1007C5008AF0EDA42CFCEA8EF0A4CDA8F08BF0A461
:1007D5002DCC3825F0FDE98FF0A42CCD35F0FCEBC0
:1007E5008EF0A4FEA9F0EB8FF0A4CFC5F02ECD3985
:0F07F500FEE43CFCEAA42DCE35F0FDE43CFC22F2
:1008040075F008758200EF2FFFEE33FECD33CDCCAB
:1008140033CCC58233C5829BED9AEC99E58298402E
:100824000CF582EE9BFEED9AFDEC99FC0FD5F0D60B
:10083400E4CEFBE4CDFAE4CCF9A88222B800C1B935
:100844000059BA002DEC8BF084CFCECDFCE5F0CB73
:10085400F97818EF2FFFEE33FEED33FDEC33FCEBAC
:1008640033FB10D703994004EB99FB0FD8E5E4F967
:10087400FA227818EF2FFFEE33FEED33FDEC33FC54
:10088400C933C910D7059BE99A4007EC9BFCE99A48
:10089400F90FD8E0E4C9FAE4CCFB2275F010EF2F8D
:1008A400FFEE33FEED33FDCC33CCC833C810D7078D
:1008B4009BEC9AE899400AED9BFDEC9AFCE899F8C8
:0E08C4000FD5F0DAE4CDFBE4CCFAE4C8F9225B
:1008D200EB9FF5F0EA9E42F0E99D42F0E89C45F07C
:0108E20022F3
:0C08E300ECF0A3EDF0A3EEF0A3EFF02288
:1008EF00A8828583F0D083D08212090612090612DE
:1008FF000906120906E473E493A3C583C5F0C58303
:10090F00C8C582C8F0A3C583C5F0C583C8C582C852
:01091F0022B5
:10092000EC8EF0A4CCC5F0CCCDF8EFA4CEC5F02D64
:10093000FDE43CFCE8A42EC8C5F03DFDE43CFCEF22
:0D094000A4FFE5F028FEE43DFDE43CFC22B0
:101C770090007AE0FFA3E0FEA3E0CF900083F0A3FB
:101C8700EEF0A3EFF090007DE0CBF0A3E0CAF0A365
:101C9700E0C9F07F22900086AD82AC8312070F8DDA
:101CA700828C83F0A309E970010ADFEC90007DE0E4
:0A1CB700FBA3E0FAA3E0F90200FB32
:10009600E5082483F582E43400F583E00508229020
:1000A6000080300703900083E475F00112095F02B7
:1000B600070F2000E97F2ED2008018EF540F2490FE
:1000C600D43440D4FF30040BEF24BFB41A005003DD
:1000D6002461FFE50960021509050CE50C700205AF
:1000E6000B30070E900080E475F00112095FEF02F5
:1000F600094D021D9F7403D2078003E4C207F50869
:10010600900080120976E4F509F50BF50CE5096017
:10011600077F201200D980F5750AFFC201C200C20E
:1001260002C203C205C206C2081200A5FF700D3046
:1001360007057F001200EAAF0CAE0B22B4255FC2A2
:10014600D5C2041200A5FF24D0B40A00501A75F0D7
:100156000A780930D50508B6FF0106C6A426F6209A
:10016600D5047002D20380D924CFB41A00EF50040C
:10017600C2E5D2040202EBD20180C6D20080C0D210
:100186000280BCD2D580BAD20580B47F201200D9B5
:100196002002077401B5090040F1120096FF120013
:1001A600D9020113D208D2068095120096FB1200DE
:1001B60096FA120096F94A4B700679BC7A037BFFD1
:1001C60020022EE509602A7E008E827583001207C2
:1001D6002860060EEE650A70F0C2D5EBC0E0EAC0F4
:1001E600E0E9C0E0EE120332D0E0F9D0E0FAD0E068
:1001F600FB12070FFF60AAEBC0E0EAC0E0E9C0E02F
:100206001200D9D0E02401F9D0E03400FAD0E0FBA6
:10021600E50A0460DCD50AD980877BFF7A03792E4C
:10022600D202809C791080027908C206C208800832
:10023600D2D5790A8004790AC2D5E50A047002F596
:100246000AE4FAFDFEFF120096FC7B082001131259
:100256000096FD7B1030000A120096FE120096FFF3
:100266007B20EC3382D592D55013C3E43000069F31
:10027600FFE49EFEE42001039DFDE49CFCE4CBF834
:10028600C201EC700CCFCECDCCE824F8F870F38028
:1002960017C3EF33FFEE33FEED33FDEC33FCEB33E8
:1002A600FB994002FB0FD8E9EB300105F8D0E0C41A
:1002B60048B201C0E00AEC4D4E4F78207B0070C278
:1002C600EAB50A0040BCC0E0120334D0F0D0E0200A
:1002D6000104C4C0E0C4B201C0F01200C2D0F0D51F
:1002E600F0EB02011312097F01B053022A58018173
:1002F6004C017D42022E4F02364402364901964396
:08030600023C550220460220D2
:10030E004502204703DC5001852D01892E01AC2BBF
:10031E00018D2301AA2003C52A014548000001A42E
:10032E003F3F3F00790AA2D5200314300509B910CA
:10033E00020404B9080104A2D520060250010420CB
:10034E0002689202B509005034C0E07F20300319D4
:10035E007F30A20272067205500F12038BC202C2C8
:10036E0006C205C2087F30800F300503E9C0E012D7
:10037E0000D9300503D0E0F9D0E0B509CC3005172F
:10038E007F30B9100C1200D97F583004077F788067
:10039E0003B908031200D93002057F2D0200D97F60
:1003AE00202008F87F2B2006F322920280CF286EA1
:1003BE00756C6C2900D2011200963001F8C20178DA
:1003CE000930D50108F60201452D50434958120057
:1003DE00962403B405004001E49003D7931200CA9B
:0D03EE00743A1200CAD20375090402022AF3
:10094D00BB010689828A83F0225002F722BBFE0189
:02095D00F32283
:10095F00F8E0FBA3A3E0F925F0F0E5821582700221
:07096F001583E0FA38F022C5
:09097600EBF0A3EAF0A3E9F02282
:10097F00D083D082F8E4937012740193700DA3A307
:10098F0093F8740193F5828883E47374029368601B
:06099F00EFA3A3A380DF1B
:101D9F00EFB40A07740D121DAA740A309811A8998E
:101DAF00B8130CC2983098FDA899C298B811F630A4
:071DBF0099FDC299F599227C
:00000001FF
