:030000000216499C
:0C164900787FE4F6D8FD75812102169030
:0C1B22001209357D037F1612038B80FE34
:071B3A0044017E00000000E1
:10000300EF4E601A900176E0FCA3E0FDED1D700158
:0E0013001C144C70F7EF1F70011E144E70E6A7
:0100210022BC
:081B0100900077E0FEA3E0FF75
:0A1B0900EF1FAC0670011E4C70F6D1
:011B130022AF
:101AC000900176E0FCA3E0FD1208B0E47B83FAF914
:101AD000F812074590017A12087390017AE0C31357
:061AE000FEA3E013FF224B
:101A6D00900179E06599600AE599F0E4900178F0CC
:101A7D008006900178E004F0900178E0C394E97459
:0C1A8D0080948040060075C760000022B5
:0B173B009000A7EBF0A3EAF0A3E9F098
:101746009001127401F0A37400F0A374AAF0900043
:10175600A7E0F9A3E0FAA3E0900079C9F0A3EAF0C4
:10176600A3E9F0900112E0F9A3E0FAA3E090007C6F
:10177600C9F0A3EAF0A3E9F07B017A0079D2121846
:10178600EF900112E4F0A3F0A3F07B017A0079D286
:051796007F01021A06AC
:10130C00EF14601614602C14604D14606C14700390
:10131C000213A0240560030213C390FE02E0547E66
:10132C004480F0E030E0F390FE00E054FCF090FEDE
:10133C0003807A90FE04E0547E4480F0E030E0F3C9
:10134C0090FE00E054FC4403F090FE02E4F090FEAA
:10135C0008F090FE03F02290FE08E0547E4480F0EA
:10136C00E030E0F390FE00E054FC4402F090FE0408
:10137C00E4F090FE02F0A3F02290FE03E0543E4411
:10138C0080F0E030E0F390FE00E054FC4401F0907B
:10139C00FE02801990FE03E0543E44C0F0E030E0C1
:1013AC00F390FE00E054FC4401F090FE02E4F09057
:0813BC00FE08F090FE04F0228F
:0C1B2E00EF90FE01700304F022EFF022A3
:1009350043BA80AF9FE4FCFDFEC004A905AA06AB3F
:100945000778FBE6FFD000C3EF9BFFEE9AFEED991B
:10095500FDEC98FCE47BF07AD2F9F8120745C3E484
:100965009FFF74369EFE746E9DFD74019CFC900085
:1009750000120873900000E0FCA3E0FDA3E0FEA3D5
:10098500E0FFC00790FE01E0FBE4FAF9F8D007129A
:1009950007D09000001208737FC07EF67D577C005B
:1009A500900000E0F8A3E0F9A3E0FAA3E0FBC3128E
:1009B5000862500D90017E12087F00546000020B02
:1009C500647FC07E267D827C00900000E0F8A3E075
:1009D500F9A3E0FAA3E0FBC3120862500D90017E73
:1009E50012087F005B8D80020B647F807EED7DAFFA
:1009F5007C00900000E0F8A3E0F9A3E0FAA3E0FB97
:100A0500C3120862500D90017E12087F00A8C00035
:100A1500020B647F807E2D7DE87C00900000E0F86D
:100A2500A3E0F9A3E0FAA3E0FBC3120862500D901E
:100A3500017E12087F00B71B00020B647F807E36A3
:100A45007D257C01900000E0F8A3E0F9A3E0FAA37E
:100A5500E0FBC3120862500D90017E12087F011958
:100A65004000020B647F807E567D417C0190000032
:100A7500E0F8A3E0F9A3E0FAA3E0FBC31208625093
:100A85000D90017E12087F01312D00020B647F005D
:100A95007EDB7D5F7C01900000E0F8A3E0F9A3E038
:100AA500FAA3E0FBC3120862500D90017E12087F85
:100AB50001518000020B647F607E197D857C019069
:100AC5000000E0F8A3E0F9A3E0FAA3E0FBC31208F5
:100AD50062500D90017E12087F016E3600020B6494
:100AE5007F207EE07DB27C01900000E0F8A3E0F974
:100AF500A3E0FAA3E0FBC3120862500C90017E123A
:100B0500087F019BFCC080577FE07EA67DE07C01CD
:100B1500900000E0F8A3E0F9A3E0FAA3E0FBC3121C
:100B25000862500C90017E12087F01C9C380802F96
:100B35007F607E2B7DFF7C01900000E0F8A3E0F94B
:100B4500A3E0FAA3E0FBC312086290017E500912EC
:100B5500087F01FA4000800712087F02160EC0E4E4
:100B65007B107A27F9F890017EE0FCA3E0FDA3E075
:100B7500FEA3E0FF1207D0900176EEF0A3EFF0E4BC
:100B8500900179F0900178F0121A3D90FE00E04452
:0A0B950008F0E0540F4480F0D2AFE6
:010B9F002233
:0B124700900007EBF0A3EAF0A3E9F031
:101252007F647E00121AC0900077EEF0A3EFF09048
:1012620000747401F0A37400F0A3740AF0900007F4
:10127200E0F9A3E0FAA3E0900079C9F0A3EAF0A3B1
:10128200E9F0900074E0F9A3E0FAA3E090007CC9D1
:10129200F0A3EAF0A3E9F07B017A0079341218EFA7
:1012A200900032EEF0A3EFF0900074E4F0A3F0A30C
:1012B200F07FF47E01120003E4FBFAD3900033E0E6
:1012C2009B900032E09A40E9D2B1C2B1121B017484
:1012D200342BF58274003AF583E0F9E4FDEDC39412
:1012E20008748094805014E930E004D2B18002C2C4
:1012F200B1E9C313F9121B010D80E2D2B1121B0135
:0A130200121B010BBB00010A80B1B1
:0B146E00900182EBF0A3EAF0A3E9F08C
:10147900E4FFFE900188F0A3F0A3F0A3F0900182AD
:10148900E0FBA3E0FAA3E0F912069F607790018BD5
:10149900E004F0700690018AE004F0900185E0FB19
:1014A900A3E0FAA3E0F98F828E831206B8FD9001BA
:1014B90082E0FBA3E0FAA3E0F912069FB505070F46
:1014C900BF00010E8012E4FEFF90018AE0FDA3E057
:1014D900900188CDF0A3EDF0900183E475F001123D
:1014E9000719900185E0FBA3E0FAA3E0F98F828E4A
:1014F900831206B8FD3395E04D7082900188E0FEB5
:08150900A3E0FF227EFF7FFF3B
:0115110022B7
:10109000E4900191F0900193F0900192F090019210
:1010A000E0C3940A748094804003021172E07E00D1
:1010B0002DF582EE3CF5831206B8FF3395E0FEC3B2
:1010C000EF9430EE648094804052D3EF9437EE6416
:1010D0008094805047900193E004F0E0640170191F
:1010E000900192E07E002DF582EE3CF5831206B869
:1010F00024D0C454F0900191F0900193E064027008
:101100001B900192E07E002DF582EE3CF5831206E5
:10111000B824D0FF900191E04FFFF022900192E0BF
:101120007E002DF582EE3CF5831206B8FF3395E084
:10113000FEC3EF9438EE648094804011D3EF94396D
:10114000EE648094805006900193E004F090019248
:10115000E07E002DF582EE3CF5831206B8FF642C8C
:101160006010EF3395E04F6009900192E004F002C7
:07117000109D900191E0FFCA
:011177002255
:0811780090018CECF0A3EDF0F6
:10118000E4A3F0A3F0A3F0900190E0FFC3941474E3
:10119000809480400302123E90018DE02FFF900169
:1011A0008CE034008F82F5831206B8FF3395E0FEA1
:1011B000C3EF9430EE648094804051D3EF9439EEC5
:1011C00064809480504690018EE0FEA3E0FF7C0096
:1011D0007D0A12070790018EEEF0A3EFF0A3E0FF67
:1011E00090018DE02FFF90018CE034008F82F58319
:1011F0001206B8FF3395E0FEEF24D0FFEE34FFFE79
:1012000090018FE02FF090018EE03EF0900190E091
:10121000FF90018DE02FFF90018CE034008F82F56C
:10122000831206B8FF642C6015EF642E6010EF3354
:1012300095E04F6009900190E004F0021187900161
:061240008EE0FEA3E0FFBA
:011246002285
:100D4200900164EBF0A3EAF0A3E9F0A3ECF0A3EDC9
:010D5200F0B0
:100D5300E4900170F0A3F0A3F0A3F0A3F0A3F0904C
:100D6300016EF0A3F0900167E0FEA3E0FF90016E37
:100D7300E0FCA3E0FDC39FEC9E4003020E12900132
:100D830069E0FBA3E0FAA3E0F9900170E0FEA3E0C1
:100D9300F5828E831206B8FF900164E0FBA3E0FAAC
:100DA300A3E0F98D828C831206B8B50733900171E5
:100DB300E004F07006900170E004F090016CE0FE36
:100DC300A3E0FF900170E0B50631A3E0B5072C90D6
:100DD300016EE0FFA3E0900174CFF0A3EFF0802F4A
:100DE300E4900170F0A3F090016FE02401FE900104
:100DF3006EE03400900172F0A3CEF090016FE00436
:100E0300F06003020D6890016EE004F0020D68903B
:100E13000174E0FEA3E0FF900172E0FCA3E0FDD3C8
:100E23009FEC9E504490016EECF0A3EDF0900174A2
:100E3300E0FEA3E0FF90016EE0FCA3E0FDC39FECA6
:100E43009E5023900164E0FBA3E0FAA3E0F98D82B6
:100E53008C83E41206E590016FE004F070CF9001FB
:0B0E63006EE004F080C77F01227F00DA
:010E6E002261
:100BA0006770696F5F757070756C6C283C44253098
:100BB00032583E2C2564293BB2BBB4E6D4DAB8C324
:100BC000494F0D0A006770696F5F757070756C6CC6
:100BD000283C44253032583E2C31293BB2BBB4E688
:100BE000D4DAB8C3494F0D0A006770696F5F75703A
:100BF00070756C6C283C44253032583E2C30293BB3
:100C0000B2BBB4E6D4DAB8C3494F0D0A00677069C5
:100C10006F5F6D6F6465283C44253032583E2C254B
:100C200064293BB2BBB4E6D4DAB8C3494F0D0A001D
:100C30006770696F5F6D6F64652844253032582C8A
:100C40003C25643E293BB2BBB4E6D4DAB8C3C4A3A6
:100C5000CABD0D0A006770696F5F77726974652895
:100C60003C25643E2C2564293BB2BBB4E6D4DAB8FB
:100C7000C350BFDA0D0A006770696F5F7265616407
:100C8000283C5025643E293BB2BBB4E6D4DAB8C355
:100C900050BFDA0D0A006770696F5F6F7574283C8A
:100CA00044253032583E2C2564293BB2BBB4E6D4EF
:100CB000DAB8C3494F0D0A006770696F5F6F7574CA
:100CC000283C44253032583E2C31293BB2BBB4E697
:100CD000D4DAB8C3494F0D0A006770696F5F6F754A
:100CE00074283C44253032583E2C30293BB2BBB4EA
:100CF000E6D4DAB8C3494F0D0A006770696F5F69BF
:100D00006E283C44253032583E293BB2BBB4E6D471
:100D1000DAB8C3494F0D0A006770696F5F746F6777
:100D2000676C65283C44253032583E293BB2BBB441
:100D3000E6D4DAB8C3494F0D0A00010204081020B6
:020D40004080F1
:0A0E6F00900198EDF0900197EFF06C
:100E790064887003020F80E0FF54F0F50DEF540F02
:100E8900FF900D3A93F50ED3EF9407748094804048
:100E9900237BFF7A0B79A0900197E0FF90000AE489
:100EA900F0A3EFF0900198E0FF90000CE4F0A3EFBD
:100EB900F0121247900198E06055E50D24F0602189
:100EC90024F0602224F0602324F0602424F06025BB
:100ED90024F0602624F060272470702B90FE108087
:100EE9002190FE11801C90FE12801790FE13801233
:100EF90090FE14800D90FE15800890FE16800390D8
:100F0900FE17E0450EF0227BFF7A0B79C58058E584
:100F19000D24F0602124F0602224F0602324F06085
:100F29002424F0602524F0602624F06027247070C2
:100F39003090FE10802190FE11801C90FE128017C7
:100F490090FE13801290FE14800D90FE158008907B
:100F5900FE16800390FE17E0FFE50EF4FEEF5EF04B
:100F6900227BFF7A0B79E9900197E0FF90000AE470
:070F7900F0A3EFF012124794
:010F8000224E
:0A038B00900006EDF0900005EFF081
:100395006488700302069EE0FF54F0F50DEF540FDC
:1003A500FF900D3A93F50ED3EF9407748094804037
:1003B500237BFF7A0C790D900005E0FF90000AE49D
:1003C500F0A3EFF0900006E0FF90000CE4F0A3EF3F
:1003D500F0121247E50D24F0602124F0602224F08C
:1003E500602324F0602424F0602524F0602624F0A6
:1003F500602724707028E4F50D8046750D01804155
:10040500750D02803C750D038037750D04803275BE
:100415000D05802D750D068028750D0780237BFF42
:100425007A0C790D900005E0FF90000AE4F0A3EF47
:10043500F0900006E0FF90000CE4F0A3EFF012123C
:1004450047900006E0FFD3940374809480401C7BA2
:10045500FF7A0C7930900005E0FD90000AE4F0A3E6
:10046500EDF0A3E4F0A3EFF0121247E50D70409014
:100475000006E0FF7E007007E50EF452935294EFFC
:1004850064014E7009E50E4293E50EF45294900016
:1004950006E064027008E50E4293E50E4294900072
:1004A50006E064037009E50EF45293E50E4294E507
:1004B5000D64017040900006E0FF7E007007E50EB8
:1004C500F452915292EF64014E7009E50E4291E5A6
:1004D5000EF45292900006E064027008E50E429117
:1004E500E50E4292900006E064037009E50EF452B1
:1004F50091E50E4292E50D64027040900006E0FF22
:100505007E007007E50EF452955296EF64014E7029
:1005150009E50E4295E50EF45296900006E0640258
:100525007008E50E4295E50E4296900006E06403DC
:100535007009E50EF45295E50E4296E50D640370DB
:1005450040900006E0FF7E007007E50EF452B152C0
:10055500B2EF64014E7009E50E42B1E50EF452B2F8
:10056500900006E064027008E50E42B1E50E42B265
:10057500900006E064037009E50EF452B1E50E4201
:10058500B2E50D64047040900006E0FF7E00700740
:10059500E50EF452B352B4EF64014E7009E50E4214
:1005A500B3E50EF452B4900006E064027008E50E5F
:1005B50042B3E50E42B4900006E064037009E50E0F
:1005C500F452B3E50E42B4E50D64057040900006A3
:1005D500E0FF7E007007E50EF452C952CAEF6401D0
:1005E5004E7009E50E42C9E50EF452CA900006E0C8
:1005F50064027008E50E42C9E50E42CA900006E0A5
:1006050064037009E50EF452C9E50E42CAE50D64AE
:10061500067040900006E0FF7E007007E50EF4527C
:10062500CB52CCEF64014E7009E50E42CBE50EF4DA
:1006350052CC900006E064027008E50E42CBE50E50
:1006450042CC900006E064037009E50EF452CBE558
:100655000E42CCE50D64077040900006E0FF7E0079
:100665007007E50EF452E152E2EF64014E7009E5C0
:100675000E42E1E50EF452E2900006E064027008D5
:10068500E50E42E1E50E42E2900006E064037009E2
:09069500E50EF452E1E50E42E22B
:01069E002239
:10179B00EFB40900503A9017A8F82828730217C322
:1017AB000217C60217C90217CC0217CF0217D202B3
:1017BB0017D50217D80217F48D80228D90228DA099
:1017CB00228DB0228DC0228DC8228DE8228DF82269
:1017DB007BFF7A0C795590000AE4F0A3EFF0AF058C
:0A17EB00A3E4F0A3EFF0121247226E
:1017F500EFB40900503D901802F828287302181D0F
:1018050002182002182302182602182902182C0291
:10181500182F021832021835AF8022AF9022AFA0E0
:1018250022AFB022AFC022AFC822AFE822AFF82264
:101835007FFF227BFF7A0C797790000AE4F0A3EF13
:07184500F01212477FFF22A1
:0A0F810090019AEDF0900199EFF055
:100F8B006488700302108FE0FF54F0F50DEF540FDF
:100F9B00FF900D3A93F50ED3EF9407748094804035
:100FAB00237BFF7A0C7996900199E0FF90000AE47D
:100FBB00F0A3EFF090019AE0FF90000CE4F0A3EFA8
:100FCB00F012124790019AE06052E50D24F0602177
:100FDB0024F0602224F0602324F0602424F06025A8
:100FEB0024F0602624F0602724707028E50E4280E0
:100FFB0022E50E429022E50E42A022E50E42B022DF
:10100B00E50E42C022E50E42C822E50E42E822E57B
:10101B000E42F8227BFF7A0C79B88058E50D24F04C
:10102B00602224F0602424F0602624F0602824F051
:10103B00602A24F0602C24F0602E24707030E50EB2
:10104B00F4528022E50EF4529022E50EF452A022C7
:10105B00E50EF452B022E50EF452C022E50EF45226
:10106B00C822E50EF452E822E50EF452F8227BFF7B
:10107B007A0C79D9900199E0FF90000AE4F0A3EF84
:04108B00F012124706
:01108F00223E
:0513C40090019BEFF019
:1013C90064887002FF2290019BE0FF54F0F50DEF55
:1013D900540FFF900D3A93F50ED3EF940774809450
:1013E9008040167BFF7A0C79FA90019BE0FF900010
:1013F9000AE4F0A3EFF0121247E50D24F06021246E
:10140900F0602224F0602324F0602424F060252475
:10141900F0602624F060272470702885800F8039B9
:1014290085900F803485A00F802F85B00F802A8585
:10143900C00F802585C80F802085E80F801B85F89F
:101449000F80167BFF7A0C79FA90019BE0FF9000E0
:101459000AE4F0A3EFF0121247E50F550E60037F7F
:0414690001227F00DD
:01146D00225C
:0515120090019CEFF0C8
:10151700648870030215AEE0FF54F0F50DEF540F29
:10152700FF900D3A93F50ED3EF94077480948040A3
:10153700167BFF7A0D791890019CE0FF90000AE472
:10154700F0A3EFF0121247E50D24F0602124F060BC
:101557002224F0602324F0602424F0602524F06026
:101567002624F0602724707028E50E628022E50E9D
:10157700629022E50E62A022E50E62B022E50E62BD
:10158700C022E50E62C822E50E62E822E50E62F887
:10159700227BFF7A0D791890019CE0FF90000AE406
:0715A700F0A3EFF012124760
:0115AE00221A
:10198000EFB40800503E90198DF82828730219A56D
:101990000219A90219AD0219B10219B50219B90249
:1019A00019BD0219C1ED628022ED629022ED62A0A4
:1019B00022ED62B022ED62C022ED62C822ED62E843
:0519C00022ED62F82297
:1015AF00A907EB6048E9B4080040030216489015FC
:1015BF00C4F82828730215DC0215E00215E40215A1
:1015CF00E80215EC0215F00215F40215F8ED428051
:1015DF0022ED429022ED42A022ED42B022ED42C018
:1015EF0022ED42C822ED42E822ED42F822E9B4088A
:1015FF00005046901609F828287302162102162665
:10160F0002162B02163002163502163A02163F0248
:10161F001644EDF4528022EDF4529022EDF452A0D4
:10162F0022EDF452B022EDF452C022EDF452C82252
:0A163F00EDF452E822EDF452F82217
:10184C00EFB409005045901859F828287302187401
:10185C0002187802187C0218800218840218880278
:10186C00188C021890021894AE80801FAE90801BCA
:10187C00AEA08017AEB08013AEC0800FAEC8800B88
:10188C00AEE88007AEF880037F0122EE5D60037F37
:04189C0001227F00A6
:0118A0002225
:081B4200303136371617434419
:101A3D0075985053873F538EDEE4FD7F011218A138
:101A4D0090000512087F0001C2007F011219C543E5
:101A5D008E4053890FC2ABC28FD28EC209D2AC2237
:1018A100900004EDF0EF147044900004E0FF54C088
:1018B100FEE5A2543F4EF5A2EFC41313540325E0F5
:1018C1002442F582E4341BF583E493FFE4FD120323
:1018D1008B900004E0C41313540325E02443F582E4
:0E18E100E4341BF583E493FF7D0312038B2296
:0519C500900004EFF0AA
:1019CA00E47B04FAF9F890017EE0FCA3E0FDA3E0D1
:1019DA00FEA3E0FF1207D0900005E0F8A3E0F9A308
:1019EA00E0FAA3E0FB1207D0C3E49FFFE49EFE9057
:0B19FA000004E01470058F8BEEF58DEB
:011A050022BE
:0E1B1400EF147009AF058F99D2092009FD2248
:101AE600EF147016EB6006D29BD29B8004C29BC299
:0B1AF6009BAF058F99D2092009FD224B
:101A0600900194EBF0A3EAF0A3E9F0AE07900194FD
:101A1600E0FBA3E0FAA3E0F912069F6019AF069077
:101A26000194A3E475F00112072FA9F0FA12069F9C
:071A3600FD121B1480D722F2
:0E16D500900115EFF0A3EBF0A3EAF0A3E9F00B
:1016E3009001617401F0A37401F0A37419F09001E7
:1016F30016E0F9A3E0FAA3E0900079C9F0A3EAF0B9
:10170300A3E9F0900161E0F9A3E0FAA3E090007C83
:10171300C9F0A3EAF0A3E9F07B017A017941121839
:10172300EF900161E4F0A3F0A3F0900115E0FF7BDB
:08173300017A017941021A0656
:0300230002193986
:10193900C0E0C0F0C083C082C0D075D000C000C074
:1019490001C002C003C004C005C006C00730980525
:10195900C298121A6D309904C299C209D007D006EB
:10196900D005D004D003D002D001D000D0D0D0828D
:07197900D083D0F0D0E03272
:10165500021B22E493A3F8E493A34003F68001F26E
:1016650008DFF48029E493A3F85407240CC8C33396
:10167500C4540F4420C8834004F456800146F6DF65
:10168500E4800B0102040810204080901B3AE47EA0
:10169500019360BCA3FF543F30E509541FFEE4935A
:1016A500A360010ECF54C025E060A840B8E493A321
:1016B500FAE493A3F8E493A3C8C582C8CAC583CA4C
:1016C500F0A3C8C582C8CAC583CADFE9DEE780BE04
:011B410000A3
:10069F00BB010689828A83E0225002E722BBFE0259
:0906AF00E32289828A83E493228C
:1006B800BB010CE58229F582E5833AF583E02250F7
:1006C80006E92582F8E622BBFE06E92582F8E22241
:0D06D800E58229F582E5833AF583E493225B
:1006E500F8BB010DE58229F582E5833AF583E8F04B
:1006F500225006E92582C8F622BBFE05E92582C8F7
:02070500F222DE
:10070700EF8DF0A4A8F0CF8CF0A428CE8DF0A42E06
:02071700FE22C0
:10071900C5F0F8A3E028F0C5F0F8E582158270026B
:060729001583E038F02208
:10072F00A3F8E0C5F025F0F0E5821582700215837D
:06073F00E0C838F0E822DA
:10074500E88FF0A4CC8BF0A42CFCE98EF0A42CFC53
:100755008AF0EDA42CFCEA8EF0A4CDA8F08BF0A4D1
:100765002DCC3825F0FDE98FF0A42CCD35F0FCEB30
:100775008EF0A4FEA9F0EB8FF0A4CFC5F02ECD39F5
:0F078500FEE43CFCEAA42DCE35F0FDE43CFC2262
:1007940075F008758200EF2FFFEE33FECD33CDCC1C
:1007A40033CCC58233C5829BED9AEC99E58298409F
:1007B4000CF582EE9BFEED9AFDEC99FC0FD5F0D67C
:1007C400E4CEFBE4CDFAE4CCF9A88222B800C1B9A6
:1007D4000059BA002DEC8BF084CFCECDFCE5F0CBE4
:1007E400F97818EF2FFFEE33FEED33FDEC33FCEB1D
:1007F40033FB10D703994004EB99FB0FD8E5E4F9D8
:10080400FA227818EF2FFFEE33FEED33FDEC33FCC4
:10081400C933C910D7059BE99A4007EC9BFCE99AB8
:10082400F90FD8E0E4C9FAE4CCFB2275F010EF2FFD
:10083400FFEE33FEED33FDCC33CCC833C810D707FD
:100844009BEC9AE899400AED9BFDEC9AFCE899F838
:0E0854000FD5F0DAE4CDFBE4CCFAE4C8F922CB
:10086200EB9FF5F0EA9E42F0E99D42F0E89C45F0EC
:010872002263
:0C087300ECF0A3EDF0A3EEF0A3EFF022F8
:10087F00A8828583F0D083D0821208961208961230
:10088F000896120896E473E493A3C583C5F0C58355
:10089F00C8C582C8F0A3C583C5F0C583C8C582C8C3
:0108AF002226
:1008B000EC8EF0A4CCC5F0CCCDF8EFA4CEC5F02DD5
:1008C000FDE43CFCE8A42EC8C5F03DFDE43CFCEF93
:0D08D000A4FFE5F028FEE43DFDE43CFC2221
:1018EF00900079E0FFA3E0FEA3E0CF900082F0A389
:1018FF00EEF0A3EFF090007CE0CBF0A3E0CAF0A3F2
:10190F00E0C9F07F22900085AD82AC8312069F8DD7
:10191F00828C83F0A309E970010ADFEC90007CE070
:0A192F00FBA3E0FAA3E0F902008B2D
:10002600E5082482F582E43400F583E00508229091
:10003600007F300703900082E475F0011208EF029A
:10004600069F2000E97F2ED2008018EF540F2490DF
:10005600D43440D4FF30040BEF24BFB41A0050034D
:100066002461FFE50960021509050CE50C7002051F
:100076000B30070E90007FE475F0011208EFEF02D7
:1000860008DD021A997403D2078003E4C207F50853
:1000960090007F120906E4F509F50BF50CE50960F9
:1000A600077F2012006980F5750AFFC201C200C2EF
:1000B60002C203C205C206C208120035FF700D3027
:1000C60007057F0012007AAF0CAE0B22B4255FC283
:1000D600D5C204120035FF24D0B40A00501A75F0B8
:1000E6000A780930D50508B6FF0106C6A426F6200B
:1000F600D5047002D20380D924CFB41A00EF50047D
:10010600C2E5D20402027BD20180C6D20080C0D2F0
:100116000280BCD2D580BAD20580B47F2012006995
:100126002002077401B5090040F1120026FF1200F3
:10013600690200A3D208D2068095120026FB12009F
:1001460026FA120026F94A4B7006794C7A037BFF91
:1001560020022EE509602A7E008E82758300120633
:10016600B860060EEE650A70F0C2D5EBC0E0EAC0D4
:10017600E0E9C0E0EE1202C2D0E0F9D0E0FAD0E049
:10018600FB12069FFF60AAEBC0E0EAC0E0E9C0E010
:10019600120069D0E02401F9D0E03400FAD0E0FB87
:1001A600E50A0460DCD50AD980877BFF7A0279BE2E
:1001B600D202809C791080027908C206C2088008A3
:1001C600D2D5790A8004790AC2D5E50A047002F507
:1001D6000AE4FAFDFEFF120026FC7B08200113123A
:1001E6000026FD7B1030000A120026FE120026FFB4
:1001F6007B20EC3382D592D55013C3E43000069FA2
:10020600FFE49EFEE42001039DFDE49CFCE4CBF8A4
:10021600C201EC700CCFCECDCCE824F8F870F38098
:1002260017C3EF33FFEE33FEED33FDEC33FCEB3358
:10023600FB994002FB0FD8E9EB300105F8D0E0C48A
:1002460048B201C0E00AEC4D4E4F78207B0070C2E8
:10025600EAB50A0040BCC0E01202C4D0F0D0E020EB
:100266000104C4C0E0C4B201C0F0120052D0F0D5FF
:10027600F0EB0200A312090F01405301BA58011115
:100286004C010D4201BE4F01C64401C64901264339
:0802960001CC5501B04601B096
:10029E004501B047036C5001152D01192E013C2B61
:1002AE00011D23013A2003552A00D54800000134D0
:1002BE003F3F3F00790AA2D5200314300509B9103B
:1002CE00020404B9080104A2D5200602500104203C
:1002DE0002689202B509005034C0E07F2030031945
:1002EE007F30A20272067205500F12031BC202C2A9
:1002FE0006C205C2087F30800F300503E9C0E01248
:10030E000069300503D0E0F9D0E0B509CC3005170F
:10031E007F30B9100C1200697F583004077F788047
:10032E0003B908031200693002057F2D0200697FB0
:10033E00202008F87F2B2006F322920280CF286E11
:10034E00756C6C2900D2011200263001F8C20178BA
:10035E000930D50108F60200D52D50434958120038
:10036E00262403B405004001E49003679312005A5B
:0D037E00743A12005AD2037509040201BA44
:1008DD00BB010689828A83F0225002F722BBFE01FA
:0208ED00F322F4
:1008EF00F8E0FBA3A3E0F925F0F0E5821582700292
:0708FF001583E0FA38F02236
:09090600EBF0A3EAF0A3E9F022F2
:10090F00D083D082F8E4937012740193700DA3A377
:10091F0093F8740193F5828883E47374029368608B
:06092F00EFA3A3A380DF8B
:101A9900EFB40A07740D121AA4740A309811A899A0
:101AA900B8130CC2983098FDA899C298B811F630AD
:071AB90099FDC299F5992285
:00000001FF
