:03000000021DC01E
:0C1DC000787FE4F6D8FD758121021E0733
:0524220025750D0A0004
:101E4C00120E6A1200269002017416F07B017A02BF
:101E5C007901900207E4F0A304F0E4FFFE1210C82D
:101E6C009002017452F07B017A027901900207E42E
:101E7C00F0A304F0E4FFFE1210C87FE87E0312000A
:101E8C0003E4900201F07B017A027901900207F0E1
:101E9C00A304F0E4FFFE121F237BFF7A2479229027
:101EAC000201E0FF900205E4F0A3EFF0121F89801D
:011EBC00C95C
:07241200440332000000004A
:10000300EF4E601A90032AE0FCA3E0FDED1D7001A2
:0E0013001C144C70F7EF1F70011E144E70E6A7
:0100210022BC
:0823D700900279E0FEA3E0FF93
:0A23DF00EF1FAC0670011E4C70F6F3
:0123E90022D1
:1023740090032AE0FCA3E0FD120DE5E47B83FAF967
:10238400F8120C7A90032E120DA890032EE0C313BA
:06239400FEA3E013FF228E
:1022F90090032DE06599600AE599F0E490032CF0CC
:10230900800690032CE004F090032CE0C394E97458
:0C23190080948040060075C76000002220
:0B1F8900900202EBF0A3EAF0A3E9F0E5
:101F940090026D7401F0A37402F0A37405F0900232
:101FA40002E0F9A3E0FAA3E090027BC9F0A3EAF00F
:101FB400A3E9F090026DE0F9A3E0FAA3E090027EB9
:101FC400C9F0A3EAF0A3E9F07B017A02792D12218A
:101FD4003D90026DE4F0A3F0A3F07B017A02792D29
:051FE4007F01022292C2
:101A8300EF14601614602C14604D14606C14700312
:101A9300021B1724056003021B3A90FE02E0547EEA
:101AA3004480F0E030E0F390FE00E054FCF090FE60
:101AB30003807A90FE04E0547E4480F0E030E0F34B
:101AC30090FE00E054FC4403F090FE02E4F090FE2C
:101AD30008F090FE03F02290FE08E0547E4480F06C
:101AE300E030E0F390FE00E054FC4402F090FE048A
:101AF300E4F090FE02F0A3F02290FE03E0543E4493
:101B030080F0E030E0F390FE00E054FC4401F090FC
:101B1300FE02801990FE03E0543E44C0F0E030E042
:101B2300F390FE00E054FC4401F090FE02E4F090D8
:081B3300FE08F090FE04F02210
:0C240600EF90FE01700304F022EFF022C2
:100E6A0043BA80AF9FE4FCFDFEC004A905AA06AB05
:100E7A000778FBE6FFD000C3EF9BFFEE9AFEED99E1
:100E8A00FDEC98FCE47BF07AD2F9F8120C7AC3E410
:100E9A009FFF74369EFE746E9DFD74019CFC900249
:100EAA0002120DA8900202E0FCA3E0FDA3E0FEA35B
:100EBA00E0FFC00790FE01E0FBE4FAF9F8D0071260
:100ECA000D05900202120DA87FC07EF67D577C00A8
:100EDA00900202E0F8A3E0F9A3E0FAA3E0FBC31250
:100EEA000D97500D900332120DB400546000021099
:100EFA00997FC07E267D827C00900202E0F8A3E002
:100F0A00F9A3E0FAA3E0FBC3120D97500D90033248
:100F1A00120DB4005B8D800210997F807EED7DAF4B
:100F2A007C00900202E0F8A3E0F9A3E0FAA3E0FB58
:100F3A00C3120D97500D900332120DB400A8C000D1
:100F4A000210997F807E2D7DE87C00900202E0F8F5
:100F5A00A3E0F9A3E0FAA3E0FBC3120D97500D90AA
:100F6A000332120DB400B71B000210997F807E363F
:100F7A007D257C01900202E0F8A3E0F9A3E0FAA340
:100F8A00E0FBC3120D97500D900332120DB40119F4
:100F9A0040000210997F807E567D417C01900202BA
:100FAA00E0F8A3E0F9A3E0FAA3E0FBC3120D97501F
:100FBA000D900332120DB401312D000210997F00F9
:100FCA007EDB7D5F7C01900202E0F8A3E0F9A3E0FA
:100FDA00FAA3E0FBC3120D97500D900332120DB421
:100FEA00015180000210997F607E197D857C0190F5
:100FFA000202E0F8A3E0F9A3E0FAA3E0FBC3120DB2
:10100A0097500D900332120DB4016E3600021099FA
:10101A007F207EE07DB27C01900202E0F8A3E0F935
:10102A00A3E0FAA3E0FBC3120D97500C900332120F
:10103A000DB4019BFCC080577FE07EA67DE07C0159
:10104A00900202E0F8A3E0F9A3E0FAA3E0FBC312DE
:10105A000D97500C900332120DB401C9C380802F32
:10106A007F607E2B7DFF7C01900202E0F8A3E0F90D
:10107A00A3E0FAA3E0FBC3120D97900332500912C2
:10108A000DB401FA40008007120DB402160EC0E436
:10109A007B107A27F9F8900332E0FCA3E0FDA3E085
:1010AA00FEA3E0FF120D0590032AEEF0A3EFF0E491
:0D10BA0090032DF090032CF01222C9D2AF4C
:0110C7002206
:0B19BE00900209EBF0A3EAF0A3E9F0AF
:1019C9007F647E00122374900279EEF0A3EFF09009
:1019D90002767401F0A37402F0A3740CF09002096A
:1019E900E0F9A3E0FAA3E090027BC9F0A3EAF0A32F
:1019F900E9F0900276E0F9A3E0FAA3E090027EC94B
:101A0900F0A3EAF0A3E9F07B017A02793612213DCD
:101A1900900234EEF0A3EFF0900276E4F0A3F0A385
:101A2900F07FF47E01120003E4FBFAD3900235E063
:101A39009B900234E09A40E9D2B1C2B11223D77423
:101A4900362BF58274023AF583E0F9E4FDEDC3948F
:101A590008748094805014E930E004D2B18002C245
:101A6900B1E9C313F91223D70D80E2D2B11223D7FA
:0A1A79001223D70BBB00010A80B155
:0B1BE500900336EBF0A3EAF0A3E9F058
:101BF000E4FFFE90033CF0A3F0A3F0A3F0900336C3
:101C0000E0FBA3E0FAA3E0F9120BD4607790033F66
:101C1000E004F0700690033EE004F0900339E0FB2E
:101C2000A3E0FAA3E0F98F828E83120BEDFD9003FF
:101C300036E0FBA3E0FAA3E0F9120BD4B505070FD9
:101C4000BF00010E8012E4FEFF90033EE0FDA3E022
:101C500090033CCDF0A3EDF0900337E475F0011252
:101C60000C4E900339E0FBA3E0FAA3E0F98F828EDB
:101C700083120BEDFD3395E04D708290033CE0FE46
:081C8000A3E0FF227EFF7FFFBD
:011C88002239
:10180700E4900345F0900347F0900346F0900346B9
:10181700E0C3940A7480948040030218E9E07E00D4
:101827002DF582EE3CF583120BEDFF3395E0FEC3F9
:10183700EF9430EE648094804052D3EF9437EE6497
:101847008094805047900347E004F0E064017019EA
:10185700900346E07E002DF582EE3CF583120BEDFA
:1018670024D0C454F0900345F0900347E06402701D
:101877001B900346E07E002DF582EE3CF583120BAC
:10188700ED24D0FF900345E04FFFF022900346E0A0
:101897007E002DF582EE3CF583120BEDFF3395E0CC
:1018A700FEC3EF9438EE648094804011D3EF9439EF
:1018B700EE648094805006900347E004F09003465E
:1018C700E07E002DF582EE3CF583120BEDFF642CD4
:1018D7006010EF3395E04F6009900346E004F00293
:0718E7001814900345E0FF17
:0118EE0022D7
:0818EF00900340ECF0A3EDF0C2
:1018F700E4A3F0A3F0A3F0900344E0FFC3941474AF
:1019070080948040030219B5900341E02FFF9003B4
:1019170040E034008F82F583120BEDFF3395E0FE34
:10192700C3EF9430EE648094804051D3EF9439EE46
:10193700648094805046900342E0FEA3E0FF7C0061
:101947007D0A120C3C900342EEF0A3EFF0A3E0FFF8
:10195700900341E02FFF900340E034008F82F5832E
:10196700120BEDFF3395E0FEEF24D0FFEE34FFFEC0
:10197700900343E02FF0900342E03EF0900344E0F1
:10198700FF900341E02FFF900340E034008F82F582
:1019970083120BEDFF642C6015EF642E6010EF339C
:1019A70095E04F6009900344E004F00218FE9003AD
:0619B70042E0FEA3E0FF88
:0119BD002207
:1014B900900318EBF0A3EAF0A3E9F0A3ECF0A3ED95
:0114C900F032
:1014CA00E4900324F0A3F0A3F0A3F0A3F0A3F09018
:1014DA000322F0A3F090031BE0FEA3E0FF90032297
:1014EA00E0FCA3E0FDC39FEC9E4003021589900334
:1014FA001DE0FBA3E0FAA3E0F9900324E0FEA3E0D9
:10150A00F5828E83120BEDFF900318E0FBA3E0FA3D
:10151A00A3E0F98D828C83120BEDB5073390032576
:10152A00E004F07006900324E004F0900320E0FE4B
:10153A00A3E0FF900324E0B50631A3E0B5072C90A1
:10154A000322E0FFA3E0900328CFF0A3EFF0802F5F
:10155A00E4900324F0A3F0900323E02401FE900317
:10156A0022E03400900326F0A3CEF0900323E00497
:10157A00F060030214DF900322E004F00214DF900B
:10158A000328E0FEA3E0FF900326E0FCA3E0FDD3DE
:10159A009FEC9E5044900322ECF0A3EDF0900328B8
:1015AA00E0FEA3E0FF900322E0FCA3E0FDC39FEC72
:1015BA009E5023900318E0FBA3E0FAA3E0F98D8282
:1015CA008C83E4120C1A900323E004F070CF90038A
:0B15DA0022E004F080C77F01227F00A8
:0115E50022E3
:101317006770696F5F757070756C6C283C44253019
:1013270032583E2C2564293BB2BBB4E6D4DAB8C3A5
:10133700494F0D0A006770696F5F757070756C6C47
:10134700283C44253032583E2C31293BB2BBB4E609
:10135700D4DAB8C3494F0D0A006770696F5F7570BB
:1013670070756C6C283C44253032583E2C30293B34
:10137700B2BBB4E6D4DAB8C3494F0D0A0067706947
:101387006F5F6D6F6465283C44253032583E2C25CD
:1013970064293BB2BBB4E6D4DAB8C3494F0D0A009F
:1013A7006770696F5F6D6F64652844253032582C0C
:1013B7003C25643E293BB2BBB4E6D4DAB8C3C4A328
:1013C700CABD0D0A006770696F5F77726974652817
:1013D7003C25643E2C2564293BB2BBB4E6D4DAB87D
:1013E700C350BFDA0D0A006770696F5F7265616489
:1013F700283C5025643E293BB2BBB4E6D4DAB8C3D7
:1014070050BFDA0D0A006770696F5F6F7574283C0B
:1014170044253032583E2C2564293BB2BBB4E6D470
:10142700DAB8C3494F0D0A006770696F5F6F75744B
:10143700283C44253032583E2C31293BB2BBB4E618
:10144700D4DAB8C3494F0D0A006770696F5F6F75CB
:1014570074283C44253032583E2C30293BB2BBB46B
:10146700E6D4DAB8C3494F0D0A006770696F5F6940
:101477006E283C44253032583E293BB2BBB4E6D4F3
:10148700DAB8C3494F0D0A006770696F5F746F67F9
:10149700676C65283C44253032583E293BB2BBB4C3
:1014A700E6D4DAB8C3494F0D0A0001020408102038
:0214B700408073
:0A15E600900349EDF0900348EFF088
:1015F000648870030216F7E0FF54F0F50DEF540F06
:10160000FF9014B193F50ED3EF940774809480404B
:10161000237BFF7A137917900348E0FF90020CE4D4
:10162000F0A3EFF0900349E0FF90020EE4F0A3EF87
:10163000F01219BE900349E06055E50D24F06021D9
:1016400024F0602224F0602324F0602424F060253C
:1016500024F0602624F060272470702B90FE108008
:101660002190FE11801C90FE12801790FE138012B4
:1016700090FE14800D90FE15800890FE1680039059
:10168000FE17E0450EF0227BFF7A13793C8058E587
:101690000D24F0602124F0602224F0602324F06007
:1016A0002424F0602524F0602624F0602724707044
:1016B0003090FE10802190FE11801C90FE12801749
:1016C00090FE13801290FE14800D90FE15800890FD
:1016D000FE16800390FE17E0FFE50EF4FEEF5EF0CD
:1016E000227BFF7A137960900348E0FF90020CE4BC
:0716F000F0A3EFF01219BE98
:0116F70022D0
:0A08C000900208EDF0900207EFF03F
:1008CA0064887003020BD3E0FF54F0F50DEF540F68
:1008DA00FF9014B193F50ED3EF940774809480407F
:1008EA00237BFF7A137984900207E0FF90020CE4DD
:1008FA00F0A3EFF0900208E0FF90020EE4F0A3EFFD
:10090A00F01219BEE50D24F0602124F0602224F0D3
:10091A00602324F0602424F0602524F0602624F06B
:10092A00602724707028E4F50D8046750D0180411A
:10093A00750D02803C750D038037750D0480327584
:10094A000D05802D750D068028750D0780237BFF08
:10095A007A137984900207E0FF90020CE4F0A3EF87
:10096A00F0900208E0FF90020EE4F0A3EFF01219F3
:10097A00BE900208E0FFD3940374809480401C7BED
:10098A00FF7A1379A7900207E0FD90020CE4F0A326
:10099A00EDF0A3E4F0A3EFF01219BEE50D7040905C
:1009AA000208E0FF7E007007E50EF452935294EFBE
:1009BA0064014E7009E50E4293E50EF452949002DA
:1009CA0008E064027008E50E4293E50E4294900234
:1009DA0008E064037009E50EF45293E50E4294E5CB
:1009EA000D64017040900208E0FF7E007007E50E7A
:1009FA00F452915292EF64014E7009E50E4291E56C
:100A0A000EF45292900208E064027008E50E4291D8
:100A1A00E50E4292900208E064037009E50EF45272
:100A2A0091E50E4292E50D64027040900208E0FFE3
:100A3A007E007007E50EF452955296EF64014E70EF
:100A4A0009E50E4295E50EF45296900208E064021A
:100A5A007008E50E4295E50E4296900208E064039E
:100A6A007009E50EF45295E50E4296E50D640370A1
:100A7A0040900208E0FF7E007007E50EF452B15282
:100A8A00B2EF64014E7009E50E42B1E50EF452B2BE
:100A9A00900208E064027008E50E42B1E50E42B227
:100AAA00900208E064037009E50EF452B1E50E42C3
:100ABA00B2E50D64047040900208E0FF7E00700702
:100ACA00E50EF452B352B4EF64014E7009E50E42DA
:100ADA00B3E50EF452B4900208E064027008E50E21
:100AEA0042B3E50E42B4900208E064037009E50ED1
:100AFA00F452B3E50E42B4E50D6405704090020865
:100B0A00E0FF7E007007E50EF452C952CAEF640195
:100B1A004E7009E50E42C9E50EF452CA900208E089
:100B2A0064027008E50E42C9E50E42CA900208E066
:100B3A0064037009E50EF452C9E50E42CAE50D6474
:100B4A00067040900208E0FF7E007007E50EF4523E
:100B5A00CB52CCEF64014E7009E50E42CBE50EF4A0
:100B6A0052CC900208E064027008E50E42CBE50E12
:100B7A0042CC900208E064037009E50EF452CBE51A
:100B8A000E42CCE50D64077040900208E0FF7E003B
:100B9A007007E50EF452E152E2EF64014E7009E586
:100BAA000E42E1E50EF452E2900208E06402700897
:100BBA00E50E42E1E50E42E2900208E064037009A4
:090BCA00E50EF452E1E50E42E2F1
:010BD30022FF
:101FE900EFB40900503A901FF6F82828730220111F
:101FF90002201402201702201A02201D02202002AA
:1020090020230220260220428D80228D90228DA03D
:10201900228DB0228DC0228DC8228DE8228DF82212
:102029007BFF7A1379CC90020CE4F0A3EFF0AF05B3
:0A203900A3E4F0A3EFF01219BE2299
:10204300EFB40900503D902050F828287302206B0C
:1020530002206E02207102207402207702207A028D
:10206300207D022080022083AF8022AF9022AFA088
:1020730022AFB022AFC022AFC822AFE822AFF8220E
:102083007FFF227BFF7A1379EE90020CE4F0A3EF3B
:07209300F01219BE7FFF22CD
:0A16F80090034BEDF090034AEFF071
:1017020064887003021806E0FF54F0F50DEF540FE1
:10171200FF9014B193F50ED3EF9407748094804038
:10172200237BFF7A14790D90034AE0FF90020CE4C8
:10173200F0A3EFF090034BE0FF90020EE4F0A3EF72
:10174200F01219BE90034BE06052E50D24F06021C7
:1017520024F0602224F0602324F0602424F0602529
:1017620024F0602624F0602724707028E50E428061
:1017720022E50E429022E50E42A022E50E42B02260
:10178200E50E42C022E50E42C822E50E42E822E5FD
:101792000E42F8227BFF7A14792F8058E50D24F04F
:1017A200602224F0602424F0602624F0602824F0D3
:1017B200602A24F0602C24F0602E24707030E50E34
:1017C200F4528022E50EF4529022E50EF452A02249
:1017D200E50EF452B022E50EF452C022E50EF452A8
:1017E200C822E50EF452E822E50EF452F8227BFFFD
:1017F2007A14795090034AE0FF90020CE4F0A3EFD0
:04180200F01219BE09
:0118060022BF
:051B3B0090034CEFF0E7
:101B400064887002FF2290034CE0FF54F0F50DEF23
:101B5000540FFF9014B193F50ED3EF940774809453
:101B60008040167BFF7A14797190034CE0FF90025D
:101B70000CE4F0A3EFF01219BEE50D24F06021246F
:101B8000F0602224F0602324F0602424F0602524F7
:101B9000F0602624F060272470702885800F80393B
:101BA00085900F803485A00F802F85B00F802A8507
:101BB000C00F802585C80F802085E80F801B85F821
:101BC0000F80167BFF7A14797190034CE0FF90022E
:101BD0000CE4F0A3EFF01219BEE50F550E60037F81
:041BE00001227F005F
:011BE40022DE
:051C890090034DEFF097
:101C8E0064887003021D25E0FF54F0F50DEF540F2C
:101C9E00FF9014B193F50ED3EF94077480948040A7
:101CAE00167BFF7A14798F90034DE0FF90020CE4BF
:101CBE00F0A3EFF01219BEE50D24F0602124F060C0
:101CCE002224F0602324F0602424F0602524F060A8
:101CDE002624F0602724707028E50E628022E50E1F
:101CEE00629022E50E62A022E50E62B022E50E623F
:101CFE00C022E50E62C822E50E62E822E50E62F809
:101D0E00227BFF7A14798F90034DE0FF90020CE452
:071D1E00F0A3EFF01219BE63
:011D2500229B
:1021CE00EFB40800503E9021DBF82828730221F36B
:1021DE000221F70221FB0221FF0222030222070243
:1021EE00220B02220FED628022ED629022ED62A0A0
:1021FE0022ED62B022ED62C022ED62C822ED62E8ED
:05220E0022ED62F82240
:101D2600A907EB6048E9B408004003021DBF901DF7
:101D36003BF8282873021D53021D57021D5B021D26
:101D46005F021D63021D67021D6B021D6FED42805F
:101D560022ED429022ED42A022ED42B022ED42C099
:101D660022ED42C822ED42E822ED42F822E9B4080B
:101D7600005046901D80F8282873021D98021D9D6C
:101D8600021DA2021DA7021DAC021DB1021DB60254
:101D96001DBBEDF4528022EDF4529022EDF452A0D8
:101DA60022EDF452B022EDF452C022EDF452C822D4
:0A1DB600EDF452E822EDF452F82299
:10209A00EFB4090050459020A7F82828730220C2FF
:1020AA000220C60220CA0220CE0220D20220D60274
:1020BA0020DA0220DE0220E2AE80801FAE90801B72
:1020CA00AEA08017AEB08013AEC0800FAEC8800B32
:1020DA00AEE88007AEF880037F0122EE5D60037FE1
:0420EA0001227F0050
:0120EE0022CF
:08241A00303136371617434438
:1022C90075985053873F538EDEE4FD7F011220EF4E
:1022D900900207120DB40001C2007F0112221343BC
:1022E9008E4053890FC2ABC28FD28EC209D2AC22A3
:1020EF00900206EDF0EF147044900206E0FF54C02A
:1020FF00FEE5A2543F4EF5A2EFC41313540325E09F
:10210F00241AF582E43424F583E493FFE4FD1208E6
:10211F00C0900206E0C41313540325E0241BF5827C
:0E212F00E43424F583E493FF7D031208C022FC
:05221300900206EFF04F
:10221800E47B04FAF9F8900332E0FCA3E0FDA3E0C4
:10222800FEA3E0FF120D05900207E0F8A3E0F9A372
:10223800E0FAA3E0FB120D05C3E49FFFE49EFE90C5
:0B2248000206E01470058F8BEEF58D90
:012253002268
:0E23EA00EF147009AF058F99D2092009FD226A
:1023BC00EF147016EB6006D29BD29B8004C29BC2BA
:0B23CC009BAF058F99D2092009FD226C
:10229200900270EBF0A3EAF0A3E9F0AE07900270AF
:1022A200E0FBA3E0FAA3E0F9120BD46019AF0690A9
:1022B2000270A3E475F001120C64A9F0FA120BD4B7
:0722C200FD1223EA80D72280
:0E1EBD009002A9EFF0A3EBF0A3EAF0A3E9F086
:101ECB009003157401F0A37402F0A374ADF09002AB
:101EDB00AAE0F9A3E0FAA3E090027BC9F0A3EAF031
:101EEB00A3E9F0900315E0F9A3E0FAA3E090027EDA
:101EFB00C9F0A3EAF0A3E9F07B017A0279D51221AC
:101F0B003D900315E4F0A3F0A3F09002A9E0FF7B52
:081F1B00017A0279D50222923D
:0300230002218730
:10218700C0E0C0F0C083C082C0D075D000C000C01E
:1021970001C002C003C004C005C006C007309805CF
:1021A700C2981222F9309904C299C209D007D00601
:1021B700D005D004D003D002D001D000D0D0D08237
:0721C700D083D0F0D0E0321C
:10002600E47B07FAF9F8900332E0FCA3E0FDA3E0D5
:10003600FEA3E0FF120D05900202120DA8E47B88D4
:100046007A13F9F8900332E0FCA3E0FDA3E0FEA3E7
:10005600E0FF120D05900206120DA87F0A7E8B7D29
:10006600027C00900202E0F8A3E0F9A3E0FAA3E024
:10007600FBC3120D97504D7F1D7E637D017C009062
:100086000202E0F8A3A3A3E0120D974037E47F6FC6
:10009600FEFDFC900206E0F8A3E0F9A3E0FAA3E077
:1000A600FBD3120D97401DE47FFAFEFDFC9002067D
:1000B600E0F8A3A3A3E0120D97500990000074077F
:1000C600F0020546E47B0EFAF9F8900332E0FCA351
:1000D600E0FDA3E0FEA3E0FF120D05900202120D63
:1000E600A8E47B107A27F9F8900332E0FCA3E0FD40
:1000F600A3E0FEA3E0FF120D05900206120DA87FF5
:100106000A7E8B7D027C00900202E0F8A3E0F9A350
:10011600E0FAA3E0FBC3120D97504D7F1D7E637D71
:10012600017C00900202E0F8A3A3A3E0120D974021
:1001360037E47F6FFEFDFC900206E0F8A3E0F9A32A
:10014600E0FAA3E0FBD3120D97401DE47FFAFEFD13
:10015600FC900206E0F8A3A3A3E0120D97500990C5
:1001660000007406F0020546E47B15FAF9F89003E0
:1001760032E0FCA3E0FDA3E0FEA3E0FF120D059034
:100186000202120DA8E47B987A3AF9F8900332E05D
:10019600FCA3E0FDA3E0FEA3E0FF120D059002061E
:1001A600120DA87F0A7E8B7D027C00900202E0F889
:1001B600A3E0F9A3E0FAA3E0FBC3120D97504D7F2D
:1001C6001D7E637D017C00900202E0F8A3A3A3E0FC
:1001D600120D974037E47F6FFEFDFC900206E0F8B3
:1001E600A3E0F9A3E0FAA3E0FBD3120D97401DE4C8
:1001F6007FFAFEFDFC900206E0F8A3A3A3E0120D31
:100206009750099000007405F0020546E47B2AFA2F
:10021600F9F8900332E0FCA3E0FDA3E0FEA3E0FFC3
:10022600120D05900202120DA8E47B307A75F9F8DA
:10023600900332E0FCA3E0FDA3E0FEA3E0FF120D75
:1002460005900206120DA87F0A7E8B7D027C009027
:100256000202E0F8A3E0F9A3E0FAA3E0FBC3120D63
:1002660097504D7F1D7E637D017C00900202E0F871
:10027600A3A3A3E0120D974037E47F6FFEFDFC9029
:100286000206E0F8A3E0F9A3E0FAA3E0FBD3120D1F
:1002960097401DE47FFAFEFDFC900206E0F8A3A35A
:1002A600A3E0120D9750099000007404F002054671
:1002B600E47B54FAF9F8900332E0FCA3E0FDA3E0F6
:1002C600FEA3E0FF120D05900202120DA8E47B606A
:1002D6007AEAF9F8900332E0FCA3E0FDA3E0FEA37E
:1002E600E0FF120D05900206120DA87F0A7E8B7D97
:1002F600027C00900202E0F8A3E0F9A3E0FAA3E092
:10030600FBC3120D97504D7F1D7E637D017C0090CF
:100316000202E0F8A3A3A3E0120D974037E47F6F33
:10032600FEFDFC900206E0F8A3E0F9A3E0FAA3E0E4
:10033600FBD3120D97401DE47FFAFEFDFC900206EA
:10034600E0F8A3A3A3E0120D9750099000007403F0
:10035600F0020546E47B8CFAF9F8900332E0FCA340
:10036600E0FDA3E0FEA3E0FF120D05900202120DD0
:10037600A87BA07A8679017800900332E0FCA3E09E
:10038600FDA3E0FEA3E0FF120D05900206120DA8E4
:100396007F0A7E8B7D027C00900202E0F8A3E0F9E2
:1003A600A3E0FAA3E0FBC3120D97504D7F1D7E63B9
:1003B6007D017C00900202E0F8A3A3A3E0120D9752
:1003C6004037E47F6FFEFDFC900206E0F8A3E0F9FB
:1003D600A3E0FAA3E0FBD3120D97401DE47FFAFEDB
:1003E600FDFC900206E0F8A3A3A3E0120D975009C6
:1003F6009000007402F0020546E47BA8FAF9F89032
:100406000332E0FCA3E0FDA3E0FEA3E0FF120D052E
:10041600900202120DA87BC07AD47901780090036D
:1004260032E0FCA3E0FDA3E0FEA3E0FF120D059081
:100436000206120DA87F0A7E8B7D027C00900202C6
:10044600E0F8A3E0F9A3E0FAA3E0FBC3120D97508E
:100456004D7F1D7E637D017C00900202E0F8A3A320
:10046600A3E0120D974037E47F6FFEFDFC90020675
:10047600E0F8A3E0F9A3E0FAA3E0FBD3120D97405E
:100486001DE47FFAFEFDFC900206E0F8A3A3A3E0BC
:10049600120D9750099000007401F0020546E47BA6
:1004A6002D7A01F9F8900332E0FCA3E0FDA3E0FE0B
:1004B600A3E0FF120D05900202120DA87BD87A4721
:1004C60079037800900332E0FCA3E0FDA3E0FEA3ED
:1004D600E0FF120D05900206120DA87F0A7E8B7DA5
:1004E600027C00900202E0F8A3E0F9A3E0FAA3E0A0
:1004F600FBC3120D9750497F1D7E637D017C0090E2
:100506000202E0F8A3A3A3E0120D974033E47F6F45
:10051600FEFDFC900206E0F8A3E0F9A3E0FAA3E0F2
:10052600FBD3120D974019E47FFAFEFDFC900206FC
:10053600E0F8A3A3A3E0120D975005E4900000F0A5
:10054600900202120DB400000000900206120DB4D3
:0405560000000000A1
:01055A00227E
:0E23F800E4F5C7F5C5F5C675C3FF75C4FF2231
:08239A0090020DE0FEA3E0FF3C
:1023A200900000E04480F5C775C5038FC4EEF5C305
:0A23B20075C65A75C6A5000223F88F
:10225400900215E0FCA3E0FD90020EE02DFF900239
:102264000DE03CFE74012DF58274003CF583E0FD25
:10227400900000E04480F5C775C5028FC4EEF5C335
:0E228400AF058FC275C65A75C6A5000223F8B5
:0C23250090020EE02FFF90020DE03EFE43
:10233100900000E04480F5C775C5018FC4EEF5C378
:0C23410075C65A75C6A500AFC20223F88D
:101F2300900202EEF0A3EFF0A3EBF0A3EAF0A3E933
:011F3300F0BD
:101F3400E4900209F0A3F0900207E0FEA3E0FFA3FF
:101F4400E0FCA3E0FDC39FEC9E5039900203E02D1A
:101F5400FF900202E03CFE122331900204E0FBA356
:101F6400E0FAA3E0F9900209E0FCA3E0F5828C8397
:101F7400EF120C1A90020AE004F070BB900209E020
:041F840004F080B332
:011F88002236
:0B10C800900204EBF0A3EAF0A3E9F0B3
:1010D300E4900211F0A3F0A3EEF0A3EFF090020767
:1010E300E0FFA3E0A3CFF0A3EFF0900213E0FCA393
:1010F300E0FDECC313FB7A007F0025E0FE90020DB8
:10110300F0A3EFF02400FFEE3402FEC3EF9DFFEEE9
:101113009CFE90020BF0A3EFF0D390020AE09F90A5
:101123000209E09E400302120AE4900215F0A3F0C4
:10113300900215E0FEA3E0FFC3EE940250251223B4
:1011430025900215E0FCA3E02401F58274003CF530
:1011530083EFF0900216E004F070D5900215E004DE
:10116300F080CD12239A90020DE0FEA3E0FFC3901E
:101173000214E09FFF900213E09E90020FF0A3EF92
:10118300F0E4900215F0A3F0900209E0FEA3E0FF63
:10119300900215E0FCA3E0FDC39FEC9E5047900234
:1011A30012E02DFF900211E03CFE900204E0FBA34D
:1011B300E0FAA3E0F98F828E83120BEDFF90021009
:1011C300E02DFD90020FE03CFC74012DF5827400CC
:1011D3003CF583EFF0900216E004F070AB9002153B
:1011E300E004F080A3E4900215F0A3F012225490DF
:1011F3000216E004F07006900215E004F0C39002BA
:1012030015E0940240E622E4900215F0A3F0900268
:1012130015E0FEA3E0FFC3EE9402502512232590B0
:101223000215E0FCA3E02401F58274003CF583EF92
:10123300F0900216E004F070D5900215E004F080FF
:10124300CD12239A90020DE0FEA3E0FFC390021497
:10125300E09FFF900213E09E90020FF0A3EFF0E4F3
:10126300900215F0A3F090020BE0FEA3E0FF9002C2
:1012730015E0FCA3E0FDC39FEC9E5047900212E0F3
:101283002DFF900211E03CFE900204E0FBA3E0FA84
:10129300A3E0F98F828E83120BEDFF900210E02DF5
:1012A300FD90020FE03CFC74012DF58274003CF5C7
:1012B30083EFF0900216E004F070AB900215E004A7
:1012C300F080A3E4900215F0A3F0122254900216CA
:1012D300E004F07006900215E004F0C3900215E0FC
:1012E300940240E690020BE0FEA3E0FF900214E0BC
:1012F3002FF0900213E03EF0C390020AE09FF090BB
:101303000209E09EF0900212E02FF0900211E03EFD
:04131300F00210EDE7
:101DCC00021E4CE493A3F8E493A34003F68001F2C3
:101DDC0008DFF48029E493A3F85407240CC8C33318
:101DEC00C4540F4420C8834004F456800146F6DFE7
:101DFC00E4800B0102040810204080902412E47E41
:101E0C00019360BCA3FF543F30E509541FFEE493DB
:101E1C00A360010ECF54C025E060A840B8E493A3A2
:101E2C00FAE493A3F8E493A3C8C582C8CAC583CACD
:101E3C00F0A3C8C582C8CAC583CADFE9DEE780BE85
:0124190000C2
:100BD400BB010689828A83E0225002E722BBFE021F
:090BE400E32289828A83E4932252
:100BED00BB010CE58229F582E5833AF583E02250BD
:100BFD0006E92582F8E622BBFE06E92582F8E22207
:0D0C0D00E58229F582E5833AF583E4932220
:100C1A00F8BB010DE58229F582E5833AF583E8F010
:100C2A00225006E92582C8F622BBFE05E92582C8BC
:020C3A00F222A4
:100C3C00EF8DF0A4A8F0CF8CF0A428CE8DF0A42ECC
:020C4C00FE2286
:100C4E00C5F0F8A3E028F0C5F0F8E5821582700231
:060C5E001583E038F022CE
:100C6400A3F8E0C5F025F0F0E58215827002158343
:060C7400E0C838F0E822A0
:100C7A00E88FF0A4CC8BF0A42CFCE98EF0A42CFC19
:100C8A008AF0EDA42CFCEA8EF0A4CDA8F08BF0A497
:100C9A002DCC3825F0FDE98FF0A42CCD35F0FCEBF6
:100CAA008EF0A4FEA9F0EB8FF0A4CFC5F02ECD39BB
:0F0CBA00FEE43CFCEAA42DCE35F0FDE43CFC2228
:100CC90075F008758200EF2FFFEE33FECD33CDCCE2
:100CD90033CCC58233C5829BED9AEC99E582984065
:100CE9000CF582EE9BFEED9AFDEC99FC0FD5F0D642
:100CF900E4CEFBE4CDFAE4CCF9A88222B800C1B96C
:100D09000059BA002DEC8BF084CFCECDFCE5F0CBA9
:100D1900F97818EF2FFFEE33FEED33FDEC33FCEBE2
:100D290033FB10D703994004EB99FB0FD8E5E4F99D
:100D3900FA227818EF2FFFEE33FEED33FDEC33FC8A
:100D4900C933C910D7059BE99A4007EC9BFCE99A7E
:100D5900F90FD8E0E4C9FAE4CCFB2275F010EF2FC3
:100D6900FFEE33FEED33FDCC33CCC833C810D707C3
:100D79009BEC9AE899400AED9BFDEC9AFCE899F8FE
:0E0D89000FD5F0DAE4CDFBE4CCFAE4C8F92291
:100D9700EB9FF5F0EA9E42F0E99D42F0E89C45F0B2
:010DA7002229
:0C0DA800ECF0A3EDF0A3EEF0A3EFF022BE
:100DB400A8828583F0D083D082120DCB120DCB1282
:100DC4000DCB120DCBE473E493A3C583C5F0C583A7
:100DD400C8C582C8F0A3C583C5F0C583C8C582C889
:010DE40022EC
:100DE500EC8EF0A4CCC5F0CCCDF8EFA4CEC5F02D9B
:100DF500FDE43CFCE8A42EC8C5F03DFDE43CFCEF59
:0D0E0500A4FFE5F028FEE43DFDE43CFC22E6
:10213D0090027BE0FFA3E0FEA3E0CF900284F0A32A
:10214D00EEF0A3EFF090027EE0CBF0A3E0CAF0A397
:10215D00E0C9F07F22900287AD82AC83120BD48D43
:10216D00828C83F0A309E970010ADFEC90027EE016
:0A217D00FBA3E0FAA3E0F90205C09D
:10055B00E5082484F582E43402F583E00508229053
:10056B000281300703900284E475F001120E24021D
:10057B000BD42000E97F2ED2008018EF540F24906B
:10058B00D43440D4FF30040BEF24BFB41A00500313
:10059B002461FFE50960021509050CE50C700205E5
:1005AB000B30070E900281E475F001120E24EF025E
:1005BB000E1202234D7403D2078003E4C207F50821
:1005CB00900281120E3BE4F509F50BF50CE5096081
:1005DB00077F2012059E80F5750AFFC201C200C27B
:1005EB0002C203C205C206C20812056AFF700D30B3
:1005FB0007057F001205AFAF0CAE0B22B4255FC20F
:10060B00D5C20412056AFF24D0B40A00501A75F043
:10061B000A780930D50508B6FF0106C6A426F620D0
:10062B00D5047002D20380D924CFB41A00EF500442
:10063B00C2E5D2040207B0D20180C6D20080C0D27C
:10064B000280BCD2D580BAD20580B47F2012059E21
:10065B002002077401B5090040F112055BFF12057A
:10066B009E0205D8D208D206809512055BFB1205B7
:10067B005BFA12055BF94A4B700679817A087BFFAE
:10068B0020022EE509602A7E008E82758300120BF4
:10069B00ED60060EEE650A70F0C2D5EBC0E0EAC065
:1006AB00E0E9C0E0EE1207F7D0E0F9D0E0FAD0E0D5
:1006BB00FB120BD4FF60AAEBC0E0EAC0E0E9C0E09C
:1006CB0012059ED0E02401F9D0E03400FAD0E0FB13
:1006DB00E50A0460DCD50AD980877BFF7A0779F3BA
:1006EB00D202809C791080027908C206C208800869
:1006FB00D2D5790A8004790AC2D5E50A047002F5CD
:10070B000AE4FAFDFEFF12055BFC7B0820011312C5
:10071B00055BFD7B1030000A12055BFE12055BFFCB
:10072B007B20EC3382D592D55013C3E43000069F67
:10073B00FFE49EFEE42001039DFDE49CFCE4CBF86A
:10074B00C201EC700CCFCECDCCE824F8F870F3805E
:10075B0017C3EF33FFEE33FEED33FDEC33FCEB331E
:10076B00FB994002FB0FD8E9EB300105F8D0E0C450
:10077B0048B201C0E00AEC4D4E4F78207B0070C2AE
:10078B00EAB50A0040BCC0E01207F9D0F0D0E02077
:10079B000104C4C0E0C4B201C0F0120587D0F0D58B
:1007AB00F0EB0205D8120E4406755306EF580646B9
:1007BB004C06424206F34F06FB4406FB49065B43DD
:0807CB0007015506E54606E5AD
:1007D3004506E54708A150064A2D064E2E06712B05
:1007E300065223066F20088A2A060A480000066973
:1007F3003F3F3F00790AA2D5200314300509B91001
:10080300020404B9080104A2D52006025001042001
:1008130002689202B509005034C0E07F203003190A
:100823007F30A20272067205500F120850C202C234
:1008330006C205C2087F30800F300503E9C0E0120D
:10084300059E300503D0E0F9D0E0B509CC3005179B
:100853007F30B9100C12059E7F583004077F7880D3
:1008630003B9080312059E3002057F2D02059E7F02
:10087300202008F87F2B2006F322920280CF286ED7
:10088300756C6C2900D20112055B3001F8C2017846
:100893000930D50108F602060A2D504349581205BE
:1008A3005B2403B405004001E490089C9312058F78
:0D08B300743A12058FD2037509040206EF96
:100E1200BB010689828A83F0225002F722BBFE01BF
:020E2200F322B9
:100E2400F8E0FBA3A3E0F925F0F0E5821582700257
:070E34001583E0FA38F022FB
:090E3B00EBF0A3EAF0A3E9F022B8
:100E4400D083D082F8E4937012740193700DA3A33D
:100E540093F8740193F5828883E473740293686051
:060E6400EFA3A3A380DF51
:10234D00EFB40A07740D122358740A309811A89926
:10235D00B8130CC2983098FDA899C298B811F630F0
:07236D0099FDC299F59922C8
:00000001FF
