:03000000022D01CD
:0C2D0100787FE4F6D8FD758121022D4892
:10365B0073636C3D7033362C7364613D7033372C60
:10366B007265733D7033352C64633D7033340048A1
:08367B00692C6F6C65642100ED
:1033D1001212D490000374FFF0A37436F0A3745B4F
:1033E100F07B017A0179ED120026E4900004F0A34C
:1033F10074FFF0A37436F0A3747AF07B017A01793B
:08340100EDE4FD121DCE80FE7A
:0737000044021D000000005F
:10000300EF4E601A900215E0FCA3E0FDED1D7001B8
:0E0013001C144C70F7EF1F70011E144E70E6A7
:0100210022BC
:083714009000E0E0FEA3E0FFDD
:0A371C00EF1FAC0670011E4C70F6A2
:013726002280
:1036AA00900215E0FCA3E0FD121261E47B83FAF9B3
:1036BA00F81210F6900219121224900219E0C3139C
:0636CA00FEA3E013FF2245
:10362F00900218E06599600AE599F0E4900217F0AE
:10363F008006900217E004F0900217E0C394E9743B
:0C364F0080948040060075C760000022D7
:0B2FEA0090017FEBF0A3EAF0A3E9F0F8
:102FF5009001EA7401F0A37401F0A37482F09001CA
:103005007FE0F9A3E0FAA3E09000E2C9F0A3EAF0BB
:10301500A3E9F09001EAE0F9A3E0FAA3E09000E566
:10302500C9F0A3EAF0A3E9F07B017A0179AA12318C
:10303500FA9001EAE4F0A3F0A3F07B017A0179AA02
:053045007F01023409C7
:10275D00EF14601614602C14604D14606C1470032B
:10276D000227F12405600302281490FE02E0547E36
:10277D004480F0E030E0F390FE00E054FCF090FE79
:10278D0003807A90FE04E0547E4480F0E030E0F364
:10279D0090FE00E054FC4403F090FE02E4F090FE45
:1027AD0008F090FE03F02290FE08E0547E4480F085
:1027BD00E030E0F390FE00E054FC4402F090FE04A3
:1027CD00E4F090FE02F0A3F02290FE03E0543E44AC
:1027DD0080F0E030E0F390FE00E054FC4401F09016
:1027ED00FE02801990FE03E0543E44C0F0E030E05C
:1027FD00F390FE00E054FC4401F090FE02E4F090F2
:08280D00FE08F090FE04F02229
:0C373500EF90FE01700304F022EFF02280
:1012D40043BA80AF9FE4FCFDFEC004A905AA06AB97
:1012E4000778FBE6FFD000C3EF9BFFEE9AFEED9973
:1012F400FDEC98FCE47BF07AD2F9F81210F6C3E422
:101304009FFF74369EFE746E9DFD74019CFC9000DC
:1013140000121224900000E0FCA3E0FDA3E0FEA371
:10132400E0FFC00790FE01E0FBE4FAF9F8D00712F1
:1013340011819000001212247FC07EF67D577C003C
:10134400900000E0F8A3E0F9A3E0FAA3E0FBC312E5
:101354001213500D90021D12123000546000021539
:10136400037FC07E267D827C00900000E0F8A3E02D
:10137400F9A3E0FAA3E0FBC3121213500D90021D6F
:10138400121230005B8D800215037F807EED7DAFED
:101394007C00900000E0F8A3E0F9A3E0FAA3E0FBEE
:1013A400C3121213500D90021D12123000A8C00077
:1013B4000215037F807E2D7DE87C00900000E0F81C
:1013C400A3E0F9A3E0FAA3E0FBC3121213500D90BB
:1013D400021D12123000B71B000215037F807E36F7
:1013E4007D257C01900000E0F8A3E0F9A3E0FAA3D6
:1013F400E0FBC3121213500D90021D12123001199A
:1014040040000215037F807E567D417C01900000E0
:10141400E0F8A3E0F9A3E0FAA3E0FBC3121213502F
:101424000D90021D12123001312D000215037F00B0
:101434007EDB7D5F7C01900000E0F8A3E0F9A3E08F
:10144400FAA3E0FBC3121213500D90021D121230C6
:10145400015180000215037F607E197D857C019017
:101464000000E0F8A3E0F9A3E0FAA3E0FBC3121242
:1014740013500D90021D121230016E360002150336
:101484007F207EE07DB27C01900000E0F8A3E0F9CB
:10149400A3E0FAA3E0FBC3121213500C90021D1236
:1014A4001230019BFCC080577FE07EA67DE07C016A
:1014B400900000E0F8A3E0F9A3E0FAA3E0FBC31274
:1014C4001213500C90021D12123001C9C380802FD8
:1014D4007F607E2B7DFF7C01900000E0F8A3E0F9A3
:1014E400A3E0FAA3E0FBC312121390021D500912E9
:1014F400123001FA4000800712123002160EC0E4C6
:101504007B107A27F9F890021DE0FCA3E0FDA3E02C
:10151400FEA3E0FF121181900215EEF0A3EFF0E4B8
:0D152400900218F0900217F01235FFD2AFC0
:011531002297
:0B269800900070EBF0A3EAF0A3E9F063
:1026A3007F647E001236AA9000E0EEF0A3EFF09074
:1026B30000DD7401F0A37400F0A37473F090007054
:1026C300E0F9A3E0FAA3E09000E2C9F0A3EAF0A3E3
:1026D300E9F09000DDE0F9A3E0FAA3E09000E5C99A
:1026E300F0A3EAF0A3E9F07B017A00799D1231FAB5
:1026F30090009BEEF0A3EFF09000DDE4F0A3F0A3D5
:10270300F07FF47E01120003E4FBFAD390009CE017
:102713009B90009BE09A40E9D2B1C2B11237147486
:102723009D2BF58274003AF583E0F9E4FDEDC39443
:1027330008748094805014E930E004D2B18002C25E
:10274300B1E9C313F91237140D80E2D2B112371471
:0A2753001237140BBB00010A80B11D
:0B28BF00900014EBF0A3EAF0A3E9F096
:1028CA00E4FFFE90001AF0A3F0A3F0A3F090001426
:1028DA00E0FBA3E0FAA3E0F9120FD9607790001D9C
:1028EA00E004F0700690001CE004F0900017E0FB92
:1028FA00A3E0FAA3E0F98F828E83120FF2FD900013
:10290A0014E0FBA3E0FAA3E0F9120FD9B505070F0B
:10291A00BF00010E8012E4FEFF90001CE0FDA3E060
:10292A0090001ACDF0A3EDF0900015E475F00112B5
:10293A001065900017E0FBA3E0FAA3E0F98F828EFE
:10294A0083120FF2FD3395E04D708290001AE0FE7B
:08295A00A3E0FF227EFF7FFFD6
:012962002252
:10232900E4900014F0900016F0900015F09000155C
:10233900E0C3940A74809480400302240BE07E0079
:102349002DF582EE3CF583120FF2FF3395E0FEC3C3
:10235900EF9430EE648094804052D3EF9437EE646A
:102369008094805047900016E004F0E064017019F1
:10237900900015E07E002DF582EE3CF583120FF2F8
:1023890024D0C454F0900014F0900016E064027058
:102399001B900015E07E002DF582EE3CF583120FAF
:1023A900F224D0FF900014E04FFFF022900015E0D6
:1023B9007E002DF582EE3CF583120FF2FF3395E096
:1023C900FEC3EF9438EE648094804011D3EF9439C2
:1023D900EE648094805006900016E004F090001599
:1023E900E07E002DF582EE3CF583120FF2FF642C9E
:1023F9006010EF3395E04F6009900015E004F0029A
:072409002336900014E0FFF0
:0124100022A9
:0825C900900014ECF0A3EDF00A
:1025D100E4A3F0A3F0A3F0900018E0FFC3941474F7
:1025E100809480400302268F900015E02FFF900019
:1025F10014E034008F82F583120FF2FF3395E0FE71
:10260100C3EF9430EE648094804051D3EF9439EE5F
:10261100648094805046900016E0FEA3E0FF7C00A9
:102621007D0A121053900016EEF0A3EFF0A3E0FF25
:10263100900015E02FFF900014E034008F82F583A5
:10264100120FF2FF3395E0FEEF24D0FFEE34FFFED0
:10265100900017E02FF0900016E03EF0900018E097
:10266100FF900015E02FFF900014E034008F82F5F9
:1026710083120FF2FF642C6015EF642E6010EF33AC
:1026810095E04F6009900018E004F00225D8900011
:0626910016E0FEA3E0FFCD
:012697002220
:101CA100900203EBF0A3EAF0A3E9F0A3ECF0A3EDBB
:011CB100F042
:101CB200E490020FF0A3F0A3F0A3F0A3F0A3F0903E
:101CC200020DF0A3F0900206E0FEA3E0FF90020DE9
:101CD200E0FCA3E0FDC39FEC9E4003021D71900255
:101CE20008E0FBA3E0FAA3E0F990020FE0FEA3E014
:101CF200F5828E83120FF2FF900203E0FBA3E0FA5B
:101D0200A3E0F98D828C83120FF2B5073390021093
:101D1200E004F0700690020FE004F090020BE0FE87
:101D2200A3E0FF90020FE0B50631A3E0B5072C90C7
:101D3200020DE0FFA3E0900213CFF0A3EFF0802F9B
:101D4200E490020FF0A3F090020EE02401FE900254
:101D52000DE03400900211F0A3CEF090020EE004E8
:101D6200F06003021CC790020DE004F0021CC79051
:101D72000213E0FEA3E0FF900211E0FCA3E0FDD31A
:101D82009FEC9E504490020DECF0A3EDF0900213F4
:101D9200E0FEA3E0FF90020DE0FCA3E0FDC39FEC98
:101DA2009E5023900203E0FBA3E0FAA3E0F98D82A8
:101DB2008C83E412103190020EE004F070CF900296
:0B1DC2000DE004F080C77F01227F00CD
:011DCD0022F3
:101960006770696F5F757070756C6C283C442530CA
:1019700032583E2C2564293BB2BBB4E6D4DAB8C356
:10198000494F0D0A006770696F5F757070756C6CF8
:10199000283C44253032583E2C31293BB2BBB4E6BA
:1019A000D4DAB8C3494F0D0A006770696F5F75706C
:1019B00070756C6C283C44253032583E2C30293BE5
:1019C000B2BBB4E6D4DAB8C3494F0D0A00677069F8
:1019D0006F5F6D6F6465283C44253032583E2C257E
:1019E00064293BB2BBB4E6D4DAB8C3494F0D0A0050
:1019F0006770696F5F6D6F64652844253032582CBD
:101A00003C25643E293BB2BBB4E6D4DAB8C3C4A3D8
:101A1000CABD0D0A006770696F5F777269746528C7
:101A20003C25643E2C2564293BB2BBB4E6D4DAB82D
:101A3000C350BFDA0D0A006770696F5F7265616439
:101A4000283C5025643E293BB2BBB4E6D4DAB8C387
:101A500050BFDA0D0A006770696F5F6F7574283CBC
:101A600044253032583E2C2564293BB2BBB4E6D421
:101A7000DAB8C3494F0D0A006770696F5F6F7574FC
:101A8000283C44253032583E2C31293BB2BBB4E6C9
:101A9000D4DAB8C3494F0D0A006770696F5F6F757C
:101AA00074283C44253032583E2C30293BB2BBB41C
:101AB000E6D4DAB8C3494F0D0A006770696F5F69F1
:101AC0006E283C44253032583E293BB2BBB4E6D4A4
:101AD000DAB8C3494F0D0A006770696F5F746F67AA
:101AE000676C65283C44253032583E293BB2BBB474
:101AF000E6D4DAB8C3494F0D0A00010204081020E9
:021B0000408023
:0A200F0090025AEDF0900259EFF034
:1020190064887003022120E0FF54F0F50DEF540F9E
:10202900FF901AFA93F50ED3EF94077480948040C9
:10203900237BFF7A197960900259E0FF900073E4DD
:10204900F0A3EFF090025AE0FF900075E4F0A3EFDF
:10205900F012269890025AE06055E50D24F06021AF
:1020690024F0602224F0602324F0602424F0602509
:1020790024F0602624F060272470702B90FE1080D5
:102089002190FE11801C90FE12801790FE13801281
:1020990090FE14800D90FE15800890FE1680039026
:1020A900FE17E0450EF0227BFF7A1979858058E505
:1020B9000D24F0602124F0602224F0602324F060D4
:1020C9002424F0602524F0602624F0602724707011
:1020D9003090FE10802190FE11801C90FE12801716
:1020E90090FE13801290FE14800D90FE15800890CA
:1020F900FE16800390FE17E0FFE50EF4FEEF5EF09A
:10210900227BFF7A1979A9900259E0FF900073E4C4
:07211900F0A3EFF01226987D
:01212000229C
:0A0CC500900022EDF0900021EFF006
:100CCF0064887003020FD8E0FF54F0F50DEF540F56
:100CDF00FF901AFA93F50ED3EF9407748094804027
:100CEF00237BFF7A1979CD900021E0FF900073E408
:100CFF00F0A3EFF0900022E0FF900075E4F0A3EF77
:100D0F00F0122698E50D24F0602124F0602224F0E3
:100D1F00602324F0602424F0602524F0602624F062
:100D2F00602724707028E4F50D8046750D01804111
:100D3F00750D02803C750D038037750D048032757B
:100D4F000D05802D750D068028750D0780237BFFFF
:100D5F007A1979CD900021E0FF900073E4F0A3EFB2
:100D6F00F0900022E0FF900075E4F0A3EFF0122660
:100D7F0098900022E0FFD3940374809480401C7BF2
:100D8F00FF7A1979F0900021E0FD900073E4F0A351
:100D9F00EDF0A3E4F0A3EFF0122698E50D7040906C
:100DAF000022E0FF7E007007E50EF452935294EF9D
:100DBF0064014E7009E50E4293E50EF452949000D3
:100DCF0022E064027008E50E4293E50E4294900013
:100DDF0022E064037009E50EF45293E50E4294E5A8
:100DEF000D64017040900022E0FF7E007007E50E59
:100DFF00F452915292EF64014E7009E50E4291E563
:100E0F000EF45292900022E064027008E50E4291B7
:100E1F00E50E4292900022E064037009E50EF45251
:100E2F0091E50E4292E50D64027040900022E0FFC2
:100E3F007E007007E50EF452955296EF64014E70E6
:100E4F0009E50E4295E50EF45296900022E06402F9
:100E5F007008E50E4295E50E4296900022E064037D
:100E6F007009E50EF45295E50E4296E50D64037098
:100E7F0040900022E0FF7E007007E50EF452B15261
:100E8F00B2EF64014E7009E50E42B1E50EF452B2B5
:100E9F00900022E064027008E50E42B1E50E42B206
:100EAF00900022E064037009E50EF452B1E50E42A2
:100EBF00B2E50D64047040900022E0FF7E007007E1
:100ECF00E50EF452B352B4EF64014E7009E50E42D1
:100EDF00B3E50EF452B4900022E064027008E50E00
:100EEF0042B3E50E42B4900022E064037009E50EB0
:100EFF00F452B3E50E42B4E50D6405704090002244
:100F0F00E0FF7E007007E50EF452C952CAEF64018C
:100F1F004E7009E50E42C9E50EF452CA900022E068
:100F2F0064027008E50E42C9E50E42CA900022E045
:100F3F0064037009E50EF452C9E50E42CAE50D646B
:100F4F00067040900022E0FF7E007007E50EF4521D
:100F5F00CB52CCEF64014E7009E50E42CBE50EF497
:100F6F0052CC900022E064027008E50E42CBE50EF1
:100F7F0042CC900022E064037009E50EF452CBE5F9
:100F8F000E42CCE50D64077040900022E0FF7E001A
:100F9F007007E50EF452E152E2EF64014E7009E57D
:100FAF000E42E1E50EF452E2900022E06402700876
:100FBF00E50E42E1E50E42E2900022E06403700983
:090FCF00E50EF452E1E50E42E2E8
:010FD80022F6
:1030A600EFB40900503A9030B3F82828730230CEB6
:1030B6000230D10230D40230D70230DA0230DD02DB
:1030C60030E00230E30230FF8D80228D90228DA009
:1030D600228DB0228DC0228DC8228DE8228DF82245
:1030E6007BFF7A1A7915900073E4F0A3EFF0AF0531
:0A30F600A3E4F0A3EFF012269822E5
:10310000EFB40900503D90310DF8282873023128A2
:1031100002312B02312E02313102313402313702B9
:10312000313A02313D023140AF8022AF9022AFA050
:1031300022AFB022AFC022AFC822AFE822AFF82240
:103140007FFF227BFF7A1A7937900073E4F0A3EFB8
:07315000F01226987FFF2218
:0A21210090006FEDF090006EEFF0FB
:10212B006488700302222FE0FF54F0F50DEF540F7B
:10213B00FF901AFA93F50ED3EF94077480948040B6
:10214B00237BFF7A1A795690006EE0FF900073E4C0
:10215B00F0A3EFF090006FE0FF900075E4F0A3EFB9
:10216B00F012269890006FE06052E50D24F060218C
:10217B0024F0602224F0602324F0602424F06025F6
:10218B0024F0602624F0602724707028E50E42802E
:10219B0022E50E429022E50E42A022E50E42B0222D
:1021AB00E50E42C022E50E42C822E50E42E822E5CA
:1021BB000E42F8227BFF7A1A79788058E50D24F0CD
:1021CB00602224F0602424F0602624F0602824F0A0
:1021DB00602A24F0602C24F0602E24707030E50E01
:1021EB00F4528022E50EF4529022E50EF452A02216
:1021FB00E50EF452B022E50EF452C022E50EF45275
:10220B00C822E50EF452E822E50EF452F8227BFFC9
:10221B007A1A799990006EE0FF900073E4F0A3EFC7
:04222B00F0122698EF
:01222F00228C
:0528150090025BEFF0F2
:10281A0064887002FF2290025BE0FF54F0F50DEF2E
:10282A00540FFF901AFA93F50ED3EF94077480941D
:10283A008040167BFF7A1A79BA90025BE0FF90001B
:10284A0073E4F0A3EFF0122698E50D24F06021243A
:10285A00F0602224F0602324F0602424F060252410
:10286A00F0602624F060272470702885800F803954
:10287A0085900F803485A00F802F85B00F802A8520
:10288A00C00F802585C80F802085E80F801B85F83A
:10289A000F80167BFF7A1A79BA90025BE0FF9000EC
:1028AA0073E4F0A3EFF0122698E50F550E60037F4C
:0428BA0001227F0078
:0128BE0022F7
:052AA40090025CEFF060
:102AA90064887003022B40E0FF54F0F50DEF540FDA
:102AB900FF901AFA93F50ED3EF940774809480402F
:102AC900167BFF7A1A79D890025CE0FF900073E4D4
:102AD900F0A3EFF0122698E50D24F0602124F060B0
:102AE9002224F0602324F0602424F0602524F0607F
:102AF9002624F0602724707028E50E628022E50EF6
:102B0900629022E50E62A022E50E62B022E50E6215
:102B1900C022E50E62C822E50E62E822E50E62F8DF
:102B2900227BFF7A1A79D890025CE0FF900073E467
:072B3900F0A3EFF012269853
:012B40002272
:10328B00EFB40800503E903298F82828730232B001
:10329B000232B40232B80232BC0232C00232C40271
:1032AB0032C80232CCED628022ED629022ED62A038
:1032BB0022ED62B022ED62C022ED62C822ED62E81F
:0532CB0022ED62F82273
:102B4100A907EB6048E9B408004003022BDA902B97
:102B510056F8282873022B6E022B72022B76022B59
:102B61007A022B7E022B82022B86022B8AED428077
:102B710022ED429022ED42A022ED42B022ED42C070
:102B810022ED42C822ED42E822ED42F822E9B408E2
:102B9100005046902B9BF8282873022BB3022BB8C8
:102BA100022BBD022BC2022BC7022BCC022BD1025E
:102BB1002BD6EDF4528022EDF4529022EDF452A086
:102BC10022EDF452B022EDF452C022EDF452C822AB
:0A2BD100EDF452E822EDF452F82270
:10315700EFB409005045903164F828287302317F95
:1031670002318302318702318B02318F02319302A0
:10317700319702319B02319FAE80801FAE90801B3A
:10318700AEA08017AEB08013AEC0800FAEC8800B64
:10319700AEE88007AEF880037F0122EE5D60037F13
:0431A70001227F0082
:0131AB002201
:083763003031363716174344DC
:1035FF0075985053873F538EDEE4FD7F011231AC37
:10360F009000051212300001C2007F0112331243E5
:10361F008E4053890FC2ABC28FD28EC209D2AC2259
:1031AC00900004EDF0EF147044900004E0FF54C064
:1031BC00FEE5A2543F4EF5A2EFC41313540325E0D1
:1031CC002463F582E43437F583E493FFE4FD120CB9
:1031DC00C5900004E0C41313540325E02464F58265
:0E31EC00E43437F583E493FF7D03120CC52213
:05331200900004EFF043
:10331700E47B04FAF9F890021DE0FCA3E0FDA3E0CA
:10332700FEA3E0FF121181900005E0F8A3E0F9A3E6
:10333700E0FAA3E0FB121181C3E49FFFE49EFE9035
:0B3347000004E01470058F8BEEF58D84
:013352002258
:0E372700EF147009AF058F99D2092009FD2219
:1036D000EF147016EB6006D29BD29B8004C29BC293
:0B36E0009BAF058F99D2092009FD2245
:10340900900256EBF0A3EAF0A3E9F0AE079002565A
:10341900E0FBA3E0FAA3E0F9120FD96019AF069017
:103429000256A3E475F00112107BA9F0FA120FD924
:07343900FD12372780D722A6
:0E2F8400900110EFF0A3EBF0A3EAF0A3E9F048
:102F920090017C7401F0A37401F0A37414F0900109
:102FA20011E0F9A3E0FAA3E09000E2C9F0A3EAF08D
:102FB200A3E9F090017CE0F9A3E0FAA3E09000E538
:102FC200C9F0A3EAF0A3E9F07B017A01793C12315E
:102FD200FA90017CE4F0A3F0A3F0900110E0FF7BF3
:082FE200017A01793C02340977
:0300230002324462
:10324400C0E0C0F0C083C082C0D075D000C000C050
:1032540001C002C003C004C005C006C00730980501
:10326400C29812362F309904C299C209D007D006E9
:10327400D005D004D003D002D001D000D0D0D08269
:07328400D083D0F0D0E0324E
:0C37070041022B0041022A004102210077
:102A0600900005120FF2FF90022AE06F7003022A6F
:102A1600A3120FD9FEC4540F900226F0EE540FFEF7
:102A2600F87401088002C333D8FC900227F09000A6
:102A360001120FF2FEC4540F900223F0EE540FFE63
:102A4600F87401088002C333D8FC900225F0900088
:102A560002120FF2FEC4540F900222F0EE540FFE43
:102A6600F87401088002C333D8FC900224F0900069
:102A760003120FF2FEC4540F900228F0EE540FFE1C
:102A8600F87401088002C333D8FC900229F0900044
:0E2A960004120FF290022BF090022AEFF022B1
:10241100900235EBF0A3EAF0A3E9F0A3EDF090020E
:1024210035E0FBA3E0FAA3E0F9ED12101F900239A9
:10243100E0FF900235E0FBA3E0FAA3E0F990000190
:10244100EF12103190023AE0900002121031900226
:102451003BE090000312103190023CE09000041226
:102461001031900238E0FF7D03120CC590023CE070
:1024710090023830E106E0FF7D018004E0FFE4FDD9
:1024810012212190023CE030E714900239E0FF7DF7
:1024910003120CC5900239E0FF7D01122121900247
:1024A1003CE030E61490023AE0FFE4FD120CC590E6
:1024B100023AE0FF7D0112212190023CE030E51457
:1024C10090023BE0FF7D03120CC590023BE0FF7DD3
:1024D10001122121900221E004FFF0900235E0FB7E
:1024E100A3E0FAA3E0F9900005EF121031022A06E9
:102D8D0090022AE06F7003022E14EDC4540F9002CE
:102D9D0026F0ED540FFEF87401088002C333D8FC01
:102DAD00900227F0EBC4540F900223F0EB540FFE6A
:102DBD00F87401088002C333D8FC900225F090000E
:102DCD0024E0FEC4540F900222F0EE540FFEF8746E
:102DDD0001088002C333D8FC900224F0900025E056
:102DED00FEC4540F900228F0EE540FFEF874010843
:102DFD008002C333D8FC900229F0900026E09002A7
:082E0D002BF090022AEFF022E5
:0D29630090001DEDF0A3EBF090001CEFF0D4
:102970007D03120CC5900020E090001C30E106E0C1
:10298000FF7D018004E0FFE4FD122121900020E0A2
:1029900030E71490001DE0FF7D03120CC590001D70
:1029A000E0FF7D01122121900020E030E61490002C
:1029B0001EE0FFE4FD120CC590001EE0FF7D011239
:1029C0002121900020E030E51490001FE0FF7D03FE
:1029D000120CC590001FE0FF7D0112212190022101
:1029E000E004F0FCFF90001CE0FDA3E0FBA3E090FE
:1029F0000024F090001FE0900025F0900020E0906F
:062A00000026F0022D8DFE
:0517850090006EEFF082
:10178A00E4900071F090022BE090022630E109E02B
:10179A00FFA3E0FD7B018007E0FFA3E0FDE4FB126D
:1017AA002B4190022BE054306430700D900228E0F7
:1017BA00FFA3E0FDE4FB122B4190022BE020E203A1
:1017CA0002188890006F7480F0E4A3F0900070E033
:1017DA00C3940874809480400302194390006FE018
:1017EA00FF90006EE05F900223600BE0FF900225FD
:1017FA00E0FD7B018009E0FF900225E0FDE4FB1299
:10180A002B41900226E0FFA3E0FD12328B90022BBF
:10181A00E030E62454017020900222E0FF90022476
:10182A00E0FD123157EF6010900071E0FF90006FF9
:10183A00E0FEEF4E900071F0900226E0FFA3E0FD7B
:10184A0012328B90022BE030E6265401640170209C
:10185A00900222E0FF900224E0FD123157EF60105F
:10186A00900071E0FF90006FE0FEEF4E900071F083
:10187A0090006FE0C313F0A3E004F00217D69000C3
:10188A006F7401F0E4A3F0900070E0C394087480D0
:10189A009480400302194390006FE0FF90006EE0CD
:1018AA005F900223600BE0FF900225E0FD7B018040
:1018BA0009E0FF900225E0FDE4FB122B419002268D
:1018CA00E0FFA3E0FD12328B90022BE030E62454B5
:1018DA00017020900222E0FF900224E0FD123157AD
:1018EA00EF6010900071E0FF90006FE0FEEF4E9005
:1018FA000071F0900226E0FFA3E0FD12328B900205
:10190A002BE030E626540164017020900222E0FFA9
:10191A00900224E0FD123157EF6010900071E0FF51
:10192A0090006FE0FEEF4E900071F090006FE0259E
:10193A00E0F0A3E004F002189190022BE054306426
:10194A0030700D900228E0FFA3E0FD7B01122B41CD
:05195A00900071E0FFA8
:01195F002265
:1005E2007663633D007664643D00676E643D007728
:1005F2003D00683D00783D00793D006D6F64653DCA
:100602000073636C3D0064303D007364613D0064BF
:10061200313D0064633D007273743D007265733D49
:100622000063733D00736F667400696963007370E1
:100632006900003E4141413E0000FFFEFCF8F0E04F
:10064200C0800000027F00000000FFFEFCF8F0E026
:10065200C0800062514946000000FFFEFCF8F0E055
:10066200C0800000414949360000FFFEFCF8F0E07E
:10067200C08000302C227F200000FFFEFCF8F0E05A
:10068200C08000004F4949310000FFFEFCF8F0E055
:10069200C080003C464545390000FFFEFCF8F0E012
:1006A200C0800001611D03000000FFFEFCF8F0E0C5
:1006B200C0800036494949360000FFFEFCF8F0E0F0
:1006C200C080004E5151711E0000FFFEFCF8F0E0A8
:1006D200C08000601C1317384000FFFEFCF8F0E0F9
:1006E200C08000007F4949370000FFFEFCF8F0E0BF
:1006F200C080003C624141410000FFFEFCF8F0E096
:10070200C08000007F4141631E00FFFEFCF8F0E064
:10071200C08000007F4949490000FFFEFCF8F0E07C
:10072200C08000007F0909000000FFFEFCF8F0E035
:10073200C080FF2442810000000000000000002F62
:10074200000000000700070000147F147F1400243B
:100752002A7F2A1200231308646200364955225068
:1007620000000503000000001C224100000041229D
:100772001C000014083E08140008083E0808000087
:1007820000A060000008080808080000606000007F
:10079200002010080402003E5149453E0000427FFD
:1007A2004000004261514946002141454B31001849
:1007B20014127F10002745454539003C4A4949300B
:1007C20000017109050300364949493600064949C5
:1007D200291E0000363600000000563600000008D0
:1007E20014224100001414141414000041221408AD
:1007F20000020151090600324959513E007C121192
:10080200127C007F49494936003E41414122007F26
:100812004141221C007F49494941007F09090901E0
:10082200003E4149497A007F0808087F0000417F65
:100832004100002040413F01007F08142241007F17
:1008420040404040007F020C027F007F0408107F7E
:10085200003E4141413E007F09090906003E4151E7
:10086200215E007F091929460046494949310001A4
:10087200017F0101003F4040403F001F2040201FF8
:10088200003F4038403F00631408146300070870BB
:10089200080700615149454300007F41410000556E
:1008A2002A552A55000041417F000004020102043A
:1008B2000040404040400000010204000020545427
:1008C2005478007F48444438003844444420003877
:1008D2004444487F00385454541800087E090102E9
:1008E2000018A4A4A47C007F080404780000447DBE
:1008F2004000004080847D00007F102844000000FA
:10090200417F4000007C04180478007C08040478CD
:1009120000384444443800FC2424241800182424B9
:1009220018FC007C080404080048545454200004B5
:100932003F444020003C4040207C001C2040201CC2
:10094200003C4030403C004428102844001CA0A039
:0E095200A07C004464544C4414141414141477
:1024F100900014EBF0A3EAF0A3E9F0A3EDF0900053
:102501001BE064889000146014E0FBA3E0FAA3E0F0
:10251100F990000E120FF2540F44908012E0FBA3C9
:10252100E0FAA3E0F990000E120FF2540F448090EC
:10253100000E121031900017E0FFA3E0FD90001F84
:102541007488F0A37496F07B88122963900014E0DC
:10255100FBA3E0FAA3E0F9900014EF121031900010
:1025610017E090000F121031900018E09000101247
:10257100103190001AE090001212103190001BE00F
:10258100900013121031900019E0FF900011121009
:10259100317D03120CC5900019E0FF7D011221214C
:1025A10090001AE0FF7D03120CC590001AE0FF7D38
:1025B1000112212190001BE0FF7D03120CC5900048
:0825C1001BE0FF7D0102212156
:1032D000900069EBF0A3EAF0A3E9F0ED6440900000
:1032E000697013E0FBA3E0FAA3E0F9900011120F5C
:1032F000F2FF7D018011E0FBA3E0FAA3E0F990006A
:1033000011120FF2FFE4FD12212190006DE0FF0287
:0233100017851F
:10339400FFE075F010A42FF582E435F0F583E582A3
:1033A4002434F582E5833406F583E493900068F0D1
:0233B4007D405A
:1033B60090000E120FF2FF5420700FEF20E60B90D4
:0B33C6000068E090006DF01232D02291
:0B374D0090006874AFF0E4FD0233B69A
:0B37580090006874AEF0E4FD0233B690
:1034A80090001FEDF090001CEBF0A3EAF0A3E9F008
:1034B80090006874A8F0E4FD1233B690001CE0FB9D
:1034C800A3E0FAA3E0F9A3E0900068F0E4FD02337A
:0134D800B63D
:1034D90090001FEDF090001CEBF0A3EAF0A3E9F0D7
:1034E9009000687481F0E4FD1233B690001CE0FB93
:1034F900A3E0FAA3E0F9A3E0900068F0E4FD023349
:01350900B60B
:07304A00E0FDEE900063F0D1
:10305100900062EDF090005FEBF0A3EAF0A3E9F0DD
:10306100900063E024B0900068F0E4FD1233B69064
:10307100005FE0FBA3E0FAA3E0F9A3E054F0FFC492
:10308100540F4410900068F0E4FD1233B690005FD5
:10309100E0FBA3E0FAA3E0F9A3E0540F900068F08D
:0530A100E4FD0233B65E
:10350A0090001FEDF090001CEBF0A3EAF0A3E9F0A5
:10351A0090006874D3F0E4FD1233B690001CE0FB0F
:10352A00A3E0FAA3E0F9A3E0900068F0E4FD023317
:01353A00B6DA
:0C374100ED4440900068F0E4FD0233B657
:102BDB0090001CEBF0A3EAF0A3E9F0A3EDF090005A
:102BEB001C30E00FE0FBA3E0FAA3E0F9900068745F
:102BFB00A0800DE0FBA3E0FAA3E0F990006874A1BC
:102C0B00F0E4FD1233B690001FE090001C30E10F92
:102C1B00E0FBA3E0FAA3E0F990006874C0800DE03C
:102C2B00FBA3E0FAA3E0F990006874C8F0E4FD128E
:102C3B0033B690001CE0FBA3E0FAA3E0F990006828
:102C4B0074DAF0E4FD1233B690001CE0FBA3E0FA5B
:102C5B00A3E0F9A3E0540CFF25E025E0440290002B
:072C6B0068F0E4FD0233B63E
:0B36EB00900014E0FBA3E0FAA3E0F95C
:0A36F600900068EDF0E4FD0233B629
:10353B0090001FEDF090001CEBF0A3EAF0A3E9F074
:10354B0090006874DBF0E4FD1233B690001CE0FBD6
:10355B00A3E0FAA3E0F9A3E0900068F0E4FD0233E6
:01356B00B6A9
:1034750090001FEDF090001CEBF0A3EAF0A3E9F03B
:10348500900068748DF0E4FD1233B690001CE0FBEB
:10349500A3E0FAA3E0F9A3E04410900068F0E4FD8E
:0334A5000233B639
:10356C0090001FEDF090001CEBF0A3EAF0A3E9F043
:10357C0090006874D9F0E4FD1233B690001CE0FBA7
:10358C00A3E0FAA3E0F9A3E0900068F0E4FD0233B5
:01359C00B678
:10359D0090001FEDF090001CEBF0A3EAF0A3E9F012
:1035AD0090006874D5F0E4FD1233B690001CE0FB7A
:1035BD00A3E0FAA3E0F9A3E0900068F0E4FD023384
:0135CD00B647
:1035CE0090001FEDF090001CEBF0A3EAF0A3E9F0E1
:1035DE009000687420F0E4FD1233B690001CE0FBFE
:1035EE00A3E0FAA3E0F9A3E0900068F0E4FD023353
:0135FE00B616
:102C720090001FEDF090001CEBF0A3EAF0A3E9F046
:102C82009000687421F0E4FD1233B690001CE0FB62
:102C9200A3E0FAA3E0F9A3E0900068F0E4FD1233A8
:102CA200B690001CE0FBA3E0FAA3E0F9900021E05B
:102CB200900068F0E4FD1233B690001CE0FBA3E044
:102CC200FAA3E0F99000687422F0E4FD1233B690A2
:102CD200001CE0FBA3E0FAA3E0F9900020E09000E2
:102CE20068F0E4FD1233B690001CE0FBA3E0FAA307
:0F2CF200E0F9900022E0900068F0E4FD0233B6B4
:1022300090001FEDF090001CEBF0A3EAF0A3E9F092
:10224000900001120FF2131313541FFF120FD9FE47
:10225000EF8EF0A4FF900022E5F0F0A3EFF09000E5
:102260000E120FF2FF54206003022328EF30E41710
:1022700090001CE0FBA3E0FAA3E0F9900013120F1A
:10228000F2FFE4FD12212190001CE0FBA3E0FAA381
:10229000E0F990000E120FF220E66D900011120F7F
:1022A000F2FFE4FD12212190001CE0FBA3E0FAA361
:1022B000E0F9900002120FF2FDE412304D90001C84
:1022C000E0FBA3E0FAA3E0F9900011120FF2FF7D0A
:1022D00001122121E4900020F0A3F0900022E0FE02
:1022E000A3E0FFC3900021E09F900020E09E5018E3
:1022F00090001FE0FF121785900021E004F07006A7
:10230000900020E004F080D390001CE0FBA3E0FAF2
:10231000A3E0F990000E120FF230E40C90001312BB
:082320000FF2FF7D01122121E3
:012328002292
:10335300120FD9FFEDC39F9000045003ED8001EFDE
:10336300121031900001120FF2FF900018E0FEC31B
:103373009F9000055003EE8001EF12103190001969
:10338300E090000612103190001AE090000702103E
:013393003108
:10344000900008ED121031900230E0900009121047
:1034500031900231E090000A121031900232E09077
:10346000000B121031900233E0FFA3E090000CCF6C
:053470008FF00210C9FD
:0B1B020090023DEBF0A3EAF0A3E9F035
:101B0D00E4900241F0A3F090023DE0FBA3E0FAA3C4
:101B1D00E0F9900009120FF2FF900008120FF22F5A
:101B2D007003021CA090000E120FF2FF54206003F0
:101B3D00021CA0EF30E40C900013120FF2FFE4FD35
:101B4D0012212190023DE0FBA3E0FAA3E0F9900001
:101B5D000E120FF230E603021C80E4900240F0906A
:101B6D00023DE0FBA3E0FAA3E0F9900001120FF2B1
:101B7D00131313541FFF900240E0C39F4003021C38
:101B8D0080900011120FF2FFE4FD12212190023D11
:101B9D00E0FBA3E0FAA3E0F9900006120FF2FF902C
:101BAD000002120FF22FFD900007120FF213131304
:101BBD00541FFF900240E02F12304D90023DE0FB8C
:101BCD00A3E0FAA3E0F9900011120FF2FF7D0112CC
:101BDD00212190023DE0FBA3E0FAA3E0F990000B78
:101BED00120FF2131313541FFF900240E02FFFE466
:101BFD0033FE900008120FF2FD7C0012105390007E
:101C0D000A120FF22FFFEC3EFE900241F0A3EFF00F
:101C1D00900004120FF22FFFEC3E900243F0A3EF61
:101C2D00F0900243E0FEA3E0FF900241E0FCA3E050
:101C3D00FDC39FEC9E503390023DE0FBA3E0FAA361
:101C4D00E0F990000C121091F58285F0832DF5824C
:101C5D00E5833CF583E0FF121785900242E004F026
:101C6D007006900241E004F080B7900240E004F06D
:101C7D00021B6C90023DE0FBA3E0FAA3E0F990009B
:101C8D000E120FF230E40C900013120FF2FF7D01D3
:031C9D00122121F0
:011CA0002221
:10153200900014EBF0A3EAF0A3E9F0A3EDF0900021
:1015420014E0FBA3E0FAA3E0F9ED12101F900018DB
:10155200E0FF900014E0FBA3E0FAA3E0F9900001A1
:10156200EF121031900019E0900002121031900039
:101572001AE0900003121031900004E4121031902E
:101582000005E4121031900006E4121031900007B9
:10159200E4121031900008E4121031900009E412B4
:1015A200103190000AE412103190000BE412103155
:1015B20090000E120FF230E417900014E0FBA3E04B
:1015C200FAA3E0F9900013120FF2FFE4FD122121B9
:1015D200900014E0FBA3E0FAA3E0F990000E120FD2
:1015E200F25420702A900012120FF2FFE4FD122131
:1015F200217F647E00120003900014E0FBA3E0FA56
:10160200A3E0F9900012120FF2FF7D011221219046
:101612000014E0FBA3E0FAA3E0F91237589000149B
:10162200E0FBA3E0FAA3E0F990001AE0FD12350A0C
:10163200900014E0FBA3E0FAA3E0F990001BE05451
:101642000FFD122BDB900014E0FBA3E0FAA3E0F9FC
:10165200900018E014FD1234A8900014E0FBA3E0FF
:10166200FAA3E0F9900019E0FDE4900020F0900068
:1016720017E014FFED2F900021F0900018E024FFF6
:10168200FFE434FFFEEF7803CEC313CE13D8F990F4
:101692000022F0122C72900014E0FBA3E0FAA3E007
:1016A200F97DF012359D900014E0FBA3E0FAA3E06F
:1016B200F9E4FD123741900014E0FBA3E0FAA3E045
:1016C200F97D14123475900014E0FBA3E0FAA3E054
:1016D200F9E4FD1235CE7DAD1236EB7D301236EBDC
:1016E200900014E0FBA3E0FAA3E0F97DFF1234D9E5
:1016F200900014E0FBA3E0FAA3E0F97DF112356C4F
:10170200900014E0FBA3E0FAA3E0F97D3012353B30
:10171200900014E0FBA3E0FAA3E0F97DA41236F6F0
:10172200900014E0FBA3E0FAA3E0F97DA61236F6DE
:10173200900014E0FBA3E0FAA3E0F912374D900009
:1017420014E0FBA3E0FAA3E0F9E4FD1222309000DA
:1017520014E0FBA3E0FAA3E0F9E4900063F0FD12C9
:101762003051900014E0FBA3E0FAA3E0F990000EE0
:10177200120FF230E40C900013120FF2FF7D0112EF
:0317820021212200
:0B002600900000EBF0A3EAF0A3E9F06B
:100031009000087488F0A3F0A3F0A3F0A3F0A3F05C
:10004100A3F090001774FFF0A37405F0A374E2F01D
:10005100900003E0FBA3E0FAA3E0F91228BF9000AF
:1000610006EEF0A3EFF0F47002EEF46028900003C6
:10007100E0FBA3E0FAA3E0F9A3E0FCA3E0FD122377
:100081002990000DEFF07D03120CC590000DE0FFEB
:100091007D0112212190001774FFF0A37405F0A3D4
:1000A10074E7F0900003E0FBA3E0FAA3E0F9122863
:1000B100BF900006EEF0A3EFF0F47002EEF46028BA
:1000C100900003E0FBA3E0FAA3E0F9A3E0FCA3E0C6
:1000D100FD12232990000DEFF07D03120CC5900055
:1000E1000DE0FF7D0112212190001774FFF0A37430
:1000F10005F0A374ECF0900003E0FBA3E0FAA3E0A9
:10010100F91228BF900006EEF0A3EFF0F47002EEB2
:10011100F46028900003E0FBA3E0FAA3E0F9A3E078
:10012100FCA3E0FD12232990000EEFF07D03120CD9
:10013100C590000EE0FFE4FD12212190001774FF2D
:10014100F0A37405F0A374F1F0900003E0FBA3E0C9
:10015100FAA3E0F91228BF900006EEF0A3EFF0F445
:100161007002EEF4601B900003E0FBA3E0FAA3E051
:10017100F9A3E0FCA3E0FD1225C990000FEFF08088
:100181000690000F7480F090001774FFF0A37405BF
:10019100F0A374F4F0900003E0FBA3E0FAA3E0F90C
:1001A1001228BF900006EEF0A3EFF0F47002EEF417
:1001B100601B900003E0FBA3E0FAA3E0F9A3E0FCDD
:1001C100A3E0FD1225C9900010EFF0800690001009
:1001D1007440F090001774FFF0A37405F0A374F756
:1001E100F0900003E0FBA3E0FAA3E0F91228BF902E
:1001F1000006EEF0A3EFF0F47002EEF4601B900045
:1002010003E0FBA3E0FAA3E0F9A3E0FCA3E0FD1205
:1002110025C9900011EFF08005E4900011F09000E5
:100221001774FFF0A37405F0A374FAF0900003E0D3
:10023100FBA3E0FAA3E0F91228BF900006EEF0A3B9
:10024100EFF0F47002EEF4601B900003E0FBA3E01A
:10025100FAA3E0F9A3E0FCA3E0FD1225C990001286
:10026100EFF08005E4900012F090001774FFF0A306
:100271007405F0A374FDF0900003E0FBA3E0FAA382
:10028100E0F91228BF900006EEF0A3EFF0F470023F
:10029100EEF4601B900003E0FBA3E0FAA3E0F9A3F6
:1002A100E0FCA3E0FD1225C9900013EFF080069059
:1002B10000137404F090001774FFF0A37406F0A308
:1002C1007403F0900003E0FBA3E0FAA3E0F9122825
:1002D100BF900006EEF0A3EFF0F47002EEF46019A7
:1002E100900003E0FBA3E0FAA3E0F9A3E0FCA3E0A4
:1002F100FD122329900008EFF090001774FFF0A37E
:100301007406F0A37408F0900003E0FBA3E0FAA3E5
:10031100E0F91228BF900006EEF0A3EFF0F47002AE
:10032100EEF46021900003E0FBA3E0FAA3E0F99072
:100331000007E02402FD900006E03400FC122329AE
:10034100900008EFF090001774FFF0A37406F0A37B
:10035100740CF0900003E0FBA3E0FAA3E0F912288B
:10036100BF900006EEF0A3EFF0F47002EEF4601916
:10037100900003E0FBA3E0FAA3E0F9A3E0FCA3E013
:10038100FD122329900009EFF090001774FFF0A3EC
:100391007406F0A37411F0900003E0FBA3E0FAA34C
:1003A100E0F91228BF900006EEF0A3EFF0F470021E
:1003B100EEF46021900003E0FBA3E0FAA3E0F990E2
:1003C1000007E02402FD900006E03400FC1223291E
:1003D100900009EFF090001774FFF0A37406F0A3EA
:1003E1007415F0900003E0FBA3E0FAA3E0F91228F2
:1003F100BF900006EEF0A3EFF0F47002EEF4601986
:10040100900003E0FBA3E0FAA3E0F9A3E0FCA3E082
:10041100FD12232990000AEFF090001774FFF0A35A
:100421007406F0A37419F0900003E0FBA3E0FAA3B3
:10043100E0F91228BF900006EEF0A3EFF0F470028D
:10044100EEF46019900003E0FBA3E0FAA3E0F9A346
:10045100E0FCA3E0FD12232990000BEFF0900017C0
:1004610074FFF0A37406F0A3741EF0900003E0FB88
:10047100A3E0FAA3E0F91228BF900006EEF0A3EF83
:10048100F0F47002EEF46019900003E0FBA3E0FACF
:10049100A3E0F9A3E0FCA3E0FD12232990000BEFF8
:1004A100F090001774FFF0A37406F0A37423F0908A
:1004B1000003E0FBA3E0FAA3E0F91228BF900006D5
:1004C100EEF0A3EFF0F47002EEF46019900003E097
:1004D100FBA3E0FAA3E0F9A3E0FCA3E0FD122329CA
:1004E10090000CEFF090001774FFF0A37406F0A3D6
:1004F1007427F0900003E0FBA3E0FAA3E0F91228CF
:10050100BFEFF47002EEF4604690001774FFF0A3A1
:100511007406F0A3742CF0900003E0FBA3E0FAA3AF
:10052100E0F91228BFEFF47002EEF470309000177A
:1005310074FFF0A37406F0A37430F0900003E0FBA5
:10054100A3E0FAA3E0F91228BFBEFF14BFFF119088
:10055100000AE064887009A3E064887003008032B7
:1005610000900000E0FBA3E0FAA3E0F9900008E0AE
:10057100FDA3E0900018F090000AE0900019F090BF
:10058100000BE090001AF090000CE090001BF012BC
:1005910024F1900000E0FBA3E0FAA3E0F990000F42
:1005A100E0FDA3E0900018F0900011E0900019F038
:1005B100900012E090001AF0900013E090001BF000
:1005C100121532900000E0FBA3E0FAA3E0F99000DD
:1005D1000FE0FDA3E0900018F0E4A3F0A3F00233D4
:0105E10053C6
:0E2F1100900245EBF0A3EAF0A3E9F0A3EDF087
:102F1F00E4A3F0A3F0122BDBE490024AF090024AF4
:102F2F00E0FFC39408748094805049900245E0FB01
:102F3F00A3E0FAA3E0F9900249E0FDEF12304DE46F
:102F4F00900249F0900249E0FFC39480748094800E
:102F5F00501A900245E0FBA3E0FAA3E0F9EF540FFB
:102F6F00A3123394900249E004F080D890024AE013
:042F7F0004F080A931
:012F8300222B
:0B2E9800900251EBF0A3EAF0A3E9F078
:102EA300E4A3F0A3F07D021235CEE4900255F09036
:102EB3000251E0FBA3E0FAA3E0F9900001120FF244
:102EC300131313541FFF900255E0FEC39F503E900F
:102ED300025412304AE4900254F0900254E0FFC3CB
:102EE300948074809480501C900251E0FBA3E0FA1C
:102EF300A3E0F9EF5407900255123394900254E083
:0D2F030004F080D6900255E004F0022EB2DA
:012F1000229E
:101EF60090024EEDF090024BEBF0A3EAF0A3E9F06E
:101F0600E490024FF0A3F0FD122230E4900250F06C
:101F160090024BE0FBA3E0FAA3E0F9900001120F58
:101F2600F2131313541FFF900250E0FEC39F4003A9
:101F360002200E90024E12304AE490024FF09002B8
:101F46004FE0FFC3940474809480501A90024BE0D3
:101F5600FBA3E0FAA3E0F9EF9007341233AF900247
:101F66004FE004F080D8E490024FF090024FE0FF7B
:101F7600C3940674809480501C90024BE0FBA3E04F
:101F8600FAA3E0F9A3E075F0648412339690024F49
:101F9600E004F080D6E490024FF090024FE0FFC3D9
:101FA600940674809480502290024BE0FBA3E0FAE2
:101FB600A3E0F9A3E075F06484E5F075F00A8412F5
:101FC600339690024FE004F080D0E490024FF090F8
:101FD600024FE0FFC3940674809480502290024B17
:101FE600E0FBA3E0FAA3E0F9A3E075F00A84AEF003
:101FF60075F010EE12339990024FE004F080D09005
:082006000250E004F0021F1675
:01200E0022AF
:0B2E1500900057EBF0A3EAF0A3E9F0F7
:102E200090005CE024E090005EF0C003C002C001AE
:102E3000900057E0FBA3E0FAA3E0F9900002120F24
:102E4000F22DFD90005BE0900063F0D001D002D045
:102E500003123051E490005DF090005DE0FFC394F8
:102E600006748094805030900057E0FBA3E0FAA3F2
:102E7000E0F990005EE075F006A42FF582E435F0ED
:102E8000F583E5822438F582E58334071233AC906C
:072E9000005DE004F080C2C8
:012E97002218
:0E1DCE00900000EBF0A3EAF0A3E9F0A3EDF023
:101DDC009000547401F0A37400F0A37408F0900008
:101DEC0005E0F9A3E0FAA3E09000E2C9F0A3EAF061
:101DFC00A3E9F0900054E0F9A3E0FAA3E09000E529
:101E0C00C9F0A3EAF0A3E9F07B017A007930123132
:101E1C00FA900050EFF0900054E4F0A3F0A3F0908F
:101E2C000003E0900052F0900004E0900053F0E4C6
:101E3C00900051F0900050E0FFA3E0FEC39F4003E0
:101E4C00021EF574302EF582E43400F583E0FFB405
:101E5C000D0B900003E0900052F0021EECEFB40A60
:101E6C0008900053E004F08077900000E0FBA3E0C2
:101E7C00FAA3E0F9120FD924FAFF900052E0D39F95
:101E8C00400C900003E0900052F0A3E004F09000AE
:101E9C0001120FF224FFFFE434FFFEEF7803CEC3F0
:101EAC0013CE13D8F9FF900053E0FEC39F503A9025
:101EBC000000E0FBA3E0FAA3E0F9900052E0FD90F3
:101ECC00005BEEF0900051E02430F582E43400F534
:101EDC0083E090005CF0122E15900052E02406F086
:091EEC00900051E004F0021E40D8
:011EF50022CA
:102D0D000233D1E493A3F8E493A34003F68001F2D8
:102D1D0008DFF48029E493A3F85407240CC8C333C7
:102D2D00C4540F4420C8834004F456800146F6DF96
:102D3D00E4800B0102040810204080903700E47EEF
:102D4D00019360BCA3FF543F30E509541FFEE4938B
:102D5D00A360010ECF54C025E060A840B8E493A352
:102D6D00FAE493A3F8E493A3C8C582C8CAC583CA7D
:102D7D00F0A3C8C582C8CAC583CADFE9DEE780BE35
:0137130000B5
:100FD900BB010689828A83E0225002E722BBFE0216
:090FE900E32289828A83E4932249
:100FF200BB010CE58229F582E5833AF583E02250B4
:1010020006E92582F8E622BBFE06E92582F8E222FD
:0D101200E58229F582E5833AF583E4932217
:10101F00BB010689828A83F0225002F722BBFE01B0
:02102F00F322AA
:10103100F8BB010DE58229F582E5833AF583E8F0F5
:10104100225006E92582C8F622BBFE05E92582C8A1
:02105100F22289
:10105300EF8DF0A4A8F0CF8CF0A428CE8DF0A42EB1
:02106300FE226B
:10106500C5F0F8A3E028F0C5F0F8E5821582700216
:061075001583E038F022B3
:10107B00A3F8E0C5F025F0F0E58215827002158328
:06108B00E0C838F0E82285
:10109100BB0110E58229F582E5833AF583E0F5F09D
:1010A100A3E0225009E92582F886F008E622BBFE7A
:1010B1000AE92582F8E2F5F008E222E5832AF583C0
:0810C100E993F5F0A3E9932285
:1010C900F8BB0111E58229F582E5833AF583E8F059
:1010D900E5F0A3F0225009E92582C8F608A6F02216
:0D10E900BBFE09E92582C8F2E5F008F222FD
:1010F600E88FF0A4CC8BF0A42CFCE98EF0A42CFC99
:101106008AF0EDA42CFCEA8EF0A4CDA8F08BF0A416
:101116002DCC3825F0FDE98FF0A42CCD35F0FCEB75
:101126008EF0A4FEA9F0EB8FF0A4CFC5F02ECD393A
:0F113600FEE43CFCEAA42DCE35F0FDE43CFC22A7
:1011450075F008758200EF2FFFEE33FECD33CDCC61
:1011550033CCC58233C5829BED9AEC99E5829840E4
:101165000CF582EE9BFEED9AFDEC99FC0FD5F0D6C1
:10117500E4CEFBE4CDFAE4CCF9A88222B800C1B9EB
:101185000059BA002DEC8BF084CFCECDFCE5F0CB29
:10119500F97818EF2FFFEE33FEED33FDEC33FCEB62
:1011A50033FB10D703994004EB99FB0FD8E5E4F91D
:1011B500FA227818EF2FFFEE33FEED33FDEC33FC0A
:1011C500C933C910D7059BE99A4007EC9BFCE99AFE
:1011D500F90FD8E0E4C9FAE4CCFB2275F010EF2F43
:1011E500FFEE33FEED33FDCC33CCC833C810D70743
:1011F5009BEC9AE899400AED9BFDEC9AFCE899F87E
:0E1205000FD5F0DAE4CDFBE4CCFAE4C8F92210
:10121300EB9FF5F0EA9E42F0E99D42F0E89C45F031
:0112230022A8
:0C122400ECF0A3EDF0A3EEF0A3EFF0223D
:10123000A8828583F0D083D08212124712124712FF
:101240001247121247E473E493A3C583C5F0C58324
:10125000C8C582C8F0A3C583C5F0C583C8C582C808
:01126000226B
:10126100EC8EF0A4CCC5F0CCCDF8EFA4CEC5F02D1A
:10127100FDE43CFCE8A42EC8C5F03DFDE43CFCEFD8
:0D128100A4FFE5F028FEE43DFDE43CFC2266
:1031FA009000E2E0FFA3E0FEA3E0CF9000EBF0A393
:10320A00EEF0A3EFF09000E5E0CBF0A3E0CAF0A364
:10321A00E0C9F07F229000EEAD82AC83120FD98D07
:10322A00828C83F0A309E970010ADFEC9000E5E0E3
:0A323A00FBA3E0FAA3E0F90209C5C6
:10096000E50824EBF582E43400F583E005082290E5
:1009700000E83007039000EBE475F00112128E02DC
:100980000FD92000E97F2ED2008018EF540F249059
:10099000D43440D4FF30040BEF24BFB41A0050030A
:1009A0002461FFE50960021509050CE50C700205DC
:1009B0000B30070E9000E8E475F00112128EEF0282
:1009C000101F0236837403D2078003E4C207F508C0
:1009D0009000E81212A5E4F509F50BF50CE50960A5
:1009E000077F201209A380F5750AFFC201C200C269
:1009F00002C203C205C206C20812096FFF700D30A1
:100A000007057F001209B4AF0CAE0B22B4255FC2FC
:100A1000D5C20412096FFF24D0B40A00501A75F031
:100A20000A780930D50508B6FF0106C6A426F620C7
:100A3000D5047002D20380D924CFB41A00EF500439
:100A4000C2E5D204020BB5D20180C6D20080C0D26A
:100A50000280BCD2D580BAD20580B47F201209A30F
:100A60002002077401B5090040F1120960FF120964
:100A7000A30209DDD208D2068095120960FB120993
:100A800060FA120960F94A4B700679867A0C7BFF8E
:100A900020022EE509602A7E008E82758300120FE7
:100AA000F260060EEE650A70F0C2D5EBC0E0EAC057
:100AB000E0E9C0E0EE120BFCD0E0F9D0E0FAD0E0C3
:100AC000FB120FD9FF60AAEBC0E0EAC0E0E9C0E08A
:100AD0001209A3D0E02401F9D0E03400FAD0E0FB01
:100AE000E50A0460DCD50AD980877BFF7A0B79F8A8
:100AF000D202809C791080027908C206C208800860
:100B0000D2D5790A8004790AC2D5E50A047002F5C3
:100B10000AE4FAFDFEFF120960FC7B0820011312B3
:100B20000960FD7B1030000A120960FE120960FFA7
:100B30007B20EC3382D592D55013C3E43000069F5E
:100B4000FFE49EFEE42001039DFDE49CFCE4CBF861
:100B5000C201EC700CCFCECDCCE824F8F870F38055
:100B600017C3EF33FFEE33FEED33FDEC33FCEB3315
:100B7000FB994002FB0FD8E9EB300105F8D0E0C447
:100B800048B201C0E00AEC4D4E4F78207B0070C2A5
:100B9000EAB50A0040BCC0E0120BFED0F0D0E02065
:100BA0000104C4C0E0C4B201C0F012098CD0F0D579
:100BB000F0EB0209DD1212AE0A7A530AF4580A4B1E
:100BC0004C0A47420AF84F0B00440B00490A6043A5
:080BD0000B06550AEA460AEA89
:100BD800450AEA470CA6500A4F2D0A532E0A762BCF
:100BE8000A57230A74200C8F2A0A0F4800000A6E3D
:100BF8003F3F3F00790AA2D5200314300509B910F8
:100C0800020404B9080104A2D520060250010420F8
:100C180002689202B509005034C0E07F2030031901
:100C28007F30A20272067205500F120C55C202C222
:100C380006C205C2087F30800F300503E9C0E01204
:100C480009A3300503D0E0F9D0E0B509CC30051789
:100C58007F30B9100C1209A37F583004077F7880C1
:100C680003B908031209A33002057F2D0209A37FE7
:100C7800202008F87F2B2006F322920280CF286ECE
:100C8800756C6C2900D2011209603001F8C2017834
:100C98000930D50108F6020A0F2D504349581209A8
:100CA800602403B405004001E4900CA19312099458
:0D0CB800743A120994D203750904020AF47B
:10128E00F8E0FBA3A3E0F925F0F0E58215827002E9
:07129E001583E0FA38F0228D
:0912A500EBF0A3EAF0A3E9F0224A
:1012AE00D083D082F8E4937012740193700DA3A3CF
:1012BE0093F8740193F5828883E4737402936860E3
:0612CE00EFA3A3A380DFE3
:10368300EFB40A07740D12368E740A309811A89994
:10369300B8130CC2983098FDA899C298B811F630A7
:0736A30099FDC299F599227F
:00000001FF
