:03000000022E4786
:0C2E4700787FE4F6D8FD758121022E8E04
:093A4A006461743D25660D0A005B
:10306A00121DD67FF47E011200037B017A007904D7
:10307A0090000C7416F07D171235089000001207A4
:10308A001A42F6E6667B017A00790090000DE4F0B8
:10309A00A37404F0E4FFFE1207BE90000012071AA0
:1030AA00000000007B017A00790090000DE4F0A393
:1030BA007404F0E4FFFE121B357BFF7A3A794A90DA
:1030CA000000E0FCA3E0FDA3E0FEA3E0FF90000BFC
:0830DA0012070E1232F780FE0E
:073A090044024E0000000022
:10000300EF4E601A900246E0FCA3E0FDED1D700187
:0E0013001C144C70F7EF1F70011E144E70E6A7
:0100210022BC
:083A1D00900081E0FEA3E0FF30
:0A3A2500EF1FAC0670011E4C70F696
:013A2F002274
:1039C800900246E0FCA3E0FD120791E47B83FAF93C
:1039D800F81205CD90024A12070E90024AE0C3136E
:0639E800FEA3E013FF2224
:10397500900249E06599600AE599F0E4900248F003
:103985008006900248E004F0900248E0C394E97490
:0C39950080948040060075C7600000228E
:0B32F700900008EBF0A3EAF0A3E9F060
:103302009000737401F0A37400F0A3740BF09000AA
:1033120008E0F9A3E0FAA3E0900083C9F0A3EAF081
:10332200A3E9F0900073E0F9A3E0FAA3E09000862D
:10333200C9F0A3EAF0A3E9F07B017A0079331236EF
:10334200E5900073E4F0A3F0A3F07B017A007933F7
:053352007F0102387E3E
:102B0A00EF14601614602C14604D14606C1470037A
:102B1A00022B9E24056003022BC190FE02E0547E24
:102B2A004480F0E030E0F390FE00E054FCF090FEC8
:102B3A0003807A90FE04E0547E4480F0E030E0F3B3
:102B4A0090FE00E054FC4403F090FE02E4F090FE94
:102B5A0008F090FE03F02290FE08E0547E4480F0D4
:102B6A00E030E0F390FE00E054FC4402F090FE04F2
:102B7A00E4F090FE02F0A3F02290FE03E0543E44FB
:102B8A0080F0E030E0F390FE00E054FC4401F09065
:102B9A00FE02801990FE03E0543E44C0F0E030E0AB
:102BAA00F390FE00E054FC4401F090FE02E4F09041
:082BBA00FE08F090FE04F02279
:0C3A3E00EF90FE01700304F022EFF02274
:101DD60043BA80AF9FE4FCFDFEC004A905AA06AB8A
:101DE6000778FBE6FFD000C3EF9BFFEE9AFEED9966
:101DF600FDEC98FCE47BF07AD2F9F81205CDC3E449
:101E06009FFF74369EFE746E9DFD74019CFC9000CF
:101E16000812070E900008E0FCA3E0FDA3E0FEA375
:101E2600E0FFC00790FE01E0FBE4FAF9F8D00712E4
:101E3600065890000812070E7FC07EF67D577C007C
:101E4600900008E0F8A3E0F9A3E0FAA3E0FBC312D0
:101E560006EA500D90024E12071A00546000022046
:101E6600057FC07E267D827C00900008E0F8A3E016
:101E7600F9A3E0FAA3E0FBC31206EA500D90024E66
:101E860012071A005B8D800220057F807EED7DAFF4
:101E96007C00900008E0F8A3E0F9A3E0FAA3E0FBD9
:101EA600C31206EA500D90024E12071A00A8C0008F
:101EB6000220057F807E2D7DE87C00900008E0F8FA
:101EC600A3E0F9A3E0FAA3E0FBC31206EA500D90E3
:101ED600024E12071A00B71B000220057F807E36CD
:101EE6007D257C01900008E0F8A3E0F9A3E0FAA3C1
:101EF600E0FBC31206EA500D90024E12071A0119B2
:101F060040000220057F807E567D417C01900008BE
:101F1600E0F8A3E0F9A3E0FAA3E0FBC31206EA5057
:101F26000D90024E12071A01312D000220057F0086
:101F36007EDB7D5F7C01900008E0F8A3E0F9A3E07A
:101F4600FAA3E0FBC31206EA500D90024E12071ADE
:101F5600015180000220057F607E197D857C0190FD
:101F66000008E0F8A3E0F9A3E0FAA3E0FBC3120639
:101F7600EA500D90024E12071A016E360002200535
:101F86007F207EE07DB27C01900008E0F8A3E0F9B6
:101F9600A3E0FAA3E0FBC31206EA500C90024E122D
:101FA600071A019BFCC080577FE07EA67DE07C017E
:101FB600900008E0F8A3E0F9A3E0FAA3E0FBC3125F
:101FC60006EA500C90024E12071A01C9C380802FF0
:101FD6007F607E2B7DFF7C01900008E0F8A3E0F98E
:101FE600A3E0FAA3E0FBC31206EA90024E500912E0
:101FF600071A01FA4000800712071A02160EC0E4FB
:102006007B107A27F9F890024EE0FCA3E0FDA3E0EE
:10201600FEA3E0FF120658900246EEF0A3EFF0E4AE
:0D202600900249F0900248F01238B5D2AF98
:01203300228A
:0B2A4500900011EBF0A3EAF0A3E9F011
:102A50007F647E001239C8900081EEF0A3EFF09001
:102A6000007E7401F0A37400F0A37414F0900011C0
:102A7000E0F9A3E0FAA3E0900083C9F0A3EAF0A391
:102A8000E9F090007EE0F9A3E0FAA3E0900086C9A7
:102A9000F0A3EAF0A3E9F07B017A00793E1236E573
:102AA00090003CEEF0A3EFF090007EE4F0A3F0A3E2
:102AB000F07FF47E01120003E4FBFAD390003DE0C6
:102AC0009B90003CE09A40E9D2B1C2B1123A1D7429
:102AD0003E2BF58274003AF583E0F9E4FDEDC394F2
:102AE00008748094805014E930E004D2B18002C2AE
:102AF000B1E9C313F9123A1D0D80E2D2B1123A1DA9
:0A2B0000123A1D0BBB00010A80B160
:0B2C6C00900252EBF0A3EAF0A3E9F0A5
:102C7700E4FFFE900258F0A3F0A3F0A3F0900252F5
:102C8700E0FBA3E0FAA3E0F91204C0607790025BCF
:102C9700E004F0700690025AE004F0900255E0FB61
:102CA700A3E0FAA3E0F98F828E831204D9FD900284
:102CB70052E0FBA3E0FAA3E0F91204C0B505070F41
:102CC700BF00010E8012E4FEFF90025AE0FDA3E070
:102CD700900258CDF0A3EDF0900253E475F0011285
:102CE70005A1900255E0FBA3E0FAA3E0F98F828EDD
:102CF700831204D9FD3395E04D7082900258E0FEAF
:082D0700A3E0FF227EFF7FFF25
:012D0F0022A1
:10288E00E4900277F0900279F0900278F09002785E
:10289E00E0C3940A748094804003022970E07E00A5
:1028AE002DF582EE3CF5831204D9FF3395E0FEC37D
:1028BE00EF9430EE648094804052D3EF9437EE6400
:1028CE008094805047900279E004F0E06401701922
:1028DE00900278E07E002DF582EE3CF5831204D94D
:1028EE0024D0C454F0900277F0900279E064027024
:1028FE001B900278E07E002DF582EE3CF5831204EB
:10290E00D924D0FF900277E04FFFF022900278E0BA
:10291E007E002DF582EE3CF5831204D9FF3395E04F
:10292E00FEC3EF9438EE648094804011D3EF943957
:10293E00EE648094805006900279E004F090027864
:10294E00E07E002DF582EE3CF5831204D9FF642C57
:10295E006010EF3395E04F6009900278E004F002CA
:07296E00289B900277E0FFB7
:01297500223F
:08297600900268ECF0A3EDF003
:10297E00E4A3F0A3F0A3F090026CE0FFC3941474F0
:10298E008094804003022A3C900269E02FFF90025F
:10299E0068E034008F82F5831204D9FF3395E0FE90
:1029AE00C3EF9430EE648094804051D3EF9439EEAF
:1029BE0064809480504690026AE0FEA3E0FF7C00A3
:1029CE007D0A12053A90026AEEF0A3EFF0A3E0FF43
:1029DE00900269E02FFF900268E034008F82F58349
:1029EE001204D9FF3395E0FEEF24D0FFEE34FFFE44
:1029FE0090026BE02FF090026AE03EF090026CE0E5
:102A0E00FF900269E02FFF900268E034008F82F59C
:102A1E00831204D9FF642C6015EF642E6010EF331F
:102A2E0095E04F600990026CE004F0022985900257
:062A3E006AE0FEA3E0FFC8
:012A4400226F
:10254000900234EBF0A3EAF0A3E9F0A3ECF0A3EDE2
:01255000F09A
:10255100E4900240F0A3F0A3F0A3F0A3F0A3F09065
:10256100023EF0A3F0900237E0FEA3E0FF90023EAE
:10257100E0FCA3E0FDC39FEC9E4003022610900205
:1025810039E0FBA3E0FAA3E0F9900240E0FEA3E00A
:10259100F5828E831204D9FF900234E0FBA3E0FAA6
:1025A100A3E0F98D828C831204D9B50733900241DF
:1025B100E004F07006900240E004F090023CE0FE7E
:1025C100A3E0FF900240E0B50631A3E0B5072C90EF
:1025D100023EE0FFA3E0900244CFF0A3EFF0802F92
:1025E100E4900240F0A3F090023FE02401FE90024B
:1025F1003EE03400900242F0A3CEF090023FE004AE
:10260100F0600302256690023EE004F00225669028
:102611000244E0FEA3E0FF900242E0FCA3E0FDD310
:102621009FEC9E504490023EECF0A3EDF0900244EA
:10263100E0FEA3E0FF90023EE0FCA3E0FDC39FECBF
:102641009E5023900234E0FBA3E0FAA3E0F98D82CF
:102651008C83E412051890023FE004F070CF9002E1
:0B2661003EE004F080C77F01227F00F4
:01266C00224B
:10239E006770696F5F757070756C6C283C44253082
:1023AE0032583E2C2564293BB2BBB4E6D4DAB8C30E
:1023BE00494F0D0A006770696F5F757070756C6CB0
:1023CE00283C44253032583E2C31293BB2BBB4E672
:1023DE00D4DAB8C3494F0D0A006770696F5F757024
:1023EE0070756C6C283C44253032583E2C30293B9D
:1023FE00B2BBB4E6D4DAB8C3494F0D0A00677069B0
:10240E006F5F6D6F6465283C44253032583E2C2535
:10241E0064293BB2BBB4E6D4DAB8C3494F0D0A0007
:10242E006770696F5F6D6F64652844253032582C74
:10243E003C25643E293BB2BBB4E6D4DAB8C3C4A390
:10244E00CABD0D0A006770696F5F7772697465287F
:10245E003C25643E2C2564293BB2BBB4E6D4DAB8E5
:10246E00C350BFDA0D0A006770696F5F72656164F1
:10247E00283C5025643E293BB2BBB4E6D4DAB8C33F
:10248E0050BFDA0D0A006770696F5F6F7574283C74
:10249E0044253032583E2C2564293BB2BBB4E6D4D9
:1024AE00DAB8C3494F0D0A006770696F5F6F7574B4
:1024BE00283C44253032583E2C31293BB2BBB4E681
:1024CE00D4DAB8C3494F0D0A006770696F5F6F7534
:1024DE0074283C44253032583E2C30293BB2BBB4D4
:1024EE00E6D4DAB8C3494F0D0A006770696F5F69A9
:1024FE006E283C44253032583E293BB2BBB4E6D45C
:10250E00DAB8C3494F0D0A006770696F5F746F6761
:10251E00676C65283C44253032583E293BB2BBB42B
:10252E00E6D4DAB8C3494F0D0A00010204081020A0
:02253E004080DB
:0A266D00900010EDF090000FEFF068
:102677006488700302277EE0FF54F0F50DEF540FD6
:10268700FF90253893F50ED3EF940774809480401C
:10269700237BFF7A23799E90000FE0FF900014E4DC
:1026A700F0A3EFF0900010E0FF900016E4F0A3EF26
:1026B700F0122A45900010E06055E50D24F06021E6
:1026C70024F0602224F0602324F0602424F06025A5
:1026D70024F0602624F060272470702B90FE108071
:1026E7002190FE11801C90FE12801790FE1380121D
:1026F70090FE14800D90FE15800890FE16800390C2
:10270700FE17E0450EF0227BFF7A2379C38058E558
:102717000D24F0602124F0602224F0602324F0606F
:102727002424F0602524F0602624F06027247070AC
:102737003090FE10802190FE11801C90FE128017B1
:1027470090FE13801290FE14800D90FE1580089065
:10275700FE16800390FE17E0FFE50EF4FEEF5EF035
:10276700227BFF7A2379E790000FE0FF900014E4C3
:07277700F0A3EFF0122A4568
:01277E002238
:0A182100900010EDF090000FEFF0C2
:10182B0064887003021B34E0FF54F0F50DEF540F86
:10183B00FF90253893F50ED3EF9407748094804076
:10184B00237BFF7A24790B90000FE0FF900014E4C8
:10185B00F0A3EFF0900010E0FF900016E4F0A3EF80
:10186B00F0122A45E50D24F0602124F0602224F0CB
:10187B00602324F0602424F0602524F0602624F0FB
:10188B00602724707028E4F50D8046750D018041AA
:10189B00750D02803C750D038037750D0480327514
:1018AB000D05802D750D068028750D0780237BFF98
:1018BB007A24790B90000FE0FF900014E4F0A3EF73
:1018CB00F0900010E0FF900016E4F0A3EFF0122A66
:1018DB0045900010E0FFD3940374809480401C7BF0
:1018EB00FF7A24792E90000FE0FD900014E4F0A312
:1018FB00EDF0A3E4F0A3EFF0122A45E50D70409054
:10190B000010E0FF7E007007E50EF452935294EF47
:10191B0064014E7009E50E4293E50EF4529490006B
:10192B0010E064027008E50E4293E50E42949000BD
:10193B0010E064037009E50EF45293E50E4294E552
:10194B000D64017040900010E0FF7E007007E50E03
:10195B00F452915292EF64014E7009E50E4291E5FB
:10196B000EF45292900010E064027008E50E429162
:10197B00E50E4292900010E064037009E50EF452FC
:10198B0091E50E4292E50D64027040900010E0FF6D
:10199B007E007007E50EF452955296EF64014E707F
:1019AB0009E50E4295E50EF45296900010E06402A4
:1019BB007008E50E4295E50E4296900010E0640328
:1019CB007009E50EF45295E50E4296E50D64037031
:1019DB0040900010E0FF7E007007E50EF452B1520C
:1019EB00B2EF64014E7009E50E42B1E50EF452B24E
:1019FB00900010E064027008E50E42B1E50E42B2B1
:101A0B00900010E064037009E50EF452B1E50E424C
:101A1B00B2E50D64047040900010E0FF7E0070078B
:101A2B00E50EF452B352B4EF64014E7009E50E4269
:101A3B00B3E50EF452B4900010E064027008E50EAA
:101A4B0042B3E50E42B4900010E064037009E50E5A
:101A5B00F452B3E50E42B4E50D64057040900010EE
:101A6B00E0FF7E007007E50EF452C952CAEF640125
:101A7B004E7009E50E42C9E50EF452CA900010E013
:101A8B0064027008E50E42C9E50E42CA900010E0F0
:101A9B0064037009E50EF452C9E50E42CAE50D6404
:101AAB00067040900010E0FF7E007007E50EF452C8
:101ABB00CB52CCEF64014E7009E50E42CBE50EF430
:101ACB0052CC900010E064027008E50E42CBE50E9C
:101ADB0042CC900010E064037009E50EF452CBE5A4
:101AEB000E42CCE50D64077040900010E0FF7E00C5
:101AFB007007E50EF452E152E2EF64014E7009E516
:101B0B000E42E1E50EF452E2900010E06402700820
:101B1B00E50E42E1E50E42E2900010E0640370092D
:091B2B00E50EF452E1E50E42E280
:011B3400228E
:10335700EFB40900503A903364F828287302337F9A
:1033670002338202338502338802338B02338E02A3
:1033770033910233940233B08D80228D90228DA039
:10338700228DB0228DC0228DC8228DE8228DF82291
:103397007BFF7A247953900014E4F0A3EFF0AF0594
:0A33A700A3E4F0A3EFF0122A452280
:1033B100EFB40900503D9033BEF82828730233D989
:1033C1000233DC0233DF0233E20233E50233E80287
:1033D10033EB0233EE0233F1AF8022AF9022AFA084
:1033E10022AFB022AFC022AFC822AFE822AFF8228D
:1033F1007FFF227BFF7A247975900014E4F0A3EF1C
:07340100F0122A457FFF22B3
:0A277F00900010EDF090000FEFF055
:102789006488700302288DE0FF54F0F50DEF540FB3
:10279900FF90253893F50ED3EF9407748094804009
:1027A900237BFF7A24799490000FE0FF900014E4D2
:1027B900F0A3EFF0900010E0FF900016E4F0A3EF13
:1027C900F0122A45900010E06052E50D24F06021D6
:1027D90024F0602224F0602324F0602424F0602592
:1027E90024F0602624F0602724707028E50E4280CA
:1027F90022E50E429022E50E42A022E50E42B022C9
:10280900E50E42C022E50E42C822E50E42E822E565
:102819000E42F8227BFF7A2479B68058E50D24F020
:10282900602224F0602424F0602624F0602824F03B
:10283900602A24F0602C24F0602E24707030E50E9C
:10284900F4528022E50EF4529022E50EF452A022B1
:10285900E50EF452B022E50EF452C022E50EF45210
:10286900C822E50EF452E822E50EF452F8227BFF65
:102879007A2479D790000FE0FF900014E4F0A3EFD9
:04288900F0122A45DA
:01288D002228
:052BC20090027AEFF023
:102BC70064887002FF2290027AE0FF54F0F50DEF5F
:102BD700540FFF90253893F50ED3EF940774809424
:102BE7008040167BFF7A2479F890027AE0FF900004
:102BF70014E4F0A3EFF0122A45E50D24F060212438
:102C0700F0602224F0602324F0602424F06025245F
:102C1700F0602624F060272470702885800F8039A3
:102C270085900F803485A00F802F85B00F802A856F
:102C3700C00F802585C80F802085E80F801B85F889
:102C47000F80167BFF7A2479F890027AE0FF9000D4
:102C570014E4F0A3EFF0122A45E50F550E60037F49
:042C670001227F00C7
:012C6B002246
:052D100090027BEFF0D2
:102D150064887003022DACE0FF54F0F50DEF540FFD
:102D2500FF90253893F50ED3EF9407748094804077
:102D3500167BFF7A25791690027BE0FF900014E45C
:102D4500F0A3EFF0122A45E50D24F0602124F06090
:102D55002224F0602324F0602424F0602524F06010
:102D65002624F0602724707028E50E628022E50E87
:102D7500629022E50E62A022E50E62B022E50E62A7
:102D8500C022E50E62C822E50E62E822E50E62F871
:102D9500227BFF7A25791690027BE0FF900014E4F0
:072DA500F0A3EFF0122A4534
:012DAC002204
:10377600EFB40800503E903783F828287302379B31
:1037860002379F0237A30237A70237AB0237AF02D1
:1037960037B30237B7ED628022ED629022ED62A068
:1037A60022ED62B022ED62C022ED62C822ED62E82F
:0537B60022ED62F82283
:102DAD00A907EB6048E9B408004003022E46902DB8
:102DBD00C2F8282873022DDA022DDE022DE2022D33
:102DCD00E6022DEA022DEE022DF2022DF6ED4280E5
:102DDD0022ED429022ED42A022ED42B022ED42C002
:102DED0022ED42C822ED42E822ED42F822E9B40874
:102DFD00005046902E07F8282873022E1F022E240D
:102E0D00022E29022E2E022E33022E38022E3D02C4
:102E1D002E42EDF4528022EDF4529022EDF452A0A8
:102E2D0022EDF452B022EDF452C022EDF452C8223C
:0A2E3D00EDF452E822EDF452F82201
:10345F00EFB40900504590346CF828287302348774
:10346F0002348B02348F02349302349702349B025E
:10347F00349F0234A30234A7AE80801FAE90801B0E
:10348F00AEA08017AEB08013AEC0800FAEC8800B59
:10349F00AEE88007AEF880037F0122EE5D60037F08
:0434AF0001227F0077
:0134B30022F6
:083A53003031363716174344E9
:1038B50075985053873F538EDEE4FD7F011235FD29
:1038C50090000D12071A0001C2007F011237BB4399
:1038D5008E4053890FC2ABC28FD28EC209D2AC22A1
:1035FD0090000CEDF0EF14704490000CE0FF54C0FF
:10360D00FEE5A2543F4EF5A2EFC41313540325E07B
:10361D002453F582E4343AF583E493FFE4FD121864
:10362D002190000CE0C41313540325E02454F582BB
:0E363D00E4343AF583E493FF7D031218212252
:0537BB0090000CEFF08E
:1037C000E47B04FAF9F890024EE0FCA3E0FDA3E0EC
:1037D000FEA3E0FF12065890000DE0F8A3E0F9A365
:1037E000E0FAA3E0FB120658C3E49FFFE49EFE90BC
:0B37F000000CE01470058F8BEEF58DCF
:0137FB0022AB
:0E3A3000EF147009AF058F99D2092009FD220D
:1039EE00EF147016EB6006D29BD29B8004C29BC272
:0B39FE009BAF058F99D2092009FD2224
:10387E00900076EBF0A3EAF0A3E9F0AE07900076A5
:10388E00E0FBA3E0FAA3E0F91204C06019AF0690C2
:10389E000076A3E475F0011205B7A9F0FA1204C080
:0738AE00FD123A3080D72221
:0E3291009001C5EFF0A3EBF0A3EAF0A3E9F083
:10329F009002317401F0A37401F0A374C9F090018E
:1032AF00C6E0F9A3E0FAA3E0900083C9F0A3EAF027
:1032BF00A3E9F0900231E0F9A3E0FAA3E0900086D1
:1032CF00C9F0A3EAF0A3E9F07B017A0179F1123694
:1032DF00E5900231E4F0A3F0A3F09001C5E0FF7B8D
:0832EF00017A0179F102387E39
:0300230002372F72
:10372F00C0E0C0F0C083C082C0D075D000C000C060
:10373F0001C002C003C004C005C006C00730980511
:10374F00C298123975309904C299C209D007D006B0
:10375F00D005D004D003D002D001D000D0D0D08279
:07376F00D083D0F0D0E0325E
:083A1000410261004102600067
:10355C009000021204D9FF900260E06F60421204E6
:10356C00C0FEC4540F90025EF0EE540FFEF87401CE
:10357C00088002C333D8FC90025FF0900001120463
:10358C00D9FEC4540F90025CF0EE540FFEF8740197
:10359C00088002C333D8FC90025DF0900260EFF01B
:0135AC0022FC
:102ED30090026DEBF0A3EAF0A3E9F0A3EDF090020A
:102EE3006DE0FBA3E0FAA3E0F9ED12050690027191
:102EF300E0FF90026DE0FBA3E0FAA3E0F99000018C
:102F0300EF120518900270E0FF7D02121821900263
:102F130071E0FF7D02121821900270E0FF7D011223
:102F2300266D900271E0FF7D0112266D900270E024
:102F3300FF7D0112277F900271E0FF7D0112277F41
:102F4300900261E004FFF090026DE0FBA3E0FAA3BE
:0C2F5300E0F9900002EF12051802355C56
:1037FC00900260E06F6039EDC4540F90025EF0ED02
:10380C00540FFEF87401088002C333D8FC90025F99
:10381C00F0EBC4540F90025CF0EB540FFEF8740103
:10382C00088002C333D8FC90025DF0900260EFF088
:01383C002269
:0A34B40090000EEDF090000DEFF017
:1034BE007D0212182190000EE0FF7D02121821905D
:1034CE00000DE0FF7D0112266D90000EE0FF7D01E4
:1034DE0012266D90000DE0FF7D0112277F90000EE9
:1034EE00E0FF7D0112277F900261E004F0FCFF9067
:0A34FE00000DE0FDA3E0FB0237FC27
:1034080090025CE0FFA3E0FD7B01122DAD90025E0F
:10341800E0FFA3E0FD7B01122DAD90025CE0FFA36D
:10342800E0FD12345FEF70037FFF2290025CE0FF43
:10343800A3E0FD12377690025CE0FFA3E0FD1234B2
:103448005FEF640170037FFF2290025EE0FFA3E05C
:07345800FD1237767F002210
:1038E50090025CE0FFA3E0FDE4FB122DAD90025ECB
:1038F500E0FFA3E0FDE4FB122DAD90025EE0FFA327
:10390500E0FD12377690025CE0FFA3E0FD0237761A
:1039150090025EE0FFA3E0FDE4FB122DAD90025C9A
:10392500E0FFA3E0FDE4FB122DAD90025EE0FFA3F6
:10393500E0FD12377690025EE0FFA3E0FD023776E8
:1039450090025EE0FFA3E0FDE4FB122DAD90025C6A
:10395500E0FFA3E0FD7B01122DAD90025EE0FFA329
:10396500E0FD12377690025EE0FFA3E0FD023776B8
:10364B0090025EE0FFA3E0FDE4FB122DAD90025C67
:10365B00E0FFA3E0FD7B01122DAD90025EE0FFA326
:10366B00E0FD12377690025CE0FFA3E0FD12345FC1
:10367B00EF640190025E700BE0FFA3E0FD12377662
:0E368B007FFF22E0FFA3E0FD1237767F0022D2
:052F5F0090001FEFF0DF
:102F6400900021F090025C30E709E0FFA3E0FD7BD4
:102F7400018007E0FFA3E0FDE4FB122DAD90025EAB
:102F8400E0FFA3E0FDE4FB122DADE4900020F090FF
:102F94000020E0C3940874809480504490001FE0A3
:102FA400FF900021E06F30E70B90025CE0FFA3E0AC
:102FB400FD12377690025EE0FFA3E0FD12377690B3
:102FC400001FE0900021F025E090001FF090025EC9
:102FD400E0FFA3E0FD123776900020E004F080AF1C
:012FE40022CA
:10322900E490001FF090025CE0FFA3E0FD7B011237
:103239002DADE490001EF090001EE0C39408748048
:103249009480503EA3E025E0F090025EE0FFA3E009
:10325900FD7B01122DAD90025CE0FFA3E0FD12346D
:103269005FEF6401700790001FE04401F090025E77
:10327900E0FFA3E0FDE4FB122DAD90001EE004F099
:0732890080B590001FE0FF7B
:01329000221B
:0B31BF00900272EBF0A3EAF0A3E9F02D
:1031CA00E4900276F0900275F0900275E0C3948064
:1031DA00748094805043123408900275E025E0FF11
:1031EA00122F5F12364BEF7025900275E025E0FF33
:1031FA00900272E0FBA3E0FAA3E0F9900276E0F510
:10320A0082758300EF120518900276E004F01238F6
:0E321A00E5900275E004F080B0900276E0FFCF
:013228002283
:1021EA006D6F64656C3D756E6B6F6E770D0A006D71
:1021FA006F64656C3D415432344330310D0A006DD1
:10220A006F64656C3D415432344330320D0A006DBF
:10221A006F64656C3D415432344330340D0A006DAD
:10222A006F64656C3D415432344330380D0A006D99
:10223A006F64656C3D415432344331360D0A006D8A
:10224A006F64656C3D415432344333320D0A006D7C
:10225A006F64656C3D415432344336340D0A006D67
:10226A006F64656C3D41543234433132380D0A0093
:10227A006D6F64656C3D41543234433235360D0A14
:10228A00006D6F64656C3D41543234433531320D13
:10229A000A00253033752D4F6B210D0A0025303386
:1022AA00752D496E6974206572726F72210D0A006C
:1022BA00253033752D4E6F61636B206572726F72B4
:1022CA00210D0A00253033752D53656E6420657221
:1022DA00726F72210D0A00253033752D41646472C4
:1022EA00206572726F72210D0A00253033752D4EEA
:1022FA00756D626572206572726F72210D0A002017
:10230A00202020202030302030312030322030333D
:10231A0020303420303520303620303720303820F5
:10232A0030392030412030422030432030442030A0
:10233A00452030460D0A002D2D2D2D2D2D2D2D2D0C
:10234A002D2D2D2D2D2D2D2D2D2D2D2D2D2D2D2DB3
:10235A002D2D2D2D2D2D2D2D2D2D2D2D2D2D2D2DA3
:10236A002D2D2D2D2D2D2D2D2D2D2D2D2D2D0D0AD6
:10237A0000253034583A20002530325820007C009D
:10238A0025630020000D0A00746F74616C3A256C95
:04239A00750D0A00B3
:043A180041027C00EB
:10383D0090000DEBF0A3EAF0A3E9F090000DE0FB92
:10384D00A3E0FAA3E0F99000011204D9FF90000261
:10385D001204D9FD9000031204D9FB1237FC90001D
:10386D000DE0FBA3E0FAA3E0F91204C090027CF096
:01387D002228
:1035AD00900262EBF0A3EAF0A3E9F0900266E0FF6F
:1035BD00900262E0FBA3E0FAA3E0F9900002EF12A3
:1035CD000518900267E0900003120518ED1205062C
:1035DD00900266E0FFA3E0FD1234B4900262E0FBBE
:1035ED00A3E0FAA3E0F9900001EF12051802383DAF
:1007BE00900008EEF0A3EFF0A3EBF0A3EAF0A3E9AC
:0107CE00F03A
:1007CF0090027CE0FB54F012076B07FE000801104B
:1007DF00081D20082F30084640086050087C60082C
:1007EF00887008948008A09008ACA0000008C87F0B
:1007FF00012290001312071A00000080EB54072407
:10080F005090001EF090001D7408F00208C8900070
:10081F001312071A0000010090027CE05407803F7A
:10082F0090001312071A00000200900008E0FF90DA
:10083F00027CE05406801590001312071A00000482
:10084F0000900008E0FF90027CE0540424502F80B9
:10085F001090001312071A00000800900008E024FF
:10086F005090001EF090001D7410F0804C900013FB
:10087F0012071A00001000802E90001312071A00A2
:10088F00002000802290001312071A000040008001
:10089F001690001312071A00008000800A900013B0
:1008AF0012071A0001000090027CE05407245090B8
:1008BF00001EF090001D7420F0900008E0FEA3E0F1
:1008CF00FFE4FCFD900013E0F8A3E0F9A3E0FAA326
:1008DF00E0FBC31206EA50037F042290000DE0FEF6
:1008EF00A3E0FBAA06900008E0FEA3E0FFEF2BFFBA
:1008FF00EE3AFEE433FDE433FC900013E0F8A3E09E
:10090F00F9A3E0FAA3E0FBC31206EA50289000080F
:10091F00E0FEA3E0FBAA06900013E0FCA3E0FDA31A
:10092F00E0FEA3E0C39BFFEE9AFEED9400FDEC9476
:10093F0000FCA3800E90000DE0FEA3E0FFE4FCFDA1
:10094F0090001712070E90001DE0FD7C009000082C
:10095F00E0FEA3E0FF12054C90001BEEF0A3EFF0BA
:10096F0012340890001EE025E0FF122F5F12364B65
:10097F00EF6003020BC190001DE064207011900026
:10098F0008E0FF122F5F12364BEF6003020BC1908E
:10099F000009E0FF122F5F12364BEF6003020BC10D
:1009AF0090000F12071A00000000900017E0FCA340
:1009BF00E0FDA3E0FEA3E0FF90000FE0F8A3E0F955
:1009CF00A3E0FAA3E0FBC31206EA4003020C159062
:1009DF000008E0FEA3E0FFE4FCFD90000FE0F8A3A9
:1009EF00A3A3E02FFFEA3EFEED39FDEC38FCC00774
:1009FF0090001DE0FBE4FAF9F8D007120658A8049E
:100A0F00A905AA06AB0790001BE0FEA3E0FFE4FCDC
:100A1F00FDC31206EA7003020BC7900008E0FEA3A5
:100A2F00E0FFE4FCFD90000FE0F8A3E0F9A3E0FA8B
:100A3F00A3E02FFFEA3EFEED39FDEC38FCC0079036
:100A4F00001DE0FBE4FAF9F8D00712065890001BDE
:100A5F00EEF0A3EFF01238E590027CE0FF54F012B5
:100A6F00076B0A93100B2D200A97300AC7400AFA1A
:100A7F00500B2D600B2D700B2D800B2D900B2DA07F
:100A8F0000000B39EF020B27900008E0FEA3E0FFF8
:100A9F00E4FCFD90000FE0F8A3E0F9A3E0FAA3E077
:100AAF002FFFEA3EFEED39FDEC38FC78081206FB0D
:100ABF0090027CE05406802E900008E0FEA3E0FF39
:100ACF00E4FCFD90000FE0F8A3E0F9A3E0FAA3E047
:100ADF002FFFEA3EFEED39FDEC38FC78081206FBDD
:100AEF0090027CE0540424502F803B900008E0FEDD
:100AFF00A3E0FFE4FCFD90000FE0F8A3E0F9A3E012
:100B0F00FAA3E02FFFEA3EFEED39FDEC38FC780842
:100B1F001206FBEF2450800E5407245080089002D9
:100B2F007CE05407245090001EF07F0A7E001200D4
:100B3F000312340890001EE025E0FF122F5F1236DB
:100B4F004BEF6002806C90001DE0642070379000C6
:100B5F0008E0FEA3E0FFE4FCFD90000FE0F8A3E047
:100B6F00F9A3E0FAA3E02FFFEA3EFEED39FDEC38E2
:100B7F00FCE4FB7A01F9F8120658122F5F12364B7C
:100B8F00EF6002802D900008E0FEA3E0FFE4FCFD83
:100B9F0090000FE0F8A3E0F9A3E0FAA3E02FFFEA3B
:100BAF003EFEED39FDEC38FCE4122F5F12364BEFB1
:100BBF0060061238E57F022290000FA3A3E0FEA388
:100BCF00E0FF90000AE0FBA3E0FAA3E0F98F828E2A
:100BDF00831204D9FF122F5F12364BEF60061238C3
:100BEF00E57F032290000FE0FCA3E0FDA3E0FEA34E
:100BFF00E02401FFE43EFEE43DFDE43CFC90000FE9
:100C0F0012070E0209B91238E57F0A7E001200039F
:100C1F0090000DE0FEA3E0FBAA06900008E0FEA303
:100C2F00E0FFEF2BFFEE3AFEE433FDE433FC9000E0
:100C3F0013E0F8A3E0F9A3E0FAA3E0FBC31206EA7E
:070C4F0050037F05227F0026
:010C5600227B
:101B3500900008EEF0A3EFF0A3EBF0A3EAF0A3E921
:011B4500F0AF
:101B460090027CE0FB54F012076B1B75001B7810AB
:101B56001B85201B95301BAC401BC6501BD8601B39
:101B6600EC701C00801C14901C28A000001C3E7FFA
:101B7600012290001312071A00000080EB8061908A
:101B8600001312071A0000010090027CE0805190B9
:101B9600001312071A00000200900008E0FF9002EE
:101BA6007CE05406801590001312071A000004000A
:101BB600900008E0FF90027CE0540424502F8074CB
:101BC60090001312071A00000800900008E0245045
:101BD600806290001312071A0000100090027CE049
:101BE60054072450804E90001312071A000020005C
:101BF60090027CE054072450803A90001312071A92
:101C06000000400090027CE054072450802690009B
:101C16001312071A0000800090027CE0540724503B
:101C2600801290001312071A0001000090027CE057
:101C36005407245090001BF0900008E0FEA3E0FF3C
:101C4600E4FCFD900013E0F8A3E0F9A3E0FAA3E0BA
:101C5600FBC31206EA50037F042290000DE0FEA3A8
:101C6600E0FBAA06900008E0FEA3E0FFEF2BFFEEE4
:101C76003AFEE433FDE433FC900013E0F8A3E0F908
:101C8600A3E0FAA3E0FBC31206EA5028900008E09E
:101C9600FEA3E0FBAA06900013E0FCA3E0FDA3E090
:101CA600FEA3E0C39BFFEE9AFEED9400FDEC9400CC
:101CB600FCA3800E90000DE0FEA3E0FFE4FCFD9087
:101CC600001712070E12340890001BE025E0FF12E1
:101CD6002F5F12364BEF60028038E4FF7E08FDFC72
:101CE600900013E0F8A3E0F9A3E0FAA3E0FBD31217
:101CF60006EA4010900008E0FF122F5F12364BEF05
:101D06006002800E900009E0FF122F5F12364BEF43
:101D160060061238E57F022212340890001BE02587
:101D2600E004FF122F5F90000F12071A0000000058
:101D3600900017E0FCA3E0FDA3E0FEA3E0FF900007
:101D46000FE0F8A3E0F9A3E0FAA3E0FBC31206EA6A
:101D56005047123915123229C00790000FA3A3E08D
:101D6600FEA3E0FF90000AE0FBA3E0FAA3E0F98FF0
:101D7600828E83D0E012051890000FE0FCA3E0FDF0
:101D8600A3E0FEA3E02401FFE43EFEE43DFDE43CC7
:101D9600FC90000F12070E80971239451238E59015
:101DA600000DE0FEA3E0FF900009E02FFF90000881
:101DB600E03EFEE4FCFD900013E0F8A3E0F9A3E0AA
:0F1DC600FAA3E0FBC31206EA50037F05227F0059
:011DD50022EB
:1020340090027CE054F012076B206F102080202067
:10204400923020A34020B45020C56020D67020E7F1
:102054008020F8902109A00000205FE4900141F065
:10206400A3F07BFF7A2179EA022118900141E4F080
:10207400A304F07BFF7A2179F9022118900141E44D
:10208400F0A37402F07BFF7A2279090221189001EF
:1020940041E4F0A37404F07BFF7A227919807590EF
:1020A4000141E4F0A37408F07BFF7A22792980646B
:1020B400900141E4F0A37410F07BFF7A2279398017
:1020C40053900141E4F0A37420F07BFF7A22794914
:1020D4008042900141E4F0A37440F07BFF7A2279BE
:1020E400598031900141E4F0A37480F07BFF7A229F
:1020F400796980209001417401F0A3E4F07BFF7AB8
:1021040022797A800F9001417402F0A3E4F07BFFFE
:102114007A22798B1232F7E4900143F0A3F0900114
:1021240041E0FEA3E0FFC3900144E09F900143E03F
:102134009E40030221E9E4FFFE900143A3E0FD7405
:10214400452FF58274013EF583EDF00FBF00010EBB
:10215400EF64804E70E37F0A7E0012000390014317
:10216400E0FEA3E07807C333CE33CED8F9FF7B017A
:102174007A01794590000DE4F0A37480F01207BE53
:10218400EF14601814601D14602214602714602C6E
:10219400240570407BFF7A22799C80267BFF7A227B
:1021A40079A7801E7BFF7A2279BA80167BFF7A2278
:1021B40079CE800E7BFF7A2279E180067BFF7A223A
:1021C40079F4900143E0FFA3E090000BCFF0A3EF7C
:1021D400F01232F7900144E004F07006900143E0FD
:0521E40004F0022122BD
:0121E90022D3
:1014FA0090027CE054F012076B1535101546201542
:10150A005830156940157A50158B60159C7015ADC9
:10151A008015BE9015CFA000001525E49000B9F003
:10152A00A3F07BFF7A2179EA0215DE9000B9E4F094
:10153A00A304F07BFF7A2179F90215DE9000B9E461
:10154A00F0A37402F07BFF7A2279090215DE90007B
:10155A00B9E4F0A37404F07BFF7A227919807590BC
:10156A0000B9E4F0A37408F07BFF7A227929806439
:10157A009000B9E4F0A37410F07BFF7A22793980E5
:10158A00539000B9E4F0A37420F07BFF7A227949E2
:10159A0080429000B9E4F0A37440F07BFF7A22798C
:1015AA005980319000B9E4F0A37480F07BFF7A226D
:1015BA00796980209000B97401F0A3E4F07BFF7A86
:1015CA0022797A800F9000B97402F0A3E4F07BFFCD
:1015DA007A22798B1232F79000B9E07002A3E07098
:1015EA00030218207BFF7A2379091232F77BFF7AEC
:1015FA002379411232F7E49000BFF0A3F09000B9CA
:10160A00E0FEA3E0FFC39000C0E09F9000BFE09E11
:10161A0040030217F9E49000BBF0A3F09000BBE08E
:10162A00FEA3E0FFC39480EE9400501C74C12FF512
:10163A008274003EF583E4F09000BCE004F070DCB4
:10164A009000BBE004F080D49000BFE0FEA3E078F5
:10165A0007C333CE33CED8F9FF7B017A0079C19024
:10166A00000DE4F0A37480F0121B35E49000BBF087
:10167A00A3F09000BBE0FEA3E0FFC39408EE940041
:10168A0040030217E87BFF7A23797BEFC4F8540FF3
:10169A00C868FDEEC454F048FC9000BFE0FEA3E029
:1016AA007807C333CE33CED8F92DFFEE3C90000B2A
:1016BA00F0A3EFF01232F7E49000BDF0A3F090002F
:1016CA00BDE0FCA3E0FDC39410EC940050477BFFFF
:1016DA007A2379829000BCE0C4F8540FC868FF905E
:1016EA0000BBE0C454F048FEED2FFFEC3EFE74C18F
:1016FA002FF58274003EF583E0FF90000BE4F0A31F
:10170A00EFF01232F79000BEE004F070B19000BD25
:10171A00E004F080A97BFF7A2379881232F7E490FB
:10172A0000BDF0A3F09000BDE0FCA3E0FDC394105F
:10173A00EC940040030217CE9000BCE0C4F8540FAA
:10174A00C868FF9000BBE0C454F048FEED2FFFECE0
:10175A003EFE74C12FF58274003EF583E0FF7E00E1
:10176A00C39420748094804041D3EF947F74809412
:10177A008050377BFF7A23798A9000BCE0C4F85402
:10178A000FC868FF9000BBE0C454F048FE9000BE4A
:10179A00E02FFF9000BDE03EFE74C12FF582740079
:1017AA003EF583E090000BF080067BFF7A23798D6B
:1017BA001232F79000BEE004F070069000BDE0041B
:1017CA00F002172F7BFF7A23798F1232F79000BC31
:1017DA00E004F070069000BBE004F002167C900072
:1017EA00C0E004F070069000BFE004F00216077B28
:1017FA00FF7A2379411232F79000BFE0FEA3E0FF9F
:10180A007C007D8012079190000B12070E7BFF7AF5
:06181A002379921232F75F
:0118200022A5
:10369900900018EFF0A3EDF0A3EBF01234089000BE
:1036A90018E0FF122F5F12364BEF6002800E900078
:1036B90019E0FF122F5F12364BEF60061238E57FD3
:1036C900022290001AE0FF122F5F12364BEF6006BC
:0C36D9001238E57F03221238E57F002242
:0930E20090000FE0FF7B017D7FEF
:1030EB00900018EFF0A3EDF0A3EBF0A3EAF0A3E947
:1030FB00F0123408900018E0FF122F5F12364BEFDE
:10310B0060028022900019E0FF122F5F12364BEF06
:10311B0060028012123408900018E004FF122F5F37
:10312B0012364BEF60061238E57F022212322990DD
:10313B00001AE0FBA3E0FAA3E0F9EF12050612393F
:07314B00451238E57F002268
:0E31520090000FE0FF90000DE0FB7DFF7C0F72
:10316000900018EFF0A3ECF0A3EDF0A3EBF0123415
:1031700008900018E0FF122F5F12364BEF600280BC
:103180001E900019E0FF122F5F12364BEF60028095
:103190000E90001AE0FF122F5F12364BEF600612FE
:1031A00038E57F022290001BE0FF122F5F12364BA2
:0F31B000EF60061238E57F03221238E57F002218
:0B2FE50090000FE0FF7B017DFF7C0FE0
:102FF000900018EFF0A3ECF0A3EDF0A3EBF0A3EA40
:10300000F0A3E9F0123408900018E0FF122F5F12CD
:10301000364BEF60028032900019E0FF122F5F12F2
:10302000364BEF6002802290001AE0FF122F5F12F1
:10303000364BEF60028012123408900018E004FF53
:10304000122F5F12364BEF60061238E57F02221214
:10305000322990001BE0FBA3E0FAA3E0F9EF120590
:0A306000061239451238E57F002200
:1010DA00E490000EF090000DF090000DE0C394082B
:1010EA0074809480503912340890000DE025E02471
:1010FA00A0FF122F5F12364BEF701990000EE070AE
:10110A000D90000DE0FF25E024A090000FF0900064
:10111A000EE004F01238E590000DE004F080BA9079
:10112A00000EE0FD7C00640870037F5022ED640429
:10113A004C700C90000FE0C31354042440FF22901B
:10114A00000EE0FD7C006402700AA3E0C31354069B
:10115A002430FF22ED64014C60030214F77A00790F
:10116A00101230E290000FE0FF7B017A0079117DC6
:10117A00FF1230EB90000FE0FFA3E004FB7D7F122B
:10118A0036997F0A7E0012000390000FE0FF90005C
:10119A0011E02402FB7DFF1236997F0A7E001200BD
:1011AA00037A0079121230E290000FE0FF7B017A95
:1011BA000079137DFF1230EB900013E0FF900012CC
:1011CA00E06F7029900011E024026F702090000FE8
:1011DA00E0FFA3E0FB7D7F1236997F0A7E001200B2
:1011EA000390000FE0C31354072410FF229000104D
:1011FA00E0FB04FF900012E06F7041900011E024C0
:10120A0002FF900013E06F703390000FE0FF7D7FC4
:10121A001236997F0A7E0012000390000FE0FF90B9
:10122A000011E0FB7DFF1236997F0A7E001200034F
:10123A0090000FE0C31354072420FF227A00790D8F
:10124A00122FE590000FE0FF7B017A0079107DFFF5
:10125A007C1F122FF090000FE0FF7B017A007911BA
:10126A007DFF7C3F122FF090000FE0FF7B017A0098
:10127A0079127DFF7C7F122FF090000FE0FF7B0137
:10128A007A00791374FFFDFC122FF090000FE0FF33
:10129A00A3E004FB7DFF7C1F1231607F0A7E0012EF
:1012AA00000390000FE0FF900011E02402FB7DFF95
:1012BA007C3F1231607F0A7E0012000390000FE02B
:1012CA00FF900012E02403FB7DFF7C7F1231607FD8
:1012DA000A7E0012000390000FE0FF900013E02442
:1012EA0004FB74FFFDFC1231607F0A7E00120003CA
:1012FA007A00790E122FE590000FE0FF7B017A0049
:10130A0079147DFF7C1F122FF090000FE0FF7B0104
:10131A007A0079157DFF7C3F122FF090000FE0FFD5
:10132A007B017A0079167DFF7C7F122FF090000FE7
:10133A00E0FF7B017A00791774FFFDFC122FF09011
:10134A000014E0FF90000EE0FE6F701F900013E0A3
:10135A0024046E70161231527F0A7E001200039026
:10136A00000FE0C31354072460FF22900015E0FF2A
:10137A00900014E0FE6F7035900013E024046E7044
:10138A002C1231527F0A7E0012000390000FE0FFF8
:10139A00A3E0FB7DFF7C1F1231607F0A7E001200F2
:1013AA000390000FE0C31354072470FF2290001625
:1013BA00E0FF900015E0FE6F704D900013E02404EA
:1013CA006E70441231527F0A7E0012000390000FA1
:1013DA00E0FFA3E0FB7DFF7C1F1231607F0A7E00E5
:1013EA0012000390000FE0FF900011E0FB7DFF7CEC
:1013FA003F1231607F0A7E0012000390000FE0C3A3
:10140A001354072480FF22900017E0FF900016E093
:10141A00FE6F7065900013E024046E705C12315206
:10142A007F0A7E0012000390000FE0FFA3E0FB7D1D
:10143A00FF7C1F1231607F0A7E0012000390000FAA
:10144A00E0FF900011E0FB7DFF7C3F1231607F0AD4
:10145A007E0012000390000FE0FF900012E0FB7D77
:10146A00FF7C7F1231607F0A7E0012000390000F1A
:10147A00E0C31354072490FF221231527F0A7E00E0
:10148A0012000390000FE0FFA3E0FB7DFF7C1F1218
:10149A0031607F0A7E0012000390000FE0FF900087
:1014AA0011E0FB7DFF7C3F1231607F0A7E00120053
:1014BA000390000FE0FF900012E0FB7DFF7C7F129B
:1014CA0031607F0A7E0012000390000FE0FF900057
:1014DA0013E0FB74FFFDFC1231607F0A7E001200EC
:0F14EA000390000FE0C313540724A0FF227F00DC
:0114F90022D0
:10350800AF05900008EBF0A3EAF0A3E9F090000201
:10351800EF12051890000CE0FD9000031205181238
:1035280034B4900008E0FBA3E0FAA3E0F9900001AE
:10353800EF1205181210DA900008E0FBA3E0FAA3D6
:10354800E0F9EF120506900008E0FBA3E0FAA3E01B
:04355800F902383DFF
:1036E500900083E0FFA3E0FEA3E0CF90008CF0A361
:1036F500EEF0A3EFF0900086E0CBF0A3E0CAF0A3D4
:10370500E0C9F07F2290008FAD82AC831204C08D9A
:10371500828C83F0A309E970010ADFEC900086E052
:0A372500FBA3E0FAA3E0F9020CBCDC
:100C5700E508248CF582E43400F583E0050822904A
:100C6700008930070390008CE475F00112074B02EE
:100C770004C02000E97F2ED2008018EF540F249083
:100C8700D43440D4FF30040BEF24BFB41A00500310
:100C97002461FFE50960021509050CE50C700205E2
:100CA7000B30070E900089E475F00112074BEF0235
:100CB70005060239A17403D2078003E4C207F508C9
:100CC700900089120762E4F509F50BF50CE5096058
:100CD700077F20120C9A80F5750AFFC201C200C275
:100CE70002C203C205C206C208120C66FF700D30AD
:100CF70007057F00120CABAF0CAE0B22B4255FC209
:100D0700D5C204120C66FF24D0B40A00501A75F03D
:100D17000A780930D50508B6FF0106C6A426F620CD
:100D2700D5047002D20380D924CFB41A00EF50043F
:100D3700C2E5D204020F9DD20180C6D20080C0D284
:100D47000280BCD2D580BAD20580B47F20120C9A1B
:100D57002002077401B5090040F1120C57FF120C6D
:100D67009A020CD4D208D2068095120C57FB120CAB
:100D770057FA120C57F94A4B7006799B7A107BFF8A
:100D870020022EE509602A7E008E827583001204F8
:100D9700D960060EEE650A70F0C2D5EBC0E0EAC076
:100DA700E0E9C0E0EE120FFED0E0F9D0E0FAD0E0C3
:100DB700FB1204C0FF60AAEBC0E0EAC0E0E9C0E0B4
:100DC700120C9AD0E02401F9D0E03400FAD0E0FB0D
:100DD700E50A0460DCD50AD98087D20280A2120F07
:100DE700E060F7E50A700104120026A90A600DE524
:100DF7000A600914F50A121088EF60F3EA30E70277
:100E0700F404C3995079EAF4250A0430E701E404AD
:100E1700F50A800D120FE060C1EA050A250A1200E3
:100E270026EA9000B8F030E701E4250A04D50A0461
:100E370020050114120FFEE4C0E01210889000B8DC
:100E4700E0601320E70714F0120C82802204F0D030
:100E5700E014C0E07F00120C82E50A6007120C79EB
:100E6700150A800B300503120C79D0E0020CD4D0A0
:100E7700E00480C4120FE0609EE50A041200269089
:100E870000B8EAF0E50A2005026001042404120F05
:010E9700FE5C
:100E980074FF04C0E0121088120C82E50A200502D3
:100EA8006003120C79D0E0B50AE87F45120C8C90EB
:100EB80000B8E07F2B30E7047F2DF404C0E0120C6B
:100EC8009AD0E075F00A84C0F0120C83D0E0120CBE
:100ED80083020CD4791080027908C206C2088008FF
:100EE800D2D5790A8004790AC2D5E50A047002F5D8
:100EF8000AE4FAFDFEFF120C57FC7B0820011312CE
:100F08000C57FD7B1030000A120C57FE120C57FFCD
:100F18007B20EC3382D592D55013C3E43000069F72
:100F2800FFE49EFEE42001039DFDE49CFCE4CBF875
:100F3800C201EC700CCFCECDCCE824F8F870F38069
:100F480017C3EF33FFEE33FEED33FDEC33FCEB3329
:100F5800FB994002FB0FD8E9EB300105F8D0E0C45B
:100F680048B201C0E00AEC4D4E4F78207B0070C2B9
:100F7800EAB50A0040BCC0E0121000D0F0D0E02072
:100F88000104C4C0E0C4B201C0F0120C83D0F0D593
:100F9800F0EB020CD412076B0D71530EDC580D42A6
:100FA8004C0D3E420EE04F0EE8440EE8490D574303
:100FB8000EEE550E1B460E7B450DE54710BB500D3A
:100FC800462D0D4A2E0D6D2B0D4E230D6B2010A4B2
:100FD8002A0D064800000D65E50AB4FF03750A06E8
:100FE800120C57FC120C57FD120C57FE120C57FF2F
:100FF8009000B1020063790AA2D5200314300509D4
:10100800B910020404B9080104A2D520060250014F
:10101800042002689202B509005034C0E07F2030F5
:1010280003197F30A20272067205500F121057C2C0
:1010380002C206C205C2087F30800F300503E9C02E
:10104800E0120C9A300503D0E0F9D0E0B509CC30B5
:1010580005177F30B9100C120C9A7F583004077F9F
:10106800788003B90803120C9A3002057F2D020C10
:101078009A7F202008F87F2B2006F322920280CF47
:101088007F00B40700500B24B1F582E43400F583E7
:10109800E0FF22286E756C6C2900D201120C5730C3
:1010A80001F8C201780930D50108F6020D062D5065
:1010B800434958120C572403B405004001E490102A
:1010C800B693120C8B743A120C8BD2037509040276
:0210D8000EDC2C
:10002600F920E73624F950037907E4F42402FBE5C6
:1000360082158270021583DBF6E024FB501BE96013
:1000460014E4F0E582158270021583E004F0B40A28
:0D00560008E4F0D9EE7401F00A22C2D522B0
:10006300ED33EC3392D5FA602AB4FF33EDC2E77B6C
:10007300FF60067A007988E4227A00799120D5041A
:100083007A00798C224E614E002B494E46002D4951
:100093004E4600E47A08F0A3DAFC7B00740722C022
:1000A30083C082ECC0E0EDC0E0EEC0E0EFC0E0EA68
:1000B30075F010A4CAABF075F04DA42BFBE435F03A
:1000C300FCEA2410FAEB34C5FBEC34D9FCEDC2E7AF
:1000D300FF75F056A4F42411C5F0F434C58FF0A4D1
:1000E3002AE5F03BE43CF020E714120436D0E0FFAD
:1000F300D0E0FED0E0FDD0E0FC1203698014F404EC
:10010300120436D0E0FFD0E0FED0E0FDD0E0FC12D8
:100113000260D082D083E0FAEDD2E7CD33EC332412
:1001230082FBE4C3CF33CFCE33CECD33CD33DBF33A
:100133007B0775F00A846004F0A31B0AE5F0F0A3C3
:100143008FF0740AA4FFACF08EF0740AA42CFEACFA
:10015300F050010C8DF0740AA42CFDE435F0F0A3EB
:05016300DBDE74072241
:100168000204ABE86480F8E933E83360110460F016
:10017800ED33EC337009E8FCE9FDEAFEEBFF2204FD
:1001880060DED3EB9FEA9EE99DE8C2E78CF0C2F7F8
:1001980095F0400CE8CCF8E9CDF9EACEFAEBCFFBC4
:1001A80012047685D0F05804700320D5B3E80470A3
:1001B800075002B2D50204B592D5EC0460F7E4CC3E
:1001C800C0E0C398F8603B94186008400DD0E0FB8D
:1001D80002048DE4FBFAC9FC8028E830E406E4C98F
:1001E800FBE4CAFCE830E305E4C9CACBFCE85407E1
:1001F8006010F8C3E913F9EA13FAEB13FBEC13FCEC
:10020800D8F130F52FC3E49CFCEF9BFFEE9AFEED8E
:1002180099FDD0E0FBEF4E4D4C701222DB03020437
:10022800B2EC2CFCEF33FFEE33FEED33FDED30E79F
:10023800EB02048DEF2BFFEE3AFEED39FDD0E0FB2B
:1002480050130BBB00030204B5ED13FDEE13FEEFD4
:0802580013FFEC13FC02048DFE
:10026000EC4D6011E8497017ED33EC3304600DE498
:10027000FCFFFEFD22E933E8330470F80204AB1200
:10028000047658046009E4CC248150062850090201
:1002900004B52840030204B2C0E0EB4A7044B980C0
:1002A00006D0E0FB0204A1EF4E701CBD8008EBFFFE
:1002B000EAFEE9FD80EBE98DF0A4FEE5F0020349DA
:1002C000E9CDF9EAFEEBFFEF89F0A4FCE5F0CE8979
:1002D000F0A42EFFE435F0CD89F0A42DFEE435F036
:1002E0008067EF4E7005BD80D780C3EF8BF0A4AC64
:1002F000F0EE8BF0A42CFCE435F0F8EF8AF0A42C9F
:10030000E5F038FCE433CB8DF0A42CFCE5F03BF8B1
:10031000EE8AF0A42CFCE5F038F8E433CF89F0A4A1
:100320002CFCE5F038CF3400CE89F0A42FFFE5F0A7
:100330003EFEE433C98DF0A42EFEE5F039CD8AF0FF
:10034000A42FFFE5F03EFEE43DFD33D0E0FB500777
:100350000BBB000F0204B5EC2CFCEF33FFEE33FEB9
:06036000ED33FD02048DE7
:100366000204B5EC5D046005E8590470030204ABB1
:10037600120476580460F6EC4860F2EC7004FDFE58
:10038600FF22C860DB2481C85009C398600250066A
:100396000204B29850CAF582E9294B4A7005AB822D
:1003A6000204A175F0007C1A7880C3EF9BEE9AEDEB
:1003B60099400DC3EF9BFFEE9AFEED99FDE842F0E2
:1003C600DC23ACF0D0E0FFD0E0FED0E0FDAB822035
:1003D600E7101BEB60BAEC2CFCEF33FFEE33FEEDBF
:1003E60033FD02048DE803F830E705C0F075F00030
:1003F600EF2FFFEE33FEED33FD40B830E7C280AAA3
:100406003F8000004120000042C80000447A0000FE
:10041600461C400047C35000497424004B18968080
:100426004CBEBC205A0E1BCA6753C21C749DC5AE77
:10043600FB60065407601C2323120464EB543860E7
:100446000912045012045F120260ECF8EDF9EEFA9C
:10045600EFCB22EB12045F80F1543803241C900486
:1004660006FE93FC0EEE93FD0EEE930ECE93FF2248
:10047600E9D2E7C933E833F892D5EDD2E7CD33ECCC
:0704860033FC5002B2D52245
:10048D00EC30E7100FBF000C0EBE00080DBD0004D0
:10049D000BEB6014A2D5EB13FCED92E7FD2274FF7C
:1004AD00FCFDFEFF22E480F8A2D574FF13FC7D80D5
:0304BD00E480EFE9
:102E530002306AE493A3F8E493A34003F68001F2FB
:102E630008DFF48029E493A3F85407240CC8C33380
:102E7300C4540F4420C8834004F456800146F6DF4F
:102E8300E4800B0102040810204080903A09E47E9C
:102E9300019360BCA3FF543F30E509541FFEE49344
:102EA300A360010ECF54C025E060A840B8E493A30B
:102EB300FAE493A3F8E493A3C8C582C8CAC583CA36
:102EC300F0A3C8C582C8CAC583CADFE9DEE780BEEE
:013A1C0000A9
:1004C000BB010689828A83E0225002E722BBFE023A
:0904D000E32289828A83E493226D
:1004D900BB010CE58229F582E5833AF583E02250D8
:1004E90006E92582F8E622BBFE06E92582F8E22222
:0D04F900E58229F582E5833AF583E493223C
:10050600BB010689828A83F0225002F722BBFE01D4
:02051600F322CE
:10051800F8BB010DE58229F582E5833AF583E8F019
:10052800225006E92582C8F622BBFE05E92582C8C5
:02053800F222AD
:10053A00EF8DF0A4A8F0CF8CF0A428CE8DF0A42ED5
:02054A00FE228F
:10054C00BC000BBE0029EF8DF084FFADF022E4CC93
:10055C00F875F008EF2FFFEE33FEEC33FCEE9DEC5C
:10056C00984005FCEE9DFE0FD5F0E9E4CEFD22EDA2
:10057C00F8F5F0EE8420D21CFEADF075F008EF2FEC
:10058C00FFED33FD4007985006D5F0F222C398FDDD
:05059C000FD5F0EA227A
:1005A100C5F0F8A3E028F0C5F0F8E58215827002E5
:0605B1001583E038F02282
:1005B700A3F8E0C5F025F0F0E582158270021583F7
:0605C700E0C838F0E82254
:1005CD00E88FF0A4CC8BF0A42CFCE98EF0A42CFCCD
:1005DD008AF0EDA42CFCEA8EF0A4CDA8F08BF0A44B
:1005ED002DCC3825F0FDE98FF0A42CCD35F0FCEBAA
:1005FD008EF0A4FEA9F0EB8FF0A4CFC5F02ECD396F
:0F060D00FEE43CFCEAA42DCE35F0FDE43CFC22DB
:10061C0075F008758200EF2FFFEE33FECD33CDCC95
:10062C0033CCC58233C5829BED9AEC99E582984018
:10063C000CF582EE9BFEED9AFDEC99FC0FD5F0D6F5
:10064C00E4CEFBE4CDFAE4CCF9A88222B800C1B91F
:10065C000059BA002DEC8BF084CFCECDFCE5F0CB5D
:10066C00F97818EF2FFFEE33FEED33FDEC33FCEB96
:10067C0033FB10D703994004EB99FB0FD8E5E4F951
:10068C00FA227818EF2FFFEE33FEED33FDEC33FC3E
:10069C00C933C910D7059BE99A4007EC9BFCE99A32
:1006AC00F90FD8E0E4C9FAE4CCFB2275F010EF2F77
:1006BC00FFEE33FEED33FDCC33CCC833C810D70777
:1006CC009BEC9AE899400AED9BFDEC9AFCE899F8B2
:0E06DC000FD5F0DAE4CDFBE4CCFAE4C8F92245
:1006EA00EB9FF5F0EA9E42F0E99D42F0E89C45F066
:0106FA0022DD
:1006FB00E8600FECC313FCED13FDEE13FEEF13FFDD
:03070B00D8F12200
:0C070E00ECF0A3EDF0A3EEF0A3EFF0225E
:10071A00A8828583F0D083D0821207311207311262
:10072A000731120731E473E493A3C583C5F0C58387
:10073A00C8C582C8F0A3C583C5F0C583C8C582C829
:01074A00228C
:10074B00F8E0FBA3A3E0F925F0F0E5821582700237
:07075B001583E0FA38F022DB
:09076200EBF0A3EAF0A3E9F02298
:10076B00D083D082F8E4937012740193700DA3A31D
:10077B0093F8740193F5828883E473740293686031
:06078B00EFA3A3A380DF31
:10079100EC8EF0A4CCC5F0CCCDF8EFA4CEC5F02DF5
:1007A100FDE43CFCE8A42EC8C5F03DFDE43CFCEFB3
:0D07B100A4FFE5F028FEE43DFDE43CFC2241
:1039A100EFB40A07740D1239AC740A309811A89952
:1039B100B8130CC2983098FDA899C298B811F63086
:0739C10099FDC299F599225E
:00000001FF
