:030000000227963E
:0C279600787FE4F6D8FD7581210227DD74
:1035E60073636C3D7033362C7364613D7033370002
:0935F60048692C6F6C656421002A
:103264001212BE90000374FFF0A37435F0A374E649
:10327400F07B017A0179A3120026E4900004F0A304
:1032840074FFF0A37435F0A374F6F07B017A01792E
:08329400A3E4FD121B9C80FE67
:073627004401D30000000084
:10000300EF4E601A9001CBE0FCA3E0FDED1D700103
:0E0013001C144C70F7EF1F70011E144E70E6A7
:0100210022BC
:08361400900096E0FEA3E0FF28
:0A361C00EF1FAC0670011E4C70F6A3
:013626002281
:1035A5009001CBE0FCA3E0FD12124BE47B83FAF91A
:1035B500F81210E09001CF12120E9001CFE0C31364
:0635C500FEA3E013FF224B
:103552009001CEE06599600AE599F0E49001CDF022
:1035620080069001CDE004F09001CDE0C394E974AF
:0C35720080948040060075C760000022B5
:0B2CC400900135EBF0A3EAF0A3E9F06B
:102CCF009001A07401F0A37401F0A37438F0900187
:102CDF0035E0F9A3E0FAA3E0900098C9F0A3EAF079
:102CEF00A3E9F09001A0E0F9A3E0FAA3E090009B24
:102CFF00C9F0A3EAF0A3E9F07B017A017960123001
:102D0F00CB9001A0E4F0A3F0A3F07B017A017960EE
:052D1F007F0102329C5F
:10233300EF14601614602C14604D14606C14700359
:102343000223C7240560030223EA90FE02E0547EC1
:102353004480F0E030E0F390FE00E054FCF090FEA7
:1023630003807A90FE04E0547E4480F0E030E0F392
:1023730090FE00E054FC4403F090FE02E4F090FE73
:1023830008F090FE03F02290FE08E0547E4480F0B3
:10239300E030E0F390FE00E054FC4402F090FE04D1
:1023A300E4F090FE02F0A3F02290FE03E0543E44DA
:1023B30080F0E030E0F390FE00E054FC4401F09044
:1023C300FE02801990FE03E0543E44C0F0E030E08A
:1023D300F390FE00E054FC4401F090FE02E4F09020
:0823E300FE08F090FE04F02258
:0C364500EF90FE01700304F022EFF02271
:1012BE0043BA80AF9FE4FCFDFEC004A905AA06ABAD
:1012CE000778FBE6FFD000C3EF9BFFEE9AFEED9989
:1012DE00FDEC98FCE47BF07AD2F9F81210E0C3E44E
:1012EE009FFF74369EFE746E9DFD74019CFC9000F3
:1012FE000012120E900000E0FCA3E0FDA3E0FEA39E
:10130E00E0FFC00790FE01E0FBE4FAF9F8D0071207
:10131E00116B90000012120E7FC07EF67D577C007E
:10132E00900000E0F8A3E0F9A3E0FAA3E0FBC312FB
:10133E0011FD500D9001D312121A005460000214C8
:10134E00ED7FC07E267D827C00900000E0F8A3E059
:10135E00F9A3E0FAA3E0FBC31211FD500D9001D3E7
:10136E0012121A005B8D800214ED7F807EED7DAF30
:10137E007C00900000E0F8A3E0F9A3E0FAA3E0FB04
:10138E00C31211FD500D9001D312121A00A8C00005
:10139E000214ED7F807E2D7DE87C00900000E0F849
:1013AE00A3E0F9A3E0FAA3E0FBC31211FD500D90E8
:1013BE0001D312121A00B71B000214ED7F807E3685
:1013CE007D257C01900000E0F8A3E0F9A3E0FAA3EC
:1013DE00E0FBC31211FD500D9001D312121A011928
:1013EE0040000214ED7F807E567D417C019000000E
:1013FE00E0F8A3E0F9A3E0FAA3E0FBC31211FD505D
:10140E000D9001D312121A01312D000214ED7F003E
:10141E007EDB7D5F7C01900000E0F8A3E0F9A3E0A5
:10142E00FAA3E0FBC31211FD500D9001D312121A54
:10143E00015180000214ED7F607E197D857C019044
:10144E000000E0F8A3E0F9A3E0FAA3E0FBC3121159
:10145E00FD500D9001D312121A016E36000214EDDA
:10146E007F207EE07DB27C01900000E0F8A3E0F9E1
:10147E00A3E0FAA3E0FBC31211FD500C9001D312AE
:10148E00121A019BFCC080577FE07EA67DE07C0196
:10149E00900000E0F8A3E0F9A3E0FAA3E0FBC3128A
:1014AE0011FD500C9001D312121A01C9C380802F66
:1014BE007F607E2B7DFF7C01900000E0F8A3E0F9B9
:1014CE00A3E0FAA3E0FBC31211FD9001D350091261
:1014DE00121A01FA4000800712121A02160EC0E408
:1014EE007B107A27F9F89001D3E0FCA3E0FDA3E08E
:1014FE00FEA3E0FF12116B9001CBEEF0A3EFF0E430
:0D150E009001CEF09001CDF0123492D2AFDA
:01151B0022AD
:0B21B500900026EBF0A3EAF0A3E9F095
:1021C0007F647E001235A5900096EEF0A3EFF090AC
:1021D00000937401F0A37400F0A37429F09000261A
:1021E000E0F9A3E0FAA3E0900098C9F0A3EAF0A315
:1021F000E9F0900093E0F9A3E0FAA3E090009BC916
:10220000F0A3EAF0A3E9F07B017A0079531230CB16
:10221000900051EEF0A3EFF0900093E4F0A3F0A350
:10222000F07FF47E01120003E4FBFAD3900052E049
:102230009B900051E09A40E9D2B1C2B112361474B9
:10224000532BF58274003AF583E0F9E4FDEDC39475
:1022500008748094805014E930E004D2B18002C246
:10226000B1E9C313F91236140D80E2D2B11236145B
:0A2270001236140BBB00010A80B106
:0B249500900014EBF0A3EAF0A3E9F0C4
:1024A000E4FFFE90001AF0A3F0A3F0A3F090001454
:1024B000E0FBA3E0FAA3E0F9120FC3607790001DE0
:1024C000E004F0700690001CE004F0900017E0FBC0
:1024D000A3E0FAA3E0F98F828E83120FDCFD900057
:1024E00014E0FBA3E0FAA3E0F9120FC3B505070F50
:1024F000BF00010E8012E4FEFF90001CE0FDA3E08F
:1025000090001ACDF0A3EDF0900015E475F00112E3
:10251000104F900017E0FBA3E0FAA3E0F98F828E42
:1025200083120FDCFD3395E04D708290001AE0FEBF
:08253000A3E0FF227EFF7FFF04
:012538002280
:101FFE00E4900014F0900016F0900015F09000158B
:10200E00E0C3940A7480948040030220E0E07E00D6
:10201E002DF582EE3CF583120FDCFF3395E0FEC307
:10202E00EF9430EE648094804052D3EF9437EE6498
:10203E008094805047900016E004F0E0640170191F
:10204E00900015E07E002DF582EE3CF583120FDC3C
:10205E0024D0C454F0900014F0900016E064027086
:10206E001B900015E07E002DF582EE3CF583120FDD
:10207E00DC24D0FF900014E04FFFF022900015E01A
:10208E007E002DF582EE3CF583120FDCFF3395E0DA
:10209E00FEC3EF9438EE648094804011D3EF9439F0
:1020AE00EE648094805006900016E004F0900015C7
:1020BE00E07E002DF582EE3CF583120FDCFF642CE2
:1020CE006010EF3395E04F6009900015E004F002C8
:0720DE00200B900014E0FF4D
:0120E50022D8
:0820E600900014ECF0A3EDF0F2
:1020EE00E4A3F0A3F0A3F0900018E0FFC3941474DF
:1020FE0080948040030221AC900015E02FFF9000E9
:10210E0014E034008F82F583120FDCFF3395E0FE6E
:10211E00C3EF9430EE648094804051D3EF9439EE47
:10212E00648094805046900016E0FEA3E0FF7C0091
:10213E007D0A12103D900016EEF0A3EFF0A3E0FF23
:10214E00900015E02FFF900014E034008F82F5838D
:10215E00120FDCFF3395E0FEEF24D0FFEE34FFFECE
:10216E00900017E02FF0900016E03EF0900018E07F
:10217E00FF900015E02FFF900014E034008F82F5E1
:10218E0083120FDCFF642C6015EF642E6010EF33AA
:10219E0095E04F6009900018E004F00220F59000E1
:0621AE0016E0FEA3E0FFB5
:0121B4002208
:101A6F009001B9EBF0A3EAF0A3E9F0A3ECF0A3ED3A
:011A7F00F076
:101A8000E49001C5F0A3F0A3F0A3F0A3F0A3F090BD
:101A900001C3F0A3F09001BCE0FEA3E0FF9001C3FE
:101AA000E0FCA3E0FDC39FEC9E4003021B3F9001BE
:101AB000BEE0FBA3E0FAA3E0F99001C5E0FEA3E0DD
:101AC000F5828E83120FDCFF9001B9E0FBA3E0FAF0
:101AD000A3E0F98D828C83120FDCB507339001C629
:101AE000E004F070069001C5E004F09001C1E0FE52
:101AF000A3E0FF9001C5E0B50631A3E0B5072C9047
:101B000001C3E0FFA3E09001C9CFF0A3EFF0802F65
:101B1000E49001C5F0A3F09001C4E02401FE90011F
:101B2000C3E034009001C7F0A3CEF09001C4E004FC
:101B3000F06003021A959001C3E004F0021A959038
:101B400001C9E0FEA3E0FF9001C7E0FCA3E0FDD3E4
:101B50009FEC9E50449001C3ECF0A3EDF09001C9BE
:101B6000E0FEA3E0FF9001C3E0FCA3E0FDC39FEC17
:101B70009E50239001B9E0FBA3E0FAA3E0F98D8227
:101B80008C83E412101B9001C4E004F070CF90012C
:0B1B9000C3E004F080C77F01227F004B
:011B9B002227
:10176F006770696F5F757070756C6C283C442530BD
:10177F0032583E2C2564293BB2BBB4E6D4DAB8C349
:10178F00494F0D0A006770696F5F757070756C6CEB
:10179F00283C44253032583E2C31293BB2BBB4E6AD
:1017AF00D4DAB8C3494F0D0A006770696F5F75705F
:1017BF0070756C6C283C44253032583E2C30293BD8
:1017CF00B2BBB4E6D4DAB8C3494F0D0A00677069EB
:1017DF006F5F6D6F6465283C44253032583E2C2571
:1017EF0064293BB2BBB4E6D4DAB8C3494F0D0A0043
:1017FF006770696F5F6D6F64652844253032582CB0
:10180F003C25643E293BB2BBB4E6D4DAB8C3C4A3CB
:10181F00CABD0D0A006770696F5F777269746528BA
:10182F003C25643E2C2564293BB2BBB4E6D4DAB820
:10183F00C350BFDA0D0A006770696F5F726561642C
:10184F00283C5025643E293BB2BBB4E6D4DAB8C37A
:10185F0050BFDA0D0A006770696F5F6F7574283CAF
:10186F0044253032583E2C2564293BB2BBB4E6D414
:10187F00DAB8C3494F0D0A006770696F5F6F7574EF
:10188F00283C44253032583E2C31293BB2BBB4E6BC
:10189F00D4DAB8C3494F0D0A006770696F5F6F756F
:1018AF0074283C44253032583E2C30293BB2BBB40F
:1018BF00E6D4DAB8C3494F0D0A006770696F5F69E4
:1018CF006E283C44253032583E293BB2BBB4E6D497
:1018DF00DAB8C3494F0D0A006770696F5F746F679D
:1018EF00676C65283C44253032583E293BB2BBB467
:1018FF00E6D4DAB8C3494F0D0A00010204081020DC
:02190F00408016
:0A1DDD0090001CEDF090001BEFF0E9
:101DE70064887003021EEEE0FF54F0F50DEF540F08
:101DF700FF90190993F50ED3EF94077480948040F0
:101E0700237BFF7A17796F90001BE0FF900029E48E
:101E1700F0A3EFF090001CE0FF90002BE4F0A3EF9D
:101E2700F01221B590001CE06055E50D24F060210B
:101E370024F0602224F0602324F0602424F060253D
:101E470024F0602624F060272470702B90FE108009
:101E57002190FE11801C90FE12801790FE138012B5
:101E670090FE14800D90FE15800890FE168003905A
:101E7700FE17E0450EF0227BFF7A1779948058E52C
:101E87000D24F0602124F0602224F0602324F06008
:101E97002424F0602524F0602624F0602724707045
:101EA7003090FE10802190FE11801C90FE1280174A
:101EB70090FE13801290FE14800D90FE15800890FE
:101EC700FE16800390FE17E0FFE50EF4FEEF5EF0CE
:101ED700227BFF7A1779B890001BE0FF900029E476
:071EE700F0A3EFF01221B59A
:011EEE0022D1
:0A0CAF0090001CEDF090001BEFF028
:100CB90064887003020FC2E0FF54F0F50DEF540F82
:100CC900FF90190993F50ED3EF940774809480402F
:100CD900237BFF7A1779DC90001BE0FF900029E461
:100CE900F0A3EFF090001CE0FF90002BE4F0A3EFDD
:100CF900F01221B5E50D24F0602124F0602224F0E2
:100D0900602324F0602424F0602524F0602624F078
:100D1900602724707028E4F50D8046750D01804127
:100D2900750D02803C750D038037750D0480327591
:100D39000D05802D750D068028750D0780237BFF15
:100D49007A1779DC90001BE0FF900029E4F0A3EF0B
:100D5900F090001CE0FF90002BE4F0A3EFF01221CB
:100D6900B590001CE0FFD3940374809480401C7BF1
:100D7900FF7A1779FF90001BE0FD900029E4F0A3AA
:100D8900EDF0A3E4F0A3EFF01221B5E50D7040906A
:100D9900001CE0FF7E007007E50EF452935294EFB9
:100DA90064014E7009E50E4293E50EF452949000E9
:100DB9001CE064027008E50E4293E50E429490002F
:100DC9001CE064037009E50EF45293E50E4294E5C4
:100DD9000D6401704090001CE0FF7E007007E50E75
:100DE900F452915292EF64014E7009E50E4291E579
:100DF9000EF4529290001CE064027008E50E4291D4
:100E0900E50E429290001CE064037009E50EF4526D
:100E190091E50E4292E50D6402704090001CE0FFDE
:100E29007E007007E50EF452955296EF64014E70FC
:100E390009E50E4295E50EF4529690001CE0640215
:100E49007008E50E4295E50E429690001CE0640399
:100E59007009E50EF45295E50E4296E50D640370AE
:100E69004090001CE0FF7E007007E50EF452B1527D
:100E7900B2EF64014E7009E50E42B1E50EF452B2CB
:100E890090001CE064027008E50E42B1E50E42B222
:100E990090001CE064037009E50EF452B1E50E42BE
:100EA900B2E50D6404704090001CE0FF7E007007FD
:100EB900E50EF452B352B4EF64014E7009E50E42E7
:100EC900B3E50EF452B490001CE064027008E50E1C
:100ED90042B3E50E42B490001CE064037009E50ECC
:100EE900F452B3E50E42B4E50D6405704090001C60
:100EF900E0FF7E007007E50EF452C952CAEF6401A3
:100F09004E7009E50E42C9E50EF452CA90001CE084
:100F190064027008E50E42C9E50E42CA90001CE061
:100F290064037009E50EF452C9E50E42CAE50D6481
:100F390006704090001CE0FF7E007007E50EF45239
:100F4900CB52CCEF64014E7009E50E42CBE50EF4AD
:100F590052CC90001CE064027008E50E42CBE50E0D
:100F690042CC90001CE064037009E50EF452CBE515
:100F79000E42CCE50D6407704090001CE0FF7E0036
:100F89007007E50EF452E152E2EF64014E7009E593
:100F99000E42E1E50EF452E290001CE06402700892
:100FA900E50E42E1E50E42E290001CE0640370099F
:090FB900E50EF452E1E50E42E2FE
:010FC200220C
:102DE000EFB40900503A902DEDF8282873022E0810
:102DF000022E0B022E0E022E11022E14022E17028C
:102E00002E1A022E1D022E398D80228D90228DA029
:102E1000228DB0228DC0228DC8228DE8228DF8220D
:102E20007BFF7A187924900029E4F0A3EFF0AF0536
:0A2E3000A3E4F0A3EFF01221B52295
:102E3A00EFB40900503D902E47F8282873022E62FD
:102E4A00022E65022E68022E6B022E6E022E71026F
:102E5A002E74022E77022E7AAF8022AF9022AFA074
:102E6A0022AFB022AFC022AFC822AFE822AFF82209
:102E7A007FFF227BFF7A187946900029E4F0A3EFBE
:072E8A00F01221B57FFF22C9
:0A1EEF00900025EDF0900024EFF0C4
:101EF90064887003021FFDE0FF54F0F50DEF540FE5
:101F0900FF90190993F50ED3EF94077480948040DC
:101F1900237BFF7A187965900024E0FF900029E47B
:101F2900F0A3EFF0900025E0FF90002BE4F0A3EF81
:101F3900F01221B5900025E06052E50D24F06021F2
:101F490024F0602224F0602324F0602424F060252A
:101F590024F0602624F0602724707028E50E428062
:101F690022E50E429022E50E42A022E50E42B02261
:101F7900E50E42C022E50E42C822E50E42E822E5FE
:101F89000E42F8227BFF7A1879878058E50D24F0F4
:101F9900602224F0602424F0602624F0602824F0D4
:101FA900602A24F0602C24F0602E24707030E50E35
:101FB900F4528022E50EF4529022E50EF452A0224A
:101FC900E50EF452B022E50EF452C022E50EF452A9
:101FD900C822E50EF452E822E50EF452F8227BFFFE
:101FE9007A1879A8900024E0FF900029E4F0A3EF83
:041FF900F01221B50C
:011FFD0022C1
:0523EB00900219EFF063
:1023F00064887002FF22900219E0FF54F0F50DEF9F
:10240000540FFF90190993F50ED3EF94077480943D
:102410008040167BFF7A1879C9900219E0FF90007E
:1024200029E4F0A3EFF01221B5E50D24F06021249A
:10243000F0602224F0602324F0602424F06025243E
:10244000F0602624F060272470702885800F803982
:1024500085900F803485A00F802F85B00F802A854E
:10246000C00F802585C80F802085E80F801B85F868
:102470000F80167BFF7A1879C9900219E0FF90004F
:1024800029E4F0A3EFF01221B5E50F550E60037FAC
:0424900001227F00A6
:012494002225
:0525390090021AEFF012
:10253E00648870030225D5E0FF54F0F50DEF540FBB
:10254E00FF90190993F50ED3EF9407748094804091
:10255E00167BFF7A1879E790021AE0FF900029E4C3
:10256E00F0A3EFF01221B5E50D24F0602124F06008
:10257E002224F0602324F0602424F0602524F060EF
:10258E002624F0602724707028E50E628022E50E66
:10259E00629022E50E62A022E50E62B022E50E6286
:1025AE00C022E50E62C822E50E62E822E50E62F850
:1025BE00227BFF7A1879E790021AE0FF900029E457
:0725CE00F0A3EFF01221B5AC
:0125D50022E3
:10315C00EFB40800503E903169F828287302318191
:10316C0002318502318902318D0231910231950291
:10317C00319902319DED628022ED629022ED62A0C8
:10318C0022ED62B022ED62C022ED62C822ED62E84F
:05319C0022ED62F822A3
:1025D600A907EB6048E9B40800400302266F90257E
:1025E600EBF828287302260302260702260B02268A
:1025F6000F02261302261702261B02261FED428013
:1026060022ED429022ED42A022ED42B022ED42C0E0
:1026160022ED42C822ED42E822ED42F822E9B40852
:10262600005046902630F828287302264802264D88
:1026360002265202265702265C02266102266602FE
:10264600266BEDF4528022EDF4529022EDF452A066
:1026560022EDF452B022EDF452C022EDF452C8221B
:0A266600EDF452E822EDF452F822E0
:102EE800EFB409005045902EF5F8282873022F10EA
:102EF800022F14022F18022F1C022F20022F240247
:102F08002F28022F2C022F30AE80801FAE90801BFE
:102F1800AEA08017AEB08013AEC0800FAEC8800BD5
:102F2800AEE88007AEF880037F0122EE5D60037F84
:042F380001227F00F3
:012F3C002272
:083673003031363716174344CD
:1034920075985053873F538EDEE4FD7F01122FE271
:1034A20090000512121A0001C2007F011231A143DD
:1034B2008E4053890FC2ABC28FD28EC209D2AC22C8
:102FE200900004EDF0EF147044900004E0FF54C030
:102FF200FEE5A2543F4EF5A2EFC41313540325E09D
:103002002473F582E43436F583E493FFE4FD120C75
:10301200AF900004E0C41313540325E02474F58236
:0E302200E43436F583E493FF7D03120CAF22F5
:0531A100900004EFF0B6
:1031A600E47B04FAF9F89001D3E0FCA3E0FDA3E088
:1031B600FEA3E0FF12116B900005E0F8A3E0F9A36F
:1031C600E0FAA3E0FB12116BC3E49FFFE49EFE90BE
:0B31D6000004E01470058F8BEEF58DF7
:0131E10022CB
:0E363700EF147009AF058F99D2092009FD220A
:1035CB00EF147016EB6006D29BD29B8004C29BC299
:0B35DB009BAF058F99D2092009FD224B
:10329C00900214EBF0A3EAF0A3E9F0AE079002144D
:1032AC00E0FBA3E0FAA3E0F9120FC36019AF06909C
:1032BC000214A3E475F001121065A9F0FA120FC301
:0732CC00FD12363780D72206
:0E2C5E009000C6EFF0A3EBF0A3EAF0A3E9F0BC
:102C6C009001327401F0A37400F0A374CAF09000C8
:102C7C00C7E0F9A3E0FAA3E0900098C9F0A3EAF04A
:102C8C00A3E9F0900132E0F9A3E0FAA3E090009BF5
:102C9C00C9F0A3EAF0A3E9F07B017A0079F21230D3
:102CAC00CB900132E4F0A3F0A3F09000C6E0FF7BE0
:082CBC00017A0079F202329C5A
:0300230002311592
:10311500C0E0C0F0C083C082C0D075D000C000C080
:1031250001C002C003C004C005C006C00730980531
:10313500C298123552309904C299C209D007D006F7
:10314500D005D004D003D002D001D000D0D0D08299
:07315500D083D0F0D0E0327E
:08362E004101F8004101F70021
:102F9100900002120FDCFF9001F7E06F6042120F08
:102FA100C3FEC4540F9001F5F0EE540FFEF8740106
:102FB100088002C333D8FC9001F6F0900001120F93
:102FC100DCFEC4540F9001F3F0EE540FFEF87401CF
:102FD100088002C333D8FC9001F4F09001F7EFF0C0
:012FE10022CD
:10282200900205EBF0A3EAF0A3E9F0A3EDF0900229
:1028320005E0FBA3E0FAA3E0F9ED1210099002090A
:10284200E0FF900205E0FBA3E0FAA3E0F9900001AB
:10285200EF12101B900208E0FF7D02120CAF9002F3
:1028620009E0FF7D02120CAF900208E0FF7D011229
:102872001DDD900209E0FF7D01121DDD900208E0DE
:10288200FF7D01121EEF900209E0FF7D01121EEF93
:102892009001F8E004FFF0900205E0FBA3E0FAA348
:0C28A200E0F9900002EF12101B022F91D1
:1031E2009001F7E06F6039EDC4540F9001F5F0EDF6
:1031F200540FFEF87401088002C333D8FC9001F624
:10320200F0EBC4540F9001F3F0EB540FFEF874018D
:10321200088002C333D8FC9001F4F09001F7EFF07C
:013222002289
:0A2F3D0090001AEDF0900019EFF07B
:102F47007D02120CAF90001AE0FF7D02120CAF90C9
:102F57000019E0FF7D01121DDD90001AE0FF7D01E1
:102F6700121DDD900019E0FF7D01121EEF90001A7F
:102F7700E0FF7D01121EEF9001F8E004F0FCFF90E6
:0A2F87000019E0FDA3E0FB0231E2B7
:102E91009001F3E0FFA3E0FD7B011225D69001F53F
:102EA100E0FFA3E0FD7B011225D69001F3E0FFA333
:102EB100E0FD122EE8EF70037FFF229001F3E0FFA7
:102EC100A3E0FD12315C9001F3E0FFA3E0FD122EBF
:102ED100E8EF640170037FFF229001F5E0FFA3E0BA
:072EE100FD12315C7F0022AD
:1034C2009001F3E0FFA3E0FDE4FB1225D69001F5A5
:1034D200E0FFA3E0FDE4FB1225D69001F5E0FFA397
:1034E200E0FD12315C9001F3E0FFA3E0FD02315CEC
:1034F2009001F5E0FFA3E0FDE4FB1225D69001F375
:10350200E0FFA3E0FDE4FB1225D69001F5E0FFA366
:10351200E0FD12315C9001F5E0FFA3E0FD02315CB9
:103522009001F5E0FFA3E0FDE4FB1225D69001F344
:10353200E0FFA3E0FD7B011225D69001F5E0FFA399
:10354200E0FD12315C9001F5E0FFA3E0FD02315C89
:103030009001F5E0FFA3E0FDE4FB1225D69001F33B
:10304000E0FFA3E0FD7B011225D69001F5E0FFA390
:10305000E0FD12315C9001F3E0FFA3E0FD122EE8E9
:10306000EF64019001F5700BE0FFA3E0FD12315C0D
:0E3070007FFF22E0FFA3E0FD12315C7F002213
:0528AE00900072EFF044
:1028B300900074F09001F330E709E0FFA3E0FD7BA3
:1028C300018007E0FFA3E0FDE4FB1225D69001F5AC
:1028D300E0FFA3E0FDE4FB1225D6E4900073F09043
:1028E3000073E0C39408748094805044900072E0B5
:1028F300FF900074E06F30E70B9001F3E0FFA3E07B
:10290300FD12315C9001F5E0FFA3E0FD12315C9014
:102913000072E0900074F025E0900072F09001F5F1
:10292300E0FFA3E0FD12315C900073E004F080AFA0
:012933002281
:102BF600E4900218F09001F3E0FFA3E0FD7B0112E0
:102C060025D6E4900217F0900217E0C3940874806A
:102C16009480503EA3E025E0F09001F5E0FFA3E0AC
:102C2600FD7B011225D69001F3E0FFA3E0FD122EF5
:102C3600E8EF64017007900218E04401F09001F596
:102C4600E0FFA3E0FDE4FB1225D6900217E004F0B6
:072C560080B5900218E0FFB9
:012C5D002254
:0B2B8C0090020AEBF0A3EAF0A3E9F0CE
:102B9700E490020EF090020DF090020DE0C39480D5
:102BA700748094805043122E9190020DE025E0FF2F
:102BB7001228AE123030EF702590020DE025E0FFAD
:102BC70090020AE0FBA3E0FAA3E0F990020EE0F519
:102BD70082758300EF12101B90020EE004F012348E
:0E2BE700C290020DE004F080B090020EE0FFFC
:012BF50022BD
:1005CC007663633D007664643D00676E643D00773E
:1005DC003D00683D00783D00793D006D6F64653DE0
:1005EC000073636C3D0064303D007364613D0064D6
:1005FC00313D0064633D007273743D007265733D60
:10060C000063733D00736F667400696963007370F7
:10061C006900003E4141413E0000FFFEFCF8F0E065
:10062C00C0800000027F00000000FFFEFCF8F0E03C
:10063C00C0800062514946000000FFFEFCF8F0E06B
:10064C00C0800000414949360000FFFEFCF8F0E094
:10065C00C08000302C227F200000FFFEFCF8F0E070
:10066C00C08000004F4949310000FFFEFCF8F0E06B
:10067C00C080003C464545390000FFFEFCF8F0E028
:10068C00C0800001611D03000000FFFEFCF8F0E0DB
:10069C00C0800036494949360000FFFEFCF8F0E006
:1006AC00C080004E5151711E0000FFFEFCF8F0E0BE
:1006BC00C08000601C1317384000FFFEFCF8F0E00F
:1006CC00C08000007F4949370000FFFEFCF8F0E0D5
:1006DC00C080003C624141410000FFFEFCF8F0E0AC
:1006EC00C08000007F4141631E00FFFEFCF8F0E07B
:1006FC00C08000007F4949490000FFFEFCF8F0E093
:10070C00C08000007F0909000000FFFEFCF8F0E04B
:10071C00C080FF2442810000000000000000002F78
:10072C00000000000700070000147F147F14002451
:10073C002A7F2A120023130864620036495522507E
:10074C0000000503000000001C22410000004122B3
:10075C001C000014083E08140008083E080800009D
:10076C0000A0600000080808080800006060000095
:10077C00002010080402003E5149453E0000427F13
:10078C004000004261514946002141454B3100185F
:10079C0014127F10002745454539003C4A49493021
:1007AC0000017109050300364949493600064949DB
:1007BC00291E0000363600000000563600000008E6
:1007CC0014224100001414141414000041221408C3
:1007DC0000020151090600324959513E007C1211A8
:1007EC00127C007F49494936003E41414122007F3D
:1007FC004141221C007F49494941007F09090901F7
:10080C00003E4149497A007F0808087F0000417F7B
:10081C004100002040413F01007F08142241007F2D
:10082C0040404040007F020C027F007F0408107F94
:10083C00003E4141413E007F09090906003E4151FD
:10084C00215E007F091929460046494949310001BA
:10085C00017F0101003F4040403F001F2040201F0E
:10086C00003F4038403F00631408146300070870D1
:10087C00080700615149454300007F414100005584
:10088C002A552A55000041417F0000040201020450
:10089C00004040404040000001020400002054543D
:1008AC005478007F4844443800384444442000388D
:1008BC004444487F00385454541800087E090102FF
:1008CC000018A4A4A47C007F080404780000447DD4
:1008DC004000004080847D00007F10284400000010
:1008EC00417F4000007C04180478007C08040478E4
:1008FC0000384444443800FC2424241800182424D0
:10090C0018FC007C080404080048545454200004CB
:10091C003F444020003C4040207C001C2040201CD8
:10092C00003C4030403C004428102844001CA0A04F
:0E093C00A07C004464544C441414141414148D
:102D2400900014EBF0A3EAF0A3E9F0A3EDF0FF9018
:102D34000014E0FBA3E0FAA3E0F990000E120FDC0C
:102D4400540F44A090000E12101B900018E0FD12C6
:102D54002F3D900014E0FBA3E0FAA3E0F9900014E7
:102D6400EF12101B900017E090000F12101B900040
:102D740018E090001012101B900015747802101BBC
:0E2B1E00900069EBF0A3EAF0A3E9F0A3EDF05C
:102B2C00122E91900069E0FBA3E0FAA3E0F990006B
:102B3C0015120FDCFF1228AE12303090006CE0FF43
:102B4C001228AE123030E4900070F0A3F090006EBA
:102B5C00E0FEA3E0FFC3900071E09F900070E09E48
:102B6C00501B90006DE0FF1228AE123030900071B7
:102B7C00E004F070D8900070E004F080D00234C211
:0E29B7009001D7EBF0A3EAF0A3E9F0A3EDF056
:1029C500122E919001D7E0FBA3E0FAA3E0F9900065
:1029D50015120FDCFF1228AE1230309001DAE0FF3D
:1029E5001228AE123030E49001E0F0A3F09001DE41
:1029F500E0FEA3E0FFA3E0FCA3E0FDC39FEC9E5037
:102A0500299001DBE0FBA3E0FAA3E0F98D828C833A
:102A1500120FDCFF1228AE1230309001E1E004F015
:0D2A250070CB9001E0E004F080C30234C2E9
:10307E00FFE075F010A42FF582E435F0F583E582BC
:10308E00241EF582E5833406F583E493900068F000
:02309E007D4073
:1030A00090000E120FDCFF54207005EF30E61B225B
:1030B00090000E120FDC20E611900068E090006D89
:0B30C000F0A3E4F0A304F0122B1E228A
:0B365D0090006874AFF0E4FD0230A0A4
:0B36680090006874AEF0E4FD0230A09A
:10333B0090001FEDF090001CEBF0A3EAF0A3E9F076
:10334B0090006874A8F0E4FD1230A090001CE0FB24
:10335B00A3E0FAA3E0F9A3E0900068F0E4FD0230EB
:01336B00A0C1
:10336C0090001FEDF090001CEBF0A3EAF0A3E9F045
:10337C009000687481F0E4FD1230A090001CE0FB1A
:10338C00A3E0FAA3E0F9A3E0900068F0E4FD0230BA
:01339C00A090
:072D8400E0FDEE900063F09A
:102D8B00900062EDF090005FEBF0A3EAF0A3E9F0A6
:102D9B00900063E024B0900068F0E4FD1230A09046
:102DAB00005FE0FBA3E0FAA3E0F9A3E054F0FFC45B
:102DBB00540F4410900068F0E4FD1230A090005FB7
:102DCB00E0FBA3E0FAA3E0F9A3E0540F900068F056
:052DDB00E4FD0230A040
:10339D0090001FEDF090001CEBF0A3EAF0A3E9F014
:1033AD0090006874D3F0E4FD1230A090001CE0FB97
:1033BD00A3E0FAA3E0F9A3E0900068F0E4FD023089
:0133CD00A05F
:0C365100ED4440900068F0E4FD0230A061
:1026700090001CEBF0A3EAF0A3E9F0A3EDF09000CA
:102680001C30E00FE0FBA3E0FAA3E0F990006874CF
:10269000A0800DE0FBA3E0FAA3E0F990006874A12C
:1026A000F0E4FD1230A090001FE090001C30E10F1C
:1026B000E0FBA3E0FAA3E0F990006874C0800DE0AD
:1026C000FBA3E0FAA3E0F990006874C8F0E4FD12FF
:1026D00030A090001CE0FBA3E0FAA3E0F9900068B2
:1026E00074DAF0E4FD1230A090001CE0FBA3E0FAE5
:1026F000A3E0F9A3E0540CFF25E025E0440290009C
:0727000068F0E4FD0230A0C7
:0B35FF00900014E0FBA3E0FAA3E0F949
:0A360A00900068EDF0E4FD0230A02E
:1033CE0090001FEDF090001CEBF0A3EAF0A3E9F0E3
:1033DE0090006874DBF0E4FD1230A090001CE0FB5E
:1033EE00A3E0FAA3E0F9A3E0900068F0E4FD023058
:0133FE00A02E
:1033080090001FEDF090001CEBF0A3EAF0A3E9F0A9
:10331800900068748DF0E4FD1230A090001CE0FB72
:10332800A3E0FAA3E0F9A3E04410900068F0E4FDFC
:033338000230A0C0
:1033FF0090001FEDF090001CEBF0A3EAF0A3E9F0B2
:10340F0090006874D9F0E4FD1230A090001CE0FB2E
:10341F00A3E0FAA3E0F9A3E0900068F0E4FD023026
:01342F00A0FC
:1034300090001FEDF090001CEBF0A3EAF0A3E9F080
:1034400090006874D5F0E4FD1230A090001CE0FB01
:10345000A3E0FAA3E0F9A3E0900068F0E4FD0230F5
:01346000A0CB
:1034610090001FEDF090001CEBF0A3EAF0A3E9F04F
:103471009000687420F0E4FD1230A090001CE0FB85
:10348100A3E0FAA3E0F9A3E0900068F0E4FD0230C4
:01349100A09A
:1027070090001FEDF090001CEBF0A3EAF0A3E9F0B6
:102717009000687421F0E4FD1230A090001CE0FBEB
:10272700A3E0FAA3E0F9A3E0900068F0E4FD12301B
:10273700A090001CE0FBA3E0FAA3E0F9900021E0E1
:10274700900068F0E4FD1230A090001CE0FBA3E0CD
:10275700FAA3E0F99000687422F0E4FD1230A0902B
:10276700001CE0FBA3E0FAA3E0F9900020E0900052
:1027770068F0E4FD1230A090001CE0FBA3E0FAA390
:0F278700E0F9900022E0900068F0E4FD0230A03D
:10227A0090001FEDF090001CEBF0A3EAF0A3E9F048
:10228A00900001120FDC131313541FFF120FC3FE29
:10229A00EF8EF0A4FF900022E5F0F0A3EFF090009B
:1022AA000E120FDCFF5420703BEF30E41790001C35
:1022BA00E0FBA3E0FAA3E0F9900013120FDCFFE4BD
:1022CA00FD121EEF90001CE0FBA3E0FAA3E0F990D8
:1022DA00000E120FDC30E450900013120FDCFF7D69
:1022EA0001021EEF90001CE0FBA3E0FAA3E0F990C4
:1022FA00000E120FDC20E630900002120FDCFDE423
:10230A00122D8790001CE0FBA3E0FAA3E0F9A3E0FA
:10231A0090006DF0900022E0FFA3E090006ECFF0F5
:08232A00A3EFF07D40122B1E11
:012332002288
:10322300120FC3FFEDC39F9000045003ED8001EF25
:1032330012101B900001120FDCFF900018E0FEC378
:103243009F9000055003EE8001EF12101B900019B0
:10325300E090000612101B90001AE0900007021085
:013263001B4F
:1032D300900008ED12101B9001E6E0900009121017
:1032E3001B9001E7E090000A12101B9001E8E090A8
:1032F300000B12101B9001E9E0FFA3E090000CCF3C
:053303008FF00210B381
:0B1911009001EBEBF0A3EAF0A3E9F07B
:10191C00E49001EFF0A3F09001EBE0FBA3E0FAA35D
:10192C00E0F9900009120FDCFF900008120FDC2F79
:10193C007003021A6E90000E120FDCFF54207030F0
:10194C00EF30E40C900013120FDCFFE4FD121EEFDD
:10195C009001EBE0FBA3E0FAA3E0F990000E120F6C
:10196C00DC30E40C900013120FDCFF7D01121EEF33
:10197C009001EBE0FBA3E0FAA3E0F990000E120F4C
:10198C00DC20E503021A6E30E603021A6EE49001C5
:10199C00EEF09001EBE0FBA3E0FAA3E0F990000578
:1019AC00120FDC131313541FFF9001EEE0FEC39FC4
:1019BC004003021A6E900006120FDCFF9000021218
:1019CC000FDC2FFD900007120FDC131313541FFFB5
:1019DC00EE2F122D879001EBE0FBA3E0FAA3E0F9C8
:1019EC0090000B120FDC131313541FFF9001EEE049
:1019FC002FFFE433FE900008120FDCFD7C00121068
:101A0C003D90000A120FDC2FFFEC3E9001EFF0A38B
:101A1C00EFF0C002C00190000C12107BFF9001F09F
:101A2C00E02FFF9001EFE035F0FAA9079001DB748D
:101A3C0001F0A3EAF0A3E9F09001EBA3E0FAA3E034
:101A4C00F9900004120FDCFF9001DEE4F0A3EFF03C
:101A5C00D001D0027D401229B79001EEE004F002D3
:021A6C00199EC1
:011A6E002255
:10151C00900014EBF0A3EAF0A3E9F0A3EDF0900037
:10152C0014E0FBA3E0FAA3E0F9ED12100990001807
:10153C00E0FF900014E0FBA3E0FAA3E0F9900001B7
:10154C00EF12101B900019E090000212101B90007B
:10155C001AE090000312101B900004E412101B9070
:10156C000005E412101B900006E412101B900007FB
:10157C00E412101B900008E412101B900009E412F6
:10158C00101B90000AE412101B90000BE412101BAD
:10159C0090000E120FDC30E417900014E0FBA3E077
:1015AC00FAA3E0F9900013120FDCFFE4FD121EEF1A
:1015BC00900014E0FBA3E0FAA3E0F990000E120FE8
:1015CC00DC5420702A900012120FDCFFE4FD121E76
:1015DC00EF7F647E00120003900014E0FBA3E0FA9E
:1015EC00A3E0F9900012120FDCFF7D01121EEF90A8
:1015FC000014E0FBA3E0FAA3E0F9123668900014A3
:10160C00E0FBA3E0FAA3E0F990001AE0FD12339D91
:10161C00900014E0FBA3E0FAA3E0F990001BE05467
:10162C000FFD122670900014E0FBA3E0FAA3E0F982
:10163C00900018E014FD12333B900014E0FBA3E083
:10164C00FAA3E0F9900019E0FDE4900020F090007E
:10165C0017E014FFED2F900021F0900018E024FF0C
:10166C00FFE434FFFEEF7803CEC313CE13D8F9900A
:10167C000022F0122707900014E0FBA3E0FAA3E08D
:10168C00F97DF0123430900014E0FBA3E0FAA3E0F3
:10169C00F9E4FD123651900014E0FBA3E0FAA3E04C
:1016AC00F97D14123308900014E0FBA3E0FAA3E0D8
:1016BC00F9E4FD1234617DAD1235FF7D301235FF3A
:1016CC00900014E0FBA3E0FAA3E0F97DFF12336C69
:1016DC00900014E0FBA3E0FAA3E0F97DF11233FFD4
:1016EC00900014E0FBA3E0FAA3E0F97D301233CEB6
:1016FC00900014E0FBA3E0FAA3E0F97DA412360AF3
:10170C00900014E0FBA3E0FAA3E0F97DA612360AE0
:10171C00900014E0FBA3E0FAA3E0F912365D900010
:10172C0014E0FBA3E0FAA3E0F9E4FD12227A9000A6
:10173C0014E0FBA3E0FAA3E0F9E4900063F0FD12DF
:10174C002D8B900014E0FBA3E0FAA3E0F990000EBF
:10175C00120FDC30E40C900013120FDCFF7D011231
:03176C001EEF224B
:0B002600900000EBF0A3EAF0A3E9F06B
:100031009000087488F0A3F0A3F0A3F0A3F0A3F05C
:10004100A3F090001774FFF0A37405F0A374CCF033
:10005100900003E0FBA3E0FAA3E0F91224959000DD
:1000610006EEF0A3EFF0F47002EEF46028900003C6
:10007100E0FBA3E0FAA3E0F9A3E0FCA3E0FD121F7B
:10008100FE90000DEFF07D03120CAF90000DE0FF2C
:100091007D01121EEF90001774FFF0A37405F0A309
:1000A10074D1F0900003E0FBA3E0FAA3E0F912247D
:1000B10095900006EEF0A3EFF0F47002EEF46028E4
:1000C100900003E0FBA3E0FAA3E0F9A3E0FCA3E0C6
:1000D100FD121FFE90000DEFF07D03120CAF90009A
:1000E1000DE0FF7D01121EEF90001774FFF0A37465
:1000F10005F0A374D6F0900003E0FBA3E0FAA3E0BF
:10010100F9122495900006EEF0A3EFF0F47002EEE0
:10011100F46028900003E0FBA3E0FAA3E0F9A3E078
:10012100FCA3E0FD121FFE90000EEFF07D03120C08
:10013100AF90000EE0FFE4FD121EEF90001774FF78
:10014100F0A37405F0A374DBF0900003E0FBA3E0DF
:10015100FAA3E0F9122495900006EEF0A3EFF0F473
:100161007002EEF4601B900003E0FBA3E0FAA3E051
:10017100F9A3E0FCA3E0FD1220E690000FEFF08070
:100181000690000F7480F090001774FFF0A37405BF
:10019100F0A374DEF0900003E0FBA3E0FAA3E0F922
:1001A100122495900006EEF0A3EFF0F47002EEF445
:1001B100601B900003E0FBA3E0FAA3E0F9A3E0FCDD
:1001C100A3E0FD1220E6900010EFF08006900010F1
:1001D1007440F090001774FFF0A37405F0A374E16C
:1001E100F0900003E0FBA3E0FAA3E0F9122495905C
:1001F1000006EEF0A3EFF0F47002EEF4601B900045
:1002010003E0FBA3E0FAA3E0F9A3E0FCA3E0FD1205
:1002110020E6900011EFF08005E4900011F09000CD
:100221001774FFF0A37405F0A374E4F0900003E0E9
:10023100FBA3E0FAA3E0F9122495900006EEF0A3E7
:10024100EFF0F47002EEF4601B900003E0FBA3E01A
:10025100FAA3E0F9A3E0FCA3E0FD1220E69000126E
:10026100EFF08005E4900012F090001774FFF0A306
:100271007405F0A374E7F0900003E0FBA3E0FAA398
:10028100E0F9122495900006EEF0A3EFF0F470026D
:10029100EEF4601B900003E0FBA3E0FAA3E0F9A3F6
:1002A100E0FCA3E0FD1220E6900013EFF080069041
:1002B10000137404F090001774FFF0A37405F0A309
:1002C10074EDF0900003E0FBA3E0FAA3E0F912243F
:1002D10095900006EEF0A3EFF0F47002EEF46019D1
:1002E100900003E0FBA3E0FAA3E0F9A3E0FCA3E0A4
:1002F100FD121FFE900008EFF090001774FFF0A3AD
:100301007405F0A374F2F0900003E0FBA3E0FAA3FC
:10031100E0F9122495900006EEF0A3EFF0F47002DC
:10032100EEF46021900003E0FBA3E0FAA3E0F99072
:100331000007E02402FD900006E03400FC121FFEDD
:10034100900008EFF090001774FFF0A37405F0A37C
:1003510074F6F0900003E0FBA3E0FAA3E0F91224A5
:1003610095900006EEF0A3EFF0F47002EEF4601940
:10037100900003E0FBA3E0FAA3E0F9A3E0FCA3E013
:10038100FD121FFE900009EFF090001774FFF0A31B
:100391007405F0A374FBF0900003E0FBA3E0FAA363
:1003A100E0F9122495900006EEF0A3EFF0F470024C
:1003B100EEF46021900003E0FBA3E0FAA3E0F990E2
:1003C1000007E02402FD900006E03400FC121FFE4D
:1003D100900009EFF090001774FFF0A37405F0A3EB
:1003E10074FFF0900003E0FBA3E0FAA3E0F912240C
:1003F10095900006EEF0A3EFF0F47002EEF46019B0
:10040100900003E0FBA3E0FAA3E0F9A3E0FCA3E082
:10041100FD121FFE90000AEFF090001774FFF0A389
:100421007406F0A37403F0900003E0FBA3E0FAA3C9
:10043100E0F9122495900006EEF0A3EFF0F47002BB
:10044100EEF46019900003E0FBA3E0FAA3E0F9A346
:10045100E0FCA3E0FD121FFE90000BEFF0900017EF
:1004610074FFF0A37406F0A37408F0900003E0FB9E
:10047100A3E0FAA3E0F9122495900006EEF0A3EFB1
:10048100F0F47002EEF46019900003E0FBA3E0FACF
:10049100A3E0F9A3E0FCA3E0FD121FFE90000BEF27
:1004A100F090001774FFF0A37406F0A3740DF090A0
:1004B1000003E0FBA3E0FAA3E0F912249590000603
:1004C100EEF0A3EFF0F47002EEF46019900003E097
:1004D100FBA3E0FAA3E0F9A3E0FCA3E0FD121FFEF9
:1004E10090000CEFF090001774FFF0A37406F0A3D6
:1004F1007411F0900003E0FBA3E0FAA3E0F91224E9
:1005010095EFF47002EEF4604890001774FFF0A3C9
:100511007406F0A37416F0900003E0FBA3E0FAA3C5
:10052100E0F9122495EFF47002EEF47032900017A6
:1005310074FFF0A37406F0A3741AF0900003E0FBBB
:10054100A3E0FAA3E0F9122495EFF47002EEF4703F
:100551002A90000AE064887022A3E06488701C007D
:10056100900000E0FBA3E0FAA3E0F9900008E0FDB1
:10057100A3E0900018F0122D24800100900000E00B
:10058100FBA3E0FAA3E0F990000FE0FDA3E09000E7
:1005910018F0900011E0900019F0900012E0900026
:1005A1001AF0900013E090001BF012151C9000004F
:1005B100E0FBA3E0FAA3E0F990000FE0FDA3E090D7
:0B05C1000018F0E4A3F0A3F0023223C6
:0E2AAB009001F9EBF0A3EAF0A3E9F0A3EDF03F
:102AB900E4A3F0A3F0122670E49001FEF09001FE69
:102AC900E0FFC394087480948050499001F9E0FBB9
:102AD900A3E0FAA3E0F99001FDE0FDEF122D87E4F0
:102AE9009001FDF09001FDE0FFC394807480948013
:102AF900501A9001F9E0FBA3E0FAA3E0F9EF540FB3
:102B0900A312307E9001FDE004F080D89001FEE030
:042B190004F080A99B
:012B1D002295
:0B2A320090020FEBF0A3EAF0A3E9F024
:102A3D00E4A3F0A3F07D02123461E4900213F09050
:102A4D00020FE0FBA3E0FAA3E0F9900001120FDC06
:102A5D00131313541FFF900213E0FEC39F503E90BB
:102A6D000212122D84E4900212F0900212E0FFC3C4
:102A7D00948074809480501C90020FE0FBA3E0FAC8
:102A8D00A3E0F9EF540790021312307E900212E08A
:0D2A9D0004F080D6900213E004F0022A4CF1
:012AAA002209
:101CC400900202EDF09001FFEBF0A3EAF0A3E9F03B
:101CD400E4900203F0A3F0FD12227AE4900204F0EF
:101CE4009001FFE0FBA3E0FAA3E0F9900001120FDA
:101CF400DC131313541FFF900204E0FEC39F400340
:101D0400021DDC900202122D84E4900203F0900282
:101D140003E0FFC3940474809480501A9001FFE0A0
:101D2400FBA3E0FAA3E0F9EF90071E1230999002AA
:101D340003E004F080D8E4900203F0900203E0FF93
:101D4400C3940674809480501C9001FFE0FBA3E0D0
:101D5400FAA3E0F9A3E075F06484123080900203E2
:101D6400E004F080D6E4900203F0900203E0FFC3A5
:101D740094067480948050229001FFE0FBA3E0FA63
:101D8400A3E0F9A3E075F06484E5F075F00A841229
:101D94003080900203E004F080D0E4900203F090DD
:101DA4000203E0FFC394067480948050229001FFE4
:101DB400E0FBA3E0FAA3E0F9A3E075F00A84AEF037
:101DC40075F010EE123083900203E004F080D0909E
:081DD4000204E004F0021CE42B
:011DDC0022E4
:0B293400900057EBF0A3EAF0A3E9F0DD
:10293F0090005CE024E090005EF0C003C002C00194
:10294F00900057E0FBA3E0FAA3E0F9900002120F0A
:10295F00DC2DFD90005BE0900063F0D001D002D041
:10296F0003122D8BE490005DF090005DE0FFC394A7
:10297F0006748094805030900057E0FBA3E0FAA3D8
:10298F00E0F990005EE075F006A42FF582E435F0D3
:10299F00F583E5822422F582E58334071230969081
:0729AF00005DE004F080C2AE
:0129B60022FE
:0E1B9C00900000EBF0A3EAF0A3E9F0A3EDF057
:101BAA009000547401F0A37400F0A37408F090003C
:101BBA0005E0F9A3E0FAA3E0900098C9F0A3EAF0DF
:101BCA00A3E9F0900054E0F9A3E0FAA3E090009BA7
:101BDA00C9F0A3EAF0A3E9F07B017A007930123068
:101BEA00CB900050EFF0900054E4F0A3F0A3F090F3
:101BFA000003E0900052F0900004E0900053F0E4FB
:101C0A00900051F0900050E0FFA3E0FEC39F400314
:101C1A00021CC374302EF582E43400F583E0FFB46D
:101C2A000D0B900003E0900052F0021CBAEFB40AC8
:101C3A0008900053E004F08077900000E0FBA3E0F6
:101C4A00FAA3E0F9120FC324FAFF900052E0D39FDF
:101C5A00400C900003E0900052F0A3E004F09000E2
:101C6A0001120FDC24FFFFE434FFFEEF7803CEC33A
:101C7A0013CE13D8F9FF900053E0FEC39F503A9059
:101C8A000000E0FBA3E0FAA3E0F9900052E0FD9027
:101C9A00005BEEF0900051E02430F582E43400F568
:101CAA0083E090005CF0122934900052E02406F0A0
:091CBA00900051E004F0021C0E40
:011CC30022FE
:1027A200023264E493A3F8E493A34003F68001F2B7
:1027B20008DFF48029E493A3F85407240CC8C33338
:1027C200C4540F4420C8834004F456800146F6DF07
:1027D200E4800B0102040810204080903627E47E3A
:1027E200019360BCA3FF543F30E509541FFEE493FC
:1027F200A360010ECF54C025E060A840B8E493A3C3
:10280200FAE493A3F8E493A3C8C582C8CAC583CAED
:10281200F0A3C8C582C8CAC583CADFE9DEE780BEA5
:013636000093
:100FC300BB010689828A83E0225002E722BBFE022C
:090FD300E32289828A83E493225F
:100FDC00BB010CE58229F582E5833AF583E02250CA
:100FEC0006E92582F8E622BBFE06E92582F8E22214
:0D0FFC00E58229F582E5833AF583E493222E
:10100900BB010689828A83F0225002F722BBFE01C6
:02101900F322C0
:10101B00F8BB010DE58229F582E5833AF583E8F00B
:10102B00225006E92582C8F622BBFE05E92582C8B7
:02103B00F2229F
:10103D00EF8DF0A4A8F0CF8CF0A428CE8DF0A42EC7
:02104D00FE2281
:10104F00C5F0F8A3E028F0C5F0F8E582158270022C
:06105F001583E038F022C9
:10106500A3F8E0C5F025F0F0E5821582700215833E
:06107500E0C838F0E8229B
:10107B00BB0110E58229F582E5833AF583E0F5F0B3
:10108B00A3E0225009E92582F886F008E622BBFE90
:10109B000AE92582F8E2F5F008E222E5832AF583D6
:0810AB00E993F5F0A3E993229B
:1010B300F8BB0111E58229F582E5833AF583E8F06F
:1010C300E5F0A3F0225009E92582C8F608A6F0222C
:0D10D300BBFE09E92582C8F2E5F008F22213
:1010E000E88FF0A4CC8BF0A42CFCE98EF0A42CFCAF
:1010F0008AF0EDA42CFCEA8EF0A4CDA8F08BF0A42D
:101100002DCC3825F0FDE98FF0A42CCD35F0FCEB8B
:101110008EF0A4FEA9F0EB8FF0A4CFC5F02ECD3950
:0F112000FEE43CFCEAA42DCE35F0FDE43CFC22BD
:10112F0075F008758200EF2FFFEE33FECD33CDCC77
:10113F0033CCC58233C5829BED9AEC99E5829840FA
:10114F000CF582EE9BFEED9AFDEC99FC0FD5F0D6D7
:10115F00E4CEFBE4CDFAE4CCF9A88222B800C1B901
:10116F000059BA002DEC8BF084CFCECDFCE5F0CB3F
:10117F00F97818EF2FFFEE33FEED33FDEC33FCEB78
:10118F0033FB10D703994004EB99FB0FD8E5E4F933
:10119F00FA227818EF2FFFEE33FEED33FDEC33FC20
:1011AF00C933C910D7059BE99A4007EC9BFCE99A14
:1011BF00F90FD8E0E4C9FAE4CCFB2275F010EF2F59
:1011CF00FFEE33FEED33FDCC33CCC833C810D70759
:1011DF009BEC9AE899400AED9BFDEC9AFCE899F894
:0E11EF000FD5F0DAE4CDFBE4CCFAE4C8F92227
:1011FD00EB9FF5F0EA9E42F0E99D42F0E89C45F048
:01120D0022BE
:0C120E00ECF0A3EDF0A3EEF0A3EFF02253
:10121A00A8828583F0D083D0821212311212311241
:10122A001231121231E473E493A3C583C5F0C58366
:10123A00C8C582C8F0A3C583C5F0C583C8C582C81E
:01124A002281
:10124B00EC8EF0A4CCC5F0CCCDF8EFA4CEC5F02D30
:10125B00FDE43CFCE8A42EC8C5F03DFDE43CFCEFEE
:0D126B00A4FFE5F028FEE43DFDE43CFC227C
:1030CB00900098E0FFA3E0FEA3E0CF9000A1F0A357
:1030DB00EEF0A3EFF090009BE0CBF0A3E0CAF0A3DF
:1030EB00E0C9F07F229000A4AD82AC83120FC38D98
:1030FB00828C83F0A309E970010ADFEC90009BE05E
:0A310B00FBA3E0FAA3E0F90209AF0C
:10094A00E50824A1F582E43400F583E00508229045
:10095A00009E3007039000A1E475F001121278029C
:10096A000FC32000E97F2ED2008018EF540F249085
:10097A00D43440D4FF30040BEF24BFB41A00500320
:10098A002461FFE50960021509050CE50C700205F2
:10099A000B30070E90009EE475F001121278EF02F8
:1009AA00100902357E7403D2078003E4C207F508F2
:1009BA0090009E12128FE4F509F50BF50CE509601B
:1009CA00077F2012098D80F5750AFFC201C200C295
:1009DA0002C203C205C206C208120959FF700D30CD
:1009EA0007057F0012099EAF0CAE0B22B4255FC229
:1009FA00D5C204120959FF24D0B40A00501A75F05E
:100A0A000A780930D50508B6FF0106C6A426F620DD
:100A1A00D5047002D20380D924CFB41A00EF50044F
:100A2A00C2E5D204020B9FD20180C6D20080C0D296
:100A3A000280BCD2D580BAD20580B47F2012098D3B
:100A4A002002077401B5090040F112094AFF120990
:100A5A008D0209C7D208D206809512094AFB1209EB
:100A6A004AFA12094AF94A4B700679707A0C7BFFE6
:100A7A0020022EE509602A7E008E82758300120FFD
:100A8A00DC60060EEE650A70F0C2D5EBC0E0EAC083
:100A9A00E0E9C0E0EE120BE6D0E0F9D0E0FAD0E0EF
:100AAA00FB120FC3FF60AAEBC0E0EAC0E0E9C0E0B6
:100ABA0012098DD0E02401F9D0E03400FAD0E0FB2D
:100ACA00E50A0460DCD50AD980877BFF7A0B79E2D4
:100ADA00D202809C791080027908C206C208800876
:100AEA00D2D5790A8004790AC2D5E50A047002F5DA
:100AFA000AE4FAFDFEFF12094AFC7B0820011312E0
:100B0A00094AFD7B1030000A12094AFE12094AFFFF
:100B1A007B20EC3382D592D55013C3E43000069F74
:100B2A00FFE49EFEE42001039DFDE49CFCE4CBF877
:100B3A00C201EC700CCFCECDCCE824F8F870F3806B
:100B4A0017C3EF33FFEE33FEED33FDEC33FCEB332B
:100B5A00FB994002FB0FD8E9EB300105F8D0E0C45D
:100B6A0048B201C0E00AEC4D4E4F78207B0070C2BB
:100B7A00EAB50A0040BCC0E0120BE8D0F0D0E02091
:100B8A000104C4C0E0C4B201C0F0120976D0F0D5A5
:100B9A00F0EB0209C71212980A64530ADE580A35A2
:100BAA004C0A31420AE24F0AEA440AEA490A4A432B
:080BBA000AF0550AD4460AD4E2
:100BC200450AD4470C90500A392D0A3D2E0A602B53
:100BD2000A41230A5E200C792A09F94800000A58C2
:100BE2003F3F3F00790AA2D5200314300509B9100E
:100BF200020404B9080104A2D5200602500104200F
:100C020002689202B509005034C0E07F2030031917
:100C12007F30A20272067205500F120C3FC202C24E
:100C220006C205C2087F30800F300503E9C0E0121A
:100C3200098D300503D0E0F9D0E0B509CC300517B5
:100C42007F30B9100C12098D7F583004077F7880ED
:100C520003B9080312098D3002057F2D02098D7F29
:100C6200202008F87F2B2006F322920280CF286EE4
:100C7200756C6C2900D20112094A3001F8C2017860
:100C82000930D50108F60209F92D504349581209D5
:100C92004A2403B405004001E4900C8B9312097EB0
:0D0CA200743A12097ED203750904020ADEBD
:10127800F8E0FBA3A3E0F925F0F0E58215827002FF
:071288001583E0FA38F022A3
:09128F00EBF0A3EAF0A3E9F02260
:10129800D083D082F8E4937012740193700DA3A3E5
:1012A80093F8740193F5828883E4737402936860F9
:0612B800EFA3A3A380DFF9
:10357E00EFB40A07740D123589740A309811A899A0
:10358E00B8130CC2983098FDA899C298B811F630AD
:07359E0099FDC299F5992285
:00000001FF
