:03000000021DDE00
:0C1DDE00787FE4F6D8FD758121021E25F7
:0A27CA006F75743D2562750D0A005D
:1020B4001210D77FF47E011200037B017A007900AD
:1020C40090000A7417F0A314F07D20122379900075
:1020D40004744DF07B017A00790490000BE4F0A3C2
:1020E40004F0E4FFFE120026E4900005F07B017A80
:1020F40000790590000BF0A304F0E4FFFE120E3605
:102104007BFF7A2779CA900005E0900009F012213C
:032114001780FE33
:0727890044013900000000CB
:10000300EF4E601A900131E0FCA3E0FDED1D70019D
:0E0013001C144C70F7EF1F70011E144E70E6A7
:0100210022BC
:08279D00900080E0FEA3E0FFC4
:0A27A500EF1FAC0670011E4C70F629
:0127AF002207
:10274800900131E0FCA3E0FD120DE9E47B83FAF986
:10275800F8120C45900135120D86900135E0C3132F
:06276800FEA3E013FF22B6
:1026F500900134E06599600AE599F0E4900133F0C2
:102705008006900133E004F0900133E0C394E9744E
:0C27150080948040060075C76000002220
:0B211700900006EBF0A3EAF0A3E9F053
:102122009000717401F0A37400F0A37409F09000A0
:1021320006E0F9A3E0FAA3E0900082C9F0A3EAF076
:10214200A3E9F0900071E0F9A3E0FAA3E090008522
:10215200C9F0A3EAF0A3E9F07B017A0079311224F5
:1021620065900071E4F0A3F0A3F07B017A0079316D
:052172007F010225FEC3
:101AA100EF14601614602C14604D14606C147003F4
:101AB100021B3524056003021B5890FE02E0547E90
:101AC1004480F0E030E0F390FE00E054FCF090FE42
:101AD10003807A90FE04E0547E4480F0E030E0F32D
:101AE10090FE00E054FC4403F090FE02E4F090FE0E
:101AF10008F090FE03F02290FE08E0547E4480F04E
:101B0100E030E0F390FE00E054FC4402F090FE046B
:101B1100E4F090FE02F0A3F02290FE03E0543E4474
:101B210080F0E030E0F390FE00E054FC4401F090DE
:101B3100FE02801990FE03E0543E44C0F0E030E024
:101B4100F390FE00E054FC4401F090FE02E4F090BA
:081B5100FE08F090FE04F022F2
:0C27BE00EF90FE01700304F022EFF02207
:1010D70043BA80AF9FE4FCFDFEC004A905AA06AB96
:1010E7000778FBE6FFD000C3EF9BFFEE9AFEED9972
:1010F700FDEC98FCE47BF07AD2F9F8120C45C3E4D6
:101107009FFF74369EFE746E9DFD74019CFC9000DB
:1011170006120D86900006E0FCA3E0FDA3E0FEA307
:10112700E0FFC00790FE01E0FBE4FAF9F8D00712F0
:101137000CD0900006120D867FC07EF67D577C008E
:10114700900006E0F8A3E0F9A3E0FAA3E0FBC312DE
:101157000D62500D900139120D9200546000021378
:10116700067FC07E267D827C00900006E0F8A3E023
:10117700F9A3E0FAA3E0FBC3120D62500D90013909
:10118700120D92005B8D800213067F807EED7DAF8E
:101197007C00900006E0F8A3E0F9A3E0FAA3E0FBE7
:1011A700C3120D62500D900139120D9200A8C000B4
:1011B7000213067F807E2D7DE87C00900006E0F814
:1011C700A3E0F9A3E0FAA3E0FBC3120D62500D9070
:1011D7000139120D9200B71B000213067F807E367D
:1011E7007D257C01900006E0F8A3E0F9A3E0FAA3CF
:1011F700E0FBC3120D62500D900139120D920119D7
:1012070040000213067F807E567D417C01900006D8
:10121700E0F8A3E0F9A3E0FAA3E0FBC3120D6250E4
:101227000D900139120D9201312D000213067F0036
:101237007EDB7D5F7C01900006E0F8A3E0F9A3E088
:10124700FAA3E0FBC3120D62500D900139120D9203
:10125700015180000213067F607E197D857C019015
:101267000006E0F8A3E0F9A3E0FAA3E0FBC3120D40
:1012770062500D900139120D92016E36000213066D
:101287007F207EE07DB27C01900006E0F8A3E0F9C4
:10129700A3E0FAA3E0FBC3120D62500C90013912D0
:1012A7000D92019BFCC080577FE07EA67DE07C010C
:1012B700900006E0F8A3E0F9A3E0FAA3E0FBC3126D
:1012C7000D62500C900139120D9201C9C380802F15
:1012D7007F607E2B7DFF7C01900006E0F8A3E0F99C
:1012E700A3E0FAA3E0FBC3120D6290013950091283
:1012F7000D9201FA40008007120D9202160EC0E40B
:101307007B107A27F9F8900139E0FCA3E0FDA3E010
:10131700FEA3E0FF120CD0900131EEF0A3EFF0E452
:0D132700900134F0900133F0122635D2AF62
:011334002296
:0B19DC00900010EBF0A3EAF0A3E9F08C
:1019E7007F647E00122748900080EEF0A3EFF0900E
:1019F700007D7401F0A37400F0A37413F09000103D
:101A0700E0F9A3E0FAA3E0900082C9F0A3EAF0A30B
:101A1700E9F090007DE0F9A3E0FAA3E0900085C922
:101A2700F0A3EAF0A3E9F07B017A00793D1224657F
:101A370090003BEEF0A3EFF090007DE4F0A3F0A35D
:101A4700F07FF47E01120003E4FBFAD390003CE040
:101A57009B90003BE09A40E9D2B1C2B112279D7436
:101A67003D2BF58274003AF583E0F9E4FDEDC3946C
:101A770008748094805014E930E004D2B18002C227
:101A8700B1E9C313F912279D0D80E2D2B112279D48
:0A1A970012279D0BBB00010A80B16D
:0B1C030090013DEBF0A3EAF0A3E9F034
:101C0E00E4FFFE900143F0A3F0A3F0A3F090013D9A
:101C1E00E0FBA3E0FAA3E0F9120B386077900146DF
:101C2E00E004F07006900145E004F0900140E0FB06
:101C3E00A3E0FAA3E0F98F828E83120B51FD90017F
:101C4E003DE0FBA3E0FAA3E0F9120B38B505070F50
:101C5E00BF00010E8012E4FEFF900145E0FDA3E0FF
:101C6E00900143CDF0A3EDF090013EE475F001122A
:101C7E000C19900140E0FBA3E0FAA3E0F98F828EED
:101C8E0083120B51FD3395E04D7082900143E0FEBF
:081C9E00A3E0FF227EFF7FFF9F
:011CA600221B
:10182500E490015CF090015EF090015DF090015D47
:10183500E0C3940A748094804003021907E07E0097
:101845002DF582EE3CF583120B51FF3395E0FEC377
:10185500EF9430EE648094804052D3EF9437EE6479
:10186500809480504790015EE004F0E064017019B7
:1018750090015DE07E002DF582EE3CF583120B5163
:1018850024D0C454F090015CF090015EE0640270D5
:101895001B90015DE07E002DF582EE3CF583120B79
:1018A5005124D0FF90015CE04FFFF02290015DE0F4
:1018B5007E002DF582EE3CF583120B51FF3395E04A
:1018C500FEC3EF9438EE648094804011D3EF9439D1
:1018D500EE64809480500690015EE004F090015D16
:1018E500E07E002DF582EE3CF583120B51FF642C52
:1018F5006010EF3395E04F600990015DE004F00260
:07190500183290015CE0FFC5
:01190C0022B8
:08190D0090014DECF0A3EDF098
:10191500E4A3F0A3F0A3F0900151E0FFC394147485
:1019250080948040030219D390014EE02FFF90016F
:101935004DE034008F82F583120B51FF3395E0FEA5
:10194500C3EF9430EE648094804051D3EF9439EE28
:1019550064809480504690014FE0FEA3E0FF7C0038
:101965007D0A120BB290014FEEF0A3EFF0A3E0FF5A
:1019750090014EE02FFF90014DE034008F82F583FA
:10198500120B51FF3395E0FEEF24D0FFEE34FFFE3E
:10199500900150E02FF090014FE03EF0900151E0B2
:1019A500FF90014EE02FFF90014DE034008F82F54E
:1019B50083120B51FF642C6015EF642E6010EF331A
:1019C50095E04F6009900151E004F002191C900167
:0619D5004FE0FEA3E0FF5D
:0119DB0022E9
:1014D70090011FEBF0A3EAF0A3E9F0A3ECF0A3ED72
:0114E700F014
:1014E800E490012BF0A3F0A3F0A3F0A3F0A3F090F5
:1014F8000129F0A3F0900122E0FEA3E0FF9001296A
:10150800E0FCA3E0FDC39FEC9E40030215A79001F9
:1015180024E0FBA3E0FAA3E0F990012BE0FEA3E0AE
:10152800F5828E83120B51FF90011FE0FBA3E0FAB6
:10153800A3E0F98D828C83120B51B5073390012CEF
:10154800E004F0700690012BE004F0900127E0FE23
:10155800A3E0FF90012BE0B50631A3E0B5072C907E
:101568000129E0FFA3E090012FCFF0A3EFF0802F37
:10157800E490012BF0A3F090012AE02401FE9001F1
:1015880029E0340090012DF0A3CEF090012AE00468
:10159800F060030214FD900129E004F00214FD90AC
:1015A800012FE0FEA3E0FF90012DE0FCA3E0FDD3B6
:1015B8009FEC9E5044900129ECF0A3EDF090012F90
:1015C800E0FEA3E0FF900129E0FCA3E0FDC39FEC4F
:1015D8009E502390011FE0FBA3E0FAA3E0F98D825F
:1015E8008C83E4120B9090012AE004F070CF9001F4
:0B15F80029E004F080C77F01227F0083
:0116030022C4
:101335006770696F5F757070756C6C283C442530FB
:1013450032583E2C2564293BB2BBB4E6D4DAB8C387
:10135500494F0D0A006770696F5F757070756C6C29
:10136500283C44253032583E2C31293BB2BBB4E6EB
:10137500D4DAB8C3494F0D0A006770696F5F75709D
:1013850070756C6C283C44253032583E2C30293B16
:10139500B2BBB4E6D4DAB8C3494F0D0A0067706929
:1013A5006F5F6D6F6465283C44253032583E2C25AF
:1013B50064293BB2BBB4E6D4DAB8C3494F0D0A0081
:1013C5006770696F5F6D6F64652844253032582CEE
:1013D5003C25643E293BB2BBB4E6D4DAB8C3C4A30A
:1013E500CABD0D0A006770696F5F777269746528F9
:1013F5003C25643E2C2564293BB2BBB4E6D4DAB85F
:10140500C350BFDA0D0A006770696F5F726561646A
:10141500283C5025643E293BB2BBB4E6D4DAB8C3B8
:1014250050BFDA0D0A006770696F5F6F7574283CED
:1014350044253032583E2C2564293BB2BBB4E6D452
:10144500DAB8C3494F0D0A006770696F5F6F75742D
:10145500283C44253032583E2C31293BB2BBB4E6FA
:10146500D4DAB8C3494F0D0A006770696F5F6F75AD
:1014750074283C44253032583E2C30293BB2BBB44D
:10148500E6D4DAB8C3494F0D0A006770696F5F6922
:101495006E283C44253032583E293BB2BBB4E6D4D5
:1014A500DAB8C3494F0D0A006770696F5F746F67DB
:1014B500676C65283C44253032583E293BB2BBB4A5
:1014C500E6D4DAB8C3494F0D0A000102040810201A
:0214D500408055
:0A16040090000FEDF090000EEFF0E3
:10160E0064887003021715E0FF54F0F50DEF540FC8
:10161E00FF9014CF93F50ED3EF940774809480400F
:10162E00237BFF7A13793590000EE0FF900013E4D0
:10163E00F0A3EFF090000FE0FF900015E4F0A3EFA1
:10164E00F01219DC90000FE06055E50D24F06021DA
:10165E0024F0602224F0602324F0602424F060251E
:10166E0024F0602624F060272470702B90FE1080EA
:10167E002190FE11801C90FE12801790FE13801296
:10168E0090FE14800D90FE15800890FE168003903B
:10169E00FE17E0450EF0227BFF7A13795A8058E54B
:1016AE000D24F0602124F0602224F0602324F060E9
:1016BE002424F0602524F0602624F0602724707026
:1016CE003090FE10802190FE11801C90FE1280172B
:1016DE0090FE13801290FE14800D90FE15800890DF
:1016EE00FE16800390FE17E0FFE50EF4FEEF5EF0AF
:1016FE00227BFF7A13797E90000EE0FF900013E4B8
:07170E00F0A3EFF01219DC5B
:0117150022B1
:0A08240090000FEDF090000EEFF0D1
:10082E0064887003020B37E0FF54F0F50DEF540FA0
:10083E00FF9014CF93F50ED3EF94077480948040FD
:10084E00237BFF7A1379A290000EE0FF900013E451
:10085E00F0A3EFF090000FE0FF900015E4F0A3EF8F
:10086E00F01219DCE50D24F0602124F0602224F052
:10087E00602324F0602424F0602524F0602624F008
:10088E00602724707028E4F50D8046750D018041B7
:10089E00750D02803C750D038037750D0480327521
:1008AE000D05802D750D068028750D0780237BFFA5
:1008BE007A1379A290000EE0FF900013E4F0A3EFFC
:1008CE00F090000FE0FF900015E4F0A3EFF0121986
:1008DE00DC90000FE0FFD3940374809480401C7B67
:1008EE00FF7A1379C590000EE0FD900013E4F0A39B
:1008FE00EDF0A3E4F0A3EFF01219DCE50D704090DB
:10090E00000FE0FF7E007007E50EF452935294EF55
:10091E0064014E7009E50E4293E50EF45294900078
:10092E000FE064027008E50E4293E50E42949000CB
:10093E000FE064037009E50EF45293E50E4294E560
:10094E000D6401704090000FE0FF7E007007E50E11
:10095E00F452915292EF64014E7009E50E4291E508
:10096E000EF4529290000FE064027008E50E429170
:10097E00E50E429290000FE064037009E50EF4520A
:10098E0091E50E4292E50D6402704090000FE0FF7B
:10099E007E007007E50EF452955296EF64014E708C
:1009AE0009E50E4295E50EF4529690000FE06402B2
:1009BE007008E50E4295E50E429690000FE0640336
:1009CE007009E50EF45295E50E4296E50D6403703E
:1009DE004090000FE0FF7E007007E50EF452B1521A
:1009EE00B2EF64014E7009E50E42B1E50EF452B25B
:1009FE0090000FE064027008E50E42B1E50E42B2BF
:100A0E0090000FE064037009E50EF452B1E50E425A
:100A1E00B2E50D6404704090000FE0FF7E00700799
:100A2E00E50EF452B352B4EF64014E7009E50E4276
:100A3E00B3E50EF452B490000FE064027008E50EB8
:100A4E0042B3E50E42B490000FE064037009E50E68
:100A5E00F452B3E50E42B4E50D6405704090000FFC
:100A6E00E0FF7E007007E50EF452C952CAEF640132
:100A7E004E7009E50E42C9E50EF452CA90000FE021
:100A8E0064027008E50E42C9E50E42CA90000FE0FE
:100A9E0064037009E50EF452C9E50E42CAE50D6411
:100AAE0006704090000FE0FF7E007007E50EF452D6
:100ABE00CB52CCEF64014E7009E50E42CBE50EF43D
:100ACE0052CC90000FE064027008E50E42CBE50EAA
:100ADE0042CC90000FE064037009E50EF452CBE5B2
:100AEE000E42CCE50D6407704090000FE0FF7E00D3
:100AFE007007E50EF452E152E2EF64014E7009E523
:100B0E000E42E1E50EF452E290000FE0640270082E
:100B1E00E50E42E1E50E42E290000FE0640370093B
:090B2E00E50EF452E1E50E42E28D
:010B3700229B
:10217700EFB40900503A902184F828287302219F70
:102187000221A20221A50221A80221AB0221AE024F
:1021970021B10221B40221D08D80228D90228DA001
:1021A700228DB0228DC0228DC8228DE8228DF82283
:1021B7007BFF7A1379EA900013E4F0A3EFF0AF0501
:0A21C700A3E4F0A3EFF01219DC22EC
:1021D100EFB40900503D9021DEF82828730221F95F
:1021E1000221FC0221FF0222020222050222080230
:1021F100220B02220E022211AF8022AF9022AFA049
:1022010022AFB022AFC022AFC822AFE822AFF8227E
:102211007FFF227BFF7A14790C900013E4F0A3EF87
:07222100F01219DC7FFF221F
:0A17160090000FEDF090000EEFF0D0
:1017200064887003021824E0FF54F0F50DEF540FA5
:10173000FF9014CF93F50ED3EF94077480948040FC
:10174000237BFF7A14792B90000EE0FF900013E4C6
:10175000F0A3EFF090000FE0FF900015E4F0A3EF8E
:10176000F01219DC90000FE06052E50D24F06021CA
:1017700024F0602224F0602324F0602424F060250B
:1017800024F0602624F0602724707028E50E428043
:1017900022E50E429022E50E42A022E50E42B02242
:1017A000E50E42C022E50E42C822E50E42E822E5DF
:1017B0000E42F8227BFF7A14794D8058E50D24F013
:1017C000602224F0602424F0602624F0602824F0B5
:1017D000602A24F0602C24F0602E24707030E50E16
:1017E000F4528022E50EF4529022E50EF452A0222B
:1017F000E50EF452B022E50EF452C022E50EF4528A
:10180000C822E50EF452E822E50EF452F8227BFFDE
:101810007A14796E90000EE0FF900013E4F0A3EFCD
:04182000F01219DCCD
:0118240022A1
:051B590090015FEFF0B8
:101B5E0064887002FF2290015FE0FF54F0F50DEFF4
:101B6E00540FFF9014CF93F50ED3EF940774809417
:101B7E008040167BFF7A14798F90015FE0FF900012
:101B8E0013E4F0A3EFF01219DCE50D24F06021242C
:101B9E00F0602224F0602324F0602424F0602524D9
:101BAE00F0602624F060272470702885800F80391D
:101BBE0085900F803485A00F802F85B00F802A85E9
:101BCE00C00F802585C80F802085E80F801B85F803
:101BDE000F80167BFF7A14798F90015FE0FF9000E3
:101BEE0013E4F0A3EFF01219DCE50F550E60037F3E
:041BFE0001227F0041
:011C020022BF
:051CA700900160EFF068
:101CAC0064887003021D43E0FF54F0F50DEF540FF0
:101CBC00FF9014CF93F50ED3EF940774809480406B
:101CCC00167BFF7A1479AD900160E0FF900013E46D
:101CDC00F0A3EFF01219DCE50D24F0602124F06084
:101CEC002224F0602324F0602424F0602524F0608A
:101CFC002624F0602724707028E50E628022E50E01
:101D0C00629022E50E62A022E50E62B022E50E6220
:101D1C00C022E50E62C822E50E62E822E50E62F8EA
:101D2C00227BFF7A1479AD900160E0FF900013E400
:071D3C00F0A3EFF01219DC27
:011D4300227D
:1024F600EFB40800503E902503F828287302251BE8
:1025060002251F02252302252702252B02252F023D
:102516002533022537ED628022ED629022ED62A01E
:1025260022ED62B022ED62C022ED62C822ED62E8C1
:0525360022ED62F82215
:101D4400A907EB6048E9B408004003021DDD901DBB
:101D540059F8282873021D71021D75021D79021D90
:101D64007D021D81021D85021D89021D8DED4280AB
:101D740022ED429022ED42A022ED42B022ED42C07B
:101D840022ED42C822ED42E822ED42F822E9B408ED
:101D9400005046901D9EF8282873021DB6021DBBF4
:101DA400021DC0021DC5021DCA021DCF021DD402A0
:101DB4001DD9EDF4528022EDF4529022EDF452A09C
:101DC40022EDF452B022EDF452C022EDF452C822B6
:0A1DD400EDF452E822EDF452F8227B
:10227F00EFB40900504590228CF82828730222A74A
:10228F000222AB0222AF0222B30222B70222BB020A
:10229F0022BF0222C30222C7AE80801FAE90801BD6
:1022AF00AEA08017AEB08013AEC0800FAEC8800B4B
:1022BF00AEE88007AEF880037F0122EE5D60037FFA
:0422CF0001227F0069
:0122D30022E8
:0827D40030313637161743447B
:1026350075985053873F538EDEE4FD7F011223C901
:1026450090000B120D920001C2007F0112253B4341
:102655008E4053890FC2ABC28FD28EC209D2AC2233
:1023C90090000AEDF0EF14704490000AE0FF54C049
:1023D900FEE5A2543F4EF5A2EFC41313540325E0C2
:1023E90024D4F582E43427F583E493FFE4FD12084D
:1023F9002490000AE0C41313540325E024D5F58280
:0E240900E43427F583E493FF7D0312082422B8
:05253B0090000AEFF022
:10254000E47B04FAF9F8900139E0FCA3E0FDA3E094
:10255000FEA3E0FF120CD090000BE0F8A3E0F9A37B
:10256000E0FAA3E0FB120CD0C3E49FFFE49EFE90D0
:0B257000000AE01470058F8BEEF58D63
:01257B00223D
:0E27B000EF147009AF058F99D2092009FD22A0
:10276E00EF147016EB6006D29BD29B8004C29BC204
:0B277E009BAF058F99D2092009FD22B6
:1025FE00900074EBF0A3EAF0A3E9F0AE079000743C
:10260E00E0FBA3E0FAA3E0F9120B386019AF0690D5
:10261E000074A3E475F001120C2FA9F0FA120B3816
:07262E00FD1227B080D72246
:0E204E009000B0EFF0A3EBF0A3EAF0A3E9F0EE
:10205C0090011C7401F0A37400F0A374B4F0900010
:10206C00B1E0F9A3E0FAA3E0900082C9F0A3EAF092
:10207C00A3E9F090011CE0F9A3E0FAA3E09000853D
:10208C00C9F0A3EAF0A3E9F07B017A0079DC122411
:10209C006590011CE4F0A3F0A3F09000B0E0FF7B8E
:0820AC00017A0079DC0225FE37
:030023000224AF05
:1024AF00C0E0C0F0C083C082C0D075D000C000C0F3
:1024BF0001C002C003C004C005C006C007309805A4
:1024CF00C2981226F5309904C299C209D007D006D6
:1024DF00D005D004D003D002D001D000D0D0D0820C
:0724EF00D083D0F0D0E032F1
:0827900041014C0041014B0026
:10232800900002120B51FF90014BE06F6042120BBC
:1023380038FEC4540F900149F0EE540FFEF87401B2
:10234800088002C333D8FC90014AF0900001120BB8
:1023580051FEC4540F900147F0EE540FFEF874017B
:10236800088002C333D8FC900148F090014BEFF08D
:012378002242
:101E6A00900152EBF0A3EAF0A3E9F0A3EDF09001A0
:101E7A0052E0FBA3E0FAA3E0F9ED120B7E900156C3
:101E8A00E0FF900152E0FBA3E0FAA3E0F990000121
:101E9A00EF120B90900155E0FF7D02120824900189
:101EAA0056E0FF7D02120824900155E0FF7D0112E1
:101EBA001604900156E0FF7D01121604900155E0C8
:101ECA00FF7D01121716900156E0FF7D01121716C9
:101EDA0090014CE004FFF0900152E0FBA3E0FAA36A
:0C1EEA00E0F9900002EF120B9002232898
:10257C0090014BE06F6039EDC4540F900149F0EDC0
:10258C00540FFEF87401088002C333D8FC90014A42
:10259C00F0EBC4540F900147F0EB540FFEF87401AC
:1025AC00088002C333D8FC900148F090014BEFF047
:0125BC0022FC
:0A22D40090000DEDF090000CEFF00B
:1022DE007D0212082490000DE0FF7D02120824906A
:1022EE00000CE0FF7D0112160490000DE0FF7D0151
:1022FE0012160490000CE0FF7D0112171690000DCF
:10230E00E0FF7D0112171690014CE004F0FCFF90E7
:0A231E00000CE0FDA3E0FB02257CAB
:10222800900147E0FFA3E0FD7B01121D44900149A6
:10223800E0FFA3E0FD7B01121D44900147E0FFA3EE
:10224800E0FD12227FEF70037FFF22900147E0FF3D
:10225800A3E0FD1224F6900147E0FFA3E0FD12225F
:102268007FEF640170037FFF22900149E0FFA3E044
:07227800FD1224F67F002295
:10266500900147E0FFA3E0FDE4FB121D4490014902
:10267500E0FFA3E0FDE4FB121D44900149E0FFA348
:10268500E0FD1224F6900147E0FFA3E0FD0224F6E9
:10269500900149E0FFA3E0FDE4FB121D44900147D2
:1026A500E0FFA3E0FDE4FB121D44900149E0FFA318
:1026B500E0FD1224F6900149E0FFA3E0FD0224F6B7
:1026C500900149E0FFA3E0FDE4FB121D44900147A2
:1026D500E0FFA3E0FD7B01121D44900149E0FFA34B
:1026E500E0FD1224F6900149E0FFA3E0FD0224F687
:10241700900149E0FFA3E0FDE4FB121D4490014752
:10242700E0FFA3E0FD7B01121D44900149E0FFA3FB
:10243700E0FD1224F6900147E0FFA3E0FD12227FA2
:10244700EF6401900149700BE0FFA3E0FD1224F651
:0E2457007FFF22E0FFA3E0FD1224F67F0022AB
:051EF60090001DEFF05B
:101EFB0090001FF090014730E709E0FFA3E0FD7B66
:101F0B00018007E0FFA3E0FDE4FB121D44900149B3
:101F1B00E0FFA3E0FDE4FB121D44E490001EF090F3
:101F2B00001EE0C3940874809480504490001DE020
:101F3B00FF90001FE06F30E70B900147E0FFA3E03D
:101F4B00FD1224F6900149E0FFA3E0FD1224F69068
:101F5B00001DE090001FF025E090001DF09001495E
:101F6B00E0FFA3E0FD1224F690001EE004F080AF2A
:011F7B002243
:101FE600E490001BF0900147E0FFA3E0FD7B0112A7
:101FF6001D44E490001AF090001AE0C3940874801F
:102006009480503EA3E025E0F0900149E0FFA3E074
:10201600FD7B01121D44900147E0FFA3E0FD122263
:102026007FEF6401700790001BE04401F0900149C6
:10203600E0FFA3E0FDE4FB121D4490001AE004F06B
:0720460080B590001BE0FFD4
:01204D002270
:0B1F7C00900157EBF0A3EAF0A3E9F09E
:101F8700E490015BF090015AF090015AE0C394800D
:101F970074809480504312222890015AE025E0FF74
:101FA700121EF6122417EF702590015AE025E0FF64
:101FB700900157E0FBA3E0FAA3E0F990015BE0F59D
:101FC70082758300EF120B9090015BE004F01226FC
:0E1FD7006590015AE004F080B090015BE0FFDD
:011FE50022D9
:04279800410161009A
:1025BD0090000CEBF0A3EAF0A3E9F090000CE0FB27
:1025CD00A3E0FAA3E0F9900001120B51FF90000275
:1025DD00120B51FD900003120B51FB12257C900044
:1025ED000CE0FBA3E0FAA3E0F9120B38900161F0C7
:0125FD0022BB
:10237900900006EBF0A3EAF0A3E9F090000AE0FF71
:10238900900006E0FBA3E0FAA3E0F9900002EF1247
:102399000B9090000BE0900003120B90ED120B7E56
:1023A90090000AE0FFA3E0FD1222D4900006E0FBB2
:1023B900A3E0FAA3E0F9900001EF120B900225BD0A
:10002600900006EEF0A3EFF0A3EBF0A3EAF0A3E94D
:01003600F0D9
:10003700900161E0FB54F0120DC3006600006910E7
:1000470000852000973000AE4000C85000E46000F3
:10005700F07000FC800108900114A0000001307FBF
:100067000122900011120D9200000080EB5407242A
:100077005090001CF090001B7408F00201309000B3
:1000870011120D9200000100900161E05407803FBA
:10009700900011120D9200000200900006E0FF9000
:1000A7000161E054068015900011120D92000004C2
:1000B70000900006E0FF900161E0540424502F8077
:1000C70010900011120D9200000800900006E02425
:1000D7005090001CF090001B7410F0804C900011A1
:1000E700120D9200001000802E900011120D920048
:1000F7000020008022900011120D92000040008025
:1001070016900011120D9200008000800A900011D5
:10011700120D9200010000900161E05407245090F5
:10012700001CF090001B7420F0900006E0FEA3E096
:10013700FFE4FCFD900011E0F8A3E0F9A3E0FAA3C7
:10014700E0FBC3120D6250037F042290000BE0FE18
:10015700A3E0FBAA06900006E0FEA3E0FFEF2BFF5B
:10016700EE3AFEE433FDE433FC900011E0F8A3E03F
:10017700F9A3E0FAA3E0FBC3120D62502890000632
:10018700E0FEA3E0FBAA06900011E0FCA3E0FDA3BC
:10019700E0FEA3E0C39BFFEE9AFEED9400FDEC9416
:1001A70000FCA3800E90000BE0FEA3E0FFE4FCFD43
:1001B700900015120D8690001BE0FD7C0090000654
:1001C700E0FEA3E0FF120BC4900019EEF0A3EFF0DE
:1001D70012222890001CE025E0FF121EF6122417B9
:1001E700EF600302042990001BE064207011900067
:1001F70006E0FF121EF6122417EF6003020429908F
:100207000007E0FF121EF6122417EF60030204290D
:1002170090000D120D9200000000900015E0FCA365
:10022700E0FDA3E0FEA3E0FF90000DE0F8A3E0F9F6
:10023700A3E0FAA3E0FBC3120D62400302047D9022
:100247000006E0FEA3E0FFE4FCFD90000DE0F8A34C
:10025700A3A3E02FFFEA3EFEED39FDEC38FCC00713
:1002670090001BE0FBE4FAF9F8D007120CD0A804C1
:10027700A905AA06AB07900019E0FEA3E0FFE4FC7E
:10028700FDC3120D62700302042F900006E0FEA367
:10029700E0FFE4FCFD90000DE0F8A3E0F9A3E0FA2D
:1002A700A3E02FFFEA3EFEED39FDEC38FCC00790D6
:1002B700001BE0FBE4FAF9F8D007120CD090001904
:1002C700EEF0A3EFF0122665900161E0FF54F01203
:1002D7000DC302FB1003952002FF30032F4003627A
:1002E700500395600395700395800395900395A03F
:1002F700000003A1EF02038F900006E0FEA3E0FFDA
:10030700E4FCFD90000DE0F8A3E0F9A3E0FAA3E018
:100317002FFFEA3EFEED39FDEC38FC7808120D732D
:10032700900161E05406802E900006E0FEA3E0FFF6
:10033700E4FCFD90000DE0F8A3E0F9A3E0FAA3E0E8
:100347002FFFEA3EFEED39FDEC38FC7808120D73FD
:10035700900161E0540424502F803B900006E0FE9A
:10036700A3E0FFE4FCFD90000DE0F8A3E0F9A3E0B3
:10037700FAA3E02FFFEA3EFEED39FDEC38FC7808E2
:10038700120D73EF2450800E5407245080089001FB
:1003970061E05407245090001CF07F0A7E00120091
:1003A7000312222890001CE025E0FF121EF61224FB
:1003B70017EF6002806C90001BE06420703790009C
:1003C70006E0FEA3E0FFE4FCFD90000DE0F8A3E0EB
:1003D700F9A3E0FAA3E02FFFEA3EFEED39FDEC3882
:1003E700FCE4FB7A01F9F8120CD0121EF61224175E
:1003F700EF6002802D900006E0FEA3E0FFE4FCFD25
:1004070090000DE0F8A3E0F9A3E0FAA3E02FFFEADC
:100417003EFEED39FDEC38FCE4121EF6122417EF10
:1004270060061226657F022290000DA3A3E0FEA3BB
:10043700E0FF900008E0FBA3E0FAA3E0F98F828ECB
:1004470083120B51FF121EF6122417EF60061226B5
:10045700657F032290000DE0FCA3E0FDA3E0FEA36F
:10046700E02401FFE43EFEE43DFDE43CFC90000D8A
:10047700120D860202211226657F0A7E00120003F2
:1004870090000BE0FEA3E0FBAA06900006E0FEA3A7
:10049700E0FFEF2BFFEE3AFEE433FDE433FC900080
:1004A70011E0F8A3E0F9A3E0FAA3E0FBC3120D62A1
:0704B70050037F05227F00C6
:0104BE00221B
:100E3600900006EEF0A3EFF0A3EBF0A3EAF0A3E92F
:010E4600F0BB
:100E4700900161E0FB54F0120DC30E76000E79108D
:100E57000E86200E96300EAD400EC7500ED9600E8E
:100E6700ED700F01800F15900F29A000000F3F7F35
:100E77000122900011120D9200000080EB8061901A
:100E87000011120D9200000100900161E080519065
:100E97000011120D9200000200900006E0FF900181
:100EA70061E054068015900011120D9200000400B5
:100EB700900006E0FF900161E0540424502F8074F5
:100EC700900011120D9200000800900006E02450D7
:100ED7008062900011120D9200001000900161E0F5
:100EE70054072450804E900011120D9200002000EC
:100EF700900161E054072450803A900011120D923E
:100F070000004000900161E05407245080269000C3
:100F170011120D9200008000900161E054072450E7
:100F27008012900011120D9200010000900161E003
:100F370054072450900019F0900006E0FEA3E0FF4C
:100F4700E4FCFD900011E0F8A3E0F9A3E0FAA3E0C8
:100F5700FBC3120D6250037F042290000BE0FEA337
:100F6700E0FBAA06900006E0FEA3E0FFEF2BFFEEF2
:100F77003AFEE433FDE433FC900011E0F8A3E0F916
:100F8700A3E0FAA3E0FBC3120D625028900006E02D
:100F9700FEA3E0FBAA06900011E0FCA3E0FDA3E09E
:100FA700FEA3E0C39BFFEE9AFEED9400FDEC9400D8
:100FB700FCA3800E90000BE0FEA3E0FFE4FCFD9095
:100FC7000015120D86122228900019E025E0FF1265
:100FD7001EF6122417EF60028038E4FF7E08FDFC3E
:100FE700900011E0F8A3E0F9A3E0FAA3E0FBD31225
:100FF7000D624010900006E0FF121EF6122417EF54
:101007006002800E900007E0FF121EF6122417EF11
:1010170060061226657F0222122228900019E02519
:10102700E004FF121EF690000D120D920000000062
:10103700900015E0FCA3E0FDA3E0FEA3E0FF900015
:101047000DE0F8A3E0F9A3E0FAA3E0FBC3120D62F9
:101057005047122695121FE6C00790000DA3A3E084
:10106700FEA3E0FF900008E0FBA3E0FAA3E0F98FFE
:10107700828E83D0E0120B9090000DE0FCA3E0FD80
:10108700A3E0FEA3E02401FFE43EFEE43DFDE43CD3
:10109700FC90000D120D8680971226C512266590CA
:1010A700000BE0FEA3E0FF900007E02FFF90000693
:1010B700E03EFEE4FCFD900011E0F8A3E0F9A3E0B8
:0F10C700FAA3E0FBC3120D6250037F05227F00E6
:0110D60022F7
:101DEA000220B4E493A3F8E493A34003F68001F23B
:101DFA0008DFF48029E493A3F85407240CC8C333FA
:101E0A00C4540F4420C8834004F456800146F6DFC8
:101E1A00E4800B0102040810204080902789E47EA8
:101E2A00019360BCA3FF543F30E509541FFEE493BD
:101E3A00A360010ECF54C025E060A840B8E493A384
:101E4A00FAE493A3F8E493A3C8C582C8CAC583CAAF
:101E5A00F0A3C8C582C8CAC583CADFE9DEE780BE67
:01279C00003C
:100B3800BB010689828A83E0225002E722BBFE02BB
:090B4800E32289828A83E49322EE
:100B5100BB010CE58229F582E5833AF583E0225059
:100B610006E92582F8E622BBFE06E92582F8E222A3
:0D0B7100E58229F582E5833AF583E49322BD
:100B7E00BB010689828A83F0225002F722BBFE0156
:020B8E00F32250
:100B9000F8BB010DE58229F582E5833AF583E8F09B
:100BA000225006E92582C8F622BBFE05E92582C847
:020BB000F2222F
:100BB200EF8DF0A4A8F0CF8CF0A428CE8DF0A42E57
:020BC200FE2211
:100BC400BC000BBE0029EF8DF084FFADF022E4CC15
:100BD400F875F008EF2FFFEE33FEEC33FCEE9DECDE
:100BE400984005FCEE9DFE0FD5F0E9E4CEFD22ED24
:100BF400F8F5F0EE8420D21CFEADF075F008EF2F6E
:100C0400FFED33FD4007985006D5F0F222C398FD5E
:050C14000FD5F0EA22FB
:100C1900C5F0F8A3E028F0C5F0F8E5821582700266
:060C29001583E038F02203
:100C2F00A3F8E0C5F025F0F0E58215827002158378
:060C3F00E0C838F0E822D5
:100C4500E88FF0A4CC8BF0A42CFCE98EF0A42CFC4E
:100C55008AF0EDA42CFCEA8EF0A4CDA8F08BF0A4CC
:100C65002DCC3825F0FDE98FF0A42CCD35F0FCEB2B
:100C75008EF0A4FEA9F0EB8FF0A4CFC5F02ECD39F0
:0F0C8500FEE43CFCEAA42DCE35F0FDE43CFC225D
:100C940075F008758200EF2FFFEE33FECD33CDCC17
:100CA40033CCC58233C5829BED9AEC99E58298409A
:100CB4000CF582EE9BFEED9AFDEC99FC0FD5F0D677
:100CC400E4CEFBE4CDFAE4CCF9A88222B800C1B9A1
:100CD4000059BA002DEC8BF084CFCECDFCE5F0CBDF
:100CE400F97818EF2FFFEE33FEED33FDEC33FCEB18
:100CF40033FB10D703994004EB99FB0FD8E5E4F9D3
:100D0400FA227818EF2FFFEE33FEED33FDEC33FCBF
:100D1400C933C910D7059BE99A4007EC9BFCE99AB3
:100D2400F90FD8E0E4C9FAE4CCFB2275F010EF2FF8
:100D3400FFEE33FEED33FDCC33CCC833C810D707F8
:100D44009BEC9AE899400AED9BFDEC9AFCE899F833
:0E0D54000FD5F0DAE4CDFBE4CCFAE4C8F922C6
:100D6200EB9FF5F0EA9E42F0E99D42F0E89C45F0E7
:010D7200225E
:100D7300E8600FECC313FCED13FDEE13FEEF13FF5E
:030D8300D8F12282
:0C0D8600ECF0A3EDF0A3EEF0A3EFF022E0
:100D9200A8828583F0D083D082120DA9120DA912E8
:100DA2000DA9120DA9E473E493A3C583C5F0C5830D
:100DB200C8C582C8F0A3C583C5F0C583C8C582C8AB
:010DC200220E
:100DC300D083D082F8E4937012740193700DA3A3BF
:100DD30093F8740193F5828883E4737402936860D3
:060DE300EFA3A3A380DFD3
:100DE900EC8EF0A4CCC5F0CCCDF8EFA4CEC5F02D97
:100DF900FDE43CFCE8A42EC8C5F03DFDE43CFCEF55
:0D0E0900A4FFE5F028FEE43DFDE43CFC22E2
:10246500900082E0FFA3E0FEA3E0CF90008BF0A3F5
:10247500EEF0A3EFF0900085E0CBF0A3E0CAF0A367
:10248500E0C9F07F2290008EAD82AC83120B388DAF
:10249500828C83F0A309E970010ADFEC900085E0E6
:0A24A500FBA3E0FAA3E0F90205240E
:1004BF00E508248BF582E43400F583E005082290EB
:1004CF00008830070390008BE475F001120E1602BE
:1004DF000B382000E97F2ED2008018EF540F2490A4
:1004EF00D43440D4FF30040BEF24BFB41A005003B0
:1004FF002461FFE50960021509050CE50C70020582
:10050F000B30070E900088E475F001120E16EF0203
:10051F000B7E0227217403D2078003E4C207F5087C
:10052F00900088120E2DE4F509F50BF50CE5096026
:10053F00077F2012050280F5750AFFC201C200C2B3
:10054F0002C203C205C206C2081204CEFF700D30EC
:10055F0007057F00120513AF0CAE0B22B4255FC247
:10056F00D5C2041204CEFF24D0B40A00501A75F07D
:10057F000A780930D50508B6FF0106C6A426F6206D
:10058F00D5047002D20380D924CFB41A00EF5004DF
:10059F00C2E5D204020714D20180C6D20080C0D2B5
:1005AF000280BCD2D580BAD20580B47F201205025A
:1005BF002002077401B5090040F11204BFFF1205B4
:1005CF000202053CD208D20680951204BFFB12042A
:1005DF00BFFA1204BFF94A4B700679E57A077BFF21
:1005EF0020022EE509602A7E008E82758300120B91
:1005FF005160060EEE650A70F0C2D5EBC0E0EAC09E
:10060F00E0E9C0E0EE12075BD0E0F9D0E0FAD0E00D
:10061F00FB120B38FF60AAEBC0E0EAC0E0E9C0E0D4
:10062F00120502D0E02401F9D0E03400FAD0E0FB4B
:10063F00E50A0460DCD50AD980877BFF7A077957F2
:10064F00D202809C791080027908C206C208800805
:10065F00D2D5790A8004790AC2D5E50A047002F569
:10066F000AE4FAFDFEFF1204BFFC7B0820011312FF
:10067F0004BFFD7B1030000A1204BFFE1204BFFF3F
:10068F007B20EC3382D592D55013C3E43000069F04
:10069F00FFE49EFEE42001039DFDE49CFCE4CBF807
:1006AF00C201EC700CCFCECDCCE824F8F870F380FB
:1006BF0017C3EF33FFEE33FEED33FDEC33FCEB33BB
:1006CF00FB994002FB0FD8E9EB300105F8D0E0C4ED
:1006DF0048B201C0E00AEC4D4E4F78207B0070C24B
:1006EF00EAB50A0040BCC0E012075DD0F0D0E020B0
:1006FF000104C4C0E0C4B201C0F01204EBD0F0D5C5
:10070F00F0EB02053C120DC305D95306535805AA49
:10071F004C05A64206574F065F44065F4905BF4387
:08072F0006655506494606491E
:100737004506494708055005AE2D05B22E05D52BB0
:1007470005B62305D32007EE2A056E48000005CD20
:100757003F3F3F00790AA2D5200314300509B9109D
:10076700020404B9080104A2D5200602500104209E
:1007770002689202B509005034C0E07F20300319A7
:100787007F30A20272067205500F1207B4C202C26E
:1007970006C205C2087F30800F300503E9C0E012AA
:1007A7000502300503D0E0F9D0E0B509CC300517D4
:1007B7007F30B9100C1205027F583004077F78800C
:1007C70003B908031205023002057F2D0205027FD7
:1007D700202008F87F2B2006F322920280CF286E74
:1007E700756C6C2900D2011204BF3001F8C2017880
:1007F7000930D50108F602056E2D504349581204F9
:10080700BF2403B405004001E4900800931204F3E9
:0D081700743A1204F3D2037509040206536B
:100E1600F8E0FBA3A3E0F925F0F0E5821582700265
:070E26001583E0FA38F02209
:090E2D00EBF0A3EAF0A3E9F022C6
:10272100EFB40A07740D12272C740A309811A89976
:10273100B8130CC2983098FDA899C298B811F63018
:0727410099FDC299F59922F0
:00000001FF
