:03000000021922C0
:0C192200787FE4F6D8FD75812102196978
:101E32000D0A0D0A4572726F72204D43552C737450
:0D1E42006F702072756E6E696E670D0A007C
:101A820012093590000174F6F0A37444F0A3744671
:101A9200F0A3742DF0E4A3F0A374F2F0A374A4F005
:101AA200E4900000F0900000E0C3940774809480FA
:101AB200502AE0FF907FF993FE74012FF582E434FF
:101AC20000F583E0FFEE6F600B7BFF7A1E79321226
:101AD20019BC80FE900000E004F080C97FE87E031C
:051AE20012000380BBAF
:10101B004543424D205625752E25752E2575206F7F
:10102B006E2025730053544338460025754B00251D
:10103B00303275005332000D0A436865636B696E7D
:10104B0067204D4355204944002E004572726F7244
:10105B000D0A506C6561736520636865636B207462
:10106B0068652073657474696E67206F6620746899
:10107B0065204D4355206D6F64656C0D0A004F4B19
:10108B000D0A4944202020203A0025303258000D0B
:10109B000A004441544120203A31323809427974D4
:1010AB00650D0A004944415441203A313238094216
:1010BB007974650D0A005844415441203A2575094D
:1010CB00427974650D0A00464C415348203A256C11
:1010DB007509427974650D0A00454550524F4D3ADA
:1010EB00257509427974650D0A00535953434C4BCE
:1010FB003A256C7509487A0D0A004C53492020207B
:10110B003A257509487A0D0A004247562020203AA5
:10111B002575096D560D0A00454E4449414E3A005E
:10112B0062696709656E6469616E0D0A006C6974AA
:0D113B00746C6509656E6469616E0D0A00D3
:071E970044011800000000E7
:10000300EF4E601A900110E0FCA3E0FDED1D7001BE
:0E0013001C144C70F7EF1F70011E144E70E6A7
:0100210022BC
:081E6A0090007FE0FEA3E0FF01
:0A1E7200EF1FAC0670011E4C70F665
:011E7C002243
:101E0C00900110E0FCA3E0FD1208B0E47B83FAF92A
:101E1C00F8120745900114120873900114E0C313D3
:061E2C00FEA3E013FF22FB
:101DB900900113E06599600AE599F0E4900112F049
:101DC9008006900112E004F0900112E0C394E974D6
:0C1DD90080948040060075C76000002266
:100B9C0090000E7412F0A37434F0900013E4F0A3E0
:100BAC007403F0E4A3F0A3F0A3F0A37403F0A37414
:100BBC00FFF0A37410F0A37430F07BFF7A10791B54
:100BCC001219BC7BFF7A107936900013E4F0A374F1
:100BDC0002F01219BC7BFF7A10793A900013E4F002
:100BEC00A37420F01219BC7BFF7A10793F1219BC48
:100BFC00E490000DF07BFF7A1079421219BCE4905E
:100C0C00000CF090000CE0C3940774809480502981
:100C1C007BFF7A1079541219BC90000CE0FF907F86
:100C2C00F993FE74F12FF8E6B5060690000DE0047A
:100C3C00F090000CE004F080CA90000DE0640760B6
:100C4C00097BFF7A107956020D487BFF7A1079895F
:100C5C001219BCE490000CF090000CE0FFC3940758
:100C6C0074809480501F7BFF7A107995EF907FF9F8
:100C7C0093FF900013E4F0A3EFF01219BC90000C5A
:100C8C00E004F080D37BFF7A10799A1219BC7BFFB9
:100C9C007A10799D1219BC7BFF7A1079AF1219BCAE
:100CAC007BFF7A1079C19000137408F0A3E4F01262
:100CBC0019BC7BFF7A1079D290001312087F0000C8
:100CCC0080001219BC7BFF7A1079E4900013740237
:100CDC00F0A3E4F01219BC7BFF7A1079F59001189F
:100CEC00E0FCA3E0FDA3E0FEA3E0FF9000131208DC
:100CFC00731219BC7A11790578F81219AE7A117938
:100D0C001478EF1219AE7BFF7A1179231219BC906B
:100D1C00000EE0FF3395E0FEEF64124E70097BFF8E
:100D2C007A11792B1219BC90000EE0FF3395E0FE7E
:0F0D3C00EF64344E70097BFF7A1179381219BCBD
:010D4B002285
:0E19AE007BFFE6FF08E6900013CFF0A3EFF0FA
:0B19BC00900010EBF0A3EAF0A3E9F0AC
:1019C70090007B7401F0A37400F0A37413F09000EF
:1019D70010E0F9A3E0FAA3E0900081C9F0A3EAF0D0
:1019E700A3E9F090007BE0F9A3E0FAA3E09000847C
:1019F700C9F0A3EAF0A3E9F07B017A00793B121C56
:101A07003B90007BE4F0A3F0A3F07B017A00793BE5
:051A17007F01021D52D9
:1015E500EF14601614602C14604D14606C147003B5
:1015F5000216792405600302169C90FE02E0547ED3
:101605004480F0E030E0F390FE00E054FCF090FE02
:1016150003807A90FE04E0547E4480F0E030E0F3ED
:1016250090FE00E054FC4403F090FE02E4F090FECE
:1016350008F090FE03F02290FE08E0547E4480F00E
:10164500E030E0F390FE00E054FC4402F090FE042C
:10165500E4F090FE02F0A3F02290FE03E0543E4435
:1016650080F0E030E0F390FE00E054FC4401F0909F
:10167500FE02801990FE03E0543E44C0F0E030E0E5
:10168500F390FE00E054FC4401F090FE02E4F0907B
:08169500FE08F090FE04F022B3
:0C1E8B00EF90FE01700304F022EFF02243
:1009350043BA80AF9FE4FCFDFEC004A905AA06AB3F
:100945000778FBE6FFD000C3EF9BFFEE9AFEED991B
:10095500FDEC98FCE47BF07AD2F9F8120745C3E484
:100965009FFF74369EFE746E9DFD74019CFC900085
:1009750008120873900008E0FCA3E0FDA3E0FEA3C5
:10098500E0FFC00790FE01E0FBE4FAF9F8D007129A
:1009950007D09000081208737FC07EF67D577C0053
:1009A500900008E0F8A3E0F9A3E0FAA3E0FBC31286
:1009B5000862500D90011812087F00546000020B68
:1009C500647FC07E267D827C00900008E0F8A3E06D
:1009D500F9A3E0FAA3E0FBC3120862500D900118D9
:1009E50012087F005B8D80020B647F807EED7DAFFA
:1009F5007C00900008E0F8A3E0F9A3E0FAA3E0FB8F
:100A0500C3120862500D90011812087F00A8C0009B
:100A1500020B647F807E2D7DE87C00900008E0F865
:100A2500A3E0F9A3E0FAA3E0FBC3120862500D901E
:100A3500011812087F00B71B00020B647F807E3609
:100A45007D257C01900008E0F8A3E0F9A3E0FAA376
:100A5500E0FBC3120862500D90011812087F0119BE
:100A65004000020B647F807E567D417C019000082A
:100A7500E0F8A3E0F9A3E0FAA3E0FBC31208625093
:100A85000D90011812087F01312D00020B647F00C3
:100A95007EDB7D5F7C01900008E0F8A3E0F9A3E030
:100AA500FAA3E0FBC3120862500D90011812087FEB
:100AB50001518000020B647F607E197D857C019069
:100AC5000008E0F8A3E0F9A3E0FAA3E0FBC31208ED
:100AD50062500D90011812087F016E3600020B64FA
:100AE5007F207EE07DB27C01900008E0F8A3E0F96C
:100AF500A3E0FAA3E0FBC3120862500C90011812A0
:100B0500087F019BFCC080577FE07EA67DE07C01CD
:100B1500900008E0F8A3E0F9A3E0FAA3E0FBC31214
:100B25000862500C90011812087F01C9C380802FFC
:100B35007F607E2B7DFF7C01900008E0F8A3E0F943
:100B4500A3E0FAA3E0FBC312086290011850091252
:100B5500087F01FA4000800712087F02160EC0E4E4
:100B65007B107A27F9F8900118E0FCA3E0FDA3E0DB
:100B7500FEA3E0FF1207D0900110EEF0A3EFF0E422
:100B8500900113F0900112F0121D89D2AF7FF47E0F
:070B950001120003020B9C9A
:0B15200090000FEBF0A3EAF0A3E9F04D
:10152B007F647E00121E0C90007FEEF0A3EFF09014
:10153B00007C7401F0A37400F0A37412F090000F00
:10154B00E0F9A3E0FAA3E0900081C9F0A3EAF0A3CD
:10155B00E9F090007CE0F9A3E0FAA3E0900084C9E5
:10156B00F0A3EAF0A3E9F07B017A00793C121C3B73
:10157B0090003AEEF0A3EFF090007CE4F0A3F0A320
:10158B00F07FF47E01120003E4FBFAD390003BE002
:10159B009B90003AE09A40E9D2B1C2B1121E6A7434
:1015AB003C2BF58274003AF583E0F9E4FDEDC3942E
:1015BB0008748094805014E930E004D2B18002C2E8
:1015CB00B1E9C313F9121E6A0D80E2D2B1121E6A81
:0A15DB00121E6A0BBB00010A80B16A
:0B17470090011CEBF0A3EAF0A3E9F016
:10175200E4FFFE900122F0A3F0A3F0A3F090011C9D
:10176200E0FBA3E0FAA3E0F912069F60779001255F
:10177200E004F07006900124E004F090011FE0FB09
:10178200A3E0FAA3E0F98F828E831206B8FD9001DE
:101792001CE0FBA3E0FAA3E0F912069FB505070FD0
:1017A200BF00010E8012E4FEFF900124E0FDA3E0E1
:1017B200900122CDF0A3EDF090011DE475F001122D
:1017C200071990011FE0FBA3E0FAA3E0F98F828ED4
:1017D200831206B8FD3395E04D7082900122E0FE3F
:0817E200A3E0FF227EFF7FFF60
:0117EA0022DC
:10136900E490012BF090012DF090012CF090012CCC
:10137900E0C3940A74809480400302144BE07E0019
:101389002DF582EE3CF5831206B8FF3395E0FEC3D6
:10139900EF9430EE648094804052D3EF9437EE643A
:1013A900809480504790012DE004F0E064017019A9
:1013B90090012CE07E002DF582EE3CF5831206B8F3
:1013C90024D0C454F090012BF090012DE0640270F8
:1013D9001B90012CE07E002DF582EE3CF583120670
:1013E900B824D0FF90012BE04FFFF02290012CE0B0
:1013F9007E002DF582EE3CF5831206B8FF3395E0A9
:10140900FEC3EF9438EE648094804011D3EF943991
:10141900EE64809480500690012DE004F090012C38
:10142900E07E002DF582EE3CF5831206B8FF642CB0
:101439006010EF3395E04F600990012CE004F00251
:07144900137690012BE0FF78
:011450002279
:08145100900126ECF0A3EDF080
:10145900E4A3F0A3F0A3F090012AE0FFC39414746D
:101469008094804003021517900127E02FFF900117
:1014790026E034008F82F5831206B8FF3395E0FE2B
:10148900C3EF9430EE648094804051D3EF9439EEE9
:10149900648094805046900128E0FEA3E0FF7C0020
:1014A9007D0A120707900128EEF0A3EFF0A3E0FFF1
:1014B900900127E02FFF900126E034008F82F58309
:1014C9001206B8FF3395E0FEEF24D0FFEE34FFFE9D
:1014D900900129E02FF0900128E03EF090012AE0E8
:1014E900FF900127E02FFF900126E034008F82F55D
:1014F900831206B8FF642C6015EF642E6010EF3379
:1015090095E04F600990012AE004F002146090010F
:0615190028E0FEA3E0FF44
:01151F0022A9
:100EEE009000FEEBF0A3EAF0A3E9F0A3ECF0A3ED83
:010EFE00F003
:100EFF00E490010AF0A3F0A3F0A3F0A3F0A3F09005
:100F0F000108F0A3F0900101E0FEA3E0FF900108BB
:100F1F00E0FCA3E0FDC39FEC9E4003020FBE9001D7
:100F2F0003E0FBA3E0FAA3E0F990010AE0FEA3E0DF
:100F3F00F5828E831206B8FF9000FEE0FBA3E0FA65
:100F4F00A3E0F98D828C831206B8B5073390010B9D
:100F5F00E004F0700690010AE004F0900106E0FE54
:100F6F00A3E0FF90010AE0B50631A3E0B5072C908E
:100F7F000108E0FFA3E090010ECFF0A3EFF0802F68
:100F8F00E490010AF0A3F0900109E02401FE900122
:100F9F0008E0340090010CF0A3CEF0900109E004BA
:100FAF00F06003020F14900108E004F0020F149098
:100FBF00010EE0FEA3E0FF90010CE0FCA3E0FDD3E7
:100FCF009FEC9E5044900108ECF0A3EDF090010EC1
:100FDF00E0FEA3E0FF900108E0FCA3E0FDC39FEC5F
:100FEF009E50239000FEE0FBA3E0FAA3E0F98D8270
:100FFF008C83E41206E5900109E004F070CF9001B4
:0B100F0008E004F080C77F01227F0092
:01101A0022B3
:100D4C006770696F5F757070756C6C283C442530EA
:100D5C0032583E2C2564293BB2BBB4E6D4DAB8C376
:100D6C00494F0D0A006770696F5F757070756C6C18
:100D7C00283C44253032583E2C31293BB2BBB4E6DA
:100D8C00D4DAB8C3494F0D0A006770696F5F75708C
:100D9C0070756C6C283C44253032583E2C30293B05
:100DAC00B2BBB4E6D4DAB8C3494F0D0A0067706918
:100DBC006F5F6D6F6465283C44253032583E2C259E
:100DCC0064293BB2BBB4E6D4DAB8C3494F0D0A0070
:100DDC006770696F5F6D6F64652844253032582CDD
:100DEC003C25643E293BB2BBB4E6D4DAB8C3C4A3F9
:100DFC00CABD0D0A006770696F5F777269746528E8
:100E0C003C25643E2C2564293BB2BBB4E6D4DAB84D
:100E1C00C350BFDA0D0A006770696F5F7265616459
:100E2C00283C5025643E293BB2BBB4E6D4DAB8C3A7
:100E3C0050BFDA0D0A006770696F5F6F7574283CDC
:100E4C0044253032583E2C2564293BB2BBB4E6D441
:100E5C00DAB8C3494F0D0A006770696F5F6F75741C
:100E6C00283C44253032583E2C31293BB2BBB4E6E9
:100E7C00D4DAB8C3494F0D0A006770696F5F6F759C
:100E8C0074283C44253032583E2C30293BB2BBB43C
:100E9C00E6D4DAB8C3494F0D0A006770696F5F6911
:100EAC006E283C44253032583E293BB2BBB4E6D4C4
:100EBC00DAB8C3494F0D0A006770696F5F746F67CA
:100ECC00676C65283C44253032583E293BB2BBB494
:100EDC00E6D4DAB8C3494F0D0A0001020408102009
:020EEC00408044
:0A11480090012FEDF090012EEFF062
:1011520064887003021259E0FF54F0F50DEF540F4A
:10116200FF900EE693F50ED3EF94077480948040BF
:10117200237BFF7A0D794C90012EE0FF900012E460
:10118200F0A3EFF090012FE0FF900014E4F0A3EF42
:10119200F012152090012FE06055E50D24F060213A
:1011A20024F0602224F0602324F0602424F06025DF
:1011B20024F0602624F060272470702B90FE1080AB
:1011C2002190FE11801C90FE12801790FE13801257
:1011D20090FE14800D90FE15800890FE16800390FC
:1011E200FE17E0450EF0227BFF7A0D79718058E5FB
:1011F2000D24F0602124F0602224F0602324F060AA
:101202002424F0602524F0602624F06027247070E6
:101212003090FE10802190FE11801C90FE128017EB
:1012220090FE13801290FE14800D90FE158008909F
:10123200FE16800390FE17E0FFE50EF4FEEF5EF06F
:10124200227BFF7A0D799590012EE0FF900012E447
:07125200F0A3EFF0121520DC
:011259002272
:0A038B0090000EEDF090000DEFF071
:100395006488700302069EE0FF54F0F50DEF540FDC
:1003A500FF900EE693F50ED3EF940774809480408A
:1003B500237BFF7A0D79B990000DE0FF900012E4E0
:1003C500F0A3EFF090000EE0FF900014E4F0A3EF2F
:1003D500F0121520E50D24F0602124F0602224F0B0
:1003E500602324F0602424F0602524F0602624F0A6
:1003F500602724707028E4F50D8046750D01804155
:10040500750D02803C750D038037750D04803275BE
:100415000D05802D750D068028750D0780237BFF42
:100425007A0D79B990000DE0FF900012E4F0A3EF8A
:10043500F090000EE0FF900014E4F0A3EFF0121529
:100445002090000EE0FFD3940374809480401C7BC1
:10045500FF7A0D79DC90000DE0FD900012E4F0A329
:10046500EDF0A3E4F0A3EFF0121520E50D70409038
:10047500000EE0FF7E007007E50EF452935294EFF4
:1004850064014E7009E50E4293E50EF45294900016
:100495000EE064027008E50E4293E50E429490006A
:1004A5000EE064037009E50EF45293E50E4294E5FF
:1004B5000D6401704090000EE0FF7E007007E50EB0
:1004C500F452915292EF64014E7009E50E4291E5A6
:1004D5000EF4529290000EE064027008E50E42910F
:1004E500E50E429290000EE064037009E50EF452A9
:1004F50091E50E4292E50D6402704090000EE0FF1A
:100505007E007007E50EF452955296EF64014E7029
:1005150009E50E4295E50EF4529690000EE0640250
:100525007008E50E4295E50E429690000EE06403D4
:100535007009E50EF45295E50E4296E50D640370DB
:100545004090000EE0FF7E007007E50EF452B152B8
:10055500B2EF64014E7009E50E42B1E50EF452B2F8
:1005650090000EE064027008E50E42B1E50E42B25D
:1005750090000EE064037009E50EF452B1E50E42F9
:10058500B2E50D6404704090000EE0FF7E00700738
:10059500E50EF452B352B4EF64014E7009E50E4214
:1005A500B3E50EF452B490000EE064027008E50E57
:1005B50042B3E50E42B490000EE064037009E50E07
:1005C500F452B3E50E42B4E50D6405704090000E9B
:1005D500E0FF7E007007E50EF452C952CAEF6401D0
:1005E5004E7009E50E42C9E50EF452CA90000EE0C0
:1005F50064027008E50E42C9E50E42CA90000EE09D
:1006050064037009E50EF452C9E50E42CAE50D64AE
:1006150006704090000EE0FF7E007007E50EF45274
:10062500CB52CCEF64014E7009E50E42CBE50EF4DA
:1006350052CC90000EE064027008E50E42CBE50E48
:1006450042CC90000EE064037009E50EF452CBE550
:100655000E42CCE50D6407704090000EE0FF7E0071
:100665007007E50EF452E152E2EF64014E7009E5C0
:100675000E42E1E50EF452E290000EE064027008CD
:10068500E50E42E1E50E42E290000EE064037009DA
:09069500E50EF452E1E50E42E22B
:01069E002239
:101AE700EFB40900503A901AF4F8282873021B0F34
:101AF700021B12021B15021B18021B1B021B1E02D4
:101B07001B21021B24021B408D80228D90228DA059
:101B1700228DB0228DC0228DC8228DE8228DF82219
:101B27007BFF7A0E7901900012E4F0A3EFF0AF0586
:0A1B3700A3E4F0A3EFF01215202242
:101B4100EFB40900503D901B4EF8282873021B6921
:101B5100021B6C021B6F021B72021B75021B7802B7
:101B61001B7B021B7E021B81AF8022AF9022AFA0A4
:101B710022AFB022AFC022AFC822AFE822AFF82215
:101B81007FFF227BFF7A0E7923900012E4F0A3EF0E
:071B9100F01215207FFF2276
:0A125A00900131EDF0900130EFF04B
:1012640064887003021368E0FF54F0F50DEF540F27
:10127400FF900EE693F50ED3EF94077480948040AC
:10128400237BFF7A0E7942900130E0FF900012E454
:10129400F0A3EFF0900131E0FF900014E4F0A3EF2D
:1012A400F0121520900131E06052E50D24F0602128
:1012B40024F0602224F0602324F0602424F06025CC
:1012C40024F0602624F0602724707028E50E428004
:1012D40022E50E429022E50E42A022E50E42B02203
:1012E400E50E42C022E50E42C822E50E42E822E5A0
:1012F4000E42F8227BFF7A0E79648058E50D24F0C3
:10130400602224F0602424F0602624F0602824F075
:10131400602A24F0602C24F0602E24707030E50ED6
:10132400F4528022E50EF4529022E50EF452A022EB
:10133400E50EF452B022E50EF452C022E50EF4524A
:10134400C822E50EF452E822E50EF452F8227BFF9F
:101354007A0E7985900130E0FF900012E4F0A3EF5B
:04136400F01215204E
:011368002262
:05169D00900132EFF0A6
:1016A20064887002FF22900132E0FF54F0F50DEFE2
:1016B200540FFF900EE693F50ED3EF9407748094C7
:1016C2008040167BFF7A0E79A6900132E0FF9000EF
:1016D20012E4F0A3EFF0121520E50D24F0602124AE
:1016E200F0602224F0602324F0602424F06025249A
:1016F200F0602624F060272470702885800F8039DE
:1017020085900F803485A00F802F85B00F802A85A9
:10171200C00F802585C80F802085E80F801B85F8C3
:101722000F80167BFF7A0E79A6900132E0FF9000BF
:1017320012E4F0A3EFF0121520E50F550E60037FBF
:0417420001227F0001
:011746002280
:0517EB00900133EFF056
:1017F00064887003021887E0FF54F0F50DEF540F72
:10180000FF900EE693F50ED3EF940774809480401A
:10181000167BFF7A0E79C4900133E0FF900012E44A
:10182000F0A3EFF0121520E50D24F0602124F06004
:101830002224F0602324F0602424F0602524F0604A
:101840002624F0602724707028E50E628022E50EC1
:10185000629022E50E62A022E50E62B022E50E62E1
:10186000C022E50E62C822E50E62E822E50E62F8AB
:10187000227BFF7A0E79C4900133E0FF900012E4DE
:07188000F0A3EFF0121520A8
:01188700223E
:101CCC00EFB40800503E901CD9F8282873021CF180
:101CDC00021CF5021CF9021CFD021D01021D05026D
:101CEC001D09021D0DED628022ED629022ED62A0B5
:101CFC0022ED62B022ED62C022ED62C822ED62E8F4
:051D0C0022ED62F82247
:10188800A907EB6048E9B408004003021921901841
:101898009DF82828730218B50218B90218BD021855
:1018A800C10218C50218C90218CD0218D1ED42802C
:1018B80022ED429022ED42A022ED42B022ED42C03C
:1018C80022ED42C822ED42E822ED42F822E9B408AE
:1018D8000050469018E2F82828730218FA0218FFF8
:1018E80002190402190902190E0219130219180221
:1018F800191DEDF4528022EDF4529022EDF452A01D
:1019080022EDF452B022EDF452C022EDF452C82276
:0A191800EDF452E822EDF452F8223B
:101B9800EFB409005045901BA5F8282873021BC014
:101BA800021BC4021BC8021BCC021BD0021BD4029E
:101BB8001BD8021BDC021BE0AE80801FAE90801B8E
:101BC800AEA08017AEB08013AEC0800FAEC8800B39
:101BD800AEE88007AEF880037F0122EE5D60037FE8
:041BE80001227F0057
:011BEC0022D6
:081E9F003031363716174344B9
:101D890075985053873F538EDEE4FD7F01121BED9A
:101D990090000D12087F0001C2007F01121D11433E
:101DA9008E4053890FC2ABC28FD28EC209D2AC22E8
:101BED0090000CEDF0EF14704490000CE0FF54C029
:101BFD00FEE5A2543F4EF5A2EFC41313540325E0A6
:101C0D00249FF582E4341EF583E493FFE4FD120373
:101C1D008B90000CE0C41313540325E024A0F5822F
:0E1C2D00E4341EF583E493FF7D0312038B2243
:051D110090000CEFF052
:101D1600E47B04FAF9F8900118E0FCA3E0FDA3E0E7
:101D2600FEA3E0FF1207D090000DE0F8A3E0F9A3B0
:101D3600E0FAA3E0FB1207D0C3E49FFFE49EFE9007
:0B1D4600000CE01470058F8BEEF58D93
:011D5100226F
:0E1E7D00EF147009AF058F99D2092009FD22DC
:101E4F00EF147016EB6006D29BD29B8004C29BC22C
:0B1E5F009BAF058F99D2092009FD22DE
:101D520090007EEBF0A3EAF0A3E9F0AE0790007EDC
:101D6200E0FBA3E0FAA3E0F912069F6019AF069028
:101D7200007EA3E475F00112072FA9F0FA12069F64
:071D8200FD121E7D80D72237
:0E1A1C009000AFEFF0A3EBF0A3EAF0A3E9F027
:101A2A009000FB7401F0A37400F0A374B3F090006B
:101A3A00B0E0F9A3E0FAA3E0900081C9F0A3EAF0CC
:101A4A00A3E9F09000FBE0F9A3E0FAA3E090008498
:101A5A00C9F0A3EAF0A3E9F07B017A0079DB121C52
:101A6A003B9000FBE4F0A3F0A3F09000AFE0FF7B13
:081A7A00017A0079DB021D5224
:03002300021C8537
:101C8500C0E0C0F0C083C082C0D075D000C000C025
:101C950001C002C003C004C005C006C007309805D6
:101CA500C298121DB9309904C299C209D007D0064D
:101CB500D005D004D003D002D001D000D0D0D0823E
:071CC500D083D0F0D0E03223
:10192E00021A82E493A3F8E493A34003F68001F233
:10193E0008DFF48029E493A3F85407240CC8C333BA
:10194E00C4540F4420C8834004F456800146F6DF89
:10195E00E4800B0102040810204080901E97E47E64
:10196E00019360BCA3FF543F30E509541FFEE4937E
:10197E00A360010ECF54C025E060A840B8E493A345
:10198E00FAE493A3F8E493A3C8C582C8CAC583CA70
:10199E00F0A3C8C582C8CAC583CADFE9DEE780BE28
:011E9E000043
:10069F00BB010689828A83E0225002E722BBFE0259
:0906AF00E32289828A83E493228C
:1006B800BB010CE58229F582E5833AF583E02250F7
:1006C80006E92582F8E622BBFE06E92582F8E22241
:0D06D800E58229F582E5833AF583E493225B
:1006E500F8BB010DE58229F582E5833AF583E8F04B
:1006F500225006E92582C8F622BBFE05E92582C8F7
:02070500F222DE
:10070700EF8DF0A4A8F0CF8CF0A428CE8DF0A42E06
:02071700FE22C0
:10071900C5F0F8A3E028F0C5F0F8E582158270026B
:060729001583E038F02208
:10072F00A3F8E0C5F025F0F0E5821582700215837D
:06073F00E0C838F0E822DA
:10074500E88FF0A4CC8BF0A42CFCE98EF0A42CFC53
:100755008AF0EDA42CFCEA8EF0A4CDA8F08BF0A4D1
:100765002DCC3825F0FDE98FF0A42CCD35F0FCEB30
:100775008EF0A4FEA9F0EB8FF0A4CFC5F02ECD39F5
:0F078500FEE43CFCEAA42DCE35F0FDE43CFC2262
:1007940075F008758200EF2FFFEE33FECD33CDCC1C
:1007A40033CCC58233C5829BED9AEC99E58298409F
:1007B4000CF582EE9BFEED9AFDEC99FC0FD5F0D67C
:1007C400E4CEFBE4CDFAE4CCF9A88222B800C1B9A6
:1007D4000059BA002DEC8BF084CFCECDFCE5F0CBE4
:1007E400F97818EF2FFFEE33FEED33FDEC33FCEB1D
:1007F40033FB10D703994004EB99FB0FD8E5E4F9D8
:10080400FA227818EF2FFFEE33FEED33FDEC33FCC4
:10081400C933C910D7059BE99A4007EC9BFCE99AB8
:10082400F90FD8E0E4C9FAE4CCFB2275F010EF2FFD
:10083400FFEE33FEED33FDCC33CCC833C810D707FD
:100844009BEC9AE899400AED9BFDEC9AFCE899F838
:0E0854000FD5F0DAE4CDFBE4CCFAE4C8F922CB
:10086200EB9FF5F0EA9E42F0E99D42F0E89C45F0EC
:010872002263
:0C087300ECF0A3EDF0A3EEF0A3EFF022F8
:10087F00A8828583F0D083D0821208961208961230
:10088F000896120896E473E493A3C583C5F0C58355
:10089F00C8C582C8F0A3C583C5F0C583C8C582C8C3
:0108AF002226
:1008B000EC8EF0A4CCC5F0CCCDF8EFA4CEC5F02DD5
:1008C000FDE43CFCE8A42EC8C5F03DFDE43CFCEF93
:0D08D000A4FFE5F028FEE43DFDE43CFC2221
:101C3B00900081E0FFA3E0FEA3E0CF90008AF0A329
:101C4B00EEF0A3EFF0900084E0CBF0A3E0CAF0A39A
:101C5B00E0C9F07F2290008DAD82AC8312069F8D80
:101C6B00828C83F0A309E970010ADFEC900084E019
:0A1C7B00FBA3E0FAA3E0F902008BDE
:10002600E508248AF582E43400F583E00508229089
:10003600008730070390008AE475F0011208EF028A
:10004600069F2000E97F2ED2008018EF540F2490DF
:10005600D43440D4FF30040BEF24BFB41A0050034D
:100066002461FFE50960021509050CE50C7002051F
:100076000B30070E900087E475F0011208EFEF02CF
:1000860008DD021DE57403D2078003E4C207F50804
:10009600900087120906E4F509F50BF50CE50960F1
:1000A600077F2012006980F5750AFFC201C200C2EF
:1000B60002C203C205C206C208120035FF700D3027
:1000C60007057F0012007AAF0CAE0B22B4255FC283
:1000D600D5C204120035FF24D0B40A00501A75F0B8
:1000E6000A780930D50508B6FF0106C6A426F6200B
:1000F600D5047002D20380D924CFB41A00EF50047D
:10010600C2E5D20402027BD20180C6D20080C0D2F0
:100116000280BCD2D580BAD20580B47F2012006995
:100126002002077401B5090040F1120026FF1200F3
:10013600690200A3D208D2068095120026FB12009F
:1001460026FA120026F94A4B7006794C7A037BFF91
:1001560020022EE509602A7E008E82758300120633
:10016600B860060EEE650A70F0C2D5EBC0E0EAC0D4
:10017600E0E9C0E0EE1202C2D0E0F9D0E0FAD0E049
:10018600FB12069FFF60AAEBC0E0EAC0E0E9C0E010
:10019600120069D0E02401F9D0E03400FAD0E0FB87
:1001A600E50A0460DCD50AD980877BFF7A0279BE2E
:1001B600D202809C791080027908C206C2088008A3
:1001C600D2D5790A8004790AC2D5E50A047002F507
:1001D6000AE4FAFDFEFF120026FC7B08200113123A
:1001E6000026FD7B1030000A120026FE120026FFB4
:1001F6007B20EC3382D592D55013C3E43000069FA2
:10020600FFE49EFEE42001039DFDE49CFCE4CBF8A4
:10021600C201EC700CCFCECDCCE824F8F870F38098
:1002260017C3EF33FFEE33FEED33FDEC33FCEB3358
:10023600FB994002FB0FD8E9EB300105F8D0E0C48A
:1002460048B201C0E00AEC4D4E4F78207B0070C2E8
:10025600EAB50A0040BCC0E01202C4D0F0D0E020EB
:100266000104C4C0E0C4B201C0F0120052D0F0D5FF
:10027600F0EB0200A312090F01405301BA58011115
:100286004C010D4201BE4F01C64401C64901264339
:0802960001CC5501B04601B096
:10029E004501B047036C5001152D01192E013C2B61
:1002AE00011D23013A2003552A00D54800000134D0
:1002BE003F3F3F00790AA2D5200314300509B9103B
:1002CE00020404B9080104A2D5200602500104203C
:1002DE0002689202B509005034C0E07F2030031945
:1002EE007F30A20272067205500F12031BC202C2A9
:1002FE0006C205C2087F30800F300503E9C0E01248
:10030E000069300503D0E0F9D0E0B509CC3005170F
:10031E007F30B9100C1200697F583004077F788047
:10032E0003B908031200693002057F2D0200697FB0
:10033E00202008F87F2B2006F322920280CF286E11
:10034E00756C6C2900D2011200263001F8C20178BA
:10035E000930D50108F60200D52D50434958120038
:10036E00262403B405004001E49003679312005A5B
:0D037E00743A12005AD2037509040201BA44
:1008DD00BB010689828A83F0225002F722BBFE01FA
:0208ED00F322F4
:1008EF00F8E0FBA3A3E0F925F0F0E5821582700292
:0708FF001583E0FA38F02236
:09090600EBF0A3EAF0A3E9F022F2
:10090F00D083D082F8E4937012740193700DA3A377
:10091F0093F8740193F5828883E47374029368608B
:06092F00EFA3A3A380DF8B
:101DE500EFB40A07740D121DF0740A309811A89902
:101DF500B8130CC2983098FDA899C298B811F6305E
:071E050099FDC299F5992235
:00000001FF
