:0300000002165C89
:0C165C00787FE4F6D8FD7581210216A30A
:101BC50048656C6C6F2C4543424D206973207275D6
:101BD5006E696E672061742025642074696D657374
:041BE5002E0D0A00B7
:101B2000E4900000F0120955900000E004F07BFF03
:101B30007A1B79C5E0FF900005E4F0A3EFF07F0287
:0C1B400012176C7FE87E0312000380DCAB
:071C2B00440130000000003D
:10000300EF4E601A900128E0FCA3E0FDED1D7001A6
:0E0013001C144C70F7EF1F70011E144E70E6A7
:0100210022BC
:081C0000900078E0FEA3E0FF74
:0A1C0800EF1FAC0670011E4C70F6D1
:011C120022AF
:101B9F00900128E0FCA3E0FD1208D0E47B83FAF962
:101BAF00F812076590012C12089390012CE0C313D3
:061BBF00FEA3E013FF226B
:101B4C0090012BE06599600AE599F0E490012AF088
:101B5C00800690012AE004F090012AE0C394E97415
:0C1B6C0080948040060075C760000022D5
:0B17D2009000A8EBF0A3EAF0A3E9F000
:1017DD009001137401F0A37400F0A374ABF09000AA
:1017ED00A8E0F9A3E0FAA3E090007AC9F0A3EAF02B
:1017FD00A3E9F0900113E0F9A3E0FAA3E090007DD6
:10180D00C9F0A3EAF0A3E9F07B017A0079D31219AC
:10181D00DA900113E4F0A3F0A3F07B017A0079D301
:05182D007F01021AE931
:10131F00EF14601614602C14604D14606C1470037D
:10132F000213B3240560030213D690FE02E0547E2D
:10133F004480F0E030E0F390FE00E054FCF090FECB
:10134F0003807A90FE04E0547E4480F0E030E0F3B6
:10135F0090FE00E054FC4403F090FE02E4F090FE97
:10136F0008F090FE03F02290FE08E0547E4480F0D7
:10137F00E030E0F390FE00E054FC4402F090FE04F5
:10138F00E4F090FE02F0A3F02290FE03E0543E44FE
:10139F0080F0E030E0F390FE00E054FC4401F09068
:1013AF00FE02801990FE03E0543E44C0F0E030E0AE
:1013BF00F390FE00E054FC4401F090FE02E4F09044
:0813CF00FE08F090FE04F0227C
:0C1C1300EF90FE01700304F022EFF022BD
:1009550043BA80AF9FE4FCFDFEC004A905AA06AB1F
:100965000778FBE6FFD000C3EF9BFFEE9AFEED99FB
:10097500FDEC98FCE47BF07AD2F9F8120765C3E444
:100985009FFF74369EFE746E9DFD74019CFC900065
:1009950001120893900001E0FCA3E0FDA3E0FEA393
:1009A500E0FFC00790FE01E0FBE4FAF9F8D007127A
:1009B50007F09000011208937FC07EF67D577C00FA
:1009C500900001E0F8A3E0F9A3E0FAA3E0FBC3126D
:1009D5000882500D90013012089F00546000020BF0
:1009E500847FC07E267D827C00900001E0F8A3E034
:1009F500F9A3E0FAA3E0FBC3120882500D90013081
:100A050012089F005B8D80020B847F807EED7DAF99
:100A15007C00900001E0F8A3E0F9A3E0FAA3E0FB75
:100A2500C3120882500D90013012089F00A8C00023
:100A3500020B847F807E2D7DE87C00900001E0F82C
:100A4500A3E0F9A3E0FAA3E0FBC3120882500D90DE
:100A5500013012089F00B71B00020B847F807E3691
:100A65007D257C01900001E0F8A3E0F9A3E0FAA35D
:100A7500E0FBC3120882500D90013012089F011946
:100A85004000020B847F807E567D417C01900001F1
:100A9500E0F8A3E0F9A3E0FAA3E0FBC31208825053
:100AA5000D90013012089F01312D00020B847F004B
:100AB5007EDB7D5F7C01900001E0F8A3E0F9A3E017
:100AC500FAA3E0FBC3120882500D90013012089F73
:100AD50001518000020B847F607E197D857C019029
:100AE5000001E0F8A3E0F9A3E0FAA3E0FBC31208D4
:100AF50082500D90013012089F016E3600020B8462
:100B05007F207EE07DB27C01900001E0F8A3E0F952
:100B1500A3E0FAA3E0FBC3120882500C9001301247
:100B2500089F019BFCC080577FE07EA67DE07C018D
:100B3500900001E0F8A3E0F9A3E0FAA3E0FBC312FB
:100B45000882500C90013012089F01C9C380802F84
:100B55007F607E2B7DFF7C01900001E0F8A3E0F92A
:100B6500A3E0FAA3E0FBC3120882900130500912FA
:100B7500089F01FA4000800712089F02160EC0E484
:100B85007B107A27F9F8900130E0FCA3E0FDA3E0A3
:100B9500FEA3E0FF1207F0900128EEF0A3EFF0E4CA
:0D0BA50090012BF090012AF01218E3D2AF5E
:010BB2002220
:0B125A00900008EBF0A3EAF0A3E9F01D
:101265007F647E00121B9F900078EEF0A3EFF09054
:1012750000757401F0A37400F0A3740BF0900008DE
:10128500E0F9A3E0FAA3E090007AC9F0A3EAF0A39D
:10129500E9F0900075E0F9A3E0FAA3E090007DC9BC
:1012A500F0A3EAF0A3E9F07B017A0079351219DAA7
:1012B500900033EEF0A3EFF0900075E4F0A3F0A3F7
:1012C500F07FF47E01120003E4FBFAD3900034E0D2
:1012D5009B900033E09A40E9D2B1C2B1121C007470
:1012E500352BF58274003AF583E0F9E4FDEDC394FE
:1012F50008748094805014E930E004D2B18002C2B1
:10130500B1E9C313F9121C000D80E2D2B1121C0021
:0A131500121C000BBB00010A80B19E
:0B148100900134EBF0A3EAF0A3E9F0C7
:10148C00E4FFFE90013AF0A3F0A3F0A3F090013436
:10149C00E0FBA3E0FAA3E0F91206BF607790013DF0
:1014AC00E004F0700690013CE004F0900137E0FBA2
:1014BC00A3E0FAA3E0F98F828E831206D8FD900187
:1014CC0034E0FBA3E0FAA3E0F91206BFB505070F61
:1014DC00BF00010E8012E4FEFF90013CE0FDA3E092
:1014EC0090013ACDF0A3EDF0900135E475F00112C6
:1014FC000739900137E0FBA3E0FAA3E0F98F828E65
:10150C00831206D8FD3395E04D708290013AE0FECF
:08151C00A3E0FF227EFF7FFF28
:0115240022A4
:1010A300E4900143F0900145F0900144F090014435
:1010B300E0C3940A748094804003021185E07E00AB
:1010C3002DF582EE3CF5831206D8FF3395E0FEC37F
:1010D300EF9430EE648094804052D3EF9437EE6403
:1010E3008094805047900145E004F0E0640170195A
:1010F300900144E07E002DF582EE3CF5831206D884
:1011030024D0C454F0900143F0900145E064027090
:101113001B900144E07E002DF582EE3CF583120620
:10112300D824D0FF900143E04FFFF022900144E028
:101133007E002DF582EE3CF5831206D8FF3395E051
:10114300FEC3EF9438EE648094804011D3EF94395A
:10115300EE648094805006900145E004F0900144D1
:10116300E07E002DF582EE3CF5831206D8FF642C59
:101173006010EF3395E04F6009900144E004F00202
:0711830010B0900143E0FFF2
:01118A002242
:08118B0090013EECF0A3EDF031
:10119300E4A3F0A3F0A3F0900142E0FFC39414741E
:1011A300809480400302125190013FE02FFF900191
:1011B3003EE034008F82F5831206D8FF3395E0FEBC
:1011C300C3EF9430EE648094804051D3EF9439EEB2
:1011D300648094805046900140E0FEA3E0FF7C00D1
:1011E3007D0A120727900140EEF0A3EFF0A3E0FF82
:1011F30090013FE02FFF90013EE034008F82F583A2
:101203001206D8FF3395E0FEEF24D0FFEE34FFFE45
:10121300900141E02FF0900140E03EF0900142E068
:10122300FF90013FE02FFF90013EE034008F82F5F5
:10123300831206D8FF642C6015EF642E6010EF3321
:1012430095E04F6009900142E004F002119A900189
:0612530040E0FEA3E0FFF5
:011259002272
:100D5500900116EBF0A3EAF0A3E9F0A3ECF0A3ED04
:010D6500F09D
:100D6600E4900122F0A3F0A3F0A3F0A3F0A3F09087
:100D76000120F0A3F0900119E0FEA3E0FF9001200E
:100D8600E0FCA3E0FDC39FEC9E4003020E2590010C
:100D96001BE0FBA3E0FAA3E0F9900122E0FEA3E04A
:100DA600F5828E831206D8FF900116E0FBA3E0FAC7
:100DB600A3E0F98D828C831206D8B5073390012300
:100DC600E004F07006900122E004F090011EE0FEBF
:100DD600A3E0FF900122E0B50631A3E0B5072C9011
:100DE6000120E0FFA3E0900126CFF0A3EFF0802FD3
:100DF600E4900122F0A3F0900121E02401FE90018D
:100E060020E03400900124F0A3CEF0900121E0040C
:100E1600F06003020D7B900120E004F0020D7B9050
:100E26000126E0FEA3E0FF900124E0FCA3E0FDD351
:100E36009FEC9E5044900120ECF0A3EDF09001262B
:100E4600E0FEA3E0FF900120E0FCA3E0FDC39FECE1
:100E56009E5023900116E0FBA3E0FAA3E0F98D82F1
:100E66008C83E4120705900121E004F070CF900115
:0B0E760020E004F080C77F01227F0015
:010E8100224E
:100BB3006770696F5F757070756C6C283C44253085
:100BC30032583E2C2564293BB2BBB4E6D4DAB8C311
:100BD300494F0D0A006770696F5F757070756C6CB3
:100BE300283C44253032583E2C31293BB2BBB4E675
:100BF300D4DAB8C3494F0D0A006770696F5F757027
:100C030070756C6C283C44253032583E2C30293B9F
:100C1300B2BBB4E6D4DAB8C3494F0D0A00677069B2
:100C23006F5F6D6F6465283C44253032583E2C2538
:100C330064293BB2BBB4E6D4DAB8C3494F0D0A000A
:100C43006770696F5F6D6F64652844253032582C77
:100C53003C25643E293BB2BBB4E6D4DAB8C3C4A393
:100C6300CABD0D0A006770696F5F77726974652882
:100C73003C25643E2C2564293BB2BBB4E6D4DAB8E8
:100C8300C350BFDA0D0A006770696F5F72656164F4
:100C9300283C5025643E293BB2BBB4E6D4DAB8C342
:100CA30050BFDA0D0A006770696F5F6F7574283C77
:100CB30044253032583E2C2564293BB2BBB4E6D4DC
:100CC300DAB8C3494F0D0A006770696F5F6F7574B7
:100CD300283C44253032583E2C31293BB2BBB4E684
:100CE300D4DAB8C3494F0D0A006770696F5F6F7537
:100CF30074283C44253032583E2C30293BB2BBB4D7
:100D0300E6D4DAB8C3494F0D0A006770696F5F69AB
:100D13006E283C44253032583E293BB2BBB4E6D45E
:100D2300DAB8C3494F0D0A006770696F5F746F6764
:100D3300676C65283C44253032583E293BB2BBB42E
:100D4300E6D4DAB8C3494F0D0A00010204081020A3
:020D53004080DE
:0A0E8200900147EDF0900146EFF0FB
:100E8C0064887003020F93E0FF54F0F50DEF540FDC
:100E9C00FF900D4D93F50ED3EF9407748094804022
:100EAC00237BFF7A0B79B3900146E0FF90000BE4B3
:100EBC00F0A3EFF0900147E0FF90000DE4F0A3EFFA
:100ECC00F012125A900147E06055E50D24F06021B4
:100EDC0024F0602224F0602324F0602424F06025A8
:100EEC0024F0602624F060272470702B90FE108074
:100EFC002190FE11801C90FE12801790FE13801220
:100F0C0090FE14800D90FE15800890FE16800390C4
:100F1C00FE17E0450EF0227BFF7A0B79D88058E55E
:100F2C000D24F0602124F0602224F0602324F06072
:100F3C002424F0602524F0602624F06027247070AF
:100F4C003090FE10802190FE11801C90FE128017B4
:100F5C0090FE13801290FE14800D90FE1580089068
:100F6C00FE16800390FE17E0FFE50EF4FEEF5EF038
:100F7C00227BFF7A0B79FC900146E0FF90000BE49A
:070F8C00F0A3EFF012125A6E
:010F9300223B
:0A03AB00900007EDF0900006EFF05F
:1003B500648870030206BEE0FF54F0F50DEF540F9C
:1003C500FF900D4D93F50ED3EF9407748094804004
:1003D500237BFF7A0C7920900006E0FF90000BE468
:1003E500F0A3EFF0900007E0FF90000DE4F0A3EF1D
:1003F500F012125AE50D24F0602124F0602224F059
:10040500602324F0602424F0602524F0602624F085
:10041500602724707028E4F50D8046750D01804134
:10042500750D02803C750D038037750D048032759E
:100435000D05802D750D068028750D0780237BFF22
:100445007A0C7920900006E0FF90000BE4F0A3EF12
:10045500F0900007E0FF90000DE4F0A3EFF012121A
:100465005A900007E0FFD3940374809480401C7B6E
:10047500FF7A0C7943900006E0FD90000BE4F0A3B1
:10048500EDF0A3E4F0A3EFF012125AE50D704090E1
:100495000007E0FF7E007007E50EF452935294EFDB
:1004A50064014E7009E50E4293E50EF452949000F6
:1004B50007E064027008E50E4293E50E4294900051
:1004C50007E064037009E50EF45293E50E4294E5E6
:1004D5000D64017040900007E0FF7E007007E50E97
:1004E500F452915292EF64014E7009E50E4291E586
:1004F5000EF45292900007E064027008E50E4291F6
:10050500E50E4292900007E064037009E50EF4528F
:1005150091E50E4292E50D64027040900007E0FF00
:100525007E007007E50EF452955296EF64014E7009
:1005350009E50E4295E50EF45296900007E0640237
:100545007008E50E4295E50E4296900007E06403BB
:100555007009E50EF45295E50E4296E50D640370BB
:1005650040900007E0FF7E007007E50EF452B1529F
:10057500B2EF64014E7009E50E42B1E50EF452B2D8
:10058500900007E064027008E50E42B1E50E42B244
:10059500900007E064037009E50EF452B1E50E42E0
:1005A500B2E50D64047040900007E0FF7E0070071F
:1005B500E50EF452B352B4EF64014E7009E50E42F4
:1005C500B3E50EF452B4900007E064027008E50E3E
:1005D50042B3E50E42B4900007E064037009E50EEE
:1005E500F452B3E50E42B4E50D6405704090000782
:1005F500E0FF7E007007E50EF452C952CAEF6401B0
:100605004E7009E50E42C9E50EF452CA900007E0A6
:1006150064027008E50E42C9E50E42CA900007E083
:1006250064037009E50EF452C9E50E42CAE50D648E
:10063500067040900007E0FF7E007007E50EF4525B
:10064500CB52CCEF64014E7009E50E42CBE50EF4BA
:1006550052CC900007E064027008E50E42CBE50E2F
:1006650042CC900007E064037009E50EF452CBE537
:100675000E42CCE50D64077040900007E0FF7E0058
:100685007007E50EF452E152E2EF64014E7009E5A0
:100695000E42E1E50EF452E2900007E064027008B4
:1006A500E50E42E1E50E42E2900007E064037009C1
:0906B500E50EF452E1E50E42E20B
:0106BE002219
:10183200EFB40900503A90183FF828287302185A5A
:1018420002185D0218600218630218660218690223
:10185200186C02186F02188B8D80228D90228DA039
:10186200228DB0228DC0228DC8228DE8228DF822D1
:101872007BFF7A0C796890000BE4F0A3EFF0AF05E0
:0A188200A3E4F0A3EFF012125A22C3
:10188C00EFB40900503D901899F82828730218B449
:10189C000218B70218BA0218BD0218C00218C30207
:1018AC0018C60218C90218CCAF8022AF9022AFA084
:1018BC0022AFB022AFC022AFC822AFE822AFF822CD
:1018CC007FFF227BFF7A0C798A90000BE4F0A3EF68
:0718DC00F012125A7FFF22F7
:0A0F9400900149EDF0900148EFF0E4
:100F9E00648870030210A2E0FF54F0F50DEF540FB9
:100FAE00FF900D4D93F50ED3EF940774809480400F
:100FBE00237BFF7A0C79A9900148E0FF90000BE4A7
:100FCE00F0A3EFF0900149E0FF90000DE4F0A3EFE5
:100FDE00F012125A900149E06052E50D24F06021A2
:100FEE0024F0602224F0602324F0602424F0602595
:100FFE0024F0602624F0602724707028E50E4280CD
:10100E0022E50E429022E50E42A022E50E42B022CB
:10101E00E50E42C022E50E42C822E50E42E822E568
:10102E000E42F8227BFF7A0C79CB8058E50D24F026
:10103E00602224F0602424F0602624F0602824F03E
:10104E00602A24F0602C24F0602E24707030E50E9F
:10105E00F4528022E50EF4529022E50EF452A022B4
:10106E00E50EF452B022E50EF452C022E50EF45213
:10107E00C822E50EF452E822E50EF452F8227BFF68
:10108E007A0C79EC900148E0FF90000BE4F0A3EFAE
:04109E00F012125AE0
:0110A200222B
:0513D70090014AEFF057
:1013DC0064887002FF2290014AE0FF54F0F50DEF93
:1013EC00540FFF900D4D93F50ED3EF94077480942A
:1013FC008040167BFF7A0D790D90014AE0FF90003A
:10140C000BE4F0A3EFF012125AE50D24F060212446
:10141C00F0602224F0602324F0602424F060252462
:10142C00F0602624F060272470702885800F8039A6
:10143C0085900F803485A00F802F85B00F802A8572
:10144C00C00F802585C80F802085E80F801B85F88C
:10145C000F80167BFF7A0D790D90014AE0FF90000A
:10146C000BE4F0A3EFF012125AE50F550E60037F58
:04147C0001227F00CA
:011480002249
:0515250090014BEFF006
:10152A00648870030215C1E0FF54F0F50DEF540F03
:10153A00FF900D4D93F50ED3EF940774809480407D
:10154A00167BFF7A0D792B90014BE0FF90000BE49C
:10155A00F0A3EFF012125AE50D24F0602124F06096
:10156A002224F0602324F0602424F0602524F06013
:10157A002624F0602724707028E50E628022E50E8A
:10158A00629022E50E62A022E50E62B022E50E62AA
:10159A00C022E50E62C822E50E62E822E50E62F874
:1015AA00227BFF7A0D792B90014BE0FF90000BE430
:0715BA00F0A3EFF012125A3A
:0115C1002207
:101A6B00EFB40800503E901A78F8282873021A90A9
:101A7B00021A94021A98021A9C021AA0021AA402C1
:101A8B001AA8021AACED628022ED629022ED62A0E0
:101A9B0022ED62B022ED62C022ED62C822ED62E857
:051AAB0022ED62F822AB
:1015C200A907EB6048E9B40800400302165B9015D6
:1015D200D7F82828730215EF0215F30215F7021542
:1015E200FB0215FF02160302160702160BED4280DC
:1015F20022ED429022ED42A022ED42B022ED42C005
:1016020022ED42C822ED42E822ED42F822E9B40876
:1016120000504690161CF828287302163402163918
:1016220002163E02164302164802164D02165202D6
:101632001657EDF4528022EDF4529022EDF452A0AE
:1016420022EDF452B022EDF452C022EDF452C8223F
:0A165200EDF452E822EDF452F82204
:10193A00EFB409005045901947F828287302196234
:10194A0002196602196A02196E02197202197602DE
:10195A00197A02197E021982AE80801FAE90801B0E
:10196A00AEA08017AEB08013AEC0800FAEC8800B99
:10197A00AEE88007AEF880037F0122EE5D60037F48
:04198A0001227F00B7
:01198E002236
:0C1C1F0030313637161743441011404294
:1018E30075985053873F538EDEE4FD7F011216E84F
:1018F30090000612089F0001C2007F0112198F4356
:101903008E4053890FC2ABC28FD28EC209D2AC753F
:101913009A10E4FD7F021216E890000612089F0059
:1019230001C2007F0212198F438E0453AFFB438E13
:0719330010C20A43AF0122BC
:1016E800900005EDF0EF24FE603F04707690000551
:1016F800E0FF54C0FEE5A2543F4EF5A2EFC4131319
:10170800540325E0241FF582E4341CF583E493FF99
:10171800E4FD1203AB900005E0C41313540325E065
:101728002420F582E4341C8030900005E0FF540149
:10173800FEE5BA54FE4EF5BAEF25E02427F582E41B
:10174800341CF583E493FFE4FD1203AB900005E03D
:1017580025E02428F582E4341CF583E493FF7D0317
:041768001203AB229B
:05198F00900005EFF0DF
:10199400E47B04FAF9F8900130E0FCA3E0FDA3E055
:1019A400FEA3E0FF1207F0900006E0F8A3E0F9A31D
:1019B400E0FAA3E0FB1207F0C3E49FFFE49EFE906D
:1019C4000005E024FE600904700B8F8BEEF58D2278
:0519D4008FD7EEF5D6EF
:0119D90022EB
:10002600EF24FE600C0470128D99D20930090B8002
:0B003600FBAF058F9BD20A200AFD22C1
:101AB000EF24FE6019047030EB6006D29BD29B804D
:101AC00004C29BC29B8D99D20930091C80FBEB603C
:101AD00008439A08439A088006539AF7539AF7AF37
:091AE000058F9BD20A200AFD22A9
:101AE900900070EBF0A3EAF0A3E9F0AE0790007064
:101AF900E0FBA3E0FAA3E0F91206BF6019AF069074
:101B09000070A3E475F00112074FA9F0FA1206BF9D
:071B1900FD12002680D72217
:0E176C00900001EFF0A3EBF0A3EAF0A3E9F088
:10177A0090006D7401F0A37400F0A37405F090005A
:10178A0002E0F9A3E0FAA3E090007AC9F0A3EAF034
:10179A00A3E9F090006DE0F9A3E0FAA3E090007DE0
:1017AA00C9F0A3EAF0A3E9F07B017A00792D1219B6
:1017BA00DA90006DE4F0A3F0A3F0900001E0FF7B63
:0817CA00017A00792D021AE9F1
:03002300021A249A
:101A2400C0E0C0F0C083C082C0D075D000C000C088
:101A340001C002C003C004C005C006C00730980539
:101A4400C298121B4C309904C299C209D007D0061F
:101A5400D005D004D003D002D001D000D0D0D082A1
:071A6400D083D0F0D0E03286
:03004300021BE9B4
:101BE900C0E0E59A30E003539AFEE59A30E10553E7
:071BF9009AFDC20AD0E032A0
:10166800021B20E493A3F8E493A34003F68001F25D
:1016780008DFF48029E493A3F85407240CC8C33383
:10168800C4540F4420C8834004F456800146F6DF52
:10169800E4800B0102040810204080901C2BE47E9B
:1016A800019360BCA3FF543F30E509541FFEE49347
:1016B800A360010ECF54C025E060A840B8E493A30E
:1016C800FAE493A3F8E493A3C8C582C8CAC583CA39
:1016D800F0A3C8C582C8CAC583CADFE9DEE780BEF1
:011C320000B1
:1006BF00BB010689828A83E0225002E722BBFE0239
:0906CF00E32289828A83E493226C
:1006D800BB010CE58229F582E5833AF583E02250D7
:1006E80006E92582F8E622BBFE06E92582F8E22221
:0D06F800E58229F582E5833AF583E493223B
:10070500F8BB010DE58229F582E5833AF583E8F02A
:10071500225006E92582C8F622BBFE05E92582C8D6
:02072500F222BE
:10072700EF8DF0A4A8F0CF8CF0A428CE8DF0A42EE6
:02073700FE22A0
:10073900C5F0F8A3E028F0C5F0F8E582158270024B
:060749001583E038F022E8
:10074F00A3F8E0C5F025F0F0E5821582700215835D
:06075F00E0C838F0E822BA
:10076500E88FF0A4CC8BF0A42CFCE98EF0A42CFC33
:100775008AF0EDA42CFCEA8EF0A4CDA8F08BF0A4B1
:100785002DCC3825F0FDE98FF0A42CCD35F0FCEB10
:100795008EF0A4FEA9F0EB8FF0A4CFC5F02ECD39D5
:0F07A500FEE43CFCEAA42DCE35F0FDE43CFC2242
:1007B40075F008758200EF2FFFEE33FECD33CDCCFC
:1007C40033CCC58233C5829BED9AEC99E58298407F
:1007D4000CF582EE9BFEED9AFDEC99FC0FD5F0D65C
:1007E400E4CEFBE4CDFAE4CCF9A88222B800C1B986
:1007F4000059BA002DEC8BF084CFCECDFCE5F0CBC4
:10080400F97818EF2FFFEE33FEED33FDEC33FCEBFC
:1008140033FB10D703994004EB99FB0FD8E5E4F9B7
:10082400FA227818EF2FFFEE33FEED33FDEC33FCA4
:10083400C933C910D7059BE99A4007EC9BFCE99A98
:10084400F90FD8E0E4C9FAE4CCFB2275F010EF2FDD
:10085400FFEE33FEED33FDCC33CCC833C810D707DD
:100864009BEC9AE899400AED9BFDEC9AFCE899F818
:0E0874000FD5F0DAE4CDFBE4CCFAE4C8F922AB
:10088200EB9FF5F0EA9E42F0E99D42F0E89C45F0CC
:010892002243
:0C089300ECF0A3EDF0A3EEF0A3EFF022D8
:10089F00A8828583F0D083D0821208B61208B612D0
:1008AF0008B61208B6E473E493A3C583C5F0C583F5
:1008BF00C8C582C8F0A3C583C5F0C583C8C582C8A3
:0108CF002206
:1008D000EC8EF0A4CCC5F0CCCDF8EFA4CEC5F02DB5
:1008E000FDE43CFCE8A42EC8C5F03DFDE43CFCEF73
:0D08F000A4FFE5F028FEE43DFDE43CFC2201
:1019DA0090007AE0FFA3E0FEA3E0CF900083F0A39B
:1019EA00EEF0A3EFF090007DE0CBF0A3E0CAF0A305
:1019FA00E0C9F07F22900086AD82AC831206BF8DCB
:101A0A00828C83F0A309E970010ADFEC90007DE083
:0A1A1A00FBA3E0FAA3E0F90200AB21
:10004600E5082483F582E43400F583E00508229070
:100056000080300703900083E475F00112090F0257
:1000660006BF2000E97F2ED2008018EF540F24909F
:10007600D43440D4FF30040BEF24BFB41A0050032D
:100086002461FFE50960021509050CE50C700205FF
:100096000B30070E900080E475F00112090FEF0295
:1000A60008FD021B787403D2078003E4C207F50833
:1000B600900080120926E4F509F50BF50CE50960B8
:1000C600077F2012008980F5750AFFC201C200C2AF
:1000D60002C203C205C206C208120055FF700D30E7
:1000E60007057F0012009AAF0CAE0B22B4255FC243
:1000F600D5C204120055FF24D0B40A00501A75F078
:100106000A780930D50508B6FF0106C6A426F620EA
:10011600D5047002D20380D924CFB41A00EF50045C
:10012600C2E5D20402029BD20180C6D20080C0D2B0
:100136000280BCD2D580BAD20580B47F2012008955
:100146002002077401B5090040F1120046FF1200B3
:10015600890200C3D208D2068095120046FB12001F
:1001660046FA120046F94A4B7006796C7A037BFF11
:1001760020022EE509602A7E008E82758300120613
:10018600D860060EEE650A70F0C2D5EBC0E0EAC094
:10019600E0E9C0E0EE1202E2D0E0F9D0E0FAD0E009
:1001A600FB1206BFFF60AAEBC0E0EAC0E0E9C0E0D0
:1001B600120089D0E02401F9D0E03400FAD0E0FB47
:1001C600E50A0460DCD50AD980877BFF7A0279DEEE
:1001D600D202809C791080027908C206C208800883
:1001E600D2D5790A8004790AC2D5E50A047002F5E7
:1001F6000AE4FAFDFEFF120046FC7B0820011312FA
:100206000046FD7B1030000A120046FE120046FF33
:100216007B20EC3382D592D55013C3E43000069F81
:10022600FFE49EFEE42001039DFDE49CFCE4CBF884
:10023600C201EC700CCFCECDCCE824F8F870F38078
:1002460017C3EF33FFEE33FEED33FDEC33FCEB3338
:10025600FB994002FB0FD8E9EB300105F8D0E0C46A
:1002660048B201C0E00AEC4D4E4F78207B0070C2C8
:10027600EAB50A0040BCC0E01202E4D0F0D0E020AB
:100286000104C4C0E0C4B201C0F0120072D0F0D5BF
:10029600F0EB0200C312092F01605301DA58013155
:1002A6004C012D4201DE4F01E64401E64901464379
:0802B60001EC5501D04601D016
:1002BE004501D047038C5001352D01392E015C2BA1
:1002CE00013D23015A2003752A00F5480000015410
:1002DE003F3F3F00790AA2D5200314300509B9101B
:1002EE00020404B9080104A2D5200602500104201C
:1002FE0002689202B509005034C0E07F2030031925
:10030E007F30A20272067205500F12033BC202C268
:10031E0006C205C2087F30800F300503E9C0E01227
:10032E000089300503D0E0F9D0E0B509CC300517CF
:10033E007F30B9100C1200897F583004077F788007
:10034E0003B908031200893002057F2D0200897F50
:10035E00202008F87F2B2006F322920280CF286EF1
:10036E00756C6C2900D2011200463001F8C201787A
:10037E000930D50108F60200F52D504349581200F8
:10038E00462403B405004001E49003879312007ADB
:0D039E00743A12007AD2037509040201DAE4
:1008FD00BB010689828A83F0225002F722BBFE01DA
:02090D00F322D3
:10090F00F8E0FBA3A3E0F925F0F0E5821582700271
:07091F001583E0FA38F02215
:09092600EBF0A3EAF0A3E9F022D2
:10092F00D083D082F8E4937012740193700DA3A357
:10093F0093F8740193F5828883E47374029368606B
:06094F00EFA3A3A380DF6B
:101B7800EFB40A07740D121B83740A309811A899E0
:101B8800B8130CC2983098FDA899C298B811F630CD
:071B980099FDC299F59922A5
:00000001FF
